:020000040000FA
:06000000020F060205E3F9
:03002B00020CEBD9
:03003300020AB30B
:030053000205188B
:03007B00020A8DE9
:100083000205770100F0FF0700080000FFFF0000F2
:1000930001040000000300010020FD000C111811F1
:1000A3000000000012111E1112112A11000000009D
:1000B30012111E11000000000000000000000000EB
:1000C30000000000000000000000000048114E1175
:1000D30054110000000000000000000092828A8298
:1000E300868282827E82668262821283DA82CE82F4
:1000F300CA82A68201AACDABCDAB01011E83012426
:10010300830206FFFF00001D5500000000000000F1
:1001130000010400002611000000E8030000FFFFB7
:1001230077110188130000E803000064006400B83D
:1001330001A0BB0D00A0BB0D0002020207040105D4
:100143001E02051E020A0A0108080103B80B0280F9
:100153003E0102FEFFE8030A050001FFFF020A0158
:100163001401E005030101FF0FC3270000000097FE
:100173002600000000FF000000FF00120F16601DA4
:10018300120F257005191919801A120DCD701F123F
:100193000DE1C37003E667331919194007181818DE
:1001A3002208080874FFF618F618F618F622120D3E
:1001B300E16017120FCB702192F0120FD470195017
:1001C3001720F014080808090909E7F61819E7F6D3
:1001D3001819E7F61819E7F622120FD460E6E86952
:1001E300701F0808E62480F608E436F618547FB436
:1001F3007F0CE654806007F6E418F618F622181808
:1002030022E9C6CC08C6CD08C6CE08C6CFC0E0E8F2
:10021300C0E0EAC0E0EBC0E009E9F809E7FA09E762
:10022300FBE6F918E6F8C3EC98ED99EE9AEBC2E712
:10023300F5F0EFC2E795F0500E600CEBCFFBEACE82
:10024300FAE9CDF9E8CCF8EAA2E7D2E7FAEB33FB17
:1002530013F5F0EEA2E7D2E7FEEF33FFC5F013A2EA
:10026300E730E601B313C5F0C3C0E0C0F07F00C3BD
:100273009BFB605E9418600F401D14601AD0E0234E
:10028300F9D0E0F802035F8AF0E9486003D2F0E4B2
:10029300AFF0FAF9F8803BEB30E40D89F0EA600344
:1002A300D2F0E4AFF0F9CAF8EB30E30D88F0EF6079
:1002B30002D2F0AFF0E4CAC9F8EB54076014FBC3F1
:1002C300EA13FAE913F9E813F8EF135002D2E0FF47
:1002D300DBEDD0E0C0E030E739C3E49FFFF5F0EC9D
:1002E30098FC42F0ED99FD42F0EE9AFE42F0D0E028
:1002F300F9D0E0F8E5F0607AE923F9EE20E742D897
:10030300028067C3EF33FFEC33FCED33FDEE33FEC6
:1003130080EAEC28FCED39FDEE3AFED0E023F9D07B
:10032300E0F84002801BC3EE13FEED13FDEC13FC5B
:10033300EF135002D2E0FF08B800067F7F74FF80FE
:100343002EEF3350178CF020F00260100CBC000C21
:100353000DBD00080EBE000408E860DFE933E813B2
:10036300FFEE2313FE4F4D4C8008E95480FFE4FE5B
:10037300FDFCEE33EF33F47004FCFD7E80D0E0FB34
:10038300D0E0FAD0E0F8D0E0CFC618CEC618CDC67C
:1003930018CCC6F92200120F16604F120F256012F7
:1003A300E7548066F6120DCD7011120FCB703B0926
:1003B3000909F4F618F618F618F622120DE170156D
:1003C300120FD408080860EAE6447FF6187680180E
:1003D300E4F618F622120FD46016120FCB7012E453
:1003E300F608F608F608E65480F6090909181818FD
:1003F30022EAC0E0EBC0E0ECC0E0EDC0E0E687F04D
:10040300A4FBACF008E687F0A42CFCE435F0FA1862
:1004130009E687F0A42C4B60027401CA35F0FCE4B2
:1004230033FB09E687F0D2F7A42CCB35F0FC19088F
:10043300E687F0A42BCC35F0FBE433FD0819E687FF
:10044300F0D2E7A42C4ACB35F0CD3400FC09E68783
:10045300F0D2E7A42DCC35F0FDE433FA0918E68792
:10046300F0D2F7A42CCD35F0CA3400FC08E687F0AF
:10047300D2E7D2F7A42ACC35F07A7E20E70B0ACB59
:1004830033CBCD33CDCC33CC33CB3350147004EDDD
:1004930030E00ED2F1E4CD3DCDCC3CCC3B5005DA7F
:1004A30005C2F1EB547FC63308E63392F0FBE73322
:1004B30009E733C39A502D2B70190C0D4C4D701551
:1004C3001806E608C333700D20F10AA2F013F6E410
:1004D30018800B4024E4F630F002768018F618F604
:1004E30018F68024D33B14501074FFA2F013F618AF
:1004F3007680E418F618F6800FA2F013F618E633A8
:1005030003F618ECF618EDF6D0E0FDD0E0FCD0E0F1
:10051300FBD0E0FA22C0E074F11207FAA2AFE43391
:10052300F509D2AF85A708AFA1EF5508FE74105E99
:10053300600612120875A1EF74085E600812120EAD
:1005430075A1F78024EFA2E092F0E508A2E082F023
:100553005017906198E0F89003C7E0C398A2D26562
:10056300D0335002E8F075A1FEE509A2E092AF7F17
:10057300020208B6C0E074F21207FAA2AFE433FE37
:10058300D2AF9061A4E0F8759B00E59158540860E0
:10059300087591F712125C8023E591585410600896
:1005A3007591EF1212628014E591A2E092F0E8A235
:1005B300E082F05007E0C2E0F01213AC9061A3E0D8
:1005C300F8E5E9585404600E12138275E9FB906153
:1005D30093E0A2E640F2EEA2E092AF7F010208B6FA
:1005E300C0E074F21207FAA2AFE433FED2AF906117
:1005F300A5E0F8E5BF585404600675BFFB1213C4A9
:1006030080D4C3E498F8E499F91206468026C3E43B
:100613009AFAE49BFBE920E7E9120646E498F8E43A
:1006230099F922C3E498F8E499F9120646E498F894
:10063300E499F9C3E49AFAE49BFB22EB20E7CFE9C0
:1006430020E7E0B90010BB0008E88AF084F8AAF0BC
:1006530022E4FBC8FA22EB70227B10C833C8C933EB
:10066300C9335007C39AC3DBF280069A50012ADBD1
:10067300EAC833F4C8C933F4C9FA2275F008E4C8E8
:1006830033C8C933C933C99AC99B5004C92AC93B62
:10069300D5F0ECFBC833F4C8E4C9FA22080808EA29
:1006A300C0E0EBC0E086F0E7A4FA180986F0E7A4FF
:1006B3002AFA180986F0E7A42AFA180986F0E7A4AB
:1006C3002AFA1986F0E7A4FBE5F02AFA190886F05E
:1006D300E7A42BFBE5F03AFA190886F0E7A42BFB15
:1006E300E5F03AFA18180986F0E7A4C5F02BFBE405
:1006F3003AFA1908E7C5F0C6A426F6E5F03BFBE491
:100703003AFA1886F0E7A4F6E5F00826F6E43B0883
:10071300F6E43A08F6D0E0FBD0E0FA22E4CFC0E0FA
:10072300E4CEC0E0E4CDC0E0E4CCC0E075F020E668
:1007330026F608E633F608E633F608E633F6181825
:1007430018EC33FCED33FDEE33FEEF33FFC3EC97D0
:1007530009ED9709EE9709EF97191919400FFFEC67
:1007630097FC09ED97FD09EE97FE191906D5F0BF21
:10077300ECF709EDF709EEF709EFF7191919D0E0CE
:10078300FCD0E0FDD0E0FED0E0FF222518C582C0FA
:10079300E0E51934FFC583C0E0E518C3958224F86A
:1007A30010AF08858319858218800885831985828F
:1007B30018D2AFCEF0A3E520F0A37808E608F0A3A3
:1007C300DEFAEFF0A3E58124FAF8E608F0A3E608E1
:1007D300F0A3E608F0A30808E608F0A3E608F0A3F0
:1007E30015811581D0E0FED0E0F8158115811581C2
:1007F300E8C0E0EEC0E022C0D02518C582C0E0E525
:100803001934FFC583C0E0E518C3958224F310AF04
:10081300088583198582188008858319858218D2F3
:10082300AFC8F0A3E9F0A3EAF0A3EBF0A37908E7DC
:1008330009F0A3D8FAECF0A3EDF0A3EEF0A3EFF0E8
:10084300A3D0E0F0A3D0E0F0A3D0E0F0A3E520F044
:10085300A3E5F0F0A322E9799EC608CAC608CBC671
:1008630008CCC6C370207996CACBCC7019798ECBCD
:10087300CC70137986CC700EF9802ACA33CACB3375
:10088300CBCC33CC331930E7F2CCCBCA3350147012
:1008930004EA30E00DE4CA3ACACB3BCBCC3CCC50A3
:1008A3000209C3E913C6CC182313C6CB18C6CA184A
:1008B300C6F922851983851882E0C0E0A3E0F9A375
:1008C300E0FAA3E0FBA37808E0F608A3DFFAE0FC74
:1008D300A3E0FDA3E0FEA3E0FFA3E0C0E0A3E0C02C
:1008E300E0A3E0F5D0A3E0F520A3E0A3F5F010AF7B
:1008F300088583198582188008858319858218D213
:10090300AFD082D083D0E0F8D0E032120FB6B90076
:100913000302094DE4900301781579128002F0A3D4
:10092300D8FCD9FA7A157B1490008678F97901807E
:1009330015E493A3AD82AE838A828B83F0A3AA824C
:10094300AB838D828E83D8E9D9E775820B75839546
:100953007404120C627582927583247400120C6203
:100963000475F0108E1A8F1B85821F85831E8518D0
:1009730082851983E0CEA3E0CF851F82851E83EB9A
:10098300C9EAC8EDCBECCAC3E833C8E933C9EA33D3
:10099300CAEB33CBC3EA9EF51DEB9FF51CB35004A2
:1009A300AB1CAA1DEC33CCED33CDD5F0DAAE1AAFC8
:1009B3001B22D083D082ECC0E0EDC0E0E493A3FC23
:1009C300E493A3FDED4C600D120AD0EC24FFFCED83
:1009D30034FFFD80EFE493A3FCE493A3FDED4C60AF
:1009E3000D120B6DEC24FFFCED34FFFD80EFD0E026
:1009F300FDD0E0FCE493A3C0E0E493C0E0228519BA
:100A030083851882E0A3FEE0A3F5207808E0A3F62F
:100A130008DFFAE0A3FFE0A3C0E0E0A3C0E0E0A3A7
:100A2300C0E0E0A3C0E0E0A3C0E010AF08858218F7
:100A33008583198008858218858319D2AFD083D026
:100A430082020C68D083D082E9C0E0E493A3C3861A
:100A5300F0C5F095F0F908E493A386F0C5F095F09E
:100A6300700BE493A3C3994005E9048002A3E475E2
:100A7300F002A42582F582E5F03583F583D0E0F911
:100A8300E493A3C0E0E493C0E022C0E074F2120751
:100A9300FAA2AFE433FED2AFE58AA2E2500312100A
:100AA30040758A00C2EBEEA2E092AF7F010208B666
:100AB300C0E0C0D0E8C0E0A8A8D2AF758B00C2E800
:100AC300E8A2E792AFD0E0F8D0D0D0E032C0E0C3E4
:100AD300E49396087401939618400FE493667008A4
:100AE30008740193661870007019A3A3C3E4939666
:100AF300087401939618A3A3400DD0E0D0E0D0E092
:100B03000209F1A3A3A3A3A3A3D0E0227404800446
:100B130074028000CCC0E0EDC0E0E518C39CCCAD0E
:100B23001950011D10AF068C188D1980068C188D75
:100B330019D2AF120BE4D0E0FDD0E0FC22740280A6
:100B430000CCC0E0EDC0E0E518C39CCCAD1950016A
:100B53001D10AF068C188D1980068C188D19D2AF15
:100B6300120BC2D0E0FDD0E0FC22C0E0C0F088F060
:100B7300E4936670080874019366187000A8F0A3E4
:100B8300A3700BD0F0D0E0D0E0D0E00209F1A3A332
:100B9300D0F0D0E022D083D082CCC0E0E493A36035
:100BA30006120C431470FAE493A36006120D641446
:100BB30070FAD0E0FCE493A3C0E0E493C0E022CA5F
:100BC300C0E0E493A3C582CCC582C583CDC583F0C1
:100BD300A3C582CCC582C583CDC583DAE5D0E0CA7F
:100BE30022CAC0E0E0A3C582CCC582C583CDC5833C
:100BF300F0A3C582CCC582C583CDC583DAE6D0E038
:100C0300CA22C008C3E096F50808A3E09642080884
:100C1300A3E096420808A3E09645087001D3D008E4
:100C2300227009080808226016181818C6C333C6AC
:100C330008C633C608C633C608C633C6D5E0EA229B
:100C4300C0E0E493A3D39C5010E493A3C39C400A55
:100C5300D0E0D0E0D0E0020BB5A3A3A3D0E022C044
:100C63009FF59FE473D09F22D083D082C09FE493EB
:100C7300C0E0740193C0E0740293F59F2200C0D0DA
:100C8300251810AF08F518500C05198008F51850F1
:100C9300020519D2AFD0D0222518F58210AF08F57E
:100CA30018400C15198008F51840021519D2AF85A4
:100CB3001983227404800A74038006740280027408
:100CC30001C0E0F404120C9BD0E0120F6122BB01BF
:100CD30002E722C082C08389828A83BB0003E0804B
:100CE30002E493D083D08222C0E0C0D0E8C0E0A861
:100CF300A8D2AFC2C7E8A2E792AFD0E0F8D0D0D075
:100D0300E0326016080808C6C313C618C613C6180F
:100D1300C613C618C613C6D5E0EA222518F8E4356B
:100D230019F9222518FAE43519FB222518FCE435B4
:100D330019FD22C3E0C696F608A3E0C696F608A3FB
:100D4300E0C696F608A3E0C696F622251810AF086B
:100D5300F518400C15198008F51840021519D2AF83
:100D630022C0E0E493A36C7009D0E0D0E0D0E002AD
:100D73000BB5A3A3D0E022E066701008A3E0667071
:100D83000A08A3E066700408A3E06622C3E096089D
:100D9300A3E09608A3E09608A3E096A2D265D03319
:100DA30022E76670100809E766700A0809E76670AB
:100DB300040809E76622C3E096F008A3E096F0086A
:100DC300A3E096F008A3E096F022181818E6084668
:100DD300087009E626087005E633F422082219197B
:100DE30019E70947097009E727097005E733F42272
:100DF3000922C3E4939608740193960874029396A8
:100E0300087403939622C3E697F60809E697F60853
:100E130009E697F60809E697F622E026F608A3E026
:100E230036F608A3E036F608A3E036F622E056F0DD
:100E330008A3E056F008A3E056F008A3E056F0221A
:100E4300700422600D18C6C333C608C633C6D5E086
:100E5300F41822E657F60809E657F60809E657F6A6
:100E63000809E657F622E056F608A3E056F608A36B
:100E7300E056F608A3E056F622E627F60809E63719
:100E8300F60809E637F60809E637F622E026F00801
:100E9300A3E036F008A3E036F008A3E036F022E63C
:100EA30047F60809E647F60809E647F60809E6475C
:100EB300F622E4C396F608E496F608E496F608E408
:100EC30096F622600D08C6A2E713C618C613C6D548
:100ED300E0F322C6F4C608C6F4C608C6F4C608C6BC
:100EE300F4C622C3E7960809E7960809E7960809B6
:100EF300E79622C3E09608A3E09608A3E09608A32A
:100F0300E0962275D00075813F75180175190300AD
:100F130002090EE6084608C3134608336002E633A7
:100F2300F422E7094709C3134709336002E733F49F
:100F330022600C08C6C313C618C613C6D5E0F42234
:100F4300E6F008A3E6F008A3E6F008A3E6F022E043
:100F5300F608A3E0F608A3E0F608A3E0F622CAC069
:100F6300E0E6F0A308DAFAD0E0FA22E0FCA3E0FD21
:100F7300A3E0FEA3E0FF22EAF0A3EBF0A3ECF0A3CF
:100F8300EDF022E0FAA3E0FBA3E0FCA3E0FD22E8FE
:100F9300F0A3E9F0A3EAF0A3EBF022ECF0A3EDF069
:100FA300A3EEF0A3EFF022E0F8A3E0F9A3E0FAA3A5
:100FB300E0FB22E5C754F84401F5C779012225185F
:100FC300F582E43519F58322E727194719471947AD
:100FD30022E62618461846184622C2AF75D69F0247
:100FE300000022120C6B329904120C6B84A50412BC
:100FF3000C6BFDFF01120C6BB2A504120C6B8BA3DF
:1010030004120C6B9BA304120C6BADA304120C6BA8
:1010130024A404120C6B25A004120C6BA8A00412C8
:101023000C6B0EA104120C6B0E9F04120C6B309F01
:1010330004120C6B899F04120C6BD89F04120C6B67
:10104300FA9F04120C6BECF603120C6BFAF6031204
:101053000C6B75F703120C6B71F803120C6B47FAE8
:1010630003120C6BC8FF03120C6BF7FF01120C6B1E
:10107300FAFF01120C6BF09604120C6B009704122A
:101083000C6BBC9704120C6BCB9704120C6BD1D274
:1010930002120C6B31D302120C6BEBD302120C6BEA
:1010A30095D502120C6B35D602120C6B7BD602124D
:1010B3000C6BE6D602120C6B54D702120C6B95D74D
:1010C30002120C6B02D802120C6B40D902120C6B89
:1010D30055D902120C6B7BD902120C6BE8D90212A0
:1010E3000C6B59DA02120C6BD9DA02120C6B4ADB65
:1010F30002120C6B74DB02120C6B3CDD02120C6BE4
:1011030074DE02120C6B97DF02120C6B29E00212E1
:101113000C6B99E002120C6BFFE102120C6BBDE346
:1011230002120C6B77E502120C6B70E602120C6B69
:101133001DEA02120C6B3BEC02120C6BE7920412D9
:101143000C6B559304120C6B779404120C6B7A940A
:1011530004120C6B809404120C6B989404120C6BA5
:10116300DE8B04120C6B1D8C04120C6B5A8D041253
:101173000C6BACFA03120C6B37FB03120C6B3DFCCC
:1011830003120C6B09FD03120C6BA2FD03120C6B13
:101193000AFE03120C6B939C04120C6BD39C041277
:1011A3000C6BF3E403120C6B1FE503120C6B90E75B
:1011B30003120C6BD0E703120C6B10E803120C6BD9
:1011C30024E803120C6B3DE803120C6B2EE90312A7
:1011D3000C6BD3E903120C6BE7E903120C6BDF9979
:1011E30004120C6B039A04120C6B1C9A04120C6B02
:1011F3004E9A04120C6B7E9A04120C6BAB9A041277
:101203000C6B0D9B04120C6B1C9B04120C6B269B2A
:1012130004120C6B339B04120C6B398904120C6B94
:10122300598904120C6B988904120C6BB38904124C
:101233000C6BD28904120C6B388A04120C6B418A32
:1012430004120C6B9E8A04120C6BAD8A04120C6B95
:10125300D18A04120C6B928B04120C6B9F8B0412B9
:101263000C6BB08B04120C6BB57F00120C6BCD7F33
:1012730000120C6BF97F00120C6B3DEA03120C6B2E
:1012830097EB03120C6BA5EB03120C6BB8EB031279
:101293000C6BCDEB03120C6BE2EB03120C6BF5EB57
:1012A30003120C6B69EC03120C6BCEEC03120C6B88
:1012B30070ED03120C6B34EE03120C6B44EE03124D
:1012C3000C6B53EE03120C6BF2A204120C6B16A3FD
:1012D30004120C6B3EA304120C6B66A304120C6B7A
:1012E300608E04120C6B878E04120C6BA58E041295
:1012F3000C6B188F04120C6B668604120C6B7F86C2
:1013030004120C6B8B8604120C6B9F8604120C6BFD
:10131300BD8604120C6BC78604120C6BD1860412B3
:101323000C6BE48604120C6B6A8704120C6BDF8768
:1013330004120C6B0E8804120C6B5C8804120C6B89
:10134300AB8804120C6BC68804120C6BD088041291
:101353000C6BE18804120C6B248904120C6BA4FF40
:1013630002120C6B92DB03120C6BBCDB03120C6BD3
:10137300D9DB03120C6BECDB03120C6B02DC0312E4
:101383000C6B60DC03120C6B98DC03120C6B8CE0AF
:1013930003120C6BD1E103120C6B04E203120C6B0E
:1013A30067E203120C6BC7E303120C6BEFE3031248
:1013B3000C6B04E403120C6B14E403120C6B58E47F
:1013C30003120C6BB3E403120C6BC3E403120C6B38
:1013D300DE9D04120C6BF89D04120C6B209E04120C
:1013E3000C6B399E04120C6B5D9E04120C6B7B9E7E
:1013F30004120C6B929E04120C6BC09E04120C6BB5
:10140300DB9E04120C6BF6A404120C6B0080041216
:101413000C6B108004120C6B158104120C6B47814A
:1014230004120C6B778104120C6B9A8104120C6BFF
:10143300B18104120C6BEB8104120C6B5082041209
:101443000C6B928204120C6BD18204120C6B02831C
:1014530004120C6B2D8304120C6B3D9B04120C6B5A
:101463004F9B04120C6B639C04120C6B669C04125E
:101473000C6B27A204120C6B5DA204120C6B77A2F7
:1014830004120C6BB9A204120C6BC9A204120C6BEC
:10149300D3A204120C6BBCF701120C6BC6F701123A
:1014A3000C6B00F801120C6B69F801120C6B86F8D7
:1014B30001120C6B28F901120C6B31F901120C6B40
:1014C30076F901120C6B9FF901120C6BACF9011246
:1014D3000C6B1DFA01120C6BA8FA01120C6BF6FAD5
:1014E30001120C6B34FB01120C6B99FB01120C6B98
:1014F300BCFB01120C6B33FC01120C6B8AFC011256
:101503000C6BC5FC01120C6BFAFC01120C6B0CFD8D
:1015130001120C6B1EFD01120C6B3DFD01120C6BD5
:1015230046FD01120C6B01FE01120C6B4DFE011204
:101533000C6B8BFE01120C6BB7FE01120C6BA6A495
:1015430004120C6BB19004120C6BE79004120C6B39
:101553002F9104120C6B889204120C6BBA94031231
:101563000C6BDE9503120C6B189603120C6BC2976F
:1015730003120C6BEC9703120C6B619A03120C6B46
:10158300A19A03120C6B379C03120C6BD49C0312AD
:101593000C6B269D03120C6BC99D03120C6B019EF1
:1015A30003120C6B439E03120C6BB29F03120C6B62
:1015B30000A103120C6B31A303120C6B5FA3031284
:1015C3000C6B86A303120C6B8FA303120C6BDFA3AC
:1015D30003120C6B71A403120C6BA0A703120C6B08
:1015E30023A803120C6B9CA504120C6BE8F20312E4
:1015F3000C6BFEF203120C6BA2F303120C6BE1F300
:1016030003120C6BFEF303120C6B2FF403120C6B1F
:101613007CF403120C6BAFF403120C6BEAF40312A9
:101623000C6BDFF603120C6B27A104120C6B86A163
:1016330004120C6BC4A104120C6B05A204120C6BF4
:101643003EFE03120C6B4CFE03120C6B90FE031256
:101653000C6B97FE03120C6B1DFF03120C6B9FFCAC
:1016630002120C6BBFFC02120C6BE0FC02120C6B3F
:1016730006FD02120C6B28FD02120C6B67FD0212B1
:101683000C6BCBFD02120C6BE8FD02120C6B4BFED4
:1016930002120C6B69FE02120C6BC1FE02120C6B80
:1016A3005C6700120C6B8B6700120C6B03680012F3
:1016B3000C6B066900120C6B626900120C6BE36A17
:1016C30000120C6BFF6A00120C6B516B00120C6B57
:1016D300896B00120C6B9C6B00120C6BEE6B00128F
:1016E3000C6B7A6C00120C6BE76C00120C6B116DB7
:1016F30000120C6B496D00120C6B2D6F00120C6BFA
:10170300067000120C6B4F7100120C6B7B71001290
:101713000C6B4E7200120C6BD67200120C6B1773AB
:1017230000120C6B317300120C6B787300120C6B8C
:10173300987300120C6B327400120C6BC17400129C
:101743000C6B1B7500120C6B5F7500120C6BDB7757
:1017530000120C6BFD7800120C6B397900120C6BC4
:101763002B7A00120C6B537A00120C6B567A001210
:101773000C6B607A00120C6B737A00120C6BFC7AA0
:1017830000120C6B327B00120C6B5E7B00120C6B35
:10179300857B00120C6BA97B00120C6B407C001242
:1017A3000C6B4E7C00120C6B647C00120C6B9C7CEB
:1017B30000120C6B27A404120C6B33A404120C6BE1
:1017C30071A404120C6BFC7F00120C6B00800312DB
:1017D3000C6B238003120C6B698103120C6BB281B7
:1017E30003120C6B0C8203120C6B728203120C6BD0
:1017F300758203120C6BC18203120C6B3B830312C1
:101803000C6BC18303120C6BC48303120C6B5084E7
:1018130003120C6B938403120C6BBA8803120C6BC8
:10182300578A03120C6B9E8A03120C6B138E0312DE
:101833000C6B388F03120C6BC69003120C6B549114
:1018430003120C6B559203120C6B70A803120C6BF2
:1018530010A903120C6B7AA903120C6B93A9031240
:101863000C6B4EAA03120C6BB5AA03120C6B2BACB8
:1018730003120C6B59AD03120C6BD2AD03120C6B3C
:10188300D5AF03120C6B7DB003120C6B0CB10312BA
:101893000C6BDFB103120C6BBAB303120C6B5BB5A9
:1018A30003120C6B03B603120C6B15B703120C6B0C
:1018B3004EDD01120C6BC2DD01120C6B0ADE01124C
:1018C3000C6B48DE01120C6B91DE01120C6BDBDE3C
:1018D30001120C6B13DF01120C6B91DF01120C6B05
:1018E300EBDF01120C6B47E101120C6BD8E1011223
:1018F3000C6B36E201120C6B50E201120C6B71E2BD
:1019030001120C6BC9E201120C6B3AE501120C6B6C
:1019130059E501120C6B38E601120C6B50E701120A
:101923000C6BCDE701120C6B3AE801120C6BA3E8C8
:1019330001120C6B5DE901120C6B1BEB01120C6BBA
:101943001CEC01120C6BA1ED01120C6B82EF011266
:101953000C6BE5F101120C6B8BF301120C6BC7BD21
:1019630003120C6BBFF401120C6BD6F401120C6B57
:10197300C6F501120C6BB2F601120C6B1FF70112C4
:101983000C6B858304120C6BD18404120C6B8E8553
:1019930004120C6BF28504120C6BB27C00120C6BFC
:1019A300CD7C00120C6B117D00120C6B377D001285
:1019B3000C6B5D7D00120C6B757D00120C6BD87D7A
:1019C30000120C6BED7D00120C6B0F7F00120C6B81
:1019D300187F00120C6B9F9804120C6B2A7F001265
:1019E3000C6B8CEE03120C6B7AF203120C6B7FF20E
:1019F30003120C6B81F203120C6B7D9504120C6BBA
:101A03003AA504120C6B66A504120C6B27AD0212E7
:101A13000C6B5AAD02120C6BC1AD02120C6B4DAEC6
:101A230002120C6BF2AE02120C6B3AAF02120C6B89
:101A33005FAF02120C6B78AF02120C6B9EAF0212F7
:101A43000C6BC0AF02120C6BFEAF02120C6B4DB0ED
:101A530002120C6B76B002120C6BD5B002120C6B37
:101A6300AEB102120C6B64B202120C6BC2B2021260
:101A73000C6B89B302120C6BE0B302120C6B4BB408
:101A830002120C6B89B402120C6BDFB402120C6BE2
:101A930057B502120C6BAEB502120C6BB1B5021244
:101AA3000C6B32B602120C6BD1B602120C6B4DB733
:101AB30002120C6B6FB702120C6BD2B802120C6BD2
:101AC300DFB802120C6BE3B902120C6BF0B902120D
:101AD3000C6BF9B902120C6BF4BB02120C6B0EBD4A
:101AE30002120C6B82BD02120C6BEFBD02120C6B67
:101AF30017BE02120C6BA9BE02120C6B8CC0021231
:101B03000C6B63C402120C6B77C402120C6B87C498
:101B130002120C6B91C402120C6B9AC402120C6B6E
:101B2300A3C402120C6BADC402120C6BDCC4021210
:101B33000C6B0FC502120C6B1AC502120C6B3EC55F
:101B430002120C6B62C502120C6BBFC502120C6B46
:101B530005C602120C6B21C602120C6B94C602124C
:101B63000C6BCBC602120C6B0AC702120C6B57C765
:101B730002120C6BDDC702120C6BB9C902120C6B9B
:101B830043CA02120C6B28CB02120C6B9DCD0212BE
:101B93000C6BF0CD02120C6B18CE02120C6B42CF01
:101BA30002120C6B6FCF02120C6BC1CF02120C6BC3
:101BB30076D002120C6B26D102120C6B5BD102128F
:101BC3000C6BF1D102120C6B75D202120C6B2983D0
:101BD30001120C6B5B8301120C6B8B8301120C6B78
:101BE3005F8501120C6B408601120C6B9886011203
:101BF3000C6BDB8701120C6B278801120C6B5B8B60
:101C030001120C6B718E01120C6BBB8F01120C6BEA
:101C1300519001120C6B5D9001120C6B9D9001129F
:101C23000C6B279201120C6B1B9301120C6B4593E7
:101C330001120C6BAC9301120C6B059401120C6B2B
:101C43007C9401120C6BC39601120C6B5A9801120F
:101C53000C6B2E9901120C6B6D9A01120C6BB29CDA
:101C630001120C6B839F01120C6B929F01120C6B80
:101C730016A001120C6BBDA001120C6B00A1011286
:101C83000C6B66A101120C6B82A101120C6BB4A147
:101C930001120C6BF3A101120C6BD8A201120C6B95
:101CA30087A301120C6B0BA601120C6B4DA701123B
:101CB3000C6B2CA801120C6BACA801120C6BCEACF4
:101CC30001120C6B0CAD01120C6B67AD01120C6BA6
:101CD3009AAD01120C6B16AE01120C6B32AE0112EF
:101CE3000C6BCDAE01120C6B1BAF01120C6BEEAF84
:101CF30001120C6BB3B001120C6B51B101120C6BDE
:101D03005AB401120C6B6EB501120C6B0BB90112B4
:101D13000C6B13BA01120C6B16BA01120C6B45BA99
:101D230001120C6B44BC01120C6B1DBD01120C6B38
:101D330064BD01120C6BB1BE01120C6BEBBE011240
:101D43000C6B98BF01120C6BCCBF01120C6B7EC0E5
:101D530001120C6B8DC201120C6BF8C201120C6BD9
:101D630040C301120C6BDDC301120C6B0CC50112D5
:101D73000C6BD3C501120C6BC9C701120C6BDDC709
:101D830001120C6BF1C701120C6B27C801120C6B0B
:101D930057C801120C6BE5C901120C6BC6CA0112BC
:101DA3000C6B36CB01120C6BE6CB01120C6B16CC11
:101DB30001120C6BE0CC01120C6B9DCD01120C6B6C
:101DC300A6CF01120C6BE5CF01120C6B52D001129E
:101DD3000C6B97D101120C6B4AD201120C6B7ED2A1
:101DE30001120C6B96D201120C6B39D301120C6BDE
:101DF30027D601120C6BF2D701120C6B16D8011205
:101E03000C6B34D801120C6B08D901120C6B30DD4A
:101E130001120C6BA62900120C6BD82900120C6B53
:101E2300D72D00120C6B232E00120C6B692E00129F
:101E33000C6B112F00120C6B7B2F00120C6BC32F3A
:101E430000120C6B213100120C6B263200120C6B4A
:101E5300183600120C6BA93600120C6BD137001226
:101E63000C6B2E3800120C6BFD3900120C6B743A9C
:101E730000120C6B7E3A00120C6B8B3A00120C6B47
:101E8300B63A00120C6B9D3B00120C6B563C0012D1
:101E93000C6BD93C00120C6BF23C00120C6B1B3D1B
:101EA30000120C6B483D00120C6BA23F00120C6B2E
:101EB300664000120C6BAB4000120C6B2241001207
:101EC3000C6BD04100120C6B024200120C6B4842A7
:101ED30000120C6B844200120C6BD54200120C6B87
:101EE300294300120C6BB44300120C6BFF43001226
:101EF3000C6B644400120C6BDD4400120C6B9C46AB
:101F030000120C6BAB4700120C6BCA4800120C6B2F
:101F1300264C00120C6B554F00120C6B0E50001226
:101F23000C6B565000120C6BF55100120C6B0952DE
:101F330000120C6B135200120C6B1D5200120C6B2F
:101F4300295200120C6B485200120C6BFE52001205
:101F53000C6B575300120C6B615300120C6B6B53D9
:101F630000120C6BDB5300120C6B225400120C6B2F
:101F7300275500120C6B765500120C6B1956001284
:101F83000C6BF25600120C6B125800120C6B545966
:101F930000120C6B4E5A00120C6B665A00120C6B3B
:101FA3009A5A00120C6BB85A00120C6B175B001292
:101FB3000C6B3E5B00120C6BD95B00120C6B985CD4
:101FC30000120C6B085D00120C6B805D00120C6B31
:101FD3008A5E00120C6B575F00120C6B516000128B
:101FE3000C6B966000120C6BF16000120C6B586165
:101FF30000120C6B866100120C6BAA6100120C6B51
:10200300DF6100120C6B0C6200120C6B5262001247
:102013000C6B766200120C6BDF6200120C6BC763F1
:1020230000120C6B126400120C6B3B6400120C6BFD
:10203300D36400120C6B566500120C6B82650012A0
:102043000C6B776600120C6B8AC503120C6BC2C54E
:1020530003120C6BE3C503120C6B27C603120C6B44
:102063008BC603120C6B95C603120C6BA5C6031229
:102073000C6BDCC603120C6BD4CA03120C6BE2CCE0
:1020830003120C6BCFCE03120C6B66CF03120C6BD7
:1020930008D003120C6B0F8102120C6B7F810212AA
:1020A3000C6BDF8102120C6B2A8202120C6B4582CD
:1020B30002120C6B6C8202120C6B898202120C6B83
:1020C300958202120C6B408402120C6B598402122B
:1020D3000C6BE28402120C6BF58402120C6B1485F8
:1020E30002120C6BAF8502120C6B1F8702120C6B72
:1020F300C68802120C6B558902120C6B58890212A6
:102103000C6BC88902120C6BE68902120C6B8B8A6A
:1021130002120C6BC78A02120C6BCA8A02120C6B76
:10212300908B02120C6BF38B02120C6B2C8C021231
:102133000C6BA18C02120C6BBF8C02120C6B0D8DFD
:1021430002120C6BE28D02120C6B308E02120C6BBE
:10215300788E02120C6B058F02120C6B3A8F0212EF
:102163000C6B6F8F02120C6B7D8F02120C6BDC8F6A
:1021730002120C6B549002120C6B959002120C6BB2
:10218300E59002120C6B109102120C6B2A91021251
:102193000C6B449102120C6B1F9202120C6B29926E
:1021A30002120C6B649202120C6B749202120C6B8F
:1021B3007D9202120C6BD59202120C6BE992021201
:1021C3000C6B1F9402120C6B349402120C6BC294AE
:1021D30002120C6B2A9502120C6BDD9502120C6B2A
:1021E300E89502120C6B359702120C6B5197021291
:1021F3000C6B9D9702120C6B0C9802120C6B45989A
:1022030002120C6B5F9802120C6BA19802120C6BFA
:10221300639B02120C6B199C02120C6BA99C021299
:102223000C6BF19E02120C6B099F02120C6B0C9F3C
:1022330002120C6B189F02120C6B2C9F02120C6B78
:10224300349F02120C6B679F02120C6B5AA002128E
:102253000C6BE5A002120C6B78A102120C6BF1A1BE
:1022630002120C6BB5A202120C6BD7A202120C6BFA
:1022730070A302120C6BCDA302120C6BD0A302123B
:102283000C6B4AA402120C6B96A502120C6BA1A64E
:1022930002120C6B2CA702120C6B31A802120C6BEE
:1022A300F1A802120C6B22A902120C6B48A90212AC
:1022B3000C6B51A902120C6B7FA902120C6B17AAAB
:1022C30002120C6BCCAA02120C6B3DAB02120C6B0C
:1022D300E4AB02120C6B6BAC02120C6BAAAC0212D5
:1022E3000C6BEDAC02120C6BEFBC03120C6B5FBCFE
:1022F30003120C6B13BC03120C6B8EBB03120C6B1F
:1023030049BB03120C6B2DBB03120C6B3BB90312BD
:102313000C6B0DB903120C6BDAB803120C6B6D98CE
:1023230004120C6B689804120C6B5EB803120C6BEE
:1023330082FC02120C6BB1C403120C6BD7C30312E1
:102343000C6B11FC02120C6B63FA02120C6B0CFA8D
:1023530002120C6B4CF902120C6B59F702120C6B44
:1023630029F702120C6BDAF602120C6B6CF60212EE
:102373000C6B2BF602120C6B62F502120C6BFDF464
:1023830002120C6BA8F402120C6B4EF402120C6BCB
:1023930020F302120C6BBDF202120C6B39F2021223
:1023A3000C6B34F202120C6B28F202120C6B0DC38D
:1023B30003120C6B7CC103120C6B45C103120C6B33
:1023C30014C103120C6BC8C003120C6B31C003128F
:1023D3000C6BA1BF03120C6B7BBF03120C6B30BFE2
:1023E30003120C6B6CEF02120C6B3AEF02120C6BC4
:1023F300FAEE02120C6BE2EE02120C6BFABE03123F
:102403000C6BD7EE02120C6BB3EE02120C6BDEEC0C
:1024130002120C6B9AEC02120C6B7DBE03120C6B56
:1024230086EC02120C6B217F00120C6B47DB03124C
:102433000C6BEEDA03120C6BB9DA03120C6B84DA51
:1024430003120C6B50DA03120C6BE2D903120C6B00
:10245300CAD903120C6BA5D903120C6B6ED60312E7
:102463000C6B41D403120C6B48D203120C6BD4D106
:1024730003120C6B85D103120C6B3FD103120C6B4F
:1024830018BE03120C6BE1D003120C6B59F401005C
:10249300000080FBE4738F000100F114870001004A
:1024A300EF1435000400B91425000200BD14260002
:1024B3000200BF1427000200C11428000100CB143E
:1024C30029000100CC1484000400011286000100DD
:1024D30023142A000100CD142B000100CE142C007C
:1024E3000100D2142D0008000D122E000100D31498
:1024F3002F000100D41430000100D5143100010075
:10250300D6143200010015123300010016123400F4
:102513000100D71436000100171238000100D81447
:1025230039000100D11483000200ED14630001009F
:10253300231264000100CF1465000100D0146D0064
:102543000100241271000800051266000100EC145A
:1025530043000100DD1444000200DE1445000100C5
:10256300E01446000200E114470008001B12480073
:102573000100E3144B000100E41404000100F01413
:10258300A1000100F41437000100F31488000100D6
:10259300F2143C00010018123D000100D914490057
:1025A3000200E5146700010025124D000200E71444
:1025B3004E000100E9144F000200EA143E0001003E
:1025C300DC1451000100191252000100DA14530007
:1025D3000100DB14540001001A1200000000000087
:1025E300000136360101000102010001030100016F
:1025F3000401060605020000070100340801000F6C
:10260300090401010D0100FF0E080000170200007C
:10261300190100FF1A0100011B0100FE1C01000843
:102623001D0200001F010001200100012102000022
:102633002301000F240200002601000127010008E6
:10264300280200FF2A0100072B0102402C01000091
:102653002D0100012E0100012F0100FF30010B1D90
:10266300310800003A0100083B01000F3C01000162
:102673003D0100FF3E040000420400004604000048
:102683004A0400004E0400005204000056040000F7
:102693005A04000001037103010301030103010351
:1026A30001032203020301031003000300030003D9
:1026B3000003000300030003420300032403060393
:1026C3000003000304031203250323032503230349
:1026D3000403040300030003000344030003000393
:1026E300230300036503210035038103000305036E
:1026F3000003000300030003250323030101710109
:1027030001010101110101013101010101018001F7
:10271300100161013B001400630173017201620146
:1027230043010001130106013D01350004011201BB
:102733000001000100010001040104013301330120
:102743003C01440132013600000100016501000132
:1027530035008101000105018201830100010302AB
:1027630071023001600211027002010202020202D0
:102773008002100261023A00410063027302720296
:102783006202430200021302380000020002040244
:1027930012020002000200020002040204023700D7
:1027A30037003C02440200023900000200026502C5
:1027B3000002350281020002050282028302000246
:1027C300030071003001600011007000310220032A
:1027D30050048000100061000000140063007300C7
:1027E30072006200430000001300060000000000B6
:1027F30004001200000000000000000004000400B8
:10280300370037003C0244000000000000000000D5
:102813006500000035008100000005000000830012
:10282300000036000100060000000F000000000059
:10283300000000000000000003FFFF00000403FF8E
:10284300FF0000FFFF0FF4010005C4040320000193
:1028530000000B000000000000000003010F000057
:102863000000000000000000000000000000000065
:102873000000000000000000000000000000000055
:1028830000006818010068180200F0170280EA17B8
:102893000300F6170400FC1704800218050008184B
:1028A300060014183100261833002C18340032188F
:1028B300FFFF000007ECFDFDFDECDCDCCCBCACACA9
:1028C3009C9C8C7C7C6C6C5C5C5C4C4C3C3C2C2CF5
:1028D3001C1C03EAF5E5D5D5C5B5A5959585857584
:1028E30075656555554545353525251515050A8CF9
:1028F3001E02561E05621E075C1E0C3E1E0D4A1E5E
:10290300FF000000160F00000B150B020002220F40
:102913003300000E0F5A6967426565416C6C69614B
:102923006E63653039D0D1D2D3D4D5D6D7D8D9DADE
:10293300DBDCDDDEDF303016181920231A1C1E30D5
:10294300303017181921301B1D1F300001191618BC
:1029530016161823030000034D4C4651181A25057B
:1029630002003C40423A3F3F392F47300C0E020BE6
:10297300040B0A0708000F02040201010101090206
:10298300E803000000BE040AE803030001000E0090
:1029930009030404101E0A0C041E0828020C05086F
:1029A3001503FF74F712078EE99012FAF09012AF35
:1029B300E4F012145A901312E4F0A3F09012FBF017
:1029C300A3F0121FDC121460901233E4F0A3F01290
:1029D30019CA02438474F012078E74D3120D4E8504
:1029E3001882851983125FB8548060689012FAE0E8
:1029F300F91214D28A088B09AE08AF09EE4F604C66
:102A03007C0080010CEC75F003A4F8A9F074F128A4
:102A1300F582742839F583E493F46029E493F88EFE
:102A2300828F83E06870DDEC75F003A4F874F228FC
:102A3300F582742839F583E493C0E0740193F58338
:102A4300D082122497EEFAEFFB1214C012654B6486
:102A530080022DBD851882851983A3E0542060214F
:102A6300121EF28A088B09AE08AF09EE4F600A12F4
:102A73001E4AEEFAEFFB1214C012654B6420022DBE
:102A8300BD851882851983E0A2E050259012B4E039
:102A9300640F70117900121E20E960099014B912B5
:102AA3000F86121E38851882851983E06401022D72
:102AB3009C54207003022DA17A207B009012FAE02F
:102AC300F9121616EA4B4C4D701A90130E120FAAF8
:102AD300E8494A4B700E750801750900750A0075BF
:102AE3000B00806A750C00750D00750E00750F00E4
:102AF3001216228A088B098C0A8D0B90130E120F63
:102B0300AAE8494A4B603190130E7808120C05402D
:102B13000E750CFF750DFF750EFF750F7F80198500
:102B2300080C85090D8C0E8D0F90130E780C120D69
:102B3300367401780C120D05850C08850D09850E78
:102B43000A850F0BE508122FBC7003022CDC7C00F6
:102B530079047A007B00121EC88A0C8B0DAE0CAF71
:102B63000D022C1D7402120FC174FFF07403120FB7
:102B7300C174FFF07404120FC174FF1262D874079A
:102B8300120D2E125A35125B0D121F10E9640170DB
:102B93006B124BAE4480F8A3E0F97428120FC1E81E
:102BA300F0A3E9126207E0C0E0742A120FC1D0E07B
:102BB3001244C0540860167428120FC1A3E04401E4
:102BC300122DD0C0E0742C120FC1D0E0F0125E665B
:102BD3006012124363125F1EE0F87416120FC1E80D
:102BE300F0A3E4F09082B6120B0F7406120D2E744C
:102BF3000B120D26121AFC7404120C808E828F8322
:102C0300A3A3A3A3A3A3A3A3A37406122DD0F91272
:102C13001EAA7405120FC1125F32EE4F7003022C0D
:102C2300DC7C007904EEFAEFFB121EC87405120F68
:102C3300C1EAF0A3EB1251DCE0F50CA3E0F50DE4DF
:102C4300F50EF50F7808790C120EE64023EE2404F6
:102C5300F8E43FF985080C85090D88828983C3E070
:102C6300950CF0A3E0950D126654E84970A4800C0E
:102C73008E828F83A3A3A3A3E4F0A3F08E828F831A
:102C8300A3A3A3A3A3A3A3A3A3A3E064018E828FFF
:102C930083A3A3A3A3A3A37023E054046003022B81
:102CA300678E828F83A3A3A3A3A3A3A3A3A3740663
:102CB300F07AB7122EFF121E32022C15A3A3A3A380
:102CC300E06003022B678E828F83A3A3A3A3A3A336
:102CD300A3A3A37401F0022C15121E987C007901A2
:102CE3007A007B00121EC88B0DEA450D600C7A201A
:102CF3007B009012FAE0F91214FC7C0079047A004C
:102D03007B00121EC8EA4B7013804D8A828B83A30B
:102D1300A3A3A3126006EE98EF99400B8A828B83DC
:102D2300A3A3A3A3125F327C007904121EC88B0BEA
:102D3300A90BEA4970D5C3E5089EE5099F500DC369
:102D4300EE9508FEEF9509FFEE4F70167A207B0093
:102D53009012FAE0F91214FC90130E122DC9A3F08D
:102D6300802EEE2EFEEF33FF8E088F09E4F50AF571
:102D73000B7808120CB67A207B009012FAE0F91255
:102D830016047404120C8012162290130E120F7A7A
:102D9300851882851983E06420FAA3E0801CA3E0F0
:102DA300540460191256D51223F079019012AD1212
:102DB3005B0D121B0E12654B6404FB80047A007BCF
:102DC30000742D025E3BE4F0A3F0A3F0221244C58D
:102DD300A3A3E022C082C08374EA120D4E7C167D49
:102DE300007900AA18AB191214A87408120FC17441
:102DF30002F09012A3125935122E177409120FC143
:102E030012594E7413120FC1E41256131219BE74E1
:102E130016024789E8F0A3E9F09012AD125E84220E
:102E230074F712078E74DA120D4EEAFEEBFFEE4FC3
:102E3300602DAC18AD19121F107406120FC1E0609B
:102E43001E7417120FC1E0FD7401120FC1E0FCEEF6
:102E5300FAEFFB7900121DF6E9600479A480027988
:102E630000742602438174F712078EEAFEEBFF8E8D
:102E7300828F83A3A3A3A3A3A3E054406017125E8E
:102E830048125B0D121FA6E960067AFF7BFF8015CF
:102E9300125E4880039012A3125B0D74FE6A7003E6
:102EA30074FF6B6047125E48125FB8121FA6E98E6B
:102EB300828F83600E1265E312479638F583E4F040
:102EC300A38003126608F07C267D1E8E828F8312F8
:102ED3005B0D1219C4E9F5087015EE4F600979010D
:102EE300EEFAEFFB121EA4A9080243847508CDAACB
:102EF30008122EFF121E32E960E080EB8E828F8370
:102F03001265E7240CF582E438F583E0F92274F6C0
:102F130012078EE9FEEAFF7A0F7B001214BAEA4B1E
:102F2300601F8A828B83740CF0EEA3A3F0EF8A8276
:102F33008B831241199012FAE0F91214C6790080BA
:102F430034EEF9121ECE8A088B09A808A909E849AC
:102F5300602188828983A3A3A3A3A3A3A3A3A374A8
:102F630006126019A3A3A3A3A3E0F9121B9EEEF913
:102F7300121EAA79100253D674F412078E8A088B94
:102F8300098C0A8D0B9012B4E0640F7028122FBBCA
:102F930060239012AFE064086005E0640470167863
:102FA30008120CB67A017B009012FAE0F9121604AB
:102FB3007404120C80023221EA4509450A450B22AA
:102FC30074F412078E74FC120D4EEAFEEBFF8E8230
:102FD3008F83A3A3E0F9121ECE8A088B09EA450961
:102FE30070030231028E828F83A3A882A983E0C07B
:102FF300E0EA1255C5D0E0123F8464F160288E8266
:103003008F83A3E064CD601E8E828F83A3E0641A56
:1030130060148E828F83A3E064E9600A8E828F83BB
:10302300A3E064E170307900121EA4E96028E5088A
:103033002404F50AE43509F50B8508828509831212
:103043003113123F6A125B0D12146C850A82850BD1
:1030530083125FB880788E828F83A3E0C0E074020E
:10306300120FC1D0E012479C126642EE240B1246A7
:1030730088C0E07403120FC1D0E0F0E5081262CA01
:1030830012368DE0AA18AB197005121AF6800312D6
:103093001F8E7402120FC1E064E9703285088285C5
:1030A3000983123826750A01780A120CC2750AE9D7
:1030B300780A120CC2123F4E124391A3A3A3A3A3F7
:1030C300124389125B0D121F467402120C8085088D
:1030D30082850983A3A3A3A3A3A3A3A3A3E0640259
:1030E3007012850882850983A3A3A3A3A3A3A3A323
:1030F300A37406F08E828F83A3A3E0F9121EAA1293
:103103001E989014BF1235F1121E38740402321E39
:10311300A3A3A3A3A3A3125A228E828F832274F4A0
:1031230012078EEAFEEBFF7508008E828F83A3A33E
:10313300A3A3A3E0603B750808125B0079FF121C90
:10314300768B0BEA450B601075082C8E828F83A358
:10315300A3A3A3A3E0D2E0F08E828F83A3A3A3A3B0
:10316300A3E05403640160030232184308110232DE
:1031730018EE24181246886036EE241A1246886028
:1031830003F47012125FBE7003A3E069600302329E
:1031930018750822807FEE241B125A18EE241A1287
:1031A3004688FAEE2419124688F9121B8C8066129F
:1031B3005B00121FA6E964027003750801125FBE6B
:1031C3007003A3E0697006E508D2E1F508E508603D
:1031D300158E828F83A3A3E07006E508D2E58004F1
:1031E300E508D2E6F508125B00121FA6E964017038
:1031F30006E508D2E0F5088E828F83A3A3E060156D
:10320300EE241D124EC8F9121F94E964016006E50D
:1032130008C2E0F508A90880057409120C807F0430
:10322300020A0174F012078E74D7120D4EEAFEEBF8
:10323300FF8E828F83A3A3A3A3E060119014BD121A
:103243005E6F60099014BD1235F1121E38740312BB
:103253000D2E8E828F83A3A3A31257E7125B0B124B
:103263001F10E970030233BC78017405120FC1E02B
:10327300C39402400278007407120FC1E0C39402A2
:1032830040027800740C120FC1E064F87003A3E0ED
:10329300F470030233BC740C120FC1E064F97003C1
:1032A300A3E0F470030233BC740C120FC1E064FAA0
:1032B3007003A3E0F470030233BC740C120FC1E07B
:1032C30064FB7003A3E0F470030233BC7406120FB3
:1032D300C1E0F990129DE06960030233BCE8A2E00B
:1032E30040030233BC7427120FC1E060030233BCF6
:1032F300EE2413125E7A7422120FC11257F1241CAA
:10330300125E7A7410120FC112594E7409120FC152
:10331300E0601D741A120FC1E0FD7404120FC1E0C6
:10332300FC8E828F83125B0B7901121DF6E9703DCF
:103333007403120D26121E44E9F50C7409120FC111
:10334300E0702E901297E060287422550C6422607E
:10335300207442550C644270147420120FC112354C
:10336300FD600E7420120FC11235EA60047ACF801B
:103373004AE9A2E6504D7420120FC1124ECE24FD2D
:10338300600F14600C24FD600824FD600424FE70AB
:10339300287420120FC11235E3700E7420120FC16E
:1033A300125522A3E0640D601A7403120D26121F36
:1033B300BEE96401700D0235DE7AD37B001217C6B5
:1033C3000235DEEE242DF582E43FF58312381D70BD
:1033D30003A3E06970227508007808120CC278080C
:1033E300120CC2EE242F124688F9123603125B0D1B
:1033F300121F467402120C807409120FC1E070038D
:103403000234A0123603125B0D12200C8A0E8B0FAE
:10341300EA450F70030235377404120FC1E0F88ECA
:10342300828F83A3A3E028F8A3E03400F9E81247CE
:103433009639F583E0F88A828B83A3A3A3E06860BF
:103443000EE88A828B83A3A3A3124112122DCA7999
:1034530004E9120FC1124BCFA3E02AF8A3E0340012
:103463008882F583A3AA82AB831214AE8A088B09E0
:103473008C0A8D0B850E82850F83A3A3A3A37808E3
:10348300120C0540030235DE9082AE7808120E1D41
:10349300850E82850F8312663EA31248C29012AF37
:1034A300E064046008E0640960030235DEE50CA211
:1034B300E54003023571EE242F124B9FF0EE2430CA
:1034C300124688C0E07401120FC1D0E0F0EE24313F
:1034D300124688C0E07402120FC1D0E0F0741412D7
:1034E3000FC1E06401702C740E120FC1123F7B24D4
:1034F30013124688687003A3E0697017740C120FE7
:10350300C1125B0D121FA6E9640270077414120F37
:10351300C1E4F0EE2425F582E43FF583120B0F742A
:1035230004120D2E7407120D26121AFC7404120CC9
:10353300800235DE9012F4E0640160030234A0746B
:1035430020120FC11235FD7009E50CA2E6500302EB
:1035530034A07410120FC1E0F47003A3E0F4607B95
:10356300EEFCEFFD7403120D26121E50806DA2E6D1
:1035730050697420120FC1125A2F7016741A120F49
:10358300C1E0640270557403120D267900121F887E
:1035930080497420120FC11235EA7014741A120F85
:1035A300C1E0640470357403120D26121F7C802B56
:1035B3007420120FC11235E3700C79007403120DDD
:1035C30026121FCA80157420120FC1125522E064FF
:1035D3000C70087403120D26121FD67429025E3B69
:1035E300125E52E0640322125E52E0640722E0F5A9
:1035F30008A3E0AA08FBE4FCFD22124ED2640622D3
:10360300EE242BF582E43F12361112468122F58314
:10361300125A22EE2274F412078EEAFEEBFF8C0894
:103623008D09901215E0600F125FBE7003A3E0696D
:103633007005121B7A80497900125B00121BAA8A5B
:10364300828B83E5824583602FA3A3A3A3A3A3E077
:1036530054186024E508241C12368A120B13123600
:1036630086120B13EE2418124688F9123692121B97
:10367300BC7404120C8080087900123692121B80ED
:10368300023221E5082413F582E43509F583228EFD
:10369300828F83A3A3A3A3A3A3A3A3A3123613126B
:1036A300592C125B112274F712078E74F7120D4E08
:1036B300EAFEEBFF9012AFE06403600DE06401608B
:1036C30008E0640960030237C48E828F83A3E0603D
:1036D300030237877C007D007A027B001214661296
:1036E30037C98A828B83125E809012A012594E7959
:1036F300531219AC9012AFE0640960099012AD1235
:103703005B0D1220068518828519837401125613E6
:1037130079421219AC9012AF7404F07401120D26A1
:10372300794A1219A67401120D2E7AA57B1212166C
:103733003A901129E0640B70057406F0800B790050
:103743009012AD125B0D121B0E9012A0125A1E7A2C
:10375300037B001214669012A3125A1E7A047B0094
:1037630012146690129AE0A2E35004D2F08002C2CF
:10377300F012560979521219AC9014B9120F86122D
:103783001E38803AFC7D007A037B10121466901178
:1037930029E0640B7003740AF0901219E4F0FA7BC9
:1037A300409012FAE0F91216108E828F83A3E0F98B
:1037B3009012AD125B0D121B0E9012AFE4F0121EAD
:1037C3007A7409024381EE2402FAE43FFB22C082A9
:1037D300C083901233125E6F70179012AFE024FB18
:1037E3006005146007800A901239802090123B8094
:1037F3001BE84960089012341239F5700C8A828BE9
:1038030083A3E0F9121B02800E901329125E6F60EE
:103813000612552312249702504F125E849012AD64
:10382300E06822125E84E8FAE9FB2274F512078E3F
:1038330074D8120D4E8A088B098A828B83A3A3A3A3
:10384300A3A3A3A3A3E0C3940F50030239F08A8276
:103853008B83A3A3A3125F327415120D2E8A828B5E
:1038630083A3A3A3A3A3A3A3A3E0F98A828B8312B5
:103873005B04121E867415120FC1E0702E85088238
:10388300850983A3A3A3A3A3A3A3A3E0C3940B408A
:103893001A8E828F83A3A3A3A3A3A3A3A3E064028B
:1038A3007009EE240B124688F460030239F0741792
:1038B300120FC1E06007640260030239F09012AF97
:1038C300E06402601AE064066015901233125E6FC2
:1038D30070030239F01239F560030239F080329037
:1038E3001233125E6F702A7508007808120CC278C2
:1038F30008120CC2EE2410F582E43FF5831257E858
:10390300A3A3A3123113125B0D121F467402120CF0
:10391300808E828F83125935E8F0A3E9123F8D120E
:103923005E807402120FC11257F1124BAFC0E074E4
:1039330004120FC1D0E0F0EE240B12600B740F7869
:1039430008120F347405120FC1E508F07419120F31
:10395300C1E0C0E07406120FC1D0E0F0741B120F77
:10396300C1E0C0E07407120FC1D0E0F07416120F6B
:10397300C1E0C0E07409120FC1D0E0F07417120F58
:10398300C1E0C0E07408120FC1D0E0F0EE241012C1
:103993004688C0E0740A120FC1D0E0F0741A120F07
:1039A300C1E0C0E0740B120FC1D0E0F07427120F16
:1039B300C1E0C0E0740C120FC1D0E0F0741C120F10
:1039C300C1A982AA8389088A09750A007808120C9A
:1039D300BA7C087D007410120FC1AA82AB83121443
:1039E3009C7403120C80AA18AB19121B08742802CA
:1039F30044D5E0C8125A0E64012274F212078E7481
:103A0300F8120D4E8A0A8B0B8C0C8D0D890890824F
:103A130031AC18AD197408120BE4C200AC0AAD0B3B
:103A2300AA18AB19121634E97002D2009012FB8067
:103A330014AC0AAD0BEE240BFAE43FFB121634E987
:103A4300701B12466E1242CD601EA20040E38E82AE
:103A53008F83E0650C7004A3E0650D70E58E828FA3
:103A630083A3A3E0650870DAEEFAEFFB7408023F64
:103A73009AC082C0839012FB02504CC082C08390D4
:103A830012FBE4F0A3023CEE74F712078E9012FBD4
:103A9300126551800FEA2414F582E4125F2F121588
:103AA30056EEFAEFFBEA4B70EC9012FBE4F0A3F056
:103AB30002438474F212078E8A0C8B0DECFEEDFF29
:103AC300890B8A828B831255D0F0A3A882A9838A9B
:103AD300828B83123B7F12410DA3E0C454F0FA881A
:103AE300828983E04A124BF3850C828B83A3A31252
:103AF3003B7F123B92E0333354FC123B86E033337B
:103B03003354F8123B86A3E0A2E0E4331313FA889C
:103B1300828983E04AF0EE2403FE50010FE50C2472
:103B230007F508E4350DF509750A007808120CBA93
:103B33007C087D00EEFAEFFB12149C7403120C80D8
:103B4300EE2408FE50010FE50C240FF508E4350DB3
:103B5300F5097808120CBA7C037D00EEFAEFFB122C
:103B6300149C7403120C80E50BC3940F400BE50CFB
:103B7300124790350D12519BF0023F9DA3E08882BE
:103B8300898322FA88828983E04A123B92A322F036
:103B9300850C828B83A3A3A3A32274F212078EEA5C
:103BA300FEEBFF8C0C8D0D8E828F83E08C828D83D8
:103BB3001251D1A882A983E0540F8C828D83123FC6
:103BC30083C4124FF2124BE9124FFA123F81A2E261
:103BD300E4338C828D83123F80131313541F124FCF
:103BE300F2123F80A2E7E4338C828D83A3A3A3A3C5
:103BF300A3A3F0EE2403FE50010F8E088F09750A6C
:103C0300007808120CBA7C087D00E50C2407FAE45E
:103C1300350DFB12149C7403120C80EE2408FE5025
:103C2300010F8E088F097808120CBA7C037D00E51A
:103C33000C240FFAE4350DFB12149C7403120C8050
:103C43008E828F83A3A3A3E0C0E012665CD0E0F072
:103C5300023F9D74F612078EEAFEEBFF8E828F837E
:103C6300A3858208858309E0F9121B2685088285CE
:103C73000983E064EB601E8E828F83A3E064E160BE
:103C8300148E828F83A3E064F1600A8E828F83A3F4
:103C9300E0641A70078E828F83A3E4F09014B91244
:103CA3000F86121E387508017808120CC28E828F97
:103CB30083A3E0F5087808120CC279009012AD12C4
:103CC3005A1E9012A3125B0D121F467402120C802F
:103CD300121E980253D6C082C083E990130D70035D
:103CE300E4800274018004EAF0A3EBF002504F7405
:103CF300F612078E90130DE0701B7C0079017A0099
:103D03007B00121EC8EA4B600C8A828B83125E6FA3
:103D13006003121E2C0253D6C082C0837904121E84
:103D2300C2E9F89029A1E493C398401079FF121EC9
:103D3300C2E9F89029A0E493C39850047901800262
:103D4300790002504F74F212078E8A0A8B0B89098D
:103D5300C2008A828B83A3A3A3A3A3A3A3A3E0F993
:103D6300121ECE8A0C8B0DAE0CAF0D750801EE4FF3
:103D73006003023E31850A82850B83A3A3A3A3A319
:103D8300A3125A1E850A82850B83A3A3A3A3A3A30D
:103D9300A3123F6A125B0D121EB68A0C8B0DAE0C7A
:103DA300AF0DEE4F7003023F478E828F83A3A3A311
:103DB300A3E4F0A3F0E50A240CFAE4350BFB8A82B2
:103DC3008B83E0C0E0123F4ED0E0F0E50A240D12F1
:103DD3003F74240D125948121FACEE240F125FB228
:103DE300E50A2411123F742411125948E50A2413D9
:103DF300125FFDC0E012467CD0E0F0D200EE240654
:103E0300124B96123F61123F8454046003023E9F9B
:103E13009014CBE0F50A750B007407780A120E4371
:103E23008E828F83A3A3A3A3A3A3123F58F08E82F2
:103E33008F83A3A3A3A3A3A3E0F50AA3E0F50B74C5
:103E430007780A120F34E50A5407FCE509605C8E13
:103E5300828F83A3A3A3A3A3A3A3A3A37402125137
:103E6300D6124241600B90129B124C1CA3A3125911
:103E73004EEC7003023F12EE24061265C5123F6139
:103E8300F0EC24FFF50AE434FFF50B7407780A120B
:103E93000E438A828B83123F58F080738E828F8306
:103EA300A3A3A3A3A3A3E044808082EC70057508B9
:103EB30000805C8E828F83A3A3A3A3A3A3E05420DB
:103EC300600C1214B4EA547F7900245F80198E8247
:103ED3008F83A3A3A3A3A3A3E05410601A1214B463
:103EE300EA540F7900240A5001098E828F83A3A319
:103EF300A3A3F0A3E9800D8E828F83A3A3A3A3744E
:103F030001F0A3E4123F8D74041241C51214FCA204
:103F13000050348E828F83123115A3A3A3A3A3A3CE
:103F2300A3A3A3E0F9EEFAEFFB121EBCE96018129B
:103F33005E666009124363125B0D121556EEFAEFCB
:103F4300FB121556750800A908804FEE240CF58264
:103F5300E43FF58322E0450AF0A3E0450B22E05459
:103F63007FF0A3E054FC22A3E0F9850A82850B834A
:103F730022F582E4350BF583125E84EE22A3A3A31C
:103F8300A3123F8822126024E022123F912212449E
:103F9300C9A3A3A3227403120C807F06020A01742F
:103FA300F412078E74F7120D4E7E00121ECEEA4BEA
:103FB30070030240618A828B83A3A3A3A3A3A3A359
:103FC300A3A3E0640660030240618A828B83A3A3F8
:103FD300A3A3A3A3A3E0FF8A828B831265EDE0C0B2
:103FE300E07408120FC1D0E01243A712593A1259D4
:103FF3004E121EE0EF540860638518828519831200
:104003005A1E7A007B00121EB08B0BEA450B704CD4
:104013001266681224267C007D007A007B008028CB
:104023008E828F83124ECEF47003A3E0F4602D9042
:1040330012AD123119125B0D1219D0E9641A601C0A
:104043007C007D00EEFAEFFB121EB08A0A8B0BAEEA
:104053000AAF0BEE4F70C979001219DC7E01EEF93D
:1040630002321CC082C0838A828B83E582458370BF
:104073000990131280068A828B83A3A31242756070
:10408300208A828B83A3A3A3A3A3A3A3E0540860E2
:10409300E5EC4D601012427B7003A3E06D70D78096
:1040A300047A007B0002504F74F212078E8A088B49
:1040B30009890AECFEEDFF7A147B00121550EA4BD6
:1040C300603B8A828B83A3A3A3A3A3A3A3A3A3E499
:1040D30012439CA3E50A125FDFA3A3A3EEF0A3EFB1
:1040E3001241121243AE1241198A828B8312664225
:1040F300EA240F12410312410CA3F0A3F0023F9DE7
:10410300F582E43BF583E4F022A3126625A3221291
:104113005FEFE4F0A322A3F0125F2812410622749A
:10412300F512078EEAFEEBFF890A8C088D09EE4F24
:1041330070030241C07401650A70127901121EC234
:10414300E9F89029A2E493C3985022801674046579
:104153000A70147904121EC2E9F89029A1E493C3EA
:1041630098500A791180587402650A70508E828FB4
:1041730083A3A3A3A3A3A3A3A3A3E50A1251D612C4
:10418300663E8E828F83A3A3E4F0A3F090131212F2
:104193005E6F60188003125E8088828983A3A312F6
:1041A300427588828983A3A370EC8003901312EE77
:1041B300F0A3EF1241C51214FC7900800279C10209
:1041C30044D8F07A207B009012FAE0F922C082C032
:1041D30083E9F87900901312801D8A828B83A3A34D
:1041E300A3A3A3A3A3A3A3E068600574FF6870015E
:1041F300098A828B83A3A312427570DE02504F7427
:10420300F712078EEA4B700590131280068A828B91
:1042130083A3A3124275601F8A828B83A3A3A3A3E4
:10422300A3A3A3A3A3E06970E4EC600F8A828B834A
:1042330012424170D880047A007B000243841266E4
:1042430011E0540422C082C08390131280068A8234
:104253008B83A3A312427560128A828B83A3A3A3C9
:10426300A3A3A3A3A3E06970E580047A007B000203
:10427300504F125B11EA4B228A828B83124ED26C0F
:104283002274F212078E8A0A8B0B8C0C8D0D750823
:1042930000750900EA450B602A90131280068E828E
:1042A3008F83A3A31242CD601AAC0CAD0DEEFAEFCF
:1042B300FB850A82850B83122497E9640170DF8EE4
:1042C300088F09AA08AB09023F9DE0FEA3E0FFEEB9
:1042D3004F2274F712078E901312125E807C007DBA
:1042E30000800DE8FCE9FD88828983A3A3125E8028
:1042F300E8496030EA687002EB6970E790131212C4
:104303005B0DE86A7002E96B88828983A3A3700856
:10431300125E809013128009125E808C828D83A3BB
:10432300A312594E805B74F712078EEAFEEBFFEE81
:104333004F602B121EDA124371125B0D1215568E4B
:10434300828F83125B0D121556125E66600912434B
:1043530063125B0D121556EEFAEFFB121556802110
:10436300EE12436822240FF582E43FF583228E8206
:104373008F83E0F8A3E0C8125A4838F58322120C61
:10438300807F01020A01125A228A828B8322E0F97A
:104393008A828B83A3A3A3A3221243A022125FF3D7
:1043A300A3A3A322126625124ED2221243A0A3A3D3
:1043B3002274F612078E901312125F3280308E82AF
:1043C3008F83A3A3126011124371125B0D12155652
:1043D3008E828F83125B0D121556124363125B0D8F
:1043E300121556EEFAEFFB121556AE08AF09EE4F53
:1043F30070CC901312E4F0A3F00253D6C082C083B2
:10440300EAFCEBFDEC4D6017EC24FBF582ED34FF89
:10441300125E6D7007124459E0F460071214C079FC
:104423000580309012FAE0C0E0124459D0E0F090D9
:104433002999E493F97A147B131214F6E964017051
:10444300107A007B209012FAE0F91214FC790080B4
:1044530002790402504FEC24FFF582ED34FFF5831B
:104463002274F412078EA2AFE433F508C2AF90139F
:10447300141242CD603AEE24FBF582EF34FF125E54
:104483006D7A007B209012FA6007E0F91214FC8029
:1044930005E0F9121502E4F50AF50B780A120CBED1
:1044A300EEFCEFFD7A147B131214F07402120C80ED
:1044B300E508A2E092AFEEFAEFFB0232211244C507
:1044C300E0221244C922F08E828F83A3A3A3A3A365
:1044D300A322120C807F03020A0174F212078E7466
:1044E300FA120D4EEAFEEBFF7508FE7509FF121E68
:1044F3009EE960057911024669124685603B901476
:10450300E4E0C43354E0F8E0333354FC48C0E01231
:104513005CFED0E012602AFAA3E0FB79FF121C765E
:104523008B0BEA450B60127508FFEE240F124688C9
:104533004404F0124685D2E0F08E828F83125B0B27
:10454300121FA6E96006EE2412126041EE24131234
:104553004688700D902998E493C0E012467CD0E021
:10456300F08E828F83E0A2E7500454038019EE2477
:1045730014124688701290128CE0C0E012466ED07E
:10458300E0F090128CE004F0EE24111246886401EE
:1045930070169014CFE0600D901297E0700A8E822F
:1045A3008F83E0700312603E8E828F83E06401701C
:1045B30013EE240B124EC864027009EE240F124648
:1045C300884440F0AC18AD19EEFAEFFB121F0A8ACB
:1045D3000A8B0B74FE6508700374FFF470098E82F6
:1045E3008F83A3A3126011EA450B60768E828F83BB
:1045F300E0C0E07401120FC1D0E0F07404120FC1E7
:10460300EEF0A3EFF0EE241E125E7A7402120FC1D5
:1046130012594E7401120D1E880C890D780C120C60
:10462300BEEE2420124690120CC2124363120B13E7
:10463300EE240E124690120CC29012A0120B1374A9
:1046430008120FC1E0F9AC08AD09121F0474081277
:104653000C80E9FE74106E700BAA0AAB0B12155690
:1046630080027E10EEF97406023F9A12467222EE21
:104673002414F582E43FF58322EE1246812212567A
:104683000022EE2415F582E43FF583E022F582E46F
:104693003FF583E0F50C780C22C082C08374D712F7
:1046A3000D4E9080BA7403120D2E7426120BE48AF9
:1046B300828B83A3A3A3A3125E80740E120FC11275
:1046C300661DA3A3125E80740C120FC11247A412BD
:1046D30047961252F9C0E0741A120FC1D0E0F012DB
:1046E3005D7B125E7E7420120FC11247A41255BF68
:1046F3001252F9C0E07408120FC1D0E0F0EA241C92
:10470300F582E43B125E7E7412120FC11247A42499
:1047130011F582E41252F9C0E07409120FC1D0E01E
:10472300F012478F1252F9C0E07407120FC1D0E0A4
:10473300F0EA241EF582E43B125E7E7424120FC15C
:104743001247A42420F582E41252F9C0E074261221
:104753000FC1D0E012479C74FFF07401120FC174B3
:10476300FFF07402120FC174FFF09082B6120B0FA8
:104773007404120D2E7407120D26121AFC740412FF
:104783000C8079007429120C8002504FEA2412F530
:1047930082E422240DF582E422F0851882851983B0
:1047A30022E8F0A3E9F0EA2274F412078E74EC1203
:1047B3000D4E8A0A8B0B8C088D09E9FF7E107A2136
:1047C3007B00121550851882851983EAF0A3EB123A
:1047D3005E75E84970030248B97C217D0079008544
:1047E3001882851983E0FA1214A89012AD125B0D9A
:1047F3008518828519831265E32409F582E438124A
:104803005FB67420120FC1125E807411120FC112B1
:104813004F45125E2838F5837402124F491265F42E
:104823007402124F32E508F0A3E509124F491265ED
:10483300D2EFF07422120FC1124EE6F9A3E0C912AF
:1048430062CA39F583E8124BE4A3E0C9125A483926
:104853001248C07423120FC1125B0D7406120FC1EC
:10486300125FB87408120FC1E8F07426120FC11258
:104873005E4CC082C083740C120FC1AC82AD83D076
:1048830083D0827405120BE47425120FC1E0C0E0DB
:104893007413120FC1D0E0F07900AA18AB19121EDD
:1048A300A4E9640170047E00800C85188285198355
:1048B300125B0D121556EEF9741402321EF583E5E0
:1048C3000AF0A3E50BF02274F012078E74FF120DA9
:1048D3004EEAFEEBFF8C088D098E828F83A374084A
:1048E300F0EE241612468860088E828F83A374101C
:1048F300F0EE241712468860098E828F83A3E0248A
:1049030008F012468560088E828F83A3E004F08E40
:10491300828F83A3A3A3A3A3A3E060198E828F83B3
:10492300A3A3A3A3A3A3A3E0C3332402F88E828F7C
:1049330083A3E028F0EE2411124B9F6004740E80D1
:1049430001E4F09014DCE0640170168E828F83E042
:104953006401600D901219E06007124B8C740180A2
:1049630004124B8CE4124BE48E828F83A3E0124B30
:10497300AD28298C828D83F0EE24111246886013B2
:10498300901298E0F9121DFCE9F8850882850983E5
:10499300E029F0850882850983E0C3947540097591
:1049A3000C00750D00024B83E0FA7B001215508A50
:1049B3000C8B0DEA450D7003024B838E828F83E0CF
:1049C300FA90129D124BDD74027808120E43EA45E9
:1049D30008FAAB09EE2412124BD774067808120EAC
:1049E30043A808EA48FCEBFD124685600478018081
:1049F300027800EE2416FAE43FFBE4C8F9ED49FD22
:104A0300EE2411124688F508880974097808120EF5
:104A130043ED4509FD8A828B83124BDD740B7808C5
:104A2300120E43ED4509FDEE2417124BD7740C7893
:104A330008120E43ED4509FD8E828F83A3A3A3A322
:104A4300A3A3124BDD740A7808120E43ED4509FD4A
:104A5300EE2423124BD7740D7808120E43ECF8EDB5
:104A63004509F9E8850C82850D83F0E9124BE98548
:104A73000C82850D83124C0CF0EE2404124B96121B
:104A83004BC1124C0CA3A31255F6124BC1A3A3A303
:104A9300A3126638850C82850D83A3A3A3A3A3A3C6
:104AA300A3F0750B088A828B83E06015EE2418123D
:104AB3005A18E50C2408FAE4350DFB12163A750B67
:104AC30010EE24171246886019EE241A125A18A8F9
:104AD3000BE50C28FAE4350DFB12163A7408250B86
:104AE300F50B8E828F83A3A3A3A3A3A3E06055EE4C
:104AF3002407F50EE43FF50F850E82F583E0C0E051
:104B0300124BB4D0E0124BFCE0C0E008124BB6D01D
:104B1300E0124BFCA3125E59120CBA850E82850F6C
:104B230083E0124E98A80BE50C28FAE4350DFB122E
:104B3300149C7403120C80850E82850F83E0C333AB
:104B4300250BF50B1246856008C0E0124BB4D0E08C
:104B5300F0125927125E59120CBA124BAEFC7D00AB
:104B63007403120FC1124BCFE0F8E50C28F8E435BB
:104B73000DF9E82AFAE439FB12149C7403120C8031
:104B8300AA0CAB0D7401025E3BEE2423F582E43FD5
:104B9300F58322F8E43FF98882898322F582E43F92
:104BA300F583E085188285198322F8EE1264BAE052
:104BB30022A80BE50C28F582E4350DF58322124B70
:104BC300C522E0850C82850D83A3A322E0FA8E82A1
:104BD3008F83A322F582E43FF583E0F5087509008E
:104BE3002212662BF922A3124BF388828983E022D7
:104BF300F0EE2402F8E43FF922F0050B8E828F8356
:104C0300A3A3A3A3A3A3A3A322A3A3126024A312D6
:104C13004BC5A322740302321E125E848E828F83DD
:104C2300A3A32274F012078E74FD120D4E85188211
:104C3300851983125FB87402120FC1E9F08C0C8DD1
:104C43000D750B017C267D007900AA0CAB0D1214A7
:104C5300A87402120FC1E0C394085003024E22E06D
:104C6300850C82850D83F0AC0CAD0D8518828519FA
:104C730083124ECEFA85188285198312552212515A
:104C8300C5121F16E96003750B0085188285198309
:104C9300125E4C124EF0E0F9EA850C82850D83A377
:104CA300A3A3A3A3A3A3A3A3F0A3E9124F32A3A394
:104CB300124EF0A3A3E0F9EAF8E50C125E2812669F
:104CC30063124F45125A0AC0E0E50C2411126660C4
:104CD300D0E0124F492407F582E438F583E0C0E0C1
:104CE30012665CD0E0124F1C7408124F29A3E060D7
:104CF30020851882851983E02408F8A3E03400F99D
:104D0300E50C2413126660E8F0A3E9125E2324087D
:104D1300F0850C82850D83A3A3A3A3A3A3A3A3E080
:104D2300602A850C82850D83A385820E85830F12ED
:104D33004EDDF8A3E03400F9E50C1255BF350D1232
:104D4300594C850E82850F83E02408F0124E9FE4B0
:104D5300F0124EAFE4F0A3124F1CA3A3A3A3E06091
:104D630011124F01850C82850D83A3A3A3A3A31264
:104D73004F3AE50C124EC0E07003024E0E124F0183
:104D8300FA124E9FEA124F3AF8851882851983E08A
:104D930028FBA3E034008B82F583E0F8E50C241AAA
:104DA300126660E8124F3AE8C39AE50C5058124E67
:104DB300BBF890299AE493C39850047E0C8006E5CF
:104DC3000C124EBBFE850C82850D83124EDCF5085A
:104DD300A3E03400F509750A007808120CBAEE1244
:104DE3004E987A177B0812149C7403120C80124E8F
:104DF300AF7417F0A37408F0EEC333F8850E828501
:104E03000F83E0288004124EC0E4F0850C82850DE8
:104E130083A3E0F8850C82850D83E0C39850047961
:104E230000806F124EDCFAA3E03400FBE50C126045
:104E330038350D125FB6850C82850D83E0C398C0AB
:104E4300E0E50C2417126660D0E0124F29E06040C1
:104E5300E50C2417FEE4350DFF8E828F83E024F2E8
:104E6300F0E50C241DF8E4350DF988828983E024EC
:104E73000EFAA3E03400FB88828983125FB8901294
:104E830098E0F9121DFCE9F88E828F83E0C398F055
:104E9300A90B025E3925E0FCE433FD22E50C124E3A
:104EA300A5222419F582E4350DF58322E50C241B94
:104EB300F582E4350DF58322124EA5E022125E1D24
:104EC300350DF58322F582E43FF583124ED222E0BD
:104ED300F8A3E0F5838882E022A3124EE122124E6A
:104EE300E62822E0F8851882851983E022A3A3E04F
:104EF300FA851882851983125E52A3A3A322850C17
:104F030082850D83A385820E85830F124EE1FAA35A
:104F1300E034008A82F583E022124F2022F0850CD0
:104F230082850D83A322124F20A3A3A3A3A322123E
:104F33004F4EF583888222F0850E82850F83E0042D
:104F4300F022E8F0A3E9124F4EC82212662FF8A30D
:104F5300E02274F412078E8A088B09EA124FFAA32F
:104F6300A3F0EA1313543F124FF2A3A3F0EAC413BE
:104F730013124FFA1250047409780A120F34124FA5
:104F8300E9A3A3A3A3A3A3F0EB124FEB1250037463
:104F93000A780A120F34E50A5401C0E0EC125E1DD0
:104FA3003DF583D0E0125008740B780A120F3412C7
:104FB3004FE9125001740C780A120F34124FE9A30F
:104FC300125001740D780A120F34E50A5401C0E03F
:104FD300EC2424F582E43DF583D0E0F0740E7808E8
:104FE300120F34023218E50A54018C828D83225445
:104FF3000F8C828D83A32254038C828D8322A3A3DF
:10500300A3A3A3A3A3F08A0A8B0B22C082C0837934
:10501300008A828B83A3A3A3A3A3A3E09012976028
:105023000EE070238A828B83A3A3E0701A8016E0BC
:1050330060158A828B83125B049012A0E06A70036E
:10504300A3E06B600279018003125B0DD083D082F1
:10505300020C6874F212078E8A0A8B0B890CECFE21
:10506300EDFF8A828B831251C3121F16850A828534
:105073000B83A3A31251B7E0F9EA8E828F83A3A314
:10508300A3A3A3A3A3A3A31251E21251B7A3A3E023
:10509300F9EAF8125927E81251E2A3A3E0C0E0EEBF
:1050A3002411F582E43FF583D0E01251E9A3A3A3D1
:1050B300E0C0E0EE1247903FF583D0E01251D17487
:1050C300081251DCA3A3A3E06016E50A2408F8E460
:1050D300350BF9EE24131255D61251D1E02408F002
:1050E3008E828F83A3A3A3A3A3A3A3A3E060148EA1
:1050F300828F83A31251A6EE24151255D612580996
:105103002408F08E828F83A3A3A3A3A3E0601F8E42
:10511300828F83A3858208858309E0F8E50A28F551
:1051230082E4350B12519BA3A312580904F0EEFA43
:10513300EFFB121F1CE9F50D70598E828F83A3A319
:10514300A31255CDA37014E0F8E50A28FAE4350B51
:10515300FBEE241D125FB2E50C80281251A6E82451
:105163000EF8500109EE241D125948901298E0F9E7
:10517300121DFCE9F8850882850983E0F9E50CC373
:105183009924F2C398C0E0EE2417F582E43FF58337
:10519300D0E0F0A90D023F9DF583E08E828F83A3BB
:1051A300A3A322858208858309E0F8E50A28F8E4A9
:1051B300350BF922E0FA850A82850B83A3A3A32288
:1051C300E0FAA3E0F8E4C8F9EA28E439FB22125133
:1051D300D6A322F08E828F832212602FA3A322F004
:1051E300A3E91251E922F0850A82850B83A3A3A3C5
:1051F300A322C082C0837A207B1379E21219A67A94
:10520300207B1302504FC082C0839012A002504CE7
:10521300C082C0839012A302504CC082C083794ADB
:105223001219A602504F74F612078E901328E0FE4F
:1052330004F0EEF9121ECE8B09EA450970EDEE601B
:10524300EAF90253D674F212078EEAFEEBFF8C08DA
:105253008D09890A12200C740E120FC1E0F9740F24
:10526300120FC1E0F8EA4B7012E8701BA90AAC08F0
:10527300AD09EEFAEFFB12202A8071E86017E9709E
:10528300068A828B83E4F07401687060E990132BC3
:105293007027E48021E97054EA2402F582E4125273
:1052A300F9A80A28F8E4340013E813F0703E8A8260
:1052B3008B83A3A37401F08033E004F09014CCE05B
:1052C300F890132BE0C3984023E4F09012A3E06E10
:1052D3007003A3E06F7015EEFAEFFB7901121B2048
:1052E3007A017B009012FAE0F9121610023F9D74C6
:1052F300A32AF58274063BF583E02274F412078E29
:105303008A088B098C0A8D0B9082AE7808120D7A6D
:10531300700E7A017B009012FAE0F91214FC8031CE
:105323009014B97808120F43122FBB601878081233
:105333000CB67A017B009012FAE0F9121604740499
:10534300120C80800C7A017B009012FAE0F912169D
:1053530010023221C082C0839014BD023CEAC08295
:10536300C0839014BF023CEA74F612078E7E007568
:10537300088C7509127808120CBE7C6E7D007A21A8
:105383007B001215C87402120C80E9640A70027E55
:1053930001121A7EE9640A7004EED2E1FE90031949
:1053A300125E6F600F125523122497E9640A70048A
:1053B300EED2E3FE121C88E9640A7004EED2E4FE26
:1053C300121928E9640A7004EED2E5FEEEF98003AF
:1053D300120C807F02020A0174F612078E12146007
:1053E30075088C7509127808120CBE75086E75095C
:1053F300007808120CBE7C007D007A217B00121518
:10540300D47404120C80121A8490031B125E6F6012
:1054130006125523122497121C8E12193A80B47463
:10542300F612078E74FF120D4E7E0075088C7509F7
:10543300127808120CBE7C6E7D007A217B00121557
:10544300C87402120C80E960030255077808120C35
:10545300BE75086E8E097808120CBE7C007D007A3A
:10546300217B001215DA7404120C80E960030255E3
:10547300079012A0E064FE7003A3E0F470030255EA
:10548300077E019012AFE064086005E06404706F6A
:10549300851882851983EE12561379421219AC7A54
:1054A300B77B1279431219AC7AB47B12794712197C
:1054B300AC7AA57B12794A1219AC7AA37B12794B89
:1054C3001219AC7AAD7B1279501219AC7AA07B1207
:1054D30079531219AC7AB57B1279541219AC7AA2AA
:1054E3007B1279E11219AC90129AE0A2E35004D234
:1054F300F08002C2F012560979521219AC800512DB
:1055030014607E00121A7290031D125E6F60061201
:105513005523122497121C9AEEF974010253D3A354
:10552300125E532274F612078EE9FEA2E05026752E
:10553300088C7509127808120CBE75086E7509007F
:105543007808120CBE7C007D007A217B001215D4F2
:105553007404120C80EEA2E35003121A78EEA2E256
:10556300500E90031F125E6F60061255231224978C
:105573000253D674F712078E74ED120D4EE9FE90A6
:1055830012F9F0AC18AD199014FAE0F97AFD7B1218
:10559300121E867412120FC1EE1255B4AA18AB195B
:1055A300121E807AFD7B1279451219AC74130243E3
:1055B30081F09014FAE0F97CFD7D12222415F58226
:1055C300E422125F293509F58322A3A3A3E08E8287
:1055D3008F8322F582E43FF583E8F0A3E922EE12FC
:1055E3005F293FF5831255EC22E0F8A3E0F98882A6
:1055F3008983221255FA22F0EE125600222413F563
:1056030082E43FF58322A2F0E4338518828519836F
:10561300F0AA18AB192274F412078E8A088B097A40
:10562300007B049012FAE0F91216101256D590126C
:10563300AF7409F0121F288A0A8B0BAC0AAD0B1248
:105643003686125B0D121634E96401706B7A0F7B98
:10565300001214BA8A0A8B0BAE0AAF0BEE4F6058D6
:105663008E828F837402F0E5081260383509125672
:10567300BEFC88828983A3A3E0FBEC8E828F83A385
:10568300A3125FB9888289831255CD1256C6FAA335
:10569300E0FB794A1219AC850882850983A3A3A389
:1056A300A3A3A3E070069011297405F0EEFAEFFBB3
:1056B3009012FAE0F91214C6023221F5831255EC66
:1056C300A3E022A3F0E5082415F582E43509F58368
:1056D300E022901235125E849014BFE8F0A3E9F043
:1056E300901237125E849014BDE8F0A3E9F022749F
:1056F300F412078E74FD120D4E8A088B0974011281
:105703000FC17402125613121F9A8A0A8B0BAE0A28
:10571300AF0BEE4F70030257E11265FDE41257FD24
:10572300E06401700888828983A37420F08508826D
:10573300850983A3A3A3A3A3E064017009888289D5
:1057430083A3E0D2E6F0850882850983A3A3A3A3FC
:10575300A3A3E06401700A88828983A3E0D2E7806F
:105763000512467C74011257F8E06401701E850827
:1057730082850983A3A3125E6F600312604A8508C2
:1057830082850983A3A3125E801259458508828509
:105793000983A3A3A3A3A3A3A3E064017009EE2435
:1057A3000F12604DA3E4F0850882850983125B0D17
:1057B300121FA6E96009EE240F1246884404F0EE96
:1057C300241712604D121F28125EF7125809125740
:1057D300E61257EFFAEFFB121A9CE9F980027910EF
:1057E300024C17F8A3E0F98E828F8322A3A3E8F07B
:1057F300A3E9F0EE221257FDA322F0850882850962
:1058030083A3A3A3A322F0850882850983E02274DE
:10581300F512078E74F3120D4E890AEAFEEBFF753B
:1058230008007509007C0D7D007900AA18AB1912D8
:1058330014A8125E13125A28741F58600C7AD37B73
:10584300001217C67900025922E8A2E55008740C29
:10585300120FC17401F0E8A2E75008740B120FC1D4
:105863007401F0E8A2E6740A5008120FC17401F043
:105873008008120FC1E0640170138E828F83A3A38B
:10588300A3A3A3A3A3E06030EE241380128E828F20
:1058930083A3A3A3A3A3A3A3A3E0601CEE241512D5
:1058A300600BE50845096010AC08AD097402120FDE
:1058B300C1AA82AB8312163A1259271259351259CB
:1058C3004E740A120FC1E06401704B9014EFE06054
:1058D3004C640170069014D9E06042EE240B125E12
:1058E3007A9012A3E0687003A3E0697030125B0042
:1058F300121FA6E97027E5084509601A121F288AB6
:10590300088B09AC08AD097402120FC1AA82AB83DC
:10591300121634E96007AA18AB19121B1AA90A74E4
:105923000D0244D512592B22EE240BF582E43FF5E8
:10593300832212593922E0F8A3E0F98518828519E8
:105943008322EE2418F582E43FF583E8F0A3E9F01F
:105953002274F712078E74CD120D4E1265DB125AA4
:105963000AA2E04003025A058E828F831255E8A3F0
:10597300A3A3A3A3A3E054FE1262D0740D120D2EB1
:10598300125A35125B0D121F22E97076742A120F18
:10599300C1125A2F706C7C0D7D007900AA18AB19C7
:1059A3001214A87416120FC112593512594E742AC3
:1059B300120FC1125A28A2E55008740B120FC174BA
:1059C30001F0E8A2E75008740A120FC17401F0E86D
:1059D300A2E65004742080027422120FC1125A1ED0
:1059E3007402120FC1AA82AB8312163A8E828F837E
:1059F300A3A3E0C0E0740C120FC1D0E0125613123F
:105A03001B147433024381125A0E222406F582E4D6
:105A130038F583E022F582E43FF583125A2222E02F
:105A2300FCA3E0FD22125E50A3E0F822124ED264E2
:105A33000422EA241EF582E43BF583E0F9EA125AD4
:105A4300483BF58322241FF582E422E9F8790074A8
:105A53000468600A740A6860057403687002790157
:105A6300020C6874F612078E8A828B837424F0A367
:105A7300A37401F0121AA28A088B09AE08AF09EECB
:105A83004F600D8E828F83125F43121F28125FAF08
:105A9300EEFAEFFB0253D6C082C083901316740153
:105AA300F0E9A2E350037403F0E9A2E15004E0D269
:105AB300E2F002504F74F612078E79007C008A08D8
:105AC3008B097808120A47F8FF07ED5AEB5AEB5A8D
:105AD300EB5AEB5AE35AE75AED5ADF5A7C01800A34
:105AE3007C0480067C0280027C08901316E05C60D4
:105AF3000479028005EC600279010253D68E828F0D
:105B030083A3A3A3A3A3A3A3A3A3125B1122E0FADA
:105B1300A3E0FB2274F612078E8A828B83E0701453
:105B2300A3A3A3125E6F600C8A828B83125B0A129B
:105B33001CE880047A007B000253D6C082C08378BD
