:020000040000FA
:0600000002135702084044
:03002B0002111FA0
:03003300020E5664
:03004300020FEDBC
:030053000207752C
:03007B00020E3042
:100083000207D40100F0FF0700080000FFFF000093
:1000930001040000000300010020FD00057B15871B
:1000A300150000000081158D1581159915000000BC
:1000B3000081158D15000000000000000000000005
:1000C30000000000000000000000000000B715BDA4
:1000D30015C31500000000000000000000EB82E3E0
:1000E30082DF8203830783678347833B83378313DB
:1000F300830F830B8301AACDABCDAB0101968301A3
:1001030098830206FFFF00001D5500000000000059
:100113000000010400003815000000E8030000FFA0
:10012300FF89150188130000E803000064006400E0
:10013300B801A0BB0D00A0BB0D0002020207040121
:10014300051E02051E020A0A0108080103B80B0274
:10015300803E0102FEFFE8030A050001FFFF020AD9
:10016300011401E030313233343536373839414206
:100173004344454600286E756C6C20706F696E743D
:10018300657229003031323334353637383961629C
:1001930063646566003F3F3F000000807F0000808E
:1001A3003FF9021550B743BA510000204100E7DB85
:1001B3002E0000A04005030101FF0F962C00000054
:1001C300006A2B00000000FF000000FF00121376FE
:1001D3006046121367603DE9687008F618F618F672
:1001E30018F622748067F7120204090909748067FC
:1001F300F722121367601D121376700519191980FF
:100203001A121243701F121257C37003E667331991
:10021300191940071818182208080874FFF618F669
:1002230018F618F622121257601712141C70219236
:10023300F01214257019501720F014080808090942
:1002430009E7F61819E7F61819E7F61819E7F62279
:1002530012142560E6E869701F0808E62480F60892
:10026300E436F618547FB47F0CE654806007F6E456
:1002730018F618F622181822E9C6CC08C6CD08C607
:10028300CE08C6CFC0E0E8C0E0EAC0E0EBC0E009BA
:10029300E9F809E7FA09E7FBE6F918E6F8C3EC9889
:1002A300ED99EE9AEBC2E7F5F0EFC2E795F0500E49
:1002B300600CEBCFFBEACEFAE9CDF9E8CCF8EAA281
:1002C300E7D2E7FAEB33FB13F5F0EEA2E7D2E7FE52
:1002D300EF33FFC5F013A2E730E601B313C5F0C354
:1002E300C0E0C0F07F00C39BFB605E9418600F40CA
:1002F3001D14601AD0E023F9D0E0F80203D68AF087
:10030300E9486003D2F0E4AFF0FAF9F8803BEB3050
:10031300E40D89F0EA6003D2F0E4AFF0F9CAF8EB38
:1003230030E30D88F0EF6002D2F0AFF0E4CAC9F811
:10033300EB54076014FBC3EA13FAE913F9E813F863
:10034300EF135002D2E0FFDBEDD0E0C0E030E7393D
:10035300C3E49FFFF5F0EC98FC42F0ED99FD42F009
:10036300EE9AFE42F0D0E0F9D0E0F8E5F0607AE9E9
:1003730023F9EE20E742D8028067C3EF33FFEC3363
:10038300FCED33FDEE33FE80EAEC28FCED39FDEEA7
:100393003AFED0E023F9D0E0F84002801BC3EE130D
:1003A300FEED13FDEC13FCEF135002D2E0FF08B88F
:1003B30000067F7F74FF802EEF3350178CF020F000
:1003C3000260100CBC000C0DBD00080EBE0004083A
:1003D300E860DFE933E813FFEE2313FE4F4D4C8053
:1003E30008E95480FFE4FEFDFCEE33EF33F47004C0
:1003F300FCFD7E80D0E0FBD0E0FAD0E0F8D0E0CF87
:10040300C618CEC618CDC618CCC6F922121367700B
:100413000418181822121376700D74FFF61819F6C3
:100423001819F61819F622E7548066F61214257087
:100433000F12141C70F014F608F608F608F680D1B3
:1004430012141C700CF608F608768008E6447F80C8
:10045300EC12125A700C12124660BFE65480F6E496
:1004630080BB121246700519191980A5E869700C32
:10047300763F18768018F618F6E8F922E6CDC0E044
:1004830018ECC0E0E633CD33CDD313F6E719FCE720
:10049300191933CC33C3947F400ECD9D502408E605
:1004A3005480F6E418F6800FF4043D14501408E663
:1004B300447FF6187680E418F618F6D0E0FCD0E016
:1004C300FD22CCD313CCFD18E4C6CBC0E018E4C6A0
:1004D300CAC0E00808ED08C633E613F618E433C6CD
:1004E30075F003C3CA97CA09CB97CB199C40047D07
:1004F30008802EBD00030205B816B6FF05060608E0
:100503001618C3CA33CACB33CB33CA27CA09CB376E
:10051300CB193CC37D08803E187D0820E75CC633B9
:10052300C6CA33CACB33CB33DDF1D5F0EB30E77B2F
:10053300CA97CA09CB974ACB199C406F4B7025E6E3
:1005430020E0218066187D08C3CA97CA09CB97CBE0
:10055300199CD3C633C6CA33CACB33CB3350C9DD98
:10056300E7D5F0E1D3E4C636C608C636C608C636B4
:10057300C608C636C61818188031C3CA97CA09CB2D
:1005830097CB199CB34097C633C6CA33CACB33CB78
:1005930033DD34D5F02EC6A2E0C640C8CA27CA0947
:1005A300CB37194A70BECB3CB480B90808E6330890
:1005B300E633601F181818D0E0FAD0E0FBD0E0FC57
:1005C300D0E0FD22187D08CA27CA09CB37CB193CD6
:1005D300D3808013F618E4B67F11F618B6FF0EF633
:1005E30018C60470D20808768080CAF618F618F682
:1005F30080C500121367604F1213766012E75480B0
:1006030066F6121243701112141C703B090909F4A7
:10061300F618F618F618F62212125770151214254A
:1006230008080860EAE6447FF618768018E4F618AE
:10063300F622121425601612141C7012E4F608F642
:1006430008F608E65480F609090918181822EAC0C2
:10065300E0EBC0E0ECC0E0EDC0E0E687F0A4FBAC6B
:10066300F008E687F0A42CFCE435F0FA1809E687D5
:10067300F0A42C4B60027401CA35F0FCE433FB098F
:10068300E687F0D2F7A42CCB35F0FC1908E687F007
:10069300A42BCC35F0FBE433FD0819E687F0D2E751
:1006A300A42C4ACB35F0CD3400FC09E687F0D2E721
:1006B300A42DCC35F0FDE433FA0918E687F0D2F720
:1006C300A42CCD35F0CA3400FC08E687F0D2E7D27B
:1006D300F7A42ACC35F07A7E20E70B0ACB33CBCDB7
:1006E30033CDCC33CC33CB3350147004ED30E00E28
:1006F300D2F1E4CD3DCDCC3CCC3B5005DA05C2F183
:10070300EB547FC63308E63392F0FBE73309E73354
:10071300C39A502D2B70190C0D4C4D70151806E60D
:1007230008C333700D20F10AA2F013F6E418800B0E
:100733004024E4F630F002768018F618F618F680B6
:1007430024D33B14501074FFA2F013F6187680E400
:1007530018F618F6800FA2F013F618E63303F6180E
:10076300ECF618EDF6D0E0FDD0E0FCD0E0FBD0E0F5
:10077300FA22C0E074F1120B5EA2AFE433F509D2A2
:10078300AF85A708AFA1EF5508FE74105E6006128F
:10079300167775A1EF74085E600812167D75A1F7D0
:1007A3008024EFA2E092F0E508A2E082F0501790D7
:1007B3006198E0F89007D5E0C398A2D265D0335092
:1007C30002E8F075A1FEE509A2E092AF7F02020BF9
:1007D300BDC0E074F2120B5EA2AFE433FED2AF9061
:1007E30061A4E0F8759B00E5915854086008759181
:1007F300F71216CB8023E59158541060087591EFDA
:100803001216D18014E591A2E092F0E8A2E082F002
:100813005007E0C2E0F012181B9061A3E0F8E5E98D
:10082300585404600E1217F175E9FB906193E0A22E
:10083300E640F2EEA2E092AF7F01020BBDC0E0748E
:10084300F2120B5EA2AFE433FED2AF9061A5E0F8E3
:10085300E5BF585404600675BFFB12183380D4C338
:10086300E498F8E499F91208A38026C3E49AFAE419
:100873009BFBE920E7E91208A3E498F8E499F9223D
:10088300C3E498F8E499F91208A3E498F8E499F911
:10089300C3E49AFAE49BFB22EB20E7CFE920E7E0ED
:1008A300B90010BB0008E88AF084F8AAF022E4FB40
:1008B300C8FA22EB70227B10C833C8C933C933503E
:1008C30007C39AC3DBF280069A50012ADBEAC833D6
:1008D300F4C8C933F4C9FA2275F008E4C833C8C9A7
:1008E30033C933C99AC99B5004C92AC93BD5F0EC13
:1008F300FBC833F4C8E4C9FA2212093C20F01430CF
:10090300E72B74FFFCFBFA747F8022E4FCFBFA7490
:1009130080801AB48008BC00F2BB00EF800F50EB5C
:10092300F9E4C39AFAE49BFBE49CFCE499C6CC1873
:10093300C6CB18C6CA18C6F922E4C9C608CAC6086F
:10094300CBC6D3330308CCC63392F0C3947F402E77
:1009530094184019C9B90704CACBCC225025C3093E
:10096300CA33CACB33CBCC33CC33D9F422F4600DA6
:10097300C9CCC313CB13CBCA13CAD9F6CC22E4FC1C
:10098300FBFA2214FCFBFA22080808EAC0E0EBC0D9
:10099300E086F0E7A4FA180986F0E7A42AFA180912
:1009A30086F0E7A42AFA180986F0E7A42AFA19863A
:1009B300F0E7A4FBE5F02AFA190886F0E7A42BFB7D
:1009C300E5F03AFA190886F0E7A42BFBE5F03AFACA
:1009D30018180986F0E7A4C5F02BFBE43AFA1908C6
:1009E300E7C5F0C6A426F6E5F03BFBE43AFA188621
:1009F300F0E7A4F6E5F00826F6E43B08F6E43A0847
:100A0300F6D0E0FBD0E0FA22080808E630E711123E
:100A13001207120A23080808C64480C618181822A9
:100A2300181818E9799EC608CAC608CBC608CCC6EA
:100A3300C370207996CACBCC7019798ECBCC701346
:100A43007986CC700EF9802ACA33CACB33CBCC3328
:100A5300CC331930E7F2CCCBCA3350147004EA30EC
:100A6300E00DE4CA3ACACB3BCBCC3CCC500209C321
:100A7300E913C6CC182313C6CB18C6CA18C6F92265
:100A8300E4CFC0E0E4CEC0E0E4CDC0E0E4CCC0E01D
:100A930075F020E626F608E633F608E633F608E6B0
:100AA30033F6181818EC33FCED33FDEE33FEEF3359
:100AB300FFC3EC9709ED9709EE9709EF97191919F9
:100AC300400FFFEC97FC09ED97FD09EE97FE19190E
:100AD30006D5F0BFECF709EDF709EEF709EFF719C3
:100AE3001919D0E0FCD0E0FDD0E0FED0E0FF2225D4
:100AF30018C582C0E0E51934FFC583C0E0E518C31B
:100B0300958224F810AF088583198582188008859B
:100B13008319858218D2AFCEF0A3E520F0A378081D
:100B2300E608F0A3DEFAEFF0A3E58124FAF8E6087D
:100B3300F0A3E608F0A3E608F0A30808E608F0A38C
:100B4300E608F0A315811581D0E0FED0E0F8158109
:100B530015811581E8C0E0EEC0E022C0D02518C59C
:100B630082C0E0E51934FFC583C0E0E518C3958270
:100B730024F310AF088583198582188008858319AB
:100B8300858218D2AFC8F0A3E9F0A3EAF0A3EBF093
:100B9300A37908E709F0A3D8FAECF0A3EDF0A3EEEC
:100BA300F0A3EFF0A3D0E0F0A3D0E0F0A3D0E0F007
:100BB300A3E520F0A3E5F0F0A3228519838518822D
:100BC300E0C0E0A3E0F9A3E0FAA3E0FBA37808E028
:100BD300F608A3DFFAE0FCA3E0FDA3E0FEA3E0FF39
:100BE300A3E0C0E0A3E0C0E0A3E0F5D0A3E0F520DC
:100BF300A3E0A3F5F010AF08858319858218800858
:100C0300858319858218D2AFD082D083D0E0F8D003
:100C1300E032121407B90003020C54E49003017884
:100C23002779168002F0A3D8FCD9FA7A277B18908B
:100C33000086784B79028015E493A3AD82AE838A54
:100C4300828B83F0A3AA82AB838D828E83D8E9D96A
:100C5300E775820A7583AD74041210B075826775E7
:100C6300832974001210B0E47375F0108E1A8F1B71
:100C730085821F85831E851882851983E0CEA3E0B4
:100C8300CF851F82851E83EBC9EAC8EDCBECCAC3AF
:100C9300E833C8E933C9EA33CAEB33CBC3EA9EF579
:100CA3001DEB9FF51CB35004AB1CAA1DEC33CCED1C
:100CB30033CDD5F0DAAE1AAF1B22121367601C12C4
:100CC30013766017121425700712141C7001D322B7
:100CD300C0D012141C7006D0D0B322C32233D0D09C
:100CE300501430E0F6C3E7960809E7960809E7963B
:100CF3000809E796B32220E0D5E6970809E69708A6
:100D030009E6970809E697B322D083D082ECC0E0C6
:100D1300EDC0E0E493A3FCE493A3FDED4C600D125E
:100D23000E73EC24FFFCED34FFFD80EFE493A3FC92
:100D3300E493A3FDED4C600D120F72EC24FFFCED68
:100D430034FFFD80EFD0E0FDD0E0FCE493A3C0E0EE
:100D5300E493C0E022121367601B1213766016122D
:100D63001425700712141C600CB322C0D012141C7B
:100D73007005D0D022C32233D0D0501330E0EBC360
:100D8300E7960809E7960809E7960809E7962220F7
:100D9300E0E4E6970809E6970809E6970809E69765
:100DA30022D083D082E9C0E0E493A3C386F0C5F0E8
:100DB30095F0F908E493A386F0C5F095F0700BE481
:100DC30093A3C3994005E9048002A3E475F002A448
:100DD3002582F582E5F03583F583D0E0F9E493A32A
:100DE300C0E0E493C0E022851983851882E0A3FE66
:100DF300E0A3F5207808E0A3F608DFFAE0A3FFE01C
:100E0300A3C0E0E0A3C0E0E0A3C0E0E0A3C0E0E053
:100E1300A3C0E010AF0885821885831980088582F6
:100E230018858319D2AFD083D0820210B6C0E07484
:100E3300F2120B5EA2AFE433FED2AFE58AA2E25018
:100E430003121461758A00C2EBEEA2E092AF7F0138
:100E5300020BBDC0E0C0D0E8C0E0A8A8D2AF758B3C
:100E630000C2E8E8A2E792AFD0E0F8D0D0D0E032F9
:100E7300C0E0C3E49396087401939618400FE4937B
:100E830066700808740193661870007019A3A3C3F1
:100E9300E49396087401939618A3A3400DD0E0D071
:100EA300E0D0E0020D48A3A3A3A3A3A3D0E022C0F4
:100EB30082C08374FE1211B2851882851983EAF009
:100EC300A3EBF07C017D00AA18AB1979001214C1C1
:100ED300851882851983E0FAA3E0FB74021210CE11
:100EE300D083D082227404800474028000CCC0E0DA
:100EF300EDC0E0E518C39CCCAD1950011D10AF0641
:100F03008C188D1980068C188D19D2AF121032D01F
:100F1300E0FDD0E0FC2274028000CCC0E0EDC0E034
:100F2300E518C39CCCAD1950011D10AF068C188D6C
:100F33001980068C188D19D2AF121010D0E0FDD095
:100F4300E0FC221213676025121376602012142529
:100F5300700302141C080808E76670101819E76686
:100F6300700A1819E76670041819E76622F422C09C
:100F7300E0C0F088F0E49366700808740193661883
:100F83007000A8F0A3A3700BD0F0D0E0D0E0D0E0C5
:100F9300020D48A3A3D0F0D0E022D083D082CCC0EE
:100FA300E0E493A360061210721470FAE493A36052
:100FB3000612119C1470FAD0E0FCE493A3C0E0E4A1
:100FC30093C0E022C008C3E096F50808A3E0964268
:100FD3000808A3E096420808A3E0964208A2D26557
:100FE300D033E5087001D3D00822C0E074F2120BAD
:100FF3005EA2AFE433FED2AFC2C0E5D1A2E4500398
:101003001214A9EEA2E092AF7F01020BBDCAC0E0A9
:10101300E493A3C582CCC582C583CDC583F0A3C5A4
:1010230082CCC582C583CDC583DAE5D0E0CA22CAA6
:10103300C0E0E0A3C582CCC582C583CDC583F0A340
:10104300C582CCC582C583CDC583DAE6D0E0CA228A
:10105300C008C3E096F50808A3E096420808A3E099
:1010630096420808A3E09645087001D3D00822C031
:10107300E0E493A3D39C5010E493A3C39C400AD011
:10108300E0D0E0D0E0020FBAA3A3A3D0E02270091E
:10109300080808226016181818C6C333C608C633D2
:1010A300C608C633C608C633C6D5E0EA22C09FF5D4
:1010B3009FE473D09F22D083D082C09FE493C0E08B
:1010C300740193C0E0740293F59F2200C0D02518E9
:1010D30010AF08F518500C05198008F518500205D3
:1010E30019D2AFD0D0222518F58210AF08F51840D9
:1010F3000C15198008F51840021519D2AF8519830C
:10110300227404800A74038006740280027401C08E
:10111300E0F4041210E9D0E01213B222C0E0C0D010
:10112300E8C0E0A8A8D2AFC2C7E8A2E792AFD0E078
:10113300F8D0D0D0E032BB0102E722C082C083895D
:10114300828A83BB0003E08002E493D083D08222AF
:101153006016080808C6C313C618C613C618C613F4
:10116300C618C613C6D5E0EA22C3E0C696F608A39E
:10117300E0C696F608A3E0C696F608A3E0C696F680
:10118300222518F8E43519F9222518FAE43519FB54
:10119300222518FCE43519FD22C0E0E493A36C700A
:1011A30009D0E0D0E0D0E0020FBAA3A3D0E022251B
:1011B3001810AF08F518400C15198008F5184002EF
:1011C3001519D2AF22E066701008A3E066700A0812
:1011D300A3E066700408A3E06622C3E09608A3E0D8
:1011E3009608A3E09608A3E096A2D265D03322E73F
:1011F3006670100809E766700A0809E76670040854
:1012030009E76622181818E4C396F608E496F60868
:10121300E496F608E496F622C3E096F008A3E09677
:10122300F008A3E096F008A3E096F022C3E697F651
:101233000809E697F60809E697F60809E697F622FD
:10124300181818E60846087009E626087005E633FC
:10125300F4220822191919E70947097009E7270930
:101263007005E733F4220922C3E4939608740193CB
:10127300960874029396087403939622E627F60859
:1012830009E637F60809E637F60809E637F6227065
:101293000422600D18C6C333C608C633C6D5E0F4AE
:1012A3001822E657F60809E657F60809E657F6083E
:1012B30009E657F622E026F608A3E036F608A3E08F
:1012C30036F608A3E036F622E026F008A3E036F06F
:1012D30008A3E036F008A3E036F022E056F008A3B6
:1012E300E056F008A3E056F008A3E056F022E647E4
:1012F300F60809E647F60809E647F60809E647F659
:1013030022E056F608A3E056F608A3E056F608A333
:10131300E056F622600D08C6A2E713C618C613C628
:10132300D5E0F322C6F4C608C6F4C608C6F4C60858
:10133300C6F4C622C3E09608A3E09608A3E0960885
:10134300A3E09622C3E7960809E7960809E79608FB
:1013530009E7962275D00075813F75180175190349
:1013630000020C15E6084608C3134608336002E67C
:1013730033F422E7094709C3134709336002E7330C
:10138300F422600C08C6C313C618C613C6D5E0F40E
:1013930022E6F008A3E6F008A3E6F008A3E6F022AD
:1013A300E0F608A3E0F608A3E0F608A3E0F622CAF5
:1013B300C0E0E6F0A308DAFAD0E0FA22E0FCA3E00A
:1013C300FDA3E0FEA3E0FF22EAF0A3EBF0A3ECF021
:1013D300A3EDF022E0FAA3E0FBA3E0FCA3E0FD22EF
:1013E300E8F0A3E9F0A3EAF0A3EBF022ECF0A3ED1D
:1013F300F0A3EEF0A3EFF022E0F8A3E0F9A3E0FA04
:10140300A3E0FB22E5C754F84401F5C7790122257F
:1014130018F582E43519F58322E727194719471987
:101423004722E62618461846184622C2AF75D69FAD
:10143300020000221210B969BC041210B9ECBC04FA
:101443001210B952BD041210B952BB041210B97470
:10145300BB041210B9CDBB041210B91CBC0412108A
:10146300B93EBC041210B98F8D041210B99D8D04BE
:101473001210B9188E041210B9148F041210B9EA9D
:1014830090041210B93AC2041210B9008004121069
:10149300B96C80041210B92481041210B9108204AB
:1014A3001210B98083041210B9E783041210B93BF8
:1014B30084041210B94484041210B9548404121021
:1014C300B9C784041210B9DD84041210B9E7840487
:1014D3001210B911BF041210B962BF041210B9AAD5
:1014E300BF041210B9B6B0041210B9C6B00412107A
:1014F300B982B1041210B991B1041210B9D1D20258
:101503001210B931D3021210B9EBD3021210B995EC
:10151300D5021210B935D6021210B97BD6021210B9
:10152300B9E6D6021210B954D7021210B995D702F0
:101533001210B902D8021210B940D9021210B955CB
:10154300D9021210B97BD9021210B9E8D9021210CC
:10155300B959DA021210B9D9DA021210B94ADB0208
:101563001210B974DB021210B93CDD021210B97407
:10157300DE021210B997DF021210B929E00212102D
:10158300B999E0021210B9FFE1021210B9BDE302EA
:101593001210B977E5021210B970E6021210B91DE4
:1015A300EA021210B93BEC021210B9E6AA041210B7
:1015B300B954AB041210B976AC041210B979AC0467
:1015C3001210B97FAC041210B997AC041210B9DD34
:1015D300A3041210B91CA4041210B959A5041210C3
:1015E300B94F91041210B9E191041210B902930496
:1015F3001210B9D293041210B96B94041210B9D318
:1016030094041210B959B6041210B999B604121001
:10161300B971F6031210B99DF6031210B90EF9034E
:101623001210B94EF9031210B98EF9031210B9A2B0
:10163300F9031210B9BBF9031210B9ACFA03121073
:10164300B951FB031210B965FB031210B9A5B3041A
:101653001210B9C9B3041210B9E2B3041210B914C9
:10166300B4041210B944B4041210B971B4041210C2
:10167300B9D3B4041210B9E2B4041210B9ECB4042F
:101683001210B9F9B4041210B938A1041210B958E0
:10169300A1041210B997A1041210B9B2A104121037
:1016A300B9D1A1041210B937A2041210B940A2048F
:1016B3001210B99DA2041210B9ACA2041210B9D031
:1016C300A2041210B991A3041210B99EA30412101C
:1016D300B9AFA3041210B976C1041210B98EC104B4
:1016E3001210B9BAC1041210B93C85041210B9968C
:1016F30086041210B9A486041210B9B78604121016
:10170300B9CC86041210B9E186041210B9F4860428
:101713001210B96887041210B9CD87041210B96F7B
:1017230088041210B93389041210B94389041210C2
:10173300B95289041210B9BBBF041210B9DFBF0438
:101743001210B907C0041210B92FC0041210B95FE8
:10175300A6041210B986A6041210B9A4A604121086
:10176300B917A7041210B9659E041210B97E9E041E
:101773001210B98A9E041210B99E9E041210B9BCAD
:101783009E041210B9C69E041210B9D09E04121002
:10179300B9E39E041210B9699F041210B9DE9F04C5
:1017A3001210B90DA0041210B95BA0041210B9AA4B
:1017B300A0041210B9C5A0041210B9CFA0041210CE
:1017C300B9E0A0041210B923A1041210B9DBC004BC
:1017D3001210B910ED031210B93AED031210B957F4
:1017E300ED031210B96AED031210B980ED03121064
:1017F300B9DEED031210B916EE031210B90AF203A3
:101803001210B94FF3031210B982F3031210B9E5A2
:10181300F3031210B945F5031210B96DF503121055
:10182300B982F5031210B992F5031210B9D6F50374
:101833001210B931F6031210B941F6031210B9228E
:10184300BA041210B93CBA041210B964BA041210E3
:10185300B97DBA041210B9A1BA041210B9BFBA04FF
:101863001210B9D6BA041210B904BB041210B91F6E
:10187300BB041210B9BDC1041210B90295041210B1
:10188300B91295041210B91796041210B9499604A7
:101893001210B97996041210B99C96041210B9B3B8
:1018A30096041210B9ED96041210B952970412104F
:1018B300B99497041210B9D397041210B904980479
:1018C3001210B92F98041210B9E4B8041210B969B0
:1018D300B9041210B901BA041210B903B5041210F5
:1018E300B915B5041210B929B6041210B92CB604EF
:1018F3001210B92FFF011210B965FF011210B97F41
:10190300FF011210B9C1FF011210B9D1FF0112106A
:10191300B9DBFF011210B934F8011210B93EF80116
:101923001210B978F8011210B9E1F8011210B9FEDA
:10193300F8011210B9A0F9011210B9A9F901121096
:10194300B9EEF9011210B917FA011210B924FA010C
:101953001210B995FA011210B920FB011210B96ED9
:10196300FB011210B9ACFB011210B911FC011210EA
:10197300B934FC011210B9ABFC011210B902FD011C
:101983001210B93DFD011210B972FD011210B98494
:10199300FD011210B996FD011210B9B5FD01121027
:1019A300B9BEFD011210B979FE011210B9C5FE01CD
:1019B3001210B903FF011210B9A4B7041210B9260B
:1019C300C1041210B9B0A8041210B9E6A804121089
:1019D300B92EA9041210B987AA041210B9306C00E9
:1019E3001210B9546D001210B98E6D001210B9386F
:1019F3006F001210B9626F001210B9D77100121084
:101A0300B91772001210B9AD73001210B94A7400FD
:101A13001210B99C74001210B93F75001210B977F7
:101A230075001210B9B975001210B9287700121099
:101A3300B97678001210B9A77A001210B9D57A00D6
:101A43001210B9FC7A001210B9057B001210B955B7
:101A53007B001210B9E77B001210B9167F00121039
:101A6300B9997F001210B99EC2041210B98B890470
:101A73001210B9A189041210B9458A041210B9844D
:101A83008A041210B9A18A041210B9D28A0412105E
:101A9300B91F8B041210B9528B041210B98D8B0429
:101AA3001210B9828D041210B96BBD041210B9CA99
:101AB300BD041210B908BE041210B949BE041210B5
:101AC300B9EFAE041210B9FDAE041210B938AF0469
:101AD3001210B93FAF041210B9CCAF041210B9877A
:101AE30098041210B9A798041210B9C898041210D8
:101AF300B9EE98041210B91099041210B94F990451
:101B03001210B9B399041210B9D099041210B93351
:101B13009A041210B9519A041210B9A99A04121016
:101B2300B90080031210B92F80031210B9A78003E4
:101B33001210B9AA81031210B90682031210B987D1
:101B430083031210B9A383031210B9F58303121090
:101B5300B92D84031210B94084031210B99284037F
:101B63001210B91E85031210B98B85031210B9B573
:101B730085031210B9ED85031210B9D18703121032
:101B8300B9AA88031210B9F389031210B91F8A0383
:101B93001210B9F28A031210B97A8B031210B9BB6F
:101BA3008B031210B9D58B031210B91C8C031210BE
:101BB300B93C8C031210B9D68C031210B9658D038E
:101BC3001210B9BF8D031210B9038E031210B97F1F
:101BD30090031210B9A191031210B9DD91031210F1
:101BE300B9CF92031210B9F792031210B9FA920304
:101BF3001210B90493031210B91793031210B9A06A
:101C030093031210B9D693031210B902940312105E
:101C1300B92994031210B94D94031210B9E4940333
:101C23001210B9F294031210B90895031210B940B7
:101C330095031210B954C0041210B960C0041210F5
:101C4300B99EC0041210B9F3FF011210B9569503DF
:101C53001210B97995031210B9BF96031210B9087F
:101C630097031210B96297031210B9C897031210A1
:101C7300B9CB97031210B91798031210B9919803AF
:101C83001210B91799031210B91A99031210B9A6B1
:101C930099031210B9E999031210B9109E03121097
:101CA300B9AD9F031210B9F49F031210B969A303CE
:101CB3001210B98EA4031210B91CA6031210B9AAEC
:101CC300A6031210B9ABA7031210B910AA0312107E
:101CD300B9B0AA031210B91AAB031210B933AB038C
:101CE3001210B9EEAB031210B955AC031210B9CBF5
:101CF300AD031210B9F9AE031210B972AF0312108B
:101D0300B975B1031210B91DB2031210B9ACB20305
:101D13001210B97FB3031210B95AB5031210B9FBED
:101D2300B6031210B9A3B7031210B9B5B803121052
:101D3300B9C6DD011210B93ADE011210B982DE0113
:101D43001210B9C0DE011210B909DF011210B95324
:101D5300DF011210B98BDF011210B909E001121073
:101D6300B963E0011210B9BFE1011210B950E201E9
:101D73001210B9AEE2011210B9C8E2011210B9E9AA
:101D8300E2011210B941E3011210B9B2E5011210D8
:101D9300B9D1E5011210B9B0E6011210B9C8E701D3
:101DA3001210B945E8011210B9B2E8011210B91BBB
:101DB300E9011210B9D5E9011210B993EB01121020
:101DC300B994EC011210B919EE011210B9FAEF012E
:101DD3001210B95DF2011210B946D2031210B9D133
:101DE300F4011210B937F5011210B94EF5011210B2
:101DF300B93EF6011210B92AF7011210B997F7018B
:101E03001210B9849B041210B9D09C041210B98D1E
:101E13009D041210B9F19D041210B99FFC02121017
:101E2300B9BAFC021210B9FEFC021210B924FD0269
:101E33001210B94AFD021210B962FD021210B9C59F
:101E4300FD021210B9DAFD021210B9FCFE021210E3
:101E5300B905FF021210B90EFF021210B917FF02E3
:101E63001210B907BF041210B967FF031210B96C3F
:101E7300FF031210B96EFF031210B97CAD041210E8
:101E8300B9FEB9031210B90ABF031210B972C20422
:101E93001210B9A2FF021210B9B2FF021210B9D583
:101EA300FF031210B901C2041210B911C2041210B7
:101EB300B927AD021210B95AAD021210B9C1AD0261
:101EC3001210B94DAE021210B9F2AE021210B93AA5
:101ED300AF021210B95FAF021210B978AF0212103D
:101EE300B99EAF021210B9C0AF021210B9FEAF0211
:101EF3001210B94DB0021210B976B0021210B9D552
:101F0300B0021210B9AEB1021210B964B2021210CB
:101F1300B9C2B2021210B989B3021210B9E0B30206
:101F23001210B94BB4021210B989B4021210B9DFFE
:101F3300B4021210B957B5021210B9AEB50212109D
:101F4300B9B1B5021210B932B6021210B9D1B60244
:101F53001210B94DB7021210B96FB7021210B9D2ED
:101F6300B8021210B9DFB8021210B9E3B9021210A5
:101F7300B9F0B9021210B9F9B9021210B9F4BB02DF
:101F83001210B90EBD021210B982BD021210B9EFC0
:101F9300BD021210B917BE021210B9A9BE02121067
:101FA300B98CC0021210B963C4021210B977C4020B
:101FB3001210B987C4021210B991C4021210B99A4F
:101FC300C4021210B9A3C4021210B9ADC402121094
:101FD300B9DCC4021210B90FC5021210B91AC50236
:101FE3001210B93EC5021210B962C5021210B9BF70
:101FF300C5021210B905C6021210B921C602121089
:10200300B994C6021210B9CBC6021210B90AC7029C
:102013001210B957C7021210B9DDC7021210B9B9AD
:10202300C9021210B943CA021210B928CB02121006
:10203300B99DCD021210B9F0CD021210B918CE021B
:102043001210B942CF021210B96FCF021210B9C1E8
:10205300CF021210B976D0021210B926D102121093
:10206300B95BD1021210B9F1D1021210B975D202C3
:102073001210B9A183011210B9D383011210B9034D
:1020830084011210B9D785011210B9B88601121054
:10209300B91087011210B95388011210B99F880132
:1020A3001210B9D38B011210B9E98E011210B93392
:1020B30090011210B9C990011210B9D590011210F4
:1020C300B91591011210B99F92011210B99393019E
:1020D3001210B9BD93011210B92494011210B97DE5
:1020E30094011210B9F494011210B93B9701121024
:1020F300B9D298011210B9A699011210B9E59A0143
:102103001210B92A9D011210B9FB9F011210B90ACE
:10211300A0011210B98EA0011210B935A10112103D
:10212300B978A1011210B9DEA1011210B9FAA10107
:102133001210B92CA2011210B96BA2011210B950DE
:10214300A3011210B9FFA3011210B983A601121043
:10215300B9C5A7011210B9A4A8011210B924A90185
:102163001210B946AD011210B984AD011210B9DFD6
:10217300AD011210B912AE011210B98EAE011210D8
:10218300B9AAAE011210B945AF011210B993AF014C
:102193001210B966B0011210B92BB1011210B9C9EE
:1021A300B1011210B9D2B4011210B9E6B50112107F
:1021B300B983B9011210B98BBA011210B98EBA01E1
:1021C3001210B9BDBA011210B9BCBC011210B995F5
:1021D300BD011210B9DCBD011210B929BF011210E3
:1021E300B963BF011210B910C0011210B944C00184
:1021F3001210B9F6C0011210B905C3011210B9705B
:10220300C3011210B9B8C3011210B955C401121099
:10221300B984C5011210B94BC6011210B941C801E6
:102223001210B955C8011210B969C8011210B99F2B
:10223300C8011210B9CFC8011210B95DCA0112103A
:10224300B93ECB011210B9AECB011210B95ECC016D
:102253001210B98ECC011210B958CD011210B91554
:10226300CE011210B91ED0011210B95DD0011210A7
:10227300B9CAD0011210B90FD2011210B9C2D201DA
:102283001210B9F6D2011210B90ED3011210B9B15E
:10229300D3011210B99FD6011210B96AD8011210D6
:1022A300B98ED8011210B9ACD8011210B980D90176
:1022B3001210B9A8DD011210B97A2E001210B9ACB0
:1022C3002E001210B9AB32001210B9F732001210FF
:1022D300B93D33001210B9E533001210B94F340081
:1022E3001210B99734001210B9F535001210B9FA6B
:1022F30036001210B9EC3A001210B97D3B001210EF
:10230300B9A53C001210B9023D001210B9D13E002C
:102313001210B9483F001210B9523F001210B95FB2
:102323003F001210B98A3F001210B9714000121019
:10233300B92A41001210B9AD41001210B9C64100CB
:102343001210B9EF41001210B91C42001210B976F5
:1023530044001210B93A45001210B97F450012101B
:10236300B9F645001210B9A446001210B9D64600BA
:102373001210B91C47001210B95847001210B9A91E
:1023830047001210B9FD47001210B9884800121017
:10239300B9D348001210B93849001210B9B1490035
:1023A3001210B9704B001210B97F4C001210B99E75
:1023B3004D001210B9FA50001210B929540012102E
:1023C300B9E254001210B92A55001210B9C95600C7
:1023D3001210B9DD56001210B9E756001210B9F108
:1023E30056001210B9FD56001210B91C57001210F6
:1023F300B9D257001210B92B58001210B935580032
:102403001210B93F58001210B9AF58001210B9F6A4
:1024130058001210B9FB59001210B94A5A00121091
:10242300B9ED5A001210B9C65B001210B9E65C0090
:102433001210B9285E001210B9225F001210B93AC7
:102443005F001210B96E5F001210B98C5F0012109A
:10245300B9EB5F001210B91260001210B9AD600041
:102463001210B96C61001210B9DC61001210B9547A
:1024730062001210B95E63001210B92B64001210CF
:10248300B92565001210B96A65001210B9C5650057
:102493001210B92C66001210B95A66001210B97ED8
:1024A30066001210B9B366001210B9E0660012108C
:1024B300B92667001210B94A67001210B9B3670052
:1024C3001210B99B68001210B9E668001210B90F18
:1024D30069001210B9A769001210B92A6A00121014
:1024E300B9566A001210B94B6B001210B908D70322
:1024F3001210B940D7031210B961D7031210B9A54E
:10250300D7031210B909D8031210B913D803121044
:10251300B923D8031210B95AD8031210B952DC03E5
:102523001210B960DE031210B94DE0031210B9E4C2
:10253300E0031210B986E1031210B90F81021210E1
:10254300B97F81021210B9DF81021210B92A820207
:102553001210B94582021210B96C82021210B989A5
:1025630082021210B99582021210B940840212102D
:10257300B95984021210B9E284021210B9F5840227
:102583001210B91485021210B9AF85021210B91FC7
:1025930087021210B9C688021210B95589021210A7
:1025A300B95889021210B9C889021210B9E6890212
:1025B3001210B98B8A021210B9C78A021210B9CA53
:1025C3008A021210B9908B021210B9F38B02121007
:1025D300B92C8C021210B9A18C021210B9BF8C0253
:1025E3001210B90D8D021210B9E28D021210B9301A
:1025F3008E021210B9788E021210B9058F021210D2
:10260300B93A8F021210B96F8F021210B97D8F027F
:102613001210B9DC8F021210B95490021210B9953E
:1026230090021210B9E590021210B9109102121023
:10263300B92A91021210B94491021210B91F9202E1
:102643001210B92992021210B96492021210B974CD
:1026530092021210B97D92021210B9D59202121091
:10266300B9E992021210B91F94021210B9349402FC
:102673001210B9C294021210B92A95021210B9DDD0
:1026830095021210B9E895021210B935970212108B
:10269300B95197021210B99D97021210B90C980202
:1026A3001210B94598021210B95F98021210B9A11D
:1026B30098021210B9639B021210B9199C021210EE
:1026C300B9A99C021210B9F19E021210B9099F0216
:1026D3001210B90C9F021210B9189F021210B92CD4
:1026E3009F021210B9349F021210B9679F02121091
:1026F300B95AA0021210B9E5A0021210B978A102CA
:102703001210B9F1A1021210B9B5A2021210B9D771
:10271300A2021210B970A3021210B9CDA3021210B3
:10272300B9D0A3021210B94AA4021210B996A50295
:102733001210B9A1A6021210B92CA7021210B931B6
:10274300A8021210B9F1A8021210B922A90212109C
:10275300B948A9021210B951A9021210B97FA902EE
:102763001210B917AA021210B9CCAA021210B93D5D
:10277300AB021210B9E4AB021210B96BAC02121027
:10278300B9AAAC021210B9EDAC021210B9AFD10361
:102793001210B91FD1031210B9F9D0031210B9AE38
:1027A300D0031210B978D0031210B9FBCF03121063
:1027B300B996CF031210B945CF031210B96DCE03EA
:1027C3001210B9DDCD031210B991CD031210B990D7
:1027D300BE041210B97BBE041210B90CCD03121043
:1027E300B9C7CC031210B96BBE041210B9B4C2043A
:1027F3001210B9ABCC031210B9B9CA031210B98BBA
:10280300CA031210B958CA031210B9DCC903121053
:10281300B982FC021210B911FC021210B963FA0258
:102823001210B90CFA021210B94CF9021210B9596C
:10283300F7021210B929F7021210B9DAF6021210D0
:10284300B96CF6021210B92BF6021210B962F50236
:102853001210B9FDF4021210B9A8F4021210B94E05
:10286300F4021210B920F3021210B9BDF2021210D1
:10287300B939F2021210B9F6FF011210B9E67F005E
:102883001210B9F8B2041210B965B2041210B933B8
:10289300B2041210B92EB2041210B92FD6031210BB
:1028A300B955D5031210B98BD4031210B934F202FF
:1028B3001210B928F2021210B96CEF021210B93AD1
:1028C300EF021210B9FAD2031210B9FAEE02121083
:1028D300B9E2EE021210B9D7EE021210B9B3EE024A
:1028E3001210B9C3D2031210B9DEEC021210B97977
:1028F300FB031210B99AEC021210B986EC02121003
:10290300B9C5EC031210B96CEC031210B937EC0320
:102913001210B902EC031210B9CEEB031210B96016
:10292300EB031210B948EB031210B923EB03121097
:10293300B9ECE7031210B9BFE5031210B9C6E303FC
:102943001210B952E3031210B992D2031210B90351
:10295300E3031210B9BDE2031210B95FE2031210D0
:10296300B903F40100000080FB8F00010004198704
:10297300000100021935000400CC1825000200D024
:102983001826000200D21827000200D418280001DC
:1029930000DE1829000100DF1884000400131686E6
:1029A30000010035182A000100E0182B000100E1A6
:1029B300182C000100E5182D0008001F162E000139
:1029C30000E6182F000100E71830000100E8183175
:1029D300000100E918320001002716330001002826
:1029E3001634000100EA18360001002916380001E8
:1029F30000EB1839000100E418830002000019639A
:102A0300000100351664000100E21865000100E3CF
:102A1300186D0001003616710008001716660001D4
:102A230000FF1843000100F01844000200F11845AC
:102A3300000100F31846000200F418470008002DB7
:102A43001648000100F6184B000100F718040001B6
:102A5300000319A1000100071937000100061988B6
:102A630000010005193C0001002A163D000100EC9D
:102A73001849000200F8186700010037164D0002DC
:102A830000FA184E000100FC184F000200FD183E2A
:102A9300000100EF18510001002B1652000100ED58
:102AA3001853000100EE18540001002C160000001A
:102AB300000000000136360101000102010001039C
:102AC30001000104010606050200000701003408A5
:102AD30001000F090401010D0100FF0E080000179A
:102AE300020000190100FF1A0100011B0100FE1C76
:102AF3000100081D0200001F010001200100012147
:102B03000200002301000F24020000260100012718
:102B1300010008280200FF2A0100072B0102402CB4
:102B23000100002D0100012E0100012F0100FF30E3
:102B3300010B1D310800003A0100083B01000F3C66
:102B43000100013D0100FF3E040000420400004675
:102B53000400004A0400004E040000520400005622
:102B63000400005A0400000103710301030103017F
:102B73000301030103220302030103100300030003
:102B830003000300030003000300034203000324C4
:102B93000306030003000304031203250323032591
:102BA300032303040304030003000300034403009B
:102BB300030003230300036503210035038103009E
:102BC300030503000300030003000325032303019C
:102BD3000171010101010111010101310101010132
:102BE300018001100161013B001400630173017254
:102BF30001620143010001130106013D0135000497
:102C0300011201000100010001000104010401336C
:102C13000133013C0144013201360000010001652A
:102C230001000135008101000105018201830100DA
:102C330001030271023001600211027002010202FB
:102C43000202028002100261023A00410063027331
:102C53000272026202430200021302380000020001
:102C63000204021202000200020002000204020433
:102C730002370037003C0244020002390000020020
:102C8300026502000235028102000205028202830C
:102C93000200020300710030016000110070003176
:102CA3000220035004800010006100000014006340
:102CB300007300720062004300000013000600006E
:102CC30000000004001200000000000000000004E7
:102CD300000400370037003C0244000000000000FD
:102CE30000000065000000350081000000050000C1
:102CF300008300000036000100060000000F000002
:102D0300000000000000000000000003FFFF0000BF
:102D13000403FFFF0000FFFF0FF4010005C40403D9
:102D230020000100000B0000000000000000030170
:102D33000F00000000000000000000000000000081
:102D43000000000000000000000000000000000080
:102D53000000000000E91C0100E91C0200711C02D4
:102D6300806B1C0300771C04007D1C0480831C05FE
:102D730000891C0600951C3100A71C3300AD1C34D0
:102D830000B31CFFFF000007ECFDFDFDECDCDCCC19
:102D9300BCACAC9C9C8C7C7C6C6C5C5C5C4C4C3CA0
:102DA3003C2C2C1C1C03EAF5E5D5D5C5B5A595959A
:102DB3008585757565655555454535352525151540
:102DC300050A312302FB220507230701230CE32213
:102DD3000DEF22FF000000160F00000B150B020081
:102DE30002220F3300000E0F5A6967426565416C7A
:102DF3006C69616E63653039D0D1D2D3D4D5D6D75F
:102E0300D8D9DADBDCDDDEDF303016181920231ADF
:102E13001C1E30303017181921301B1D1F300001C4
:102E230019161816161823030000034D4C465118A3
:102E33001A250502003C40423A3F3F392F47300CE8
:102E43000E020B040B0A0708000F02040201010122
:102E5300010902E803000000BE040AE803030001BD
:102E6300000E000409030404101E0A0C041E0828A3
:102E7300020C05081503FF74F7120AF2E990170C08
:102E8300F09016C1E4F01218DB901724E4F0A3F0DD
:102E930090170DF0A3F01224811218E1901645E467
:102EA300F0A3F0121E4B02485874F0120AF274D3C6
:102EB3001211B285188285198312648C548060685C
:102EC30090170CE0F91219538A088B09AE08AF0961
:102ED300EE4F604C7C0080010CEC75F003A4F8A964
:102EE300F074C428F582742D39F583E493F46029D2
:102EF300E493F88E828F83E06870DDEC75F003A4B1
:102F0300F874C528F582742D39F583E493C0E07411
:102F13000193F583D082120C6AEEFAEFFB1219418A
:102F2300126A1F6480023291851882851983A3E097
:102F3300542060211223978A088B09AE08AF09EE4B
:102F43004F600A1222EFEEFAEFFB121941126A1FC9
:102F53006420023291851882851983E0A2E050250E
:102F63009016C6E0640F701179001222C5E960095A
:102F73009018CC1213D71222DD851882851983E0AD
:102F83006401023270542070030232757A207B0090
:102F930090170CE0F9121A97EA4B4C4D701A9017E0
:102FA300201213FBE8494A4B700E7508017509009E
:102FB300750A00750B00806A750C00750D00750E9F
:102FC30000750F00121AA38A088B098C0A8D0B90C7
:102FD30017201213FBE8494A4B60319017207808F9
:102FE300121053400E750CFF750DFF750EFF750F14
:102FF3007F801985080C85090D8C0E8D0F90172085
:10300300780C12116C7401780C121153850C08851D
:103013000D09850E0A850F0BE50812349070030223
:1030230031B07C0079047A007B0012236D8A0C8B0B
:103033000DAE0CAF0D0230F1740212141274FFF0D6
:10304300740312141274FFF0740412141274FF1236
:1030530067AC7407121194125F09125FE11223B572
:10306300E96401706B1250824480F8A3E0F974287C
:10307300121412E8F0A3E91266DBE0C0E0742A122E
:103083001412D0E0124994540860167428121412D2
:10309300A3E044011232A4C0E0742C121412D0E055
:1030A300F012633A60121248371263F2E0F87416B2
:1030B300121412E8F0A3E4F090835F120EE8740692
:1030C300121194740B12118C121FA174041210CEDE
:1030D3008E828F83A3A3A3A3A3A3A3A3A374061284
:1030E30032A4F912234F7405121412126406EE4F20
:1030F30070030231B07C007904EEFAEFFB12236D0A
:103103007405121412EAF0A3EB1256B0E0F50CA307
:10311300E0F50DE4F50EF50F7808790C121347402E
:1031230023EE2404F8E43FF985080C85090D888211
:103133008983C3E0950CF0A3E0950D126B28E84951
:1031430070A4800C8E828F83A3A3A3A3E4F0A3F0C7
:103153008E828F83A3A3A3A3A3A3A3A3A3A3E064A8
:10316300018E828F83A3A3A3A3A3A37023E054049C
:10317300600302303B8E828F83A3A3A3A3A3A3A3E5
:10318300A3A37406F07AB71233D31222D70230E91D
:10319300A3A3A3A3E0600302303B8E828F83A3A388
:1031A300A3A3A3A3A3A3A37401F00230E912233DB5
:1031B3007C0079017A007B0012236D8B0DEA450DAB
:1031C300600C7A207B0090170CE0F912197D7C00CB
:1031D30079047A007B0012236DEA4B7013804D8AC9
:1031E300828B83A3A3A3A31264DAEE98EF99400B17
:1031F3008A828B83A3A3A3A31264067C007904129F
:10320300236D8B0BA90BEA4970D5C3E5089EE5092D
:103213009F500DC3EE9508FEEF9509FFEE4F701614
:103223007A207B0090170CE0F912197D9017201279
:10323300329DA3F0802EEE2EFEEF33FF8E088F0912
:10324300E4F50AF50B78081211047A207B00901735
:103253000CE0F9121A8574041210CE121AA39017F7
:10326300201213CB851882851983E06420FAA3E02A
:10327300801CA3E054046019125BA91228CB7901C6
:103283009016BF125FE1121FB3126A1F6404FB8022
:10329300047A007B00742D02630FE4F0A3F0A3F023
:1032A30022124999A3A3E022C082C08374EA1211B7
:1032B300B27C167D007900AA18AB1912192974087B
:1032C3001214127402F09016B5125E091232EB74E6
:1032D30009121412125E227413121412E4125AE722
:1032E300121E3F7416024C5DE8F0A3E9F09016BF7E
:1032F3001263582274F7120AF274DA1211B2EAFE58
:10330300EBFFEE4F602DAC18AD191223B574061206
:103313001412E0601E7417121412E0FD74011214EB
:1033230012E0FCEEFAEFFB790012229BE9600479CC
:10333300A480027900742602485574F7120AF2EA4F
:10334300FEEBFF8E828F83A3A3A3A3A3A3E054402A
:10335300601712631C125FE112244BE960067AFFC7
:103363007BFF801512631C80039016B5125FE17416
:10337300FE6A700374FF6B604712631C12648C1245
:10338300244BE98E828F83600E126AB7124C6A381F
:10339300F583E4F0A38003126ADCF07CCB7D228EFC
:1033A300828F83125FE1121E45E9F5087015EE4F17
:1033B30060097901EEFAEFFB122349A90802485884
:1033C3007508CDAA081233D31222D7E960E080EB47
:1033D3008E828F83126ABB240CF582E438F583E076
:1033E300F92274F6120AF2E9FEEAFF7A0F7B001261
:1033F300193BEA4B601F8A828B83740CF0EEA3A304
:10340300F0EF8A828B831245ED90170CE0F91219C5
:103413004779008034EEF91223738A088B09A808D0
:10342300A909E849602188828983A3A3A3A3A3A34D
:10343300A3A3A374061264EDA3A3A3A3A3E0F912A9
:103443002043EEF912234F79100258AA74F4120A9A
:10345300F28A088B098C0A8D0B9016C6E0640F70F4
:103463002812348F60239016C1E064086005E0647D
:1034730004701678081211047A017B0090170CE08F
:10348300F9121A8574041210CE0236F5EA4509457D
:103493000A450B2274F4120AF274FC1211B2EAFE0A
:1034A300EBFF8E828F83A3A3E0F91223738A088B29
:1034B30009EA450970030235D68E828F83A3A88259
:1034C300A983E0C0E0EA125A99D0E012445864F1AB
:1034D30060288E828F83A3E064CD601E8E828F83EB
:1034E300A3E0641A60148E828F83A3E064E9600A08
:1034F3008E828F83A3E064E170307900122349E95F
:103503006028E5082404F50AE43509F50B850882EB
:103513008509831235E712443E125FE11218ED85E7
:103523000A82850B8312648C80788E828F83A3E05A
:10353300C0E07402121412D0E0124C70126B16EE3B
:10354300240B124B5CC0E07403121412D0E0F0E5BC
:103553000812679E123B61E0AA18AB197005121F8F
:103563009B80031224337402121412E064E9703254
:10357300850882850983123CFA750A01780A1211BB
:1035830010750AE9780A121110124422124865A331
:10359300A3A3A3A312485D125FE11223EB740212EB
:1035A30010CE850882850983A3A3A3A3A3A3A3A302
:1035B300A3E064027012850882850983A3A3A3A3F1
:1035C300A3A3A3A3A37406F08E828F83A3A3E0F91E
:1035D30012234F12233D9018D2123AC51222DD74E2
:1035E300040236F2A3A3A3A3A3A3125EF68E828FD3
:1035F300832274F4120AF2EAFEEBFF7508008E824E
:103603008F83A3A3A3A3A3E0603B750808125FD431
:1036130079FF12211B8B0BEA450B601075082C8E6A
:10362300828F83A3A3A3A3A3E0D2E0F08E828F8330
:10363300A3A3A3A3A3E05403640160030236EC43F2
:1036430008110236ECEE2418124B5C6036EE241A95
:10365300124B5C6003F470121264927003A3E0696E
:1036630060030236EC750822807FEE241B125EECA9
:10367300EE241A124B5CFAEE2419124B5CF9122059
:10368300318066125FD412244BE96402700375081B
:10369300011264927003A3E0697006E508D2E1F5B4
:1036A30008E50860158E828F83A3A3E07006E50802
:1036B300D2E58004E508D2E6F508125FD412244B64
:1036C300E964017006E508D2E0F5088E828F83A3D2
:1036D300A3E06015EE241D12539CF9122439E9640A
:1036E300016006E508C2E0F508A90880057409121F
:1036F30010CE7F04020DEA74F0120AF274D712118D
:10370300B2EAFEEBFF8E828F83A3A3A3A3E0601133
:103713009018D012634360099018D0123AC5122250
:10372300DD74031211948E828F83A3A3A3125CBB57
:10373300125FDF1223B5E970030238907801740534
:10374300121412E0C3940240027800740712141298
:10375300E0C3940240027800740C121412E064F87F
:103763007003A3E0F47003023890740C121412E097
:1037730064F97003A3E0F47003023890740C12141C
:1037830012E064FA7003A3E0F47003023890740C3F
:10379300121412E064FB7003A3E0F4700302389088
:1037A3007406121412E0F99016AFE0696003023850
:1037B30090E8A2E040030238907427121412E060EC
:1037C30003023890EE241312634E74221214121261
:1037D3005CC5241C12634E7410121412125E227400
:1037E30009121412E0601D741A121412E0FD74041D
:1037F300121412E0FC8E828F83125FDF7901122292
:103803009BE9703D740312118C1222E9E9F50C74E3
:1038130009121412E0702E9016A9E0602874225544
:103823000C642260207442550C644270147420129C
:103833001412123AD1600E7420121412123ABE609E
:10384300047ACF804AE9A2E6504D74201214121272
:1038530053A224FD600F14600C24FD600824FD6056
:103863000424FE70287420121412123AB7700E74D6
:10387300201214121259F6A3E0640D601A74031295
:10388300118C122463E96401700D023AB27AD37B7E
:1038930000121C47023AB2EE242DF582E43FF58371
:1038A300123CF17003A3E0697022750800780812D6
:1038B30011107808121110EE242F124B5CF9123AF2
:1038C300D7125FE11223EB74021210CE74091214A3
:1038D30012E07003023974123AD7125FE11224B175
:1038E3008A0E8B0FEA450F7003023A0B740412140D
:1038F30012E0F88E828F83A3A3E028F8A3E03400BC
:10390300F9E8124C6A39F583E0F88A828B83A3A322
:10391300A3E068600EE88A828B83A3A3A31245E623
:1039230012329E7904E91214121250A3A3E02AF86A
:10393300A3E034008882F583A3AA82AB8312192FF4
:103943008A088B098C0A8D0B850E82850F83A3A3AE
:10395300A3A378081210534003023AB29083277846
:10396300081212B8850E82850F83126B12A3124DB3
:10397300969016C1E064046008E064096003023AAB
:10398300B2E50CA2E54003023A45EE242F12507330
:10399300F0EE2430124B5CC0E07401121412D0E03C
:1039A300F0EE2431124B5CC0E07402121412D0E02A
:1039B300F07414121412E06401702C740E121412B9
:1039C30012444F2413124B5C687003A3E069701711
:1039D300740C121412125FE112244BE96402700793
:1039E3007414121412E4F0EE2425F582E43FF583F7
:1039F300120EE87404121194740712118C121FA191
:103A030074041210CE023AB2901706E06401600308
:103A13000239747420121412123AD17009E50CA2FF
:103A2300E650030239747410121412E0F47003A305
:103A3300E0F4607BEEFCEFFD740312118C1222F5AF
:103A4300806DA2E650697420121412125F0370167F
:103A5300741A121412E064027055740312118C79F3
:103A63000012242D80497420121412123ABE7014CD
:103A7300741A121412E064047035740312118C1258
:103A83002421802B7420121412123AB7700C79007F
:103A9300740312118C12246F8015742012141212E5
:103AA30059F6E0640C7008740312118C12247B74B1
:103AB3002902630F126326E0640322126326E06483
:103AC3000722E0F508A3E0AA08FBE4FCFD22125359
:103AD300A6640622EE242BF582E43F123AE5124B4C
:103AE3005522F583125EF6EE2274F4120AF2EAFE10
:103AF300EBFF8C088D09901627E0600F126492701B
:103B030003A3E069700512201F80497900125FD476
:103B130012204F8A828B83E5824583602FA3A3A360
:103B2300A3A3A3E054186024E508241C123B5E12EF
:103B33000EEC123B5A120EECEE2418124B5CF912E7
:103B43003B6612206174041210CE80087900123B88
:103B5300661220250236F5E5082413F582E43509BB
:103B6300F583228E828F83A3A3A3A3A3A3A3A3A3DB
:103B7300123AE7125E00125FE52274F7120AF2743A
:103B8300F71211B2EAFEEBFF9016C1E06403600D79
:103B9300E064016008E064096003023C988E828F50
:103BA30083A3E06003023C5B7C007D007A027B0020
:103BB3001218E7123C9D8A828B831263549016B2CB
:103BC300125E227953121E2D9016C1E0640960091A
:103BD3009016BF125FE11224AB8518828519837496
:103BE30001125AE77942121E2D9016C17404F07423
:103BF3000112118C794A121E2774011211947AB79B
:103C03007B16121ABB90153BE0640B70057406F02B
:103C1300800B79009016BF125FE1121FB39016B2AA
:103C2300125EF27A037B001218E79016B5125EF269
:103C33007A047B001218E79016ACE0A2E35004D29A
:103C4300F08002C2F0125ADD7952121E2D9018CC68
:103C53001213D71222DD803AFC7D007A037B101207
:103C630018E790153BE0640B7003740AF090162B71
:103C7300E4F0FA7B4090170CE0F9121A918E828FD0
:103C830083A3E0F99016BF125FE1121FB39016C130
:103C9300E4F012231F7409024855EE2402FAE43FAC
:103CA300FB22C082C083901645126343701790169F
:103CB300C1E024FB6005146007800A90164B802046
:103CC30090164D801BE8496008901646123EC97055
:103CD3000C8A828B83A3E0F9121FA7800E90173BF7
:103CE30012634360061259F7120C6A0255231263DA
:103CF300589016BFE06822126358E8FAE9FB227471
:103D0300F5120AF274D81211B28A088B098A828BCF
:103D130083A3A3A3A3A3A3A3A3E0C3940F5003026A
:103D23003EC48A828B83A3A3A31264067415121163
:103D3300948A828B83A3A3A3A3A3A3A3A3E0F98A57
:103D4300828B83125FD812232B7415121412E07026
:103D53002E850882850983A3A3A3A3A3A3A3A3E01A
:103D6300C3940B401A8E828F83A3A3A3A3A3A3A3FD
:103D7300A3E064027009EE240B124B5CF4600302AF
:103D83003EC47417121412E0600764026003023E1B
:103D9300C49016C1E06402601AE0640660159016D0
:103DA300451263437003023EC4123EC96003023EE0
:103DB300C48032901645126343702A750800780850
:103DC3001211107808121110EE2410F582E43FF559
:103DD30083125CBCA3A3A31235E7125FE11223EBAA
:103DE30074021210CE8E828F83125E09E8F0A3E96B
:103DF3001244611263547402121412125CC51250FD
:103E030083C0E07404121412D0E0F0EE240B1264A9
:103E1300DF740F78081213857405121412E508F085
:103E23007419121412E0C0E07406121412D0E0F0F8
:103E3300741B121412E0C0E07407121412D0E0F0E5
:103E43007416121412E0C0E07409121412D0E0F0D8
:103E53007417121412E0C0E07408121412D0E0F0C8
:103E6300EE2410124B5CC0E0740A121412D0E0F07E
:103E7300741A121412E0C0E0740B121412D0E0F0A2
:103E83007427121412E0C0E0740C121412D0E0F084
:103E9300741C121412A982AA8389088A09750A005C
:103EA30078081211087C087D007410121412AA827B
:103EB300AB8312191D74031210CEAA18AB19121F6B
:103EC300AD74280249A9E0C8125EE264012274F2CB
:103ED300120AF274F81211B28A0A8B0B8C0C8D0D34
:103EE3008908908290AC18AD197408121032C20080
:103EF300AC0AAD0BAA18AB19121AB5E97002D200BD
:103F030090170D8014AC0AAD0BEE240BFAE43FFBC3
:103F1300121AB5E9701B124B421247A1601EA20090
:103F230040E38E828F83E0650C7004A3E0650D701F
:103F3300E58E828F83A3A3E0650870DAEEFAEFFBC8
:103F4300740802446EC082C08390170D025520C0CE
:103F530082C08390170DE4F0A30241C274F7120AE2
:103F6300F290170D126A25800FEA2414F582E412E9
:103F730064031219D7EEFAEFFBEA4B70EC90170DBE
:103F8300E4F0A3F002485874F2120AF28A0C8B0D83
:103F9300ECFEEDFF890B8A828B83125AA4F0A3A84F
:103FA30082A9838A828B831240531245E1A3E0C422
:103FB30054F0FA88828983E04A1250C7850C828BB9
:103FC30083A3A3124053124066E0333354FC1240E0
:103FD3005AE033333354F812405AA3E0A2E0E433F7
:103FE3001313FA88828983E04AF0EE2403FE50011A
:103FF3000FE50C2407F508E4350DF509750A00787B
:10400300081211087C087D00EEFAEFFB12191D74EB
:10401300031210CEEE2408FE50010FE50C240FF519
:1040230008E4350DF50978081211087C037D00EECC
:10403300FAEFFB12191D74031210CEE50BC3940F94
:10404300400BE50C124C64350D12566FF0024471AF
:10405300A3E08882898322FA88828983E04A124016
:1040630066A322F0850C828B83A3A3A3A32274F2FD
:10407300120AF2EAFEEBFF8C0C8D0D8E828F83E029
:104083008C828D831256A5A882A983E0540F8C825B
:104093008D83124457C41254C61250BD1254CE120B
:1040A3004455A2E2E4338C828D83124454131313D8
:1040B300541F1254C6124454A2E7E4338C828D83F6
:1040C300A3A3A3A3A3A3F0EE2403FE50010F8E0822
:1040D3008F09750A0078081211087C087D00E50C29
:1040E3002407FAE4350DFB12191D74031210CEEEEA
:1040F3002408FE50010F8E088F0978081211087CDE
:10410300037D00E50C240FFAE4350DFB12191D7431
:10411300031210CE8E828F83A3A3A3E0C0E0126BA1
:1041230030D0E0F002447174F6120AF2EAFEEBFFBB
:104133008E828F83A3858208858309E0F9121FCBC2
:10414300850882850983E064EB601E8E828F83A3DA
:10415300E064E160148E828F83A3E064F1600A8ED1
:10416300828F83A3E0641A70078E828F83A3E4F0A7
:104173009018CC1213D71222DD750801780812119A
:10418300108E828F83A3E0F508780812111079004E
:104193009016BF125EF29016B5125FE11223EB7414
:1041A300021210CE12233D0258AAC082C083E990A6
:1041B300171F7003E4800274018004EAF0A3EBF09C
:1041C30002552374F6120AF290171FE0701B7C004D
:1041D30079017A007B0012236DEA4B600C8A828B93
:1041E3008312634360031222D10258AAC082C083A0
:1041F3007904122367E9F8902E75E493C39840106D
:1042030079FF122367E9F8902E74E493C39850045E
:1042130079018002790002552374F2120AF28A0AA4
:104223008B0B8909C2008A828B83A3A3A3A3A3A3B5
:10423300A3A3E0F91223738A0C8B0DAE0CAF0D759B
:104243000801EE4F6003024305850A82850B83A3B1
:10425300A3A3A3A3A3125EF2850A82850B83A3A360
:10426300A3A3A3A3A312443E125FE112235B8A0C10
:104273008B0DAE0CAF0DEE4F700302441B8E828F7D
:1042830083A3A3A3A3E4F0A3F0E50A240CFAE43583
:104293000BFB8A828B83E0C0E0124422D0E0F0E57E
:1042A3000A240D124448240D125E1C122451EE24DC
:1042B3000F126486E50A24111244482411125E1C6D
:1042C300E50A24131264D1C0E0124B50D0E0F0D2BF
:1042D30000EE240612506A12443512445854046006
:1042E300030243739018DEE0F50A750B0074077838
:1042F3000A1212928E828F83A3A3A3A3A3A31244B1
:104303002CF08E828F83A3A3A3A3A3A3E0F50AA318
:10431300E0F50B7407780A121385E50A5407FCE5E8
:1043230009605C8E828F83A3A3A3A3A3A3A3A3A3E8
:1043330074021256AA124715600B9016AD1250F074
:10434300A3A3125E22EC70030243E6EE2406126A74
:1043530099124435F0EC24FFF50AE434FFF50B74AD
:1043630007780A1212928A828B8312442CF080738C
:104373008E828F83A3A3A3A3A3A3E044808082ECB4
:104383007005750800805C8E828F83A3A3A3A3A30B
:10439300A3E05420600C121935EA547F7900245F9E
:1043A30080198E828F83A3A3A3A3A3A3E0541060D9
:1043B3001A121935EA540F7900240A5001098E8222
:1043C3008F83A3A3A3A3F0A3E9800D8E828F83A37E
:1043D300A3A3A37401F0A3E41244617404124699E5
:1043E30012197DA20050348E828F831235E9A3A364
:1043F300A3A3A3A3A3A3A3E0F9EEFAEFFB12236104
:10440300E9601812633A6009124837125FE1121922
:10441300D7EEFAEFFB1219D7750800A908804FEE03
:10442300240CF582E43FF58322E0450AF0A3E0453E
:104433000B22E0547FF0A3E054FC22A3E0F9850AA9
:1044430082850B8322F582E4350BF583126358EEE4
:1044530022A3A3A3A312445C221264F8E022124411
:10446300652212499DA3A3A32274031210CE7F06D3
:10447300020DEA74F4120AF274F71211B27E0012FA
:104483002373EA4B70030245358A828B83A3A3A36C
:10449300A3A3A3A3A3A3E0640660030245358A8212
:1044A3008B83A3A3A3A3A3A3A3E0FF8A828B83127B
:1044B3006AC1E0C0E07408121412D0E012487B1203
:1044C3005E0E125E22122385EF5408606385188204
:1044D300851983125EF27A007B001223558B0BEA57
:1044E300450B704C126B3C121E577C007D007A000A
:1044F3007B0080288E828F831253A2F47003A3E083
:10450300F4602D9016BF1235ED125FE1121E51E9D2
:10451300641A601C7C007D00EEFAEFFB1223558ABF
:104523000A8B0BAE0AAF0BEE4F70C97900121E5DFA
:104533007E01EEF90236F0C082C0838A828B83E566
:10454300824583700990172480068A828B83A3A3F4
:1045530012474960208A828B83A3A3A3A3A3A3A3A7
:10456300E0540860E5EC4D601012474F7003A3E080
:104573006D70D780047A007B0002552374F2120A0F
:10458300F28A088B09890AECFEEDFF7A147B00128C
:1045930019D1EA4B603B8A828B83A3A3A3A3A3A372
:1045A300A3A3A3E4124870A3E50A1264B3A3A3A3CD
:1045B300EEF0A3EF1245E61248821245ED8A828B94
:1045C30083126B16EA240F1245D71245E0A3F0A31A
:1045D300F0024471F582E43BF583E4F022A3126A0E
:1045E300F9A3221264C3E4F0A322A3F01263FC1222
:1045F30045DA2274F5120AF2EAFEEBFF890A8C0807
:104603008D09EE4F70030246947401650A701279A6
:1046130001122367E9F8902E76E493C39850228021
:10462300167404650A70147904122367E9F8902E4E
:1046330075E493C398500A791180587402650A701F
:10464300508E828F83A3A3A3A3A3A3A3A3A3E50A4B
:104653001256AA126B128E828F83A3A3E4F0A3F0E7
:10466300901724126343601880031263548882896D
:1046730083A3A312474988828983A3A370EC800391
:10468300901724EEF0A3EF12469912197D7900805A
:104693000279C10249ACF07A207B0090170CE0F953
:1046A30022C082C083E9F87900901724801D8A8292
:1046B3008B83A3A3A3A3A3A3A3A3A3E0686005740D
:1046C300FF687001098A828B83A3A312474970DEB6
:1046D30002552374F7120AF2EA4B700590172480EF
:1046E300068A828B83A3A3124749601F8A828B8326
:1046F300A3A3A3A3A3A3A3A3A3E06970E4EC600F04
:104703008A828B8312471570D880047A007B00025B
:104713004858126AE5E0540422C082C083901724EB
:1047230080068A828B83A3A312474960128A828BF5
:1047330083A3A3A3A3A3A3A3A3E06970E580047A3F
:10474300007B00025523125FE5EA4B228A828B83AA
:104753001253A66C2274F2120AF28A0A8B0B8C0C87
:104763008D0D750800750900EA450B602A90172422
:1047730080068E828F83A3A31247A1601AAC0CAD6F
:104783000DEEFAEFFB850A82850B83120C6AE9644E
:104793000170DF8E088F09AA08AB09024471E0FE9D
:1047A300A3E0FFEE4F2274F7120AF290172412636C
:1047B300547C007D00800DE8FCE9FD88828983A399
:1047C300A3126354E8496030EA687002EB6970E74A
:1047D300901724125FE1E86A7002E96B888289838B
:1047E300A3A3700812635490172480091263548C96
:1047F300828D83A3A3125E22805B74F7120AF2EA0E
:10480300FEEBFFEE4F602B12237F124845125FE150
:104813001219D78E828F83125FE11219D712633A6E
:104823006009124837125FE11219D7EEFAEFFB1253
:1048330019D78021EE12483C22240FF582E43FF57C
:1048430083228E828F83E0F8A3E0C8125F1C38F5C1
:1048530083221210CE7F01020DEA125EF68A828B4A
:104863008322E0F98A828B83A3A3A3A32212487431
:10487300221264C7A3A3A322126AF91253A6221217
:104883004874A3A32274F6120AF290172412640642
:1048930080308E828F83A3A31264E5124845125F92
:1048A300E11219D78E828F83125FE11219D7124852
:1048B30037125FE11219D7EEFAEFFB1219D7AE08E0
:1048C300AF09EE4F70CC901724E4F0A3F00258AA7E
:1048D300C082C083EAFCEBFDEC4D6017EC24FBF5D2
:1048E30082ED34FF126341700712492DE0F4600733
:1048F3001219417905803090170CE0C0E012492D60
:10490300D0E0F0902E6DE493F97A267B1712197795
:10491300E9640170107A007B2090170CE0F91219FA
:104923007D790080027904025523EC24FFF582EDA2
:1049330034FFF5832274F4120AF2A2AFE433F508CC
:10494300C2AF9017261247A1603AEE24FBF582EF1F
:1049530034FF1263417A007B2090170C6007E0F963
:1049630012197D8005E0F9121983E4F50AF50B7835
:104973000A12110CEEFCEFFD7A267B1712197174E3
:10498300021210CEE508A2E092AFEEFAEFFB023678
:10499300F5124999E02212499D22F08E828F83A35A
:1049A300A3A3A3A3A3221210CE7F03020DEA74F2E2
:1049B300120AF274FA1211B2EAFEEBFF7508FE75E1
:1049C30009FF122343E960057911024B3D124B594C
:1049D300603B9018F7E0C43354E0F8E0333354FC01
:1049E30048C0E01261D2D0E01264FEFAA3E0FB7982
:1049F300FF12211B8B0BEA450B60127508FFEE2497
:104A03000F124B5C4404F0124B59D2E0F08E828FAC
:104A130083125FDF12244BE96006EE241212651540
:104A2300EE2413124B5C700D902E6CE493C0E012D5
:104A33004B50D0E0F08E828F83E0A2E75004540302
:104A43008019EE2414124B5C701290169EE0C0E0A5
:104A5300124B42D0E0F090169EE004F0EE241112C7
:104A63004B5C640170169018E2E0600D9016A9E0AB
:104A7300700A8E828F83E070031265128E828F8399
:104A8300E064017013EE240B12539C64027009EE70
:104A9300240F124B5C4440F0AC18AD19EEFAEFFB57
:104AA3001223AF8A0A8B0B74FE6508700374FFF43C
:104AB30070098E828F83A3A31264E5EA450B6076A7
:104AC3008E828F83E0C0E07401121412D0E0F07480
:104AD30004121412EEF0A3EFF0EE241E12634E74D0
:104AE30002121412125E227401121184880C890DB1
:104AF300780C12110CEE2420124B64121110124880
:104B030037120EECEE240E124B641211109016B2F3
:104B1300120EEC7408121412E0F9AC08AD0912235A
:104B2300A974081210CEE9FE74106E700BAA0AABBA
:104B33000B1219D780027E10EEF9740602446E122E
:104B43004B4622EE2414F582E43FF58322EE124B0A
:104B53005522125AD422EE2415F582E43FF583E060
:104B630022F582E43FF583E0F50C780C22C082C085
:104B73008374D71211B29080BA74031211947426FD
:104B83001210328A828B83A3A3A3A3126354740EDD
:104B9300121412126AF1A3A3126354740C121412A6
:104BA300124C78124C6A1257CDC0E0741A121412C8
:104BB300D0E0F012624F1263527420121412124C9E
:104BC30078125A931257CDC0E07408121412D0E031
:104BD300F0EA241CF582E43B12635274121214129D
:104BE300124C782411F582E41257CDC0E0740912F7
:104BF3001412D0E0F0124C631257CDC0E0740712C8
:104C03001412D0E0F0EA241EF582E43B12635274DE
:104C130024121412124C782420F582E41257CDC0CA
:104C2300E07426121412D0E0124C7074FFF0740179
:104C330012141274FFF0740212141274FFF09083B2
:104C43005F120EE87404121194740712118C121F70
:104C5300A174041210CE790074291210CE025523C8
:104C6300EA2412F582E422240DF582E422F0851869
:104C73008285198322E8F0A3E9F0EA2274F4120A88
:104C8300F274EC1211B28A0A8B0B8C088D09E9FFBE
:104C93007E107A217B001219D1851882851983EA47
:104CA300F0A3EB126349E8497003024D8D7C217D2B
:104CB300007900851882851983E0FA121929901664
:104CC300BF125FE1851882851983126AB72409F53B
:104CD30082E43812648A7420121412126354741119
:104CE3001214121254191262FC38F583740212540E
:104CF3001D126AC87402125406E508F0A3E50912EE
:104D0300541D126AA6EFF074221214121253BAF948
:104D1300A3E0C912679E39F583E81250B8A3E0C92E
:104D2300125F1C39124D947423121412125FE17432
:104D33000612141212648C7408121412E8F074260A
:104D4300121412126320C082C083740C121412ACAA
:104D530082AD83D083D0827405121032742512146D
:104D630012E0C0E07413121412D0E0F07900AA1814
:104D7300AB19122349E9640170047E00800C851885
:104D830082851983125FE11219D7EEF97414023682
:104D9300F2F583E50AF0A3E50BF02274F0120AF2B0
:104DA30074FF1211B2EAFEEBFF8C088D098E828F1D
:104DB30083A37408F0EE2416124B5C60088E828F76
:104DC30083A37410F0EE2417124B5C60098E828F5C
:104DD30083A3E02408F0124B5960088E828F83A3CB
:104DE300E004F08E828F83A3A3A3A3A3A3E060199F
:104DF3008E828F83A3A3A3A3A3A3A3E0C33324021D
:104E0300F88E828F83A3E028F0EE24111250736092
:104E130004740E8001E4F09018EFE0640170168EC4
:104E2300828F83E06401600D90162BE060071250BF
:104E33006074018004125060E41250B88E828F8334
:104E4300A3E012508128298C828D83F0EE24111265
:104E53004B5C60139016AAE0F91222A1E9F88508C9
:104E630082850983E029F0850882850983E0C3945C
:104E7300754009750C00750D00025057E0FA7B0070
:104E83001219D18A0C8B0DEA450D70030250578E0F
:104E9300828F83E0FA9016AF1250B1740278081231
:104EA3001292EA4508FAAB09EE24121250AB7406CB
:104EB3007808121292A808EA48FCEBFD124B5960DD
:104EC30004780180027800EE2416FAE43FFBE4C87C
:104ED300F9ED49FDEE2411124B5CF50888097409BC
:104EE3007808121292ED4509FD8A828B831250B124
:104EF300740B7808121292ED4509FDEE2417125037
:104F0300AB740C7808121292ED4509FD8E828F83E3
:104F1300A3A3A3A3A3A31250B1740A7808121292F5
:104F2300ED4509FDEE24231250AB740D78081212DF
:104F330092ECF8ED4509F9E8850C82850D83F0E9DB
:104F43001250BD850C82850D831250E0F0EE2404CF
:104F530012506A1250951250E0A3A3125ACA12506B
:104F630095A3A3A3A3126B0C850C82850D83A3A326
:104F7300A3A3A3A3A3F0750B088A828B83E0601518
:104F8300EE2418125EECE50C2408FAE4350DFB124E
:104F93001ABB750B10EE2417124B5C6019EE241A22
:104FA300125EECA80BE50C28FAE4350DFB121ABBD4
:104FB3007408250BF50B8E828F83A3A3A3A3A3A34E
:104FC300E06055EE2407F50EE43FF50F850E82F5FC
:104FD30083E0C0E0125088D0E01250D0E0C0E00877
:104FE30012508AD0E01250D0A312632D12110885FB
:104FF3000E82850F83E012536CA80BE50C28FAE4AC
:10500300350DFB12191D74031210CE850E82850F08
:1050130083E0C333250BF50B124B596008C0E01234
:105023005088D0E0F0125DFB12632D12110812506C
:1050330082FC7D0074031214121250A3E0F8E50CF5
:1050430028F8E4350DF9E82AFAE439FB12191D743E
:10505300031210CEAA0CAB0D740102630FEE2423CE
:10506300F582E43FF58322F8E43FF98882898322BD
:10507300F582E43FF583E085188285198322F8EEF3
:1050830012698EE022A80BE50C28F582E4350DF5B4
:10509300832212509922E0850C82850D83A3A322DB
:1050A300E0FA8E828F83A322F582E43FF583E0F555
:1050B3000875090022126AFFF922A31250C78882D9
:1050C3008983E022F0EE2402F8E43FF922F0050B95
:1050D3008E828F83A3A3A3A3A3A3A3A322A3A31219
:1050E30064F8A3125099A32274030236F212635890
:1050F3008E828F83A3A32274F0120AF274FD12111D
:10510300B285188285198312648C7402121412E911
:10511300F08C0C8D0D750B017C267D007900AA0C9B
:10512300AB0D1219297402121412E0C39408500330
:105133000252F6E0850C82850D83F0AC0CAD0D8533
:1051430018828519831253A2FA851882851983124E
:1051530059F61256991223BBE96003750B008518A3
:10516300828519831263201253C4E0F9EA850C8205
:10517300850D83A3A3A3A3A3A3A3A3A3F0A3E912CE
:105183005406A3A31253C4A3A3E0F9EAF8E50C124F
:1051930062FC126B37125419125EDEC0E0E50C2478
:1051A30011126B34D0E012541D2407F582E438F554
:1051B30083E0C0E0126B30D0E01253F07408125356
:1051C300FDA3E06020851882851983E02408F8A3F5
:1051D300E03400F9E50C2413126B34E8F0A3E91270
:1051E30062F72408F0850C82850D83A3A3A3A3A3F0
:1051F300A3A3A3E0602A850C82850D83A385820E79
:1052030085830F1253B1F8A3E03400F9E50C125A69
:1052130093350D125E20850E82850F83E02408F0FE
:10522300125373E4F0125383E4F0A31253F0A3A3D5
:10523300A3A3E060111253D5850C82850D83A3A32C
:10524300A3A3A312540EE50C125394E0700302526D
:10525300E21253D5FA125373EA12540EF8851882E8
:10526300851983E028FBA3E034008B82F583E0F803
:10527300E50C241A126B34E812540EE8C39AE50CB9
:10528300505812538FF8902E6EE493C39850047EB7
:105293000C8006E50C12538FFE850C82850D83125C
:1052A30053B0F508A3E03400F509750A0078081235
:1052B3001108EE12536C7A297B0C12191D74031218
:1052C30010CE1253837429F0A3740CF0EEC333F899
:1052D300850E82850F83E0288004125394E4F085C1
:1052E3000C82850D83A3E0F8850C82850D83E0C3D2
:1052F3009850047900806F1253B0FAA3E03400FB96
:10530300E50C12650C350D12648A850C82850D83BC
:10531300E0C398C0E0E50C2417126B34D0E01253BD
:10532300FDE06040E50C2417FEE4350DFF8E828F0F
:1053330083E024F2F0E50C241DF8E4350DF98882AE
:105343008983E0240EFAA3E03400FB888289831268
:10535300648C9016AAE0F91222A1E9F88E828F8359
:10536300E0C398F0A90B02630D25E0FCE433FD22B2
:10537300E50C125379222419F582E4350DF58322C5
:10538300E50C241BF582E4350DF58322125379E0F5
:10539300221262F1350DF58322F582E43FF5831283
:1053A30053A622E0F8A3E0F5838882E022A31253F8
:1053B300B5221253BA2822E0F8851882851983E0B2
:1053C30022A3A3E0FA851882851983126326A3A377
:1053D300A322850C82850D83A385820E85830F12FC
:1053E30053B5FAA3E034008A82F583E0221253F422
:1053F30022F0850C82850D83A3221253F4A3A3A369
:10540300A3A322125422F583888222F0850E82857B
:105413000F83E004F022E8F0A3E9125422C8221219
:105423006B03F8A3E02274F4120AF28A088B09EAE8
:105433001254CEA3A3F0EA1313543F1254C6A3A3EA
:10544300F0EAC413131254CE1254D87409780A1212
:1054530013851254BDA3A3A3A3A3A3F0EB1254BFBC
:105463001254D7740A780A121385E50A5401C0E06E
:10547300EC1262F13DF583D0E01254DC740B780A30
:105483001213851254BD1254D5740C780A12138565
:105493001254BDA31254D5740D780A121385E50A6C
:1054A3005401C0E0EC2424F582E43DF583D0E0F020
:1054B300740E78081213850236ECE50A54018C82C7
:1054C3008D8322540F8C828D83A32254038C828D6F
:1054D3008322A3A3A3A3A3A3A3F08A0A8B0B22C0B3
:1054E30082C08379008A828B83A3A3A3A3A3A3E0AF
:1054F3009016A9600EE070238A828B83A3A3E070C9
:105503001A8016E060158A828B83125FD89016B2D8
:10551300E06A7003A3E06B600279018003125FE12C
:10552300D083D0820210B674F2120AF28A0A8B0B6D
:10553300890CECFEEDFF8A828B831256971223BBF4
:10554300850A82850B83A3A312568BE0F9EA8E8228
:105553008F83A3A3A3A3A3A3A3A3A31256B61256F5
:105563008BA3A3E0F9EAF8125DFBE81256B6A3A3F6
:10557300E0C0E0EE2411F582E43FF583D0E012565B
:10558300BDA3A3A3E0C0E0EE124C643FF583D0E0DB
:105593001256A574081256B0A3A3A3E06016E50A39
:1055A3002408F8E4350BF9EE2413125AAA1256A56F
:1055B300E02408F08E828F83A3A3A3A3A3A3A3A3B2
:1055C300E060148E828F83A312567AEE2415125A4A
:1055D300AA125CDD2408F08E828F83A3A3A3A3A366
:1055E300E0601F8E828F83A3858208858309E0F89C
:1055F300E50A28F582E4350B12566FA3A3125CDD8E
:1056030004F0EEFAEFFB1223C1E9F50D70598E8217
:105613008F83A3A3A3125AA1A37014E0F8E50A2869
:10562300FAE4350BFBEE241D126486E50C80281288
:10563300567AE8240EF8500109EE241D125E1C90E0
:1056430016AAE0F91222A1E9F8850882850983E008
:10565300F9E50CC39924F2C398C0E0EE2417F58250
:10566300E43FF583D0E0F0A90D024471F583E08EA9
:10567300828F83A3A3A322858208858309E0F8E5AB
:105683000A28F8E4350BF922E0FA850A82850B83B0
:10569300A3A3A322E0FAA3E0F8E4C8F9EA28E439D3
:1056A300FB221256AAA322F08E828F832212650355
:1056B300A3A322F0A3E91256BD22F0850A82850B2B
:1056C30083A3A3A3A322C082C0837A327B1779E288
:1056D300121E277A327B17025523C082C08390168D
:1056E300B2025520C082C0839016B5025520C082F5
:1056F300C083794A121E2702552374F6120AF290C8
:10570300173AE0FE04F0EEF91223738B09EA450918
:1057130070EDEE60EAF90258AA74F2120AF2EAFE98
:10572300EBFF8C088D09890A1224B1740E1214122E
:10573300E0F9740F121412E0F8EA4B7012E8701BD0
:10574300A90AAC08AD09EEFAEFFB1224CF8071E889
:105753006017E970068A828B83E4F07401687060D5
:10576300E990173D7027E48021E97054EA2402F59B
:1057730082E41257CDA80A28F8E4340013E813F0A2
:10578300703E8A828B83A3A37401F08033E004F01C
:105793009018DFE0F890173DE0C3984023E4F090C1
:1057A30016B5E06E7003A3E06F7015EEFAEFFB79A8
:1057B30001121FC57A017B0090170CE0F9121A91B0
:1057C30002447174B52AF582740A3BF583E02274AE
:1057D300F4120AF28A088B098C0A8D0B90832778BE
:1057E300081211C8700E7A017B0090170CE0F912B1
:1057F300197D80319018CC780812139412348F607D
:105803001878081211047A017B0090170CE0F91242
:105813001A8574041210CE800C7A017B0090170C49
:10582300E0F9121A910236F5C082C0839018D002B3
:1058330041BEC082C0839018D20241BE74F6120AE0
:10584300F27E0075089E750916780812110C7C6E9D
:105853007D007A217B00121A4974021210CEE9648A
:105863000A70027E01121F23E9640A7004EED2E17A
:10587300FE900319126343600F1259F7120C6AE981
:10588300640A7004EED2E3FE12212DE9640A700467
:10589300EED2E4FE121DA9E9640A7004EED2E5FE1D
:1058A300EEF980031210CE7F02020DEA74F6120A9B
:1058B300F21218E175089E750916780812110C7515
:1058C300086E750900780812110C7C007D007A219E
:1058D3007B00121A5574041210CE121F2990031B59
:1058E30012634360061259F7120C6A122133121D18
:1058F300BB80B474F6120AF274FF1211B27E007503
:10590300089E750916780812110C7C6E7D007A21A9
:105913007B00121A4974021210CEE960030259DBAC
:10592300780812110C75086E8E09780812110C7C18
:10593300007D007A217B00121A5B74041210CEE9F9
:1059430060030259DB9016B2E064FE7003A3E0F437
:1059530070030259DB7E019016C1E064086005E024
:105963006404706F851882851983EE125AE77942B1
:10597300121E2D7AC97B167943121E2D7AC67B1609
:105983007947121E2D7AB77B16794A121E2D7AB5E6
:105993007B16794B121E2D7ABF7B167950121E2D62
:1059A3007AB27B167953121E2D7AC77B167954125D
:1059B3001E2D7AB47B1679E1121E2D9016ACE0A24F
:1059C300E35004D2F08002C2F0125ADD7952121E63
:1059D3002D80051218E17E00121F1790031D12631C
:1059E3004360061259F7120C6A12213FEEF9740153
:1059F3000258A7A31263272274F6120AF2E9FEA241
:105A0300E0502675089E750916780812110C750862
:105A13006E750900780812110C7C007D007A217BD9
:105A230000121A5574041210CEEEA2E35003121F93
:105A33001DEEA2E2500E90031F126343600612593B
:105A4300F7120C6A0258AA74F7120AF274ED1211D3
:105A5300B2E9FE90170BF0AC18AD1990195EE0F99E
:105A63007A0F7B1712232B7412121412EE125A8818
:105A7300AA18AB191223257A0F7B177945121E2D0D
:105A83007413024855F090195EE0F97C0F7D1722DC
:105A93002415F582E4221263FD3509F58322A3A3BD
:105AA300A3E08E828F8322F582E43FF583E8F0A39F
:105AB300E922EE1263FD3FF583125AC022E0F8A3F8
:105AC300E0F98882898322125ACE22F0EE125AD448
:105AD300222413F582E43FF58322A2F0E4338518F0
:105AE30082851983F0AA18AB192274F4120AF28A78
:105AF300088B097A007B0490170CE0F9121A9112B3
:105B03005BA99016C17409F01223CD8A0A8B0BACE2
:105B13000AAD0B123B5A125FE1121AB5E964017028
:105B23006B7A0F7B0012193B8A0A8B0BAE0AAF0B01
