:020000040000FA
:10000000021305022003FFFFFFFFFF02200BFFFF8B
:10001000FFFFFF020E67FFFFFFFFFF02201BFFFF36
:10002000FFFFFF022023FFFFFFFFFF02202BFFFF48
:10003000FFFFFF022033FFFFFFFFFF020EAAFFFFBB
:10004000FFFFFF022043FFFFFFFFFF02204BFFFFE8
:10005000FFFFFF022053FFFFFFFFFF02205BFFFFB8
:10006000FFFFFF022063FFFFFFFFFF02206BFFFF88
:10007000FFFFFF022073FFFFFFFFFF02207BFFFF58
:10008000FFFFFF022083FFFFFFFFFF02208BFFFF28
:10009000FFFF70DFFFFF040000000002000000C847
:1000A0000300030369A5020269A501000000000026
:1000B00004003273000074F812104C900393E06057
:1000C0001590030274FEF0900304744DF0A37405C0
:1000D000F07A0112068C7F0102116974F712104C3C
:1000E00074FF1212717E00801F851882851983E0CB
:1000F00064FE70069003877401F085188285198369
:10010000E0F8900384E068F07C017D00AA18AB1948
:10011000120E228B09EA450970030201F385188249
:10012000851983E064EF70027E07E0C0E0900387EA
:10013000E0FA900385E0F8EA28F8E43400F9740264
:1001400028F582740339F583D0E0F0900387E060EE
:100150009814600E14602C14603C14605214606893
:100160008098900384E4F0851882851983E09003D9
:1001700086F0C394809003874004E40200F974027F
:100180000200F9851882851983E0900382F09003BC
:100190008774030200F9851882851983E090038330
:1001A000F0900386E0601990038774040200F990D0
:1001B0000385E004F0F8900386E06860030200FA2B
:1001C00090038774050200F9900385E4F09003879B
:1001D000F0900384E0F8851882851983E068600355
:1001E0000200FA900382E0644D60030200FA1203F9
:1001F000288002EEF9740112123D7F020211697427
:10020000F712104C74FB121271EAFEEBFF75080432
:1002100075090078081212D574021212EE7A907BDA
:10022000007904120ECB740212123D12067E1213D4
:100230003FE0687003A3E069701285188285198316
:10024000E0F47003A3E0F4600302030874041212E4
:10025000E61206E48A088B09A808A9097402121399
:100260003FE8F0A3E9F0740412133FE0600879015D
:100270001200B6020321851882851983E068700395
:10028000A3E0697076851882851983E0F47003A372
:10029000E0F47019740212133F7410F0A37420F08C
:1002A0008518828519837410F0A37420F0750801F5
:1002B00075090078081212D574021212EE7A247BA6
:1002C00008120F4F740212123D75080478081212BA
:1002D000D574021212EE7A907B007904120ECB7460
:1002E0000212123D12067E12133FE0687003A3E073
:1002F000697004790280067904800279031200B6DD
:100300008E828F83741E80058E828F83E4F01206A6
:100310007E12133FE0687003A3E0697004790180E6
:1003200002790074050201F774E912104C74F81296
:100330001271900307E0FA900306E0F9FEEAFCE48C
:10034000CCFDEE2CED3408FF751001750F00750E15
:10035000068E088F097402780812129CC39508FC57
:10036000E49509FD74022CF51474033DF515E514AC
:100370002497F516E5153420F517EE2410F508E45A
:100380003FF509EEF50CEF5401F50D8E128F137445
:100390000978121212F685120A900383E01460574E
:1003A00014700302046F1470030204E61460102436
:1003B000FE70030205A11470030206510206617566
:1003C0000E03794E120C619003071206747402F04A
:1003D000A374401206727408120672F0A3F0741827
:1003E000C3940704F510AA10A90F12068CA90E7465
:1003F0000812123D02083E750E04794E120C61EE91
:10040000450D7005A90A120FB5C3EE9425EF9408A7
:10041000503FC3E5089424E50994084034E51424CA
:1004200096F8E5153420F988828983E0701E8516D8
:1004300082851783E070159003887401F0888289A3
:100440008374A5F08516828517838004900388E461
:10045000F075081075090078081212D57C087D0324
:10046000EEFAEFFB120F4F740212123D0203E67513
:100470000E05C3E50A947995E04006750F01020365
:10048000E675104075110078101212D57C097D03B5
:100490007402780C12129CAA0CAB0DA90A120ECB96
:1004A000740212123D900307E0A3F0900306E0A34C
:1004B000F0751043C3EE9425EF940840030203E661
:1004C000C3E5089424E509940850030203E6900369
:1004D00088E070030203E6A816A91788828983E4DE
:1004E000F0A3F00203E675080475090078081212FB
:1004F000D574021212EE7A907B007904120ECB743E
:100500000212123D740212133FE0F8A3E0F98518BD
:1005100082851983E0687003A3E0698518828519D4
:1005200083700BE0F47003A3E0F470578009E0F4EB
:100530007003A3E0F4700D8518828519837410F0A0
:10054000A37420F012067E12133FE8F0A3E9F075C1
:10055000080178081212D574021212EE7A247B0870
:10056000120F4F740212123D75080478081212D54A
:1005700074021212EE7A907B007904120ECB740290
:1005800012123D12067E12133FE0687003A3E06969
:100590007006750E010203E6750E02750F07020361
:1005A000E6900391E06007640260030203E6EAFF5D
:1005B0007A01790012068CE060030206458003127E
:1005C0000D22120D2CE970F7740412133F12066607
:1005D000740412133F780812132385080C85090D43
:1005E000850A0E850B0F9005A2780C1212C27404B6
:1005F00012133F780C121314E5084509450A450B00
:1006000070CE8EC2E5C554E04FF5C5740412133F99
:10061000120666740412133F780812132385080C1F
:1006200085090D850A0E850B0F9005A2780C121214
:10063000C2740412133F780C121314E508450945DF
:100640000A450B70CE7A01790012068C79080203F4
:10065000EFE9900393F070030203E6750E090203BD
:10066000E679060203EFE4F0A37426F0A3E4F0A316
:10067000F022F0A3E4F0A3F0A3F0A3F0A3228518E6
:1006800082851983E0F8A3E0F974022274F812104D
:100690004CEAFE900305E0D2E7F0E9A3F0EE900308
:1006A00003F08E0874042AFE7C028004E062080CC9
:1006B000ECFA3395E0FB74022AF58274033BF58370
:1006C000EEF8C3EA98EB9400A2D265D03340DDE5A2
:1006D00008F074012A0C3395E0FD7A027B03120EB8
:1006E000520200D674E912104C7582007583FE1216
:1006F00012048A168B177514007515008A828B8375
:10070000E4F0900391E07006D2AAD2AF80046402B4
:10071000700579001200B6750C00750D20750E007D
:10072000750F00900391E0600464027015120D22B1
:100730001200DBE9F87409686003020814790012FA
:1007400000B675080075090278081212D5740212F5
:1007500012EE850C08850D09AA08E5095407FB85EA
:100760000E0A850F0B740B7808121258A908120E86
:10077000CB740212123D7E007F009005AAC0828ECB
:1007800010EFF5113395E0F512F513850C08850D82
:1007900009850E0A850F0B780879101212AF9005A3
:1007A000A678081212C2758305D08278081211E566
:1007B000501D851882851983E5822EF582E5833FD9
:1007C000F583E0F9AA14AB151208438A148B150EB1
:1007D000EE70010FC3EF940240A09005AE780C12AA
:1007E00012C29005B2780C1211E54003020723797A
:1007F00000AA14AB1512084379001208438B159018
:100800000391E07004C2AFC2AAEA451570277AA529
:100810007BA58021E870030207427406687003021A
:1008200007427407687003020742851682851783A2
:100830007401F080BA7582007583021212047F1071
:10084000021169C008C0097C088A088B09740F78F6
:10085000081212F6E508F8EA25E0FAEB33FBE9A204
:10086000E7500474014AFAE8A2E0500874216AFAD9
:1008700074106BFBE9C333F91CEC70CDD009D008C0
:100880002274F812104C78007900802274942EF5AE
:1008900082E43403F583E08A828B83F0900414129F
:1008A0000A014005900414E4F008E870010990047E
:1008B00014E0FEA3E06E6007C3E89CE99D40CDE82C
:1008C000FAE9FB7F0102116974F712104C90049849
:1008D000E0F509A3E0F508F8E509C398F895E0F913
:1008E000E508C39509E8500B120AE3701178007906
:1008F00000801B247F500109C39CE99D50EF7A00C2
:100900007B008041E004F0D2E908E8700109C3E807
:100910009CE99D502C8A828B83E0C0E0900499E092
:10092000FE74182EF582E43404F583D0E0120AD365
:1009300090049AE4F0900499E0C3947F40C6E48068
:10094000C5E8FAE9FB7F02021169C082C083C2E9EF
:10095000900498E0F8A3E0686017741828F582E422
:100960003404F583E0F5C1900498120AFA4002E4D9
:10097000F0020D4074F812104C7800790090051DBB
:10098000E07055A3E0705175F900C28FC284A28354
:1009900040FCA28F4004A28350F8AEF9C28FA2831C
:1009A0005004D2848032EEC0E0E0FE1209F6D0E0BE
:1009B000F090051E120AFA40D9E4F080D51209F62B
:1009C000E08A828B83F090051D120A014005900594
:1009D0001DE4F008E870010990051DE0FEA3E06E3B
:1009E0006007C3E89CE99D40D4E8497006E4F090B4
:1009F000051DF00208BF749D2EF582E43404F583D2
:100A000022E004120AD7C394802274F812104C908A
:100A100005A0E0FEF890059FE0FFEEC39FE0500DBB
:100A2000C398F895E0F9120AE270188012C398F89A
:100A300095E0F9E8247F500109C39CE99D4004EC4E
:100A40004D70077A007B00020AD08A828B83E0F522
:100A5000F9A3AA82AB83780179008008E004F0084A
:100A6000E8700109C3E89CE99D50278A828B83E0E6
:100A7000C0E09005A0E0FE741F2EF582E43405F579
:100A800083D0E0120AD39005A0E0C3947F40CDE468
:100A900080CCC28FA28340FCC284A28F4004A28378
:100AA00050F890059F120AEDE0F5F9C28F90059F6E
:100AB000E0FAA3E06A90059F7005120AED80051226
:100AC0000AFA4002E4F0A28350D0D284E8FAE9FBAB
:100AD0000208C3120AD722F08A828B83A3AA82ABB0
:100AE0008322E824FF18E934FFF9E84922E0FA7488
:100AF0001F2AF582E43405F58322E004F0C39480D4
:100B00002274FB121271C2009005CA7808121323D6
:100B10009005CA7401F0A3F0A37469F0A374A5F062
:100B20009005B678081212877004D20080159005DF
:100B3000BA78081212876008E59D54186410700393
:100B4000022000120C87A2005003020C04AA18AB6A
:100B5000191201FFE97003020C04851882851983BC
:100B6000E0C3943C500CE0F8743CC398FA95E0FB69
:100B700080047A007B00120D45E97003020C04909A
:100B80000391E06401700C75F800C2AB539AF7D280
:100B9000EA805E79071200B68003120D22120D2C36
:100BA000E970F7740112133FE4F0A37426F0A3E494
:100BB000F0A3F0740112133F780812132385080C78
:100BC00085090D850A0E850B0F9005A2780C12126F
:100BD000C2740112133F780C121314E5084509453D
:100BE0000A450B70CE758600C2AAC28B539AFBC20F
:100BF000E990000174CDF0022000C2AF75C9AB7559
:100C0000C95B80FE750800750900750A00750B0048
:100C1000900391E0701BD2AAD2AF79051200B6E022
:100C20007003120D221200DBE9F874096870098064
:100C3000E9794E120C6180ED74016870E2E0701782
:100C4000120D229005BE78081212C29005C27808D3
:100C50001211E550EBC2AAC2AF75C9AB75C95B8072
:100C6000FEC082C08378109005A1E0C3995015752D
:100C7000B60FE5B4A2E750FAE5BBC39940F118E816
:100C800070EDE9F0020D40C082C08353BEFBE59DCC
:100C9000A2E650FA0078F8790100120AE270FA75BB
:100CA000C6807480659E70FA43BE049062707408BA
:100CB000F0794A120C6190000174F5F07403F5D5D7
:100CC00075D489A2A0E433900391F0A2E05029D218
:100CD0008453F3F753F3EF53FDF743FD10538FF7AE
:100CE00053F7DF43FC2043F10253F5DF75F820434F
:100CF000F4F0D2FED2AB802853FF3F85FFFF53F1C3
:100D0000FE43F30C53F2F375868075C48090049B08
:100D1000E4F0A3F075C2D875C50B75C402438640D4
:100D2000801E800312094AA2E940F922C082C083D2
:100D3000900498E0F8A3E0686004790180027900EB
:100D4000D083D0822274F112104C74FF1212717E83
:100D500000900391E06401706CC28490039274016E
:100D6000F07508388E098E0A8E0B7C017D00AA185A
:100D7000AB19120E228B0DEA450D6018851882857D
:100D80001983E06410602DE064EF70088E088E090E
:100D90008E0A8E0B85080C85090D850A0E850B0FB2
:100DA0009005A278081212C2E50C450D450E450FBC
:100DB00070347E01900391E064017056D2849003F8
:100DC00092E4F08051D2AAD2AF8A088B09E4F50AE6
:100DD000F50B9005C6780C1213237808790C120FC6
:100DE000CC79061200B6900391E06003020D6A12FE
:100DF0000D221200DBE9F874096870077906120009
:100E0000B680917407686084E8608974066870A48D
:100E10008082C2AFC2AAEEF9740112123D7F0802AD
:100E20001169C082C083900391E07005120881802F
:100E30001E900392E06015A28F500BE5F98A828B19
:100E400083F07A0180027A007B0080031209740229
:100E50000D40C082C083900391E070051208C880E5
:100E600003120A0A020D40C0E074F21210B29000A0
:100E700001E064CD7005122013802AE064F570242F
:100E8000E5C1C28BC0E0900415E0F8749428F582A7
:100E9000E43403F583D0E0F0900415120AFA40051B
:100EA000E4F08001007F01021111C0E074F2121021
:100EB000B2900001E064CD700512203B800BE0642D
:100EC000F5700512094A80010080DA74F612104CA0
:100ED000890A740F550AF508750900740B78081211
:100EE000129CEA2400F8EB3480F9E82400E9350983
:100EF000F985C709A2AFE433F508C2AFE50AC454C7
:100F00000FFAE5C754F84AF5C7740A12133FE0FA1E
:100F1000A3E0FB801C88828983E08C828D83F0882B
:100F2000828983A3A882A9838C828D83A3AC82AD9E
:100F300083EAFEEBFFEE24FF1AEF34FFFBEE4F7067
:100F4000D48509C7E508A2E092AF7F030211697456
:100F5000F712104CED900389F0ECA3F0A37462F04B
:100F6000A37473F0A3E0541FF0740912133FE0F56B
:100F700008A3E0F509E508333354FC90038EF074C0
:100F80000678081212F6E50890038DF090038F742E
:100F900012F0A37442F075D1FE75D601EA90627129
:100FA000F0EBA3F0906270E0D2E1F0E0A2E740FB4A
:100FB0007F02021169C082C083E9C333906272F07C
:100FC000906270E0D2E0F0D083D08222080808EA74
:100FD000C0E0EBC0E086F0E7A4FA180986F0E7A4C9
:100FE0002AFA180986F0E7A42AFA180986F0E7A475
:100FF0002AFA1986F0E7A4FBE5F02AFA190886F028
:10100000E7A42BFBE5F03AFA190886F0E7A42BFBDE
:10101000E5F03AFA18180986F0E7A4C5F02BFBE4CE
:101020003AFA1908E7C5F0C6A426F6E5F03BFBE45A
:101030003AFA1886F0E7A4F6E5F00826F6E43B084D
:10104000F6E43A08F6D0E0FBD0E0FA222518C58293
:10105000C0E0E51934FFC583C0E0E518C3958224DC
:10106000F910AF0885831985821880088583198552
:101070008218D2AFCEF0A3E520F0A37808E608F0FE
:10108000A3DEFAEFF0A3E58124FBF8E608F0A3E67F
:1010900008F0A30808E608F0A3E608F0A3158115F8
:1010A00081D0E0FED0E0F815811581E8C0E0EEC007
:1010B000E022C0D02518C582C0E0E51934FFC58301
:1010C000C0E0E518C3958224F310AF088583198525
:1010D00082188008858319858218D2AFC8F0A3E9E9
:1010E000F0A3EAF0A3EBF0A37908E709F0A3D8FA9C
:1010F000ECF0A3EDF0A3EEF0A3EFF0A3D0E0F0A3AB
:10110000D0E0F0A3D0E0F0A3E520F0A3E5F0F0A359
:1011100022851983851882E0C0E0A3E0F9A3E0FAF4
:10112000A3E0FBA37808E0F608A3DFFAE0FCA3E065
:10113000FDA3E0FEA3E0FFA3E0C0E0A3E0C0E0A3C6
:10114000E0F5D0A3E0F520A3E0A3F5F010AF08850B
:1011500083198582188008858319858218D2AFD0BB
:1011600082D083D0E0F8D0E032851983851882E000
:10117000A3FEE0A3F5207808E0A3F608DFFAE0A3D9
:10118000FFE0A3C0E0E0A3C0E0E0A3C0E0E0A3C0B4
:10119000E010AF088582188583198008858218853C
:1011A0008319D2AFD083D08222E490030278A17950
:1011B000038002F0A3D8FCD9FA7AA27B0590008EB6
:1011C000782979018015E493A3AD82AE838A828B5E
:1011D00083F0A3AA82AB838D828E83D8E9D9E712EC
:1011E0000B01121349C008C3E096F50808A3E09666
:1011F000420808A3E096420808A3E096450870015B
:10120000D3D00822C5822518C582C583351910AFF1
:1012100007F5198582188007F519858218D2AFC5A0
:1012200083222518F58210AF08F518400C15198097
:1012300008F51840021519D2AF8519832200C0D0D5
:10124000251810AF08F518500C05198008F518502E
:10125000020519D2AFD0D0226016080808C6C31301
:10126000C618C613C618C613C618C613C6D5E0EAF4
:1012700022251810AF08F518400C15198008F5182C
:1012800040021519D2AF22E066701008A3E0667024
:101290000A08A3E066700408A3E0662270042260D6
:1012A0000D18C6C333C608C633C6D5E0F41822E607
:1012B00027F60809E637F60809E637F60809E6379B
:1012C000F622E026F608A3E036F608A3E036F60894
:1012D000A3E036F62274028000C0E0F40412122269
:1012E000D0E0121332222518FAE43519FB22251812
:1012F000FCE43519FD22600C08C6C313C618C613DA
:10130000C6D5E0F42275D00075813F7518027519B5
:10131000030211A9E6F008A3E6F008A3E6F008A38B
:10132000E6F022E0F608A3E0F608A3E0F608A3E062
:10133000F622CAC0E0E6F0A308DAFAD0E0FA2225E5
:1013400018F582E43519F5832200000080FBFFFFC9
:10135000FFFFFFFFFFFFFFFFFFFFFFFFFFFFFFFF9D
:10136000FFFFFFFFFFFFFFFFFFFFFFFFFFFFFFFF8D
:10137000FFFFFFFFFFFFFFFFFFFFFFFFFFFFFFFF7D
:10138000FFFFFFFFFFFFFFFFFFFFFFFFFFFFFFFF6D
:0A1FF600CA05094338860000000008
:020000040003F7
:01FFF000F020
:020000040000FA
:10200000022C7A02221AFFFFFFFFFFFFFFFFFFFFF4
:10201000FFFFFFFFFFFFFFFFFFFFFFFFFFFFFFFFD0
:10202000FFFFFFFFFFFFFFFFFFFFFF022A06FFFF8B
:10203000FFFFFFFFFFFFFFFFFFFFFFFFFFFFFFFFB0
:10204000FFFFFF022775FFFFFFFFFFFFFFFFFFFFFF
:10205000FFFFFF022154FFFFFFFFFFFFFFFFFFFF16
:10206000FFFFFFFFFFFFFFFFFFFFFF022920FFFF32
:10207000FFFFFFFFFFFFFFFFFFFFFFFFFFFFFFFF70
:10208000FFFFFF0221AB01FFFFFFFFFFFFFFFFFF8D
:10209000102010200100F0FF0700080000FFFF00E3
:1020A00000030400000F0100000300019651180016
:1020B000020000FB310000000071317932CB314366
:1020C0003200000000000000000000000000009B43
:1020D0003100000000000000000000A73106FFFFF3
:1020E000FF010400000818000000E8030000FFFFE3
:1020F000D818018813000003E8030000640064009E
:10210000B801A0BB0D00A0BB0D0002020207040134
:102110000101051E02051E020A0A01010809080143
:1021200003B80B02803E0102FEFFE8030A0500012E
:10213000FFFF020A011401E00105030101FF0F1076
:10214000FEFF624E00000000984D00000000FF00FE
:102150000000FF00C0E074F2122595A2AFE433F551
:1021600008D2AFAFA7AEA1EE5F54106006122EE307
:1021700075A1EFEE5F54086008122EE975A1F78093
:1021800023EEA2E092F0EFA2E082F0501790619867
:10219000E0F890093BE0C398A2D265D0335002E842
:1021A000F075A1FE751A00E5088066C0E074F212B1
:1021B0002595A2AFE433FED2AF9061A4E0F8759B01
:1021C00000E59158540860087591F7122F37802365
:1021D000E59158541060087591EF122F3D8014E579
:1021E00091A2E092F0E8A2E082F05007E0C2E0F0B5
:1021F00012309F9061A3E0F8E5E9585404600E1294
:10220000307575E9FB906193E0A2E640F2751A0023
:10221000EEA2E092AF7F010225F4C0E074F2122535
:1022200095A2AFE433FED2AF9061A5E0F8E5BF58C8
:102230005404600675BFFB1230B780D1C3E498F830
:10224000E499F912227D8026C3E49AFAE49BFBE923
:1022500020E7E912227DE498F8E499F922C3E49892
:10226000F8E499F912227DE498F8E499F9C3E49A24
:10227000FAE49BFB22EB20E7CFE920E7E0B900106E
:10228000BB0008E88AF084F8AAF022E4FBC8FA222E
:10229000EB70227B10C833C8C933C9335007C39AC7
:1022A000C3DBF280069A50012ADBEAC833F4C8C9BE
:1022B00033F4C9FA2275F008E4C833C8C933C93306
:1022C000C99AC99B5004C92AC93BD5F0ECFBC83355
:1022D000F4C8E4C9FA2274F512252F74FA122AED13
:1022E0007508047509007808122A467404122AB782
:1022F0007AF87B077903122DBD7402122A59908156
:102300000F7808122CA87402122CFF7808122B18D0
:1023100070487508027509007808122A467402127E
:102320002AB77AF67B077903122DBD7402122A5957
:10233000851882851983E0F47003A3E0F4601B859F
:102340001882851983E0F8A3E08882F5837402F08F
:10235000A3F0A37469F0A374A5F0C2AF75D69F0271
:1023600000007406122A597F040227B8080808EAF8
:10237000C0E0EBC0E086F0E7A4FA180986F0E7A415
:102380002AFA180986F0E7A42AFA180986F0E7A4C1
:102390002AFA1986F0E7A4FBE5F02AFA190886F074
:1023A000E7A42BFBE5F03AFA190886F0E7A42BFB2B
:1023B000E5F03AFA18180986F0E7A4C5F02BFBE41B
:1023C0003AFA1908E7C5F0C6A426F6E5F03BFBE4A7
:1023D0003AFA1886F0E7A4F6E5F00826F6E43B089A
:1023E000F6E43A08F6D0E0FBD0E0FA22E4CFC0E011
:1023F000E4CEC0E0E4CDC0E0E4CCC0E075F020E67F
:1024000026F608E633F608E633F608E633F618183B
:1024100018EC33FCED33FDEE33FEEF33FFC3EC97E6
:1024200009ED9709EE9709EF97191919400FFFEC7D
:1024300097FC09ED97FD09EE97FE191906D5F0BF37
:10244000ECF709EDF709EEF709EFF7191919D0E0E4
:10245000FCD0E0FDD0E0FED0E0FF222518C582C010
:10246000E0E51934FFC583C0E0E518C3958224F880
:1024700010AF0885831985821880088583198582A5
:1024800018D2AFCEF0A3E520F0A37808E608F0A3B9
:10249000DEFAEFF0A3E58124FAF8E608F0A3E608F7
:1024A000F0A3E608F0A30808E608F0A3E608F0A306
:1024B00015811581D0E0FED0E0F8158115811581D8
:1024C000E8C0E0EEC0E022122CF4B90003022519A6
:1024D000E49004D1781F791A8002F0A3D8FCD9FACD
:1024E000781A9020867A01BA00028007E493A3F656
:1024F00008DAF97AEF7B1D90209478C17901801574
:10250000E493A3AD82AE838A828B83F0A3AA82ABCD
:10251000838D828E83D8E9D9E7758263758394743D
:10252000071229E875829375834B74001229E825F8
:1025300018C582C0E0E51934FFC583C0E0E518C3C3
:10254000958224F910AF0885831985821880088543
:102550008319858218D2AFCEF0A3E520F0A37808C6
:10256000E608F0A3DEFAEFF0A3E58124FBF8E60825
:10257000F0A3E608F0A30808E608F0A3E608F0A335
:1025800015811581D0E0FED0E0F815811581E8C0F5
:10259000E0EEC0E022C0D02518C582C0E0E51934C5
:1025A000FFC583C0E0E518C3958224F310AF08850A
:1025B00083198582188008858319858218D2AFC84F
:1025C000F0A3E9F0A3EAF0A3EBF0A37908E709F0A0
:1025D000A3D8FAECF0A3EDF0A3EEF0A3EFF0A3D0B4
:1025E000E0F0A3D0E0F0A3D0E0F0A3E520F0A3E575
:1025F000F0F0A322851983851882E0C0E0A3E0F9FA
:10260000A3E0FAA3E0FBA37808E0F608A3DFFAE072
:10261000FCA3E0FDA3E0FEA3E0FFA3E0C0E0A3E095
:10262000C0E0A3E0F5D0A3E0F520A3E0A3F5F0100F
:10263000AF088583198582188008858319858218DB
:10264000D2AFD082D083D0E0F8D0E03275F0108ED7
:10265000218F22858226858325851882851983E02E
:10266000CEA3E0CF852682852583EBC9EAC8EDCBD2
:10267000ECCAC3E833C8E933C9EA33CAEB33CBC386
:10268000EA9EF524EB9FF523B35004AB23AA24EC78
:1026900033CCED33CDD5F0DAAE21AF2222D083D0CA
:1026A00082ECC0E0EDC0E0E493A3FCE493A3FDED75
:1026B0004C600D1227F8EC24FFFCED34FFFD80EF99
:1026C000E493A3FCE493A3FDED4C600D1228CBEC46
:1026D00024FFFCED34FFFD80EFD0E0FDD0E0FCE412
:1026E00093A3C0E0E493C0E022851983851882E0BB
:1026F000A3FEE0A3F5207808E0A3F608DFFAE0A344
:10270000FFE0A3C0E0E0A3C0E0E0A3C0E0E0A3C01E
:10271000E0E0A3C0E010AF08858218858319800827
:10272000858218858319D2AFD083D0820229EED05A
:1027300083D082E9C0E0E493A3C386F0C5F095F0AE
:10274000F908E493A386F0C5F095F0700BE493A329
:10275000C3994005E9048002A3E475F002A4258230
:10276000F582E5F03583F583D0E0F9E493A3C0E08A
:10277000E493C0E022C0E074F2122595A2AFE433E6
:10278000FED2AFC2C0901A89E0700BE5D1A2E4502E
:102790001D122E418018E5D1A2E3500675D1F71223
:1027A0002E17E5D1A2E4500675D1EF122E1DEEA230
:1027B000E092AF7F010225F4851983851882E0A39A
:1027C000FEE0A3F5207808E0A3F608DFFAE0A3FF17
:1027D000E0A3C0E0E0A3C0E0E0A3C0E0E0A3C0E06D
:1027E00010AF088582188583198008858218858333
:1027F00019D2AFD083D08222C0E0C3E4939608748C
:1028000001939618400FE49366700808740193666C
:102810001870007019A3A3C3E493960874019396EB
:1028200018A3A3400DD0E0D0E0D0E00226D9A3A3A6
:10283000A3A3A3A3D0E022D083D082C5F0E493A3C6
:10284000C5F0C395F0F5F0E493A3C395F04005E51A
:10285000F0048001E475F002A42582F582E5F035EC
:1028600083F583E493A3C0E0E493C0E02274048082
:102870000474028000CCC0E0EDC0E0E518C39CCC3D
:10288000AD1950011D10AF068C188D1980068C18DB
:102890008D19D2AF12296AD0E0FDD0E0FC2274027B
:1028A0008000CCC0E0EDC0E0E518C39CCCAD195071
:1028B000011D10AF068C188D1980068C188D19D249
:1028C000AF122948D0E0FDD0E0FC22C0E0C0F08883
:1028D000F0E4936670080874019366187000A8F01D
:1028E000A3A3700BD0F0D0E0D0E0D0E00226D9A3B3
:1028F000A3D0F0D0E022D083D082CCC0E0E493A378
:1029000060061229AA1470FAE493A36006122AD76B
:102910001470FAD0E0FCE493A3C0E0E493C0E0229A
:10292000C0E074F2122595758900C2C5901A89E03D
:10293000700E7A007B109009D3E0F91233A5800362
:10294000123C3F7F010225F4CAC0E0E493A3C58294
:10295000CCC582C583CDC583F0A3C582CCC582C555
:1029600083CDC583DAE5D0E0CA22CAC0E0E0A3C5C2
:1029700082CCC582C583CDC583F0A3C582CCC58278
:10298000C583CDC583DAE6D0E0CA22C008C3E0968D
:10299000F50808A3E096420808A3E096420808A3B9
:1029A000E09645087001D3D00822C0E0E493A3D399
:1029B0009C5010E493A3C39C400AD0E0D0E0D0E048
:1029C000022913A3A3A3D0E02270090808082260FB
:1029D00016181818C6C333C608C633C608C633C689
:1029E00008C633C6D5E0EA22C09FF59FE473D09FA6
:1029F00022D083D082C09FE493C0E0740193C0E0F2
:102A0000740293F59F22C0E0C0D0E8C0E0A8A8D22D
:102A1000AFC2C7751A00E8A2E792AFD0E0F8D0D0F5
:102A2000D0E0322518F58210AF08F518400C1519C2
:102A30008008F51840021519D2AF85198322740455
:102A4000800A74038006740280027401C0E0F404FA
:102A5000122A23D0E0122CB72200C0D0251810AFC4
:102A600008F518500C05198008F51850020519D200
:102A7000AFD0D022BB0102E722C082C08389828A04
:102A800083BB0003E08002E493D083D082226016EF
:102A9000080808C6C313C618C613C618C613C61836
:102AA000C613C6D5E0EA222518F8E43519F922251F
:102AB00018FAE43519FB222518FCE43519FD22C368
:102AC000E0C696F608A3E0C696F608A3E0C696F61A
:102AD00008A3E0C696F622C0E0E493A36C7009D088
:102AE000E0D0E0D0E0022913A3A3D0E02225181003
:102AF000AF08F518400C15198008F5184002151993
:102B0000D2AF22E76670100809E766700A0809E785
:102B10006670040809E76622E066701008A3E066A4
:102B2000700A08A3E066700408A3E06622C3E0967A
:102B300008A3E09608A3E09608A3E096A2D265D089
:102B40003322C3E096F008A3E096F008A3E096F0E5
:102B500008A3E096F022C3E697F60809E697F60880
:102B600009E697F60809E697F622C3E493960874F7
:102B70000193960874029396087403939622E627AD
:102B8000F60809E637F60809E637F60809E637F6E3
:102B900022E026F608A3E036F608A3E036F608A3FE
:102BA000E036F622E493F608740193F60874029373
:102BB000F608740393F622E647F60809E647F60896
:102BC00009E647F60809E647F622E657F60809E659
:102BD00057F60809E657F60809E657F622E056F6D2
:102BE00008A3E056F608A3E056F608A3E056F6223E
:102BF000E056F008A3E056F008A3E056F008A3E082
:102C000056F022E026F008A3E036F008A3E036F004
:102C100008A3E036F022700422600D18C6C333C644
:102C200008C633C6D5E0F41822E4C396F608E49645
:102C3000F608E496F608E496F622C6F4C608C6F44A
:102C4000C608C6F4C608C6F4C622600D08C6A2E7C8
:102C500013C618C613C6D5E0F322C3E7960809E7E2
:102C6000960809E7960809E79622C3E09608A3E0CC
:102C70009608A3E09608A3E0962275D00075813FE0
:102C80007518D1751904000224C7600C08C6C31357
:102C9000C618C613C6D5E0F422E6F008A3E6F0088D
:102CA000A3E6F008A3E6F022E0F608A3E0F608A306
:102CB000E0F608A3E0F622CAC0E0E6F0A308DAFADC
:102CC000D0E0FA22EAF0A3EBF0A3ECF0A3EDF022BF
:102CD000E0FAA3E0FBA3E0FCA3E0FD22E0F8A3E020
:102CE000F9A3E0FAA3E0FB22E8F0A3E9F0A3EAF0FD
:102CF000A3EBF022E5C754F84401F5C7790122257A
:102D000018F582E43519F583221229F193D10512C1
:102D100029F1AFD1051229F1F4D1051229F184D29C
:102D2000051229F1DCD2051229F1BED3051229F1D1
:102D3000A3D4051229F1E8D4051229F149D50512C9
:102D400029F1D5D5051229F101D6051229F14CD664
:102D5000051229F172D6051229F10AD7051229F1B7
:102D6000B3D7051229F106D8051229F137D8051273
:102D700029F16ED8051229F112DA051229F1DEDAED
:102D8000051229F191DB051229F1379D071229F16E
:102D9000489D071229F1E69D071229F1F7FF01125C
:102DA00029F1E37F001229F1FE9D071229F10E9E01
:102DB000071229F1239E071229F1B49E071229F167
:102DC0005B9B071229F1DE9B071229F1449C071235
:102DD00029F1F4FF011229F188FF021229F198FF6D
:102DE000021229F19BFF021229F19EFF021229F122
:102DF000F87F001229F15292071229F174920712FA
:102E000029F1DC93071229F16094071229F1A07FC0
:102E1000001229F1A97F001229F1B27F001229F1D5
:102E2000C07F001229F188C3061229F1F4C30612EB
:102E300029F1BCC4061229F19DC5061229F19AC7D1
:102E4000061229F101C8061229F154C8061229F107
:102E500065C8061229F175C8061229F1E7C80612DD
:102E600029F1FDC8061229F108C9061229F116C96F
:102E7000061229F128C9061229F13BC9061229F1C7
:102E800067C9061229F1E9CB061229F140CC0612D6
:102E900029F180CC061229F194CC061229F1ADCC8F
:102EA000061229F19ECD061229F14FCE061229F104
:102EB00063CE061229F15E96071229F18296071257
:102EC00029F19B96071229F1CD96071229F1FD965B
:102ED000071229F12A97071229F13497071229F1CD
:102EE0009697071229F1A597071229F1AF970712B4
:102EF00029F1BC97071229F13186071229F1518671
:102F0000071229F19086071229F1AB86071229F1E1
:102F1000CA86071229F13087071229F1398707126B
:102F200029F19687071229F1A587071229F1C98788
:102F3000071229F18A88071229F19788071229F1C7
:102F4000A888071229F16FFF011229F187FF0112EA
:102F500029F1B3FF011229F1E9D3061229F13DD578
:102F6000061229F14BD5061229F15ED5061229F178
:102F700073D5061229F188D5061229F19BD50612C0
:102F800029F10FD6061229F174D6061229F1FCD6C2
:102F9000061229F178D7061229F13CD8061229F138
:102FA0004CD8061229F15BD8061229F1C7A00712E6
:102FB00029F1EBA0071229F113A1071229F13BA176
:102FC000071229F1D688071229F1FD88071229F185
:102FD0001C89071229F18489071229F11F8307121E
:102FE00029F13883071229F14483071229F1588304
:102FF000071229F17683071229F18083071229F13C
:103000008A83071229F19D83071229F12E84071262
:1030100029F19D84071229F1D184071229F11F8516
:10302000071229F16C85071229F18785071229F10A
:103030009185071229F1B785071229F11C8607121D
:1030400029F15D9C071229F17F9C071229F10D9D42
:10305000071229F1C97F001229F1C0A4061229F133
:10306000EAA4061229F107A5061229F11AA50612EB
:1030700029F130A5061229F18EA5061229F1C1A564
:10308000061229F1B6A9061229F116AB061229F18A
:1030900049AB061229F193AB061229F109AD0612CC
:1030A00029F131AD061229F146AD061229F156ADCE
:1030B000061229F19AAD061229F1F5AD061229F191
:1030C00005AE061229F1BAFE061229F1D4FE061247
:1030D00029F1FCFE061229F115FF061229F139FF2C
:1030E000061229F157FF061229F16EFF061229F187
:1030F0009CFF061229F1B7FF061229F1C49E0712A0
:1031000029F10A9F071229F12AFB061229F13AFB3D
:10311000061229F141FC061229F175FC061229F16B
:10312000A1FC061229F1C4FC061229F1E2FC0612E8
:1031300029F11CFD061229F185FD061229F1C7FDB2
:10314000061229F106FE061229F137FE061229F1B0
:1031500062FE061229F1F2FB031229F157FC031259
:1031600029F1FDFC031229F134FD031229F172DC6F
:10317000051229F109DD051229F138DF051229F1BF
:10318000A8E1051229F134E3051229F1A0E30512A3
:1031900029F10BE7051229F156E8051229F1768B82
:1031A000071229F1998D071229F104B6061229F1A7
:1031B00028B6061229F167B7061229F100B90612DE
:1031C00029F184BB061229F1BBBB061229F177CE87
:1031D000061229F138D1061229F1DDD1061229F1A2
:1031E00009D2061229F137D2061229F16CD2061241
:1031F00029F194D2061229F1F4D2061229F1F08CA9
:10320000061229F1D790061229F1C692061229F169
:10321000EF93061229F1CF94061229F17D9606123A
:1032200029F12798061229F1F798061229F14B99EE
:10323000061229F1EB8D071229F1F58D071229F1FC
:10324000168E071229F113EA051229F128EF05124B
:1032500029F196F0051229F152F2051229F14FF3E6
:10326000051229F17FF4051229F197F5051229F1CC
:1032700077F6051229F1689C051229F1A09C051228
:1032800029F1C6A6051229F1A7A7051229F1F3A86D
:10329000051229F13CAA051229F1F2AA051229F119
:1032A000C6AB051229F1ADAC051229F195AD051299
:1032B00029F137AE051229F161AE051229F111B0DD
:1032C000051229F181B0051229F19AB0051229F1F0
:1032D000F1B1051229F1A2B2051229F124B30512A8
:1032E00029F1D0B3051229F140B4051229F1DCB45B
:1032F000051229F153B5051229F18BB5051229F1F3
:103300008DB6051229F14CB7051229F1F2B7051255
:1033100029F1057E001229F12F7E001229F1447F48
:10332000001229F1477F001229F11DA0071229F18F
:1033300064A0071229F1A6A0071229F1B6A007126E
:1033400029F109BD061229F147BD061229F1B0BDC8
:10335000061229F1CDBD061229F1E6BD061229F1AA
:1033600098BE061229F1A1BE061229F1E6BE061288
:1033700029F11CBF061229F133BF061229F1A5BF9E
:10338000061229F132C0061229F168C0061229F18D
:10339000BFC0061229F123C1061229F146C1061247
:1033A00029F1AAC1061229F106C2061229F141C269
:1033B000061229F176C2061229F188C2061229F1F5
:1033C0009AC2061229F1D2C2061229F11EC30612B0
:1033D00029F15CC3061229F17DDD061229F1BDDE5B
:1033E000061229F1E0DE061229F1F1DE061229F1BA
:1033F000E6E0061229F106E1061229F11B900712F8
:1034000029F14F90071229F19790071229F1F391B2
:10341000071229F1E4EB021229F115ED021229F14C
:103420004FED021229F10EEF021229F138EF0212CC
:1034300029F1C5F1021229F105F2021229F19CF3DA
:10344000021229F12FF4021229F187F4021229F154
:103450002AF5021229F162F5021229F1A4F50212ED
:1034600029F113F7021229F165F8021229F188FAFD
:10347000021229F1B6FA021229F1DDFA021229F13B
:10348000E6FA021229F136FB021229F1C8FB0212F8
:1034900029F1B8FE021229F13BFF021229F1789FAF
:1034A000071229F18E9F071229F1989F071229F11F
:1034B000F29F071229F1FBE6061229F111E7061225
:1034C00029F1B6E7061229F1F5E7061229F112E80B
:1034D000061229F143E8061229F190E8061229F1B3
:1034E000C3E8061229F1FEE8061229F1EAEA0612FB
:1034F00029F14BEB061229F12199071229F1809944
:10350000071229F1DA99071229F1489A071229F1CD
:10351000BA9A071229F1F89A071229F1399B071272
:1035200029F135AE061229F13BAE061229F17CAE27
:10353000061229F16EB0061229F1DDB0061229F14A
:10354000ABB1061229F1ECB1061229F11AB206123A
:1035500029F1A4B2061229F1BBB2061229F1C8B2B0
:10356000061229F1D2B2061229F16EB4061229F11F
:103570007EB5061229F1C7B5061229F14EF70512DC
:1035800029F164F7051229F1F7F7051229F123F95A
:10359000051229F118FA051229F1B5FA051229F1D7
:1035A000F5FA051229F173FB051229F1D0FB05127A
:1035B00029F1E0FB051229F107FC051229F15AFC5B
:1035C000051229F1CBFD051229F1D0FD051229F1D3
:1035D000F0FD051229F130DD031229F162DD03123D
:1035E00029F1FBDD031229F154DF031229F137E041
:1035F000031229F1B6E1031229F1D2E1031229F1F4
:1036000021E2031229F1A3E2031229F1F8E20312E5
:1036100029F10BE3031229F16FE3031229F1CAE345
:10362000031229F16FE4031229F166E5031229F16F
:10363000A1E5031229F127E6031229F178E8031224
:1036400029F13CE9031229F160EA031229F1D7EAD2
:10365000031229F105EB031229F1CFEB031229F133
:1036600054EC031229F1A0EC031229F1BAEC031275
:1036700029F103ED031229F119ED031229F1D3ED1C
:10368000031229F1F9EE031229F104EF031229F1D3
:1036900062EF031229F1B7EF031229F115F00312BB
:1036A00029F111F1031229F1B4F3031229F1D3F333
:1036B000031229F1DBF4031229F1FFF4031229F1BB
:1036C00075F5031229F135F6031229F16CF6031290
:1036D00029F1DEF6031229F1FEF7031229F12EF883
:1036E000031229F141F8031229F144F8031229F1D8
:1036F0004DF8031229F15FF8031229F1D0F80312F3
:1037000029F106F9031229F119F9031229F145F9F2
:10371000031229F16CF9031229F190F9031229F12E
:103720002FFA031229F1A1FA031229F1D8FA031290
:1037300029F1E2FA031229F119FB031229F12FFBF7
:10374000031229F14CFB031229F17AFB031229F130
:1037500090FB031229F1A8FB031229F1BAFB031213
:1037600029F102FF041229F113FF041229F19EFF2F
:10377000041229F14CE2061229F18AE2061229F11B
:1037800016E3061229F121E4061229F13DE606129C
:1037900029F172E6061229F164F8011229F1B3F851
:1037A000011229F153FA011229F127FC011229F122
:1037B00069FC011229F134FD011229F13CFE0112CC
:1037C00029F15EFE011229F1BAFE011229F13BFF37
:1037D000011229F19851001229F1BA51001229F170
:1037E0004D53001229F19653001229F10A54001288
:1037F00029F18754001229F1EC54001229F1EF54F9
:10380000001229F13155001229F1A155001229F1B8
:103810005056001229F15356001229F1C8560012D1
:1038200029F10D57001229F10E5B001229F1775C86
:10383000001229F1B55C001229F10B5D001229F18B
:103840005160001229F1CE60001229F1736200125A
:1038500029F1A363001229F1EA64001229F16465D9
:10386000001229F18066001229F12567001229F162
:103870003967001229F10768001229F13569001231
:1038800029F14D6B001229F15F6D001229F13E6E96
:10389000001229F1D970001229F17A71001229F170
:1038A0006972001229F1C375001229F1D375001253
:1038B00029F13877001229F1C977001229F1D1785E
:1038C000001229F15C7A001229F1DA7A001229F14A
:1038D000227C001229F16C7C001229F1457D001236
:1038E00029F10080051229F1A080051229F10A8131
:1038F000051229F12381051229F1BA81051229F156
:10390000FE81051229F12083051229F15C8305123D
:1039100029F1D883051229F12384051229F1828423
:10392000051229F18B85051229F1AE88051229F1BE
:10393000CF89051229F14A8A051229F1318C051225
:1039400029F1D18C051229F1788D051229F1DB8D31
:10395000051229F1508E051229F15F8F051229F108
:103960003390051229F16990051229F198900512FA
:1039700029F14C91051229F17891051229F1F8915C
:10398000051229F17893051229F10495051229F100
:103990004C96051229F1B797051229F1C398051223
:1039A00029F16699051229F1DF99051229F10D9B7C
:1039B000051229F1B2BC041229F115BD041229F136
:1039C0005DBD041229F1A1BD041229F10BBE041240
:1039D00029F154BE041229F18CBE041229F126BF2C
:1039E000041229F180BF041229F1CDC0041229F17B
:1039F00056C1041229F17DC1041229F187C20412B3
:103A000029F172C3041229F1BFC3041229F1BEC403
:103A1000041229F1E6C4041229F12FC6041229F177
:103A200040C6041229F158C6041229F141C70412F4
:103A300029F127C8041229F130C9041229F15AC901
:103A4000041229F172C9041229F18CC9041229F156
:103A5000C3C9041229F1E3C9041229F10ACA0412E4
:103A600029F121CA041229F1FDCA041229F155CB0A
:103A7000041229F1FECD041229F12DCF041229F1EF
:103A800063CF041229F16DCF041229F184CF0412FF
:103A900029F1F1CF041229F1DAD0041229F110D161
:103AA000041229F1E1D1041229F182D2041229F180
:103AB000B0D2041229F1BDD3041229F1DCD30412CF
:103AC00029F15FD4041229F1D0D4041229F114D5BC
:103AD000041229F198D5041229F1F5D5041229F11F
:103AE000A2D6041229F188D8041229F168D9041247
:103AF00029F1BED9041229F11CDB041229F132DDAF
:103B0000041229F1DCDF041229F186E1041229F103
:103B100056E2041229F1CEE2041229F1F0E2041275
:103B200029F1DFE3041229F1CFE4041229F13AE587
:103B3000041229F158EB061229F16CED061229F155
:103B400032EE061229F187EE061229F104EF061271
:103B500029F198EF061229F1B6EF061229F1FAEFD2
:103B6000061229F120F0061229F146F0061229F179
:103B70005EF0061229F176F0061229F1E1F0061244
:103B800029F123F1061229F107FB041229F13FF272
:103B9000061229F15AF2061229F163F2061229F1EE
:103BA0006CF2061229F175F2061229F17FF2061263
:103BB00029F1FCF2061229F194D8061229F1F5DC5C
:103BC000061229F111DD061229F116DD061229F17E
:103BD000E494071229F156F7061229F16CF7061240
:103BE00029F105F9061229F14EF9061229F199CFAA
:103BF000051229F1CAFA061229F1F9FA061229F179
:103C00000BFB061229F1C697071229F10080071253
:103C100029F15C80071229F19C80071229F190811B
:103C2000071229F1B481071229F1C981071229F17C
:103C3000E981071229F12082071229F13182071246
:103C400029F14882071229F16D82071229F1FC82BD
:103C5000071229F1747F001229F10080031229F163
:103C60003380031229F19A80031229F1268103126D
:103C700029F1CD81031229F11582031229F13A822B
:103C8000031229F15382031229F17982031229F1D7
:103C90009B82031229F1D982031229F1288303128E
:103CA00029F15183031229F1B083031229F1898488
:103CB000031229F13F85031229F19D85031229F191
:103CC0006386031229F1AD86031229F104870312DA
:103CD00029F16F87031229F1AD87031229F10388B7
:103CE000031229F11F88031229F14A88031229F1CE
:103CF000598A031229F19F8B031229F1CB8B0312EE
:103D000029F1FF8B031229F1208C031229F12F8C4A
:103D1000031229F13A8C031229F1EA8C031229F1DA
:103D2000598D031229F1068E031229F1428E0312D6
:103D300029F1008F031229F10D90031229F15A90F5
:103D4000031229F1E990031229F14391031229F199
:103D50008891031229F11794031229F17195031226
:103D600029F1BD98031229F19B99031229F1729A46
:103D7000031229F1869A031229F1AF9A031229F14D
:103D8000209B031229F1B69B031229F1299C0312EF
:103D900029F1189D031229F13D9D031229F1A09EDE
:103DA000031229F1BE9E031229F1D19E031229F1BB
:103DB000359F031229F1449F031229F1CC9F03126E
:103DC00029F1E29F031229F1E6A0031229F1F3A0E1
:103DD000031229F1FCA0031229F1F6A2031229F122
:103DE00026A4031229F136A4031229F139A50312DE
:103DF00029F1B5A5031229F1EEA5031229F126A791
:103E0000031229F16CA7031229F147A9031229F122
:103E100028AD031229F13CAD031229F146AD03127E
:103E200029F150AD031229F15AAD031229F164AD05
:103E3000031229F17DAD031229F187AD031229F197
:103E400001AE031229F10CAE031229F13BAE0312AD
:103E500029F163AE031229F16EAE031229F1BCAE53
:103E6000031229F1C6AE031229F1D1AE031229F1D2
:103E7000F5AE031229F119AF031229F176AF03123F
:103E800029F1BCAF031229F1D8AF031229F15FB0B9
:103E9000031229F196B0031229F1D5B0031229F1CA
:103EA00022B1031229F1A4B1031229F150B2031275
:103EB00029F12CB4031229F19AB4031229F1C6B5E1
:103EC000031229F1ECB5031229F145B7031229F1C8
:103ED0009DBA031229F1D6BC031229F1B4BE031214
:103EE00029F14DBF031229F172C1031229F126C233
:103EF000031229F15FC2031229F1C5C2031229F18D
:103F0000CFC2031229F1F9C4031229F1DEC503124D
:103F100029F145C7031229F18DC7031229F141C8C0
:103F2000031229F1E4C9031229F16BCB031229F121
:103F30008BCB031229F1DECB031229F1DECC031265
:103F400029F106CD031229F169CD031229F14CCED6
:103F5000031229F1BECE031229F1D0CF031229F1A9
:103F600054D0031229F152D1031229F1E8D30312DC
:103F700029F107D4031229F152D5031229F120D7D0
:103F8000031229F174D7031229F12CD8031229F155
:103F9000DCD8031229F13FD9031229F104DA031204
:103FA00029F19ADA031229F101DB031229F143DB2B
:103FB000031229F174DB031229F1D4DC031229F175
:103FC0000080021229F13280021229F16B80021264
:103FD00029F16182021229F1A382021229F1878359
:103FE000021229F1DF83021229F12285021229F13E
:103FF0006E85021229F19A88021229F1188C021298
:1040000029F1608D021229F1F68D021229F1028E3A
:10401000021229F1428E021229F1D78F021229F1E0
:10402000CB90021229F1F590021229F14C91021263
:1040300029F1A591021229F11692021229F14B944D
:10404000021229F1E295021229F1B696021229F123
:10405000FD97021229F1559A021229F1269D0212AA
:1040600029F1359D021229F1B99D021229F16E9EA6
:10407000021229F1B19E021229F1FA9E021229F1CF
:104080004E9F021229F1B39F021229F10FA00212D2
:1040900029F12BA0021229F15DA0021229F19CA0A6
:1040A000021229F182A1021229F131A2021229F190
:1040B000B7A4021229F1EDA5021229F1D4A6021229
:1040C00029F154A7021229F161AB021229F19FAB29
:1040D000021229F106AC021229F139AC021229F1BF
:1040E000CCAC021229F1FFAC021229F19AAD0212F6
:1040F00029F1E8AD021229F1BBAE021229F182AF1B
:10410000021229F120B0021229F12AB3021229F178
:104110003EB4021229F1E4B7021229F1E6B8021204
:1041200029F1E9B8021229F118B9021229F117BBD5
:10413000021229F1F0BB021229F115BC021229F179
:1041400031BD021229F1E9BD021229F1A0BF02120C
:1041500029F104C0021229F129C0021229F163C019
:10416000021229F1BEC0021229F19FC1021229F1E7
:104170008DC2021229F1C1C2021229F177C30212C3
:1041800029F188C5021229F1F3C5021229F13BC6B3
:10419000021229F174C6021229F106C7021229F18E
:1041A0005FC8021229F137CC021229F12CCD02127C
:1041B00029F126CE021229F1A3CE021229F175CFE0
:1041C000021229F152D1021229F1E3D1021229F18E
:1041D000E7D2021229F1FBD2021229F10FD3021207
:1041E00029F123D3021229F137D3021229F16DD319
:1041F000021229F19DD3021229F127D5021229F1C9
:10420000E5D5021229F169D6021229F1BAD60212B5
:1042100029F133D7021229F179D7021229F15ED997
:10422000021229F10EDA021229F13EDA021229F104
:10423000FDDA021229F19ADB021229F145DD0212A0
:1042400029F132DE021229F171DE021229F1E3DED8
:10425000021229F128E0021229F1DBE0021229F111
:104260000FE1021229F127E1021229F1CAE102123B
:1042700029F1B8E4021229F183E6021229F1A7E636
:10428000021229F1C5E6021229F199E7021229F179
:10429000C6EB021229F17BF3061229F1BBF30612D9
:1042A00029F187F5061229F196F5061229F199B838
:1042B000051229F15DBD051229F1B2BD051229F1E2
:1042C000F0BF051229F194C1051229F124C205128B
:1042D00029F180C4051229F187C6051229F1DEC62D
:1042E000051229F1D2C8051229F11FC9051229F1B9
:1042F0007DC9051229F19FC9051229F1A6C9051228
:1043000029F1BEC9051229F182CA051229F179CB1A
:10431000051229F19481011229F1D681011229F1A6
:104320002887011229F17487011229F1BA87011235
:1043300029F10789011229F17189011229F1B9893D
:10434000011229F1288B011229F16D8E011229F138
:10435000928F011229F1509B011229F1D99B011270
:1043600029F1419F011229F1A0A0011229F1FBA01E
:10437000011229F143A2011229F12BA3011229F103
:10438000D2A5011229F153A7011229F1E4A70112C4
:1043900029F1E7A7011229F15EA8011229F168A805
:1043A000011229F175A8011229F1A0A8011229F121
:1043B0004FA9011229F13EAA011229F1F7AA01120F
:1043C00029F17AAB011229F198AB011229F1ADABB9
:1043D000011229F1D6AB011229F103AC011229F126
:1043E00040AE011229F11CAF011229F166AF011292
:1043F00029F1F1AF011229F19FB0011229F1D1B0D9
:10440000011229F117B1011229F14AB1011229F162
:104410009EB1011229F1EFB1011229F1F4B101129B
:1044200029F148B2011229F1B1B2011229F17FB389
:10443000011229F1CAB3011229F12FB4011229F195
:104440008BB4011229F127B5011229F181B80112AB
:1044500029F1AEB9011229F14EBB011229F1A4BE16
:10446000011229F13ABF011229F16AC2011229F1A0
:1044700025C3011229F16DC3011229F126C50112CC
:1044800029F13AC5011229F144C5011229F14EC59D
:10449000011229F15AC5011229F179C5011229F138
:1044A000C7C7011229F120C8011229F12AC8011237
:1044B00029F134C8011229F1BAC8011229F10EC933
:1044C000011229F11BCA011229F18BCA011229F12B
:1044D00095CB011229F1DECB011229F185CC011215
:1044E00029F165CD011229F132CE011229F165CFF2
:1044F000011229F1A2D0011229F1A3D1011229F14F
:10450000BBD1011229F1EFD1011229F1F9D1011228
:1045100029F103D2011229F10ED2011229F12CD274
:10452000011229F174D2011229F1D2D2011229F11A
:10453000F9D2011229F10BD3011229F1A6D30112EC
:1045400029F1DBD3011229F1D9D4011229F12FD598
:10455000011229F11ED6011229F154D6011229F1B6
:10456000B7D6011229F12FD7011229F1D4D801129F
:1045700029F1FCD9011229F1DADA011229F1ABDBB8
:10458000011229F12CDC011229F1C7DC011229F1F9
:10459000FCDD011229F18EDE011229F1E2DE0112A9
:1045A00029F14EDF011229F114E0011229F165E031
:1045B000011229F1BDE0011229F18EE1011229F168
:1045C000B1E1011229F160E2011229F182E2011246
:1045D00029F1E3E2011229F131E5011229F134E672
:1045E000011229F1F8E6011229F12CE9011229F151
:1045F00076E9011229F1C1E9011229F11CEA01123F
:1046000029F189EA011229F1B7EA011229F1DBEA5D
:10461000011229F110EB011229F13DEB011229F1F0
:1046200083EB011229F1E1EB011229F135EC0112C2
:1046300029F15FED011229F10CEF011229F155EF7B
:10464000011229F17EEF011229F110F0011229F176
:1046500088F0011229F196F0011229F1BAF0011245
:1046600029F117F1011229F132F1011229F1F3F1C7
:10467000011229F11FF2011229F162F2011229F14E
:10468000C5F2011229F1BDF4011229F1EAF4011277
:1046900029F1DFF5011229F1DCF6011229F17FF78A
:1046A000011229F16999061229F1A199061229F13D
:1046B000C299061229F1069A061229F16A9A06127F
:1046C00029F1749A061229F1849A061229F1BB9AEB
:1046D000061229F1B39E061229F1C1A0061229F192
:1046E000AEA2061229F145A3061229F1E7A306128C
:1046F00029F17380041229F11C81041229F1F3813C
:10470000041229F1FB82041229F11B83041229F1FE
:104710003384041229F1ED85041229F16086041214
:1047200029F1FD86041229F11488041229F18188E7
:10473000041229F1BC88041229F11189041229F10B
:104740004C89041229F19989041229F1298A041249
:1047500029F1B68A041229F18B8B041229F1648C99
:10476000041229F1F28C041229F1128D041229F19C
:104770003F8D041229F1708D041229F1438E041229
:1047800029F1538E041229F1A28E041229F1AF8E61
:10479000041229F1B88E041229F1288F041229F18C
:1047A000888F041229F1D38F041229F1EE8F04129D
:1047B00029F11590041229F13290041229F13E904A
:1047C000041229F1E991041229F10292041229F14B
:1047D0008B92041229F19E92041229F1BD920412C7
:1047E00029F15893041229F1C894041229F16F9603
:1047F000041229F1FE96041229F10197041229F1FD
:104800007197041229F18F97041229F13498041238
:1048100029F17098041229F17398041229F1399939
:10482000041229F19C99041229F1D599041229F155
:104830004A9A041229F1689A041229F1B69A0412CC
:1048400029F18B9B041229F1D99B041229F1279C91
:10485000041229F1B49C041229F1E99C041229F1F3
:104860001E9D041229F12C9D041229F18B9D041226
:1048700029F1039E041229F1449E041229F1949E09
:10488000041229F1BF9E041229F1D99E041229F1C4
:10489000F39E041229F1CE9F041229F1D89F04122D
:1048A00029F113A0041229F123A0041229F12CA04C
:1048B000041229F184A0041229F198A0041229F10C
:1048C000CEA1041229F1E1A1041229F1F8A10412E8
:1048D00029F10DA2041229F19BA2041229F103A3CC
:1048E000041229F1B6A3041229F1C1A3041229F17B
:1048F00011A5041229F12DA5041229F179A504129C
:1049000029F1E8A5041229F121A6041229F13BA6F8
:10491000041229F19BA6041229F13AA7041229F1E5
:1049200085A7041229F147AA041229F1FDAA04124D
:1049300029F18DAB041229F1D5AD041229F1EDADA9
:10494000041229F1F0AD041229F1FCAD041229F191
:1049500010AE041229F118AE041229F14BAE041264
:1049600029F13EAF041229F1C9AF041229F15CB05C
:10497000041229F1D5B0041229F199B1041229F1D8
:10498000BBB1041229F154B2041229F1B1B20412DC
:1049900029F1B4B2041229F1E1B2041229F1F6B2FC
:1049A000041229F170B3041229F1BCB4041229F1E4
:1049B000C7B5041229F152B6041229F157B70412EF
:1049C00029F117B8041229F148B8041229F16EB878
:1049D000041229F177B8041229F1A5B8041229F1BB
:1049E0003DB9041229F1F2B9041229F163BA041293
:1049F00029F10ABB041229F191BB041229F1D0BBA1
:104A0000041229F113BC041229F14DBC041229F13E
:104A1000B0FA041229F104FA041229F13CF8041244
:104A200029F185F7041229F155F7041229F10AF743
:104A3000041229F1A5F6041229F164F6041229F1F1
:104A400044F6041229F176F5041229F103F5041253
:104A500029F1A1F4041229F144F4041229F1B7F266
:104A6000041229F154F2041229F1CEF1041229F1B1
:104A7000C5F1041229F1B9F1041229F186F10412E9
:104A800029F140EE041229F112EE041229F1BFEDD2
:104A9000041229F1A7ED041229F19CED041229F169
:104AA0005BCF051229F160ED041229F135CF051213
:104AB00029F1B9CE051229F173FE041229F128FE5D
:104AC000041229F1BCFD041229F159FD041229F147
:104AD0008EEB041229F177EB041229F1ADEA0412EE
:104AE00029F10AEA041229F12FFD041229F12EE816
:104AF000041229F1D0E6041229F1C5E6041229F1C5
:104B00003DE6041229F1BAF9061229F1F9E5041279
:104B100029F1B3FC041229F1D5E5041229F1B98C6D
:104B2000061229F1728C061229F1118C061229F154
:104B3000DC8B061229F1B18B061229F17D8B06124E
:104B400029F1558B061229F1D88A061229F1C28A59
:104B5000061229F1928A061229F1088A061229F111
:104B60004D86061229F10584061229F1DD8106120F
:104B700029F15F81061229F11081061229F10080C6
:104B8000061229F19D80061229F15E80061229F194
:104B900038F10600000080FBE4738F0001008F1ED7
:104BA000870001008D1E35000400531E2500020001
:104BB000571E26000200591E270002005B1E280017
:104BC0000100651E29000100661E84000400571ABA
:104BD00086000100FD1D2A000100671E2B00010058
:104BE000681E2C0001006E1E2D000800641A2E00A5
:104BF00001006F1E2F000100701E30000100711EA9
:104C000031000100721E320001006C1A33000100F5
:104C10006D1A34000100731E360001006E1A380050
:104C20000100741E390001006D1E830002008B1EFE
:104C300063000100791A64000100691E650001002B
:104C40006A1E6D0001007A1A710008005C1A660085
:104C500001008A1E430001007B1E440002007C1EEE
:104C6000450001007E1E460002007F1E470008002E
:104C7000711A48000100811E4B000100821E0400D1
:104C800001008E1EA1000100921E37000100911E3E
:104C900088000100901E3C0001006F1A3D000100D9
:104CA000751E49000200831E670001007B1A4D003B
:104CB0000200851E4E000100871E4F000200881E64
:104CC0003E0001007A1E51000100761E52000100D4
:104CD000771E53000100791E54000100701A000075
:104CE0000000000000013636010100010201000150
:104CF000030100010401060605020000070100345B
:104D00000801000F090401010D0100FF0E08000059
:104D100017020000190100FF1A0100011B0100FE2B
:104D20001C0100081D0200001F01000120010001FC
:104D3000210200002301000F2402000026010001CF
:104D400027010008280200FF2A0100072B0102406A
:104D50002C0100002D0100012E0100012F0100FF98
:104D600030010B1D310800003A0100083B01000F23
:104D70003C0100013D0100FF3E0400004204000030
:104D8000460400004A0400004E04000052040000E3
:104D9000560400005A0400000103710301030103DB
:104DA00001030103010322030203010310030003B3
:104DB0000003000300030003000300034203000399
:104DC0002403060300030003040312032503230343
:104DD0002503230304030403000300030003440327
:104DE000000300032303000365032100350381034F
:104DF000000305030003000300030003250323034E
:104E0000030271023001600211027002010202020B
:104E100002028002100261023A0041006302730242
:104E20007202620243020002130238000002000212
:104E30000402120200020002000200020402040244
:104E4000370037003C024402000239000002000231
:104E5000650200023502810200020502820283021D
:104E60000002030071003001600011007000310287
:104E70002003500480001000610000001400630053
:104E8000730072006200430000001300060000007F
:104E900000000400120000000000000000000400F8
:104EA0000400370037003C0244000000000000000E
:104EB00000006500000035008100000005000000D2
:104EC00083000000010171010101010111010101D3
:104ED0003101010101018001100161013B00140059
:104EE00063017301720162014301000113010601B4
:104EF0003D01350004011201000100010001000123
:104F000004010401330133013C0144013201360044
:104F1000000100016501000135008101000105016A
:104F2000820183010001030471040204600411047E
:104F30007004020402040104020410046104000469
:104F4000140463047304720462044304000413042D
:104F50000604000400040404120400040004000415
:104F6000000451046400000400040004440400042C
:104F70000004000400046504000435048104640096
:104F8000050400048304000436000100060000004C
:104F90000F0000000000000000000000000003FF00
:104FA000FF00000403FFFF0000FFFF0FF4010005F6
:104FB000C4040320000100000B00000000000000FA
:104FC0000003010F000000000000000000000000CE
:104FD00000000000000000000000000000000000D1
:104FE000000000000000130079381F007F381F8088
:104FF000853800002139010021390200FB37028089
:10500000F537030001380400073804800D38050027
:10501000133806001F3830003D3831003738320071
:10502000493833004F383500553834005B38360086
:10503000613811006D381400733815003138FFFFE6
:1050400000000A0000000200000004000000080048
:105050000000100000002000000040000000800060
:105060000000000100000002000000040000000831
:105070000000001000000020000000400000015966
:10508000430689430883430BA743106F3F0AB94384
:10509000025F430577430765430C41430D4D43646D
:1050A0003B3DFF000007ECFDFDFDECDCDCCCBCACC7
:1050B000AC9C9C8C7C7C6C6C5C5C5C4C4C3C3C2C60
:1050C0002C1C1C00160F00000B150B020002220FF7
:1050D0003300000E0F667A6C636874696D65434F28
:1050E0002E2C4C54645A6967426565416C6C696149
:1050F0006E63653039D0D1D2D3D4D5D6D7D8D9DAEA
:10510000DBDCDDDEDF150AF4D4C0A59582726361B5
:1051100055504900034D4C4651181A25050200010F
:1051200019161816161823030030301618192023E4
:105130001A1C1E30003C40423A3F3F392F47303066
:105140003017181921301B1D1F300C0E020B040BD9
:105150000A0708000F02040201010101090200BE52
:10516000040AE8030000FA06A5500C001E00000027
:10517000000005510E00E8037F001E1E050CFF0411
:1051800004080028040002090809033C0C03050870
:105190000B0300FF0A0C1010C082C0839018CFE4EC
:1051A000F0A3F07CB37D1B7AE97B17123519123D11
:1051B0006B123FBD123D7102673274F212245B74B0
:1051C000FE122AEDE9FF8A08EBFE8C09E9703374C0
:1051D000026A70167908123747E4F50AF50B780A67
:1051E000122A46780A122A4A805374016A6003021E
:1051F000531F79081237477B00EEFAF9123DDD02A2
:10520000531A74016F600874026F600302531FEA3F
:10521000600874036A60030252BA1241DFE9605306
:1052200074036508604D12335D8A0A8B0B780A128D
:105230002A46750A01780A122A4A750A00780A1263
:105240002A4AE509F50A780A122A4AEEF50A780A86
:10525000122A4A90180312286D901DFDE0F97C7106
:105260007D1A901E8B126560123D95740A122A59A0
:1052700002531A7902123747901DFDE0F990180386
:10528000122CD0123D83E9F8901813E0A2E34010ED
:10529000E9700D9018D3E004F06404700312533BDE
:1052A0007403650870769018D4E0F9740129F0E968
:1052B000C39405406712533B806274016A70607446
:1052C000016F790A702C1237477A007B04901C8496
:1052D000E0F91234D7AA18AB19795012624412625D
:1052E0004EE81277107900901C37126560123E2547
:1052F0008044123747901E6112286D7A007B2090FF
:105300001808E0F91234CB7404122A59901DFDE0FC
:10531000F9901803122CD0123DBFE9F8E8601790FD
:10532000817312286D7A017B00901808E0F912341D
:10533000CB7404122A597402027B74901803E4F0AF
:10534000A374F8F0A374FFF0A37407F02274F612AC
:10535000245BE9FFEAFE7AD1F91233818A828B83DA
:10536000E5824583702A7A027B00123363EA4B7030
:105370000E7A107B00901808E0F91233A580148A89
:10538000828B8374D1F0EFA3F0EEF912336F8003B8
:10539000EFA3F002559C74F712245B89089004D1A6
:1053A0001278B3901E49E0F47003A3E0F4703090DB
:1053B00009D3E0901E49F0A3E4F080238E828F830E
:1053C0001264E3600F8E828F83A3A31264E0FAA9B4
:1053D000081237DD8E828F831264D2E8FEE9FFEE79
:1053E0004F70D9901E49E0F47003A3E0F4600A9076
:1053F0001E49E0FAA9081237DD12447F9017D31234
:105400005CAF1244797F010226E974F012245B89B3
:105410000B8C0C7509007508007410122CFF1264B7
:10542000D27412122CFF12564A80471254D3F50E32
:10543000A3E0F50FAE08EE2EFEE433FFEA2EF58270
:10544000EB126B26650E7004A3E0650F7019AE09B0
:10545000EE2EFEE433FFEC2EF582ED3FF583E50EF4
:10546000F0A3E50FF00509050AE50AC3950C40BB5A
:105470000508E508C3950B5005750A0080EBA909DE
:1054800080007F080226E974F412245B890B7D00FA
:10549000740C122CFF1264D280010DEDC3950B50D9
:1054A0002E750A008002050AE50AC39C50ECED2522
:1054B000E0FEE433FFEA2EF582EB3F1276ED125464
:1054C000D365087004A3E0650970DB790180027977
:1054D000008014AE0AEE2EFEE433FFE82EF582E9DA
:1054E000125C4C22122A597F040226E90229EE742A
:1054F000F612245B1255867003A3E06D70177508D1
:10550000117509187808122A46EEFA123927740222
:10551000122A59801A7508027509807808122A46DD
:105520008A0889097808122A46125573122A598066
:105530006B74F612245B1255867003A3E06D70172E
:1055400075081E7509187808122A46EEFA12392DC8
:105550007402122A59801A75080375098078081296
:105560002A468A0889097808122A46125573122A8F
:10557000598029EE127B4E125C4CFD7C801267D85C
:1055800012394B740422EAFEEBFF1267EDFCE4399A
:10559000FD9017D3E06C227402122A597F02022672
:1055A000E974F612245B74FE122AED8A088B0985D1
:1055B0001882851983E4F0A3F01260C8126926FBF3
:1055C000ECFA88828983A3A3E0F97F007E0060055E
:1055D00074FF6970047E8280459017D3E06A70037F
:1055E000A3E06B701AAA18AB19124B45E9FA85189B
:1055F0008285198312671F70027E83EAFF801F90E5
:105600001E8DE060046401700E123CF3E960047EBC
:1056100089800B7E818007E0640270027E801256D2
:1056200044EEF9AA08AB09123933EF6014851882E9
:1056300085198312671F6009851882851983127185
:1056400073025597851882851983E0FCA3E0FD223B
:105650000229EE74F212245BEAFEEBFF7508007576
:1056600009001267E9F50AE439F50B12447FEA658F
:105670000A7003EB650B7012124B33E914F50879CD
:10568000017A9B7B18124B2D8003750980126B20C9
:10569000F50C780C122A4A750C9B750D18780C12B3
:1056A0002A467808122A4A780A122A46E509F50895
:1056B0007808122A4A12654F126B23F97A057B800B
:1056C0001239397407027B7474F612245BE9FF7E89
:1056D0000080328A828B83E0F508A3E0F8E4C8F901
:1056E000E50828E439F509EE25E0F8E433F9EC287B
:1056F000F582ED39F583E508F0A3E509F0EA240227
:10570000FA50010B0EEEC39F40C902559C74E8127B
:10571000245B74FE122AED8A108B11750F00851818
:1057200082851983E4F0A3F0F516F51712639E3510
:10573000111278A9127D29FA8E828F83A3A3A3E088
:10574000F9EAF508E439F509AA0AAB0B12451BE999
:105750006401702B127503122A4AE4F508F50978E2
:1057600008122A467808122A4A780A122A46750828
:10577000807808122A4A125AF0122A59025AD9AAD3
:105780000AAB0B12451BE970419017D3E0650A7014
:1057900004A3E0650B6033901E8DE0640270281254
:1057A0007503122A4AE4F508F5097808122A4678A2
:1057B00008122A4A780A122A467508807808122A9E
:1057C0004A125AF0122A59025AD98E828F83A3A301
:1057D000A3A3E0F50BEE2405FE50010FE50B602AB4
:1057E000127BED851882851983EAF0A3EB126B3DDD
:1057F000E8496016125644EEFAEFFBA90B1238196D
:105800008A0C8B0DAE0CAF0D8003750B00127C0360
:10581000601A127BED8A168B17EA4B600FAC16AD3F
:1058200017EEFAEFFBA90A1238198003750A0090E7
:1058300004D180508E828F83A3A3A3A3A3A3A3A389
:10584000E4F0A3F0EEFAEFFB851482851583A3A3A1
:10585000E0F81264E0F912336F851282851383E059
:10586000C0E0A80F749B28F582E43418F583D0E0DB
:10587000F0050FA2005007AA12AB1312340B8514C7
:1058800082851583E0F514A3E0F515E51445157040
:1058900003025A578514828515831264E360DF85FD
:1058A0001482851583A3A3A3A3A3A3A3A3E0A2E0CB
:1058B00050CC851482851583A3A3A3A312671F85EB
:1058C0001482851583A3A3601E1264E5FA7901850D
:1058D0001482851583A3A3A3A3125AE3124B988ABB
:1058E000128B13D2008010125AE3A3A3A3A3E0F5F6
:1058F00012A3E0F513C200E51245137003025873BA
:10590000851282851383A3E065087004A3E065090E
:10591000600F74FF6508700474FF65096003025826
:1059200073851282851383A3A3A3A3A3A3A3122821
:1059300071851282851383A3A3A3A3A3A3E0FC74A0
:1059400002122CFF126560A90B1237EF7402122AA3
:1059500059E97038851282851383A3A3A3A3A3A357
:10596000A3A3A3A3122871851282851383A3A3A3E3
:10597000A3A3A3A3A3A3E0FCAA16AB17A90A1237FB
:10598000EF7402122A59E97003025873E50A250BD5
:10599000C333240AFA7B001233638A0C8B0DAE0CDE
:1059A000AF0DEA4F70030258598A828B8374D2F08C
:1059B000851082851183A3A312625DA3A3E81277E9
:1059C000108A828B83A3A3A3A3E50B127D3AE50B78
:1059D0006033EA240AFAE43FFB8E828F83125CAACA
:1059E000851882851983E0F50CA3E0F50D750E008E
:1059F000780C122A42AC0BEC2CFCE433FD127D2314
:105A0000122A59800D8A828B83A3A3A3A3A3E4F057
:105A1000A3F0E50A7003025834A80BE828F8E43331
:105A2000F9EE28F8EF39F9E8240AFAE439FB8E8216
:105A30008F83A3A3A3125CAA85160C85170D750E80
:105A400000780C122A42AC0AEC2CFCE433FD127DE7
:105A500023122A59025844E50F6025127503122AB1
:105A60004A75089B7509187808122A46E50FF5084B
:105A70007808122A4A9017D3122871750800802DD1
:105A8000E510240BF582E43511F583E0702A1275D8
:105A900003122A4A75089B7509187808122A467558
:105AA00008007808122A4A9017D312287178081231
:105AB0002A4A125AF0122A598518828519831267C8
:105AC0001F6009851882851983127173E5164517C1
:105AD0006007AA16AB1712340B7402122A597F10F2
:105AE0000226E9125AE722E0F8A3E0F58388822231
:105AF000E5102402FCE43511FDE5101264C93511EE
:105B0000F583E0F97A067B8012393974072274F440
:105B100012245B74F4122AED8A088B09ECFEEDFF67
:105B2000740B122CFF7403F0122AAF12351912668F
:105B3000747403122AAF123513E9600A125C4060D4
:105B400010E06401600B8518828519837484025CFF
:105B5000098E828F83A3A3A3A3A3A3A3A3E06013AF
:105B6000F46010125C407016EE2414126B23600374
:105B7000F4700B8518828519837482025C0912788F
:105B80009DE064217002A3E0705585188285198319
:105B9000748C12626DE0F50A780A122A4A125C517E
:105BA0001240CB7401122A59E9705F851882851959
:105BB00083E4F0123723125C40704F7401122AB74D
:105BC000EE240BFAE43FFB1240E9E9703D7D007CD6
:105BD000007900EE240BFAE43FFB1238F1802BEE43
:105BE0002414126B23F50A780A122A4A125C511205
:105BF00040D17401122A59E98518828519837007EA
:105C0000E4F012372380037488F01274BEF50A782A
:105C10000A122A4A7401122AA7880A890B780A12E2
:105C20002A46E508126D5935091262554480F50B74
:105C3000780A122A46126656122A59740C0254E443
:105C4000EE2413125C49640322F582E43FF583E0FD
:105C500022EE240BFCE43FFD8E828F83A3A3A3A33B
:105C6000A3A3A3A3A31274F38E828F83A3A3A3A3DE
:105C7000A3A3A3A3E0F922C082C08374F3122AED88
:105C8000851882851983E4F004122CFF125CAF742E
:105C900003122CFFAA82AB83123C7BAA18AB191209
:105CA0003CB7740D122A59026732A3A3A3A3A3EA37
:105CB000F0A3EBF02274F612245BEAFEEBFFEA2479
:105CC00013126B23F8A3E0125CFCF8901819E0584B
:105CD000F508A3E059F509E5084509601C780812A4
:105CE0002A469017D3122871126B20FD7C00126790
:105CF000D41239457404122A5902559C8882F583BE
:105D0000125D0422E0FAA3E0F9EA2274EA12245BAD
:105D100074DB122AED8A148B157512007513007549
:105D20000A0012639E3515F5831264E5F50EAC1872
:105D3000AD197A007B00799C123DF5901E8DE060D4
:105D400004640170147A047900123CE1EAF50A85D2
:105D50001882851983E02A80088518828519837442
:105D600001F0E0F8E50EC3984003025F5DE0C395E3
:105D70000EF509C394044003750903E50975F01A8B
:105D8000A4FAABF01234058A128B13EA4B700302AB
:105D90005F60750B00AE12AF13850E08025E257CA6
:105DA000087D0079FFEE240AFAE43FFB12334B85AD
:105DB0000C82850D83A3A3A3A3E0702D850C82859F
:105DC0000D8312671F70091276CA126004E48010F6
:105DD000125FE1F0901C4AE014C0E0125FC8D0E00E
:105DE000F0125FCC1260138032901C4AE004C0E0D5
:105DF000125FC8D0E0126040C39403EE4003025E1D
:105E0000A61277A7740212604064017003025EB3A9
:105E1000EE2415125FE4125FF57401F0EE241AFE11
:105E200050010F050BE50BC395094003025F12E516
:105E300008C3950A4003025EBCAA087B00123D23FA
:105E40008A0C8B0D0508901C37126026850C828504
:105E50000D83125FEDF0A3E9126018125FC874FFA2
:105E6000126045A3A3A3A3A3A3E0C0E0125FB6D032
:105E7000E0F07401122CFFE4F0850C82850D831292
:105E800064D27402122CFFE81277107401122AAF48
:105E9000123CA5E964016003025D9F7404122CFFAB
:105EA000125FD2025DAF125FE212604064036003D2
:105EB000025E10EE24151276CD025E16E50AC39539
:105EC0000E40057508008051E50EC3950AF508805F
:105ED00048EE24151276CD126013F0901C4AE0149F
:105EE000C0E0125FC8D0E0126018741D122CFFE0F1
:105EF000C0E0125FB6D0E0F0125FC012671D7005FF
:105F00001276CA8003125FE1F0EE241AFE50010FF0
:105F1000050BE50BC395095047740E122AB7AA0862
:105F20007B007987123DF505087418122CFF12606A
:105F3000267410122CFF125FD2740E122CFF125F07
:105F4000ED127710901E8DE0600464017083125F83
:105F5000CC125FF5740312600474FF808A75090027
:105F6000750A00780A122A4A7812122A467809120B
:105F70002A4AE50EF5097809122A4A7405122CFFFF
:105F8000E0FD7C00E5141264C03515FBE5141264D5
:105F9000C53515F583E0F91239817405122A59E5E2
:105FA0001245136007AA12AB1312340B7425122A80
:105FB000597F0E0226E9EE2419F582E43FF583228B
:105FC000EE2412F582E43F221260092212772E7429
:105FD0000222AC82AD83EE240AFAE43FFB123519AB
:105FE00022EE2414F582E43FF583740122126B48FB
:105FF000127724E822125FF922F0EE2416F582E4EB
:106000003FF58322F012600922EE2418F582E43F66
:10601000F58322125FF9E422F0EE2417F582E43FC3
:10602000F5837402F022126B488E828F83E8F0A30E
:10603000E9F07C4B7D1CEE1264C03FFB1235192247
:10604000126045E022F0850C82850D83A3A3A3A3F3
:106050002274F612245B74F9122AED1260C4127DC8
:10606000EC851882851983122CE88E828F83A3A376
:10607000A3A3E0C0E07404122CFFD0E0127B2DF843
:106080007405122CFF7401F07406122CFF7401F0D9
:106090009017DDF09017E6041277C3FAA3E0FB90A7
:1060A00017DE125CAFE89017E7F0127B3FE0901725
:1060B000DCF0AA18AB19123D89E96003123D8F7418
:1060C000070255998A088B09127B8E35092274F2D2
:1060D00012245B74FF122AED7508007E007F001207
:1060E00043958A0A8B0B126238800505081264CF2B
:1060F000E84970F7901E8DE060076401600302615B
:10610000AE12623880031264CFE849602D8882891C
:1061100083126560901C37E06A7003A3E06B600A2D
:106120001264D6126560EA4B70DC88828983126241
:106130004EE0687003A3E06960747A167B00127AFF
:10614000BF606B901C3712625DE8127710901C2CB8
:10615000126E38F0124503E98E828F83A3A3A3A3A6
:10616000A3F0901E67E08E828F83A3A3A3A3A3A3B3
:10617000F07C4B7D1CEE240B125FD9AA18AB197969
:1061800041126244E060089017D31264D280047810
:10619000FE79FF8E828F83A3A3A3A3A3A3A3E8F01A
:1061A000A3E912626D1262658E0A8F0B05089017C3
:1061B000E7E0F8E508C398500479008029E508C3B2
:1061C00098F9C39406400279057800800FE50A2407
:1061D00014F582E4350B126255F50B089017E7E0D1
:1061E000FAE8C39A40E77509007809122A4A780A42
:1061F000122A46E9F5097809122A4A9017E7E0F5CC
:10620000097809122A4AAD087C007ADE7B179017BC
:10621000DCE0F912397B7405122A59901E8DE0607A
:10622000046401700BEE4F6007EEFAEFFB12340BC3
:10623000123D8F7401027B741243958A0C8B0DA85A
:106240000CA90D22123B5B85188285198322126BE3
:1062500048901C3722F583E0F50AA3E022126B4830
:106260008A828B8322E50AF0A3E50BF022F0EE127E
:1062700077AB2274F012245B74FF122AED8A0A8B2A
:106280000B7E008E0E8E0F12639E350BF58312640B
:10629000E5FFAC18AD197A007B00799D123DF585BC
:1062A0001882851983E0F8EFC3984003026348E041
:1062B000C39FFEC3940B40027E0AEE75F007A4FA5A
:1062C000ABF01264B88A0E8B0FEA4B6079750C0044
:1062D000801A850882850983A3A3A3A3A37403F06E
:1062E000E5082407F50850020509050CE50CC39ED6
:1062F0005056AC08AD09E50C2FFAE43400FB798B5D
:10630000123DF5850882850983A3A3A3A3A3E01406
:10631000600814601314601F80B8850882850983A3
:10632000A3A3A3A3A3E480B7850882850983A3A3BD
:10633000A3A3A3740180A8850882850983A3A3A3CE
:10634000A3A3740280997E007508007808122A4A77
:10635000780E122A46EEF5087808122A4AEFF50858
:106360007808122A4A7405122CFFE0FD7C00E50A29
:106370001264C0350BFBE50A1264C5350BF583E0EA
:10638000F91239877405122A59E50E450F6007AADC
:106390000EAB0F12340B7401122A59025482EA1206
:1063A0007B8F2274EE12245B74FE122AED8A0C8B12
:1063B0000D75100075110012639E350DF583126482
:1063C000E5F50AAC18AD197A007B0079A31240D725
:1063D0008518828519831264D2C3E50A98E499501E
:1063E00020851882851983A80AE0C398FEA3E0944B
:1063F00000FFC3EE9404EF940040617E037F0080B1
:106400005F7E00750B00EEF97508007808122A4AC5
:106410007810122A46E9F5087808122A4AE50AF5A2
:10642000087808122A4A7405122CFFE0FDAC0BE52F
:106430000C1264C0350DFBE50C1264C5350DF583F7
:10644000E0F912398D7405122A59E51045116007DB
:10645000AA10AB1112340B7402027BC7EE4F60A37B
:10646000EEFAEFFBEA75F015A4FAA8F075F015EB5B
:10647000A4281264B78A108B11EA4B6032750B00A6
:10648000750E00C3E50E9EE49F4003026406AC084F
:10649000AD09A80AE50E28FAE43400FB79A21240FF
:1064A000D7E5082415F50850020509050E80D475B6
:1064B0000BB57900026408FB1234058A088B0922A7
:1064C0002402FAE4221264C922240FF582E4221283
:1064D00064D6126B4822E82414F582E439F583224D
:1064E000125AE9A3A3125AE7E02274F612245B744D
:1064F000FF122AEDEAFEEBFF12670B1265608A823B
:10650000F583A3A3A3A3A3A3A3A3E0F9123DADE93D
:10651000851882851983F07508007808122A4A7454
:1065200001122AA7880889097808122A46750835B1
:106530007509807808122A46126543122A59740197
:10654000025599790112654FFAE43F12666D22EE09
:106550002402FCE43FFDEE240F2285188285198376
:106560001274F32274F412245B74FA122AED12608E
:10657000C41278B1EEFAEFFB123C81E9600F1266AB
:1065800074EEFAEFFB123513E964017013901E8D5F
:10659000E070030266517401122CFFE4F0A380093D
:1065A0007401122CFFEEF0A3EFF0901E8DE0640258
:1065B0007017850882850983A3A3126B36E0687083
:1065C00003A3E06960030266518E828F83A3A3A3B5
:1065D000A3A3A3A3A3E0FEA2E650087403122CFF1A
:1065E0007401F0EEA2E750087404122CFF7401F05D
:1065F0007405122CFFE412692DF0F50A780A122AAC
:106600004A7401122AA7880A890B780A122A467549
:106610000A34750B80780A122A46126656122A59D5
:10662000908147122CD012449D7A007B001244A91D
:106630007A007B001244A37401122AAF123DE3EEEC
:10664000A2E7400D7401122CFF12671F7003124A5B
:106650009174060254E47901E5082402FCE435094A
:10666000FDE508240FFAE4350912666D22FB1238A5
:10667000E57405221244798A0A8B0BAC0AAD0B2211
:1066800074F612245B74FF122AEDEAFEEBFF901EF3
:106690008DE07011901E6CE0700B8A828B83A3A337
:1066A00012671F706312670B1264E5F50874FF65CB
:1066B0000870037508FEA908123D9BE985188285BC
:1066C0001983F01241DFE96005A908123A53901EC0
:1066D0008DE07005A908123A53EE240B126B23705B
:1066E000277508007808122A4A7401122AA7880818
:1066F00089097808122A46750836750980780812C3
:106700002A46126543122A5902653EEA1267102290
:106710002413F582E43FF58322F582E438F58312F1
:106720006B48E84922C082C083901E8DE07003123E
