:020000040000FA
:10000000021305022003FFFFFFFFFF02200BFFFF8B
:10001000FFFFFF020E67FFFFFFFFFF02201BFFFF36
:10002000FFFFFF022023FFFFFFFFFF02202BFFFF48
:10003000FFFFFF022033FFFFFFFFFF020EAAFFFFBB
:10004000FFFFFF022043FFFFFFFFFF02204BFFFFE8
:10005000FFFFFF022053FFFFFFFFFF02205BFFFFB8
:10006000FFFFFF022063FFFFFFFFFF02206BFFFF88
:10007000FFFFFF022073FFFFFFFFFF02207BFFFF58
:10008000FFFFFF022083FFFFFFFFFF02208BFFFF28
:10009000FFFF70DFFFFF040000000002000000C847
:1000A0000300030369A5020269A501000000000026
:1000B00004003273000074F812104C900393E06057
:1000C0001590030274FEF0900304744DF0A37405C0
:1000D000F07A0112068C7F0102116974F712104C3C
:1000E00074FF1212717E00801F851882851983E0CB
:1000F00064FE70069003877401F085188285198369
:10010000E0F8900384E068F07C017D00AA18AB1948
:10011000120E228B09EA450970030201F385188249
:10012000851983E064EF70027E07E0C0E0900387EA
:10013000E0FA900385E0F8EA28F8E43400F9740264
:1001400028F582740339F583D0E0F0900387E060EE
:100150009814600E14602C14603C14605214606893
:100160008098900384E4F0851882851983E09003D9
:1001700086F0C394809003874004E40200F974027F
:100180000200F9851882851983E0900382F09003BC
:100190008774030200F9851882851983E090038330
:1001A000F0900386E0601990038774040200F990D0
:1001B0000385E004F0F8900386E06860030200FA2B
:1001C00090038774050200F9900385E4F09003879B
:1001D000F0900384E0F8851882851983E068600355
:1001E0000200FA900382E0644D60030200FA1203F9
:1001F000288002EEF9740112123D7F020211697427
:10020000F712104C74FB121271EAFEEBFF75080432
:1002100075090078081212D574021212EE7A907BDA
:10022000007904120ECB740212123D12067E1213D4
:100230003FE0687003A3E069701285188285198316
:10024000E0F47003A3E0F4600302030874041212E4
:10025000E61206E48A088B09A808A9097402121399
:100260003FE8F0A3E9F0740412133FE0600879015D
:100270001200B6020321851882851983E068700395
:10028000A3E0697076851882851983E0F47003A372
:10029000E0F47019740212133F7410F0A37420F08C
:1002A0008518828519837410F0A37420F0750801F5
:1002B00075090078081212D574021212EE7A247BA6
:1002C00008120F4F740212123D75080478081212BA
:1002D000D574021212EE7A907B007904120ECB7460
:1002E0000212123D12067E12133FE0687003A3E073
:1002F000697004790280067904800279031200B6DD
:100300008E828F83741E80058E828F83E4F01206A6
:100310007E12133FE0687003A3E0697004790180E6
:1003200002790074050201F774E912104C74F81296
:100330001271900307E0FA900306E0F9FEEAFCE48C
:10034000CCFDEE2CED3408FF751001750F00750E15
:10035000068E088F097402780812129CC39508FC57
:10036000E49509FD74022CF51474033DF515E514AC
:100370002497F516E5153420F517EE2410F508E45A
:100380003FF509EEF50CEF5401F50D8E128F137445
:100390000978121212F685120A900383E01460574E
:1003A00014700302046F1470030204E61460102436
:1003B000FE70030205A11470030206510206617566
:1003C0000E03794E120C619003071206747402F04A
:1003D000A374401206727408120672F0A3F0741827
:1003E000C3940704F510AA10A90F12068CA90E7465
:1003F0000812123D02083E750E04794E120C61EE91
:10040000450D7005A90A120FB5C3EE9425EF9408A7
:10041000503FC3E5089424E50994084034E51424CA
:1004200096F8E5153420F988828983E0701E8516D8
:1004300082851783E070159003887401F0888289A3
:100440008374A5F08516828517838004900388E461
:10045000F075081075090078081212D57C087D0324
:10046000EEFAEFFB120F4F740212123D0203E67513
:100470000E05C3E50A947995E04006750F01020365
:10048000E675104075110078101212D57C097D03B5
:100490007402780C12129CAA0CAB0DA90A120ECB96
:1004A000740212123D900307E0A3F0900306E0A34C
:1004B000F0751043C3EE9425EF940840030203E661
:1004C000C3E5089424E509940850030203E6900369
:1004D00088E070030203E6A816A91788828983E4DE
:1004E000F0A3F00203E675080475090078081212FB
:1004F000D574021212EE7A907B007904120ECB743E
:100500000212123D740212133FE0F8A3E0F98518BD
:1005100082851983E0687003A3E0698518828519D4
:1005200083700BE0F47003A3E0F470578009E0F4EB
:100530007003A3E0F4700D8518828519837410F0A0
:10054000A37420F012067E12133FE8F0A3E9F075C1
:10055000080178081212D574021212EE7A247B0870
:10056000120F4F740212123D75080478081212D54A
:1005700074021212EE7A907B007904120ECB740290
:1005800012123D12067E12133FE0687003A3E06969
:100590007006750E010203E6750E02750F07020361
:1005A000E6900391E06007640260030203E6EAFF5D
:1005B0007A01790012068CE060030206458003127E
:1005C0000D22120D2CE970F7740412133F12066607
:1005D000740412133F780812132385080C85090D43
:1005E000850A0E850B0F9005A2780C1212C27404B6
:1005F00012133F780C121314E5084509450A450B00
:1006000070CE8EC2E5C554E04FF5C5740412133F99
:10061000120666740412133F780812132385080C1F
:1006200085090D850A0E850B0F9005A2780C121214
:10063000C2740412133F780C121314E508450945DF
:100640000A450B70CE7A01790012068C79080203F4
:10065000EFE9900393F070030203E6750E090203BD
:10066000E679060203EFE4F0A37426F0A3E4F0A316
:10067000F022F0A3E4F0A3F0A3F0A3F0A3228518E6
:1006800082851983E0F8A3E0F974022274F812104D
:100690004CEAFE900305E0D2E7F0E9A3F0EE900308
:1006A00003F08E0874042AFE7C028004E062080CC9
:1006B000ECFA3395E0FB74022AF58274033BF58370
:1006C000EEF8C3EA98EB9400A2D265D03340DDE5A2
:1006D00008F074012A0C3395E0FD7A027B03120EB8
:1006E000520200D674E912104C7582007583FE1216
:1006F00012048A168B177514007515008A828B8375
:10070000E4F0900391E07006D2AAD2AF80046402B4
:10071000700579001200B6750C00750D20750E007D
:10072000750F00900391E0600464027015120D22B1
:100730001200DBE9F87409686003020814790012FA
:1007400000B675080075090278081212D5740212F5
:1007500012EE850C08850D09AA08E5095407FB85EA
:100760000E0A850F0B740B7808121258A908120E86
:10077000CB740212123D7E007F009005AAC0828ECB
:1007800010EFF5113395E0F512F513850C08850D82
:1007900009850E0A850F0B780879101212AF9005A3
:1007A000A678081212C2758305D08278081211E566
:1007B000501D851882851983E5822EF582E5833FD9
:1007C000F583E0F9AA14AB151208438A148B150EB1
:1007D000EE70010FC3EF940240A09005AE780C12AA
:1007E00012C29005B2780C1211E54003020723797A
:1007F00000AA14AB1512084379001208438B159018
:100800000391E07004C2AFC2AAEA451570277AA529
:100810007BA58021E870030207427406687003021A
:1008200007427407687003020742851682851783A2
:100830007401F080BA7582007583021212047F1071
:10084000021169C008C0097C088A088B09740F78F6
:10085000081212F6E508F8EA25E0FAEB33FBE9A204
:10086000E7500474014AFAE8A2E0500874216AFAD9
:1008700074106BFBE9C333F91CEC70CDD009D008C0
:100880002274F812104C78007900802274942EF5AE
:1008900082E43403F583E08A828B83F0900414129F
:1008A0000A014005900414E4F008E870010990047E
:1008B00014E0FEA3E06E6007C3E89CE99D40CDE82C
:1008C000FAE9FB7F0102116974F712104C90049849
:1008D000E0F509A3E0F508F8E509C398F895E0F913
:1008E000E508C39509E8500B120AE3701178007906
:1008F00000801B247F500109C39CE99D50EF7A00C2
:100900007B008041E004F0D2E908E8700109C3E807
:100910009CE99D502C8A828B83E0C0E0900499E092
:10092000FE74182EF582E43404F583D0E0120AD365
:1009300090049AE4F0900499E0C3947F40C6E48068
:10094000C5E8FAE9FB7F02021169C082C083C2E9EF
:10095000900498E0F8A3E0686017741828F582E422
:100960003404F583E0F5C1900498120AFA4002E4D9
:10097000F0020D4074F812104C7800790090051DBB
:10098000E07055A3E0705175F900C28FC284A28354
:1009900040FCA28F4004A28350F8AEF9C28FA2831C
:1009A0005004D2848032EEC0E0E0FE1209F6D0E0BE
:1009B000F090051E120AFA40D9E4F080D51209F62B
:1009C000E08A828B83F090051D120A014005900594
:1009D0001DE4F008E870010990051DE0FEA3E06E3B
:1009E0006007C3E89CE99D40D4E8497006E4F090B4
:1009F000051DF00208BF749D2EF582E43404F583D2
:100A000022E004120AD7C394802274F812104C908A
:100A100005A0E0FEF890059FE0FFEEC39FE0500DBB
:100A2000C398F895E0F9120AE270188012C398F89A
:100A300095E0F9E8247F500109C39CE99D4004EC4E
:100A40004D70077A007B00020AD08A828B83E0F522
:100A5000F9A3AA82AB83780179008008E004F0084A
:100A6000E8700109C3E89CE99D50278A828B83E0E6
:100A7000C0E09005A0E0FE741F2EF582E43405F579
:100A800083D0E0120AD39005A0E0C3947F40CDE468
:100A900080CCC28FA28340FCC284A28F4004A28378
:100AA00050F890059F120AEDE0F5F9C28F90059F6E
:100AB000E0FAA3E06A90059F7005120AED80051226
:100AC0000AFA4002E4F0A28350D0D284E8FAE9FBAB
:100AD0000208C3120AD722F08A828B83A3AA82ABB0
:100AE0008322E824FF18E934FFF9E84922E0FA7488
:100AF0001F2AF582E43405F58322E004F0C39480D4
:100B00002274FB121271C2009005CA7808121323D6
:100B10009005CA7401F0A3F0A37469F0A374A5F062
:100B20009005B678081212877004D20080159005DF
:100B3000BA78081212876008E59D54186410700393
:100B4000022000120C87A2005003020C04AA18AB6A
:100B5000191201FFE97003020C04851882851983BC
:100B6000E0C3943C500CE0F8743CC398FA95E0FB69
:100B700080047A007B00120D45E97003020C04909A
:100B80000391E06401700C75F800C2AB539AF7D280
:100B9000EA805E79071200B68003120D22120D2C36
:100BA000E970F7740112133FE4F0A37426F0A3E494
:100BB000F0A3F0740112133F780812132385080C78
:100BC00085090D850A0E850B0F9005A2780C12126F
:100BD000C2740112133F780C121314E5084509453D
:100BE0000A450B70CE758600C2AAC28B539AFBC20F
:100BF000E990000174CDF0022000C2AF75C9AB7559
:100C0000C95B80FE750800750900750A00750B0048
:100C1000900391E0701BD2AAD2AF79051200B6E022
:100C20007003120D221200DBE9F874096870098064
:100C3000E9794E120C6180ED74016870E2E0701782
:100C4000120D229005BE78081212C29005C27808D3
:100C50001211E550EBC2AAC2AF75C9AB75C95B8072
:100C6000FEC082C08378109005A1E0C3995015752D
:100C7000B60FE5B4A2E750FAE5BBC39940F118E816
:100C800070EDE9F0020D40C082C08353BEFBE59DCC
:100C9000A2E650FA0078F8790100120AE270FA75BB
:100CA000C6807480659E70FA43BE049062707408BA
:100CB000F0794A120C6190000174F5F07403F5D5D7
:100CC00075D489A2A0E433900391F0A2E05029D218
:100CD0008453F3F753F3EF53FDF743FD10538FF7AE
:100CE00053F7DF43FC2043F10253F5DF75F820434F
:100CF000F4F0D2FED2AB802853FF3F85FFFF53F1C3
:100D0000FE43F30C53F2F375868075C48090049B08
:100D1000E4F0A3F075C2D875C50B75C402438640D4
:100D2000801E800312094AA2E940F922C082C083D2
:100D3000900498E0F8A3E0686004790180027900EB
:100D4000D083D0822274F112104C74FF1212717E83
:100D500000900391E06401706CC28490039274016E
:100D6000F07508388E098E0A8E0B7C017D00AA185A
:100D7000AB19120E228B0DEA450D6018851882857D
:100D80001983E06410602DE064EF70088E088E090E
:100D90008E0A8E0B85080C85090D850A0E850B0FB2
:100DA0009005A278081212C2E50C450D450E450FBC
:100DB00070347E01900391E064017056D2849003F8
:100DC00092E4F08051D2AAD2AF8A088B09E4F50AE6
:100DD000F50B9005C6780C1213237808790C120FC6
:100DE000CC79061200B6900391E06003020D6A12FE
:100DF0000D221200DBE9F874096870077906120009
:100E0000B680917407686084E8608974066870A48D
:100E10008082C2AFC2AAEEF9740112123D7F0802AD
:100E20001169C082C083900391E07005120881802F
:100E30001E900392E06015A28F500BE5F98A828B19
:100E400083F07A0180027A007B0080031209740229
:100E50000D40C082C083900391E070051208C880E5
:100E600003120A0A020D40C0E074F21210B29000A0
:100E700001E064CD7005122013802AE064F570242F
:100E8000E5C1C28BC0E0900415E0F8749428F582A7
:100E9000E43403F583D0E0F0900415120AFA40051B
:100EA000E4F08001007F01021111C0E074F2121021
:100EB000B2900001E064CD700512203B800BE0642D
:100EC000F5700512094A80010080DA74F612104CA0
:100ED000890A740F550AF508750900740B78081211
:100EE000129CEA2400F8EB3480F9E82400E9350983
:100EF000F985C709A2AFE433F508C2AFE50AC454C7
:100F00000FFAE5C754F84AF5C7740A12133FE0FA1E
:100F1000A3E0FB801C88828983E08C828D83F0882B
:100F2000828983A3A882A9838C828D83A3AC82AD9E
:100F300083EAFEEBFFEE24FF1AEF34FFFBEE4F7067
:100F4000D48509C7E508A2E092AF7F030211697456
:100F5000F712104CED900389F0ECA3F0A37462F04B
:100F6000A37473F0A3E0541FF0740912133FE0F56B
:100F700008A3E0F509E508333354FC90038EF074C0
:100F80000678081212F6E50890038DF090038F742E
:100F900012F0A37442F075D1FE75D601EA90627129
:100FA000F0EBA3F0906270E0D2E1F0E0A2E740FB4A
:100FB0007F02021169C082C083E9C333906272F07C
:100FC000906270E0D2E0F0D083D08222080808EA74
:100FD000C0E0EBC0E086F0E7A4FA180986F0E7A4C9
:100FE0002AFA180986F0E7A42AFA180986F0E7A475
:100FF0002AFA1986F0E7A4FBE5F02AFA190886F028
:10100000E7A42BFBE5F03AFA190886F0E7A42BFBDE
:10101000E5F03AFA18180986F0E7A4C5F02BFBE4CE
:101020003AFA1908E7C5F0C6A426F6E5F03BFBE45A
:101030003AFA1886F0E7A4F6E5F00826F6E43B084D
:10104000F6E43A08F6D0E0FBD0E0FA222518C58293
:10105000C0E0E51934FFC583C0E0E518C3958224DC
:10106000F910AF0885831985821880088583198552
:101070008218D2AFCEF0A3E520F0A37808E608F0FE
:10108000A3DEFAEFF0A3E58124FBF8E608F0A3E67F
:1010900008F0A30808E608F0A3E608F0A3158115F8
:1010A00081D0E0FED0E0F815811581E8C0E0EEC007
:1010B000E022C0D02518C582C0E0E51934FFC58301
:1010C000C0E0E518C3958224F310AF088583198525
:1010D00082188008858319858218D2AFC8F0A3E9E9
:1010E000F0A3EAF0A3EBF0A37908E709F0A3D8FA9C
:1010F000ECF0A3EDF0A3EEF0A3EFF0A3D0E0F0A3AB
:10110000D0E0F0A3D0E0F0A3E520F0A3E5F0F0A359
:1011100022851983851882E0C0E0A3E0F9A3E0FAF4
:10112000A3E0FBA37808E0F608A3DFFAE0FCA3E065
:10113000FDA3E0FEA3E0FFA3E0C0E0A3E0C0E0A3C6
:10114000E0F5D0A3E0F520A3E0A3F5F010AF08850B
:1011500083198582188008858319858218D2AFD0BB
:1011600082D083D0E0F8D0E032851983851882E000
:10117000A3FEE0A3F5207808E0A3F608DFFAE0A3D9
:10118000FFE0A3C0E0E0A3C0E0E0A3C0E0E0A3C0B4
:10119000E010AF088582188583198008858218853C
:1011A0008319D2AFD083D08222E490030278A17950
:1011B000038002F0A3D8FCD9FA7AA27B0590008EB6
:1011C000782979018015E493A3AD82AE838A828B5E
:1011D00083F0A3AA82AB838D828E83D8E9D9E712EC
:1011E0000B01121349C008C3E096F50808A3E09666
:1011F000420808A3E096420808A3E096450870015B
:10120000D3D00822C5822518C582C583351910AFF1
:1012100007F5198582188007F519858218D2AFC5A0
:1012200083222518F58210AF08F518400C15198097
:1012300008F51840021519D2AF8519832200C0D0D5
:10124000251810AF08F518500C05198008F518502E
:10125000020519D2AFD0D0226016080808C6C31301
:10126000C618C613C618C613C618C613C6D5E0EAF4
:1012700022251810AF08F518400C15198008F5182C
:1012800040021519D2AF22E066701008A3E0667024
:101290000A08A3E066700408A3E0662270042260D6
:1012A0000D18C6C333C608C633C6D5E0F41822E607
:1012B00027F60809E637F60809E637F60809E6379B
:1012C000F622E026F608A3E036F608A3E036F60894
:1012D000A3E036F62274028000C0E0F40412122269
:1012E000D0E0121332222518FAE43519FB22251812
:1012F000FCE43519FD22600C08C6C313C618C613DA
:10130000C6D5E0F42275D00075813F7518027519B5
:10131000030211A9E6F008A3E6F008A3E6F008A38B
:10132000E6F022E0F608A3E0F608A3E0F608A3E062
:10133000F622CAC0E0E6F0A308DAFAD0E0FA2225E5
:1013400018F582E43519F5832200000080FBFFFFC9
:10135000FFFFFFFFFFFFFFFFFFFFFFFFFFFFFFFF9D
:10136000FFFFFFFFFFFFFFFFFFFFFFFFFFFFFFFF8D
:10137000FFFFFFFFFFFFFFFFFFFFFFFFFFFFFFFF7D
:10138000FFFFFFFFFFFFFFFFFFFFFFFFFFFFFFFF6D
:0A1FF600CA05094338860000000008
:020000040003F7
:01FFF000F020
:020000040000FA
:10200000022C7A022219FFFFFFFFFFFFFFFFFFFFF5
:10201000FFFFFFFFFFFFFFFFFFFFFFFFFFFFFFFFD0
:10202000FFFFFFFFFFFFFFFFFFFFFF022A06FFFF8B
:10203000FFFFFFFFFFFFFFFFFFFFFFFFFFFFFFFFB0
:10204000FFFFFF022775FFFFFFFFFFFFFFFFFFFFFF
:10205000FFFFFF022153FFFFFFFFFFFFFFFFFFFF17
:10206000FFFFFFFFFFFFFFFFFFFFFF022920FFFF32
:10207000FFFFFFFFFFFFFFFFFFFFFFFFFFFFFFFF70
:10208000FFFFFF0221AA01FFFFFFFFFFFFFFFFFF8E
:10209000102010200100F0FF0700080000FFFF00E3
:1020A00000030400000F0100000300019651180016
:1020B000020000EF310000000065316D32BF3137A2
:1020C0003200000000000000000000000000008F4F
:1020D00031000000000000000000009B3106FFFFFF
:1020E000FF010400000618000000E8030000FFFFE5
:1020F000D618018813000003E803000064006400A0
:10210000B801A0BB0D00A0BB0D0002020207040134
:102110000101051E02051E020A0A01010809080143
:1021200003B80B02803E0102FEFFE8030A0500012E
:10213000FFFF0A011401E00105030101FF0F10FE7A
:10214000FF564E000000008C4D00000000FF000014
:1021500000FF00C0E074F2122594A2AFE433F5084A
:10216000D2AFAFA7AEA1EE5F54106006122EE3759A
:10217000A1EFEE5F54086008122EE975A1F78023E5
:10218000EEA2E092F0EFA2E082F05017906198E0AA
:10219000F890093BE0C398A2D265D0335002E8F032
:1021A00075A1FE751A00E5088066C0E074F212257C
:1021B00094A2AFE433FED2AF9061A4E0F8759B0027
:1021C000E59158540860087591F7122F378023E580
:1021D0009158541060087591EF122F3D8014E591CD
:1021E000A2E092F0E8A2E082F05007E0C2E0F01234
:1021F00030939061A3E0F8E5E9585404600E123082
:102200006975E9FB906193E0A2E640F2751A00EE71
:10221000A2E092AF7F010225F3C0E074F212259490
:10222000A2AFE433FED2AF9061A5E0F8E5BF585409
:1022300004600675BFFB1230AB80D1C3E498F8E4AC
:1022400099F912227C8026C3E49AFAE49BFBE920E8
:10225000E7E912227CE498F8E499F922C3E498F8BB
:10226000E499F912227CE498F8E499F9C3E49AFA23
:10227000E49BFB22EB20E7CFE920E7E0B90010BBAD
:102280000008E88AF084F8AAF022E4FBC8FA22EBFE
:1022900070227B10C833C8C933C9335007C39AC3EF
:1022A000DBF280069A50012ADBEAC833F4C8C9334E
:1022B000F4C9FA2275F008E4C833C8C933C933C970
:1022C0009AC99B5004C92AC93BD5F0ECFBC833F42A
:1022D000C8E4C9FA2274F512252E74FA122AED7593
:1022E00008047509007808122A467404122AB77A7D
:1022F000F87B077903122DBD7402122A5990810FC1
:102300007808122CA87402122CFF7808122B18706F
:10231000487508027509007808122A467402122AC4
:10232000B77AF67B077903122DBD7402122A5985FC
:102330001882851983E0F47003A3E0F4601B85180C
:1023400082851983E0F8A3E08882F5837402F0A304
:10235000F0A37469F0A374A5F0C2AF75D69F020014
:10236000007406122A597F040227B8080808EAC038
:10237000E0EBC0E086F0E7A4FA180986F0E7A42AAB
:10238000FA180986F0E7A42AFA180986F0E7A42AC1
:10239000FA1986F0E7A4FBE5F02AFA190886F0E7B7
:1023A000A42BFBE5F03AFA190886F0E7A42BFBE52D
:1023B000F03AFA18180986F0E7A4C5F02BFBE43AC6
:1023C000FA1908E7C5F0C6A426F6E5F03BFBE43AA7
:1023D000FA1886F0E7A4F6E5F00826F6E43B08F6DE
:1023E000E43A08F6D0E0FBD0E0FA22E4CFC0E0E423
:1023F000CEC0E0E4CDC0E0E4CCC0E075F020E6263D
:10240000F608E633F608E633F608E633F618181849
:10241000EC33FCED33FDEE33FEEF33FFC3EC9709F5
:10242000ED9709EE9709EF97191919400FFFEC97EF
:10243000FC09ED97FD09EE97FE191906D5F0BFECE2
:10244000F709EDF709EEF709EFF7191919D0E0FCD4
:10245000D0E0FDD0E0FED0E0FF222518C582C0E02C
:10246000E51934FFC583C0E0E518C3958224F81050
:10247000AF0885831985821880088583198582189D
:10248000D2AFCEF0A3E520F0A37808E608F0A3DEF3
:10249000FAEFF0A3E58124FAF8E608F0A3E608F0E5
:1024A000A3E608F0A30808E608F0A3E608F0A315E1
:1024B000811581D0E0FED0E0F8158115811581E805
:1024C000C0E0EEC0E022122CF4B90003022518E4AB
:1024D0009004D1781E791A8002F0A3D8FCD9FA783A
:1024E0001A9020867A01BA00028007E493A3F608C6
:1024F000DAF97AEE7B1D90209478C079018015E49A
:1025000093A3AD82AE838A828B83F0A3AA82AB832E
:102510008D828E83D8E9D9E77582FE75837D74003C
:102520001229E875828775834B74001229E82518F3
:10253000C582C0E0E51934FFC583C0E0E518C39546
:102540008224F910AF088583198582188008858355
:1025500019858218D2AFCEF0A3E520F0A37808E663
:1025600008F0A3DEFAEFF0A3E58124FBF8E608F01B
:10257000A3E608F0A30808E608F0A3E608F0A31510
:10258000811581D0E0FED0E0F815811581E8C0E02A
:10259000EEC0E022C0D02518C582C0E0E51934FFA6
:1025A000C583C0E0E518C3958224F310AF08858386
:1025B000198582188008858319858218D2AFC8F0E2
:1025C000A3E9F0A3EAF0A3EBF0A37908E709F0A3ED
:1025D000D8FAECF0A3EDF0A3EEF0A3EFF0A3D0E077
:1025E000F0A3D0E0F0A3D0E0F0A3E520F0A3E5F065
:1025F000F0A322851983851882E0C0E0A3E0F9A347
:10260000E0FAA3E0FBA37808E0F608A3DFFAE0FC19
:10261000A3E0FDA3E0FEA3E0FFA3E0C0E0A3E0C0D1
:10262000E0A3E0F5D0A3E0F520A3E0A3F5F010AF20
:10263000088583198582188008858319858218D2B8
:10264000AFD082D083D0E0F8D0E0320575F0108EA4
:10265000218F22858226858325851882851983E02E
:10266000CEA3E0CF852682852583EBC9EAC8EDCBD2
:10267000ECCAC3E833C8E933C9EA33CAEB33CBC386
:10268000EA9EF524EB9FF523B35004AB23AA24EC78
:1026900033CCED33CDD5F0DAAE21AF2222D083D0CA
:1026A00082ECC0E0EDC0E0E493A3FCE493A3FDED75
:1026B0004C600D1227F8EC24FFFCED34FFFD80EF99
:1026C000E493A3FCE493A3FDED4C600D1228CBEC46
:1026D00024FFFCED34FFFD80EFD0E0FDD0E0FCE412
:1026E00093A3C0E0E493C0E022851983851882E0BB
:1026F000A3FEE0A3F5207808E0A3F608DFFAE0A344
:10270000FFE0A3C0E0E0A3C0E0E0A3C0E0E0A3C01E
:10271000E0E0A3C0E010AF08858218858319800827
:10272000858218858319D2AFD083D0820229EED05A
:1027300083D082E9C0E0E493A3C386F0C5F095F0AE
:10274000F908E493A386F0C5F095F0700BE493A329
:10275000C3994005E9048002A3E475F002A4258230
:10276000F582E5F03583F583D0E0F9E493A3C0E08A
:10277000E493C0E022C0E074F2122594A2AFE433E7
:10278000FED2AFC2C0901A88E0700BE5D1A2E4502F
:102790001D122E418018E5D1A2E3500675D1F71223
:1027A0002E17E5D1A2E4500675D1EF122E1DEEA230
:1027B000E092AF7F010225F3851983851882E0A39B
:1027C000FEE0A3F5207808E0A3F608DFFAE0A3FF17
:1027D000E0A3C0E0E0A3C0E0E0A3C0E0E0A3C0E06D
:1027E00010AF088582188583198008858218858333
:1027F00019D2AFD083D08222C0E0C3E4939608748C
:1028000001939618400FE49366700808740193666C
:102810001870007019A3A3C3E493960874019396EB
:1028200018A3A3400DD0E0D0E0D0E00226D9A3A3A6
:10283000A3A3A3A3D0E022D083D082C5F0E493A3C6
:10284000C5F0C395F0F5F0E493A3C395F04005E51A
:10285000F0048001E475F002A42582F582E5F035EC
:1028600083F583E493A3C0E0E493C0E02274048082
:102870000474028000CCC0E0EDC0E0E518C39CCC3D
:10288000AD1950011D10AF068C188D1980068C18DB
:102890008D19D2AF12296AD0E0FDD0E0FC2274027B
:1028A0008000CCC0E0EDC0E0E518C39CCCAD195071
:1028B000011D10AF068C188D1980068C188D19D249
:1028C000AF122948D0E0FDD0E0FC22C0E0C0F08883
:1028D000F0E4936670080874019366187000A8F01D
:1028E000A3A3700BD0F0D0E0D0E0D0E00226D9A3B3
:1028F000A3D0F0D0E022D083D082CCC0E0E493A378
:1029000060061229AA1470FAE493A36006122AD76B
:102910001470FAD0E0FCE493A3C0E0E493C0E0229A
:10292000C0E074F2122594758900C2C5901A88E03F
:10293000700E7A007B109009D1E0F9123399800370
:10294000123C337F010225F3CAC0E0E493A3C582A1
:10295000CCC582C583CDC583F0A3C582CCC582C555
:1029600083CDC583DAE5D0E0CA22CAC0E0E0A3C5C2
:1029700082CCC582C583CDC583F0A3C582CCC58278
:10298000C583CDC583DAE6D0E0CA22C008C3E0968D
:10299000F50808A3E096420808A3E096420808A3B9
:1029A000E09645087001D3D00822C0E0E493A3D399
:1029B0009C5010E493A3C39C400AD0E0D0E0D0E048
:1029C000022913A3A3A3D0E02270090808082260FB
:1029D00016181818C6C333C608C633C608C633C689
:1029E00008C633C6D5E0EA22C09FF59FE473D09FA6
:1029F00022D083D082C09FE493C0E0740193C0E0F2
:102A0000740293F59F22C0E0C0D0E8C0E0A8A8D22D
:102A1000AFC2C7751A00E8A2E792AFD0E0F8D0D0F5
:102A2000D0E0322518F58210AF08F518400C1519C2
:102A30008008F51840021519D2AF85198322740455
:102A4000800A74038006740280027401C0E0F404FA
:102A5000122A23D0E0122CB72200C0D0251810AFC4
:102A600008F518500C05198008F51850020519D200
:102A7000AFD0D022BB0102E722C082C08389828A04
:102A800083BB0003E08002E493D083D082226016EF
:102A9000080808C6C313C618C613C618C613C61836
:102AA000C613C6D5E0EA222518F8E43519F922251F
:102AB00018FAE43519FB222518FCE43519FD22C368
:102AC000E0C696F608A3E0C696F608A3E0C696F61A
:102AD00008A3E0C696F622C0E0E493A36C7009D088
:102AE000E0D0E0D0E0022913A3A3D0E02225181003
:102AF000AF08F518400C15198008F5184002151993
:102B0000D2AF22E76670100809E766700A0809E785
:102B10006670040809E76622E066701008A3E066A4
:102B2000700A08A3E066700408A3E06622C3E0967A
:102B300008A3E09608A3E09608A3E096A2D265D089
:102B40003322C3E096F008A3E096F008A3E096F0E5
:102B500008A3E096F022C3E697F60809E697F60880
:102B600009E697F60809E697F622C3E493960874F7
:102B70000193960874029396087403939622E627AD
:102B8000F60809E637F60809E637F60809E637F6E3
:102B900022E026F608A3E036F608A3E036F608A3FE
:102BA000E036F622E493F608740193F60874029373
:102BB000F608740393F622E647F60809E647F60896
:102BC00009E647F60809E647F622E657F60809E659
:102BD00057F60809E657F60809E657F622E056F6D2
:102BE00008A3E056F608A3E056F608A3E056F6223E
:102BF000E056F008A3E056F008A3E056F008A3E082
:102C000056F022E026F008A3E036F008A3E036F004
:102C100008A3E036F022700422600D18C6C333C644
:102C200008C633C6D5E0F41822E4C396F608E49645
:102C3000F608E496F608E496F622C6F4C608C6F44A
:102C4000C608C6F4C608C6F4C622600D08C6A2E7C8
:102C500013C618C613C6D5E0F322C3E7960809E7E2
:102C6000960809E7960809E79622C3E09608A3E0CC
:102C70009608A3E09608A3E0962275D00075813FE0
:102C80007518D1751904000224C6600C08C6C31358
:102C9000C618C613C6D5E0F422E6F008A3E6F0088D
:102CA000A3E6F008A3E6F022E0F608A3E0F608A306
:102CB000E0F608A3E0F622CAC0E0E6F0A308DAFADC
:102CC000D0E0FA22EAF0A3EBF0A3ECF0A3EDF022BF
:102CD000E0FAA3E0FBA3E0FCA3E0FD22E0F8A3E020
:102CE000F9A3E0FAA3E0FB22E8F0A3E9F0A3EAF0FD
:102CF000A3EBF022E5C754F84401F5C7790122257A
:102D000018F582E43519F583221229F193D10512C1
:102D100029F1AFD1051229F1F4D1051229F184D29C
:102D2000051229F1DCD2051229F1BED3051229F1D1
:102D3000A3D4051229F1E8D4051229F149D50512C9
:102D400029F1D5D5051229F101D6051229F14CD664
:102D5000051229F172D6051229F10AD7051229F1B7
:102D6000B3D7051229F106D8051229F137D8051273
:102D700029F16ED8051229F112DA051229F1DEDAED
:102D8000051229F191DB051229F1689B071229F13F
:102D9000799B071229F1179C071229F1EA7F00128B
:102DA00029F1E3FF031229F12F9C071229F13F9C1F
:102DB000071229F1549C071229F1E59C071229F109
:102DC000669A071229F1E99A071229F14F9B071217
:102DD00029F1ED7F001229F1E7FF021229F1F7FF37
:102DE000021229F1FAFF021229F1FDFF021229F164
:102DF000F87F001229F11492071229F13692071276
:102E000029F19E93071229F12294071229F1919F2B
:102E1000071229F19A9F071229F1A39F071229F19E
:102E2000B19F071229F16BC3061229F1D7C306120D
:102E300029F19FC4061229F180C5061229F17DC728
:102E4000061229F1E4C7061229F137C8061229F142
:102E500048C8061229F158C8061229F1CAC8061234
:102E600029F1E0C8061229F1EBC8061229F1F9C8C8
:102E7000061229F10BC9061229F11EC9061229F101
:102E80004AC9061229F1CCCB061229F123CC06122D
:102E900029F163CC061229F177CC061229F190CCE6
:102EA000061229F181CD061229F132CE061229F13E
:102EB00046CE061229F19495071229F1B89507120A
:102EC00029F1D195071229F10396071229F13396BA
:102ED000071229F16096071229F16A96071229F163
:102EE000CC96071229F1DB96071229F1E596071215
:102EF00029F1F296071229F1F385071229F11386B9
:102F0000071229F15286071229F16D86071229F15D
:102F10008C86071229F1F286071229F1FB86071227
:102F200029F15887071229F16787071229F18B8742
:102F3000071229F14C88071229F15988071229F143
:102F40006A88071229F16FFF011229F187FF011228
:102F500029F1B3FF011229F1CCD3061229F126D5AC
:102F6000061229F134D5061229F147D5061229F1A6
:102F70005CD5061229F171D5061229F184D5061205
:102F800029F1F8D5061229F15DD6061229F1E5D608
:102F9000061229F161D7061229F125D8061229F166
:102FA00035D8061229F144D8061229F1F89E0712E5
:102FB00029F11C9F071229F1449F071229F16C9FE8
:102FC000071229F19888071229F1BF88071229F101
:102FD000DE88071229F14689071229F11F8307129B
:102FE00029F13883071229F14483071229F1588304
:102FF000071229F17683071229F18083071229F13C
:103000008A83071229F19D83071229F12A84071266
:1030100029F19984071229F1C884071229F116852C
:10302000071229F16585071229F18085071229F118
:103030008A85071229F19B85071229F1DE8507127F
:1030400029F190FF021229F1DBFF021229F1C0A43D
:10305000061229F1EAA4061229F107A5061229F1A0
:103060001AA5061229F130A5061229F18EA506121D
:1030700029F1C1A5061229F1B2A9061229F112AB54
:10308000061229F145AB061229F18FAB061229F180
:10309000ECAC061229F114AD061229F129AD061285
:1030A00029F139AD061229F17DAD061229F1D8AD0D
:1030B000061229F1E8AD061229F1FC96071229F152
:1030C0001697071229F13E97071229F15797071211
:1030D00029F17B97071229F19997071229F1B097E7
:1030E000071229F1DE97071229F1F997071229F142
:1030F000F59C071229F13B9D071229F113FB0612DB
:1031000029F123FB061229F12AFC061229F15EFCA3
:10311000061229F18AFC061229F1ADFC061229F1EA
:10312000CBFC061229F105FD061229F16EFD0612EF
:1031300029F1B0FD061229F1EFFD061229F120FE5A
:10314000061229F14BFE061229F1F2FB031229F1B6
:1031500057FC031229F1FDFC031229F134FD03127F
:1031600029F172DC051229F109DD051229F138DF98
:10317000051229F1A8E1051229F134E3051229F11C
:10318000A0E3051229F10BE7051229F156E8051213
:1031900029F1388B071229F15B8D071229F1E7B568
:1031A000061229F10BB6061229F14AB7061229F1C7
:1031B000E3B8061229F167BB061229F19EBB06127D
:1031C00029F15ACE061229F11BD1061229F1C0D1DC
:1031D000061229F1ECD1061229F11AD2061229F1B0
:1031E0004FD2061229F177D2061229F1D7D2061250
:1031F00029F1F08C061229F1D790061229F1C69216
:10320000061229F1EF93061229F1CF94061229F143
:103210007D96061229F12798061229F1F7980612D1
:1032200029F14B99061229F1AD8D071229F1B78DBD
:10323000071229F1D88D071229F113EA051229F195
:1032400028EF051229F196F0051229F152F2051224
:1032500029F14FF3051229F17FF4051229F197F5B1
:10326000051229F177F6051229F1689C051229F15A
:10327000A09C051229F1C6A6051229F1A7A70512DF
:1032800029F1F3A8051229F13CAA051229F1F2AAA5
:10329000051229F1C6AB051229F1ADAC051229F1D1
:1032A00095AD051229F137AE051229F161AE05126F
:1032B00029F111B0051229F181B0051229F19AB056
:1032C000051229F1F1B1051229F1A2B2051229F175
:1032D00024B3051229F1D0B3051229F140B4051227
:1032E00029F1DCB4051229F153B5051229F18BB58A
:1032F000051229F18DB6051229F14CB7051229F1F5
:10330000F2B7051229F12594071229F14F940712FB
:1033100029F16495071229F16795071229F14E9E4C
:10332000071229F1959E071229F1D79E071229F15C
:10333000E79E071229F1ECBC061229F12ABD0612FC
:1033400029F193BD061229F1B0BD061229F1C9BDBC
:10335000061229F17BBE061229F184BE061229F15C
:10336000C9BE061229F1FFBE061229F116BF0612C8
:1033700029F188BF061229F115C0061229F14BC0A8
:10338000061229F1A2C0061229F106C1061229F17E
:1033900029C1061229F18DC1061229F1E9C10612CF
:1033A00029F124C2061229F159C2061229F16BC271
:1033B000061229F17DC2061229F1B5C2061229F1C1
:1033C00001C3061229F13FC3061229F166DD061278
:1033D00029F1A6DE061229F1C9DE061229F1DADE8C
:1033E000061229F1CFE0061229F1EFE0061229F1C9
:1033F000DD8F071229F11190071229F15990071258
:1034000029F1B591071229F1E4EB021229F115ED2A
:10341000021229F14FED021229F10EEF021229F1E9
:1034200038EF021229F1C5F1021229F105F2021258
:1034300029F19CF3021229F12FF4021229F187F4E9
:10344000021229F12AF5021229F162F5021229F17C
:10345000A4F5021229F113F7021229F165F80212FC
:1034600029F188FA021229F1B6FA021229F1DDFADD
:10347000021229F1E6FA021229F136FB021229F1B1
:10348000C8FB021229F1B8FE021229F13BFF021219
:1034900029F1A99D071229F1BF9D071229F1C99DA4
:1034A000071229F1239E071229F1E4E6061229F1F9
:1034B000FAE6061229F19FE7061229F1DEE7061265
:1034C00029F1FBE7061229F12CE8061229F179E827
:1034D000061229F1ACE8061229F1E7E8061229F1F3
:1034E000D3EA061229F134EB061229F12C980712BF
:1034F00029F18B98071229F1E598071229F15399C0
:10350000071229F1C599071229F1039A071229F127
:10351000449A071229F118AE061229F11EAE0612BE
:1035200029F15FAE061229F151B0061229F1C0B09F
:10353000061229F18EB1061229F1CFB1061229F136
:10354000FDB1061229F187B2061229F19EB20612C8
:1035500029F1ABB2061229F1B5B2061229F151B424
:10356000061229F161B5061229F1AAB5061229F150
:103570004EF7051229F164F7051229F1F7F7051244
:1035800029F123F9051229F118FA051229F1B5FAE2
:10359000051229F1F5FA051229F173FB051229F13B
:1035A000D0FB051229F1E0FB051229F107FC0512F9
:1035B00029F15AFC051229F1CBFD051229F1D0FDA4
:1035C000051229F1F0FD051229F130DD031229F170
:1035D00062DD031229F1FBDD031229F154DF03122E
:1035E00029F137E0031229F1B6E1031229F1D2E102
:1035F000031229F121E2031229F1A3E2031229F1B6
:10360000F8E2031229F10BE3031229F16FE303122D
:1036100029F1CAE3031229F16FE4031229F166E5E7
:10362000031229F1A1E5031229F127E6031229F17A
:1036300078E8031229F13CE9031229F160EA031248
:1036400029F1D7EA031229F105EB031229F1CFEB97
:10365000031229F154EC031229F1A0EC031229F111
:10366000BAEC031229F103ED031229F119ED03124B
:1036700029F1D3ED031229F1F9EE031229F104EF38
:10368000031229F162EF031229F1B7EF031229F1B6
:1036900015F0031229F111F1031229F1B4F3031209
:1036A00029F1D3F3031229F1DBF4031229F1FFF41A
:1036B000031229F175F5031229F135F6031229F1E8
:1036C0006CF6031229F1DEF6031229F1FEF703125C
:1036D00029F12EF8031229F141F8031229F144F8D7
:1036E000031229F14DF8031229F15FF8031229F1B1
:1036F000D0F8031229F106F9031229F119F903127E
:1037000029F145F9031229F16CF9031229F190F915
:10371000031229F12FFA031229F1A1FA031229F158
:10372000D8FA031229F1E2FA031229F119FB031264
:1037300029F12FFB031229F14CFB031229F17AFB2B
:10374000031229F190FB031229F1A8FB031229F1BE
:10375000BAFB031229F102FF041229F113FF04122C
:1037600029F19EFF041229F135E2061229F173E2D4
:10377000061229F1FFE2061229F10AE4061229F1E4
:1037800026E6061229F15BE6061229F164F8011219
:1037900029F1B3F8011229F153FA011229F127FC9A
:1037A000011229F169FC011229F134FD011229F1FC
:1037B0003CFE011229F15EFE011229F1BAFE01124E
:1037C00029F13BFF011229F19151001229F1B35166
:1037D000001229F14653001229F18F53001229F1EA
:1037E0000354001229F18054001229F1E55400120B
:1037F00029F1E854001229F12A55001229F19A55AD
:10380000001229F14956001229F14C56001229F1F3
:10381000C156001229F10657001229F1075B001268
:1038200029F1705C001229F1AE5C001229F1045DEF
:10383000001229F14A60001229F1C760001229F133
:103840006C62001229F19C63001229F1E3640012FA
:1038500029F15D65001229F17966001229F11E67D0
:10386000001229F13267001229F10068001229F1D3
:103870002E69001229F1466B001229F1586D0012D1
:1038800029F1376E001229F1D270001229F17371FB
:10389000001229F16272001229F1BC75001229F19F
:1038A000CC75001229F13177001229F1C27700128C
:1038B00029F1CA78001229F1557A001229F1D37A38
:1038C000001229F11B7C001229F1657C001229F1FC
:1038D0003E7D001229F10080051229F1A080051219
:1038E00029F10A81051229F12381051229F1BA81F2
:1038F000051229F1FE81051229F12083051229F113
:103900005C83051229F1D883051229F1238405125D
:1039100029F18284051229F18B85051229F1AE88DF
:10392000051229F1CF89051229F14A8A051229F1D8
:10393000318C051229F1D18C051229F1788D0512EF
:1039400029F1DB8D051229F1508E051229F15F8FC7
:10395000051229F13390051229F16990051229F118
:103960009890051229F14C91051229F178910512D0
:1039700029F1F891051229F17893051229F104959E
:10398000051229F14C96051229F1B797051229F174
:10399000C398051229F16699051229F1DF990512DC
:1039A00029F10D9B051229F1B2BC041229F115BDB4
:1039B000041229F15DBD041229F1A1BD041229F1FF
:1039C0000BBE041229F154BE041229F18CBE04125C
:1039D00029F126BF041229F180BF041229F1CDC0BC
:1039E000041229F156C1041229F17DC1041229F1F2
:1039F00087C2041229F172C3041229F1BFC3041251
:103A000029F1BEC4041229F1E6C4041229F12FC61B
:103A1000041229F140C6041229F158C6041229F1F2
:103A200041C7041229F127C8041229F130C9041230
:103A300029F15AC9041229F172C9041229F18CC959
:103A4000041229F1C3C9041229F1E3C9041229F1AE
:103A50000ACA041229F121CA041229F1FDCA04126A
:103A600029F155CB041229F1FECD041229F12DCFF5
:103A7000041229F163CF041229F16DCF041229F148
:103A800084CF041229F1F1CF041229F1DAD0041203
:103A900029F110D1041229F1E1D1041229F182D2C5
:103AA000041229F1B0D2041229F1BDD3041229F174
:103AB000DCD3041229F15FD4041229F1D0D404120A
:103AC00029F114D5041229F198D5041229F1F5D55C
:103AD000041229F1A2D6041229F188D8041229F17E
:103AE00068D9041229F1BED9041229F11CDB041291
:103AF00029F132DD041229F1DCDF041229F186E11B
:103B0000041229F156E2041229F1CEE2041229F13D
:103B1000F0E2041229F1DFE3041229F1CFE40412E8
:103B200029F13AE5041229F141EB061229F155ED8C
:103B3000061229F11BEE061229F170EE061229F188
:103B4000EDEE061229F181EF061229F19FEF061220
:103B500029F1E3EF061229F109F0061229F12FF0FD
:103B6000061229F147F0061229F15FF0061229F139
:103B7000CAF0061229F10CF1061229F121F1061200
:103B800029F107FB041229F143F2061229F14CF244
:103B9000061229F155F2061229F15EF2061229F1F8
:103BA00068F2061229F1E5F2061229F17DD8061213
:103BB00029F1DEDC061229F1FADC061229F1FFDC1C
:103BC000061229F1707E001229F13FF7061229F141
:103BD00055F7061229F1EEF8061229F137F9061207
:103BE00029F1A3F9061229F199CF051229F1E2FA78
:103BF000061229F1F4FA061229F1A3FE061229F1A0
:103C00000080071229F15C80071229F19C800712BD
:103C100029F19081071229F1B481071229F1C98194
:103C2000071229F1E981071229F12082071229F1EF
:103C30003182071229F14882071229F16D82071299
:103C400029F1FC82071229F1BEFF051229F100803B
:103C5000031229F13380031229F19A80031229F10A
:103C60002681031229F1CD81031229F11582031255
:103C700029F13A82031229F15382031229F1798240
:103C8000031229F19B82031229F1D982031229F12F
:103C90002883031229F15183031229F1B0830312FF
:103CA00029F18984031229F13F85031229F19D85A9
:103CB000031229F16386031229F1AD86031229F15B
:103CC0000487031229F16F87031229F1AD870312CC
:103CD00029F10388031229F11F88031229F14A8868
:103CE000031229F1598A031229F19F8B031229F13A
:103CF000CB8B031229F1FF8B031229F1208C0312C5
:103D000029F12F8C031229F13A8C031229F1EA8C44
:103D1000031229F1598D031229F1068E031229F19C
:103D2000428E031229F1008F031229F10D90031224
:103D300029F15A90031229F1E990031229F14391D4
:103D4000031229F18891031229F11794031229F122
:103D50007195031229F1BD98031229F19B99031261
:103D600029F1729A031229F1869A031229F1AF9A66
:103D7000031229F1209B031229F1B69B031229F1AA
:103D8000299C031229F1189D031229F13D9D03126C
:103D900029F1A09E031229F1BE9E031229F1D19EA2
:103DA000031229F1359F031229F1449F031229F1CF
:103DB000CC9F031229F1E29F031229F1E6A003121E
:103DC00029F1F3A0031229F1FCA0031229F1F6A2B4
:103DD000031229F126A4031229F136A4031229F1B2
:103DE00039A5031229F1B5A5031229F1EEA5031295
:103DF00029F126A7031229F16CA7031229F147A97B
:103E0000031229F128AD031229F13CAD031229F167
:103E100046AD031229F150AD031229F15AAD031238
:103E200029F164AD031229F17DAD031229F187ADAB
:103E3000031229F101AE031229F10CAE031229F18C
:103E40003BAE031229F163AE031229F16EAE0312E9
:103E500029F1BCAE031229F1C6AE031229F1D1AE8D
:103E6000031229F1F5AE031229F119AF031229F15A
:103E700076AF031229F1BCAF031229F1D8AF0312B8
:103E800029F15FB0031229F196B0031229F1D5B0E0
:103E9000031229F122B1031229F1A4B1031229F16D
:103EA00050B2031229F12CB4031229F19AB403126F
:103EB00029F1C6B5031229F1ECB5031229F145B772
:103EC000031229F19DBA031229F1D6BC031229F17C
:103ED000B4BE031229F14DBF031229F172C10312BE
:103EE00029F126C2031229F15FC2031229F1C5C2CA
:103EF000031229F1CFC2031229F1F9C4031229F1E7
:103F0000DEC5031229F145C7031229F18DC703123B
:103F100029F141C8031229F1E4C9031229F16BCB3D
:103F2000031229F18BCB031229F1DECB031229F105
:103F3000DECC031229F106CD031229F169CD03125B
:103F400029F14CCE031229F1BECE031229F1D0CFB4
:103F5000031229F154D0031229F152D1031229F18D
:103F6000E8D3031229F107D4031229F152D5031221
:103F700029F120D7031229F174D7031229F12CD883
:103F8000031229F1DCD8031229F13FD9031229F1D8
:103F900004DA031229F19ADA031229F101DB031280
:103FA00029F143DB031229F174DB031229F1D4DC7C
:103FB000031229F10080021229F13280021229F144
:103FC0006B80021229F16182021229F1A38202128E
:103FD00029F18783021229F1DF83021229F1228558
:103FE000021229F16E85021229F19A88021229F132
:103FF000188C021229F1608D021229F1F68D02123D
:1040000029F1028E021229F1428E021229F1D78F74
:10401000021229F1CB90021229F1F590021229F136
:104020004C91021229F1A591021229F11692021265
:1040300029F14B94021229F1E295021229F1B69668
:10404000021229F1FD97021229F1559A021229F163
:10405000269D021229F1359D021229F1B99D021205
:1040600029F16E9E021229F1B19E021229F1FA9EE7
:10407000021229F14E9F021229F1B39F021229F177
:104080000FA0021229F12BA0021229F15DA0021249
:1040900029F19CA0021229F182A1021229F131A278
:1040A000021229F1B7A4021229F1EDA5021229F199
:1040B000D4A6021229F154A7021229F161AB02120F
:1040C00029F19FAB021229F106AC021229F139AC99
:1040D000021229F1CCAC021229F1FFAC021229F133
:1040E0009AAD021229F1E8AD021229F1BBAE02121B
:1040F00029F182AF021229F120B0021229F12AB36C
:10410000021229F13EB4021229F1E4B7021229F198
:10411000E6B8021229F1E9B8021229F118B902121F
:1041200029F117BB021229F1F0BB021229F115BCCB
:10413000021229F131BD021229F1E9BD021229F161
:10414000A0BF021229F104C0021229F129C00212F3
:1041500029F163C0021229F1BEC0021229F19FC1E8
:10416000021229F18DC2021229F1C1C2021229F1F3
:1041700077C3021229F188C5021229F1F3C5021290
:1041800029F13BC6021229F174C6021229F106C7B1
:10419000021229F15FC8021229F137CC021229F16B
:1041A0002CCD021229F126CE021229F1A3CE021241
:1041B00029F175CF021229F152D1021229F1E3D16E
:1041C000021229F1E7D2021229F1FBD2021229F1DF
:1041D0000FD3021229F123D3021229F137D302128D
:1041E00029F16DD3021229F19DD3021229F127D5AD
:1041F000021229F1E5D5021229F169D6021229F13C
:10420000BAD6021229F133D7021229F179D7021254
:1042100029F15ED9021229F10EDA021229F13EDAF1
:10422000021229F1FDDA021229F19ADB021229F1B8
:1042300045DD021229F132DE021229F171DE02128D
:1042400029F1E3DE021229F128E0021229F1DBE074
:10425000021229F10FE1021229F127E1021229F1DC
:10426000CAE1021229F1B8E4021229F183E602122E
:1042700029F1A7E6021229F1C5E6021229F199E710
:10428000021229F1C6EB021229F164F3061229F198
:10429000A4F3061229F170F5061229F17FF5061232
:1042A00029F199B8051229F15DBD051229F1B2BDB8
:1042B000051229F1F0BF051229F194C1051229F167
:1042C00024C2051229F180C4051229F187C60512FE
:1042D00029F1DEC6051229F1D2C8051229F11FC93C
:1042E000051229F17DC9051229F19FC9051229F18D
:1042F000A6C9051229F1BEC9051229F182CA051203
:1043000029F179CB051229F19481011229F1D68185
:10431000011229F12887011229F17487011229F16C
:10432000BA87011229F10789011229F17189011255
:1043300029F1B989011229F1288B011229F16D8E19
:10434000011229F1928F011229F1509B011229F1DA
:10435000D99B011229F1419F011229F1A0A001125C
:1043600029F1FBA0011229F143A2011229F12BA38B
:10437000011229F1D2A5011229F153A7011229F145
:10438000E4A7011229F1E7A7011229F15EA80112A1
:1043900029F168A8011229F175A8011229F1A0A834
:1043A000011229F14FA9011229F13EAA011229F1A6
:1043B000F7AA011229F17AAB011229F198AB011287
:1043C00029F1ADAB011229F1D6AB011229F103ACF1
:1043D000011229F140AE011229F11CAF011229F19D
:1043E00066AF011229F1F1AF011229F19FB001125C
:1043F00029F1D1B0011229F117B1011229F14AB105
:10440000011229F19EB1011229F1EFB1011229F136
:10441000F4B1011229F148B2011229F1B1B201122D
:1044200029F17FB3011229F1CAB3011229F12FB486
:10443000011229F18BB4011229F127B5011229F1DA
:1044400081B8011229F1AEB9011229F14EBB011256
:1044500029F1A4BE011229F13ABF011229F16AC261
:10446000011229F125C3011229F16DC3011229F1AD
:1044700026C5011229F13AC5011229F144C50112DC
:1044800029F14EC5011229F15AC5011229F179C548
:10449000011229F1C7C7011229F120C8011229F11F
:1044A0002AC8011229F134C8011229F1BAC801122F
:1044B00029F10EC9011229F11BCA011229F18BCA77
:1044C000011229F195CB011229F1DECB011229F15C
:1044D00085CC011229F165CD011229F132CE0112EC
:1044E00029F165CF011229F1A2D0011229F1A3D13E
:1044F000011229F1BBD1011229F1EFD1011229F1E9
:10450000F9D1011229F103D2011229F10ED20112BF
:1045100029F12CD2011229F174D2011229F1D2D23F
:10452000011229F1F9D2011229F10BD3011229F15B
:10453000A6D3011229F1DBD3011229F1D9D401123A
:1045400029F12FD5011229F11ED6011229F154D6D5
:10455000011229F1B7D6011229F12FD7011229F141
:10456000D4D8011229F1FCD9011229F1DADA0112A9
:1045700029F1ABDB011229F12CDC011229F1C7DC96
:10458000011229F1FCDD011229F18EDE011229F15F
:10459000E2DE011229F14EDF011229F114E00112CD
:1045A00029F165E0011229F1BDE0011229F18EE146
:1045B000011229F1B1E1011229F160E2011229F1A0
:1045C00082E2011229F1E3E2011229F131E501123F
:1045D00029F134E6011229F1F8E6011229F12CE95A
:1045E000011229F176E9011229F1C1E9011229F13B
:1045F0001CEA011229F189EA011229F1B7EA011234
:1046000029F1DBEA011229F110EB011229F13DEB4E
:10461000011229F183EB011229F1E1EB011229F1D9
:1046200035EC011229F15FED011229F10CEF0112B5
:1046300029F155EF011229F17EEF011229F110F055
:10464000011229F188F0011229F196F0011229F1E5
:10465000BAF0011229F117F1011229F132F1011218
:1046600029F1F3F1011229F11FF2011229F162F28D
:10467000011229F1C5F2011229F1BDF4011229F14B
:10468000EAF4011229F1DFF5011229F1DCF6011239
:1046900029F17FF7011229F16999061229F1A199EF
:1046A000061229F1C299061229F1069A061229F179
:1046B0006A9A061229F1749A061229F1849A06124E
:1046C00029F1BB9A061229F1B39E061229F1C1A065
:1046D000061229F1AEA2061229F145A3061229F10C
:1046E000E7A3061229F17380041229F11C81041238
:1046F00029F1F381041229F1FB82041229F11B83B1
:10470000041229F13384041229F1ED85041229F1F0
:104710006086041229F1FD86041229F1148804121E
:1047200029F18188041229F1BC88041229F1118928
:10473000041229F14C89041229F19989041229F1F2
:10474000298A041229F1B68A041229F18B8B0412EA
:1047500029F1648C041229F1F28C041229F1128DD2
:10476000041229F13F8D041229F1708D041229F1F0
:10477000438E041229F1538E041229F1A28E0412E1
:1047800029F1AF8E041229F1B88E041229F1288F75
:10479000041229F1888F041229F1D38F041229F110
:1047A000EE8F041229F11590041229F132900412AF
:1047B00029F13E90041229F1E991041229F10292A3
:1047C000041229F18B92041229F19E92041229F10C
:1047D000BD92041229F15893041229F1C8940412CD
:1047E00029F16F96041229F1FE96041229F101971E
:1047F000041229F17197041229F18F97041229F1FB
:104800003498041229F17098041229F17398041253
:1048100029F13999041229F19C99041229F1D599A9
:10482000041229F14A9A041229F1689A041229F112
:10483000B69A041229F18B9B041229F1D99B041218
:1048400029F1279C041229F1B49C041229F1E99C56
:10485000041229F11E9D041229F12C9D041229F144
:104860008B9D041229F1039E041229F1449E041227
:1048700029F1949E041229F1BF9E041229F1D99EB8
:10488000041229F1F39E041229F1CE9F041229F19A
:10489000D89F041229F113A0041229F123A00412B5
:1048A00029F12CA0041229F184A0041229F198A066
:1048B000041229F1CEA1041229F1E1A1041229F177
:1048C000F8A1041229F10DA2041229F19BA20412ED
:1048D00029F103A3041229F1B6A3041229F1C1A3FB
:1048E000041229F111A5041229F12DA5041229F1B0
:1048F00079A5041229F1E8A5041229F121A60412D0
:1049000029F13BA6041229F19BA6041229F13AA72A
:10491000041229F185A7041229F147AA041229F1EA
:10492000FDAA041229F18DAB041229F1D5AD0412B0
:1049300029F1EDAD041229F1F0AD041229F1FCAD1D
:10494000041229F110AE041229F118AE041229F153
:104950004BAE041229F13EAF041229F1C9AF041283
:1049600029F15CB0041229F1D5B0041229F199B1F2
:10497000041229F1BBB1041229F154B2041229F135
:10498000B1B2041229F1B4B2041229F1E1B2041255
:1049900029F1F6B2041229F170B3041229F1BCB462
:1049A000041229F1C7B5041229F152B6041229F1F3
:1049B00057B7041229F117B8041229F148B80412A4
:1049C00029F16EB8041229F177B8041229F1A5B8BB
:1049D000041229F13DB9041229F1F2B9041229F1A6
:1049E00063BA041229F10ABB041229F191BB041223
:1049F00029F1D0BB041229F113BC041229F14DBCDA
:104A0000041229F1B0FA041229F104FA041229F16E
:104A10003CF8041229F185F7041229F155F7041224
:104A200029F10AF7041229F1A5F6041229F164F616
:104A3000041229F144F6041229F176F5041229F141
:104A400003F5041229F1A1F4041229F144F404122B
:104A500029F1B7F2041229F154F2041229F1CEF12E
:104A6000041229F1C5F1041229F1B9F1041229F156
:104A700086F1041229F140EE041229F112EE04121B
:104A800029F1BFED041229F1A7ED041229F19CEDE3
:104A9000041229F15BCF051229F160ED041229F10E
:104AA00035CF051229F1B9CE051229F173FE041292
:104AB00029F128FE041229F1BCFD041229F159FD47
:104AC000041229F18EEB041229F177EB041229F17B
:104AD000ADEA041229F10AEA041229F12FFD0412A9
:104AE00029F12EE8041229F1D0E6041229F1C5E6D5
:104AF000041229F13DE6041229F1B3FA061229F154
:104B0000F9E5041229F1B3FC041229F1D5E50412E8
:104B100029F1B98C061229F1728C061229F1118C37
:104B2000061229F1DC8B061229F1B18B061229F14C
:104B30007D8B061229F1558B061229F1D88A0612AF
:104B400029F1C28A061229F1928A061229F1088AED
:104B5000061229F14D86061229F10584061229F163
:104B6000DD81061229F15F81061229F110810612FA
:104B700029F10080061229F19D80061229F15E803C
:104B8000061229F128F20600000080FBE4738F0072
:104B900001008D1E870001007C1A35000400521EA2
:104BA00025000200561E26000200581E27000200A3
:104BB0005A1E28000100641E29000100651E8400A1
:104BC0000400551A86000100FC1D2A000100661E23
:104BD0002B000100671E2C0001006D1E2D00080037
:104BE000621A2E0001006E1E2F0001006F1E3000A1
:104BF0000100701E31000100711E320001006A1AAE
:104C0000330001006B1A34000100721E36000100EF
:104C10006C1A38000100731E390001006C1E8300FD
:104C200002008A1E63000100771A64000100681EFA
:104C300065000100691E6D000100781A710008000E
:104C40005A1A66000100891E430001007A1E4400C2
:104C500002007B1E450001007D1E460002007E1EF4
:104C6000470008006F1A48000100801E4B00010039
:104C7000811E040001008C1EA1000100901E37005F
:104C800001008F1E880001008E1E3C0001006D1A7D
:104C90003D000100741E49000200821E67000100F1
:104CA000791A4D000200841E4E000100861E4F003E
:104CB0000200871E3E000100791E51000100751E92
:104CC00052000100761E53000100781E54000100BE
:104CD0006E1A0000000000000001363601010001DC
:104CE00002010001030100010401060605020000A3
:104CF000070100340801000F090401010D0100FF44
:104D00000E08000017020000190100FF1A0100013F
:104D10001B0100FE1C0100081D0200001F01000114
:104D200020010001210200002301000F24020000E5
:104D30002601000127010008280200FF2A010007C0
:104D40002B0102402C0100002D0100012E01000169
:104D50002F0100FF30010B1D310800003A0100084F
:104D60003B01000F3C0100013D0100FF3E0400003B
:104D700042040000460400004A0400004E04000003
:104D800052040000560400005A040000010371039D
:104D900001030103010301030103220302030103D1
:104DA00010030003000300030003000300030003DB
:104DB0004203000324030603000300030403120359
:104DC0002503230325032303040304030003000333
:104DD00000034403000300032303000365032100D1
:104DE00035038103000305030003000300030003F0
:104DF00025032303030271023001600211027002D5
:104E00000102020202028002100261023A00410025
:104E1000630273027202620243020002130238004C
:104E2000000200020402120200020002000200025C
:104E300004020402370037003C0244020002390039
:104E40000002000265020002350281020002050232
:104E50008202830200020300710030016000110031
:104E60007000310220035004800010006100000037
:104E7000140063007300720062004300000013001E
:104E80000600000000000400120000000000000006
:104E9000000004000400370037003C02440000001A
:104EA00000000000000065000000350081000000E7
:104EB00005000000830000000101710101010101F2
:104EC00011010101310101010101800110016101A4
:104ED0003B00140063017301720162014301000190
:104EE000130106013D01350004011201000100011A
:104EF0000001000104010401330133013C014401BC
:104F00003201360000010001650100013500810118
:104F10000001050182018301000103047104020400
:104F20006004110470040204020401040204100469
:104F300061040004140463047304720462044304EF
:104F40000004130406040004000404041204000412
:104F50000004000400045104640000040004000480
:104F60004404000400040004000465040004350443
:104F70008104640005040004830400043600010079
:104F8000060000000F00000000000000000000000C
:104F9000000003FFFF00000403FFFF0000FFFF0FFE
:104FA000F4010005C4040320000100000B00000010
:104FB000000000000003010F0000000000000000DE
:104FC00000000000000000000000000000000000E1
:104FD0000000000000000000000013006D381F00FA
:104FE00073381F8079380000153901001539020027
:104FF000EF370280E9370300F5370400FB37048000
:105000000138050007380600133830003138310008
:105010002B3832003D3833004338350049383400EE
:105020004F383600553811006138140067381500C4
:105030002538FFFF00000A00000002000000040005
:1050400000000800000010000000200000004000E8
:1050500000008000000000010000000200000004C9
:1050600000000008000000100000002000000040C8
:105070000000014D43067D430877430B9B431063BB
:105080003F0AAD43025343056B430759430C354375
:105090000D4143642F3DFF000007ECFDFDFDECDCFE
:1050A000DCCCBCACAC9C9C8C7C7C6C6C5C5C5C4C50
:1050B0004C3C3C2C2C1C1C03EAF5E5D5D5C5B5A50C
:1050C0009595858575756565555545453535252510
:1050D00015150500160F00000B150B020002220F1C
:1050E0003300000E0F667A6C636874696D65434F18
:1050F0002E2C4C54645A6967426565416C6C696139
:105100006E63653039D0D1D2D3D4D5D6D7D8D9DAD9
:10511000DBDCDDDEDF00011916181616182303008C
:1051200000034D4C4651181A250502303016181947
:1051300020231A1C1E30003C40423A3F3F392F4783
:1051400030303017181921301B1D1F300C0E020B88
:10515000040B0A0708000F02040201010101090201
:1051600000BE040AE80300000E000000E8030C0083
:105170001E0000007F00030004091E100A0C100826
:1051800003FF0C280004040209033C0C05080B086B
:105190001EC082C0839018CDE4F0A3F07CB27D1BCA
:1051A0007AE77B1712350D123D5F123FB1123D6554
:1051B00002672B74F212245A74FE122AEDE9FF8A58
:1051C00008EBFE8C09E9703374026A7016790812D4
:1051D000373BE4F50AF50B780A122A46780A122AB8
:1051E0004A805374016A6003025318790812373BEE
:1051F0007B00EEFAF9123DD102531374016F60087F
:1052000074026F6003025318EA600874036A600353
:105210000252B31241D3E9605374036508604D1222
:1052200033518A0A8B0B780A122A46750A01780ACA
:10523000122A4A750A00780A122A4AE509F50A78FC
:105240000A122A4AEEF50A780A122A4A901801121E
:10525000286D901DFCE0F97C6F7D1A901E8A126506
:1052600059123D89740A122A5902531379021237CE
:105270003B901DFCE0F9901801122CD0123D77E90B
:10528000F8901811E0A2E34010E9700D9018D1E0F9
:1052900004F064047003125334740365087076904C
:1052A00018D2E0F9740129F0E9C39405406712535C
:1052B00034806274016A706074016F790A702C1214
:1052C000373B7A007B04901C83E0F91234CBAA1898
:1052D000AB19795012623D126247E81277097900E2
:1052E000901C36126559123E19804412373B901EAD
:1052F0006012286D7A007B20901806E0F91234BF06
:105300007404122A59901DFCE0F9901801122CD057
:10531000123DB3E9F8E8601790817312286D7A01A5
:105320007B00901806E0F91234BF7404122A5974F5
:1053300002027B6D901801E4F0A374F8F0A374FFEF
:10534000F0A37407F02274F612245AE9FFEAFE7AF9
:10535000D1F91233758A828B83E5824583702A7A6C
:10536000027B00123357EA4B700E7A107B009018C4
:1053700006E0F912339980148A828B8374D1F0EF9E
:10538000A3F0EEF91233638003EFA3F00255957496
:10539000F712245A89089004D11278AC901E48E084
:1053A000F47003A3E0F470309009D1E0901E48F04F
:1053B000A3E4F080238E828F831264DC600F8E82E0
:1053C0008F83A3A31264D9FAA9081237D18E828FD2
:1053D000831264CBE8FEE9FFEE4F70D9901E48E0DF
:1053E000F47003A3E0F4600A901E48E0FAA90812E2
:1053F00037D11244739017D1125CA812446D7F010B
:105400000226E974F012245A890B8C0C7509007578
:1054100008007410122CFF1264CB7412122CFF12AD
:10542000564380471254CCF50EA3E0F50FAE08EEBC
:105430002EFEE433FFEA2EF582EB126B1F650E7031
:1054400004A3E0650F7019AE09EE2EFEE433FFEC05
:105450002EF582ED3FF583E50EF0A3E50FF005098B
:10546000050AE50AC3950C40BB0508E508C3950B82
:105470005005750A0080EBA90980007F080226E923
:1054800074F412245A890B7D00740C122CFF1264E0
:10549000CB80010DEDC3950B502E750A00800205DF
:1054A0000AE50AC39C50ECED25E0FEE433FFEA2E4A
:1054B000F582EB3F1276E61254CC65087004A3E047
:1054C000650970DB7901800279008014AE0AEE2E46
:1054D000FEE433FFE82EF582E9125C4522122A59D8
:1054E0007F040226E90229EE74F612245A12557F2F
:1054F0007003A3E06D701775080F7509187808120E
:105500002A46EEFA12391B7402122A59801A7508BB
:10551000027509807808122A468A088909780812D3
:105520002A4612556C122A59806B74F612245A12AC
:10553000557F7003A3E06D701775081C7509187806
:1055400008122A46EEFA1239217402122A59801AD8
:105550007508037509807808122A468A088909782F
:1055600008122A4612556C122A598029EE127B47DE
:10557000125C45FD7C801267D112393F740422EA27
:10558000FEEBFF1267E6FCE439FD9017D1E06C22D8
:105590007402122A597F020226E974F612245A7400
:1055A000FE122AED8A088B09851882851983E4F09A
:1055B000A3F01260C112691FFBECFA88828983A3F1
:1055C000A3E0F97F007E00600574FF6970047E82AD
:1055D00080459017D1E06A7003A3E06B701AAA1897
:1055E000AB19124B39E9FA851882851983126718AD
:1055F00070027E83EAFF801F901A7CE060046401E1
:10560000700E123CE7E960047E89800B7E81800782
:10561000E0640270027E8012563DEEF9AA08AB09E2
:10562000123927EF60148518828519831267186074
:105630000985188285198312716C0255908518822C
:10564000851983E0FCA3E0FD220229EE74F2122406
:105650005AEAFEEBFF7508007509001267E2F50AC9
:10566000E439F50B124473EA650A7003EB650B70BD
:1056700012124B27E914F50879017A997B18124B1D
:10568000218003750980126B19F50C780C122A4AD7
:10569000750C99750D18780C122A467808122A4A4A
:1056A000780A122A46E509F5087808122A4A12658E
:1056B00048126B1CF97A057B8012392D7407027B26
:1056C0006D74F612245AE9FF7E0080328A828B8341
:1056D000E0F508A3E0F8E4C8F9E50828E439F5099D
:1056E000EE25E0F8E433F9EC28F582ED39F583E5B1
:1056F00008F0A3E509F0EA2402FA50010B0EEEC30C
:105700009F40C902559574E812245A74FE122AED7E
:105710008A108B11750F00851882851983E4F0A318
:10572000F0F516F51712639735111278A2127D2243
:10573000FA8E828F83A3A3A3E0F9EAF508E439F592
:1057400009AA0AAB0B12450FE96401702B1274FC15
:10575000122A4AE4F508F5097808122A4678081250
:105760002A4A780A122A467508807808122A4A12AC
:105770005AE9122A59025AD2AA0AAB0B12450FE96A
:1057800070419017D1E0650A7004A3E0650B6033A7
:10579000901A7CE0640270281274FC122A4AE4F524
:1057A00008F5097808122A467808122A4A780A1257
:1057B0002A467508807808122A4A125AE9122A598C
:1057C000025AD28E828F83A3A3A3A3E0F50BEE240B
:1057D00005FE50010FE50B602A127BE685188285D5
:1057E0001983EAF0A3EB126B36E849601612563DB6
:1057F000EEFAEFFBA90B12380D8A0C8B0DAE0CAF35
:105800000D8003750B00127BFC601A127BE68A1672
:105810008B17EA4B600FAC16AD17EEFAEFFBA90A37
:1058200012380D8003750A009004D180508E828F4B
:1058300083A3A3A3A3A3A3A3A3E4F0A3F0EEFAEF8F
:10584000FB851482851583A3A3E0F81264D9F912AD
:105850003363851282851383E0C0E0A80F74992812
:10586000F582E43418F583D0E0F0050FA20050076C
:10587000AA12AB131233FF851482851583E0F51449
:10588000A3E0F515E51445157003025A50851482FE
:105890008515831264DC60DF851482851583A3A3DC
:1058A000A3A3A3A3A3A3E0A2E050CC8514828515F3
:1058B00083A3A3A3A3126718851482851583A3A3CA
:1058C000601E1264DEFA7901851482851583A3A314
:1058D000A3A3125ADC124B8C8A128B13D2008010B5
:1058E000125ADCA3A3A3A3E0F512A3E0F513C200B0
:1058F000E5124513700302586C851282851383A349
:10590000E065087004A3E06509600F74FF65087026
:105910000474FF6509600302586C85128285138345
:10592000A3A3A3A3A3A3A312287185128285138323
:10593000A3A3A3A3A3A3E0FC7402122CFF12655936
:10594000A90B1237E37402122A59E97038851282C2
:10595000851383A3A3A3A3A3A3A3A3A3A312287123
:10596000851282851383A3A3A3A3A3A3A3A3A3E068
:10597000FCAA16AB17A90A1237E37402122A59E9D6
:10598000700302586CE50A250BC333240AFA7B0026
:105990001233578A0C8B0DAE0CAF0DEA4F70030219
:1059A00058528A828B8374D2F0851082851183A32A
:1059B000A3126256A3A3E81277098A828B83A3A35A
:1059C000A3A3E50B127D33E50B6033EA240AFAE466
:1059D0003FFB8E828F83125CA3851882851983E03A
:1059E000F50CA3E0F50D750E00780C122A42AC0BF5
:1059F000EC2CFCE433FD127D1C122A59800D8A82A6
:105A00008B83A3A3A3A3A3E4F0A3F0E50A7003028E
:105A1000582DA80BE828F8E433F9EE28F8EF39F907
:105A2000E8240AFAE439FB8E828F83A3A3A3125CD5
:105A3000A385160C85170D750E00780C122A42AC42
:105A40000AEC2CFCE433FD127D1C122A5902583D4D
:105A5000E50F60251274FC122A4A75089975091819
:105A60007808122A46E50FF5087808122A4A901796
:105A7000D1122871750800802DE510240BF582E401
:105A80003511F583E0702A1274FC122A4A750899C0
:105A90007509187808122A467508007808122A4AEB
:105AA0009017D11228717808122A4A125AE9122A3C
:105AB00059851882851983126718600985188285AF
:105AC000198312716CE51645176007AA16AB1712F9
:105AD00033FF7402122A597F100226E9125AE0227B
:105AE000E0F8A3E0F583888222E5102402FCE43587
:105AF00011FDE5101264C23511F583E0F97A067BD9
:105B00008012392D74072274F412245A74F4122A64
:105B1000ED8A088B09ECFEEDFF740B122CFF740369
:105B2000F0122AAF12350D12666D7403122AAF12ED
:105B30003507E9600A125C396010E06401600B858A
:105B400018828519837484025C028E828F83A3A3DA
:105B5000A3A3A3A3A3A3E06013F46010125C3970A5
:105B600016EE2414126B1C6003F4700B85188285EA
:105B700019837482025C02127896E064217002A399
:105B8000E07055851882851983748C126266E0F581
:105B90000A780A122A4A125C4A1240BF7401122A79
:105BA00059E9705F851882851983E4F0123717125E
:105BB0005C39704F7401122AB7EE240BFAE43FFBF4
:105BC0001240DDE9703D7D007C007900EE240BFA87
:105BD000E43FFB1238E5802BEE2414126B1CF50A0F
:105BE000780A122A4A125C4A1240C57401122A59D4
:105BF000E98518828519837007E4F012371780034E
:105C00007488F01274B7F50A780A122A4A740112DD
:105C10002AA7880A890B780A122A46E508126D52CB
:105C2000350912624E4480F50B780A122A46126634
:105C30004F122A59740C0254DDEE2413125C426494
:105C40000322F582E43FF583E022EE240BFCE43FDF
:105C5000FD8E828F83A3A3A3A3A3A3A3A3A31274E4
:105C6000EC8E828F83A3A3A3A3A3A3A3A3E0F92213
:105C7000C082C08374F3122AED851882851983E4EB
:105C8000F004122CFF125CA87403122CFFAA82AB42
:105C900083123C6FAA18AB19123CAB740D122A592F
:105CA00002672BA3A3A3A3A3EAF0A3EBF02274F64D
:105CB00012245AEAFEEBFFEA2413126B1CF8A3E04D
:105CC000125CF5F8901817E058F508A3E059F509AB
:105CD000E5084509601C7808122A469017D1122859
:105CE00071126B19FD7C001267CD123939740412E0
:105CF0002A590255958882F583125CFD22E0FAA3A9
:105D0000E0F9EA2274EA12245A74DB122AED8A14AA
:105D10008B15751200751300750A001263973515FF
:105D2000F5831264DEF50EAC18AD197A007B0079AC
:105D30009C123DE9901A7CE06004640170147A04BE
:105D40007900123CD5EAF50A851882851983E02A84
:105D500080088518828519837401F0E0F8E50EC388
:105D6000984003025F56E0C3950EF509C3940440C2
:105D700003750903E50975F01AA4FAABF01233F9BB
:105D80008A128B13EA4B7003025F59750B00AE1237
:105D9000AF13850E08025E1E7C087D0079FFEE249D
:105DA0000AFAE43FFB12333F850C82850D83A3A3DF
:105DB000A3A3E0702D850C82850D831267187009EE
:105DC0001276C3125FFDE48010125FDAF0901C4976
:105DD000E014C0E0125FC1D0E0F0125FC512600CA9
:105DE0008032901C49E004C0E0125FC1D0E0126034
:105DF00039C39403EE4003025E9F1277A07402122F
:105E0000603964017003025EACEE2415125FDD128E
:105E10005FEE7401F0EE241AFE50010F050BE50B46
:105E2000C395094003025F0BE508C3950A400302CE
:105E30005EB5AA087B00123D178A0C8B0D050890F1
:105E40001C3612601F850C82850D83125FE6F0A35D
:105E5000E9126011125FC174FF12603EA3A3A3A3F5
:105E6000A3A3E0C0E0125FAFD0E0F07401122CFFFA
:105E7000E4F0850C82850D831264CB7402122CFF32
:105E8000E81277097401122AAF123C99E9640160A3
:105E900003025D987404122CFF125FCB025DA812FE
:105EA0005FDB12603964036003025E09EE241512A1
:105EB00076C6025E0FE50AC3950E400575080080A0
:105EC00051E50EC3950AF5088048EE24151276C6F2
:105ED00012600CF0901C49E014C0E0125FC1D0E0E9
:105EE000126011741D122CFFE0C0E0125FAFD0E011
:105EF000F0125FB912671670051276C38003125F45
:105F0000DAF0EE241AFE50010F050BE50BC39509DC
:105F10005047740E122AB7AA087B007987123DE910
:105F200005087418122CFF12601F7410122CFF1237
:105F30005FCB740E122CFF125FE6127709901A7C69
:105F4000E0600464017083125FC5125FEE74031297
:105F50005FFD74FF808A750900750A00780A122AAD
:105F60004A7812122A467809122A4AE50EF509786B
:105F700009122A4A7405122CFFE0FD7C00E5141278
:105F800064B93515FBE5141264BE3515F583E0F9E7
:105F90001239757405122A59E51245136007AA12C1
:105FA000AB131233FF7425122A597F0E0226E9EE35
:105FB0002419F582E43FF58322EE2412F582E43FB2
:105FC0002212600222127727740222AC82AD83EE85
:105FD000240AFAE43FFB12350D22EE2414F582E484
:105FE0003FF583740122126B4112771DE822125F84
:105FF000F222F0EE2416F582E43FF58322F01260DF
:106000000222EE2418F582E43FF58322125FF2E4C7
:1060100022F0EE2417F582E43FF5837402F0221299
:106020006B418E828F83E8F0A3E9F07C4A7D1CEE01
:106030001264B93FFB12350D2212603EE022F0855A
:106040000C82850D83A3A3A3A32274F612245A7491
:10605000F9122AED1260BD127DE58518828519833B
:10606000122CE88E828F83A3A3A3A3E0C0E0740464
:10607000122CFFD0E0127B26F87405122CFF74015D
:10608000F07406122CFF7401F09017DBF09017E407
:10609000041277BCFAA3E0FB9017DC125CA8E8902E
:1060A00017E5F0127B38E09017DAF0AA18AB191256
:1060B0003D7DE96003123D8374070255928A088B87
:1060C00009127B8735092274F212245A74FF122AAE
:1060D000ED7508007E007F001243898A0A8B0B123F
:1060E0006231800505081264C8E84970F7901A7C8F
:1060F000E06007640160030261A71262318003124D
:1061000064C8E849602D88828983126559901C36DD
:10611000E06A7003A3E06B600A1264CF126559EA6B
:106120004B70DC88828983126247E0687003A3E0C9
:106130006960747A167B00127AB8606B901C361214
:106140006256E8127709901C2B126E31F01244F758
:10615000E98E828F83A3A3A3A3A3F0901E66E08E93
:10616000828F83A3A3A3A3A3A3F07C4A7D1CEE2468
:106170000B125FD2AA18AB19794112623DE0600898
:106180009017D11264CB800478FE79FF8E828F83C2
:10619000A3A3A3A3A3A3A3E8F0A3E91262661262D8
:1061A0005E8E0A8F0B05089017E5E0F8E508C398A6
:1061B000500479008029E508C398F9C39406400289
:1061C00079057800800FE50A2414F582E4350B1276
:1061D000624EF50B089017E5E0FAE8C39A40E775C0
:1061E00009007809122A4A780A122A46E9F509783C
:1061F00009122A4A9017E5E0F5097809122A4AADF2
:10620000087C007ADC7B179017DAE0F912396F749A
:1062100005122A59901A7CE060046401700BEE4F5D
:106220006007EEFAEFFB1233FF123D837401027B2D
:106230006D1243898A0C8B0DA80CA90D22123B4FBD
:1062400085188285198322126B41901C3622F583B2
:10625000E0F50AA3E022126B418A828B8322E50AD1
:10626000F0A3E50BF022F0EE1277A42274F01224D2
:106270005A74FF122AED8A0A8B0B7E008E0E8E0F47
:10628000126397350BF5831264DEFFAC18AD197AF3
:10629000007B00799D123DE9851882851983E0F81D
:1062A000EFC3984003026341E0C39FFEC3940B40D9
:1062B000027E0AEE75F007A4FAABF01264B18A0E02
:1062C0008B0FEA4B6079750C00801A85088285096E
:1062D00083A3A3A3A3A37403F0E5082407F5085040
:1062E000020509050CE50CC39E5056AC08AD09E546
:1062F0000C2FFAE43400FB798B123DE98508828586
:106300000983A3A3A3A3A3E014600814601314607B
:106310001F80B8850882850983A3A3A3A3A3E48073
:10632000B7850882850983A3A3A3A3A3740180A8CA
:10633000850882850983A3A3A3A3A3740280997E01
:10634000007508007808122A4A780E122A46EEF5DF
:10635000087808122A4AEFF5087808122A4A7405C4
:10636000122CFFE0FD7C00E50A1264B9350BFBE559
:106370000A1264BE350BF583E0F912397B740512FD
:106380002A59E50E450F6007AA0EAB0F1233FF74B2
:1063900001122A5902547BEA127B882274EE1224DD
:1063A0005A74FE122AED8A0C8B0D751000751100BF
:1063B000126397350DF5831264DEF50AAC18AD193A
:1063C0007A007B0079A31240CB851882851983124D
:1063D00064CBC3E50A98E499502085188285198317
:1063E000A80AE0C398FEA3E09400FFC3EE9404EF74
:1063F000940040617E037F00805F7E00750B00EE9D
:10640000F97508007808122A4A7810122A46E9F528
:10641000087808122A4AE50AF5087808122A4A7408
:1064200005122CFFE0FDAC0BE50C1264B9350DFB39
:10643000E50C1264BE350DF583E0F912398174055F
:10644000122A59E51045116007AA10AB111233FF4B
:106450007402027BC0EE4F60A3EEFAEFFBEA75F028
:1064600015A4FAA8F075F015EBA4281264B08A10F0
:106470008B11EA4B6032750B00750E00C3E50E9E62
:10648000E49F40030263FFAC08AD09A80AE50E28AB
:10649000FAE43400FB79A21240CBE5082415F50894
:1064A00050020509050E80D4750BB5790002640110
:1064B000FB1233F98A088B09222402FAE4221264BF
:1064C000C222240FF582E4221264CF126B4122E82B
:1064D0002414F582E439F58322125AE2A3A3125A56
:1064E000E0E02274F612245A74FF122AEDEAFEEB61
:1064F000FF1267041265598A82F583A3A3A3A3A39D
:10650000A3A3A3E0F9123DA1E9851882851983F0C0
:106510007508007808122A4A7401122AA788088987
:10652000097808122A467508357509807808122AF4
:106530004612653C122A597401025592790112657E
:1065400048FAE43F12666622EE2402FCE43FFDEEC8
:10655000240F228518828519831274EC2274F41298
:10656000245A74FA122AED1260BD1278AAEEFAEFDC
:10657000FB123C75E9600F12666DEEFAEFFB123507
:1065800007E964017013901A7CE0700302664A7494
:1065900001122CFFE4F0A380097401122CFFEEF02D
:1065A000A3EFF0901A7CE0640270178508828509D9
:1065B00083A3A3126B2FE0687003A3E0696003025A
:1065C000664A8E828F83A3A3A3A3A3A3A3A3E0FE03
:1065D000A2E650087403122CFF7401F0EEA2E750FB
:1065E000087404122CFF7401F07405122CFFE412DD
:1065F0006926F0F50A780A122A4A7401122AA78835
:106600000A890B780A122A46750A34750B80780AB3
:10661000122A4612664F122A59908147122CD01224
:1066200044917A007B0012449D7A007B00124497CB
:106630007401122AAF123DD7EEA2E7400D74011289
:106640002CFF1267187003124A8574060254DD7914
:1066500001E5082402FCE43509FDE508240FFAE40D
:10666000350912666622FB1238D974052212446D70
:106670008A0A8B0BAC0AAD0B2274F612245A74FFF3
:10668000122AEDEAFEEBFF901A7CE07011901E6B6F
:10669000E0700B8A828B83A3A31267187063126762
:1066A000041264DEF50874FF650870037508FEA91E
:1066B00008123D8FE9851882851983F01241D3E9CC
:1066C0006005A908123A47901A7CE07005A90812E3
:1066D0003A47EE240B126B1C7027750800780812DD
:1066E0002A4A7401122AA7880889097808122A46BA
:1066F0007508367509807808122A4612653C122AF8
:1067000059026537EA126709222413F582E43FF53E
:106710008322F582E438F583126B41E84922C08276
:10672000C083901A7CE07003123A4DD083D082026D
