:020000040000FA
:10000000021305022003FFFFFFFFFF02200BFFFF8B
:10001000FFFFFF020E67FFFFFFFFFF02201BFFFF36
:10002000FFFFFF022023FFFFFFFFFF02202BFFFF48
:10003000FFFFFF022033FFFFFFFFFF020EAAFFFFBB
:10004000FFFFFF022043FFFFFFFFFF02204BFFFFE8
:10005000FFFFFF022053FFFFFFFFFF02205BFFFFB8
:10006000FFFFFF022063FFFFFFFFFF02206BFFFF88
:10007000FFFFFF022073FFFFFFFFFF02207BFFFF58
:10008000FFFFFF022083FFFFFFFFFF02208BFFFF28
:10009000FFFF70DFFFFF040000000002000000C847
:1000A0000300030369A5020269A501000000000026
:1000B00004003273000074F812104C900393E06057
:1000C0001590030274FEF0900304744DF0A37405C0
:1000D000F07A0112068C7F0102116974F712104C3C
:1000E00074FF1212717E00801F851882851983E0CB
:1000F00064FE70069003877401F085188285198369
:10010000E0F8900384E068F07C017D00AA18AB1948
:10011000120E228B09EA450970030201F385188249
:10012000851983E064EF70027E07E0C0E0900387EA
:10013000E0FA900385E0F8EA28F8E43400F9740264
:1001400028F582740339F583D0E0F0900387E060EE
:100150009814600E14602C14603C14605214606893
:100160008098900384E4F0851882851983E09003D9
:1001700086F0C394809003874004E40200F974027F
:100180000200F9851882851983E0900382F09003BC
:100190008774030200F9851882851983E090038330
:1001A000F0900386E0601990038774040200F990D0
:1001B0000385E004F0F8900386E06860030200FA2B
:1001C00090038774050200F9900385E4F09003879B
:1001D000F0900384E0F8851882851983E068600355
:1001E0000200FA900382E0644D60030200FA1203F9
:1001F000288002EEF9740112123D7F020211697427
:10020000F712104C74FB121271EAFEEBFF75080432
:1002100075090078081212D574021212EE7A907BDA
:10022000007904120ECB740212123D12067E1213D4
:100230003FE0687003A3E069701285188285198316
:10024000E0F47003A3E0F4600302030874041212E4
:10025000E61206E48A088B09A808A9097402121399
:100260003FE8F0A3E9F0740412133FE0600879015D
:100270001200B6020321851882851983E068700395
:10028000A3E0697076851882851983E0F47003A372
:10029000E0F47019740212133F7410F0A37420F08C
:1002A0008518828519837410F0A37420F0750801F5
:1002B00075090078081212D574021212EE7A247BA6
:1002C00008120F4F740212123D75080478081212BA
:1002D000D574021212EE7A907B007904120ECB7460
:1002E0000212123D12067E12133FE0687003A3E073
:1002F000697004790280067904800279031200B6DD
:100300008E828F83741E80058E828F83E4F01206A6
:100310007E12133FE0687003A3E0697004790180E6
:1003200002790074050201F774E912104C74F81296
:100330001271900307E0FA900306E0F9FEEAFCE48C
:10034000CCFDEE2CED3408FF751001750F00750E15
:10035000068E088F097402780812129CC39508FC57
:10036000E49509FD74022CF51474033DF515E514AC
:100370002497F516E5153420F517EE2410F508E45A
:100380003FF509EEF50CEF5401F50D8E128F137445
:100390000978121212F685120A900383E01460574E
:1003A00014700302046F1470030204E61460102436
:1003B000FE70030205A11470030206510206617566
:1003C0000E03794E120C619003071206747402F04A
:1003D000A374401206727408120672F0A3F0741827
:1003E000C3940704F510AA10A90F12068CA90E7465
:1003F0000812123D02083E750E04794E120C61EE91
:10040000450D7005A90A120FB5C3EE9425EF9408A7
:10041000503FC3E5089424E50994084034E51424CA
:1004200096F8E5153420F988828983E0701E8516D8
:1004300082851783E070159003887401F0888289A3
:100440008374A5F08516828517838004900388E461
:10045000F075081075090078081212D57C087D0324
:10046000EEFAEFFB120F4F740212123D0203E67513
:100470000E05C3E50A947995E04006750F01020365
:10048000E675104075110078101212D57C097D03B5
:100490007402780C12129CAA0CAB0DA90A120ECB96
:1004A000740212123D900307E0A3F0900306E0A34C
:1004B000F0751043C3EE9425EF940840030203E661
:1004C000C3E5089424E509940850030203E6900369
:1004D00088E070030203E6A816A91788828983E4DE
:1004E000F0A3F00203E675080475090078081212FB
:1004F000D574021212EE7A907B007904120ECB743E
:100500000212123D740212133FE0F8A3E0F98518BD
:1005100082851983E0687003A3E0698518828519D4
:1005200083700BE0F47003A3E0F470578009E0F4EB
:100530007003A3E0F4700D8518828519837410F0A0
:10054000A37420F012067E12133FE8F0A3E9F075C1
:10055000080178081212D574021212EE7A247B0870
:10056000120F4F740212123D75080478081212D54A
:1005700074021212EE7A907B007904120ECB740290
:1005800012123D12067E12133FE0687003A3E06969
:100590007006750E010203E6750E02750F07020361
:1005A000E6900391E06007640260030203E6EAFF5D
:1005B0007A01790012068CE060030206458003127E
:1005C0000D22120D2CE970F7740412133F12066607
:1005D000740412133F780812132385080C85090D43
:1005E000850A0E850B0F9005A2780C1212C27404B6
:1005F00012133F780C121314E5084509450A450B00
:1006000070CE8EC2E5C554E04FF5C5740412133F99
:10061000120666740412133F780812132385080C1F
:1006200085090D850A0E850B0F9005A2780C121214
:10063000C2740412133F780C121314E508450945DF
:100640000A450B70CE7A01790012068C79080203F4
:10065000EFE9900393F070030203E6750E090203BD
:10066000E679060203EFE4F0A37426F0A3E4F0A316
:10067000F022F0A3E4F0A3F0A3F0A3F0A3228518E6
:1006800082851983E0F8A3E0F974022274F812104D
:100690004CEAFE900305E0D2E7F0E9A3F0EE900308
:1006A00003F08E0874042AFE7C028004E062080CC9
:1006B000ECFA3395E0FB74022AF58274033BF58370
:1006C000EEF8C3EA98EB9400A2D265D03340DDE5A2
:1006D00008F074012A0C3395E0FD7A027B03120EB8
:1006E000520200D674E912104C7582007583FE1216
:1006F00012048A168B177514007515008A828B8375
:10070000E4F0900391E07006D2AAD2AF80046402B4
:10071000700579001200B6750C00750D20750E007D
:10072000750F00900391E0600464027015120D22B1
:100730001200DBE9F87409686003020814790012FA
:1007400000B675080075090278081212D5740212F5
:1007500012EE850C08850D09AA08E5095407FB85EA
:100760000E0A850F0B740B7808121258A908120E86
:10077000CB740212123D7E007F009005AAC0828ECB
:1007800010EFF5113395E0F512F513850C08850D82
:1007900009850E0A850F0B780879101212AF9005A3
:1007A000A678081212C2758305D08278081211E566
:1007B000501D851882851983E5822EF582E5833FD9
:1007C000F583E0F9AA14AB151208438A148B150EB1
:1007D000EE70010FC3EF940240A09005AE780C12AA
:1007E00012C29005B2780C1211E54003020723797A
:1007F00000AA14AB1512084379001208438B159018
:100800000391E07004C2AFC2AAEA451570277AA529
:100810007BA58021E870030207427406687003021A
:1008200007427407687003020742851682851783A2
:100830007401F080BA7582007583021212047F1071
:10084000021169C008C0097C088A088B09740F78F6
:10085000081212F6E508F8EA25E0FAEB33FBE9A204
:10086000E7500474014AFAE8A2E0500874216AFAD9
:1008700074106BFBE9C333F91CEC70CDD009D008C0
:100880002274F812104C78007900802274942EF5AE
:1008900082E43403F583E08A828B83F0900414129F
:1008A0000A014005900414E4F008E870010990047E
:1008B00014E0FEA3E06E6007C3E89CE99D40CDE82C
:1008C000FAE9FB7F0102116974F712104C90049849
:1008D000E0F509A3E0F508F8E509C398F895E0F913
:1008E000E508C39509E8500B120AE3701178007906
:1008F00000801B247F500109C39CE99D50EF7A00C2
:100900007B008041E004F0D2E908E8700109C3E807
:100910009CE99D502C8A828B83E0C0E0900499E092
:10092000FE74182EF582E43404F583D0E0120AD365
:1009300090049AE4F0900499E0C3947F40C6E48068
:10094000C5E8FAE9FB7F02021169C082C083C2E9EF
:10095000900498E0F8A3E0686017741828F582E422
:100960003404F583E0F5C1900498120AFA4002E4D9
:10097000F0020D4074F812104C7800790090051DBB
:10098000E07055A3E0705175F900C28FC284A28354
:1009900040FCA28F4004A28350F8AEF9C28FA2831C
:1009A0005004D2848032EEC0E0E0FE1209F6D0E0BE
:1009B000F090051E120AFA40D9E4F080D51209F62B
:1009C000E08A828B83F090051D120A014005900594
:1009D0001DE4F008E870010990051DE0FEA3E06E3B
:1009E0006007C3E89CE99D40D4E8497006E4F090B4
:1009F000051DF00208BF749D2EF582E43404F583D2
:100A000022E004120AD7C394802274F812104C908A
:100A100005A0E0FEF890059FE0FFEEC39FE0500DBB
:100A2000C398F895E0F9120AE270188012C398F89A
:100A300095E0F9E8247F500109C39CE99D4004EC4E
:100A40004D70077A007B00020AD08A828B83E0F522
:100A5000F9A3AA82AB83780179008008E004F0084A
:100A6000E8700109C3E89CE99D50278A828B83E0E6
:100A7000C0E09005A0E0FE741F2EF582E43405F579
:100A800083D0E0120AD39005A0E0C3947F40CDE468
:100A900080CCC28FA28340FCC284A28F4004A28378
:100AA00050F890059F120AEDE0F5F9C28F90059F6E
:100AB000E0FAA3E06A90059F7005120AED80051226
:100AC0000AFA4002E4F0A28350D0D284E8FAE9FBAB
:100AD0000208C3120AD722F08A828B83A3AA82ABB0
:100AE0008322E824FF18E934FFF9E84922E0FA7488
:100AF0001F2AF582E43405F58322E004F0C39480D4
:100B00002274FB121271C2009005CA7808121323D6
:100B10009005CA7401F0A3F0A37469F0A374A5F062
:100B20009005B678081212877004D20080159005DF
:100B3000BA78081212876008E59D54186410700393
:100B4000022000120C87A2005003020C04AA18AB6A
:100B5000191201FFE97003020C04851882851983BC
:100B6000E0C3943C500CE0F8743CC398FA95E0FB69
:100B700080047A007B00120D45E97003020C04909A
:100B80000391E06401700C75F800C2AB539AF7D280
:100B9000EA805E79071200B68003120D22120D2C36
:100BA000E970F7740112133FE4F0A37426F0A3E494
:100BB000F0A3F0740112133F780812132385080C78
:100BC00085090D850A0E850B0F9005A2780C12126F
:100BD000C2740112133F780C121314E5084509453D
:100BE0000A450B70CE758600C2AAC28B539AFBC20F
:100BF000E990000174CDF0022000C2AF75C9AB7559
:100C0000C95B80FE750800750900750A00750B0048
:100C1000900391E0701BD2AAD2AF79051200B6E022
:100C20007003120D221200DBE9F874096870098064
:100C3000E9794E120C6180ED74016870E2E0701782
:100C4000120D229005BE78081212C29005C27808D3
:100C50001211E550EBC2AAC2AF75C9AB75C95B8072
:100C6000FEC082C08378109005A1E0C3995015752D
:100C7000B60FE5B4A2E750FAE5BBC39940F118E816
:100C800070EDE9F0020D40C082C08353BEFBE59DCC
:100C9000A2E650FA0078F8790100120AE270FA75BB
:100CA000C6807480659E70FA43BE049062707408BA
:100CB000F0794A120C6190000174F5F07403F5D5D7
:100CC00075D489A2A0E433900391F0A2E05029D218
:100CD0008453F3F753F3EF53FDF743FD10538FF7AE
:100CE00053F7DF43FC2043F10253F5DF75F820434F
:100CF000F4F0D2FED2AB802853FF3F85FFFF53F1C3
:100D0000FE43F30C53F2F375868075C48090049B08
:100D1000E4F0A3F075C2D875C50B75C402438640D4
:100D2000801E800312094AA2E940F922C082C083D2
:100D3000900498E0F8A3E0686004790180027900EB
:100D4000D083D0822274F112104C74FF1212717E83
:100D500000900391E06401706CC28490039274016E
:100D6000F07508388E098E0A8E0B7C017D00AA185A
:100D7000AB19120E228B0DEA450D6018851882857D
:100D80001983E06410602DE064EF70088E088E090E
:100D90008E0A8E0B85080C85090D850A0E850B0FB2
:100DA0009005A278081212C2E50C450D450E450FBC
:100DB00070347E01900391E064017056D2849003F8
:100DC00092E4F08051D2AAD2AF8A088B09E4F50AE6
:100DD000F50B9005C6780C1213237808790C120FC6
:100DE000CC79061200B6900391E06003020D6A12FE
:100DF0000D221200DBE9F874096870077906120009
:100E0000B680917407686084E8608974066870A48D
:100E10008082C2AFC2AAEEF9740112123D7F0802AD
:100E20001169C082C083900391E07005120881802F
:100E30001E900392E06015A28F500BE5F98A828B19
:100E400083F07A0180027A007B0080031209740229
:100E50000D40C082C083900391E070051208C880E5
:100E600003120A0A020D40C0E074F21210B29000A0
:100E700001E064CD7005122013802AE064F570242F
:100E8000E5C1C28BC0E0900415E0F8749428F582A7
:100E9000E43403F583D0E0F0900415120AFA40051B
:100EA000E4F08001007F01021111C0E074F2121021
:100EB000B2900001E064CD700512203B800BE0642D
:100EC000F5700512094A80010080DA74F612104CA0
:100ED000890A740F550AF508750900740B78081211
:100EE000129CEA2400F8EB3480F9E82400E9350983
:100EF000F985C709A2AFE433F508C2AFE50AC454C7
:100F00000FFAE5C754F84AF5C7740A12133FE0FA1E
:100F1000A3E0FB801C88828983E08C828D83F0882B
:100F2000828983A3A882A9838C828D83A3AC82AD9E
:100F300083EAFEEBFFEE24FF1AEF34FFFBEE4F7067
:100F4000D48509C7E508A2E092AF7F030211697456
:100F5000F712104CED900389F0ECA3F0A37462F04B
:100F6000A37473F0A3E0541FF0740912133FE0F56B
:100F700008A3E0F509E508333354FC90038EF074C0
:100F80000678081212F6E50890038DF090038F742E
:100F900012F0A37442F075D1FE75D601EA90627129
:100FA000F0EBA3F0906270E0D2E1F0E0A2E740FB4A
:100FB0007F02021169C082C083E9C333906272F07C
:100FC000906270E0D2E0F0D083D08222080808EA74
:100FD000C0E0EBC0E086F0E7A4FA180986F0E7A4C9
:100FE0002AFA180986F0E7A42AFA180986F0E7A475
:100FF0002AFA1986F0E7A4FBE5F02AFA190886F028
:10100000E7A42BFBE5F03AFA190886F0E7A42BFBDE
:10101000E5F03AFA18180986F0E7A4C5F02BFBE4CE
:101020003AFA1908E7C5F0C6A426F6E5F03BFBE45A
:101030003AFA1886F0E7A4F6E5F00826F6E43B084D
:10104000F6E43A08F6D0E0FBD0E0FA222518C58293
:10105000C0E0E51934FFC583C0E0E518C3958224DC
:10106000F910AF0885831985821880088583198552
:101070008218D2AFCEF0A3E520F0A37808E608F0FE
:10108000A3DEFAEFF0A3E58124FBF8E608F0A3E67F
:1010900008F0A30808E608F0A3E608F0A3158115F8
:1010A00081D0E0FED0E0F815811581E8C0E0EEC007
:1010B000E022C0D02518C582C0E0E51934FFC58301
:1010C000C0E0E518C3958224F310AF088583198525
:1010D00082188008858319858218D2AFC8F0A3E9E9
:1010E000F0A3EAF0A3EBF0A37908E709F0A3D8FA9C
:1010F000ECF0A3EDF0A3EEF0A3EFF0A3D0E0F0A3AB
:10110000D0E0F0A3D0E0F0A3E520F0A3E5F0F0A359
:1011100022851983851882E0C0E0A3E0F9A3E0FAF4
:10112000A3E0FBA37808E0F608A3DFFAE0FCA3E065
:10113000FDA3E0FEA3E0FFA3E0C0E0A3E0C0E0A3C6
:10114000E0F5D0A3E0F520A3E0A3F5F010AF08850B
:1011500083198582188008858319858218D2AFD0BB
:1011600082D083D0E0F8D0E032851983851882E000
:10117000A3FEE0A3F5207808E0A3F608DFFAE0A3D9
:10118000FFE0A3C0E0E0A3C0E0E0A3C0E0E0A3C0B4
:10119000E010AF088582188583198008858218853C
:1011A0008319D2AFD083D08222E490030278A17950
:1011B000038002F0A3D8FCD9FA7AA27B0590008EB6
:1011C000782979018015E493A3AD82AE838A828B5E
:1011D00083F0A3AA82AB838D828E83D8E9D9E712EC
:1011E0000B01121349C008C3E096F50808A3E09666
:1011F000420808A3E096420808A3E096450870015B
:10120000D3D00822C5822518C582C583351910AFF1
:1012100007F5198582188007F519858218D2AFC5A0
:1012200083222518F58210AF08F518400C15198097
:1012300008F51840021519D2AF8519832200C0D0D5
:10124000251810AF08F518500C05198008F518502E
:10125000020519D2AFD0D0226016080808C6C31301
:10126000C618C613C618C613C618C613C6D5E0EAF4
:1012700022251810AF08F518400C15198008F5182C
:1012800040021519D2AF22E066701008A3E0667024
:101290000A08A3E066700408A3E0662270042260D6
:1012A0000D18C6C333C608C633C6D5E0F41822E607
:1012B00027F60809E637F60809E637F60809E6379B
:1012C000F622E026F608A3E036F608A3E036F60894
:1012D000A3E036F62274028000C0E0F40412122269
:1012E000D0E0121332222518FAE43519FB22251812
:1012F000FCE43519FD22600C08C6C313C618C613DA
:10130000C6D5E0F42275D00075813F7518027519B5
:10131000030211A9E6F008A3E6F008A3E6F008A38B
:10132000E6F022E0F608A3E0F608A3E0F608A3E062
:10133000F622CAC0E0E6F0A308DAFAD0E0FA2225E5
:1013400018F582E43519F5832200000080FBFFFFC9
:10135000FFFFFFFFFFFFFFFFFFFFFFFFFFFFFFFF9D
:10136000FFFFFFFFFFFFFFFFFFFFFFFFFFFFFFFF8D
:10137000FFFFFFFFFFFFFFFFFFFFFFFFFFFFFFFF7D
:10138000FFFFFFFFFFFFFFFFFFFFFFFFFFFFFFFF6D
:0A1FF600CA05094338860000000008
:020000040003F7
:01FFF000F020
:020000040000FA
:10200000022C72022212FFFFFFFFFFFFFFFFFFFF04
:10201000FFFFFFFFFFFFFFFFFFFFFFFFFFFFFFFFD0
:10202000FFFFFFFFFFFFFFFFFFFFFF0229FEFFFF94
:10203000FFFFFFFFFFFFFFFFFFFFFFFFFFFFFFFFB0
:10204000FFFFFF02276DFFFFFFFFFFFFFFFFFFFF07
:10205000FFFFFF02214CFFFFFFFFFFFFFFFFFFFF1E
:10206000FFFFFFFFFFFFFFFFFFFFFF022918FFFF3A
:10207000FFFFFFFFFFFFFFFFFFFFFFFFFFFFFFFF70
:10208000FFFFFF0221A301FFFFFFFFFFFFFFFFFF95
:10209000102010200100F0FF0700080000FFFF00E3
:1020A00000030400000F010196511800020000B166
:1020B00031000000001B312F328131F93100004521
:1020C000310000000000000000000051310000005D
:1020D000000000000000005D3106FFFFFF01040268
:1020E00000000118000000E8030000FFFFCD180108
:1020F00003E803000064006400B801A0BB0D00A069
:10210000BB0D000202020704010101051E02051EAB
:10211000020A0A01010809080103B80B02803E0106
:1021200002FEFFE8030A050001FFFF0A011401E0B7
:102130000105030101FF0F10FEFF044E0000000027
:10214000764C00000000FF000000FF00C0E074F2C9
:1021500012258DA2AFE433F508D2AFAFA7AEA1EE42
:102160005F54106006122E8D75A1EFEE5F5408606B
:1021700008122E9375A1F78023EEA2E092F0EFA251
:10218000E082F05017906198E0F8900934E0C3982D
:10219000A2D265D0335002E8F075A1FE751A00E5B1
:1021A000088066C0E074F212258DA2AFE433FED23F
:1021B000AF9061A4E0F8759B00E591585408600861
:1021C0007591F7122EE18023E5915854106008753F
:1021D00091EF122EE78014E591A2E092F0E8A2E0E0
:1021E00082F05007E0C2E0F01230499061A3E0F8BD
:1021F000E5E9585404600E12301F75E9FB906193B5
:10220000E0A2E640F2751A00EEA2E092AF7F010272
:1022100025ECC0E074F212258DA2AFE433FED2AFFC
:102220009061A5E0F8E5BF585404600675BFFB1245
:10223000306180D1C3E498F8E499F91222758026C0
:10224000C3E49AFAE49BFBE920E7E9122275E498DB
:10225000F8E499F922C3E498F8E499F9122275E4B4
:1022600098F8E499F9C3E49AFAE49BFB22EB20E79F
:10227000CFE920E7E0B90010BB0008E88AF084F855
:10228000AAF022E4FBC8FA22EB70227B10C833C804
:10229000C933C9335007C39AC3DBF280069A500191
:1022A0002ADBEAC833F4C8C933F4C9FA2275F00846
:1022B000E4C833C8C933C933C99AC99B5004C92A71
:1022C000C93BD5F0ECFBC833F4C8E4C9FA2274F575
:1022D00012252774FA122AE5750804750900780892
:1022E000122A3E7404122AAF7AF87B077903122D62
:1022F000677402122A519081037808122CA074028C
:10230000122CF77808122B10704875080275090016
:102310007808122A3E7402122AAF7AF67B077903F4
:10232000122D677402122A51851882851983E0F4F0
:102330007003A3E0F4601B851882851983E0F8A37D
:10234000E08882F5837402F0A3F0A37469F0A374AB
:10235000A5F0C2AF75D69F0200007406122A517F05
:10236000040227B0080808EAC0E0EBC0E086F0E706
:10237000A4FA180986F0E7A42AFA180986F0E7A457
:102380002AFA180986F0E7A42AFA1986F0E7A4FBCE
:10239000E5F02AFA190886F0E7A42BFBE5F03AFAF3
:1023A000190886F0E7A42BFBE5F03AFA181809861D
:1023B000F0E7A4C5F02BFBE43AFA1908E7C5F0C62C
:1023C000A426F6E5F03BFBE43AFA1886F0E7A4F61B
:1023D000E5F00826F6E43B08F6E43A08F6D0E0FB20
:1023E000D0E0FA22E4CFC0E0E4CEC0E0E4CDC0E02B
:1023F000E4CCC0E075F020E626F608E633F608E601
:1024000033F608E633F6181818EC33FCED33FDEE1E
:1024100033FEEF33FFC3EC9709ED9709EE9709EF11
:1024200097191919400FFFEC97FC09ED97FD09EE7C
:1024300097FE191906D5F0BFECF709EDF709EEF78D
:1024400009EFF7191919D0E0FCD0E0FDD0E0FED07B
:10245000E0FF222518C582C0E0E51934FFC583C01E
:10246000E0E518C3958224F810AF088583198582AA
:10247000188008858319858218D2AFCEF0A3E52095
:10248000F0A37808E608F0A3DEFAEFF0A3E58124D4
:10249000FAF8E608F0A3E608F0A3E608F0A30808B7
:1024A000E608F0A3E608F0A315811581D0E0FED080
:1024B000E0F8158115811581E8C0E0EEC0E0221238
:1024C0002CECB90003022511E49004D17815791A97
:1024D0008002F0A3D8FCD9FA781A9020867A01BA43
:1024E00000028007E493A3F608DAF97AE57B1D90F1
:1024F000209478B979018015E493A3AD82AE838AE4
:10250000828B83F0A3AA82AB838D828E83D8E9D994
:10251000E77582467583EA74061229E07582717543
:10252000834A74001229E02518C582C0E0E51934F9
:10253000FFC583C0E0E518C3958224F910AF088574
:1025400083198582188008858319858218D2AFCEB9
:10255000F0A3E520F0A37808E608F0A3DEFAEFF098
:10256000A3E58124FBF8E608F0A3E608F0A3080839
:10257000E608F0A3E608F0A315811581D0E0FED0AF
:10258000E0F815811581E8C0E0EEC0E022C0D0255A
:1025900018C582C0E0E51934FFC583C0E0E518C363
:1025A000958224F310AF08858319858218800885E9
:1025B0008319858218D2AFC8F0A3E9F0A3EAF0A38B
:1025C000EBF0A37908E709F0A3D8FAECF0A3EDF05B
:1025D000A3EEF0A3EFF0A3D0E0F0A3D0E0F0A3D0FF
:1025E000E0F0A3E520F0A3E5F0F0A32285198385B0
:1025F0001882E0C0E0A3E0F9A3E0FAA3E0FBA3782F
:1026000008E0F608A3DFFAE0FCA3E0FDA3E0FEA3E8
:10261000E0FFA3E0C0E0A3E0C0E0A3E0F5D0A3E0CA
:10262000F520A3E0A3F5F010AF0885831985821883
:102630008008858319858218D2AFD082D083D0E0FC
:10264000F8D0E03275F0108E218F228582268583A6
:1026500025851882851983E0CEA3E0CF8526828563
:102660002583EBC9EAC8EDCBECCAC3E833C8E9332C
:10267000C9EA33CAEB33CBC3EA9EF524EB9FF523BB
:10268000B35004AB23AA24EC33CCED33CDD5F0DA30
:10269000AE21AF2222D083D082ECC0E0EDC0E0E4D6
:1026A00093A3FCE493A3FDED4C600D1227F0EC2402
:1026B000FFFCED34FFFD80EFE493A3FCE493A3FD66
:1026C000ED4C600D1228C3EC24FFFCED34FFFD80BF
:1026D000EFD0E0FDD0E0FCE493A3C0E0E493C0E0E1
:1026E00022851983851882E0A3FEE0A3F5207808EF
:1026F000E0A3F608DFFAE0A3FFE0A3C0E0E0A3C098
:10270000E0E0A3C0E0E0A3C0E0E0A3C0E010AF08B9
:102710008582188583198008858218858319D2AF30
:10272000D083D0820229E6D083D082E9C0E0E4934E
:10273000A3C386F0C5F095F0F908E493A386F0C52D
:10274000F095F0700BE493A3C3994005E90480026F
:10275000A3E475F002A42582F582E5F03583F583C4
:10276000D0E0F9E493A3C0E0E493C0E022C0E074B9
:10277000F212258DA2AFE433FED2AFC2C0901A7F11
:10278000E0700BE5D1A2E4501D122DEB8018E5D1CD
:10279000A2E3500675D1F7122DC1E5D1A2E450068F
:1027A00075D1EF122DC7EEA2E092AF7F010225ECAA
:1027B000851983851882E0A3FEE0A3F5207808E060
:1027C000A3F608DFFAE0A3FFE0A3C0E0E0A3C0E0C7
:1027D000E0A3C0E0E0A3C0E010AF088582188583C5
:1027E000198008858218858319D2AFD083D08222C0
:1027F000C0E0C3E49396087401939618400FE493E5
:1028000066700808740193661870007019A3A3C35A
:10281000E49396087401939618A3A3400DD0E0D0DA
:10282000E0D0E00226D1A3A3A3A3A3A3D0E022D0AB
:1028300083D082C5F0E493A3C5F0C395F0F5F0E42E
:1028400093A3C395F04005E5F0048001E475F00220
:10285000A42582F582E5F03583F583E493A3C0E0F7
:10286000E493C0E0227404800474028000CCC0E0D1
:10287000EDC0E0E518C39CCCAD1950011D10AF06AA
:102880008C188D1980068C188D19D2AF122962D040
:10289000E0FDD0E0FC2274028000CCC0E0EDC0E09E
:1028A000E518C39CCCAD1950011D10AF068C188DD6
:1028B0001980068C188D19D2AF122940D0E0FDD0B6
:1028C000E0FC22C0E0C0F088F0E493667008087471
:1028D000019366187000A8F0A3A3700BD0F0D0E0AD
:1028E000D0E0D0E00226D1A3A3D0F0D0E022D08364
:1028F000D082CCC0E0E493A360061229A21470FA3F
:10290000E493A36006122ACF1470FAD0E0FCE4939B
:10291000A3C0E0E493C0E022C0E074F212258D75FC
:102920008900C2C5901A7FE0700E7A007B10900972
:10293000CCE0F912335B8003123BB37F010225EC3C
:10294000CAC0E0E493A3C582CCC582C583CDC5834C
:10295000F0A3C582CCC582C583CDC583DAE5D0E0BE
:10296000CA22CAC0E0E0A3C582CCC582C583CDC55A
:1029700083F0A3C582CCC582C583CDC583DAE6D0FA
:10298000E0CA22C008C3E096F50808A3E096420812
:1029900008A3E096420808A3E09645087001D3D04A
:1029A0000822C0E0E493A3D39C5010E493A3C39CFB
:1029B000400AD0E0D0E0D0E002290BA3A3A3D0E0EE
:1029C000227009080808226016181818C6C333C6F2
:1029D00008C633C608C633C608C633C6D5E0EA22E1
:1029E000C09FF59FE473D09F22D083D082C09FE424
:1029F00093C0E0740193C0E0740293F59F22C0E09D
:102A0000C0D0E8C0E0A8A8D2AFC2C7751A00E8A23B
:102A1000E792AFD0E0F8D0D0D0E0322518F58210A0
:102A2000AF08F518400C15198008F5184002151963
:102A3000D2AF851983227404800A7403800674025D
:102A400080027401C0E0F404122A1BD0E0122CAF03
:102A50002200C0D0251810AF08F518500C051980B9
:102A600008F51850020519D2AFD0D022BB0102E7F9
:102A700022C082C08389828A83BB0003E08002E493
:102A800093D083D082226016080808C6C313C618E4
:102A9000C613C618C613C618C613C6D5E0EA222543
:102AA00018F8E43519F9222518FAE43519FB22251E
:102AB00018FCE43519FD22C3E0C696F608A3E0C66B
:102AC00096F608A3E0C696F608A3E0C696F622C0DE
:102AD000E0E493A36C7009D0E0D0E0D0E002290BD1
:102AE000A3A3D0E022251810AF08F518400C151943
:102AF0008008F51840021519D2AF22E76670100859
:102B000009E766700A0809E76670040809E76622A3
:102B1000E066701008A3E066700A08A3E06670041F
:102B200008A3E06622C3E09608A3E09608A3E09617
:102B300008A3E096A2D265D03322C3E096F008A3A2
:102B4000E096F008A3E096F008A3E096F022C3E632
:102B500097F60809E697F60809E697F60809E69752
:102B6000F622C3E493960874019396087402939630
:102B7000087403939622E627F60809E637F6080953
:102B8000E637F60809E637F622E026F608A3E0362F
:102B9000F608A3E036F608A3E036F622E493F6083A
:102BA000740193F608740293F608740393F622E610
:102BB00047F60809E647F60809E647F60809E64732
:102BC000F622E657F60809E657F60809E657F6082A
:102BD00009E657F622E056F608A3E056F608A3E009
:102BE00056F608A3E056F622E056F008A3E056F0A9
:102BF00008A3E056F008A3E056F022E026F008A370
:102C0000E036F008A3E036F008A3E036F0227004C6
:102C100022600D18C6C333C608C633C6D5E0F41803
:102C200022E4C396F608E496F608E496F608E496DD
:102C3000F622C6F4C608C6F4C608C6F4C608C6F42A
:102C4000C622600D08C6A2E713C618C613C6D5E093
:102C5000F322C3E7960809E7960809E7960809E70B
:102C60009622C3E09608A3E09608A3E09608A3E0A6
:102C7000962275D00075813F7518D1751904000230
:102C800024BF600C08C6C313C618C613C6D5E0F42B
:102C900022E6F008A3E6F008A3E6F008A3E6F02297
:102CA000E0F608A3E0F608A3E0F608A3E0F622CADF
:102CB000C0E0E6F0A308DAFAD0E0FA22EAF0A3EBEB
:102CC000F0A3ECF0A3EDF022E0FAA3E0FBA3E0FC1C
:102CD000A3E0FD22E0F8A3E0F9A3E0FAA3E0FB22E1
:102CE000E8F0A3E9F0A3EAF0A3EBF022E5C754F87B
:102CF0004401F5C77901222518F582E43519F583D9
:102D0000221229E9BBC0051229E964C1051229E98B
:102D1000B7C1051229E9E8C1051229E91FC2051248
:102D200029E9C3C3051229E98FC4051229E942C55F
:102D3000051229E9D1F6061229E9E2F6061229E977
:102D400080F7061229E9F5FF011229E943FB061273
:102D500029E998F7061229E9A8F7061229E9BDF72B
:102D6000061229E94EF8061229E9F5F4061229E9B6
:102D700078F5061229E9DEF5061229E9F37F00123B
:102D800029E9DAFF051229E9EAFF051229E9EDFF31
:102D9000051229E9F0FF051229E9F87F001229E957
:102DA000DCFD031229E9FEFD031229E957FF031296
:102DB00029E9DBFF031229E91AFB061229E923FBA3
:102DC000061229E92CFB061229E93AFB061229E929
:102DD0008C79001229E9F879001229E9C07A0012E9
:102DE00029E9A17B001229E99E7D001229E9057ECF
:102DF000001229E9587E001229E9697E001229E9AA
:102E0000797E001229E9EB7E001229E9017F001288
:102E100029E90C7F001229E91A7F001229E92C7F89
:102E2000001229E9D29E061229E9FE9E061229E91E
:102E300080A1061229E9D7A1061229E917A20612D4
:102E400029E92BA2061229E944A2061229E935A391
:102E5000061229E9E6A3061229E9FAA3061229E9CE
:102E600041EC061229E965EC061229E97EEC06120E
:102E700029E9B0EC061229E9E0EC061229E90DED8A
:102E8000061229E917ED061229E979ED061229E95A
:102E900088ED061229E992ED061229E99FED061246
:102EA00029E96ADE061229E98ADE061229E9C9DE65
:102EB000061229E9E4DE061229E903DF061229E9F0
:102EC00069DF061229E972DF061229E9CFDF06124F
:102ED00029E9DEDF061229E902E0061229E9C3E04A
:102EE000061229E9D0E0061229E9E1E0061229E9F3
:102EF00046FA061229E95EFA061229E98AFA06124A
:102F000029E980A9061229E9D4AA061229E9E2AA28
:102F1000061229E9F5AA061229E90AAB061229E9DF
:102F20001FAB061229E932AB061229E9A6AB06123D
:102F300029E90BAC061229E993AC061229E90FAD79
:102F4000061229E9D3AD061229E9E3AD061229E9F3
:102F5000F2AD061229E9ADF9061229E9D1F90612F6
:102F600029E9F9F9061229E921FA061229E90FE1FE
:102F7000061229E936E1061229E955E1061229E986
:102F8000BDE1061229E958DB061229E971DB0612B8
:102F900029E97DDB061229E991DB061229E9AFDB7D
:102FA000061229E9B9DB061229E9C3DB061229E971
:102FB000D6DB061229E967DC061229E9D6DC0612FF
:102FC00029E90ADD061229E958DD061229E9A5DDFD
:102FD000061229E9C0DD061229E9CADD061229E92F
:102FE000F0DD061229E955DE061229E9F7F5061289
:102FF00029E919F6061229E9A7F6061229E9DEFFE2
:10300000031229E90080061229E92A80061229E91B
:103010004780061229E95A80061229E970800612B3
:1030200029E9CE80061229E90181061229E9F684F0
:10303000061229E95686061229E98986061229E927
:10304000D386061229E94988061229E971880612F1
:1030500029E98688061229E99688061229E9DA887C
:10306000061229E93589061229E94589061229E956
:1030700069F0061229E983F0061229E9ABF006127D
:1030800029E9C4F0061229E9E8F0061229E906F157
:10309000061229E91DF1061229E94BF1061229E968
:1030A00066F1061229E93F7F001229E9857F0012A7
:1030B00029E9A9D4061229E9B9D4061229E9C0D50B
:1030C000061229E9F4D5061229E920D6061229E9C3
:1030D00043D6061229E961D6061229E99BD60612C3
:1030E00029E904D7061229E946D7061229E985D726
:1030F000061229E9B6D7061229E9E1D7061229E90D
:1031000026C5061229E98BC5061229E931C6061221
:1031100029E968C6061229E923C6051229E9BAC6B3
:10312000051229E9E9C8051229E959CB051229E94F
:10313000E5CC051229E951CD051229E9BCD00512CB
:1031400029E907D2051229E9C0F2061229E90BF391
:10315000061229E91EE8061229E9EFE9061229E913
:103160004E91061229E97291061229E9B1920612CE
:1031700029E94A94061229E9CE96061229E905970B
:10318000061229E90EA4061229E9CFA6061229E99A
:1031900074A7061229E9A0A7061229E9CEA70612EC
:1031A00029E903A8061229E92BA8061229E98BA808
:1031B000061229E9FFE0051229E9E6E4051229E9EA
:1031C000D5E6051229E9FEE7051229E9DEE8051230
:1031D00029E98CEA051229E936EC051229E906ED00
:1031E000051229E95AED051229E9B7E3061229E982
:1031F000C1E3061229E9E2E3061229E9C4D3051264
:1032000029E9D9D8051229E947DA051229E903DCA9
:10321000051229E900DD051229E930DE051229E948
:1032200048DF051229E928E0051229E915E4021210
:1032300029E94DE4021229E93CEE021229E910EFD6
:10324000021229E95CF0021229E9A5F1021229E92A
:103250005BF2021229E92FF3021229E916F4021295
:1032600029E909F5021229E9ABF5021229E9D5F598
:10327000021229E985F7021229E9F5F7021229E974
:103280000EF8021229E965F9021229E916FA02126A
:1032900029E998FA021229E944FB021229E9B4FB50
:1032A000021229E950FC021229E9C7FC021229E99D
:1032B000FFFC021229E901FE021229E9B1FE021205
:1032C00029E957FF021229E9A9ED061229E9C9EDFA
:1032D000061229E9DEEE061229E9E1EE061229E9D5
:1032E00003F9061229E94AF9061229E98CF90612AE
:1032F00029E99CF9061229E95398061229E99198BF
:10330000061229E9FA98061229E91799061229E9FD
:103310003099061229E9E299061229E9EB99061279
:1033200029E9309A061229E9669A061229E97D9A56
:10333000061229E9EF9A061229E97C9B061229E96F
:10334000B29B061229E9099C061229E96D9C061216
:1033500029E9909C061229E9F49C061229E9509D5E
:10336000061229E98B9D061229E9C09D061229E95A
:10337000D29D061229E9E49D061229E91C9E061237
:1033800029E9689E061229E9A69E061229E906B3D4
:10339000061229E946B4061229E969B4061229E998
:1033A0007AB4061229E96FB6061229E98FB6061219
:1033B00029E9E7E5061229E91BE6061229E963E691
:1033C000061229E9BFE7061229E92096051229E924
:1033D0005197051229E98B97051229E94A99051297
:1033E00029E97499051229E9019C051229E9419CF2
:1033F000051229E9D89D051229E96B9E051229E9D4
:10340000C39E051229E9669F051229E99E9F0512B0
:1034100029E9E09F051229E94FA1051229E9A1A296
:10342000051229E9C4A4051229E9F2A4051229E923
:1034300019A5051229E922A5051229E972A5051287
:1034400029E904A6051229E9F4A8051229E977A9B2
:10345000051229E95EF8061229E974F8061229E92D
:103460007EF8061229E9D8F8061229E984BC06126A
:1034700029E99ABC061229E93FBD061229E97EBD59
:10348000061229E99BBD061229E9CCBD061229E9DD
:1034900019BE061229E94CBE061229E987BE06129A
:1034A00029E973C0061229E9D4C0061229E999F165
:1034B000061229E9F8F1061229E952F2061229E961
:1034C000E2F3061229E954F4061229E992F40612ED
:1034D00029E9D3F4061229E97589061229E97B89BD
:1034E000061229E9C689061229E9B88B061229E9CC
:1034F000278C061229E9F58C061229E9368D061269
:1035000029E9648D061229E9EE8D061229E9058E56
:10351000061229E9128E061229E91C8E061229E9E3
:10352000B88F061229E9C890061229E911910612EE
:1035300029E959F7011229E96FF7011229E902F87F
:10354000011229E92EF9011229E923FA011229E9C8
:10355000C0FA011229E900FB011229E97EFB0112E0
:1035600029E9DBFB011229E9EBFB011229E912FC35
:10357000011229E965FC011229E9D6FD011229E9A8
:10358000DBFD011229E9FBFD011229E9F2D8041241
:1035900029E924D9041229E9A3D9041229E9F1DA85
:1035A000041229E9CADB041229E949DD041229E9D8
:1035B00065DD041229E9B4DD041229E936DE0412BE
:1035C00029E981DE041229E994DE041229E9FBDEEF
:1035D000041229E956DF041229E993DF041229E9CC
:1035E0007DE0041229E9B8E0041229E93DE1041262
:1035F00029E901E2041229E925E3041229E9A2E3F9
:10360000041229E96CE4041229E9F1E4041229E91D
:1036100034E5041229E94EE5041229E997E504127C
:1036200029E9B7E5041229E976E6041229E98FE7CA
:10363000041229E9A3E7041229E900E8041229E9A0
:1036400055E8041229E9A5E8041229E99BE90412C6
:1036500029E932EC041229E951EC041229E9C6ECFB
:10366000041229E9EAEC041229E960ED041229E9BF
:1036700028EE041229E95FEE041229E9CBEE0412C8
:1036800029E9B0EF041229E9B3EF041229E9BDEFEB
:10369000041229E9C0EF041229E9CAEF041229E94A
:1036A000DDEF041229E951F0041229E987F0041230
:1036B00029E99AF0041229E9C6F0041229E9EDF08B
:1036C000041229E911F1041229E94CF1041229E943
:1036D000BEF1041229E9E6F1041229E9F0F104121D
:1036E00029E927F2041229E941F2041229E95CF2DE
:1036F000041229E98AF2041229E9A0F2041229E944
:10370000B8F2041229E9CAF2041229E9CBFA061226
:1037100029E9E3FA061229E9D5B7061229E913B80F
:10372000061229E99FB8061229E9AAB9061229E961
:10373000C6BB061229E9FBBB061229E9CFF8051220
:1037400029E91EF9051229E9BEFA051229E992FCB8
:10375000051229E9D4FC051229E99FFD051229E982
:10376000A7FE051229E9C9FE051229E925FF051260
:1037700029E9A6FF051229E96650001229E98550BA
:10378000001229E91551001229E95E51001229E9B8
:10379000D251001229E94F52001229E9AD5200120C
:1037A00029E9B052001229E9F252001229E96153C5
:1037B000001229E90154001229E90454001229E9F0
:1037C0007954001229E9BE54001229E9C1580012A7
:1037D00029E9285A001229E9665A001229E9BC5A37
:1037E000001229E9025E001229E9775E001229E938
:1037F0000D60001229E94161001229E96D62001291
:1038000029E9E762001229E9B463001229E94D644D
:10381000001229E95B64001229E92B65001229E9ED
:103820005966001229E91F68001229E92C6A001262
:1038300029E9206B001229E9BE6D001229E95F6EAB
:10384000001229E94D6F001229E9A772001229E937
:10385000B772001229E91C74001229E9AD74001234
:1038600029E9D375001229E95176001229E9A277D6
:10387000001229E9E777001229E9C878001229E93E
:10388000B2BC041229E952BD041229E9BCBD0412DC
:1038900029E9D5BD041229E96CBE041229E9B0BE9C
:1038A000041229E9D2BF041229E90EC0041229E941
:1038B0008AC0041229E9D5C0041229E934C10412CE
:1038C00029E93DC2041229E938C5041229E959C67B
:1038D000041229E9D4C6041229E9BBC8041229E953
:1038E0005BC9041229E902CA041229E965CA041253
:1038F00029E9DACA041229E9E9CB041229E9BDCC85
:10390000041229E9F3CC041229E922CD041229E991
:10391000D6CD041229E902CE041229E982CE04127E
:1039200029E902D0041229E98ED1041229E9D6D25C
:10393000041229E941D4041229E94DD5041229E9D8
:10394000F0D5041229E969D6041229E997D704129F
:1039500029E905DA031229E970DA031229E9B8DA4C
:10396000031229E9FCDA031229E966DB031229E9CB
:10397000AFDB031229E9E7DB031229E981DC03123B
:1039800029E9DBDC031229E933DE031229E9BCDE75
:10399000031229E9E3DE031229E9EDDF031229E925
:1039A000D8E0031229E925E1031229E928E20312EC
:1039B00029E950E2031229E991E3031229E9A2E37C
:1039C000031229E9BAE3031229E9A3E4031229E95E
:1039D000B6E5031229E9BFE5031229E9D6E503128A
:1039E00029E908E6031229E925E6031229E93CE65C
:1039F000031229E94AE7031229E96FE8031229E9CA
:103A0000A5E8031229E9AFE8031229E91CE903122A
:103A100029E905EA031229E93BEA031229E90CEB3B
:103A2000031229E9ADEB031229E9D3EB031229E9CB
:103A3000E0EC031229E9FFEC031229E982ED0312FD
:103A400029E9FAED031229E97EEE031229E9DBEEFA
:103A5000031229E98DEF031229E960F1031229E924
:103A600044F2031229E99AF2031229E9F8F3031246
:103A700029E97CF5031229E905F8031229E9AFF9D0
:103A8000031229E955FA031229E9CDFA031229E9AB
:103A9000E9FA031229E9E6FB031229E9D6FC03122D
:103AA00029E941FD031229E9E1C0061229E9F5C21D
:103AB000061229E9BBC3061229E910C4061229E936
:103AC0008DC4061229E917C9061229E935C906125B
:103AD00029E979C9061229E99FC9061229E9C5C948
:103AE000061229E9DDC9061229E9F5C9061229E9F4
:103AF000A5BB051229E9A2CA061229E9B7CA06120E
:103B000029E9BECB061229E9D9CB061229E9E2CB75
:103B1000061229E9EBCB061229E9F4CB061229E9B2
:103B2000FECB061229E97BCC061229E92BAE061240
:103B300029E98CB2061229E99AB2061229E99FB244
:103B4000061229E9C7EA061229E9D5D0061229E9A1
:103B5000EBD0061229E923C0051229E9CDD20612BD
:103B600029E939D3061229E949D4061229E978D47A
:103B7000061229E98AD4061229E90EEF061229E96C
:103B800039D8061229E995D8061229E9D5D806129E
:103B900029E9C9D9061229E9EDD9061229E902DA7B
:103BA000061229E922DA061229E959DA061229E968
:103BB0006ADA061229E981DA061229E9A6DA06127A
:103BC00029E935DB061229E9C9FF011229E900803C
:103BD000031229E93380031229E99A80031229E9A3
:103BE0002681031229E9CD81031229E915820312E6
:103BF00029E93A82031229E95382031229E97982D9
:103C0000031229E9B782031229E90683031229E97D
:103C10002F83031229E98E83031229E96784031293
:103C200029E91D85031229E97B85031229E94186CB
:103C3000031229E98B86031229E9E286031229E996
:103C40004D87031229E98B87031229E9E1870312C3
:103C500029E9FD87031229E92888031229E9378A0F
:103C6000031229E97D8B031229E9A98B031229E9A3
:103C7000DD8B031229E9FE8B031229E90D8C031257
:103C800029E9188C031229E9C88C031229E9378D18
:103C9000031229E9E48D031229E9208E031229E990
:103CA000DE8E031229E9EB8F031229E93890031203
:103CB00029E9C790031229E92191031229E96691A4
:103CC000031229E9F593031229E94F95031229E913
:103CD0009B98031229E97999031229E9509A031252
:103CE00029E9799A031229E9EA9A031229E9809BC2
:103CF000031229E9F39B031229E9E29C031229E943
:103D0000079D031229E96A9E031229E9889E03127E
:103D100029E99B9E031229E9FF9E031229E90E9FC0
:103D2000031229E9CE9F031229E9FEA0031229E913
:103D30000EA1031229E911A2031229E98DA203128F
:103D400029E9C6A2031229E9FEA3031229E944A422
:103D5000031229E91FA6031229E900AA031229E97F
:103D600014AA031229E91EAA031229E928AA031298
:103D700029E932AA031229E93CAA031229E955AA22
:103D8000031229E95FAA031229E9D9AA031229E932
:103D9000E4AA031229E913AB031229E93BAB03128E
:103DA00029E946AB031229E994AB031229E99EAB3A
:103DB000031229E9A9AB031229E9CDAB031229E9C2
:103DC000F1AB031229E94EAC031229E994AC0312BA
:103DD00029E9B0AC031229E937AD031229E96EAD28
:103DE000031229E9ADAD031229E9FAAD031229E95D
:103DF0007CAE031229E928AF031229E904B10312AA
:103E000029E972B1031229E99EB2031229E9C4B269
:103E1000031229E91DB4031229E975B7031229E930
:103E2000AEB9031229E98CBB031229E925BC0312A0
:103E300029E94ABE031229E9FEBE031229E937BF68
:103E4000031229E99DBF031229E9A7BF031229E93B
:103E5000D1C1031229E9B6C2031229E91DC4031214
:103E600029E965C4031229E919C5031229E9BCC669
:103E7000031229E943C8031229E963C8031229E997
:103E8000B6C8031229E9B6C9031229E9DEC903122B
:103E900029E941CA031229E924CB031229E996CB67
:103EA000031229E9A8CC031229E92CCD031229E930
:103EB0002ACE031229E9C0D0031229E9DFD0031268
:103EC00029E92AD2031229E9F8D3031229E94CD4AB
:103ED000031229E904D5031229E9B1D5031229E90E
:103EE00014D6031229E9D9D6031229E96FD7031290
:103EF00029E9D6D7031229E918D8031229E949D8A4
:103F0000031229E9A9D9031229E90080021229E93B
:103F10003280021229E96B80021229E961820212C1
:103F200029E9A382021229E98783021229E9DF83A2
:103F3000021229E92285021229E96E85021229E975
:103F40009A88021229E9188C021229E9608D02125E
:103F500029E9F68D021229E9028E021229E9428E20
:103F6000021229E9D78F021229E9CB90021229E91E
:103F7000F590021229E94C91021229E9A591021249
:103F800029E91692021229E94B94021229E9E295D5
:103F9000021229E9B696021229E9FD97021229E9CF
:103FA000559A021229E9269D021229E9359D02122D
:103FB00029E9B99D021229E96E9E021229E9B19EF2
:103FC000021229E9FA9E021229E94E9F021229E9FA
:103FD000B39F021229E90FA0021229E92BA00212B5
:103FE00029E95DA0021229E99CA0021229E982A117
:103FF000021229E931A2021229E9B7A4021229E921
:10400000EDA5021229E9D4A6021229E954A7021249
:1040100029E961AB021229E99FAB021229E906AC3A
:10402000021229E939AC021229E9CCAC021229E9C1
:10403000FFAC021229E99AAD021229E9E8AD021299
:1040400029E9BBAE021229E982AF021229E920B0A8
:10405000021229E92AB3021229E93EB4021229E91F
:10406000E4B7021229E9E6B8021229E9E9B8021216
:1040700029E918B9021229E917BB021229E9F0BB94
:10408000021229E915BC021229E994BD021229E99C
:1040900013BE021229E90CBF021229E9C2BF0212A3
:1040A00029E9D3C1021229E93EC2021229E986C2D6
:1040B000021229E9BFC2021229E918C4021229E931
:1040C000F0C7021229E9E5C8021229E9DFC9021284
:1040D00029E95CCA021229E95BCB021229E9ECCB7F
:1040E000021229E9F0CC021229E904CD021229E9D1
:1040F00018CD021229E94ECD021229E97ECD021215
:1041000029E93CCF021229E9CCCF021229E950D08B
:10411000021229E941D2021229E971D2021229E9D7
:1041200030D3021229E9CDD3021229E978D502123F
:1041300029E963D6021229E9A2D6021229E914D785
:10414000021229E959D8021229E90CD9021229E9E7
:1041500040D9021229E958D9021229E9FBD90212E1
:1041600029E9E9DC021229E9B4DE021229E9D8DEE4
:10417000021229E9F6DE021229E9CADF021229E950
:10418000F7E3021229E9FACC061229E93ACD061220
:1041900029E906CF061229E915CF061229E9008080
:1041A000051229E9C484051229E91985051229E9AE
:1041B0005787051229E9FB88051229E98B89051221
:1041C00029E9E78B051229E9EE8D051229E9458ECB
:1041D000051229E93990051229E98690051229E985
:1041E000E490051229E90691051229E90D910512BD
:1041F00029E92591051229E9E991051229E9E092B9
:10420000051229E98081011229E9C281011229E9F7
:104210001487011229E96087011229E9A687011292
:1042200029E9F388011229E95D89011229E9A589A3
:10423000011229E9148B011229E9598E011229E989
:104240007E8F011229E93C9B011229E9C59B0112CD
:1042500029E92D9F011229E98CA0011229E9E7A083
:10426000011229E92FA2011229E917A3011229E954
:10427000BEA5011229E93FA7011229E9D0A7011221
:1042800029E9D3A7011229E9DDA7011229E908A824
:10429000011229E9B7A8011229E9A6A9011229E901
:1042A0005FAA011229E9E2AA011229E900AB011271
:1042B00029E915AB011229E93EAB011229E96BABE3
:1042C000011229E9A8AD011229E984AE011229E9F8
:1042D000CEAE011229E959AF011229E907B0011246
:1042E00029E939B0011229E97FB0011229E9B2B0F8
:1042F000011229E906B1011229E957B1011229E990
:104300005CB1011229E9B0B1011229E919B2011217
:1043100029E9E7B2011229E932B3011229E997B379
:10432000011229E9F3B3011229E98FB4011229E935
:10433000E9B7011229E916B9011229E9B6BA011241
:1043400029E90CBE011229E9A2BE011229E9D2C154
:10435000011229E98DC2011229E9D5C2011229E908
:104360008EC4011229E9A2C4011229E9ACC40112C8
:1043700029E9B6C4011229E9C2C4011229E9E1C43C
:10438000011229E92FC7011229E988C7011229E979
:1043900092C7011229E99CC7011229E922C801121A
:1043A00029E976C8011229E983C9011229E9F3C96B
:1043B000011229E9FDCA011229E946CB011229E9B6
:1043C000EDCB011229E9CDCC011229E99ACD0112D8
:1043D00029E9CDCE011229E90AD0011229E90BD130
:1043E000011229E923D1011229E957D1011229E942
:1043F00061D1011229E96BD1011229E976D10112AB
:1044000029E994D1011229E9DCD1011229E93AD232
:10441000011229E961D2011229E973D2011229E9B5
:104420000ED3011229E943D3011229E941D4011223
:1044300029E997D4011229E986D5011229E9BCD5C9
:10444000011229E91FD6011229E997D6011229E99B
:104450003CD8011229E964D9011229E942DA011292
:1044600029E913DB011229E9BCDB011229E9F1DC9E
:10447000011229E983DD011229E9D7DD011229E9B9
:1044800043DE011229E909DF011229E95ADF01128D
:1044900029E9B2DF011229E983E0011229E9A6E046
:1044A000011229E955E1011229E977E1011229E90F
:1044B000D8E1011229E926E4011229E929E50112CE
:1044C00029E9EDE5011229E921E8011229E96BE862
:1044D000011229E9B6E8011229E911E9011229E9D5
:1044E0007EE9011229E9ACE9011229E9D0E90112BA
:1044F00029E905EA011229E932EA011229E978EAF3
:10450000011229E9D6EA011229E92AEB011229E967
:1045100054EC011229E901EE011229E94AEE0112D7
:1045200029E973EE011229E905EF011229E97DEF6E
:10453000011229E98BEF011229E9AFEF011229E9F4
:104540000CF0011229E927F0011229E9E8F0011223
:1045500029E914F1011229E957F1011229E9BAF107
:10456000011229E9B2F3011229E9DFF3011229E965
:10457000D4F4011229E9D1F5011229E974F60112E6
:1045800029E978ED051229E9B0ED051229E9D1ED07
:10459000051229E915EE051229E979EE051229E936
:1045A00083EE051229E993EE051229E9CAEE0512F8
:1045B00029E9C2F2051229E9D0F4051229E9BDF66C
:1045C000051229E954F7051229E9F6F7051229E938
:1045D0007380041229E91C81041229E9F381041271
:1045E00029E9FB82041229E91B83041229E9338497
:1045F000041229E9ED85041229E96086041229E9EB
:10460000FD86041229E91488041229E9818804121C
:1046100029E9BC88041229E91189041229E94C8985
:10462000041229E99989041229E9298A041229E93D
:10463000B68A041229E98B8B041229E9648C0412CE
:1046400029E9F28C041229E9128D041229E93F8D1F
:10465000041229E9708D041229E9438E041229E914
:10466000538E041229E9A28E041229E9AF8E041296
:1046700029E9B88E041229E9288F041229E9888FC4
:10468000041229E9D38F041229E9EE8F041229E9D3
:104690001590041229E93290041229E93E9004127F
:1046A00029E9E991041229E90292041229E98B927D
:1046B000041229E99E92041229E9BD92041229E903
:1046C0005893041229E9C894041229E96F96041238
:1046D00029E9FE96041229E90197041229E9719744
:1046E000041229E98F97041229E93498041229E960
:1046F0007098041229E97398041229E9399904126F
:1047000029E99C99041229E9D599041229E94A9AC0
:10471000041229E9689A041229E9B69A041229E9CF
:104720008B9B041229E9D99B041229E9279C0412C6
:1047300029E9B49C041229E9E99C041229E91E9D87
:10474000041229E92C9D041229E98B9D041229E900
:10475000039E041229E9449E041229E9949E04123E
:1047600029E9BF9E041229E9D99E041229E9F39E82
:10477000041229E9CE9F041229E9D89F041229E9DD
:1047800013A0041229E923A0041229E92CA0041281
:1047900029E984A0041229E998A0041229E9CEA1EC
:1047A000041229E9E1A1041229E9F8A1041229E976
:1047B0000DA2041229E99BA2041229E903A3041201
:1047C00029E9B6A3041229E9C1A3041229E911A514
:1047D000041229E92DA5041229E979A5041229E971
:1047E000E8A5041229E921A6041229E93BA604122E
:1047F00029E99BA6041229E93AA7041229E985A709
:10480000041229E947AA041229E9FDAA041229E998
:104810008DAB041229E9D5AD041229E9EDAD0412DE
:1048200029E9F0AD041229E9FCAD041229E910AE22
:10483000041229E918AE041229E94BAE041229E941
:104840003EAF041229E9C9AF041229E95CB0041291
:1048500029E9D5B0041229E999B1041229E9BBB1BB
:10486000041229E954B2041229E9B1B2041229E967
:10487000B4B2041229E9E1B2041229E9F6B2041231
:1048800029E970B3041229E9BCB4041229E9C7B5B7
:10489000041229E952B6041229E957B7041229E98A
:1048A00017B8041229E948B8041229E96EB80412AD
:1048B00029E977B8041229E9A5B8041229E93DB914
:1048C000041229E9F2B9041229E963BA041229E9A8
:1048D0000ABB041229E991BB041229E9D0BB0412D6
:1048E00029E913BC041229E94DBC041229E960BB73
:1048F000051229E944BB051229E94AB9051229E93B
:104900000CB9051229E9E6B8051229E96AB80512B9
:1049100029E9DBB7051229E990B7051229E922B781
:10492000051229E9BDB6051229E993B6051229E950
:1049300024B6051229E9CEB5051229E9AAB4051253
:1049400029E92FB4051229E9FCB3051229E999B325
:10495000051229E959B3051229E930B3051229E9ED
:1049600022B3051229E916B3051229E9E3B20512AB
:1049700029E961B1051229E95EB1051229E9FDBFF6
:10498000051229E944B1051229E9B2BF051229E946
:1049900086BF051229E9FABE051229E999BE05125A
:1049A00029E954BE051229E96FBD051229E91CB198
:1049B000051229E95DAF051229E946AF051229E97B
:1049C00087AE051229E98DBC051229E9CFAD051284
:1049D00029E9EAAB051229E979AA051229E96EAAA3
:1049E000051229E984D2061229E9ECA9051229E960
:1049F00035BC051229E9C4A9051229E9B6FF04123C
:104A000029E96FFF041229E90EFF041229E9D9FEF2
:104A1000041229E9AEFE041229E97AFE041229E9FA
:104A200052FE041229E9D5FD041229E9BFFD041242
:104A300029E98FFD041229E905FD041229E94AF943
:104A4000041229E902F7041229E9DAF4041229E927
:104A50005CF4041229E90DF4041229E9FDF20412B0
:104A600029E99AF3041229E95BF3041229E960CADF
:104A70000600000080FBE4738F0001007D1E8700AC
:104A80000100731A35000400421E25000200461E74
:104A900026000200481E270002004A1E28000100CE
:104AA000541E29000100551E840004004C1A860083
:104AB0000100F31D2A000100561E2B000100571EA5
:104AC0002C0001005D1E2D000800591A2E00010067
:104AD0005E1E2F0001005F1E30000100601E3100CD
:104AE0000100611E32000100611A33000100621AE8
:104AF00034000100621E36000100631A3800010014
:104B0000631E390001005C1E830002007A1E6300F0
:104B100001006E1A64000100581E65000100591E54
:104B20006D0001006F1A71000800511A6600010043
:104B3000791E430001006A1E440002006B1E4500FE
:104B400001006D1E460002006E1E47000800661A36
:104B500048000100701E4B000100711E040001009E
:104B60007C1EA1000100801E370001007F1E88000E
:104B700001007E1E3C000100641A3D000100641E1D
:104B800049000200721E67000100701A4D00020009
:104B9000741E4E000100761E4F000200771E3E007C
:104BA0000100691E51000100651E52000100661ED1
:104BB00053000100681E54000100651A0000000047
:104BC000000000013636010100010201000103016D
:104BD0000001040106060502000007010034080177
:104BE000000F090401010D0100FF0E08000017026B
:104BF0000000190100FF1A0100011B0100FE1C0149
:104C000000081D0200001F01000120010001210217
:104C100000002301000F24020000260100012701EB
:104C20000008280200FF2A0100072B0102402C0186
:104C300000002D0100012E0100012F0100FF3001B5
:104C40000B1D310800003A0100083B01000F3C0138
:104C500000013D0100FF3E04000042040000460444
:104C600000004A0400004E040000520400005604F4
:104C700000005A0400000103710301030103010352
:104C800001030103220302030103100300030003D5
:104C90000003000300030003000342030003240396
:104CA0000603000300030403120325032303250363
:104CB000230304030403000300030003440300036D
:104CC0000003230300036503210035038103000370
:104CD0000503000300030003000325032303010170
:104CE0007101010101011101010131010101010104
:104CF0008001100161013B00140063017301720126
:104D0000620143010001130106013D013500040168
:104D1000120100010001000100010401040133013E
:104D200033013C01440132013600000100016501FC
:104D300000013500810100010501820183010001AC
:104D400003027102300160021102700201020202CC
:104D500002028002100261023A0041006302730203
:104D600072026202430200021302380000020002D3
:104D70000402120200020002000200020402040205
:104D8000370037003C0244020002390000020002F2
:104D900065020002350281020002050282028302DE
:104DA000000203047104020460041104700402048C
:104DB00002040104020410046104000414046304E6
:104DC0007304720462044304000413040604000420
:104DD000000404041204000400040004000451044C
:104DE00064000004000400044404000400040004FF
:104DF0000004650400043504810464000504000413
:104E00008304000403007100300160001100700091
:104E100031022003500480001000610000001400E3
:104E2000630073007200620043000000130006007C
:104E3000000000000400120000000000000000005C
:104E400004000400370037003C024400000000006A
:104E50000000000065000000350081000000050032
:104E600000008300000036000100060000000F0073
:104E700000000000000000000000000003FFFF0031
:104E8000000403FFFF0000FFFF0FF4010005C4044E
:104E90000320000100000B000000000000000003E0
:104EA000010F0000000000000000000000000000F2
:104EB00000000000000000000000000000000000F2
:104EC0000000000013001D381F0023381F80293800
:104ED0000000BF380100BF3802009F3702809937B9
:104EE0000300A5370400AB370480B1370500B7379E
:104EF0000600C3373000E1373100DB373200ED37D1
:104F00003300F3373500F9373400FF373600053802
:104F100011001138140017381500D537FFFF0000B5
:104F20000A00000002000000040000000800000069
:104F30001000000020000000400000008000000081
:104F40000001000000020000000400000008000052
:104F5000001000000020000000400000014942064F
:104F600079420873420B8B4210B93E0A9D42024FB0
:104F7000420567420755420C31420D3D4264A93C4F
:104F8000FF000007ECFDFDFDECDCDCCCBCACAC9C18
:104F90009C8C7C7C6C6C5C5C5C4C4C3C3C2C2C1C81
:104FA0001C00160F00000B150B020002220F33002D
:104FB000000E0F667A6C636874696D65434F2E2C22
:104FC0004C54645A6967426565416C6C69616E63F3
:104FD000653039150AF4D4C0A595827263615550C5
:104FE0004900011916181616182303003030161838
:104FF0001920231A1C1E30303017181921301B1DA0
:105000001F30003C40423A3F3F392F473000034DAC
:105010004C4651181A2505020C0E020B040B0A0708
:1050200008000F02040201010101090200BE040A86
:10503000E8030000FA06834F0C001E000000000089
:10504000D34F0E00E8037F001E1EFF05280C04044A
:105050000410000902080309033C0C0305080B0AAD
:1050600000FF0C100800C082C0839018C6E4F0A3B3
:10507000F07CA97D1B7AE27B171234CF123CD91247
:105080003F0702645474F4122453EBFE8C09E97058
:105090006374026A704979081236F1E4F50AF50B77
:1050A000780A122A3E780A122A42780A122A42E51F
:1050B00009F50A780A122A42EEF50A780A122A42FB
:1050C0009017FC122865901DF3E0F97C667D1A901C
:1050D0001E7A1262E3123CFD740A122A5180127485
:1050E000016A701079081236F17B00EEFAF9123D70
:1050F00027E960179081671228657A017B00901874
:1051000001E0F91234817404122A518003122A51E9
:105110007F040226E174F6122453E9FFEAFE7AD1F5
:10512000F91233378A828B83E5824583702A7A02AB
:105130007B00123319EA4B700E7A107B0090180135
:10514000E0F912335B80148A828B8374D1F0EFA371
:10515000F0EEF91233258003EFA3F002535C74F7ED
:1051600012245389089004D112758A901E3CE0F4F1
:105170007003A3E0F470309009CCE0901E3CF0A3E3
:10518000E4F080238E828F83126266600F8E828F9E
:1051900083A3A3126263FAA9081237818E828F83D8
:1051A000126B11E8FEE9FFEE4F70D9901E3CE0F45F
:1051B0007003A3E0F4600A901E3CE0FAA9081237DD
:1051C000811243639017CC125A6012435D7F010233
:1051D00026E174F0122453890B8C0C7509007508B4
:1051E000007410122CF7126B117412122CF7125358
:1051F000FB804712529CF50EA3E0F50FAE08EE2E91
:10520000FEE433FFEA2EF582EB126810650E70049F
:10521000A3E0650F7019AE09EE2EFEE433FFEC2E0D
:10522000F582ED3FF583E50EF0A3E50FF0050905E6
:105230000AE50AC3950C40BB0508E508C3950B5069
:1052400005750A0080EBA90980007F080226E17439
:10525000F4122453890B7D00740C122CF7126B117D
:1052600080010DEDC3950B502E750A008002050AD2
:10527000E50AC39C50ECED25E0FEE433FFEA2EF591
:1052800082EB3F1273D112529C65087004A3E06553
:105290000970DB790180027900025110AE0AEE2E0E
:1052A000FEE433FFE82EF582E91259FD220229E6D9
:1052B00074F61224531253467003A3E06D701775F1
:1052C00008087509187808122A3EEEFA1238C574D3
:1052D00002122A51801A7508027509807808122A6C
:1052E0003E8A0889097808122A3E125334122A513C
:1052F000806A74F61224531253467003A3E06D7053
:10530000177508157509187808122A3EEEFA123832
:10531000CB7402122A51801A750803750980780827
:10532000122A3E8A0889097808122A3E125334123A
:105330002A518028EE240E1259FAFD7C801264FA5C
:105340001238E9740422EAFEEBFF126511FCE4391D
:10535000FD9017CCE06C227402122A517F020226C3
:10536000E174F612245374FE122AE5EAFEEBFF857F
:105370001882851983E4F0A3F0126646FBECFA88E4
:10538000828983A3A3E0F97509007508006005749C
:10539000FF69700575088280359017CCE06A70034C
:1053A000A3E06B701BAA18AB19124A23E9FA8518FF
:1053B0008285198312644770037508838A09800EF9
:1053C000123C61E9600575088980037508811253F4
:1053D000F5A908EEFAEFFB1238D1E509601485183B
:1053E00082851983126447600985188285198312A2
:1053F0006E58025357851882851983E0FCA3E0FD9F
:10540000220229E674F2122453EAFEEBFF7508002B
:1054100075090012650DF50AE439F50B124363EACC
:10542000650A7003EB650B7012124A11E914F50856
:1054300079017A927B18124A0B80037509811268F0
:105440000AF50C780C122A42750C92750D18780C1E
:10545000122A3E7808122A42780A122A3EE509F5F5
:10546000087808122A421262D212680DF97A057B76
:10547000801238D774070276F674F6122453E9FFC7
:105480007E0080328A828B83E0F508A3E0F8E4C8CE
:10549000F9E50828E439F509EE25E0F8E433F9ECFC
:1054A00028F582ED39F583E508F0A3E509F0EA2453
:1054B00002FA50010B0EEEC39F40C902535C74E820
:1054C00012245374FE122AE58A108B11750F008581
:1054D0001882851983E4F0A3F0F516F51712613CE4
:1054E00035111275801278ACFA8E828F83A3A3A334
:1054F000E0F9EAF508E439F509AA0AAB0B1243FF13
:10550000E96401702B1271E5122A42E4F508F509ED
:105510007808122A3E7808122A42780A122A3E7522
:1055200008807808122A421258A1122A5102588A79
:10553000AA0AAB0B1243FFE970439017CCE0650A4F
:105540007004A3E0650B6035901A73E06004640199
:1055500070281271E5122A42E4F508F5097808125C
:105560002A3E7808122A42780A122A3E7508817863
:1055700008122A421258A1122A5102588A8E828F8A
:1055800083A3A3A3A3E0F50BEE2405FE50010FE5D2
:105590000B602A12776D851882851983EAF0A3EBD8
:1055A000126814E84960161253F5EEFAEFFBA90BE6
:1055B0001237BD8A0C8B0DAE0CAF0D8003750B003E
:1055C000127783601A12776D8A168B17EA4B600F79
:1055D000AC16AD17EEFAEFFBA90A1237BD800375C2
:1055E0000A009004D180508E828F83A3A3A3A3A32B
:1055F000A3A3A3E4F0A3F0EEFAEFFB8514828515D4
:1056000083A3A3E0F8126263F91233258512828521
:105610001383E0C0E0A80F749228F582E43418F5F3
:1056200083D0E0F0050FA2005007AA12AB1312338B
:10563000C1851482851583E0F514A3E0F515E51402
:105640004515700302580A85148285158312626617
:1056500060DF851482851583A3A3A3A3A3A3A3A3BB
:10566000E0A2E050CC851482851583A3A3A3A312E6
:105670006447851482851583A3A3601E126268FAAD
:105680007901851482851583A3A3A3A312589412CC
:105690004A768A128B13D2008010125894A3A3A3C7
:1056A000A3E0F512A3E0F513C200E5124513700361
:1056B000025626851282851383A3E065087004A331
:1056C000E06509600F74FF6508700474FF65096088
:1056D00003025626851282851383A3A3A3A3A3A343
:1056E000A3122869851282851383A3A3A3A3A3A36E
:1056F000E0FC7402122CF71262E3A90B12379374C8
:1057000002122A51E97038851282851383A3A3A35C
:10571000A3A3A3A3A3A3A31228698512828513833D
:10572000A3A3A3A3A3A3A3A3A3E0FCAA16AB17A9B7
:105730000A1237937402122A51E97003025626E5C1
:105740000A250BC333240AFA7B001233198A0C8B07
:105750000DAE0CAF0DEA4F700302560C8A828B839C
:1057600074D2F0851082851183A3A3125FF7A3A3DF
:10577000E81273F48A828B83A3A3A3A3E50B1278A8
:10578000BDE50B6033EA240AFAE43FFB8E828F8387
:10579000125A5B851882851983E0F50CA3E0F50D9C
:1057A000750E00780C122A3AAC0BEC2CFCE433FD9D
:1057B0001278A6122A51800D8A828B83A3A3A3A3F9
:1057C000A3E4F0A3F0E50A70030255E7A80BE8286C
:1057D000F8E433F9EE28F8EF39F9E8240AFAE43965
:1057E000FB8E828F83A3A3A3125A5B85160C8517A9
:1057F0000D750E00780C122A3AAC0AEC2CFCE4333E
:10580000FD1278A6122A510255F7E50F6025127194
:10581000E5122A427508927509187808122A3EE5A1
:105820000FF5087808122A429017CC1228697508DB
:1058300000802BE5101276B83511F583E0702A123E
:1058400071E5122A427508927509187808122A3EE5
:105850007508007808122A429017CC122869780837
:10586000122A421258A1122A5185188285198312D0
:1058700064476009851882851983126E58E51645BC
:10588000176007AA16AB171233C17402122A517F90
:10589000100226E112589822E0F8A3E0F5838882EE
:1058A00022E5102402FCE43511FDE510240FF582F9
:1058B000E43511F583E0F97A067B801238D7740756
:1058C0002274F412245374F4122AE58A088B09EC2A
:1058D000FEEDFF740B122CF77403F0122AA712349A
:1058E000CF1263A87403122AA71234C9E9600A12FE
:1058F00059F16010E06401600B851882851983748A
:10590000840259BC8E828F83A3A3A3A3A3A3A3A3C2
:10591000E06013F460101259F17016EE241412684E
:105920000D6003F4700B8518828519837482025907
:10593000BC127579E064217002A3E070558518826D
:10594000851983748C126007E0F50A780A122A42DE
:10595000125A021240157401122A51E9705F85181B
:1059600082851983E4F01236CD1259F1704F74011B
:10597000122AAFEE240BFAE43FFB124033E9703DEC
:105980007D007C007900EE240BFAE43FFB12388F97
:10599000802BEE241412680DF50A780A122A42129E
:1059A0005A0212401B7401122A51E9851882851986
:1059B000837007E4F01236CD80037488F01271A270
:1059C000F50A780A122A427401122A9F880A890B62
:1059D000780A122A3E1278893509125FEF4480F561
:1059E0000B780A122A3E12638A122A51740C025151
:1059F0000DEE24131259FA640322F582E43FF58375
:105A0000E022EE240BFCE43FFD8E828F83A3A3A350
:105A1000A3A3A3A3A3A31271D58E828F83A3A3A351
:105A2000A3A3A3A3A3E0F922C082C08374F3122A24
:105A3000E5851882851983E4F004122CF7125A6068
:105A40007403122CF7AA82AB83123BEFAA18AB198E
:105A5000123C25740D122A51026454A3A3A3A3A3DC
:105A6000EAF0A3EBF02274F6122453EAFEEBFFEA0D
:105A7000241312680DF8A3E0125AADF8901810E044
:105A800058F508A3E059F509E5084509601C7808B0
:105A9000122A3E9017CC12286912680AFD7C001267
:105AA00064F61238E37404122A5102535C8882F5BA
:105AB00083125AB522E0FAA3E0F9EA2274EA12242A
:105AC0005374DB122AE58A148B15751200751300C6
:105AD000750A0012613C3515F583126268F50EAC4B
:105AE00018AD197A007B00799C123D3F901A73E043
:105AF0006004640170147A047900123C4FEAF50ADC
:105B0000851882851983E02A800885188285198383
:105B10007401F0E0F8E50EC3984003025D0EE0C3A7
:105B2000950EF509C394044003750903E50975F062
:105B30001AA4FAABF01233BB8A128B13EA4B700330
:105B4000025D11750B00AE12AF13850E08025BD615
:105B50007C087D0079FFEE240AFAE43FFB12330152
:105B6000850C82850D83A3A3A3A3E0702D850C82F1
:105B7000850D8312644770091273AE125DB5E4801F
:105B800010125D92F0901C40E014C0E0125D79D0DC
:105B9000E0F0125D7D125DC48032901C40E004C0D4
:105BA000E0125D79D0E0125DF1C39403EE40030290
:105BB0005C5712748B7402125DF164017003025C15
:105BC00064EE2415125D95125DA67401F0EE241AA0
:105BD000FE50010F050BE50BC395094003025CC3A2
:105BE000E508C3950A4003025C6DAA087B00123CDD
:105BF000918A0C8B0D0508901C2D125DD7850C82A7
:105C0000850D83125D9EF0A3E9125DC9125D797462
:105C1000FF125DF6A3A3A3A3A3A3E0C0E0125D67F8
:105C2000D0E0F07401122CF7E4F0850C82850D832E
:105C3000126B117402122CF7E81273F47401122A19
:105C4000A7123C13E964016003025B507404122C38
:105C5000F7125D83025B60125D93125DF164036075
:105C600003025BC1EE24151273B1025BC7E50AC3E0
:105C7000950E40057508008051E50EC3950AF5089C
:105C80008048EE24151273B1125DC4F0901C40E000
:105C900014C0E0125D79D0E0125DC9741D122CF7BA
:105CA000E0C0E0125D67D0E0F0125D7112644570F3
:105CB000051273AE8003125D92F0EE241AFE5001BD
:105CC0000F050BE50BC395095047740E122AAFAAB6
:105CD000087B007987123D3F05087418122CF712D3
:105CE0005DD77410122CF7125D83740E122CF7120C
:105CF0005D9E1273F4901A73E06004640170831265
:105D00005D7D125DA67403125DB574FF808A75090E
:105D100000750A00780A122A427812122A3E78097F
:105D2000122A42E50EF5097809122A427405122C4E
:105D3000F7E0FD7C00E5141262583515FBE51412FE
:105D4000625D3515F583E0F912391F7405122A5189
:105D5000E51245136007AA12AB131233C174251262
:105D60002A517F0E0226E1EE2419F582E43FF583E5
:105D700022EE2412F582E43F22125DBA221274123E
:105D8000740222AC82AD83EE240AFAE43FFB1234A3
:105D9000CF22EE2414F582E43FF583740122126BC6
:105DA00015127408E822125DAA22F0EE2416F5827C
:105DB000E43FF58322F0125DBA22EE2418F582E466
:105DC0003FF58322125DAAE422F0EE2417F582E467
:105DD0003FF5837402F022126B158E828F83E8F0F8
:105DE000A3E9F07C417D1CEE1262583FFB1234CFD8
:105DF00022125DF6E022F0850C82850D83A3A3A319
:105E0000A32274F612245374F9122AE5126138356C
:105E100009127973851882851983122CE08E828F7E
:105E200083A3A3A3A3E0C0E07404122CF7D0E01274
:105E300076A3F87405122CF77401F07406122CF78F
:105E40007401F09017D6F09017DF041274A7FAA32C
:105E5000E0FB9017D7125A60E89017E0F01276BE78
:105E6000E09017D5F0AA18AB19123CF1E9600312C3
:105E70003CF7740702535974F212245374FF122A28
:105E8000E57508007E007F0012427F8A0A8B0B12A4
:105E90005FD980080508125FE5126B11E84970F4BC
:105EA000125FD98006125FE5126B11E849603088F5
:105EB0008289831262E3901C2DE06A7003A3E06B79
:105EC000600A125FE51262E3EA4B70D98882898327
:105ED000126B11901C2DE0687003A3E069607A7A60
:105EE000167B001276366071901C2D125FF7E81257
:105EF00073F4901C22126B1AF01243E7E98E828F22
:105F000083A3A3A3A3A3F0901E56E08E828F83A346
:105F1000A3A3A3A3A3F07C417D1CEE240B125D8AF6
:105F2000AA18AB197941123ACF851882851983E0F6
:105F300060089017CC126B11800478FE79FF8E8276
:105F40008F83A3A3A3A3A3A3A3E8F0A3E9126007ED
:105F5000125FFF8E0A8F0B05089017E0E0F8E50846
:105F6000C398500479008029E508C398F9C39406C2
:105F7000400279057800800FE50A2414F582E435A3
:105F80000B125FEFF50B089017E0E0FAE8C39A40B8
:105F9000E77509007809122A42780A122A3EE9F5C3
:105FA000097809122A429017E0E0F5097809122AC7
:105FB00042AD087C007AD77B179017D5E0F91239EB
:105FC000197405122A51EE4F6007EEFAEFFB1233F7
:105FD000C1123CF774010276F612427F8A0C8B0DD7
:105FE000A80CA90D22E82414F582E439F58322F5E2
:105FF00083E0F50AA3E022126B158A828B8322E5E7
:106000000AF0A3E50BF022F0EE12748F2274F01266
:10601000245374FF122AE58A0A8B0B7E008E0E8EA3
:106020000F12613C350BF583126268FFAC18AD1995
:106030007A007B00799D123D3F851882851983E0A7
:10604000F8EFC39840030260E2E0C39FFEC3940BE5
:1060500040027E0AEE75F007A4FAABF01262508A95
:106060000E8B0FEA4B6079750C00801A85088285CB
:106070000983A3A3A3A3A37403F0E5082407F508E9
:1060800050020509050CE50CC39E5056AC08AD093D
:10609000E50C2FFAE43400FB798B123D3F85088232
:1060A000850983A3A3A3A3A3E014600814601314B9
:1060B000601F80B8850882850983A3A3A3A3A3E4F6
:1060C00080B7850882850983A3A3A3A3A374018055
:1060D000A8850882850983A3A3A3A3A3740280993A
:1060E0007E007508007808122A42780E122A3EEEC9
:1060F000F5087808122A42EFF5087808122A427447
:1061000005122CF7E0FD7C00E50A126258350BFB06
:10611000E50A12625D350BF583E0F9123925740545
:10612000122A51E50E450F6007AA0EAB0F1233C1BC
:106130007401122A5102524A8A088B09EA12771115
:106140002274EE12245374FE122AE58A0C8B0D750C
:10615000100075110012613C350DF583126268F56F
:106160000AAC18AD197A007B0079A3124021126B9A
:106170000BC3E50A98E4995020851882851983A8F5
:106180000AE0C398FEA3E09400FFC3EE9404EF94EA
:106190000040617E037F00805F7E00750B00EEF99A
:1061A0007508007808122A427810122A3EE9F5088C
:1061B0007808122A42E50AF5087808122A4274057E
:1061C000122CF7E0FDAC0BE50C126258350DFBE527
:1061D0000C12625D350DF583E0F912392B7405124E
:1061E0002A51E51045116007AA10AB111233C17492
:1061F00002027747EE4F60A3EEFAEFFBEA75F01567
:10620000A4FAA8F075F015EBA42812624F8A108B3F
:1062100011EA4B6032750B00750E00C3E50E9EE46B
:106220009F400302619EAC08AD09A80AE50E28FA5A
:10623000E43400FB79A2124021E5082415F508504A
:10624000020509050E80D4750BB579000261A0FB2B
:106250001233BB8A088B09222402FAE422240FF5A8
:1062600082E42212589AA3A3125898E02274F612DC
:10627000245374FF122AE5EAFEEBFF126433126224
:10628000E38A82F583A3A3A3A3A3A3A3A3E0F912A4
:106290003D15E9851882851983F075080078081284
:1062A0002A427401122A9F880889097808122A3E16
:1062B0007508357509807808122A3E1262C6122ABE
:1062C00051740102535979011262D2FAE43F126308
:1062D000A122EE2402FCE43FFDEE240F2285188269
:1062E0008519831271D52274F412245374FA122A78
:1062F000E5126138126F1F12758AEEFAEFFB123B3E
:10630000F5E9600F1263A8EEFAEFFB1234C9E964F5
:1063100001700280707401122CF7EEF0A3EF127678
:10632000DAFEA2E650087403122CF77401F0EEA214
:10633000E750087404122CF77401F07405122CF75E
:10634000E4126651F0F50A780A122A427401122A00
:106350009F880A890B780A122A3E750A34750B80C9
:10636000780A122A3E12638A122A517401122AA74D
:10637000123D2DEEA2E7400D7401122CF712644776
:106380007003124981740602510D7901E508240257
:10639000FCE43509FDE508240FFAE435091263A190
:1063A00022FB12388374052212435D8A0A8B0BACE0
:1063B0000AAD0B2274F612245374FF122AE5EAFE8A
:1063C000EBFF901E5BE0700B8A828B83A3A31264A9
:1063D00047705D126433126268F50874FF650870D7
:1063E000037508FEA908123D03E985188285198303
:1063F000F01240E7E96005A9081239DFA90812394F
:10640000DFEE240B12680D70277508007808122A39
:10641000427401122A9F880889097808122A3E7559
:1064200008367509807808122A3E1262C6122A516F
:106430000262C1EA126438222413F582E43FF58334
:1064400022F582E438F583126B15E84922C082C038
:10645000831239E5D083D0820229E674F4122453E2
:1064600074EF122AE5EAFEEBFF12650DF508E43938
:10647000F5099017CCE06A7003A3E0697052A81880
:10648000A919880A890B780A122A3E750A11750B18
:1064900000780A122A3E7C007D007A817B0012344B
:1064A000457404122A51E97027750A00780A122AE5
:1064B000427401122A9F880A890B780A122A3EAC7C
:1064C00008AD091264F61238DD7403122A518021D6
:1064D000750A11750B80780A122A3E7808122A3E36
:1064E00012680AFD7C841264F61238E97404122AD8
:1064F00051741102510D1264FA22EE2402FAE43FA3
:10650000FBEE240FF582E43FF583E0F922126511DA
:1065100022EA126438126DB98882F583126520224E
:10652000E0FAA3E0F8E4C8F9EA282274F11224534F
:1065300074EB122AE5EAFEEBFF126646FAE4CAFBA8
:10654000EC2AF5089017CCE06C7003A3E06B6003B5
:106550000265ED88828983A3A3E09410500F88829E
:106560008983A3A3E0851882851983800885188212
:106570008519837410F0E0C0E07404122CF7D0E0A9
:106580001275B6A982AA83890C8A0D750E00780C43
:10659000122A3A7407122CF7E0FC7D007408122CC2
:1065A000F7AA82AB831278A6122A517404122A9F8A
:1065B000880A890B780A122A3E750A11750B007831
:1065C0000A122A3E7C007D007A817B0012343F74DF
:1065D00004122A517404122CF7E09018086005E0A8
:1065E000D2E48003E0C2E4126651E4800885188298
:1065F0008519837484F0E0C0E07401122CF7D0E0B8
:10660000F07402122CF7E508F07403122CF7E50879
:10661000F01276CE3F1271EE122A427402122A9FB5
:10662000880889097808122A3E7508147509807847
:1066300008122A3E79031262C8122A517415122ACE
:10664000517F070226E11277103F1275C7FCA3E0C5
:1066500022F08518828519832274F612245374E07F
:10666000122AE5EAFEEBFF901C2FE064086008E0C8
:1066700064046003026805AC18AD1912386B12454A
:106680002B7402122CF7AC82AD831262DD12442F00
:10669000E9640170030268057418122AA712436F97
:1066A0007402122CF7AC82AD837418122AA712342C
:1066B000C9E9602D1243698A088B09A808A90985D0
:1066C0001882851983E0687003A3E0696013126B78
:1066D0000B901C23E81273F47A237B1C794B123A3B
:1066E000D51243638A088B09A808A909EE24111260
:1066F000680D687003A3E06960567402122CF7AA53
:1067000082AB83123C798B09A909EA4960268A8207
:106710008B83A3A3A3A3E06401600D8A828B83A370
:10672000A3A3A3E06402700C7402122CF7AA82AB3C
