:020000040000FA
:10000000021305022003FFFFFFFFFF02200BFFFF8B
:10001000FFFFFF020E67FFFFFFFFFF02201BFFFF36
:10002000FFFFFF022023FFFFFFFFFF02202BFFFF48
:10003000FFFFFF022033FFFFFFFFFF020EAAFFFFBB
:10004000FFFFFF022043FFFFFFFFFF02204BFFFFE8
:10005000FFFFFF022053FFFFFFFFFF02205BFFFFB8
:10006000FFFFFF022063FFFFFFFFFF02206BFFFF88
:10007000FFFFFF022073FFFFFFFFFF02207BFFFF58
:10008000FFFFFF022083FFFFFFFFFF02208BFFFF28
:10009000FFFF70DFFFFF040000000002000000C847
:1000A0000300030369A5020269A501000000000026
:1000B00004003273000074F812104C900393E06057
:1000C0001590030274FEF0900304744DF0A37405C0
:1000D000F07A0112068C7F0102116974F712104C3C
:1000E00074FF1212717E00801F851882851983E0CB
:1000F00064FE70069003877401F085188285198369
:10010000E0F8900384E068F07C017D00AA18AB1948
:10011000120E228B09EA450970030201F385188249
:10012000851983E064EF70027E07E0C0E0900387EA
:10013000E0FA900385E0F8EA28F8E43400F9740264
:1001400028F582740339F583D0E0F0900387E060EE
:100150009814600E14602C14603C14605214606893
:100160008098900384E4F0851882851983E09003D9
:1001700086F0C394809003874004E40200F974027F
:100180000200F9851882851983E0900382F09003BC
:100190008774030200F9851882851983E090038330
:1001A000F0900386E0601990038774040200F990D0
:1001B0000385E004F0F8900386E06860030200FA2B
:1001C00090038774050200F9900385E4F09003879B
:1001D000F0900384E0F8851882851983E068600355
:1001E0000200FA900382E0644D60030200FA1203F9
:1001F000288002EEF9740112123D7F020211697427
:10020000F712104C74FB121271EAFEEBFF75080432
:1002100075090078081212D574021212EE7A907BDA
:10022000007904120ECB740212123D12067E1213D4
:100230003FE0687003A3E069701285188285198316
:10024000E0F47003A3E0F4600302030874041212E4
:10025000E61206E48A088B09A808A9097402121399
:100260003FE8F0A3E9F0740412133FE0600879015D
:100270001200B6020321851882851983E068700395
:10028000A3E0697076851882851983E0F47003A372
:10029000E0F47019740212133F7410F0A37420F08C
:1002A0008518828519837410F0A37420F0750801F5
:1002B00075090078081212D574021212EE7A247BA6
:1002C00008120F4F740212123D75080478081212BA
:1002D000D574021212EE7A907B007904120ECB7460
:1002E0000212123D12067E12133FE0687003A3E073
:1002F000697004790280067904800279031200B6DD
:100300008E828F83741E80058E828F83E4F01206A6
:100310007E12133FE0687003A3E0697004790180E6
:1003200002790074050201F774E912104C74F81296
:100330001271900307E0FA900306E0F9FEEAFCE48C
:10034000CCFDEE2CED3408FF751001750F00750E15
:10035000068E088F097402780812129CC39508FC57
:10036000E49509FD74022CF51474033DF515E514AC
:100370002497F516E5153420F517EE2410F508E45A
:100380003FF509EEF50CEF5401F50D8E128F137445
:100390000978121212F685120A900383E01460574E
:1003A00014700302046F1470030204E61460102436
:1003B000FE70030205A11470030206510206617566
:1003C0000E03794E120C619003071206747402F04A
:1003D000A374401206727408120672F0A3F0741827
:1003E000C3940704F510AA10A90F12068CA90E7465
:1003F0000812123D02083E750E04794E120C61EE91
:10040000450D7005A90A120FB5C3EE9425EF9408A7
:10041000503FC3E5089424E50994084034E51424CA
:1004200096F8E5153420F988828983E0701E8516D8
:1004300082851783E070159003887401F0888289A3
:100440008374A5F08516828517838004900388E461
:10045000F075081075090078081212D57C087D0324
:10046000EEFAEFFB120F4F740212123D0203E67513
:100470000E05C3E50A947995E04006750F01020365
:10048000E675104075110078101212D57C097D03B5
:100490007402780C12129CAA0CAB0DA90A120ECB96
:1004A000740212123D900307E0A3F0900306E0A34C
:1004B000F0751043C3EE9425EF940840030203E661
:1004C000C3E5089424E509940850030203E6900369
:1004D00088E070030203E6A816A91788828983E4DE
:1004E000F0A3F00203E675080475090078081212FB
:1004F000D574021212EE7A907B007904120ECB743E
:100500000212123D740212133FE0F8A3E0F98518BD
:1005100082851983E0687003A3E0698518828519D4
:1005200083700BE0F47003A3E0F470578009E0F4EB
:100530007003A3E0F4700D8518828519837410F0A0
:10054000A37420F012067E12133FE8F0A3E9F075C1
:10055000080178081212D574021212EE7A247B0870
:10056000120F4F740212123D75080478081212D54A
:1005700074021212EE7A907B007904120ECB740290
:1005800012123D12067E12133FE0687003A3E06969
:100590007006750E010203E6750E02750F07020361
:1005A000E6900391E06007640260030203E6EAFF5D
:1005B0007A01790012068CE060030206458003127E
:1005C0000D22120D2CE970F7740412133F12066607
:1005D000740412133F780812132385080C85090D43
:1005E000850A0E850B0F9005A2780C1212C27404B6
:1005F00012133F780C121314E5084509450A450B00
:1006000070CE8EC2E5C554E04FF5C5740412133F99
:10061000120666740412133F780812132385080C1F
:1006200085090D850A0E850B0F9005A2780C121214
:10063000C2740412133F780C121314E508450945DF
:100640000A450B70CE7A01790012068C79080203F4
:10065000EFE9900393F070030203E6750E090203BD
:10066000E679060203EFE4F0A37426F0A3E4F0A316
:10067000F022F0A3E4F0A3F0A3F0A3F0A3228518E6
:1006800082851983E0F8A3E0F974022274F812104D
:100690004CEAFE900305E0D2E7F0E9A3F0EE900308
:1006A00003F08E0874042AFE7C028004E062080CC9
:1006B000ECFA3395E0FB74022AF58274033BF58370
:1006C000EEF8C3EA98EB9400A2D265D03340DDE5A2
:1006D00008F074012A0C3395E0FD7A027B03120EB8
:1006E000520200D674E912104C7582007583FE1216
:1006F00012048A168B177514007515008A828B8375
:10070000E4F0900391E07006D2AAD2AF80046402B4
:10071000700579001200B6750C00750D20750E007D
:10072000750F00900391E0600464027015120D22B1
:100730001200DBE9F87409686003020814790012FA
:1007400000B675080075090278081212D5740212F5
:1007500012EE850C08850D09AA08E5095407FB85EA
:100760000E0A850F0B740B7808121258A908120E86
:10077000CB740212123D7E007F009005AAC0828ECB
:1007800010EFF5113395E0F512F513850C08850D82
:1007900009850E0A850F0B780879101212AF9005A3
:1007A000A678081212C2758305D08278081211E566
:1007B000501D851882851983E5822EF582E5833FD9
:1007C000F583E0F9AA14AB151208438A148B150EB1
:1007D000EE70010FC3EF940240A09005AE780C12AA
:1007E00012C29005B2780C1211E54003020723797A
:1007F00000AA14AB1512084379001208438B159018
:100800000391E07004C2AFC2AAEA451570277AA529
:100810007BA58021E870030207427406687003021A
:1008200007427407687003020742851682851783A2
:100830007401F080BA7582007583021212047F1071
:10084000021169C008C0097C088A088B09740F78F6
:10085000081212F6E508F8EA25E0FAEB33FBE9A204
:10086000E7500474014AFAE8A2E0500874216AFAD9
:1008700074106BFBE9C333F91CEC70CDD009D008C0
:100880002274F812104C78007900802274942EF5AE
:1008900082E43403F583E08A828B83F0900414129F
:1008A0000A014005900414E4F008E870010990047E
:1008B00014E0FEA3E06E6007C3E89CE99D40CDE82C
:1008C000FAE9FB7F0102116974F712104C90049849
:1008D000E0F509A3E0F508F8E509C398F895E0F913
:1008E000E508C39509E8500B120AE3701178007906
:1008F00000801B247F500109C39CE99D50EF7A00C2
:100900007B008041E004F0D2E908E8700109C3E807
:100910009CE99D502C8A828B83E0C0E0900499E092
:10092000FE74182EF582E43404F583D0E0120AD365
:1009300090049AE4F0900499E0C3947F40C6E48068
:10094000C5E8FAE9FB7F02021169C082C083C2E9EF
:10095000900498E0F8A3E0686017741828F582E422
:100960003404F583E0F5C1900498120AFA4002E4D9
:10097000F0020D4074F812104C7800790090051DBB
:10098000E07055A3E0705175F900C28FC284A28354
:1009900040FCA28F4004A28350F8AEF9C28FA2831C
:1009A0005004D2848032EEC0E0E0FE1209F6D0E0BE
:1009B000F090051E120AFA40D9E4F080D51209F62B
:1009C000E08A828B83F090051D120A014005900594
:1009D0001DE4F008E870010990051DE0FEA3E06E3B
:1009E0006007C3E89CE99D40D4E8497006E4F090B4
:1009F000051DF00208BF749D2EF582E43404F583D2
:100A000022E004120AD7C394802274F812104C908A
:100A100005A0E0FEF890059FE0FFEEC39FE0500DBB
:100A2000C398F895E0F9120AE270188012C398F89A
:100A300095E0F9E8247F500109C39CE99D4004EC4E
:100A40004D70077A007B00020AD08A828B83E0F522
:100A5000F9A3AA82AB83780179008008E004F0084A
:100A6000E8700109C3E89CE99D50278A828B83E0E6
:100A7000C0E09005A0E0FE741F2EF582E43405F579
:100A800083D0E0120AD39005A0E0C3947F40CDE468
:100A900080CCC28FA28340FCC284A28F4004A28378
:100AA00050F890059F120AEDE0F5F9C28F90059F6E
:100AB000E0FAA3E06A90059F7005120AED80051226
:100AC0000AFA4002E4F0A28350D0D284E8FAE9FBAB
:100AD0000208C3120AD722F08A828B83A3AA82ABB0
:100AE0008322E824FF18E934FFF9E84922E0FA7488
:100AF0001F2AF582E43405F58322E004F0C39480D4
:100B00002274FB121271C2009005CA7808121323D6
:100B10009005CA7401F0A3F0A37469F0A374A5F062
:100B20009005B678081212877004D20080159005DF
:100B3000BA78081212876008E59D54186410700393
:100B4000022000120C87A2005003020C04AA18AB6A
:100B5000191201FFE97003020C04851882851983BC
:100B6000E0C3943C500CE0F8743CC398FA95E0FB69
:100B700080047A007B00120D45E97003020C04909A
:100B80000391E06401700C75F800C2AB539AF7D280
:100B9000EA805E79071200B68003120D22120D2C36
:100BA000E970F7740112133FE4F0A37426F0A3E494
:100BB000F0A3F0740112133F780812132385080C78
:100BC00085090D850A0E850B0F9005A2780C12126F
:100BD000C2740112133F780C121314E5084509453D
:100BE0000A450B70CE758600C2AAC28B539AFBC20F
:100BF000E990000174CDF0022000C2AF75C9AB7559
:100C0000C95B80FE750800750900750A00750B0048
:100C1000900391E0701BD2AAD2AF79051200B6E022
:100C20007003120D221200DBE9F874096870098064
:100C3000E9794E120C6180ED74016870E2E0701782
:100C4000120D229005BE78081212C29005C27808D3
:100C50001211E550EBC2AAC2AF75C9AB75C95B8072
:100C6000FEC082C08378109005A1E0C3995015752D
:100C7000B60FE5B4A2E750FAE5BBC39940F118E816
:100C800070EDE9F0020D40C082C08353BEFBE59DCC
:100C9000A2E650FA0078F8790100120AE270FA75BB
:100CA000C6807480659E70FA43BE049062707408BA
:100CB000F0794A120C6190000174F5F07403F5D5D7
:100CC00075D489A2A0E433900391F0A2E05029D218
:100CD0008453F3F753F3EF53FDF743FD10538FF7AE
:100CE00053F7DF43FC2043F10253F5DF75F820434F
:100CF000F4F0D2FED2AB802853FF3F85FFFF53F1C3
:100D0000FE43F30C53F2F375868075C48090049B08
:100D1000E4F0A3F075C2D875C50B75C402438640D4
:100D2000801E800312094AA2E940F922C082C083D2
:100D3000900498E0F8A3E0686004790180027900EB
:100D4000D083D0822274F112104C74FF1212717E83
:100D500000900391E06401706CC28490039274016E
:100D6000F07508388E098E0A8E0B7C017D00AA185A
:100D7000AB19120E228B0DEA450D6018851882857D
:100D80001983E06410602DE064EF70088E088E090E
:100D90008E0A8E0B85080C85090D850A0E850B0FB2
:100DA0009005A278081212C2E50C450D450E450FBC
:100DB00070347E01900391E064017056D2849003F8
:100DC00092E4F08051D2AAD2AF8A088B09E4F50AE6
:100DD000F50B9005C6780C1213237808790C120FC6
:100DE000CC79061200B6900391E06003020D6A12FE
:100DF0000D221200DBE9F874096870077906120009
:100E0000B680917407686084E8608974066870A48D
:100E10008082C2AFC2AAEEF9740112123D7F0802AD
:100E20001169C082C083900391E07005120881802F
:100E30001E900392E06015A28F500BE5F98A828B19
:100E400083F07A0180027A007B0080031209740229
:100E50000D40C082C083900391E070051208C880E5
:100E600003120A0A020D40C0E074F21210B29000A0
:100E700001E064CD7005122013802AE064F570242F
:100E8000E5C1C28BC0E0900415E0F8749428F582A7
:100E9000E43403F583D0E0F0900415120AFA40051B
:100EA000E4F08001007F01021111C0E074F2121021
:100EB000B2900001E064CD700512203B800BE0642D
:100EC000F5700512094A80010080DA74F612104CA0
:100ED000890A740F550AF508750900740B78081211
:100EE000129CEA2400F8EB3480F9E82400E9350983
:100EF000F985C709A2AFE433F508C2AFE50AC454C7
:100F00000FFAE5C754F84AF5C7740A12133FE0FA1E
:100F1000A3E0FB801C88828983E08C828D83F0882B
:100F2000828983A3A882A9838C828D83A3AC82AD9E
:100F300083EAFEEBFFEE24FF1AEF34FFFBEE4F7067
:100F4000D48509C7E508A2E092AF7F030211697456
:100F5000F712104CED900389F0ECA3F0A37462F04B
:100F6000A37473F0A3E0541FF0740912133FE0F56B
:100F700008A3E0F509E508333354FC90038EF074C0
:100F80000678081212F6E50890038DF090038F742E
:100F900012F0A37442F075D1FE75D601EA90627129
:100FA000F0EBA3F0906270E0D2E1F0E0A2E740FB4A
:100FB0007F02021169C082C083E9C333906272F07C
:100FC000906270E0D2E0F0D083D08222080808EA74
:100FD000C0E0EBC0E086F0E7A4FA180986F0E7A4C9
:100FE0002AFA180986F0E7A42AFA180986F0E7A475
:100FF0002AFA1986F0E7A4FBE5F02AFA190886F028
:10100000E7A42BFBE5F03AFA190886F0E7A42BFBDE
:10101000E5F03AFA18180986F0E7A4C5F02BFBE4CE
:101020003AFA1908E7C5F0C6A426F6E5F03BFBE45A
:101030003AFA1886F0E7A4F6E5F00826F6E43B084D
:10104000F6E43A08F6D0E0FBD0E0FA222518C58293
:10105000C0E0E51934FFC583C0E0E518C3958224DC
:10106000F910AF0885831985821880088583198552
:101070008218D2AFCEF0A3E520F0A37808E608F0FE
:10108000A3DEFAEFF0A3E58124FBF8E608F0A3E67F
:1010900008F0A30808E608F0A3E608F0A3158115F8
:1010A00081D0E0FED0E0F815811581E8C0E0EEC007
:1010B000E022C0D02518C582C0E0E51934FFC58301
:1010C000C0E0E518C3958224F310AF088583198525
:1010D00082188008858319858218D2AFC8F0A3E9E9
:1010E000F0A3EAF0A3EBF0A37908E709F0A3D8FA9C
:1010F000ECF0A3EDF0A3EEF0A3EFF0A3D0E0F0A3AB
:10110000D0E0F0A3D0E0F0A3E520F0A3E5F0F0A359
:1011100022851983851882E0C0E0A3E0F9A3E0FAF4
:10112000A3E0FBA37808E0F608A3DFFAE0FCA3E065
:10113000FDA3E0FEA3E0FFA3E0C0E0A3E0C0E0A3C6
:10114000E0F5D0A3E0F520A3E0A3F5F010AF08850B
:1011500083198582188008858319858218D2AFD0BB
:1011600082D083D0E0F8D0E032851983851882E000
:10117000A3FEE0A3F5207808E0A3F608DFFAE0A3D9
:10118000FFE0A3C0E0E0A3C0E0E0A3C0E0E0A3C0B4
:10119000E010AF088582188583198008858218853C
:1011A0008319D2AFD083D08222E490030278A17950
:1011B000038002F0A3D8FCD9FA7AA27B0590008EB6
:1011C000782979018015E493A3AD82AE838A828B5E
:1011D00083F0A3AA82AB838D828E83D8E9D9E712EC
:1011E0000B01121349C008C3E096F50808A3E09666
:1011F000420808A3E096420808A3E096450870015B
:10120000D3D00822C5822518C582C583351910AFF1
:1012100007F5198582188007F519858218D2AFC5A0
:1012200083222518F58210AF08F518400C15198097
:1012300008F51840021519D2AF8519832200C0D0D5
:10124000251810AF08F518500C05198008F518502E
:10125000020519D2AFD0D0226016080808C6C31301
:10126000C618C613C618C613C618C613C6D5E0EAF4
:1012700022251810AF08F518400C15198008F5182C
:1012800040021519D2AF22E066701008A3E0667024
:101290000A08A3E066700408A3E0662270042260D6
:1012A0000D18C6C333C608C633C6D5E0F41822E607
:1012B00027F60809E637F60809E637F60809E6379B
:1012C000F622E026F608A3E036F608A3E036F60894
:1012D000A3E036F62274028000C0E0F40412122269
:1012E000D0E0121332222518FAE43519FB22251812
:1012F000FCE43519FD22600C08C6C313C618C613DA
:10130000C6D5E0F42275D00075813F7518027519B5
:10131000030211A9E6F008A3E6F008A3E6F008A38B
:10132000E6F022E0F608A3E0F608A3E0F608A3E062
:10133000F622CAC0E0E6F0A308DAFAD0E0FA2225E5
:1013400018F582E43519F5832200000080FBFFFFC9
:10135000FFFFFFFFFFFFFFFFFFFFFFFFFFFFFFFF9D
:10136000FFFFFFFFFFFFFFFFFFFFFFFFFFFFFFFF8D
:10137000FFFFFFFFFFFFFFFFFFFFFFFFFFFFFFFF7D
:10138000FFFFFFFFFFFFFFFFFFFFFFFFFFFFFFFF6D
:0A1FF600CA05094338860000000008
:020000040003F7
:01FFF000F020
:020000040000FA
:10200000022C7A02221AFFFFFFFFFFFFFFFFFFFFF4
:10201000FFFFFFFFFFFFFFFFFFFFFFFFFFFFFFFFD0
:10202000FFFFFFFFFFFFFFFFFFFFFF022A06FFFF8B
:10203000FFFFFFFFFFFFFFFFFFFFFFFFFFFFFFFFB0
:10204000FFFFFF022775FFFFFFFFFFFFFFFFFFFFFF
:10205000FFFFFF022154FFFFFFFFFFFFFFFFFFFF16
:10206000FFFFFFFFFFFFFFFFFFFFFF022920FFFF32
:10207000FFFFFFFFFFFFFFFFFFFFFFFFFFFFFFFF70
:10208000FFFFFF0221AB01FFFFFFFFFFFFFFFFFF8D
:10209000102010200100F0FF0700080000FFFF00E3
:1020A00000030400000F0100000300019651180016
:1020B000020000FB310000000065317932CB314372
:1020C0003200008F31000000000000000000009B83
:1020D0003100000000000000000000A73106FFFFF3
:1020E000FF010400000818000000E8030000FFFFE3
:1020F000D818018813000003E8030000640064009E
:10210000B801A0BB0D00A0BB0D0002020207040134
:102110000101051E02051E020A0A01010809080143
:1021200003B80B02803E0102FEFFE8030A0500012E
:10213000FFFF020A011401E00105030101FF0F1076
:10214000FEFF684E000000009E4D00000000FF00F2
:102150000000FF00C0E074F2122595A2AFE433F551
:1021600008D2AFAFA7AEA1EE5F54106006122EE307
:1021700075A1EFEE5F54086008122EE975A1F78093
:1021800023EEA2E092F0EFA2E082F0501790619867
:10219000E0F890093BE0C398A2D265D0335002E842
:1021A000F075A1FE751A00E5088066C0E074F212B1
:1021B0002595A2AFE433FED2AF9061A4E0F8759B01
:1021C00000E59158540860087591F7122F37802365
:1021D000E59158541060087591EF122F3D8014E579
:1021E00091A2E092F0E8A2E082F05007E0C2E0F0B5
:1021F0001230939061A3E0F8E5E9585404600E12A0
:10220000306975E9FB906193E0A2E640F2751A002F
:10221000EEA2E092AF7F010225F4C0E074F2122535
:1022200095A2AFE433FED2AF9061A5E0F8E5BF58C8
:102230005404600675BFFB1230AB80D1C3E498F83C
:10224000E499F912227D8026C3E49AFAE49BFBE923
:1022500020E7E912227DE498F8E499F922C3E49892
:10226000F8E499F912227DE498F8E499F9C3E49A24
:10227000FAE49BFB22EB20E7CFE920E7E0B900106E
:10228000BB0008E88AF084F8AAF022E4FBC8FA222E
:10229000EB70227B10C833C8C933C9335007C39AC7
:1022A000C3DBF280069A50012ADBEAC833F4C8C9BE
:1022B00033F4C9FA2275F008E4C833C8C933C93306
:1022C000C99AC99B5004C92AC93BD5F0ECFBC83355
:1022D000F4C8E4C9FA2274F512252F74FA122AED13
:1022E0007508047509007808122A467404122AB782
:1022F0007AF87B077903122DBD7402122A59908156
:10230000077808122CA87402122CFF7808122B18D8
:1023100070487508027509007808122A467402127E
:102320002AB77AF67B077903122DBD7402122A5957
:10233000851882851983E0F47003A3E0F4601B859F
:102340001882851983E0F8A3E08882F5837402F08F
:10235000A3F0A37469F0A374A5F0C2AF75D69F0271
:1023600000007406122A597F040227B8080808EAF8
:10237000C0E0EBC0E086F0E7A4FA180986F0E7A415
:102380002AFA180986F0E7A42AFA180986F0E7A4C1
:102390002AFA1986F0E7A4FBE5F02AFA190886F074
:1023A000E7A42BFBE5F03AFA190886F0E7A42BFB2B
:1023B000E5F03AFA18180986F0E7A4C5F02BFBE41B
:1023C0003AFA1908E7C5F0C6A426F6E5F03BFBE4A7
:1023D0003AFA1886F0E7A4F6E5F00826F6E43B089A
:1023E000F6E43A08F6D0E0FBD0E0FA22E4CFC0E011
:1023F000E4CEC0E0E4CDC0E0E4CCC0E075F020E67F
:1024000026F608E633F608E633F608E633F618183B
:1024100018EC33FCED33FDEE33FEEF33FFC3EC97E6
:1024200009ED9709EE9709EF97191919400FFFEC7D
:1024300097FC09ED97FD09EE97FE191906D5F0BF37
:10244000ECF709EDF709EEF709EFF7191919D0E0E4
:10245000FCD0E0FDD0E0FED0E0FF222518C582C010
:10246000E0E51934FFC583C0E0E518C3958224F880
:1024700010AF0885831985821880088583198582A5
:1024800018D2AFCEF0A3E520F0A37808E608F0A3B9
:10249000DEFAEFF0A3E58124FAF8E608F0A3E608F7
:1024A000F0A3E608F0A30808E608F0A3E608F0A306
:1024B00015811581D0E0FED0E0F8158115811581D8
:1024C000E8C0E0EEC0E022122CF4B90003022519A6
:1024D000E49004D17818791A8002F0A3D8FCD9FAD4
:1024E000781A9020867A01BA00028007E493A3F656
:1024F00008DAF97AE87B1D90209478C1790180157B
:10250000E493A3AD82AE838A828B83F0A3AA82ABCD
:10251000838D828E83D8E9D9E775820B75837E74AB
:10252000001229E875829975834B74001229E825F9
:1025300018C582C0E0E51934FFC583C0E0E518C3C3
:10254000958224F910AF0885831985821880088543
:102550008319858218D2AFCEF0A3E520F0A37808C6
:10256000E608F0A3DEFAEFF0A3E58124FBF8E60825
:10257000F0A3E608F0A30808E608F0A3E608F0A335
:1025800015811581D0E0FED0E0F815811581E8C0F5
:10259000E0EEC0E022C0D02518C582C0E0E51934C5
:1025A000FFC583C0E0E518C3958224F310AF08850A
:1025B00083198582188008858319858218D2AFC84F
:1025C000F0A3E9F0A3EAF0A3EBF0A37908E709F0A0
:1025D000A3D8FAECF0A3EDF0A3EEF0A3EFF0A3D0B4
:1025E000E0F0A3D0E0F0A3D0E0F0A3E520F0A3E575
:1025F000F0F0A322851983851882E0C0E0A3E0F9FA
:10260000A3E0FAA3E0FBA37808E0F608A3DFFAE072
:10261000FCA3E0FDA3E0FEA3E0FFA3E0C0E0A3E095
:10262000C0E0A3E0F5D0A3E0F520A3E0A3F5F0100F
:10263000AF088583198582188008858319858218DB
:10264000D2AFD082D083D0E0F8D0E03275F0108ED7
:10265000218F22858226858325851882851983E02E
:10266000CEA3E0CF852682852583EBC9EAC8EDCBD2
:10267000ECCAC3E833C8E933C9EA33CAEB33CBC386
:10268000EA9EF524EB9FF523B35004AB23AA24EC78
:1026900033CCED33CDD5F0DAAE21AF2222D083D0CA
:1026A00082ECC0E0EDC0E0E493A3FCE493A3FDED75
:1026B0004C600D1227F8EC24FFFCED34FFFD80EF99
:1026C000E493A3FCE493A3FDED4C600D1228CBEC46
:1026D00024FFFCED34FFFD80EFD0E0FDD0E0FCE412
:1026E00093A3C0E0E493C0E022851983851882E0BB
:1026F000A3FEE0A3F5207808E0A3F608DFFAE0A344
:10270000FFE0A3C0E0E0A3C0E0E0A3C0E0E0A3C01E
:10271000E0E0A3C0E010AF08858218858319800827
:10272000858218858319D2AFD083D0820229EED05A
:1027300083D082E9C0E0E493A3C386F0C5F095F0AE
:10274000F908E493A386F0C5F095F0700BE493A329
:10275000C3994005E9048002A3E475F002A4258230
:10276000F582E5F03583F583D0E0F9E493A3C0E08A
:10277000E493C0E022C0E074F2122595A2AFE433E6
:10278000FED2AFC2C0901A89E0700BE5D1A2E4502E
:102790001D122E418018E5D1A2E3500675D1F71223
:1027A0002E17E5D1A2E4500675D1EF122E1DEEA230
:1027B000E092AF7F010225F4851983851882E0A39A
:1027C000FEE0A3F5207808E0A3F608DFFAE0A3FF17
:1027D000E0A3C0E0E0A3C0E0E0A3C0E0E0A3C0E06D
:1027E00010AF088582188583198008858218858333
:1027F00019D2AFD083D08222C0E0C3E4939608748C
:1028000001939618400FE49366700808740193666C
:102810001870007019A3A3C3E493960874019396EB
:1028200018A3A3400DD0E0D0E0D0E00226D9A3A3A6
:10283000A3A3A3A3D0E022D083D082C5F0E493A3C6
:10284000C5F0C395F0F5F0E493A3C395F04005E51A
:10285000F0048001E475F002A42582F582E5F035EC
:1028600083F583E493A3C0E0E493C0E02274048082
:102870000474028000CCC0E0EDC0E0E518C39CCC3D
:10288000AD1950011D10AF068C188D1980068C18DB
:102890008D19D2AF12296AD0E0FDD0E0FC2274027B
:1028A0008000CCC0E0EDC0E0E518C39CCCAD195071
:1028B000011D10AF068C188D1980068C188D19D249
:1028C000AF122948D0E0FDD0E0FC22C0E0C0F08883
:1028D000F0E4936670080874019366187000A8F01D
:1028E000A3A3700BD0F0D0E0D0E0D0E00226D9A3B3
:1028F000A3D0F0D0E022D083D082CCC0E0E493A378
:1029000060061229AA1470FAE493A36006122AD76B
:102910001470FAD0E0FCE493A3C0E0E493C0E0229A
:10292000C0E074F2122595758900C2C5901A89E03D
:10293000700E7A007B109009D3E0F91233A5800362
:10294000123C457F010225F4CAC0E0E493A3C5828E
:10295000CCC582C583CDC583F0A3C582CCC582C555
:1029600083CDC583DAE5D0E0CA22CAC0E0E0A3C5C2
:1029700082CCC582C583CDC583F0A3C582CCC58278
:10298000C583CDC583DAE6D0E0CA22C008C3E0968D
:10299000F50808A3E096420808A3E096420808A3B9
:1029A000E09645087001D3D00822C0E0E493A3D399
:1029B0009C5010E493A3C39C400AD0E0D0E0D0E048
:1029C000022913A3A3A3D0E02270090808082260FB
:1029D00016181818C6C333C608C633C608C633C689
:1029E00008C633C6D5E0EA22C09FF59FE473D09FA6
:1029F00022D083D082C09FE493C0E0740193C0E0F2
:102A0000740293F59F22C0E0C0D0E8C0E0A8A8D22D
:102A1000AFC2C7751A00E8A2E792AFD0E0F8D0D0F5
:102A2000D0E0322518F58210AF08F518400C1519C2
:102A30008008F51840021519D2AF85198322740455
:102A4000800A74038006740280027401C0E0F404FA
:102A5000122A23D0E0122CB72200C0D0251810AFC4
:102A600008F518500C05198008F51850020519D200
:102A7000AFD0D022BB0102E722C082C08389828A04
:102A800083BB0003E08002E493D083D082226016EF
:102A9000080808C6C313C618C613C618C613C61836
:102AA000C613C6D5E0EA222518F8E43519F922251F
:102AB00018FAE43519FB222518FCE43519FD22C368
:102AC000E0C696F608A3E0C696F608A3E0C696F61A
:102AD00008A3E0C696F622C0E0E493A36C7009D088
:102AE000E0D0E0D0E0022913A3A3D0E02225181003
:102AF000AF08F518400C15198008F5184002151993
:102B0000D2AF22E76670100809E766700A0809E785
:102B10006670040809E76622E066701008A3E066A4
:102B2000700A08A3E066700408A3E06622C3E0967A
:102B300008A3E09608A3E09608A3E096A2D265D089
:102B40003322C3E096F008A3E096F008A3E096F0E5
:102B500008A3E096F022C3E697F60809E697F60880
:102B600009E697F60809E697F622C3E493960874F7
:102B70000193960874029396087403939622E627AD
:102B8000F60809E637F60809E637F60809E637F6E3
:102B900022E026F608A3E036F608A3E036F608A3FE
:102BA000E036F622E493F608740193F60874029373
:102BB000F608740393F622E647F60809E647F60896
:102BC00009E647F60809E647F622E657F60809E659
:102BD00057F60809E657F60809E657F622E056F6D2
:102BE00008A3E056F608A3E056F608A3E056F6223E
:102BF000E056F008A3E056F008A3E056F008A3E082
:102C000056F022E026F008A3E036F008A3E036F004
:102C100008A3E036F022700422600D18C6C333C644
:102C200008C633C6D5E0F41822E4C396F608E49645
:102C3000F608E496F608E496F622C6F4C608C6F44A
:102C4000C608C6F4C608C6F4C622600D08C6A2E7C8
:102C500013C618C613C6D5E0F322C3E7960809E7E2
:102C6000960809E7960809E79622C3E09608A3E0CC
:102C70009608A3E09608A3E0962275D00075813FE0
:102C80007518D1751904000224C7600C08C6C31357
:102C9000C618C613C6D5E0F422E6F008A3E6F0088D
:102CA000A3E6F008A3E6F022E0F608A3E0F608A306
:102CB000E0F608A3E0F622CAC0E0E6F0A308DAFADC
:102CC000D0E0FA22EAF0A3EBF0A3ECF0A3EDF022BF
:102CD000E0FAA3E0FBA3E0FCA3E0FD22E0F8A3E020
:102CE000F9A3E0FAA3E0FB22E8F0A3E9F0A3EAF0FD
:102CF000A3EBF022E5C754F84401F5C7790122257A
:102D000018F582E43519F583221229F193D10512C1
:102D100029F1AFD1051229F1F4D1051229F184D29C
:102D2000051229F1DCD2051229F1BED3051229F1D1
:102D3000A3D4051229F1E8D4051229F149D50512C9
:102D400029F1D5D5051229F101D6051229F14CD664
:102D5000051229F172D6051229F10AD7051229F1B7
:102D6000B3D7051229F106D8051229F137D8051273
:102D700029F16ED8051229F112DA051229F1DEDAED
:102D8000051229F191DB051229F1F39C071229F1B3
:102D9000049D071229F1A29D071229F1F6FF0212E4
:102DA00029F1E3FF031229F1BA9D071229F1CA9D07
:102DB000071229F1DF9D071229F1709E071229F1F0
:102DC000F19B071229F1749C071229F1DA9C071272
:102DD00029F1F9FF021229F1DDFF021229F1EDFFBD
:102DE000021229F1F0FF021229F1F3FF021229F178
:102DF000F87F001229F15292071229F174920712FA
:102E000029F1DC93071229F16094071229F1B4FF2C
:102E1000021229F1BDFF021229F1C6FF021229F1A7
:102E2000D4FF021229F1B8C3061229F124C40612F4
:102E300029F1ECC4061229F1CDC5061229F1CAC741
:102E4000061229F131C8061229F184C8061229F1A7
:102E500095C8061229F1A5C8061229F117C906124C
:102E600029F12DC9061229F138C9061229F146C9DE
:102E7000061229F158C9061229F16BC9061229F167
:102E800097C9061229F119CC061229F170CC061245
:102E900029F1B0CC061229F1C4CC061229F1DDCCFF
:102EA000061229F1CECD061229F17FCE061229F1A4
:102EB00093CE061229F1D295071229F1F695071241
:102EC00029F10F96071229F14196071229F17196FF
:102ED000071229F19E96071229F1A896071229F1E7
:102EE0000A97071229F11997071229F12397071258
:102EF00029F13097071229F13186071229F15186FD
:102F0000071229F19086071229F1AB86071229F1E1
:102F1000CA86071229F13087071229F1398707126B
:102F200029F19687071229F1A587071229F1C98788
:102F3000071229F18A88071229F19788071229F1C7
:102F4000A888071229F13CA1071229F154A1071200
:102F500029F180A1071229F1FED3061229F152D5D9
:102F6000061229F160D5061229F173D5061229F14E
:102F700088D5061229F19DD5061229F1B0D5061281
:102F800029F124D6061229F189D6061229F111D782
:102F9000061229F18DD7061229F151D8061229F10E
:102FA00061D8061229F170D8061229F166FF0112C4
:102FB00029F18AFF011229F1B2FF011229F1DAFF8A
:102FC000011229F1D688071229F1FD88071229F18B
:102FD0001C89071229F18489071229F11F8307121E
:102FE00029F13883071229F14483071229F1588304
:102FF000071229F17683071229F18083071229F13C
:103000008A83071229F19D83071229F12E84071262
:1030100029F19D84071229F1D184071229F11F8516
:10302000071229F16C85071229F18785071229F10A
:103030009185071229F1B785071229F11C8607121D
:1030400029F1889E071229F1169F071229F1C0A4C1
:10305000061229F1EAA4061229F107A5061229F1A0
:103060001AA5061229F130A5061229F18EA506121D
:1030700029F1C1A5061229F1B6A9061229F116AB4C
:10308000061229F149AB061229F193AB061229F178
:1030900009AD061229F131AD061229F146AD06122D
:1030A00029F156AD061229F19AAD061229F1F5ADB6
:1030B000061229F105AE061229F1ADFE061229F11C
:1030C000C7FE061229F1EFFE061229F108FF0612CB
:1030D00029F12CFF061229F14AFF061229F161FF9E
:1030E000061229F18FFF061229F1AAFF061229F113
:1030F000409F071229F1869F071229F11DFB061236
:1031000029F12DFB061229F134FC061229F168FC85
:10311000061229F194FC061229F1B7FC061229F1D6
:10312000D5FC061229F10FFD061229F178FD0612D1
:1031300029F1BAFD061229F1F9FD061229F12AFE3C
:10314000061229F155FE061229F1F2FB031229F1AC
:1031500057FC031229F1FDFC031229F134FD03127F
:1031600029F172DC051229F109DD051229F137DF99
:10317000051229F122E2051229F1B0E3051229F125
:103180001CE4051229F16BE7051229F1B6E80512D6
:1031900029F1BC99071229F1079A071229F1768BB8
:1031A000071229F1998D071229F134B6061229F177
:1031B00058B6061229F197B7061229F130B906124E
:1031C00029F1B4BB061229F1EBBB061229F1A7CEF7
:1031D000061229F14DD1061229F1F2D1061229F178
:1031E0001ED2061229F14CD2061229F181D2061202
:1031F00029F1A9D2061229F109D3061229F1F08C7E
:10320000061229F1D790061229F1C692061229F169
:10321000EF93061229F1CF94061229F17D9606123A
:1032200029F12798061229F1F798061229F14B99EE
:10323000061229F1EB8D071229F1F58D071229F1FC
:10324000168E071229F1E4E9051229F1F9EE0512AB
:1032500029F167F0051229F123F2051229F120F373
:10326000051229F150F4051229F168F5051229F12A
:1032700048F6051229F1689C051229F1A09C051257
:1032800029F1C6A6051229F1A7A7051229F1F3A86D
:10329000051229F13CAA051229F1F2AA051229F119
:1032A000C6AB051229F1ADAC051229F195AD051299
:1032B00029F137AE051229F161AE051229F111B0DD
:1032C000051229F181B0051229F19AB0051229F1F0
:1032D000F1B1051229F1A2B2051229F124B30512A8
:1032E00029F1D0B3051229F140B4051229F1DCB45B
:1032F000051229F153B5051229F18BB5051229F1F3
:103300008DB6051229F14CB7051229F1F2B7051255
:1033100029F16394071229F18D94071229F1A295DE
:10332000071229F1A595071229F199A0071229F191
:10333000E0A0071229F122A1071229F132A10712F8
:1033400029F139BD061229F177BD061229F1E0BD38
:10335000061229F1FDBD061229F116BE061229F149
:10336000C8BE061229F1D1BE061229F116BF0612F7
:1033700029F14CBF061229F163BF061229F1D5BF0E
:10338000061229F162C0061229F198C0061229F12D
:10339000EFC0061229F153C1061229F176C10612B7
:1033A00029F1DAC1061229F136C2061229F171C2D9
:1033B000061229F1A6C2061229F1B8C2061229F195
:1033C000CAC2061229F102C3061229F14EC306121F
:1033D00029F18CC3061229F192DD061229F1D2DE01
:1033E000061229F1F5DE061229F106DF061229F18F
:1033F000FBE0061229F11BE1061229F11B900712CE
:1034000029F14F90071229F19790071229F1F391B2
:10341000071229F1E4EB021229F115ED021229F14C
:103420004FED021229F10EEF021229F138EF0212CC
:1034300029F1C5F1021229F105F2021229F19CF3DA
:10344000021229F12FF4021229F187F4021229F154
:103450002AF5021229F162F5021229F1A4F50212ED
:1034600029F113F7021229F165F8021229F188FAFD
:10347000021229F1B6FA021229F1DDFA021229F13B
:10348000E6FA021229F136FB021229F1C8FB0212F8
:1034900029F1B8FE021229F13BFF021229F1F49F33
:1034A000071229F10AA0071229F114A0071229F125
:1034B0006EA0071229F110E7061229F126E706127D
:1034C00029F1CBE7061229F10AE8061229F127E8CB
:1034D000061229F158E8061229F1A5E8061229F189
:1034E000D8E8061229F113E9061229F1FFEA0612BB
:1034F00029F160EB061229F19598071229F1F49849
:10350000071229F14E99071229F1DE9A071229F1C3
:10351000509B071229F18E9B071229F1CF9B0712AE
:1035200029F135AE061229F13BAE061229F17CAE27
:10353000061229F16EB0061229F19EB0061229F189
:103540000DB1061229F1DBB1061229F11CB20612E7
:1035500029F14AB2061229F1D4B2061229F1EBB2CE
:10356000061229F1F8B2061229F102B3061229F166
:103570009EB4061229F1AEB5061229F1F7B506126E
:1035800029F11FF7051229F135F7051229F1C8F7BE
:10359000051229F1F4F8051229F1E9F9051229F1CA
:1035A00086FA051229F1C6FA051229F144FB051223
:1035B00029F1A1FB051229F1B1FB051229F1D8FB74
:1035C000051229F12BFC051229F19CFD051229F1A8
:1035D000A1FD051229F1C1FD051229F130DD03120B
:1035E00029F162DD031229F1FBDD031229F154DF19
:1035F000031229F137E0031229F1B6E1031229F190
:10360000D2E1031229F121E2031229F1A3E203120C
:1036100029F1F8E2031229F10BE3031229F16FE318
:10362000031229F1CAE3031229F16FE4031229F10D
:1036300066E5031229F1A1E5031229F127E6031239
:1036400029F178E8031229F13CE9031229F160EA33
:10365000031229F1D7EA031229F105EB031229F12C
:10366000CFEB031229F154EC031229F1A0EC031261
:1036700029F1BAEC031229F103ED031229F119ED36
:10368000031229F1D3ED031229F1F9EE031229F106
:1036900004EF031229F162EF031229F1B7EF0312CD
:1036A00029F115F0031229F111F1031229F1B4F3F4
:1036B000031229F1D3F3031229F1DBF4031229F1E8
:1036C000FFF4031229F175F5031229F135F60312FF
:1036D00029F16CF6031229F1DEF6031229F1FEF747
:1036E000031229F12EF8031229F141F8031229F1EE
:1036F00044F8031229F14DF8031229F15FF803127F
:1037000029F1D0F8031229F106F9031229F119F968
:10371000031229F145F9031229F16CF9031229F179
:1037200090F9031229F12FFA031229F1A1FA0312D9
:1037300029F1D8FA031229F1E2FA031229F119FB4F
:10374000031229F12FFB031229F14CFB031229F17B
:103750007AFB031229F190FB031229F1A8FB031253
:1037600029F1BAFB031229F102FF041229F113FF18
:10377000041229F19EFF041229F161E2061229F1D7
:103780009FE2061229F12BE3061229F136E4061214
:1037900029F152E6061229F187E6061229F154F8BA
:1037A000011229F1A3F8011229F143FA011229F1BA
:1037B00017FC011229F159FC011229F124FD011213
:1037C00029F12CFE011229F14EFE011229F1AAFE67
:1037D000011229F12BFF011229F19E51001229F14A
:1037E000C051001229F15353001229F19C530012C9
:1037F00029F11054001229F18D54001229F1F254CC
:10380000001229F1F554001229F13755001229F15F
:10381000A755001229F15656001229F159560012E7
:1038200029F1CE56001229F11357001229F1145B29
:10383000001229F17D5C001229F1BB5C001229F114
:10384000115D001229F15760001229F1D4600012B5
:1038500029F17962001229F1A963001229F1F064BB
:10386000001229F16A65001229F18666001229F119
:103870002B67001229F13F67001229F10D68001231
:1038800029F13B69001229F1536B001229F1656D92
:10389000001229F1446E001229F1DF70001229F1A3
:1038A0008071001229F16F72001229F1C97500129E
:1038B00029F1D975001229F13E77001229F1CF774D
:1038C000001229F1D778001229F1627A001229F149
:1038D000E07A001229F1287C001229F1727C001292
:1038E00029F14B7D001229F10080051229F1A080F9
:1038F000051229F10A81051229F12381051229F106
:10390000BA81051229F1FE81051229F120830512E1
:1039100029F15C83051229F1D883051229F123844A
:10392000051229F18284051229F18B85051229F1EE
:10393000AE88051229F1CF89051229F14A8A0512AC
:1039400029F1318C051229F1D18C051229F1788DDC
:10395000051229F1DB8D051229F1508E051229F18E
:103960005F8F051229F13390051229F16990051234
:1039700029F19890051229F14C91051229F17891BD
:10398000051229F1F891051229F17893051229F110
:103990000495051229F14C96051229F1B7970512E5
:1039A00029F1C398051229F16699051229F1DF99C9
:1039B000051229F10D9B051229F1B2BC041229F15F
:1039C00015BD041229F15DBD041229F1A1BD041237
:1039D00029F10BBE041229F154BE041229F18CBE48
:1039E000041229F126BF041229F180BF041229F123
:1039F000CDC0041229F156C1041229F17DC104126F
:103A000029F187C2041229F172C3041229F1BFC33C
:103A1000041229F1BEC4041229F1E6C4041229F1EA
:103A20002FC6041229F140C6041229F158C6041207
:103A300029F141C7041229F127C8041229F130C91C
:103A4000041229F15AC9041229F172C9041229F188
:103A50008CC9041229F1C3C9041229F1E3C9041263
:103A600029F10ACA041229F121CA041229F1FDCA56
:103A7000041229F155CB041229F1FECD041229F1CB
:103A80002DCF041229F163CF041229F16DCF041256
:103A900029F184CF041229F1F1CF041229F1DAD0EF
:103AA000041229F110D1041229F1E1D1041229F1F3
:103AB00082D2041229F1B0D2041229F1BDD304122A
:103AC00029F1DCD3041229F15FD4041229F1D0D4F6
:103AD000041229F114D5041229F198D5041229F100
:103AE000F5D5041229F1A2D6041229F188D80412BE
:103AF00029F168D9041229F1BED9041229F11CDB7D
:103B0000041229F132DD041229F1DCDF041229F15B
:103B100086E1041229F156E2041229F1CEE20412E0
:103B200029F1F0E2041229F1DFE3041229F1CFE4D4
:103B3000041229F13AE5041229F16DEB061229F17C
:103B400081ED061229F147EE061229F19CEE0612CC
:103B500029F119EF061229F1ADEF061229F1CBEF89
:103B6000061229F10FF0061229F135F0061229F19B
:103B70005BF0061229F173F0061229F18BF00612A0
:103B800029F1F6F0061229F107FB041229F14DF193
:103B9000061229F154F2061229F16FF2061229F1E8
:103BA00078F2061229F181F2061229F18AF2061240
:103BB00029F194F2061229F111F3061229F1A9D87C
:103BC000061229F10ADD061229F126DD061229F175
:103BD0002BDD061229F17D7E001229F16BF706120A
:103BE00029F181F7061229F11AF9061229F199CF64
:103BF000051229F1CFF9061229F1BDFA061229F1B1
:103C0000ECFA061229F1FEFA061229F13A97071288
:103C100029F10080071229F15C80071229F19C80AC
:103C2000071229F19081071229F1B481071229F1B5
:103C3000C981071229F1E981071229F120820712AF
:103C400029F13182071229F14882071229F16D8288
:103C5000071229F1FC82071229F188FF021229F1CB
:103C60000080031229F13380031229F19A80031294
:103C700029F12681031229F1CD81031229F1158240
:103C8000031229F13A82031229F15382031229F116
:103C90007982031229F19B82031229F1D98203123E
:103CA00029F12883031229F15183031229F1B083EA
:103CB000031229F18984031229F13F85031229F1A6
:103CC0009D85031229F16386031229F1AD86031243
:103CD00029F10487031229F16F87031229F1AD87B7
:103CE000031229F10388031229F11F88031229F115
:103CF0004A88031229F1598A031229F19F8B031272
:103D000029F1CB8B031229F1FF8B031229F1208CAF
:103D1000031229F12F8C031229F13A8C031229F195
:103D2000EA8C031229F1598D031229F1068E031230
:103D300029F1428E031229F1008F031229F10D900F
:103D4000031229F15A90031229F1E990031229F183
:103D50004391031229F18891031229F11794031258
:103D600029F17195031229F1BD98031229F19B994C
:103D7000031229F1729A031229F1869A031229F18A
:103D8000AF9A031229F1209B031229F1B69B03126B
:103D900029F1299C031229F1189D031229F13D9D57
:103DA000031229F1A09E031229F1BE9E031229F1EC
:103DB000D19E031229F1359F031229F1449F03126A
:103DC00029F1CC9F031229F1E29F031229F1E6A009
:103DD000031229F1F3A0031229F1FCA0031229F127
:103DE000F6A2031229F126A4031229F136A4031224
:103DF00029F139A5031229F1B5A5031229F1EEA580
:103E0000031229F126A7031229F16CA7031229F145
:103E100047A9031229F128AD031229F13CAD031281
:103E200029F146AD031229F150AD031229F15AAD23
:103E3000031229F164AD031229F17DAD031229F1BA
:103E400087AD031229F101AE031229F10CAE031262
:103E500029F13BAE031229F163AE031229F16EAED4
:103E6000031229F1BCAE031229F1C6AE031229F1E7
:103E7000D1AE031229F1F5AE031229F119AF0312E5
:103E800029F176AF031229F1BCAF031229F1D8AFA3
:103E9000031229F15FB0031229F196B0031229F140
:103EA000D5B0031229F122B1031229F1A4B10312F2
:103EB00029F150B2031229F12CB4031229F19AB45A
:103EC000031229F1C6B5031229F1ECB5031229F149
:103ED00045B7031229F19DBA031229F1D6BC03128A
:103EE00029F1B4BE031229F14DBF031229F172C1A9
:103EF000031229F126C2031229F15FC2031229F12C
:103F0000C5C2031229F1CFC2031229F1F9C4031269
:103F100029F1DEC5031229F145C7031229F18DC726
:103F2000031229F141C8031229F1E4C9031229F14E
:103F30006BCB031229F18BCB031229F1DECB0312D9
:103F400029F1DECC031229F106CD031229F169CD46
:103F5000031229F14CCE031229F1BECE031229F12E
:103F6000D0CF031229F154D0031229F152D10312F8
:103F700029F1E8D3031229F107D4031229F152D50C
:103F8000031229F120D7031229F174D7031229F162
:103F90002CD8031229F1DCD8031229F13FD90312DE
:103FA00029F104DA031229F19ADA031229F101DB6B
:103FB000031229F143DB031229F174DB031229F107
:103FC000D4DC031229F10080021229F1328002129E
:103FD00029F16B80021229F16182021229F1A38278
:103FE000021229F18783021229F1DF83021229F1DB
:103FF0002285021229F16E85021229F19A88021295
:1040000029F1188C021229F1608D021229F1F68D26
:10401000021229F1028E021229F1428E021229F1B6
:10402000D78F021229F1CB90021229F1F5900212DA
:1040300029F14C91021229F1A591021229F116924F
:10404000021229F14B94021229F1E295021229F190
:10405000B696021229F1FD97021229F1559A021221
:1040600029F1269D021229F1359D021229F1B99DEF
:10407000021229F16E9E021229F1B19E021229F15B
:10408000FA9E021229F14E9F021229F1B39F0212E9
:1040900029F10FA0021229F12BA0021229F15DA033
:1040A000021229F19CA0021229F182A1021229F127
:1040B00031A2021229F1B7A4021229F1EDA50212D0
:1040C00029F1D4A6021229F154A7021229F161ABF9
:1040D000021229F19FAB021229F106AC021229F15A
:1040E00039AC021229F1CCAC021229F1FFAC021258
:1040F00029F19AAD021229F1E8AD021229F1BBAE05
:10410000021229F182AF021229F120B0021229F124
:104110002AB3021229F13EB4021229F1E4B70212C5
:1041200029F1E6B8021229F1E9B8021229F118B909
:10413000021229F117BB021229F1F0BB021229F178
:1041400015BC021229F131BD021229F1E9BD02129A
:1041500029F1A0BF021229F104C0021229F129C0DD
:10416000021229F163C0021229F1BEC0021229F124
:104170009FC1021229F18DC2021229F1C1C202129D
:1041800029F177C3021229F188C5021229F1F3C57A
:10419000021229F13BC6021229F174C6021229F15A
:1041A00006C7021229F15FC8021229F137CC0212A8
:1041B00029F12CCD021229F126CE021229F1A3CE2B
:1041C000021229F175CF021229F152D1021229F1FE
:1041D000E3D1021229F1E7D2021229F1FBD2021235
:1041E00029F10FD3021229F123D3021229F137D377
:1041F000021229F16DD3021229F19DD3021229F185
:1042000027D5021229F1E5D5021229F169D6021249
:1042100029F1BAD6021229F133D7021229F179D73E
:10422000021229F15ED9021229F10EDA021229F1E5
:104230003EDA021229F1FDDA021229F19ADB0212AA
:1042400029F145DD021229F132DE021229F171DE77
:10425000021229F1E3DE021229F128E0021229F10B
:10426000DBE0021229F10FE1021229F127E102122B
:1042700029F1CAE1021229F1B8E4021229F183E618
:10428000021229F1A7E6021229F1C5E6021229F16C
:1042900099E7021229F1C6EB021229F190F30612F6
:1042A00029F1D0F3061229F19CF5061229F1ABF59C
:1042B000061229F199B8051229F15DBD051229F1FF
:1042C000B2BD051229F1F0BF051229F194C1051202
:1042D00029F124C2051229F180C4051229F187C6EB
:1042E000051229F1DEC6051229F1D2C8051229F1FD
:1042F0001FC9051229F17DC9051229F19FC90512AF
:1043000029F1A6C9051229F1BEC9051229F182CAEF
:10431000051229F179CB051229F18481011229F1C5
:10432000C681011229F11887011229F1648701124F
:1043300029F1AA87011229F1F788011229F161896F
:10434000011229F1A989011229F1188B011229F111
:104350005D8E011229F1828F011229F1409B011219
:1043600029F1C99B011229F1319F011229F190A075
:10437000011229F1EBA0011229F133A2011229F156
:104380001BA3011229F1C2A5011229F143A70112B1
:1043900029F1D4A7011229F1D7A7011229F14EA8BA
:1043A000011229F158A8011229F165A8011229F179
:1043B00090A8011229F13FA9011229F12EAA011298
:1043C00029F1E7AA011229F16AAB011229F188ABA0
:1043D000011229F19DAB011229F1C6AB011229F19D
:1043E000F3AB011229F130AE011229F10CAF011229
:1043F00029F156AF011229F1E1AF011229F18FB075
:10440000011229F1C1B0011229F107B1011229F1FC
:104410003AB1011229F18EB1011229F1DFB1011275
:1044200029F1E4B1011229F138B2011229F1A1B246
:10443000011229F16FB3011229F1BAB3011229F166
:104440001FB4011229F17BB4011229F117B5011231
:1044500029F171B8011229F19EB9011229F13EBB6F
:10446000011229F194BE011229F12ABF011229F18A
:104470005AC2011229F115C3011229F15DC30112BB
:1044800029F116C5011229F12AC5011229F134C5F5
:10449000011229F13EC5011229F14AC5011229F183
:1044A00069C5011229F1B7C7011229F110C801121B
:1044B00029F11AC8011229F124C8011229F1AAC848
:1044C000011229F1FEC8011229F10BCA011229F1CA
:1044D0007BCA011229F185CB011229F1CECB011241
:1044E00029F175CC011229F155CD011229F122CE05
:1044F000011229F155CF011229F192D0011229F1AF
:1045000093D1011229F1ABD1011229F1DFD10112AE
:1045100029F1E9D1011229F1F3D1011229F1FED1DA
:10452000011229F11CD2011229F164D2011229F1E0
:10453000C2D2011229F1E9D2011229F1FBD20112F2
:1045400029F196D3011229F1CBD3011229F1C9D453
:10455000011229F11FD5011229F10ED6011229F1FC
:1045600044D6011229F1A7D6011229F11FD7011251
:1045700029F1C4D8011229F1ECD9011229F1CADAC2
:10458000011229F19BDB011229F11CDC011229F136
:10459000B7DC011229F1ECDD011229F17EDE0112F6
:1045A00029F1D2DE011229F13EDF011229F104E0E6
:1045B000011229F155E0011229F1ADE0011229F1B2
:1045C0007EE1011229F1A1E1011229F150E201126B
:1045D00029F172E2011229F1D3E2011229F121E558
:1045E000011229F124E6011229F1E8E6011229F16C
:1045F0001CE9011229F166E9011229F1B1E9011260
:1046000029F10CEA011229F179EA011229F1A7EA4C
:10461000011229F1CBEA011229F100EB011229F173
:104620002DEB011229F173EB011229F1D1EB0112EB
:1046300029F125EC011229F14FED011229F1FCEECF
:10464000011229F145EF011229F16EEF011229F152
:1046500000F0011229F178F0011229F186F001121F
:1046600029F1AAF0011229F107F1011229F122F131
:10467000011229F1E3F1011229F10FF2011229F1DE
:1046800052F2011229F1B5F2011229F1ADF4011231
:1046900029F1DAF4011229F1CFF5011229F1CCF652
:1046A000011229F16FF7011229F16999061229F116
:1046B000A199061229F1C299061229F1069A061249
:1046C00029F16A9A061229F1749A061229F1849A3C
:1046D000061229F1BB9A061229F1B39E061229F19E
:1046E000C1A0061229F1AEA2061229F145A30612B5
:1046F00029F1E7A3061229F17380041229F11C8124
:10470000041229F1F381041229F1FB82041229F128
:104710001B83041229F13384041229F1ED8504125C
:1047200029F16086041229F1FD86041229F114880A
:10473000041229F18188041229F1BC88041229F19C
:104740001189041229F14C89041229F19989041262
:1047500029F1298A041229F1B68A041229F18B8BD6
:10476000041229F1648C041229F1F28C041229F14B
:10477000128D041229F13F8D041229F1708D04125B
:1047800029F1438E041229F1538E041229F1A28ECD
:10479000041229F1AF8E041229F1B88E041229F106
:1047A000288F041229F1888F041229F1D38F041263
:1047B00029F1EE8F041229F11590041229F132909B
:1047C000041229F13E90041229F1E991041229F111
:1047D0000292041229F18B92041229F19E92041282
:1047E00029F1BD92041229F15893041229F1C894B9
:1047F000041229F16F96041229F1FE96041229F190
:104800000197041229F17197041229F18F9704126C
:1048100029F13498041229F17098041229F173983F
:10482000041229F13999041229F19C99041229F1F1
:10483000D599041229F14A9A041229F1689A0412AE
:1048400029F1B69A041229F18B9B041229F1D99B04
:10485000041229F1279C041229F1B49C041229F1B5
:10486000E99C041229F11E9D041229F12C9D0412C9
:1048700029F18B9D041229F1039E041229F1449E13
:10488000041229F1949E041229F1BF9E041229F109
:10489000D99E041229F1F39E041229F1CE9F04122D
:1048A00029F1D89F041229F113A0041229F123A0A1
:1048B000041229F12CA0041229F184A0041229F178
:1048C00098A0041229F1CEA1041229F1E1A1041249
:1048D00029F1F8A1041229F10DA2041229F19BA2D9
:1048E000041229F103A3041229F1B6A3041229F139
:1048F000C1A3041229F111A5041229F12DA5041256
:1049000029F179A5041229F1E8A5041229F121A6BB
:10491000041229F13BA6041229F19BA6041229F1E5
:104920003AA7041229F185A7041229F147AA041213
:1049300029F1FDAA041229F18DAB041229F1D5AD9C
:10494000041229F1EDAD041229F1F0AD041229F1A0
:10495000FCAD041229F110AE041229F118AE0412B4
:1049600029F14BAE041229F13EAF041229F1C9AF6F
:10497000041229F15CB0041229F1D5B0041229F116
:1049800099B1041229F1BBB1041229F154B20412F5
:1049900029F1B1B2041229F1B4B2041229F1E1B241
:1049A000041229F1F6B2041229F170B3041229F1AC
:1049B000BCB4041229F1C7B5041229F152B604128D
:1049C00029F157B7041229F117B8041229F148B890
:1049D000041229F16EB8041229F177B8041229F1F2
:1049E000A5B8041229F13DB9041229F1F2B9041253
:1049F00029F163BA041229F10ABB041229F191BB0F
:104A0000041229F1D0BB041229F113BC041229F1BC
:104A10004DBC041229F1B0FA041229F104FA04126F
:104A200029F13CF8041229F185F7041229F155F710
:104A3000041229F10AF7041229F1A5F6041229F14A
:104A400064F6041229F144F6041229F176F50412F1
:104A500029F103F5041229F1A1F4041229F144F417
:104A6000041229F1B7F2041229F154F2041229F1C7
:104A7000CEF1041229F1C5F1041229F1B9F10412A1
:104A800029F186F1041229F140EE041229F112EE07
:104A9000041229F1BFED041229F1A7ED041229F146
:104AA0009CED041229F15BCF051229F160ED04128F
:104AB00029F135CF051229F1B9CE051229F173FE7E
:104AC000041229F128FE041229F1BCFD041229F177
:104AD00059FD041229F18EEB041229F177EB04122F
:104AE00029F1ADEA041229F10AEA041229F12FFD95
:104AF000041229F12EE8041229F1D0E6041229F15A
:104B0000C5E6041229F13DE6041229F163F9061203
:104B100029F1F9E5041229F1B3FC041229F1D5E5D4
:104B2000041229F1B98C061229F1728C061229F1AE
:104B3000118C061229F1DC8B061229F1B18B0612B9
:104B400029F17D8B061229F1558B061229F1D88A9D
:104B5000061229F1C28A061229F1928A061229F157
:104B6000088A061229F14D86061229F105840612DB
:104B700029F1DD81061229F15F81061229F11081E8
:104B8000061229F10080061229F19D80061229F1F2
:104B90005E80061229F138F10600000080FBE47304
:104BA0008F000100881E87000100861E350004006A
:104BB0004C1E25000200501E26000200521E270037
:104BC0000200541E280001005E1E290001005F1E25
:104BD00084000400571A86000100F61D2A00010017
:104BE000601E2B000100611E2C000100671E2D00BD
:104BF0000800641A2E000100681E2F000100691EC3
:104C0000300001006A1E310001006B1E32000100FD
:104C10006C1A330001006D1A340001006C1E36005E
:104C200001006E1A380001006D1E39000100661E79
:104C300083000200841E63000100791A64000100F1
:104C4000621E65000100631E6D0001007A1A71008A
:104C500008005C1A66000100831E43000100741EF8
:104C600044000200751E45000100771E4600020048
:104C7000781E47000800711A480001007A1E4B0098
:104C800001007B1E04000100871EA10001008B1E95
:104C9000370001008A1E88000100891E3C000100C7
:104CA0006F1A3D0001006E1E490002007C1E670065
:104CB00001007B1A4D0002007E1E4E000100801E86
:104CC0004F000200811E3E000100731E51000100D2
:104CD0006F1E52000100701E53000100721E54002E
:104CE0000100701A000000000000000136360101CA
:104CF0000001020100010301000104010606050292
:104D00000000070100340801000F090401010D0132
:104D100000FF0E08000017020000190100FF1A0131
:104D200000011B0100FE1C0100081D0200001F0104
:104D3000000120010001210200002301000F2402D4
:104D400000002601000127010008280200FF2A01B7
:104D500000072B0102402C0100002D0100012E0153
:104D600000012F0100FF30010B1D310800003A0146
:104D700000083B01000F3C0100013D0100FF3E0423
:104D8000000042040000460400004A0400004E04F3
:104D9000000052040000560400005A040000010301
:104DA0007103010301030103010301032203020351
:104DB00001031003000300030003000300030003CA
:104DC000000342030003240306030003000304035B
:104DD0001203250323032503230304030403000311
:104DE00000030003440300030003230300036503DF
:104DF00021003503810300030503000300030003C2
:104E00000003250323030302710230016002110233
:104E100070020102020202028002100261023A00E4
:104E20004100630273027202620243020002130233
:104E30003800000200020402120200020002000216
:104E4000000204020402370037003C024402000260
:104E500039000002000265020002350281020002F0
:104E6000050282028302000203007100300160002B
:104E70001100700031022003500480001000610016
:104E80000000140063007300720062004300000021
:104E900013000600000000000400120000000000E3
:104EA0000000000004000400370037003C0244000A
:104EB00000000000000000006500000035008100D7
:104EC00000000500000083000000010171010101E4
:104ED00001011101010131010101010180011001F4
:104EE00061013B001400630173017201620143011F
:104EF0000001130106013D0135000401120100010A
:104F000000010001000104010401330133013C01EF
:104F10004401320136000001000165010001350045
:104F20008101000105018201830100010304710474
:104F30000204600411047004020402040104020467
:104F40001004610400041404630473047204620412
:104F500043040004130406040004000404041204BF
:104F60000004000400040004510464000004000470
:104F70000004440400040004000400046504000468
:104F80003504810464000504000483040004360031
:104F90000100060000000F000000000000000000FB
:104FA0000000000003FFFF00000403FFFF0000FFFC
:104FB000FF0FF4010005C4040320000100000B00F2
:104FC0000000000000000003010F000000000000CE
:104FD00000000000000000000000000000000000D1
:104FE00000000000000000000000000013007F38F7
:104FF0001F0085381F808B380000273901002739B2
:10500000020001380280FB370300073804000D3826
:10501000048013380500193806002538300043385D
:1050200031003D3832004F383300553835005B3899
:10503000340061383600673811007338140079384D
:1050400015003738FFFF00000A00000002000000D2
:105050000400000008000000100000002000000014
:10506000400000008000000000010000000200007D
:1050700000040000000800000010000000200000F4
:1050800000400000015F43068F430889430BAD4396
:1050900010753F0ABF43026543057D43076B430C10
:1050A00047430D534364413DFF000007ECFDFDFD08
:1050B000ECDCDCCCBCACAC9C9C8C7C7C6C6C5C5C20
:1050C0005C4C4C3C3C2C2C1C1C00160F00000B159F
:1050D0000B020002220F3300000E0F667A6C636829
:1050E00074696D65434F2E2C4C54645A6967426550
:1050F00065416C6C69616E63653039D0D1D2D3D4AF
:10510000D5D6D7D8D9DADBDCDDDEDF150AF4D4C09A
:10511000A5958272636155504900034D4C46511864
:105120001A25050200011916181616182303003057
:105130003016181920231A1C1E30003C40423A3FFA
:105140003F392F4730303017181921301B1D1F30C1
:105150000C0E020B040B0A0708000F0204020101E7
:105160000101090200BE040AE8030000FA06AB5080
:105170000C001E00000000000B510E00E8037F0031
:105180001E1E050CFF04040800280400020908097B
:10519000033C0C0305080B0300FF0A0C1010C0822F
:1051A000C0839018CFE4F0A3F07CAC7D1B7AE97B40
:1051B00017123519123D71123FC3123D770267383D
:1051C00074F212245B74FE122AEDE9FF8A08EBFEEA
:1051D0008C09E9703374026A7016790812374DE44D
:1051E000F50AF50B780A122A46780A122A4A8053E1
:1051F00074016A6003025325790812374D7B00EE73
:10520000FAF9123DE302532074016F600874026FD3
:105210006003025325EA600874036A60030252C007
:105220001241E5E9605374036508604D12335D8AED
:105230000A8B0B780A122A46750A01780A122A4A42
:10524000750A00780A122A4AE509F50A780A122A2C
:105250004AEEF50A780A122A4A90180312286D902D
:105260001DF6E0F97C717D1A901E84126566123D70
:105270009B740A122A59025320790212374D901D4D
:10528000F6E0F9901803122CD0123D89E9F8901835
:1052900013E0A2E34010E9700D9018D3E004F0642D
:1052A0000470031253417403650870769018D4E0BB
:1052B000F9740129F0E9C3940540671253418062F3
:1052C00074016A706074016F790A702C12374D7A1C
:1052D000007B04901C7DE0F91234D7AA18AB197931
:1052E0005012624A126254E81277167900901C300C
:1052F000126566123E2B804412374D901E5A1228BA
:105300006D7A007B20901808E0F91234CB740412F7
:105310002A59901DF6E0F9901803122CD0123DC5C1
:10532000E9F8E8601790817712286D7A017B009088
:105330001808E0F91234CB7404122A597402027B63
:105340007A901803E4F0A374F8F0A374FFF0A37448
:1053500007F02274F612245BE9FFEAFE7AD1F91213
:1053600033818A828B83E5824583702A7A027B00AF
:10537000123363EA4B700E7A107B00901808E0F944
:105380001233A580148A828B8374D1F0EFA3F0EEE0
:10539000F912336F8003EFA3F00255A274F71224C1
:1053A0005B89089004D11278B9901E42E0F4700332
:1053B000A3E0F470309009D3E0901E42F0A3E4F033
:1053C00080238E828F831264E9600F8E828F83A385
:1053D000A31264E6FAA9081237E38E828F8312645F
:1053E000D8E8FEE9FFEE4F70D9901E42E0F470035A
:1053F000A3E0F4600A901E42E0FAA9081237E31213
:1054000044859017D3125CB512447F7F010226E9D0
:1054100074F012245B890B8C0C75090075080074FC
:1054200010122CFF1264D87412122CFF12565080E6
:10543000471254D9F50EA3E0F50FAE08EE2EFEE4A8
:1054400033FFEA2EF582EB126B2C650E7004A3E09D
:10545000650F7019AE09EE2EFEE433FFEC2EF582D7
:10546000ED3FF583E50EF0A3E50FF00509050AE52C
:105470000AC3950C40BB0508E508C3950B5005759C
:105480000A0080EBA90980007F080226E974F41263
:10549000245B890B7D00740C122CFF1264D88001F0
:1054A0000DEDC3950B502E750A008002050AE50A22
:1054B000C39C50ECED25E0FEE433FFEA2EF582EBD1
:1054C0003F1276F31254D965087004A3E0650970A1
:1054D000DB7901800279008014AE0AEE2EFEE433FF
:1054E000FFE82EF582E9125C5222122A597F04024B
:1054F00026E90229EE74F612245B12558C7003A380
:10550000E06D70177508117509187808122A46EEB3
:10551000FA12392D7402122A59801A750802750977
:10552000807808122A468A0889097808122A4612C1
:105530005579122A59806B74F612245B12558C70BF
:1055400003A3E06D701775081E7509187808122AF4
:1055500046EEFA1239337402122A59801A7508037A
:105560007509807808122A468A0889097808122A5B
:1055700046125579122A598029EE127B54125C5238
:10558000FD7C801267DE123951740422EAFEEBFFC3
:105590001267F3FCE439FD9017D3E06C2274021219
:1055A0002A597F020226E974F612245B74FE122A3D
:1055B000ED8A088B09851882851983E4F0A3F0121F
:1055C00060CE12692CFBECFA88828983A3A3E0F9F0
:1055D0007F007E00600574FF6970047E82804590C4
:1055E00017D3E06A7003A3E06B701AAA18AB191204
:1055F0004B4BE9FA85188285198312672570027E64
:1056000083EAFF801F901E86E060046401700E1222
:105610003CF9E960047E89800B7E818007E06402AA
:1056200070027E8012564AEEF9AA08AB0912393987
:10563000EF60148518828519831267256009851823
:105640008285198312717902559D85188285198387
:10565000E0FCA3E0FD220229EE74F212245BEAFED4
:10566000EBFF7508007509001267EFF50AE439F5DC
:105670000B124485EA650A7003EB650B7012124B3E
:1056800039E914F50879017A9B7B18124B338003B2
:10569000750980126B26F50C780C122A4A750C9B42
:1056A000750D18780C122A467808122A4A780A12C0
:1056B0002A46E509F5087808122A4A126555126B40
:1056C00029F97A057B8012393F7407027B7A74F6D8
:1056D00012245BE9FF7E0080328A828B83E0F5082A
:1056E000A3E0F8E4C8F9E50828E439F509EE25E077
:1056F000F8E433F9EC28F582ED39F583E508F0A3F9
:10570000E509F0EA2402FA50010B0EEEC39F40C9EE
:105710000255A274E812245B74FE122AED8A108BE3
:1057200011750F00851882851983E4F0A3F0F51632
:10573000F5171263A435111278AF127D2FFA8E82FD
:105740008F83A3A3A3E0F9EAF508E439F509AA0ACF
:10575000AB0B124521E96401702B127509122A4A1C
:10576000E4F508F5097808122A467808122A4A78DA
:105770000A122A467508807808122A4A125AF61226
:105780002A59025ADFAA0AAB0B124521E97041904F
:1057900017D3E0650A7004A3E0650B6033901E86A2
:1057A000E064027028127509122A4AE4F508F50926
:1057B0007808122A467808122A4A780A122A467568
:1057C00008807808122A4A125AF6122A59025ADF19
:1057D0008E828F83A3A3A3A3E0F50BEE2405FE50D6
:1057E000010FE50B602A127BF3851882851983EA85
:1057F000F0A3EB126B43E849601612564AEEFAEF3B
:10580000FBA90B12381F8A0C8B0DAE0CAF0D800359
:10581000750B00127C09601A127BF38A168B17EA4B
:105820004B600FAC16AD17EEFAEFFBA90A12381F4A
:105830008003750A009004D180508E828F83A3A3C9
:10584000A3A3A3A3A3A3E4F0A3F0EEFAEFFB8514B4
:1058500082851583A3A3E0F81264E6F912336F85FD
:105860001282851383E0C0E0A80F749B28F582E4C0
:105870003418F583D0E0F0050FA2005007AA12AB50
:105880001312340B851482851583E0F514A3E0F51B
:1058900015E51445157003025A5D8514828515833C
:1058A0001264E960DF851482851583A3A3A3A3A3F3
:1058B000A3A3A3E0A2E050CC851482851583A3A303
:1058C000A3A3126725851482851583A3A3601E12E6
:1058D00064EBFA7901851482851583A3A3A3A3122F
:1058E0005AE9124B9E8A128B13D2008010125AE989
:1058F000A3A3A3A3E0F512A3E0F513C200E51245AC
:10590000137003025879851282851383A3E065081A
:105910007004A3E06509600F74FF6508700474FFEC
:1059200065096003025879851282851383A3A3A3B6
:10593000A3A3A3A3122871851282851383A3A3A313
:10594000A3A3A3E0FC7402122CFF126566A90B123C
:1059500037F57402122A59E970388512828513834B
:10596000A3A3A3A3A3A3A3A3A3A312287185128215
:10597000851383A3A3A3A3A3A3A3A3A3E0FCAA16B5
:10598000AB17A90A1237F57402122A59E9700302FB
:105990005879E50A250BC333240AFA7B00123363D6
:1059A0008A0C8B0DAE0CAF0DEA4F700302585F8A64
:1059B000828B8374D2F0851082851183A3A3126237
:1059C00063A3A3E81277168A828B83A3A3A3A3E51C
:1059D0000B127D40E50B6033EA240AFAE43FFB8EAC
:1059E000828F83125CB0851882851983E0F50CA341
:1059F000E0F50D750E00780C122A42AC0BEC2CFC75
:105A0000E433FD127D29122A59800D8A828B83A3EB
:105A1000A3A3A3A3E4F0A3F0E50A700302583AA8F5
:105A20000BE828F8E433F9EE28F8EF39F9E8240A0E
:105A3000FAE439FB8E828F83A3A3A3125CB0851690
:105A40000C85170D750E00780C122A42AC0AEC2C4E
:105A5000FCE433FD127D29122A5902584AE50F60F1
:105A600025127509122A4A75089B750918780812BB
:105A70002A46E50FF5087808122A4A9017D312280B
:105A800071750800802DE510240BF582E43511F5C1
:105A900083E0702A127509122A4A75089B75091845
:105AA0007808122A467508007808122A4A9017D3F7
:105AB0001228717808122A4A125AF6122A598518A1
:105AC00082851983126725600985188285198312DA
:105AD0007179E51645176007AA16AB1712340B74D7
:105AE00002122A597F100226E9125AED22E0F8A389
:105AF000E0F583888222E5102402FCE43511FDE5FF
:105B0000101264CF3511F583E0F97A067B801239E3
:105B10003F74072274F412245B74F4122AED8A088D
:105B20008B09ECFEEDFF740B122CFF7403F0122AAC
:105B3000AF12351912667A7403122AAF123513E9BF
:105B4000600A125C466010E06401600B8518828573
:105B500019837484025C0F8E828F83A3A3A3A3A3F3
:105B6000A3A3A3E06013F46010125C467016EE2449
:105B700014126B296003F4700B85188285198374E5
:105B800082025C0F1278A3E064217002A3E07055DA
:105B9000851882851983748C126273E0F50A780A7D
:105BA000122A4A125C571240D17401122A59E97024
:105BB0005F851882851983E4F0123729125C4670DC
:105BC0004F7401122AB7EE240BFAE43FFB1240EFA8
:105BD000E9703D7D007C007900EE240BFAE43FFB88
:105BE0001238F7802BEE2414126B29F50A780A126A
:105BF0002A4A125C571240D77401122A59E98518B3
:105C0000828519837007E4F012372980037488F0C5
:105C10001274C4F50A780A122A4A7401122AA78853
:105C20000A890B780A122A46E508126D5F350912B7
:105C3000625B4480F50B780A122A4612665C122ACF
:105C400059740C0254EAEE2413125C4F640322F5DB
:105C500082E43FF583E022EE240BFCE43FFD8E82DC
:105C60008F83A3A3A3A3A3A3A3A3A31274F98E82D8
:105C70008F83A3A3A3A3A3A3A3A3E0F922C082C0FD
:105C80008374F3122AED851882851983E4F00412D7
:105C90002CFF125CB57403122CFFAA82AB83123C5A
:105CA00081AA18AB19123CBD740D122A590267382B
:105CB000A3A3A3A3A3EAF0A3EBF02274F612245B40
:105CC000EAFEEBFFEA2413126B29F8A3E0125D024F
:105CD000F8901819E058F508A3E059F509E50845CA
:105CE00009601C7808122A469017D3122871126B8B
:105CF00026FD7C001267DA12394B7404122A59020D
:105D000055A28882F583125D0A22E0FAA3E0F9EA3F
:105D10002274EA12245B74DB122AED8A148B157547
:105D20001200751300750A001263A43515F583126D
:105D300064EBF50EAC18AD197A007B00799C123D2E
:105D4000FB901E86E06004640170147A04790012EE
:105D50003CE7EAF50A851882851983E02A800885E0
:105D600018828519837401F0E0F8E50EC3984003AA
:105D7000025F63E0C3950EF509C3940440037509FF
:105D800003E50975F01AA4FAABF01234058A128BF8
:105D900013EA4B7003025F66750B00AE12AF1385FA
:105DA0000E08025E2B7C087D0079FFEE240AFAE4DF
:105DB0003FFB12334B850C82850D83A3A3A3A3E085
:105DC000702D850C82850D8312672570091276D09F
:105DD00012600AE48010125FE7F0901C43E014C0E8
:105DE000E0125FCED0E0F0125FD2126019803290E4
:105DF0001C43E004C0E0125FCED0E0126046C394C2
:105E000003EE4003025EAC1277AD7402126046648A
:105E1000017003025EB9EE2415125FEA125FFB7493
:105E200001F0EE241AFE50010F050BE50BC3950996
:105E30004003025F18E508C3950A4003025EC2AA48
:105E4000087B00123D298A0C8B0D0508901C30122E
:105E5000602C850C82850D83125FF3F0A3E912603C
:105E60001E125FCE74FF12604BA3A3A3A3A3A3E0F3
:105E7000C0E0125FBCD0E0F07401122CFFE4F085AA
:105E80000C82850D831264D87402122CFFE81277FD
:105E9000167401122AAF123CABE964016003025D83
:105EA000A57404122CFF125FD8025DB5125FE812D0
:105EB000604664036003025E16EE24151276D30278
:105EC0005E1CE50AC3950E40057508008051E50E7D
:105ED000C3950AF5088048EE24151276D31260198E
:105EE000F0901C43E014C0E0125FCED0E012601EC0
:105EF000741D122CFFE0C0E0125FBCD0E0F0125F16
:105F0000C612672370051276D08003125FE7F0EEA9
:105F1000241AFE50010F050BE50BC3950950477479
:105F20000E122AB7AA087B007987123DFB05087478
:105F300018122CFF12602C7410122CFF125FD874F0
:105F40000E122CFF125FF3127716901E86E060048B
:105F500064017083125FD2125FFB740312600A74D3
:105F6000FF808A750900750A00780A122A4A781299
:105F7000122A467809122A4AE50EF5097809122AEA
:105F80004A7405122CFFE0FD7C00E5141264C6354E
:105F900015FBE5141264CB3515F583E0F91239874A
:105FA0007405122A59E51245136007AA12AB1312A1
:105FB000340B7425122A597F0E0226E9EE2419F5B6
:105FC00082E43FF58322EE2412F582E43F22126040
:105FD0000F22127734740222AC82AD83EE240AFAC7
:105FE000E43FFB12351922EE2414F582E43FF583D9
:105FF000740122126B4E12772AE822125FFF22F000
:10600000EE2416F582E43FF58322F012600F22EEB3
:106010002418F582E43FF58322125FFFE422F0EEBC
:106020002417F582E43FF5837402F022126B4E8E42
:10603000828F83E8F0A3E9F07C447D1CEE1264C6F5
:106040003FFB1235192212604BE022F0850C82854D
:106050000D83A3A3A3A32274F612245B74F9122A5E
:10606000ED1260CA127DF2851882851983122CE820
:106070008E828F83A3A3A3A3E0C0E07404122CFF3D
:10608000D0E0127B33F87405122CFF7401F0740613
:10609000122CFF7401F09017DDF09017E6041277D0
:1060A000C9FAA3E0FB9017DE125CB5E89017E7F0A1
:1060B000127B45E09017DCF0AA18AB19123D8FE96E
:1060C0006003123D95740702559F8A088B09127B65
:1060D0009435092274F212245B74FF122AED7508BC
:1060E000007E007F0012439B8A0A8B0B12623E8067
:1060F0000505081264D5E84970F7901E86E0600730
:10610000640160030261B412623E80031264D5E848
:1061100049602D88828983126566901C30E06A7020
:1061200003A3E06B600A1264DC126566EA4B70DC64
:1061300088828983126254E0687003A3E069607406
:106140007A167B00127AC5606B901C30126263E88D
:10615000127716901C25126E3EF0124509E98E82C8
:106160008F83A3A3A3A3A3F0901E60E08E828F83EE
:10617000A3A3A3A3A3A3F07C447D1CEE240B125F76
:10618000DFAA18AB19794112624AE060089017D370
:106190001264D8800478FE79FF8E828F83A3A3A334
:1061A000A3A3A3A3E8F0A3E912627312626B8E0AA1
:1061B0008F0B05089017E7E0F8E508C398500479BD
:1061C000008029E508C398F9C39406400279057850
:1061D00000800FE50A2414F582E4350B12625BF5AA
:1061E0000B089017E7E0FAE8C39A40E775090078D2
:1061F00009122A4A780A122A46E9F5097809122A68
:106200004A9017E7E0F5097809122A4AAD087C00A0
:106210007ADE7B179017DCE0F91239817405122AB7
:1062200059901E86E060046401700BEE4F6007EE2B
:10623000FAEFFB12340B123D957401027B7A124384
:106240009B8A0C8B0DA80CA90D22123B618518822C
:1062500085198322126B4E901C3022F583E0F50ADB
:10626000A3E022126B4E8A828B8322E50AF0A3E51B
:106270000BF022F0EE1277B12274F012245B74FF5F
:10628000122AED8A0A8B0B7E008E0E8E0F1263A4EB
:10629000350BF5831264EBFFAC18AD197A007B0067
:1062A000799D123DFB851882851983E0F8EFC3982C
:1062B000400302634EE0C39FFEC3940B40027E0A7C
:1062C000EE75F007A4FAABF01264BE8A0E8B0FEAEB
:1062D0004B6079750C00801A850882850983A3A319
:1062E000A3A3A37403F0E5082407F50850020509E9
:1062F000050CE50CC39E5056AC08AD09E50C2FFA11
:10630000E43400FB798B123DFB850882850983A369
:10631000A3A3A3A3E014600814601314601F80B843
:10632000850882850983A3A3A3A3A3E480B7850876
:1063300082850983A3A3A3A3A3740180A8850882EF
:10634000850983A3A3A3A3A3740280997E00750883
:10635000007808122A4A780E122A46EEF5087808C4
:10636000122A4AEFF5087808122A4A7405122CFFFF
:10637000E0FD7C00E50A1264C6350BFBE50A1264F9
:10638000CB350BF583E0F912398D7405122A59E5E6
:106390000E450F6007AA0EAB0F12340B7401122AC0
:1063A00059025488EA127B952274EE12245B74FE23
:1063B000122AED8A0C8B0D7510007511001263A462
:1063C000350DF5831264EBF50AAC18AD197A007B34
:1063D0000079A31240DD8518828519831264D8C321
:1063E000E50A98E4995020851882851983A80AE067
:1063F000C398FEA3E09400FFC3EE9404EF94004022
:10640000617E037F00805F7E00750B00EEF97508EA
:10641000007808122A4A7810122A46E9F508780806
:10642000122A4AE50AF5087808122A4A7405122C3D
:10643000FFE0FDAC0BE50C1264C6350DFBE50C125C
:1064400064CB350DF583E0F91239937405122A599E
:10645000E51045116007AA10AB1112340B7402024B
:106460007BCDEE4F60A3EEFAEFFBEA75F015A4FAD0
:10647000A8F075F015EBA4281264BD8A108B11EA00
:106480004B6032750B00750E00C3E50E9EE49F4015
:106490000302640CAC08AD09A80AE50E28FAE4343E
:1064A00000FB79A21240DDE5082415F5085002052D
:1064B00009050E80D4750BB5790002640EFB123409
:1064C000058A088B09222402FAE4221264CF2224CE
:1064D0000FF582E4221264DC126B4E22E82414F5DC
:1064E00082E439F58322125AEFA3A3125AEDE02277
:1064F00074F612245B74FF122AEDEAFEEBFF1267BA
:10650000111265668A82F583A3A3A3A3A3A3A3A301
:10651000E0F9123DB3E9851882851983F07508000A
:106520007808122A4A7401122AA78808890978086B
:10653000122A467508357509807808122A461265B0
:1065400049122A59740102559F7901126555FAE4DE
:106550003F12667322EE2402FCE43FFDEE240F227C
:106560008518828519831274F92274F412245B74DD
:10657000FA122AED1260CA1278B7EEFAEFFB123C5B
:1065800087E9600F12667AEEFAEFFB123513E964C1
:10659000017013901E86E070030266577401122C7E
:1065A000FFE4F0A380097401122CFFEEF0A3EFF0DA
:1065B000901E86E064027017850882850983A3A374
:1065C000126B3CE0687003A3E06960030266578EBB
:1065D000828F83A3A3A3A3A3A3A3A3E0FEA2E65059
:1065E000087403122CFF7401F0EEA2E75008740443
:1065F000122CFF7401F07405122CFFE4126933F0C1
:10660000F50A780A122A4A7401122AA7880A890B05
:10661000780A122A46750A34750B80780A122A46BF
:1066200012665C122A59908103122CD01244A37A6C
:10663000007B001244AF7A007B001244A97401125F
:106640002AAF123DE9EEA2E7400D7401122CFF12B1
:1066500067257003124A9774060254EA7901E50827
:106660002402FCE43509FDE508240FFAE43509129B
:10667000667322FB1238EB74052212447F8A0A8B60
:106680000BAC0AAD0B2274F612245B74FF122AEDD8
:10669000EAFEEBFF901E86E07011901E65E0700B25
:1066A0008A828B83A3A31267257063126711126419
:1066B000EBF50874FF650870037508FEA908123D24
:1066C000A1E9851882851983F01241E5E96005A9E1
:1066D00008123A59901E86E07005A908123A59EE40
:1066E000240B126B2970277508007808122A4A7447
:1066F00001122AA7880889097808122A46750836DF
:106700007509807808122A46126549122A590265CD
:1067100044EA126716222413F582E43FF58322F53A
:1067200082E438F583126B4EE84922C082C0839020
