:020000040000FA
:10000000021305022003FFFFFFFFFF02200BFFFF8B
:10001000FFFFFF020E67FFFFFFFFFF02201BFFFF36
:10002000FFFFFF022023FFFFFFFFFF02202BFFFF48
:10003000FFFFFF022033FFFFFFFFFF020EAAFFFFBB
:10004000FFFFFF022043FFFFFFFFFF02204BFFFFE8
:10005000FFFFFF022053FFFFFFFFFF02205BFFFFB8
:10006000FFFFFF022063FFFFFFFFFF02206BFFFF88
:10007000FFFFFF022073FFFFFFFFFF02207BFFFF58
:10008000FFFFFF022083FFFFFFFFFF02208BFFFF28
:10009000FFFF70DFFFFF040000000002000000C847
:1000A0000300030369A5020269A501000000000026
:1000B00004003273000074F812104C900393E06057
:1000C0001590030274FEF0900304744DF0A37405C0
:1000D000F07A0112068C7F0102116974F712104C3C
:1000E00074FF1212717E00801F851882851983E0CB
:1000F00064FE70069003877401F085188285198369
:10010000E0F8900384E068F07C017D00AA18AB1948
:10011000120E228B09EA450970030201F385188249
:10012000851983E064EF70027E07E0C0E0900387EA
:10013000E0FA900385E0F8EA28F8E43400F9740264
:1001400028F582740339F583D0E0F0900387E060EE
:100150009814600E14602C14603C14605214606893
:100160008098900384E4F0851882851983E09003D9
:1001700086F0C394809003874004E40200F974027F
:100180000200F9851882851983E0900382F09003BC
:100190008774030200F9851882851983E090038330
:1001A000F0900386E0601990038774040200F990D0
:1001B0000385E004F0F8900386E06860030200FA2B
:1001C00090038774050200F9900385E4F09003879B
:1001D000F0900384E0F8851882851983E068600355
:1001E0000200FA900382E0644D60030200FA1203F9
:1001F000288002EEF9740112123D7F020211697427
:10020000F712104C74FB121271EAFEEBFF75080432
:1002100075090078081212D574021212EE7A907BDA
:10022000007904120ECB740212123D12067E1213D4
:100230003FE0687003A3E069701285188285198316
:10024000E0F47003A3E0F4600302030874041212E4
:10025000E61206E48A088B09A808A9097402121399
:100260003FE8F0A3E9F0740412133FE0600879015D
:100270001200B6020321851882851983E068700395
:10028000A3E0697076851882851983E0F47003A372
:10029000E0F47019740212133F7410F0A37420F08C
:1002A0008518828519837410F0A37420F0750801F5
:1002B00075090078081212D574021212EE7A247BA6
:1002C00008120F4F740212123D75080478081212BA
:1002D000D574021212EE7A907B007904120ECB7460
:1002E0000212123D12067E12133FE0687003A3E073
:1002F000697004790280067904800279031200B6DD
:100300008E828F83741E80058E828F83E4F01206A6
:100310007E12133FE0687003A3E0697004790180E6
:1003200002790074050201F774E912104C74F81296
:100330001271900307E0FA900306E0F9FEEAFCE48C
:10034000CCFDEE2CED3408FF751001750F00750E15
:10035000068E088F097402780812129CC39508FC57
:10036000E49509FD74022CF51474033DF515E514AC
:100370002497F516E5153420F517EE2410F508E45A
:100380003FF509EEF50CEF5401F50D8E128F137445
:100390000978121212F685120A900383E01460574E
:1003A00014700302046F1470030204E61460102436
:1003B000FE70030205A11470030206510206617566
:1003C0000E03794E120C619003071206747402F04A
:1003D000A374401206727408120672F0A3F0741827
:1003E000C3940704F510AA10A90F12068CA90E7465
:1003F0000812123D02083E750E04794E120C61EE91
:10040000450D7005A90A120FB5C3EE9425EF9408A7
:10041000503FC3E5089424E50994084034E51424CA
:1004200096F8E5153420F988828983E0701E8516D8
:1004300082851783E070159003887401F0888289A3
:100440008374A5F08516828517838004900388E461
:10045000F075081075090078081212D57C087D0324
:10046000EEFAEFFB120F4F740212123D0203E67513
:100470000E05C3E50A947995E04006750F01020365
:10048000E675104075110078101212D57C097D03B5
:100490007402780C12129CAA0CAB0DA90A120ECB96
:1004A000740212123D900307E0A3F0900306E0A34C
:1004B000F0751043C3EE9425EF940840030203E661
:1004C000C3E5089424E509940850030203E6900369
:1004D00088E070030203E6A816A91788828983E4DE
:1004E000F0A3F00203E675080475090078081212FB
:1004F000D574021212EE7A907B007904120ECB743E
:100500000212123D740212133FE0F8A3E0F98518BD
:1005100082851983E0687003A3E0698518828519D4
:1005200083700BE0F47003A3E0F470578009E0F4EB
:100530007003A3E0F4700D8518828519837410F0A0
:10054000A37420F012067E12133FE8F0A3E9F075C1
:10055000080178081212D574021212EE7A247B0870
:10056000120F4F740212123D75080478081212D54A
:1005700074021212EE7A907B007904120ECB740290
:1005800012123D12067E12133FE0687003A3E06969
:100590007006750E010203E6750E02750F07020361
:1005A000E6900391E06007640260030203E6EAFF5D
:1005B0007A01790012068CE060030206458003127E
:1005C0000D22120D2CE970F7740412133F12066607
:1005D000740412133F780812132385080C85090D43
:1005E000850A0E850B0F9005A2780C1212C27404B6
:1005F00012133F780C121314E5084509450A450B00
:1006000070CE8EC2E5C554E04FF5C5740412133F99
:10061000120666740412133F780812132385080C1F
:1006200085090D850A0E850B0F9005A2780C121214
:10063000C2740412133F780C121314E508450945DF
:100640000A450B70CE7A01790012068C79080203F4
:10065000EFE9900393F070030203E6750E090203BD
:10066000E679060203EFE4F0A37426F0A3E4F0A316
:10067000F022F0A3E4F0A3F0A3F0A3F0A3228518E6
:1006800082851983E0F8A3E0F974022274F812104D
:100690004CEAFE900305E0D2E7F0E9A3F0EE900308
:1006A00003F08E0874042AFE7C028004E062080CC9
:1006B000ECFA3395E0FB74022AF58274033BF58370
:1006C000EEF8C3EA98EB9400A2D265D03340DDE5A2
:1006D00008F074012A0C3395E0FD7A027B03120EB8
:1006E000520200D674E912104C7582007583FE1216
:1006F00012048A168B177514007515008A828B8375
:10070000E4F0900391E07006D2AAD2AF80046402B4
:10071000700579001200B6750C00750D20750E007D
:10072000750F00900391E0600464027015120D22B1
:100730001200DBE9F87409686003020814790012FA
:1007400000B675080075090278081212D5740212F5
:1007500012EE850C08850D09AA08E5095407FB85EA
:100760000E0A850F0B740B7808121258A908120E86
:10077000CB740212123D7E007F009005AAC0828ECB
:1007800010EFF5113395E0F512F513850C08850D82
:1007900009850E0A850F0B780879101212AF9005A3
:1007A000A678081212C2758305D08278081211E566
:1007B000501D851882851983E5822EF582E5833FD9
:1007C000F583E0F9AA14AB151208438A148B150EB1
:1007D000EE70010FC3EF940240A09005AE780C12AA
:1007E00012C29005B2780C1211E54003020723797A
:1007F00000AA14AB1512084379001208438B159018
:100800000391E07004C2AFC2AAEA451570277AA529
:100810007BA58021E870030207427406687003021A
:1008200007427407687003020742851682851783A2
:100830007401F080BA7582007583021212047F1071
:10084000021169C008C0097C088A088B09740F78F6
:10085000081212F6E508F8EA25E0FAEB33FBE9A204
:10086000E7500474014AFAE8A2E0500874216AFAD9
:1008700074106BFBE9C333F91CEC70CDD009D008C0
:100880002274F812104C78007900802274942EF5AE
:1008900082E43403F583E08A828B83F0900414129F
:1008A0000A014005900414E4F008E870010990047E
:1008B00014E0FEA3E06E6007C3E89CE99D40CDE82C
:1008C000FAE9FB7F0102116974F712104C90049849
:1008D000E0F509A3E0F508F8E509C398F895E0F913
:1008E000E508C39509E8500B120AE3701178007906
:1008F00000801B247F500109C39CE99D50EF7A00C2
:100900007B008041E004F0D2E908E8700109C3E807
:100910009CE99D502C8A828B83E0C0E0900499E092
:10092000FE74182EF582E43404F583D0E0120AD365
:1009300090049AE4F0900499E0C3947F40C6E48068
:10094000C5E8FAE9FB7F02021169C082C083C2E9EF
:10095000900498E0F8A3E0686017741828F582E422
:100960003404F583E0F5C1900498120AFA4002E4D9
:10097000F0020D4074F812104C7800790090051DBB
:10098000E07055A3E0705175F900C28FC284A28354
:1009900040FCA28F4004A28350F8AEF9C28FA2831C
:1009A0005004D2848032EEC0E0E0FE1209F6D0E0BE
:1009B000F090051E120AFA40D9E4F080D51209F62B
:1009C000E08A828B83F090051D120A014005900594
:1009D0001DE4F008E870010990051DE0FEA3E06E3B
:1009E0006007C3E89CE99D40D4E8497006E4F090B4
:1009F000051DF00208BF749D2EF582E43404F583D2
:100A000022E004120AD7C394802274F812104C908A
:100A100005A0E0FEF890059FE0FFEEC39FE0500DBB
:100A2000C398F895E0F9120AE270188012C398F89A
:100A300095E0F9E8247F500109C39CE99D4004EC4E
:100A40004D70077A007B00020AD08A828B83E0F522
:100A5000F9A3AA82AB83780179008008E004F0084A
:100A6000E8700109C3E89CE99D50278A828B83E0E6
:100A7000C0E09005A0E0FE741F2EF582E43405F579
:100A800083D0E0120AD39005A0E0C3947F40CDE468
:100A900080CCC28FA28340FCC284A28F4004A28378
:100AA00050F890059F120AEDE0F5F9C28F90059F6E
:100AB000E0FAA3E06A90059F7005120AED80051226
:100AC0000AFA4002E4F0A28350D0D284E8FAE9FBAB
:100AD0000208C3120AD722F08A828B83A3AA82ABB0
:100AE0008322E824FF18E934FFF9E84922E0FA7488
:100AF0001F2AF582E43405F58322E004F0C39480D4
:100B00002274FB121271C2009005CA7808121323D6
:100B10009005CA7401F0A3F0A37469F0A374A5F062
:100B20009005B678081212877004D20080159005DF
:100B3000BA78081212876008E59D54186410700393
:100B4000022000120C87A2005003020C04AA18AB6A
:100B5000191201FFE97003020C04851882851983BC
:100B6000E0C3943C500CE0F8743CC398FA95E0FB69
:100B700080047A007B00120D45E97003020C04909A
:100B80000391E06401700C75F800C2AB539AF7D280
:100B9000EA805E79071200B68003120D22120D2C36
:100BA000E970F7740112133FE4F0A37426F0A3E494
:100BB000F0A3F0740112133F780812132385080C78
:100BC00085090D850A0E850B0F9005A2780C12126F
:100BD000C2740112133F780C121314E5084509453D
:100BE0000A450B70CE758600C2AAC28B539AFBC20F
:100BF000E990000174CDF0022000C2AF75C9AB7559
:100C0000C95B80FE750800750900750A00750B0048
:100C1000900391E0701BD2AAD2AF79051200B6E022
:100C20007003120D221200DBE9F874096870098064
:100C3000E9794E120C6180ED74016870E2E0701782
:100C4000120D229005BE78081212C29005C27808D3
:100C50001211E550EBC2AAC2AF75C9AB75C95B8072
:100C6000FEC082C08378109005A1E0C3995015752D
:100C7000B60FE5B4A2E750FAE5BBC39940F118E816
:100C800070EDE9F0020D40C082C08353BEFBE59DCC
:100C9000A2E650FA0078F8790100120AE270FA75BB
:100CA000C6807480659E70FA43BE049062707408BA
:100CB000F0794A120C6190000174F5F07403F5D5D7
:100CC00075D489A2A0E433900391F0A2E05029D218
:100CD0008453F3F753F3EF53FDF743FD10538FF7AE
:100CE00053F7DF43FC2043F10253F5DF75F820434F
:100CF000F4F0D2FED2AB802853FF3F85FFFF53F1C3
:100D0000FE43F30C53F2F375868075C48090049B08
:100D1000E4F0A3F075C2D875C50B75C402438640D4
:100D2000801E800312094AA2E940F922C082C083D2
:100D3000900498E0F8A3E0686004790180027900EB
:100D4000D083D0822274F112104C74FF1212717E83
:100D500000900391E06401706CC28490039274016E
:100D6000F07508388E098E0A8E0B7C017D00AA185A
:100D7000AB19120E228B0DEA450D6018851882857D
:100D80001983E06410602DE064EF70088E088E090E
:100D90008E0A8E0B85080C85090D850A0E850B0FB2
:100DA0009005A278081212C2E50C450D450E450FBC
:100DB00070347E01900391E064017056D2849003F8
:100DC00092E4F08051D2AAD2AF8A088B09E4F50AE6
:100DD000F50B9005C6780C1213237808790C120FC6
:100DE000CC79061200B6900391E06003020D6A12FE
:100DF0000D221200DBE9F874096870077906120009
:100E0000B680917407686084E8608974066870A48D
:100E10008082C2AFC2AAEEF9740112123D7F0802AD
:100E20001169C082C083900391E07005120881802F
:100E30001E900392E06015A28F500BE5F98A828B19
:100E400083F07A0180027A007B0080031209740229
:100E50000D40C082C083900391E070051208C880E5
:100E600003120A0A020D40C0E074F21210B29000A0
:100E700001E064CD7005122013802AE064F570242F
:100E8000E5C1C28BC0E0900415E0F8749428F582A7
:100E9000E43403F583D0E0F0900415120AFA40051B
:100EA000E4F08001007F01021111C0E074F2121021
:100EB000B2900001E064CD700512203B800BE0642D
:100EC000F5700512094A80010080DA74F612104CA0
:100ED000890A740F550AF508750900740B78081211
:100EE000129CEA2400F8EB3480F9E82400E9350983
:100EF000F985C709A2AFE433F508C2AFE50AC454C7
:100F00000FFAE5C754F84AF5C7740A12133FE0FA1E
:100F1000A3E0FB801C88828983E08C828D83F0882B
:100F2000828983A3A882A9838C828D83A3AC82AD9E
:100F300083EAFEEBFFEE24FF1AEF34FFFBEE4F7067
:100F4000D48509C7E508A2E092AF7F030211697456
:100F5000F712104CED900389F0ECA3F0A37462F04B
:100F6000A37473F0A3E0541FF0740912133FE0F56B
:100F700008A3E0F509E508333354FC90038EF074C0
:100F80000678081212F6E50890038DF090038F742E
:100F900012F0A37442F075D1FE75D601EA90627129
:100FA000F0EBA3F0906270E0D2E1F0E0A2E740FB4A
:100FB0007F02021169C082C083E9C333906272F07C
:100FC000906270E0D2E0F0D083D08222080808EA74
:100FD000C0E0EBC0E086F0E7A4FA180986F0E7A4C9
:100FE0002AFA180986F0E7A42AFA180986F0E7A475
:100FF0002AFA1986F0E7A4FBE5F02AFA190886F028
:10100000E7A42BFBE5F03AFA190886F0E7A42BFBDE
:10101000E5F03AFA18180986F0E7A4C5F02BFBE4CE
:101020003AFA1908E7C5F0C6A426F6E5F03BFBE45A
:101030003AFA1886F0E7A4F6E5F00826F6E43B084D
:10104000F6E43A08F6D0E0FBD0E0FA222518C58293
:10105000C0E0E51934FFC583C0E0E518C3958224DC
:10106000F910AF0885831985821880088583198552
:101070008218D2AFCEF0A3E520F0A37808E608F0FE
:10108000A3DEFAEFF0A3E58124FBF8E608F0A3E67F
:1010900008F0A30808E608F0A3E608F0A3158115F8
:1010A00081D0E0FED0E0F815811581E8C0E0EEC007
:1010B000E022C0D02518C582C0E0E51934FFC58301
:1010C000C0E0E518C3958224F310AF088583198525
:1010D00082188008858319858218D2AFC8F0A3E9E9
:1010E000F0A3EAF0A3EBF0A37908E709F0A3D8FA9C
:1010F000ECF0A3EDF0A3EEF0A3EFF0A3D0E0F0A3AB
:10110000D0E0F0A3D0E0F0A3E520F0A3E5F0F0A359
:1011100022851983851882E0C0E0A3E0F9A3E0FAF4
:10112000A3E0FBA37808E0F608A3DFFAE0FCA3E065
:10113000FDA3E0FEA3E0FFA3E0C0E0A3E0C0E0A3C6
:10114000E0F5D0A3E0F520A3E0A3F5F010AF08850B
:1011500083198582188008858319858218D2AFD0BB
:1011600082D083D0E0F8D0E032851983851882E000
:10117000A3FEE0A3F5207808E0A3F608DFFAE0A3D9
:10118000FFE0A3C0E0E0A3C0E0E0A3C0E0E0A3C0B4
:10119000E010AF088582188583198008858218853C
:1011A0008319D2AFD083D08222E490030278A17950
:1011B000038002F0A3D8FCD9FA7AA27B0590008EB6
:1011C000782979018015E493A3AD82AE838A828B5E
:1011D00083F0A3AA82AB838D828E83D8E9D9E712EC
:1011E0000B01121349C008C3E096F50808A3E09666
:1011F000420808A3E096420808A3E096450870015B
:10120000D3D00822C5822518C582C583351910AFF1
:1012100007F5198582188007F519858218D2AFC5A0
:1012200083222518F58210AF08F518400C15198097
:1012300008F51840021519D2AF8519832200C0D0D5
:10124000251810AF08F518500C05198008F518502E
:10125000020519D2AFD0D0226016080808C6C31301
:10126000C618C613C618C613C618C613C6D5E0EAF4
:1012700022251810AF08F518400C15198008F5182C
:1012800040021519D2AF22E066701008A3E0667024
:101290000A08A3E066700408A3E0662270042260D6
:1012A0000D18C6C333C608C633C6D5E0F41822E607
:1012B00027F60809E637F60809E637F60809E6379B
:1012C000F622E026F608A3E036F608A3E036F60894
:1012D000A3E036F62274028000C0E0F40412122269
:1012E000D0E0121332222518FAE43519FB22251812
:1012F000FCE43519FD22600C08C6C313C618C613DA
:10130000C6D5E0F42275D00075813F7518027519B5
:10131000030211A9E6F008A3E6F008A3E6F008A38B
:10132000E6F022E0F608A3E0F608A3E0F608A3E062
:10133000F622CAC0E0E6F0A308DAFAD0E0FA2225E5
:1013400018F582E43519F5832200000080FBFFFFC9
:10135000FFFFFFFFFFFFFFFFFFFFFFFFFFFFFFFF9D
:10136000FFFFFFFFFFFFFFFFFFFFFFFFFFFFFFFF8D
:10137000FFFFFFFFFFFFFFFFFFFFFFFFFFFFFFFF7D
:10138000FFFFFFFFFFFFFFFFFFFFFFFFFFFFFFFF6D
:0A1FF600CA05094338860000000008
:020000040003F7
:01FFF000F020
:020000040000FA
:10200000022C7E02221BFFFFFFFFFFFFFFFFFFFFEF
:10201000FFFFFFFFFFFFFFFFFFFFFFFFFFFFFFFFD0
:10202000FFFFFFFFFFFFFFFFFFFFFF022A0AFFFF87
:10203000FFFFFFFFFFFFFFFFFFFFFFFFFFFFFFFFB0
:10204000FFFFFF022779FFFFFFFFFFFFFFFFFFFFFB
:10205000FFFFFF022155FFFFFFFFFFFFFFFFFFFF15
:10206000FFFFFFFFFFFFFFFFFFFFFF022924FFFF2E
:10207000FFFFFFFFFFFFFFFFFFFFFFFFFFFFFFFF70
:10208000FFFFFF0221AC01FFFFFFFFFFFFFFFFFF8C
:10209000102010200100F0FF0700080000FFFF00E3
:1020A00000030400000F0100000300019651180016
:1020B000020000F9310000000063317732C931417C
:1020C0003200008D31000000000000000000009987
:1020D0003100000000000000000000A53106FFFFF5
:1020E000FF01040200000618000000E8030000FFE2
:1020F000FFD518018813000003E8030000640064A2
:1021000000B801A0BB0D00A0BB0D00020202070435
:10211000010101051E02051E020A0A010108090843
:102120000103B80B02803E0102FEFFE8030A05002E
:1021300001FFFF020A011401E00105030101FF0F85
:1021400010FEFF3A4E00000000704D00000000FF3E
:10215000000000FF00C0E074F2122596A2AFE43345
:10216000F508D2AFAFA7AEA1EE5F54106006122EF5
:10217000E175A1EFEE5F54086008122EE775A1F734
:102180008023EEA2E092F0EFA2E082F0501790617F
:1021900098E0F890093BE0C398A2D265D033500292
:1021A000E8F075A1FE751A00E5088066C0E074F2DB
:1021B000122596A2AFE433FED2AF9061A4E0F87589
:1021C0009B00E59158540860087591F7122F3580EF
:1021D00023E59158541060087591EF122F3B80143D
:1021E000E591A2E092F0E8A2E082F05007E0C2E0C0
:1021F000F01230919061A3E0F8E5E9585404600EC4
:1022000012306775E9FB906193E0A2E640F2751A1F
:1022100000EEA2E092AF7F010225F5C0E074F21259
:102220002596A2AFE433FED2AF9061A5E0F8E5BFFA
:10223000585404600675BFFB1230A980D1C3E498DE
:10224000F8E499F912227E8026C3E49AFAE49BFB13
:10225000E920E7E912227EE498F8E499F922C3E440
:1022600098F8E499F912227EE498F8E499F9C3E425
:102270009AFAE49BFB22EB20E7CFE920E7E0B900E4
:1022800010BB0008E88AF084F8AAF022E4FBC8FA40
:1022900022EB70227B10C833C8C933C9335007C33F
:1022A0009AC3DBF280069A50012ADBEAC833F4C8ED
:1022B000C933F4C9FA2275F008E4C833C8C933C970
:1022C00033C99AC99B5004C92AC93BD5F0ECFBC855
:1022D00033F4C8E4C9FA2274F512253074FA122ACC
:1022E000F17508047509007808122A4A7404122A44
:1022F000BB7AF87B077903122DBB7402122A5D901A
:10230000810F7808122CAC7402122D037808122B5E
:102310001C70487508027509007808122A4A740270
:10232000122ABB7AF67B077903122DBB7402122A9C
:102330005D851882851983E0F47003A3E0F4601BC7
:10234000851882851983E0F8A3E08882F5837402FA
:10235000F0A3F0A37469F0A374A5F0C2AF75D69F83
:102360000200007406122A5D7F040227BC080808D8
:10237000EAC0E0EBC0E086F0E7A4FA180986F0E7CF
:10238000A42AFA180986F0E7A42AFA180986F0E7C1
:10239000A42AFA1986F0E7A4FBE5F02AFA190886C0
:1023A000F0E7A42BFBE5F03AFA190886F0E7A42B36
:1023B000FBE5F03AFA18180986F0E7A4C5F02BFB04
:1023C000E43AFA1908E7C5F0C6A426F6E5F03BFBA7
:1023D000E43AFA1886F0E7A4F6E5F00826F6E43BBE
:1023E00008F6E43A08F6D0E0FBD0E0FA22E4CFC0E9
:1023F000E0E4CEC0E0E4CDC0E0E4CCC0E075F02085
:10240000E626F608E633F608E633F608E633F6186D
:102410001818EC33FCED33FDEE33FEEF33FFC3EC65
:102420009709ED9709EE9709EF97191919400FFFD2
:10243000EC97FC09ED97FD09EE97FE191906D5F00A
:10244000BFECF709EDF709EEF709EFF7191919D005
:10245000E0FCD0E0FDD0E0FED0E0FF222518C582F0
:10246000C0E0E51934FFC583C0E0E518C3958224B8
:10247000F810AF088583198582188008858319852F
:102480008218D2AFCEF0A3E520F0A37808E608F0DA
:10249000A3DEFAEFF0A3E58124FAF8E608F0A3E65C
:1024A00008F0A3E608F0A30808E608F0A3E608F0A1
:1024B000A315811581D0E0FED0E0F81581158115B6
:1024C00081E8C0E0EEC0E022122CF8B9000302253A
:1024D0001AE49004D1781C791A8002F0A3D8FCD9B0
:1024E000FA781A9020867A01BA00028007E493A352
:1024F000F608DAF97AEC7B1D90209478C279018095
:1025000015E493A3AD82AE838A828B83F0A3AA8263
:10251000AB838D828E83D8E9D9E77582C075838BB2
:1025200074071229EC75826D75834B74001229ECC7
:102530002518C582C0E0E51934FFC583C0E0E51861
:10254000C3958224F910AF08858319858218800805
:10255000858319858218D2AFCEF0A3E520F0A37849
:1025600008E608F0A3DEFAEFF0A3E58124FBF8E625
:1025700008F0A3E608F0A30808E608F0A3E608F0D0
:10258000A315811581D0E0FED0E0F815811581E812
:10259000C0E0EEC0E022C0D02518C582C0E0E51939
:1025A00034FFC583C0E0E518C3958224F310AF085B
:1025B0008583198582188008858319858218D2AF92
:1025C000C8F0A3E9F0A3EAF0A3EBF0A37908E709C8
:1025D000F0A3D8FAECF0A3EDF0A3EEF0A3EFF0A394
:1025E000D0E0F0A3D0E0F0A3D0E0F0A3E520F0A38A
:1025F000E5F0F0A322851983851882E0C0E0A3E00E
:10260000F9A3E0FAA3E0FBA37808E0F608A3DFFA59
:10261000E0FCA3E0FDA3E0FEA3E0FFA3E0C0E0A395
:10262000E0C0E0A3E0F5D0A3E0F520A3E0A3F5F03F
:1026300010AF0885831985821880088583198582E3
:1026400018D2AFD082D083D0E0F8D0E032E4730566
:1026500075F0108E218F228582268583258518822C
:10266000851983E0CEA3E0CF852682852583EBC93B
:10267000EAC8EDCBECCAC3E833C8E933C9EA33CAC8
:10268000EB33CBC3EA9EF524EB9FF523B35004ABA9
:1026900023AA24EC33CCED33CDD5F0DAAE21AF2232
:1026A00022D083D082ECC0E0EDC0E0E493A3FCE450
:1026B00093A3FDED4C600D1227FCEC24FFFCED34E0
:1026C000FFFD80EFE493A3FCE493A3FDED4C600DCC
:1026D0001228CFEC24FFFCED34FFFD80EFD0E0FDAD
:1026E000D0E0FCE493A3C0E0E493C0E0228519832A
:1026F000851882E0A3FEE0A3F5207808E0A3F608A1
:10270000DFFAE0A3FFE0A3C0E0E0A3C0E0E0A3C0E5
:10271000E0E0A3C0E0E0A3C0E010AF088582188528
:1027200083198008858218858319D2AFD083D0821F
:102730000229F2D083D082E9C0E0E493A3C386F0FB
:10274000C5F095F0F908E493A386F0C5F095F07014
:102750000BE493A3C3994005E9048002A3E475F058
:1027600002A42582F582E5F03583F583D0E0F9E413
:1027700093A3C0E0E493C0E022C0E074F212259677
:10278000A2AFE433FED2AFC2C0901A86E0700BE570
:10279000D1A2E4501D122E3F8018E5D1A2E35006CD
:1027A00075D1F7122E15E5D1A2E4500675D1EF12BE
:1027B0002E1BEEA2E092AF7F010225F585198385DD
:1027C0001882E0A3FEE0A3F5207808E0A3F608DF76
:1027D000FAE0A3FFE0A3C0E0E0A3C0E0E0A3C0E014
:1027E000E0A3C0E010AF08858218858319800885B2
:1027F0008218858319D2AFD083D08222C0E0C3E48F
:102800009396087401939618400FE4936670080835
:10281000740193661870007019A3A3C3E49396081B
:102820007401939618A3A3400DD0E0D0E0D0E0024D
:1028300026DDA3A3A3A3A3A3D0E022D083D082C587
:10284000F0E493A3C5F0C395F0F5F0E493A3C3952A
:10285000F04005E5F0048001E475F002A42582F55E
:1028600082E5F03583F583E493A3C0E0E493C0E010
:10287000227404800474028000CCC0E0EDC0E0E566
:1028800018C39CCCAD1950011D10AF068C188D19C2
:1028900080068C188D19D2AF12296ED0E0FDD0E0E1
:1028A000FC2274028000CCC0E0EDC0E0E518C39CBF
:1028B000CCAD1950011D10AF068C188D1980068CF7
:1028C000188D19D2AF12294CD0E0FDD0E0FC22C007
:1028D000E0C0F088F0E4936670080874019366180D
:1028E0007000A8F0A3A3700BD0F0D0E0D0E0D0E04F
:1028F0000226DDA3A3D0F0D0E022D083D082CCC0CA
:10290000E0E493A360061229AE1470FAE493A36086
:1029100006122ADB1470FAD0E0FCE493A3C0E0E4D2
:1029200093C0E022C0E074F2122596758900C2C5FA
:10293000901A86E0700E7A007B109009D1E0F912AF
:1029400033A38003123C317F010225F5CAC0E0E4C5
:1029500093A3C582CCC582C583CDC583F0A3C582B0
:10296000CCC582C583CDC583DAE5D0E0CA22CAC012
:10297000E0E0A3C582CCC582C583CDC583F0A3C5E5
:1029800082CCC582C583CDC583DAE6D0E0CA22C039
:1029900008C3E096F50808A3E096420808A3E0966D
:1029A000420808A3E09645087001D3D00822C0E091
:1029B000E493A3D39C5010E493A3C39C400AD0E0BB
:1029C000D0E0D0E0022917A3A3A3D0E02270090829
:1029D0000808226016181818C6C333C608C633C6BE
:1029E00008C633C608C633C6D5E0EA22C09FF59FA5
:1029F000E473D09F22D083D082C09FE493C0E07460
:102A00000193C0E0740293F59F22C0E0C0D0E8C0FB
:102A1000E0A8A8D2AFC2C7751A00E8A2E792AFD06B
:102A2000E0F8D0D0D0E0322518F58210AF08F518C4
:102A3000400C15198008F51840021519D2AF8519F8
:102A400083227404800A7403800674028002740175
:102A5000C0E0F404122A27D0E0122CBB2200C0D020
:102A6000251810AF08F518500C05198008F51850F6
:102A7000020519D2AFD0D022BB0102E722C082C02A
:102A80008389828A83BB0003E08002E493D083D0F1
:102A900082226016080808C6C313C618C613C618D3
:102AA000C613C618C613C6D5E0EA222518F8E435C1
:102AB00019F9222518FAE43519FB222518FCE4350A
:102AC00019FD22C3E0C696F608A3E0C696F608A351
:102AD000E0C696F608A3E0C696F622C0E0E493A30B
:102AE0006C7009D0E0D0E0D0E0022917A3A3D0E0B9
:102AF00022251810AF08F518400C15198008F51894
:102B000040021519D2AF22E76670100809E7667017
:102B10000A0809E76670040809E76622E066701093
:102B200008A3E066700A08A3E066700408A3E066E4
:102B300022C3E09608A3E09608A3E09608A3E096D7
:102B4000A2D265D03322C3E096F008A3E096F00845
:102B5000A3E096F008A3E096F022C3E697F60809F2
:102B6000E697F60809E697F60809E697F622C3E421
:102B700093960874019396087402939608740393CD
:102B80009622E627F60809E637F60809E637F6083A
:102B900009E637F622E026F608A3E036F608A3E0B9
:102BA00036F608A3E036F622E493F608740193F6AD
:102BB00008740293F608740393F622E647F60809B0
:102BC000E647F60809E647F60809E647F622E6571B
:102BD000F60809E657F60809E657F60809E657F633
:102BE00022E056F608A3E056F608A3E056F608A33E
:102BF000E056F622E056F008A3E056F008A3E056AF
:102C0000F008A3E056F022E026F008A3E036F00832
:102C1000A3E036F008A3E036F022700422600D181D
:102C2000C6C333C608C633C6D5E0F41822E4C3963B
:102C3000F608E496F608E496F608E496F622C6F45A
:102C4000C608C6F4C608C6F4C608C6F4C622600D97
:102C500008C6A2E713C618C613C6D5E0F322C3E719
:102C6000960809E7960809E7960809E79622C3E05F
:102C70009608A3E09608A3E09608A3E0962275D0F4
:102C80000075813F7518D1751904000224C8600CC5
:102C900008C6C313C618C613C6D5E0F422E6F0086A
:102CA000A3E6F008A3E6F008A3E6F022E0F608A306
:102CB000E0F608A3E0F608A3E0F622CAC0E0E6F0DA
:102CC000A308DAFAD0E0FA22EAF0A3EBF0A3ECF0E2
:102CD000A3EDF022E0FAA3E0FBA3E0FCA3E0FD22D9
:102CE000E0F8A3E0F9A3E0FAA3E0FB22E8F0A3E90F
:102CF000F0A3EAF0A3EBF022E5C754F84401F5C7CE
:102D00007901222518F582E43519F583221229F577
:102D10007AD1051229F5BFD1051229F54FD2051236
:102D200029F5A7D2051229F589D3051229F56ED404
:102D3000051229F5B3D4051229F514D5051229F584
:102D4000A0D5051229F5CCD5051229F517D60512FF
:102D500029F53DD6051229F5D5D6051229F57ED7D8
:102D6000051229F5D1D7051229F502D8051229F542
:102D700039D8051229F5DDD9051229F5A9DA051288
:102D800029F55CDB051229F5FA95071229F50B9652
:102D9000071229F5A996071229F5F1FF011229F565
:102DA000E4FF041229F5C196071229F5D1960712FE
:102DB00029F5E696071229F57797071229F5F89471
:102DC000071229F57B95071229F5E195071229F5D8
:102DD000EEFF011229F5DE7F001229F5EE7F0012C9
:102DE00029F5F17F001229F5F47F001229F5F87F0B
:102DF000001229F5BE89071229F5E089071229F585
:102E0000398B071229F5BD8B071229F5C5FF011271
:102E100029F5CEFF011229F5D7FF011229F5E5FFAB
:102E2000011229F528BC061229F594BC061229F5D1
:102E30005CBD061229F53DBE061229F53AC0061200
:102E400029F5A1C0061229F5F4C0061229F505C11D
:102E5000061229F515C1061229F587C1061229F5B2
:102E60009DC1061229F5A8C1061229F5B6C10612A0
:102E700029F5C8C1061229F5DBC1061229F507C2DA
:102E8000061229F589C4061229F5E0C4061229F5AF
:102E900020C5061229F534C5061229F54DC50612BE
:102EA00029F53EC6061229F5EFC6061229F503C715
:102EB000061229F55DFE061229F581FE061229F596
:102EC0009AFE061229F5CCFE061229F5FCFE061222
:102ED00029F529FF061229F533FF061229F595FF7A
:102EE000061229F5A4FF061229F5AEFF061229F5F0
:102EF000BBFF061229F50A80071229F52A8007125E
:102F000029F56980071229F58480071229F5A38025
:102F1000071229F50981071229F51281071229F5EF
:102F20006F81071229F57E81071229F5A281071208
:102F300029F56382071229F57082071229F581822B
:102F4000071229F5DE98071229F5F698071229F5D8
:102F50002299071229F589CC061229F5E3CD06122C
:102F600029F5F1CD061229F504CE061229F519CE60
:102F7000061229F52ECE061229F541CE061229F5A4
:102F8000B5CE061229F51ACF061229F5A2CF0612E0
:102F900029F51ED0061229F5E2D0061229F5F2D045
:102FA000061229F501D1061229F567FF051229F548
:102FB0008BFF051229F5B3FF051229F5DBFF05127A
:102FC00029F5AF82071229F5D682071229F5F58275
:102FD000071229F55D83071229F5E87C001229F50F
:102FE000017D001229F50D7D001229F5217D0012C9
:102FF00029F53F7D001229F5497D001229F5537D01
:10300000001229F5667D001229F5F37D001229F5DD
:10301000627E001229F5917E001229F5DF7E0012F2
:1030200029F52E7F001229F5497F001229F5537FDB
:10303000001229F5647F001229F5A77F001229F5F7
:10304000DB99071229F5269A071229F5C0A4061262
:1030500029F5EAA4061229F507A5061229F51AA5ED
:10306000061229F530A5061229F58EA5061229F5B6
:10307000C1A5061229F5B2A9061229F512AB06124E
:1030800029F545AB061229F58FAB061229F5ECACF4
:10309000061229F514AD061229F529AD061229F5F7
:1030A00039AD061229F57DAD061229F5D8AD061207
:1030B00029F5E8AD061229F56C90071229F58690DE
:1030C000071229F5AE90071229F5C790071229F5C6
:1030D000EB90071229F50991071229F520910712A3
:1030E00029F54E91071229F56991071229F587975D
:1030F000071229F5CD97071229F5AEF7061229F523
:10310000BEF7061229F5C5F8061229F5F9F80612D8
:1031100029F525F9061229F548F9061229F566F967
:10312000061229F5A0F9061229F509FA061229F561
:103130004BFA061229F58AFA061229F5BBFA06128D
:1031400029F5E6FA061229F52BE8061229F590E88A
:10315000061229F536E9061229F56DE9061229F558
:103160003DDC051229F5D4DC051229F503DF051233
:1031700029F573E1051229F5FFE2051229F56BE344
:10318000051229F5D6E6051229F521E8051229F5DB
:10319000C392071229F50E93071229F58BFD04122D
:1031A00029F59AFF041229F523B5061229F547B52A
:1031B000061229F586B6061229F51FB8061229F55A
:1031C000A3BA061229F5DABA061229F517C70612AC
:1031D00029F5D8C9061229F57DCA061229F5A9CA0A
:1031E000061229F5D7CA061229F50CCB061229F5C5
:1031F00034CB061229F594CB061229F5F08C061271
:1032000029F5D790061229F5C692061229F5EF93F3
:10321000061229F5CF94061229F57D96061229F596
:103220002798061229F5F798061229F54B990612E8
:1032300029F55785071229F56185071229F5828539
:10324000071229F5DEE9051229F5F3EE051229F535
:1032500038F0051229F5F4F1051229F5F1F20512FD
:1032600029F521F4051229F539F5051229F519F684
:10327000051229F5409C051229F5789C051229F5BF
:103280009EA6051229F572A7051229F5BEA80512FA
:1032900029F507AA051229F5BDAA051229F591AB52
:1032A000051229F578AC051229F560AD051229F54E
:1032B00002AE051229F52CAE051229F5DCAF051278
:1032C00029F54CB0051229F565B0051229F5BCB1F8
:1032D000051229F56DB2051229F5EFB2051229F58F
:1032E0009BB3051229F50BB4051229F5A7B40512F5
:1032F00029F51EB5051229F556B5051229F558B65A
:10330000051229F517B7051229F5BDB7051229F5DC
:10331000AC8D071229F5CC8D071229F5E18E071225
:1033200029F5E48E071229F53B98071229F58298B2
:10333000071229F5C498071229F5D498071229F520
:1033400077F9031229F5B5F9031229F51EFA0312CC
:1033500029F53BFA031229F554FA031229F506FB65
:10336000031229F50FFB031229F554FB031229F56B
:103370008AFB031229F5A1FB031229F513FC0312A2
:1033800029F5A0FC031229F5D6FC031229F52DFD21
:10339000031229F591FD031229F5B4FD031229F555
:1033A00018FE031229F574FE031229F5AFFE03126D
:1033B00029F5E4FE031229F5F6FE031229F508FFAC
:1033C000031229F540FF031229F58CFF031229F59A
:1033D000CAFF031229F515D6061229F555D706128C
:1033E00029F578D7061229F589D7061229F57ED94D
:1033F000061229F59ED9061229F58787071229F5A5
:10340000BB87071229F50388071229F55F89071280
:1034100029F5A9EB021229F5DAEC021229F514EDCF
:10342000021229F5D3EE021229F5FDEE021229F55A
:103430008AF1021229F5CAF1021229F561F302128A
:1034400029F5F4F3021229F54CF4021229F5EFF4F0
:10345000021229F527F5021229F569F5021229F55C
:10346000D8F6021229F52AF8021229F54DFA0212AD
:1034700029F57BFA021229F5A2FA021229F5ABFA14
:10348000021229F5FBFA021229F58DFB021229F529
:103490007DFE021229F500FF021229F54DFF0212EE
:1034A00029F563FF021229F56DFF021229F5C7FF06
:1034B000021229F593DF061229F5A9DF061229F574
:1034C0004EE0061229F58DE0061229F5AAE0061253
:1034D00029F5DBE0061229F528E1061229F55BE162
:1034E000061229F596E1061229F582E3061229F55E
:1034F000E3E3061229F59C91071229F5FB910712C7
:1035000029F55592071229F5E593071229F55794E5
:10351000071229F59594071229F5D694071229F573
:10352000F1F7011229F5F7F7011229F53DF801121B
:1035300029F52FFA011229F59EFA011229F56CFBE3
:10354000011229F5ADFB011229F5DBFB011229F56A
:1035500065FC011229F57CFC011229F589FC011298
:1035600029F593FC011229F52FFE011229F53FFFE1
:10357000011229F588FF011229F5F0F6051229F547
:1035800006F7051229F599F7051229F5C5F8051270
:1035900029F5BAF9051229F557FA051229F597FA0E
:1035A000051229F515FB051229F572FB051229F5FF
:1035B00082FB051229F5A9FB051229F5FCFB051272
:1035C00029F56DFD051229F572FD051229F592FD0B
:1035D000051229F524DD031229F556DD031229F51C
:1035E000EFDD031229F53DDF031229F516E0031282
:1035F00029F595E1031229F5B1E1031229F500E25D
:10360000031229F582E2031229F5CDE2031229F50E
:10361000E0E2031229F54DE3031229F5A8E30312B2
:1036200029F565E4031229F55CE5031229F597E510
:10363000031229F514E6031229F5C1E7031229F54F
:1036400085E8031229F5A9E9031229F526EA0312F0
:1036500029F5F0EA031229F575EB031229F5B8EB09
:10366000031229F5D2EB031229F51BEC031229F5FD
:1036700031EC031229F5F0EC031229F509EE0312DF
:1036800029F51DEE031229F57AEE031229F5CFEE86
:10369000031229F51FEF031229F50EF0031229F585
:1036A000A5F2031229F5C4F2031229F539F3031226
:1036B00029F55DF3031229F5D3F3031229F59BF4E1
:1036C000031229F5D2F4031229F53EF5031229F568
:1036D00023F6031229F526F6031229F539F603120B
:1036E00029F53CF6031229F545F6031229F557F69C
:1036F000031229F5CBF6031229F501F7031229F578
:1037000014F7031229F540F7031229F567F703129E
:1037100029F58BF7031229F5C6F7031229F538F8B6
:10372000031229F560F8031229F56AF8031229F546
:10373000A1F8031229F5BBF8031229F5D6F80312F4
:1037400029F504F9031229F51AF9031229F532F9BA
:10375000031229F544F9031229F56399071229F593
:103760007B99071229F5E4DA061229F522DB061205
:1037700029F5AEDB061229F5B9DC061229F5D5DEEE
:10378000061229F50ADF061229F518AE061229F5E8
:1037900067AE061229F507B0061229F5DBB106124D
:1037A00029F51DB2061229F5E8B2061229F5F0B383
:1037B000061229F512B4061229F56EB4061229F57F
:1037C000EFB4061229F57551001229F59751001230
:1037D00029F52A53001229F57353001229F5E753EE
:1037E000001229F56454001229F5C954001229F574
:1037F000CC54001229F50E55001229F57E55001201
:1038000029F51E56001229F52156001229F5965663
:10381000001229F5DB56001229F5C85A001229F5C5
:103820002F5C001229F56D5C001229F5C35C0012B3
:1038300029F5CD5F001229F54260001229F5EA61F1
:10384000001229F51E63001229F54A64001229F5B9
:10385000C464001229F59F65001229F54466001220
:1038600029F55866001229F52867001229F55668CF
:10387000001229F5216A001229F52E6C001229F593
:10388000136D001229F5B16F001229F55270001264
:1038900029F54071001229F59974001229F5A974CF
:1038A000001229F50A76001229F59B76001229F5F7
:1038B0009D77001229F52679001229F5A4790012C6
:1038C00029F5FE7A001229F5437B001229F5247CA4
:1038D000001229F50080051229F5A080051229F5AE
:1038E0000A81051229F52381051229F5BA810512ED
:1038F00029F5FE81051229F52083051229F55C833F
:10390000051229F5D883051229F52384051229F516
:103910008284051229F58B85051229F58688051202
:1039200029F5A789051229F5228A051229F5098C9E
:10393000051229F5A98C051229F5508D051229F5D6
:10394000B38D051229F5288E051229F5378F05123A
:1039500029F50B90051229F54190051229F5709073
:10396000051229F52491051229F55091051229F522
:10397000D091051229F55093051229F5DC94051212
:1039800029F52496051229F58F97051229F59B989C
:10399000051229F53E99051229F5B799051229F561
:1039A000E59A051229F5B2BC041229F515BD0412D9
:1039B00029F55DBD041229F5A1BD041229F50BBE40
:1039C000041229F554BE041229F58CBE041229F5FF
:1039D00026BF041229F580BF041229F5CDC00412B8
:1039E00029F556C1041229F57DC1041229F587C2B3
:1039F000041229F572C3041229F5BFC3041229F574
:103A0000BEC4041229F5E6C4041229F52FC6041217
:103A100029F540C6041229F558C6041229F541C7F4
:103A2000041229F527C8041229F530C9041229F512
:103A30005AC9041229F572C9041229F58CC9041255
:103A400029F5C3C9041229F5DAC9041229F501CAF6
:103A5000041229F518CA041229F5F4CA041229F52A
:103A60004CCB041229F5F5CD041229F524CF04120C
:103A700029F55ACF041229F564CF041229F57BCF1A
:103A8000041229F5E8CF041229F5D1D0041229F542
:103A900007D1041229F5D8D1041229F579D20412DC
:103AA00029F5A7D2041229F5B4D3041229F5D3D3EA
:103AB000041229F556D4041229F5C7D4041229F5A5
:103AC0000BD5041229F58FD5041229F5ECD5041273
:103AD00029F599D6041229F57FD8041229F55FD962
:103AE000041229F5B5D9041229F513DB041229F5BE
:103AF00029DD041229F5D3DF041229F57DE1041232
:103B000029F54DE2041229F5C5E2041229F5E7E290
:103B1000041229F5D6E3041229F5C6E4041229F5A6
:103B200031E5041229F5F0E3061229F5FAE506124B
:103B300029F5C0E6061229F515E7061229F592E7E0
:103B4000061229F51CEC061229F53AEC061229F5A5
:103B50007EEC061229F5A4EC061229F5CAEC061231
:103B600029F5E2EC061229F5FAEC061229F565EDC5
:103B7000061229F53CFB041229F5BCED061229F5C5
:103B8000C3EE061229F5DEEE061229F5E7EE06125F
:103B900029F5F0EE061229F5F9EE061229F503EFE4
:103BA000061229F580EF061229F53AD1061229F5F9
:103BB0009BD5061229F5A9D5061229F5AED5061210
:103BC00029F5328C071229F5DAF3061229F5F0F3FC
:103BD000061229F589F5061229F55ED1051229F597
:103BE0003EF6061229F54EF7061229F57DF7061264
:103BF00029F58FF7061229F5118F071229F53EFBDB
:103C0000061229F59AFB061229F5DAFB061229F5A8
:103C1000CEFC061229F5F2FC061229F507FD061264
:103C200029F527FD061229F55EFD061229F56FFD1F
:103C3000061229F586FD061229F5ABFD061229F5B7
:103C40003AFE061229F5B27F001229F50080031210
:103C500029F53380031229F59A80031229F526816C
:103C6000031229F5CD81031229F51582031229F5D6
:103C70003A82031229F55382031229F5798203123D
:103C800029F59B82031229F5D982031229F528838D
:103C9000031229F55183031229F5B083031229F584
:103CA0008984031229F53F85031229F59D850312A6
:103CB00029F56386031229F5AD86031229F50487D9
:103CC000031229F56F87031229F5AD87031229F531
:103CD0000388031229F51F88031229F54A88031265
:103CE00029F5598A031229F59F8B031229F5CB8BED
:103CF000031229F5FF8B031229F5208C031229F5F5
:103D00002F8C031229F53A8C031229F5EA8C031241
:103D100029F5598D031229F5068E031229F5428ED5
:103D2000031229F5008F031229F50D90031229F5CE
:103D30005A90031229F5E990031229F543910312D1
:103D400029F58891031229F51794031229F5719525
:103D5000031229F5BD98031229F59B99031229F541
:103D6000729A031229F5869A031229F5AF9A031263
:103D700029F5209B031229F5B69B031229F5299CEE
:103D8000031229F5189D031229F53D9D031229F50B
:103D9000A09E031229F5BE9E031229F5D19E03129F
:103DA00029F5359F031229F5449F031229F5D69F63
:103DB000031229F5DAA0031229F5E7A0031229F569
:103DC000F0A0031229F5EAA2031229F51AA403129E
:103DD00029F52AA4031229F52DA5031229F5A9A571
:103DE000031229F5E2A5031229F51AA7031229F5F2
:103DF00060A7031229F53BA9031229F51CAD031294
:103E000029F530AD031229F53AAD031229F544AD79
:103E1000031229F54EAD031229F558AD031229F509
:103E200071AD031229F57BAD031229F5F5AD03122F
:103E300029F500AE031229F52FAE031229F557AE6E
:103E4000031229F562AE031229F5B0AE031229F56B
:103E5000BAAE031229F5C5AE031229F5E9AE031275
:103E600029F50DAF031229F56AAF031229F5B0AF9A
:103E7000031229F5CCAF031229F553B0031229F52B
:103E80008AB0031229F5C9B0031229F516B103123D
:103E900029F598B1031229F544B2031229F520B48B
:103EA000031229F58EB4031229F5BAB5031229F5C8
:103EB000E0B5031229F539B7031229F591BA0312B7
:103EC00029F5CABC031229F5A8BE031229F541BF82
:103ED000031229F566C1031229F51AC2031229F546
:103EE00053C2031229F5B9C2031229F5C3C2031242
:103EF00029F5EDC4031229F5D2C5031229F539C7F6
:103F0000031229F581C7031229F535C8031229F5D3
:103F1000D8C9031229F55FCB031229F57FCB031211
:103F200029F5D2CB031229F5D2CC031229F5FACC0C
:103F3000031229F55DCD031229F540CE031229F5B0
:103F4000B2CE031229F5C4CF031229F548D00312CB
:103F500029F546D1031229F5DCD3031229F5FBD349
:103F6000031229F546D5031229F514D7031229F5B2
:103F700068D7031229F520D8031229F5D0D80312E7
:103F800029F533D9031229F5F8D9031229F58EDA68
:103F9000031229F5F5DA031229F537DB031229F5A7
:103FA00068DB031229F5C8DC031229F50080021230
:103FB00029F53280021229F56B80021229F56182FF
:103FC000021229F5A382021229F58783021229F52C
:103FD000DF83021229F52285021229F56E8502126D
:103FE00029F59A88021229F5188C021229F5608D9C
:103FF000021229F5F68D021229F5028E021229F518
:10400000428E021229F5D78F021229F5CB900212A7
:1040100029F5F590021229F54C91021229F5A59186
:10402000021229F51692021229F54B94021229F573
:10403000E295021229F5B696021229F5FD970212B1
:1040400029F5559A021229F5269D021229F5359D6A
:10405000021229F5B99D021229F56E9E021229F568
:10406000B19E021229F5FA9E021229F54E9F021204
:1040700029F5B39F021229F50FA0021229F52BA0F2
:10408000021229F55DA0021229F59CA0021229F561
:1040900082A1021229F531A2021229F5B7A4021257
:1040A00029F5EDA5021229F5D4A6021229F554A787
:1040B000021229F561AB021229F59FAB021229F514
:1040C00006AC021229F539AC021229F5CCAC021269
:1040D00029F5FFAC021229F59AAD021229F5E8ADD7
:1040E000021229F5BBAE021229F582AF021229F5A0
:1040F00020B0021229F52AB3021229F53EB40212A9
:1041000029F5E4B7021229F5E6B8021229F5E9B853
:10411000021229F518B9021229F517BB021229F566
:10412000F0BB021229F515BC021229F531BD0212AD
:1041300029F5E9BD021229F5A0BF021229F504C034
:10414000021229F529C0021229F563C0021229F5CD
:10415000BEC0021229F59FC1021229F59AC20212AD
:1041600029F550C3021229F561C5021229F5CCC503
:10417000021229F514C6021229F54DC6021229F5BC
:10418000DFC6021229F538C8021229F510CC021236
:1041900029F505CD021229F5FFCD021229F57CCEB5
:1041A000021229F54ECF021229F52BD1021229F560
:1041B000BCD1021229F5C0D2021229F5D4D20212C2
:1041C00029F5E8D2021229F5FCD2021229F532D3E0
:1041D000021229F562D3021229F5ECD4021229F554
:1041E000AAD5021229F52ED6021229F57FD602127F
:1041F00029F5F8D6021229F53ED7021229F523D95E
:10420000021229F5D3D9021229F503DA021229F58F
:10421000C2DA021229F55FDB021229F50ADD021269
:1042200029F5F7DD021229F536DE021229F5A8DE9E
:10423000021229F5EDDF021229F5A0E0021229F59C
:10424000D4E0021229F5ECE0021229F58FE1021206
:1042500029F57DE4021229F548E6021229F56CE6FB
:10426000021229F58AE6021229F55EE7021229F503
:104270008BEB021229F5FFEF061229F53FF006122B
:1042800029F50BF2061229F51AF2061229F564B87F
:10429000051229F528BD051229F57DBD051229F560
:1042A000BBBF051229F55FC1051229F5EFC1051243
:1042B00029F54BC4051229F552C6051229F5A9C6E0
:1042C000051229F59DC8051229F5EAC8051229F538
:1042D00048C9051229F56AC9051229F571C90512DF
:1042E00029F589C9051229F54DCA051229F544CBCE
:1042F000051229F59481011229F5D681011229F5BB
:104300002887011229F57487011229F5BA8701124D
:1043100029F50789011229F57189011229F5B98951
:10432000011229F5288B011229F56D8E011229F54C
:10433000928F011229F5509B011229F5D99B011288
:1043400029F5419F011229F5A0A0011229F5FBA032
:10435000011229F543A2011229F52BA3011229F517
:10436000D2A5011229F553A7011229F5E4A70112DC
:1043700029F5E7A7011229F55EA8011229F568A819
:10438000011229F575A8011229F5A0A8011229F535
:104390004FA9011229F53EAA011229F5F7AA011227
:1043A00029F57AAB011229F598AB011229F5ADABCD
:1043B000011229F5D6AB011229F503AC011229F53A
:1043C00040AE011229F51CAF011229F566AF0112AA
:1043D00029F5F1AF011229F59FB0011229F5D1B0ED
:1043E000011229F517B1011229F54AB1011229F577
:1043F0009EB1011229F5EFB1011229F5F4B10112B4
:1044000029F548B2011229F5B1B2011229F57FB39D
:10441000011229F5CAB3011229F52FB4011229F5A9
:104420008BB4011229F527B5011229F581B80112C3
:1044300029F5AEB9011229F54EBB011229F5A4BE2A
:10444000011229F53ABF011229F56AC2011229F5B4
:1044500025C3011229F56DC3011229F526C50112E4
:1044600029F53AC5011229F544C5011229F54EC5B1
:10447000011229F55AC5011229F579C5011229F54C
:10448000C7C7011229F520C8011229F52AC801124F
:1044900029F534C8011229F5BAC8011229F50EC947
:1044A000011229F51BCA011229F58BCA011229F53F
:1044B00095CB011229F5DECB011229F585CC01122D
:1044C00029F565CD011229F532CE011229F565CF06
:1044D000011229F5A2D0011229F5A3D1011229F563
:1044E000BBD1011229F5EFD1011229F5F9D1011241
:1044F00029F503D2011229F50ED2011229F52CD289
:10450000011229F574D2011229F5D2D2011229F52E
:10451000F9D2011229F50BD3011229F5A6D3011204
:1045200029F5DBD3011229F5D9D4011229F52FD5AC
:10453000011229F51ED6011229F554D6011229F5CA
:10454000B7D6011229F52FD7011229F5D4D80112B7
:1045500029F5FCD9011229F5DADA011229F5ABDBCC
:10456000011229F554DC011229F589DD011229F522
:104570001BDE011229F56FDE011229F5DBDE0112C7
:1045800029F5A1DF011229F5F2DF011229F54AE030
:10459000011229F51BE1011229F53EE1011229F56D
:1045A000EDE1011229F50FE2011229F570E2011285
:1045B00029F5BEE4011229F5C1E5011229F585E6C8
:1045C000011229F5B9E8011229F503E9011229F5CB
:1045D0004EE9011229F5A9E9011229F516EA01129D
:1045E00029F544EA011229F568EA011229F59DEA44
:1045F000011229F5CAEA011229F510EB011229F579
:104600006EEB011229F5C2EB011229F5ECEC011257
:1046100029F599EE011229F5E2EE011229F50BEFC9
:10462000011229F59DEF011229F515F0011229F566
:1046300023F0011229F547F0011229F5A4F0011227
:1046400029F5BFF0011229F580F1011229F5ACF12D
:10465000011229F5EFF1011229F552F2011229F5A3
:104660004AF4011229F577F4011229F56CF50112CB
:1046700029F569F6011229F50CF7011229F5699956
:10468000061229F5A199061229F5C299061229F5F3
:10469000069A061229F56A9A061229F5749A0612E4
:1046A00029F5849A061229F5BB9A061229F5B39EBC
:1046B000061229F5C1A0061229F5AEA2061229F5A7
:1046C00045A3061229F5E7A3061229F57380041203
:1046D00029F51C81041229F5F381041229F5FB82C6
:1046E000041229F51B83041229F53384041229F5D9
:1046F000ED85041229F56086041229F5FD86041261
:1047000029F51488041229F58188041229F5BC883A
:10471000041229F51189041229F54C89041229F58E
:104720009989041229F5298A041229F5B68A0412F6
:1047300029F58B8B041229F5648C041229F5F28C6F
:10474000041229F5128D041229F53F8D041229F562
:10475000708D041229F5438E041229F5538E04122C
:1047600029F5A28E041229F5AF8E041229F5B88E10
:10477000041229F5288F041229F5888F041229F5CF
:10478000D38F041229F5EE8F041229F51590041227
:1047900029F53290041229F53E90041229F5E99189
:1047A000041229F50292041229F58B92041229F5BC
:1047B0009E92041229F5BD92041229F55893041211
:1047C00029F5C894041229F56F96041229F5FE966E
:1047D000041229F50197041229F57197041229F59D
:1047E0008F97041229F53498041229F57098041251
:1047F00029F57398041229F53999041229F59C9921
:10480000041229F5D599041229F54A9A041229F5BA
:10481000689A041229F5B69A041229F58B9B0412A2
:1048200029F5D99B041229F5279C041229F5B49C7B
:10483000041229F5E99C041229F51E9D041229F59C
:104840002C9D041229F58B9D041229F5039E041258
:1048500029F5449E041229F5949E041229F5BF9E61
:10486000041229F5D99E041229F5F39E041229F5A4
:10487000CE9F041229F5D89F041229F513A0041223
:1048800029F523A0041229F52CA0041229F584A0EF
:10489000041229F598A0041229F5CEA1041229F5D5
:1048A000E1A1041229F5F8A1041229F50DA20412C0
:1048B00029F59BA2041229F503A3041229F5B6A336
:1048C000041229F5C1A3041229F511A5041229F532
:1048D0002DA5041229F579A5041229F5E8A50412DD
:1048E00029F521A6041229F53BA6041229F59BA659
:1048F000041229F53AA7041229F585A7041229F50F
:1049000047AA041229F5FDAA041229F58DAB041259
:1049100029F5D5AD041229F5EDAD041229F5F0AD58
:10492000041229F5FCAD041229F510AE041229F584
:1049300018AE041229F54BAE041229F53EAF04124D
:1049400029F5C9AF041229F55CB0041229F5D5B0D8
:10495000041229F599B1041229F5BBB1041229F505
:1049600054B2041229F5B1B2041229F5B4B20412FA
:1049700029F5E1B2041229F5F6B2041229F570B353
:10498000041229F5BCB4041229F5C7B5041229F59F
:1049900052B6041229F557B7041229F517B80412B4
:1049A00029F548B8041229F56EB8041229F577B82C
:1049B000041229F5A5B8041229F53DB9041229F508
:1049C000F2B9041229F563BA041229F50ABB0412DC
:1049D00029F591BB041229F5D0BB041229F513BCAB
:1049E000041229F54DBC041229F590F9041229F599
:1049F00039F9041229F58DF8041229F5C5F60412C7
:104A000029F51EF6041229F5EEF5041229F5A3F591
:104A1000041229F53EF5041229F5FDF4041229F5D6
:104A2000DDF4041229F524F4041229F5B1F304127B
:104A300029F543F3041229F5E6F2041229F56FF182
:104A4000041229F50CF1041229F586F0041229F557
:104A50007DF0041229F571F0041229F53EF00412DC
:104A600029F5AEED041229F5ABED041229F58CED14
:104A7000041229F582ED041229F564CF051229F5F7
:104A800046ED041229F526CF051229F500CF0512AF
:104A900029F584CE051229F5FCFC041229F5B1FC98
:104AA000041229F545FC041229F587EB041229F5B7
:104AB00070EB041229F5A6EA041229F503EA0412A0
:104AC00029F5E2FB041229F527E8041229F5C9E6C5
:104AD000041229F5BEE6041229F536E6041229F57A
:104AE000D2F5061229F5F2E5041229F5B8FB0412F5
:104AF00029F5CCE5041229F5B98C061229F5728C3A
:104B0000061229F5118C061229F5DC8B061229F5FF
:104B1000B18B061229F57D8B061229F5558B0612ED
:104B200029F5D88A061229F5C28A061229F5928A31
:104B3000061229F5088A061229F54D86061229F56E
:104B40000584061229F5DD81061229F55F8106121A
:104B500029F51081061229F50080061229F59D809D
:104B6000061229F55E80061229F5A7ED0600000061
:104B700080FB8F0001008D1E870001008B1E350019
:104B80000400511E25000200551E26000200571E7B
:104B900027000200591E28000100631E29000100A1
:104BA000641E84000400541A86000100FA1D2A00C5
:104BB0000100651E2B000100661E2C0001006C1E0A
:104BC0002D000800611A2E0001006D1E2F0001004B
:104BD0006E1E300001006F1E31000100701E320099
:104BE0000100691A330001006A1A34000100711EC5
:104BF000360001006B1A38000100721E39000100F6
:104C00006B1E83000200891E63000100761A640097
:104C10000100671E65000100681E6D000100771A23
:104C200071000800591A66000100881E4300010047
:104C3000791E440002007A1E450001007C1E4600D9
:104C400002007D1E470008006E1A480001007F1E0A
:104C50004B000100801E040001008C1EA100010019
:104C6000901E370001008F1E880001008E1E3C0040
:104C700001006C1A3D000100731E49000200811EF4
:104C800067000100781A4D000200831E4E000100EB
:104C9000851E4F000200861E3E000100781E510056
:104CA0000100741E52000100751E53000100771EA2
:104CB000540001006D1A00000000000000013636AB
:104CC00001010001020100010301000104010606C7
:104CD00005020000070100340801000F090401016A
:104CE0000D0100FF0E08000017020000190100FF6F
:104CF0001A0100011B0100FE1C0100081D0200003A
:104D00001F01000120010001210200002301000F0A
:104D1000240200002601000127010008280200FFEC
:104D20002A0100072B0102402C0100002D01000187
:104D30002E0100012F0100FF30010B1D3108000082
:104D40003A0100083B01000F3C0100013D0100FF5A
:104D50003E04000042040000460400004A04000033
:104D60004E04000052040000560400005A040000E3
:104D70000103710301030103010301030103220382
:104D800002030103100300030003000300030003F8
:104D9000000300034203000324030603000300038F
:104DA000040312032503230325032303040304033D
:104DB0000003000300034403000300032303000374
:104DC000650321003503810300030503000300038D
:104DD0000003000325032303030271023001600274
:104DE000110270020102020202028002100261023C
:104DF0003A0041006302730272026202430200023F
:104E00001302380000020002040212020002000233
:104E10000002000204020402370037003C02440290
:104E20000002390000020002650200023502810220
:104E300000020502820283020002030071003001B9
:104E40006000110070003102200350048000100047
:104E500061000000140063007300720062004300F0
:104E60000000130006000000000004001200000013
:104E700000000000000004000400370037003C027E
:104E80004400000000000000000065000000350044
:104E90008100000005000000830000000101710195
:104EA0000101010111010101310101010101800133
:104EB000100161013B001400630173017201620182
:104EC00043010001130106013D01350004011201F7
:104ED000000100010001000104010401330133015C
:104EE0003C0144013201360000010001650100016E
:104EF00035008101000105018201830100010304E5
:104F00007104020460041104700402040204010428
:104F100002041004610400041404630473047204A2
:104F2000620443040004130406040004000404049F
:104F3000120400040004000400045104640000048E
:104F40000004000444040004000400040004650498
:104F50000004350481046400050400048304000493
:104F600036000100060000000F00000000000000F5
:104F700000000000000003FFFF00000403FFFF002B
:104F800000FFFF0FF4010005C4040320000100002E
:104F90000B000000000000000003010F00000000F3
:104FA0000000000000000000000000000000000001
:104FB00000000000000000000000000000001300DE
:104FC0006B381F0071381F807738000013390100DB
:104FD00013390200ED370280E7370300F33704008E
:104FE000F9370480FF370500053806001138300016
:104FF0002F383100293832003B3833004138350032
:10500000473834004D383600533811005F381400EB
:10501000653815002338FFFF00000A000000020079
:105020000000040000000800000010000000200044
:1050300000004000000080000000000100000002AD
:105040000000000400000008000000100000002024
:105050000000004000000139430669430863430B28
:105060008743105B3F0A9943023F43055743074577
:10507000430C21430D2D43642D3DFF000007ECFD43
:10508000FDFDECDCDCCCBCACAC9C9C8C7C7C6C6C0E
:105090005C5C5C4C4C3C3C2C2C1C1C03EAF5E5D5C0
:1050A000D5C5B5A5959585857575656555554545F0
:1050B0003535252515150500160F00000B150B02BB
:1050C0000002220F3300000E0F667A6C6368746969
:1050D0006D65434F2E2C4C54645A69674265654197
:1050E0006C6C69616E63653039D0D1D2D3D4D5D6BA
:1050F000D7D8D9DADBDCDDDEDF0001191618161689
:105100001823030000034D4C4651181A25050230A0
:105110003016181920231A1C1E30003C40423A3F1A
:105120003F392F4730303017181921301B1D1F30E1
:105130000C0E020B040B0A0708000F020402010107
:105140000101090200BE040AE80300000E0000008D
:10515000E8030C001E0000007F00030004091E107D
:105160000A0C100803FF0C280004040209033C0C7D
:1051700005080B081EC082C0839018CCE4F0A3F091
:105180007CB07D1B7AE77B17123517123D5D123F0D
:10519000A9123D6302665174F212245C74FE122A55
:1051A000F1E9FF8A08EBFE8C09E9703374026A703A
:1051B00016790812373FE4F50AF50B780A122A4AE5
:1051C000780A122A4E805374016A60030252FC79F5
:1051D0000812373F7B00EEFAF9123DC90252F7740C
:1051E000016F600874026F60030252FCEA60087489
:1051F000036A60030252971241BFE960537403656A
:1052000008604D12335B8A0A8B0B780A122A4A75A2
:105210000A01780A122A4E750A00780A122A4EE507
:1052200009F50A780A122A4EEEF50A780A122A4E71
:10523000901801122871901DFAE0F97C6E7D1A9089
:105240001E891264C0123D87740A122A5D0252F749
:10525000790212373F901DFAE0F9901801122CD410
:10526000123D75E9F8901810E0A2E34010E9700DC6
:105270009018D0E004F064047003125318740365AE
:105280000870769018D1E0F9740129F0E9C394050B
:105290004067125318806274016A706074016F79FC
:1052A0000A702C12373F7A007B04901C81E0F912BF
:1052B00034D5AA18AB1979501261B11261C5E81240
:1052C00075E67900901C341264C0123E11804412BD
:1052D000373F901E5F1228717A007B20901806E0FD
:1052E000F91234C97404122A5D901DFAE0F990187D
:1052F00001122CD4123DABE9F8E8601790817312CB
:1053000028717A017B00901806E0F91234C9740400
:10531000122A5D7402027A52901801E4F0A374F824
:10532000F0A374FFF0A37407F02274F612245CE972
:10533000FFEAFE7AD1F912337F8A828B83E58245B8
:1053400083702A7A027B00123361EA4B700E7A1066
:105350007B00901806E0F91233A380148A828B83B5
:1053600074D1F0EFA3F0EEF912336D8003EFA3F0E8
:1053700002557974F712245C89089004D112777869
:10538000901E47E0F47003A3E0F470309009D1E080
:10539000901E47F0A3E4F080238E828F8312644333
:1053A000600F8E828F83A3A3126440FAA90812377C
:1053B000CF8E828F831261C1E8FEE9FFEE4F70D974
:1053C000901E47E0F47003A3E0F4600A901E47E0EB
:1053D000FAA9081237CF12445F9017D1125C6712F6
:1053E00044597F010226ED74F012245C890B8C0C69
:1053F0007509007508007410122D031261C1741232
:10540000122D0312561880471254B0F50EA3E0F582
:105410000FAE08EE2EFEE433FFEA2EF582EB126AA1
:105420000D650E7004A3E0650F7019AE09EE2EFE37
:10543000E433FFEC2EF582ED3FF583E50EF0A3E5B6
:105440000FF00509050AE50AC3950C40BB0508E500
:1054500008C3950B5005750A0080EBA90980007FF1
:10546000080226ED74F412245C890B7D00740C1282
:105470002D031261C180010DEDC3950B502E750AED
:10548000008002050AE50AC39C50ECED25E0FEE42D
:1054900033FFEA2EF582EB3F1275C31254B0650854
:1054A0007004A3E0650970DB790180027900801443
:1054B000AE0AEE2EFEE433FFE82EF582E9125C041C
:1054C00022122A5D7F040226ED0229F274F61224CC
:1054D0005C1255637003A3E06D701775080E7509B3
:1054E000187808122A4AEEFA1239197402122A5D43
:1054F000801A7508027509807808122A4A8A088974
:10550000097808122A4A125550122A5D806B74F6E7
:1055100012245C1255637003A3E06D701775081BAD
:105520007509187808122A4AEEFA12391F74021205
:105530002A5D801A7508037509807808122A4A8A3C
:105540000889097808122A4A125550122A5D8029C2
:10555000EE127A2B125C04FD7C801266F712393D44
:10556000740422EAFEEBFF12670EFCE439FD90178B
:10557000D1E06C227402122A5D7F020226ED74F6DD
:1055800012245C74FE122AF1EAFEEBFF8518828574
:105590001983E4F0A3F0126843FBECFA8882898354
:1055A000A3A3E0F9750900750800600574FF697030
:1055B0000575088280359017D1E06A7003A3E06B0F
:1055C000701BAA18AB19124B1FE9FA8518828519AE
:1055D0008312663E70037508838A09800E123CE5CB
:1055E000E960057508898003750881125612A908BB
:1055F000EEFAEFFB123925E509601485188285194A
:105600008312663E600985188285198312704B02E9
:105610005574851882851983E0FCA3E0FD220229D8
:10562000F274F212245CEAFEEBFF750800750900C3
:1056300012670AF50AE439F50B12445FEA650A704D
:1056400003EB650B7012124B0DE914F50879017A22
:10565000987B18124B078003750981126A07F50CB5
:10566000780C122A4E750C98750D18780C122A4A6F
:105670007808122A4E780A122A4AE509F5087808AD
:10568000122A4E1264AF126A0AF97A057B80123927
:105690002B7407027A5274F612245CE9FF7E0080B4
:1056A000328A828B83E0F508A3E0F8E4C8F9E508C4
:1056B00028E439F509EE25E0F8E433F9EC28F58221
:1056C000ED39F583E508F0A3E509F0EA2402FA5084
:1056D000010B0EEEC39F40C902557974E812245C99
:1056E00074FE122AF18A108B11750F0085188285BD
:1056F0001983E4F0A3F0F516F517126319351112AA
:10570000776E127C08FA8E828F83A3A3A3E0F9EA56
:10571000F508E439F509AA0AAB0B1244FBE9640168
:10572000701F1273D9122A4EE4F508F50978081291
:105730002A4A7808122A4E780A122A4A7508808066
:1057400035AA0AAB0B1244FBE970399017D1E0651A
:105750000A7004A3E0650B602B1273D9122A4EE481
:10576000F508F5097808122A4A7808122A4E780AAC
:10577000122A4A7508817808122A4E125AA8122A4B
:105780005D025A918E828F83A3A3A3A3E0F50BEE53
:105790002405FE50010FE50B602A127AC985188294
:1057A000851983EAF0A3EB126A11E84960161256D4
:1057B00012EEFAEFFBA90B12380B8A0C8B0DAE0C14
:1057C000AF0D8003750B00127ADF601A127AC98A56
:1057D000168B17EA4B600FAC16AD17EEFAEFFBA96C
:1057E0000A12380B8003750A009004D180508E8213
:1057F0008F83A3A3A3A3A3A3A3A3E4F0A3F0EEFA30
:10580000EFFB851482851583A3A3E0F8126440F9A9
:1058100012336D851282851383E0C0E0A80F74985F
:1058200028F582E43418F583D0E0F0050FA200508B
:1058300007AA12AB13123409851482851583E0F58B
:1058400014A3E0F515E51445157003025A118514EB
:105850008285158312644360DF851482851583A3D6
:10586000A3A3A3A3A3A3A3E0A2E050CC85148285A5
:105870001583A3A3A3A312663E851482851583A373
:10588000A3601E126445FA7901851482851583A3ED
:10589000A3A3A3125A9B12264D8A128B13D2008007
:1058A00010125A9BA3A3A3A3E0F512A3E0F513C221
:1058B00000E5124513700302582D8512828513836B
:1058C000A3E065087004A3E06509600F74FF650834
:1058D000700474FF6509600302582D8512828513D8
:1058E00083A3A3A3A3A3A3A3122875851282851360
:1058F00083A3A3A3A3A3A3E0FC7402122D03126449
:10590000C0A90B1237E17402122A5DE970388512C2
:1059100082851383A3A3A3A3A3A3A3A3A3A3122852
:1059200075851282851383A3A3A3A3A3A3A3A3A313
:10593000E0FCAA16AB17A90A1237E17402122A5D1D
:10594000E9700302582DE50A250BC333240AFA7BBC
:10595000001233618A0C8B0DAE0CAF0DEA4F700351
:105960000258138A828B8374D2F08510828511834A
:10597000A3A31261D4A3A3E81275E68A828B83A342
:10598000A3A3A3E50B127C19E50B6033EA240AFA02
:10599000E43FFB8E828F83125C62851882851983B7
:1059A000E0F50CA3E0F50D750E00780C122A46AC5C
:1059B0000BEC2CFCE433FD127C02122A5D800D8A74
:1059C000828B83A3A3A3A3A3E4F0A3F0E50A70034F
:1059D0000257EEA80BE828F8E433F9EE28F8EF397F
:1059E000F9E8240AFAE439FB8E828F83A3A3A31279
:1059F0005C6285160C85170D750E00780C122A4610
:105A0000AC0AEC2CFCE433FD127C02122A5D025736
:105A1000FEE50F60251273D9122A4E750898750994
:105A2000187808122A4AE50FF5087808122A4E90CD
:105A300017D1122875750800802BE510127A1035E1
:105A400011F583E0702A1273D9122A4E75089875E1
:105A500009187808122A4A7508007808122A4E9008
:105A600017D11228757808122A4E125AA8122A5DE8
:105A700085188285198312663E600985188285190A
:105A80008312704BE51645176007AA16AB17123440
:105A9000097402122A5D7F100226ED125A9F22E03D
:105AA000F8A3E0F583888222E5102402FCE4351196
:105AB000FDE510240FF582E43511F583E0F97A064F
:105AC0007B8012392B74072274F412245C74F41254
:105AD0002AF18A088B09ECFEEDFF740B122D03747A
:105AE00003F0122AB31235171265937403122AB306
:105AF000123511E9600A125BF86010E06401600B76
:105B00008518828519837484025BC38E828F83A378
:105B1000A3A3A3A3A3A3A3E06013F46010125BF8F4
:105B20007016EE2414126A0A6003F4700B85188252
:105B30008519837482025BC3127767E06421700267
:105B4000A3E07055851882851983748C1261E4E096
:105B5000F50A780A122A4E125C091240B774011233
:105B60002A5DE9705F851882851983E4F012371B7E
:105B7000125BF8704F7401122ABBEE240BFAE43F5B
:105B8000FB1240D5E9703D7D007C007900EE240BCE
:105B9000FAE43FFB1238E3802BEE2414126A0AF574
:105BA0000A780A122A4E125C091240BD7401122AA8
:105BB0005DE98518828519837007E4F012371B8030
:105BC000037488F0127395F50A780A122A4E74014C
:105BD000122AAB880A890B780A122A4A127BE53509
:105BE000091261CC4480F50B780A122A4A126575B5
:105BF000122A5D740C0254C1EE2413125C0164037A
:105C000022F582E43FF583E022EE240BFCE43FFD25
:105C10008E828F83A3A3A3A3A3A3A3A3A31273C959
:105C20008E828F83A3A3A3A3A3A3A3A3E0F922C07F
:105C300082C08374F3122AF1851882851983E4F0F7
:105C400004122D03125C677403122D03AA82AB8326
:105C5000123C6DAA18AB19123CA9740D122A5D02F0
:105C60006651A3A3A3A3A3EAF0A3EBF02274F61258
:105C7000245CEAFEEBFFEA2413126A0AF8A3E0129E
:105C80005CB4F8901816E058F508A3E059F509E55A
:105C9000084509601C7808122A4A9017D112287505
:105CA000126A07FD7C001266F31239377404122A57
:105CB0005D0255798882F583125CBC22E0FAA3E08C
:105CC000F9EA2274EA12245C74DB122AF18A148B3A
:105CD000157512007513001263193515F5831264DA
:105CE00045F50EAC18AD197A007B00799C123DE1A8
:105CF0007A047900123CD3EAF50C85188285198361
:105D0000E02AF0F8E50EC3984003025EEEE0C3958A
:105D10000EF509C394044003750903E50975F01AEB
:105D2000A4FAABF01234038A128B13EA4B7003020D
:105D30005EF1750D00AE12AF13850E08025DC77CD3
:105D4000087D0079FFEE240AFAE43FFB123349850F
:105D50000A82850B83A3A3A3A3E0702D850A828505
:105D60000B8312663E700C1275A0F0EE24181275AB
:105D7000A38010125F82F0901C47E014C0E0125F15
:105D800051D0E0125FBDE48034901C47E004C0E0D5
:105D9000125F51D0E0125FB0C39403EE4003025E85
:105DA000531276797402125FB064017003025E6070
:105DB000EE2415125F85F0EE2416125F85F0EE24B6
:105DC0001AFE50010F050DE50DC395094003025E53
:105DD0008BE508C3950C4003025E69AA087B00129C
:105DE0003D158A0A8B0B0508901C34125F96850AB4
:105DF00082850B831261C1125F6BF583E81275E631
:105E0000125F5F125F8E850A82850B83A3A3A3A313
:105E1000A3A3A3A3A3A3E0C0E0125F47D0E0F07464
:105E200001122D03E4F0850A82850B831261C1748F
:105E300002122D03E81275E67401122AB3123C9780
:105E4000E964016003025D3F7404122D03125F7365
:105E5000025D4F125F83125FB064036003025DB0A6
:105E6000EE24151275A3025DB6E50CC3950E400530
:105E7000750800801DE50EC3950CF5088014125FAF
:105E800082F0EE241AFE50010F050DE50DC39509B1
:105E9000505F740E122ABBAA087B007987123DE17D
:105EA00005087418122D03125F967410122D031238
:105EB0005F73EE2412F8E43FF9740E122D0312649E
:105EC000C088828983EAF0A3EB125FBD7403125F7E
:105ED0008E125F5FF0741D122D03E0C0E0125F4769
:105EE000D0E01279DAE84970951275A080937509AF
:105EF00000750A00780A122A4E7812122A4A780986
:105F0000122A4EE50EF5097809122A4E7405122D53
:105F100003E0FD7C00E5141264353515FBE5141231
:105F2000643A3515F583E0F91239737405122A5D68
:105F3000E51245136007AA12AB1312340974251237
:105F40002A5D7F0E0226EDEE2419F582E43FF583EB
:105F500022125F5522EE2418F582E43FF58322EEEB
:105F60002417F582E43FF583740222EE2412F582B1
:105F7000E43F22AC82AD83EE240AFAE43FFB123503
:105F80001722EE2414F582E43FF583740122F01207
:105F90005F5574FFF022126A1C8E828F83E8F0A393
:105FA000E9F07C487D1CEE1264353FFB1235172268
:105FB000F0850A82850B83A3A3A3A3E0221275FFB9
:105FC0007402F0EE2416F582E43FF5832274F61293
:105FD000245C74F9122AF11263153509127CCF85FD
:105FE0001882851983122CEC8E828F83A3A3A3A31E
:105FF000E0C0E07404122D03D0E01279FBF87405C0
:10600000122D037401F07406122D037401F0901721
:10601000DBF09017E404127695FAA3E0FB9017DC0E
:10602000125C67E89017E5F0127A16E09017DAF044
:10603000AA18AB19123D7BE96003123D8174070277
:10604000557674F212245C74FF122AF17508007EF2
:10605000007F001243758A0A8B0B12619B80080532
:10606000081261A71261C1E84970F412619B8006B1
:106070001261A71261C1E849602D88828983126488
:10608000C0901C34E06A7003A3E06B600A1261A741
:106090001264C0EA4B70D9888289831261C5E068B6
:1060A0007003A3E06960747A167B00127989606BD3
:1060B000901C341261D4E81275E6901C29126D0D03
:1060C000F01244E3E98E828F83A3A3A3A3A3F090ED
:1060D0001E65E08E828F83A3A3A3A3A3A3F07C48B5
:1060E0007D1CEE240B125F7AAA18AB19794112615C
:1060F000B1E060089017D11261C1800478FE79FF89
:106100008E828F83A3A3A3A3A3A3A3E8F0A3E91282
:1061100061E41261DC8E0A8F0B05089017E5E0F848
:10612000E508C398500479008029E508C398F9C3AD
:106130009406400279057800800FE50A2414F58260
:10614000E4350B1261CCF50B089017E5E0FAE8C3D3
:106150009A40E77509007809122A4E780A122A4AED
:10616000E9F5097809122A4E9017E5E0F509780952
:10617000122A4EAD087C007ADC7B179017DAE0F922
:1061800012396D7405122A5DEE4F6007EEFAEFFBCF
:10619000123409123D817401027A521243758A0C3D
:1061A0008B0DA80CA90D22E82414F582E439F5839F
:1061B00022123B4D85188285198322851882851904
:1061C00083126A1C22126A1C901C3422F583E0F5AB
:1061D0000AA3E022126A1C8A828B8322E50AF0A3BA
:1061E000E50BF022F0EE12767D2274F012245C743E
:1061F000FF122AF18A0A8B0B7E008E0E8E0F12631D
:1062000019350BF583126445FFAC18AD197A007B84
:1062100000799D123DE1851882851983E0F8EFC36E
:106220009840030262BFE0C39FFEC3940B40027E0E
:106230000AEE75F007A4FAABF012642D8A0E8B0FEC
:10624000EA4B6079750C00801A850882850983A362
:10625000A3A3A3A37403F0E5082407F508500205DF
:1062600009050CE50CC39E5056AC08AD09E50C2F92
:10627000FAE43400FB798B123DE1850882850983BD
:10628000A3A3A3A3A3E014600814601314601F80E9
:10629000B8850882850983A3A3A3A3A3E480B78557
:1062A0000882850983A3A3A3A3A3740180A88508FA
:1062B00082850983A3A3A3A3A3740280997E00759A
:1062C00008007808122A4E780E122A4AEEF508784D
:1062D00008122A4EEFF5087808122A4E7405122D7E
:1062E00003E0FD7C00E50A126435350BFBE50A127C
:1062F000643A350BF583E0F91239797405122A5D99
:10630000E50E450F6007AA0EAB0F12340974011297
:106310002A5D02545F8A088B09EA127A6D2274EEB4
:1063200012245C74FE122AF18A0C8B0D7510007514
:106330001100126319350DF583126445F50AAC1886
:10634000AD197A007B0079A31240C31261BBC3E58B
:106350000A98E4995020851882851983A80AE0C319
:1063600098FEA3E09400FFC3EE9404EF9400406114
:106370007E037F00805F7E00750B00EEF9750800DC
:106380007808122A4E7810122A4AE9F5087808127D
:106390002A4EE50AF5087808122A4E7405122D03D4
:1063A000E0FDAC0BE50C126435350DFBE50C126419
:1063B0003A350DF583E0F912397F7405122A5DE54F
:1063C0001045116007AA10AB111234097402027A49
:1063D000A3EE4F60A3EEFAEFFBEA75F015A4FAA85E
:1063E000F075F015EBA42812642C8A108B11EA4B7F
:1063F0006032750B00750E00C3E50E9EE49F4003EE
:1064000002637BAC08AD09A80AE50E28FAE4340063
:10641000FB79A21240C3E5082415F50850020509CE
:10642000050E80D4750BB5790002637DFB12340331
:106430008A088B09222402FAE422240FF582E4223E
:10644000125AA1A3A3125A9FE02274F612245C747C
:10645000FF122AF1EAFEEBFF12662A1264C08A825A
:10646000F583A3A3A3A3A3A3A3A3E0F9123D9FE9EC
:10647000851882851983F07508007808122A4E74F1
:1064800001122AAB880889097808122A4A7508354A
:106490007509807808122A4A1264A3122A5D7401D1
:1064A00002557679011264AFFAE43F12658C22EE50
:1064B0002402FCE43FFDEE240F2285188285198317
:1064C0001273C92274F412245C74FA122AF1126352
:1064D00015127112127778EEFAEFFB123C73E96035
:1064E0000F126593EEFAEFFB123511E9640170109B
:1064F000901E8BE0607A7401122D03E4F0A38009F2
:106500007401122D03EEF0A3EF127A36FEA2E650CC
:10651000087403122D037401F0EEA2E7500874040E
:10652000122D037401F07405122D03E412684EF06D
:10653000F50A780A122A4E7401122AAB880A890BCE
:10654000780A122A4A750A34750B80780A122A4A88
:10655000126575122A5D7401122AB3123DCFEEA2A4
:10656000E7400D7401122D0312663E7003124A6B50
:1065700074060254C17901E5082402FCE43509FDE2
:10658000E508240FFAE4350912658C22FB1238D78E
:106590007405221244598A0A8B0BAC0AAD0B227483
:1065A000F612245C74FF122AF1EAFEEBFF901E8BB8
:1065B000E07011901E6AE0700B8A828B83A3A31295
:1065C000663E706312662A126445F50874FF65081A
:1065D00070037508FEA908123D8DE985188285199A
:1065E00083F01241BFE96005A908123A45901E8B5D
:1065F000E07005A908123A45EE240B126A0A7027CA
:106600007508007808122A4E7401122AAB8808898E
:10661000097808122A4A7508367509807808122AFE
:106620004A1264A3122A5D02649EEA12662F222493
:1066300013F582E43FF58322F582E438F583126A8C
:106640001CE84922C082C083901E8BE07003123A7E
:106650004BD083D0820229F274F412245C74EF12BE
:106660002AF1EAFEEBFF12670AF508E439F5099012
:1066700017D1E06A7003A3E0697052A818A91988BD
:106680000A890B780A122A4A750A11750B00780AD2
:10669000122A4A7C007D007A817B0012348D7404BA
:1066A000122A5DE97027750A00780A122A4E7401D1
:1066B000122AAB880A890B780A122A4AAC08AD095B
:1066C0001266F31239317403122A5D8021750A11A2
:1066D000750B80780A122A4A7808122A4A126A0729
:1066E000FD7C841266F312393D7404122A5D741124
:1066F0000254C11266F722EE2402FAE43FFBEE24B4
:106700000FF582E43FF583E0F92212670E22EA12C8
:10671000662F126FAC8882F58312671D22E0FAA300
:10672000E0F8E4C8F9EA282274F112245C74EB1250
