:020000040000FA
:10000000021305022003FFFFFFFFFF02200BFFFF8B
:10001000FFFFFF020E67FFFFFFFFFF02201BFFFF36
:10002000FFFFFF022023FFFFFFFFFF02202BFFFF48
:10003000FFFFFF022033FFFFFFFFFF020EAAFFFFBB
:10004000FFFFFF022043FFFFFFFFFF02204BFFFFE8
:10005000FFFFFF022053FFFFFFFFFF02205BFFFFB8
:10006000FFFFFF022063FFFFFFFFFF02206BFFFF88
:10007000FFFFFF022073FFFFFFFFFF02207BFFFF58
:10008000FFFFFF022083FFFFFFFFFF02208BFFFF28
:10009000FFFF70DFFFFF040000000002000000C847
:1000A0000300030369A5020269A501000000000026
:1000B00004003273000074F812104C900393E06057
:1000C0001590030274FEF0900304744DF0A37405C0
:1000D000F07A0112068C7F0102116974F712104C3C
:1000E00074FF1212717E00801F851882851983E0CB
:1000F00064FE70069003877401F085188285198369
:10010000E0F8900384E068F07C017D00AA18AB1948
:10011000120E228B09EA450970030201F385188249
:10012000851983E064EF70027E07E0C0E0900387EA
:10013000E0FA900385E0F8EA28F8E43400F9740264
:1001400028F582740339F583D0E0F0900387E060EE
:100150009814600E14602C14603C14605214606893
:100160008098900384E4F0851882851983E09003D9
:1001700086F0C394809003874004E40200F974027F
:100180000200F9851882851983E0900382F09003BC
:100190008774030200F9851882851983E090038330
:1001A000F0900386E0601990038774040200F990D0
:1001B0000385E004F0F8900386E06860030200FA2B
:1001C00090038774050200F9900385E4F09003879B
:1001D000F0900384E0F8851882851983E068600355
:1001E0000200FA900382E0644D60030200FA1203F9
:1001F000288002EEF9740112123D7F020211697427
:10020000F712104C74FB121271EAFEEBFF75080432
:1002100075090078081212D574021212EE7A907BDA
:10022000007904120ECB740212123D12067E1213D4
:100230003FE0687003A3E069701285188285198316
:10024000E0F47003A3E0F4600302030874041212E4
:10025000E61206E48A088B09A808A9097402121399
:100260003FE8F0A3E9F0740412133FE0600879015D
:100270001200B6020321851882851983E068700395
:10028000A3E0697076851882851983E0F47003A372
:10029000E0F47019740212133F7410F0A37420F08C
:1002A0008518828519837410F0A37420F0750801F5
:1002B00075090078081212D574021212EE7A247BA6
:1002C00008120F4F740212123D75080478081212BA
:1002D000D574021212EE7A907B007904120ECB7460
:1002E0000212123D12067E12133FE0687003A3E073
:1002F000697004790280067904800279031200B6DD
:100300008E828F83741E80058E828F83E4F01206A6
:100310007E12133FE0687003A3E0697004790180E6
:1003200002790074050201F774E912104C74F81296
:100330001271900307E0FA900306E0F9FEEAFCE48C
:10034000CCFDEE2CED3408FF751001750F00750E15
:10035000068E088F097402780812129CC39508FC57
:10036000E49509FD74022CF51474033DF515E514AC
:100370002497F516E5153420F517EE2410F508E45A
:100380003FF509EEF50CEF5401F50D8E128F137445
:100390000978121212F685120A900383E01460574E
:1003A00014700302046F1470030204E61460102436
:1003B000FE70030205A11470030206510206617566
:1003C0000E03794E120C619003071206747402F04A
:1003D000A374401206727408120672F0A3F0741827
:1003E000C3940704F510AA10A90F12068CA90E7465
:1003F0000812123D02083E750E04794E120C61EE91
:10040000450D7005A90A120FB5C3EE9425EF9408A7
:10041000503FC3E5089424E50994084034E51424CA
:1004200096F8E5153420F988828983E0701E8516D8
:1004300082851783E070159003887401F0888289A3
:100440008374A5F08516828517838004900388E461
:10045000F075081075090078081212D57C087D0324
:10046000EEFAEFFB120F4F740212123D0203E67513
:100470000E05C3E50A947995E04006750F01020365
:10048000E675104075110078101212D57C097D03B5
:100490007402780C12129CAA0CAB0DA90A120ECB96
:1004A000740212123D900307E0A3F0900306E0A34C
:1004B000F0751043C3EE9425EF940840030203E661
:1004C000C3E5089424E509940850030203E6900369
:1004D00088E070030203E6A816A91788828983E4DE
:1004E000F0A3F00203E675080475090078081212FB
:1004F000D574021212EE7A907B007904120ECB743E
:100500000212123D740212133FE0F8A3E0F98518BD
:1005100082851983E0687003A3E0698518828519D4
:1005200083700BE0F47003A3E0F470578009E0F4EB
:100530007003A3E0F4700D8518828519837410F0A0
:10054000A37420F012067E12133FE8F0A3E9F075C1
:10055000080178081212D574021212EE7A247B0870
:10056000120F4F740212123D75080478081212D54A
:1005700074021212EE7A907B007904120ECB740290
:1005800012123D12067E12133FE0687003A3E06969
:100590007006750E010203E6750E02750F07020361
:1005A000E6900391E06007640260030203E6EAFF5D
:1005B0007A01790012068CE060030206458003127E
:1005C0000D22120D2CE970F7740412133F12066607
:1005D000740412133F780812132385080C85090D43
:1005E000850A0E850B0F9005A2780C1212C27404B6
:1005F00012133F780C121314E5084509450A450B00
:1006000070CE8EC2E5C554E04FF5C5740412133F99
:10061000120666740412133F780812132385080C1F
:1006200085090D850A0E850B0F9005A2780C121214
:10063000C2740412133F780C121314E508450945DF
:100640000A450B70CE7A01790012068C79080203F4
:10065000EFE9900393F070030203E6750E090203BD
:10066000E679060203EFE4F0A37426F0A3E4F0A316
:10067000F022F0A3E4F0A3F0A3F0A3F0A3228518E6
:1006800082851983E0F8A3E0F974022274F812104D
:100690004CEAFE900305E0D2E7F0E9A3F0EE900308
:1006A00003F08E0874042AFE7C028004E062080CC9
:1006B000ECFA3395E0FB74022AF58274033BF58370
:1006C000EEF8C3EA98EB9400A2D265D03340DDE5A2
:1006D00008F074012A0C3395E0FD7A027B03120EB8
:1006E000520200D674E912104C7582007583FE1216
:1006F00012048A168B177514007515008A828B8375
:10070000E4F0900391E07006D2AAD2AF80046402B4
:10071000700579001200B6750C00750D20750E007D
:10072000750F00900391E0600464027015120D22B1
:100730001200DBE9F87409686003020814790012FA
:1007400000B675080075090278081212D5740212F5
:1007500012EE850C08850D09AA08E5095407FB85EA
:100760000E0A850F0B740B7808121258A908120E86
:10077000CB740212123D7E007F009005AAC0828ECB
:1007800010EFF5113395E0F512F513850C08850D82
:1007900009850E0A850F0B780879101212AF9005A3
:1007A000A678081212C2758305D08278081211E566
:1007B000501D851882851983E5822EF582E5833FD9
:1007C000F583E0F9AA14AB151208438A148B150EB1
:1007D000EE70010FC3EF940240A09005AE780C12AA
:1007E00012C29005B2780C1211E54003020723797A
:1007F00000AA14AB1512084379001208438B159018
:100800000391E07004C2AFC2AAEA451570277AA529
:100810007BA58021E870030207427406687003021A
:1008200007427407687003020742851682851783A2
:100830007401F080BA7582007583021212047F1071
:10084000021169C008C0097C088A088B09740F78F6
:10085000081212F6E508F8EA25E0FAEB33FBE9A204
:10086000E7500474014AFAE8A2E0500874216AFAD9
:1008700074106BFBE9C333F91CEC70CDD009D008C0
:100880002274F812104C78007900802274942EF5AE
:1008900082E43403F583E08A828B83F0900414129F
:1008A0000A014005900414E4F008E870010990047E
:1008B00014E0FEA3E06E6007C3E89CE99D40CDE82C
:1008C000FAE9FB7F0102116974F712104C90049849
:1008D000E0F509A3E0F508F8E509C398F895E0F913
:1008E000E508C39509E8500B120AE3701178007906
:1008F00000801B247F500109C39CE99D50EF7A00C2
:100900007B008041E004F0D2E908E8700109C3E807
:100910009CE99D502C8A828B83E0C0E0900499E092
:10092000FE74182EF582E43404F583D0E0120AD365
:1009300090049AE4F0900499E0C3947F40C6E48068
:10094000C5E8FAE9FB7F02021169C082C083C2E9EF
:10095000900498E0F8A3E0686017741828F582E422
:100960003404F583E0F5C1900498120AFA4002E4D9
:10097000F0020D4074F812104C7800790090051DBB
:10098000E07055A3E0705175F900C28FC284A28354
:1009900040FCA28F4004A28350F8AEF9C28FA2831C
:1009A0005004D2848032EEC0E0E0FE1209F6D0E0BE
:1009B000F090051E120AFA40D9E4F080D51209F62B
:1009C000E08A828B83F090051D120A014005900594
:1009D0001DE4F008E870010990051DE0FEA3E06E3B
:1009E0006007C3E89CE99D40D4E8497006E4F090B4
:1009F000051DF00208BF749D2EF582E43404F583D2
:100A000022E004120AD7C394802274F812104C908A
:100A100005A0E0FEF890059FE0FFEEC39FE0500DBB
:100A2000C398F895E0F9120AE270188012C398F89A
:100A300095E0F9E8247F500109C39CE99D4004EC4E
:100A40004D70077A007B00020AD08A828B83E0F522
:100A5000F9A3AA82AB83780179008008E004F0084A
:100A6000E8700109C3E89CE99D50278A828B83E0E6
:100A7000C0E09005A0E0FE741F2EF582E43405F579
:100A800083D0E0120AD39005A0E0C3947F40CDE468
:100A900080CCC28FA28340FCC284A28F4004A28378
:100AA00050F890059F120AEDE0F5F9C28F90059F6E
:100AB000E0FAA3E06A90059F7005120AED80051226
:100AC0000AFA4002E4F0A28350D0D284E8FAE9FBAB
:100AD0000208C3120AD722F08A828B83A3AA82ABB0
:100AE0008322E824FF18E934FFF9E84922E0FA7488
:100AF0001F2AF582E43405F58322E004F0C39480D4
:100B00002274FB121271C2009005CA7808121323D6
:100B10009005CA7401F0A3F0A37469F0A374A5F062
:100B20009005B678081212877004D20080159005DF
:100B3000BA78081212876008E59D54186410700393
:100B4000022000120C87A2005003020C04AA18AB6A
:100B5000191201FFE97003020C04851882851983BC
:100B6000E0C3943C500CE0F8743CC398FA95E0FB69
:100B700080047A007B00120D45E97003020C04909A
:100B80000391E06401700C75F800C2AB539AF7D280
:100B9000EA805E79071200B68003120D22120D2C36
:100BA000E970F7740112133FE4F0A37426F0A3E494
:100BB000F0A3F0740112133F780812132385080C78
:100BC00085090D850A0E850B0F9005A2780C12126F
:100BD000C2740112133F780C121314E5084509453D
:100BE0000A450B70CE758600C2AAC28B539AFBC20F
:100BF000E990000174CDF0022000C2AF75C9AB7559
:100C0000C95B80FE750800750900750A00750B0048
:100C1000900391E0701BD2AAD2AF79051200B6E022
:100C20007003120D221200DBE9F874096870098064
:100C3000E9794E120C6180ED74016870E2E0701782
:100C4000120D229005BE78081212C29005C27808D3
:100C50001211E550EBC2AAC2AF75C9AB75C95B8072
:100C6000FEC082C08378109005A1E0C3995015752D
:100C7000B60FE5B4A2E750FAE5BBC39940F118E816
:100C800070EDE9F0020D40C082C08353BEFBE59DCC
:100C9000A2E650FA0078F8790100120AE270FA75BB
:100CA000C6807480659E70FA43BE049062707408BA
:100CB000F0794A120C6190000174F5F07403F5D5D7
:100CC00075D489A2A0E433900391F0A2E05029D218
:100CD0008453F3F753F3EF53FDF743FD10538FF7AE
:100CE00053F7DF43FC2043F10253F5DF75F820434F
:100CF000F4F0D2FED2AB802853FF3F85FFFF53F1C3
:100D0000FE43F30C53F2F375868075C48090049B08
:100D1000E4F0A3F075C2D875C50B75C402438640D4
:100D2000801E800312094AA2E940F922C082C083D2
:100D3000900498E0F8A3E0686004790180027900EB
:100D4000D083D0822274F112104C74FF1212717E83
:100D500000900391E06401706CC28490039274016E
:100D6000F07508388E098E0A8E0B7C017D00AA185A
:100D7000AB19120E228B0DEA450D6018851882857D
:100D80001983E06410602DE064EF70088E088E090E
:100D90008E0A8E0B85080C85090D850A0E850B0FB2
:100DA0009005A278081212C2E50C450D450E450FBC
:100DB00070347E01900391E064017056D2849003F8
:100DC00092E4F08051D2AAD2AF8A088B09E4F50AE6
:100DD000F50B9005C6780C1213237808790C120FC6
:100DE000CC79061200B6900391E06003020D6A12FE
:100DF0000D221200DBE9F874096870077906120009
:100E0000B680917407686084E8608974066870A48D
:100E10008082C2AFC2AAEEF9740112123D7F0802AD
:100E20001169C082C083900391E07005120881802F
:100E30001E900392E06015A28F500BE5F98A828B19
:100E400083F07A0180027A007B0080031209740229
:100E50000D40C082C083900391E070051208C880E5
:100E600003120A0A020D40C0E074F21210B29000A0
:100E700001E064CD7005122013802AE064F570242F
:100E8000E5C1C28BC0E0900415E0F8749428F582A7
:100E9000E43403F583D0E0F0900415120AFA40051B
:100EA000E4F08001007F01021111C0E074F2121021
:100EB000B2900001E064CD700512203B800BE0642D
:100EC000F5700512094A80010080DA74F612104CA0
:100ED000890A740F550AF508750900740B78081211
:100EE000129CEA2400F8EB3480F9E82400E9350983
:100EF000F985C709A2AFE433F508C2AFE50AC454C7
:100F00000FFAE5C754F84AF5C7740A12133FE0FA1E
:100F1000A3E0FB801C88828983E08C828D83F0882B
:100F2000828983A3A882A9838C828D83A3AC82AD9E
:100F300083EAFEEBFFEE24FF1AEF34FFFBEE4F7067
:100F4000D48509C7E508A2E092AF7F030211697456
:100F5000F712104CED900389F0ECA3F0A37462F04B
:100F6000A37473F0A3E0541FF0740912133FE0F56B
:100F700008A3E0F509E508333354FC90038EF074C0
:100F80000678081212F6E50890038DF090038F742E
:100F900012F0A37442F075D1FE75D601EA90627129
:100FA000F0EBA3F0906270E0D2E1F0E0A2E740FB4A
:100FB0007F02021169C082C083E9C333906272F07C
:100FC000906270E0D2E0F0D083D08222080808EA74
:100FD000C0E0EBC0E086F0E7A4FA180986F0E7A4C9
:100FE0002AFA180986F0E7A42AFA180986F0E7A475
:100FF0002AFA1986F0E7A4FBE5F02AFA190886F028
:10100000E7A42BFBE5F03AFA190886F0E7A42BFBDE
:10101000E5F03AFA18180986F0E7A4C5F02BFBE4CE
:101020003AFA1908E7C5F0C6A426F6E5F03BFBE45A
:101030003AFA1886F0E7A4F6E5F00826F6E43B084D
:10104000F6E43A08F6D0E0FBD0E0FA222518C58293
:10105000C0E0E51934FFC583C0E0E518C3958224DC
:10106000F910AF0885831985821880088583198552
:101070008218D2AFCEF0A3E520F0A37808E608F0FE
:10108000A3DEFAEFF0A3E58124FBF8E608F0A3E67F
:1010900008F0A30808E608F0A3E608F0A3158115F8
:1010A00081D0E0FED0E0F815811581E8C0E0EEC007
:1010B000E022C0D02518C582C0E0E51934FFC58301
:1010C000C0E0E518C3958224F310AF088583198525
:1010D00082188008858319858218D2AFC8F0A3E9E9
:1010E000F0A3EAF0A3EBF0A37908E709F0A3D8FA9C
:1010F000ECF0A3EDF0A3EEF0A3EFF0A3D0E0F0A3AB
:10110000D0E0F0A3D0E0F0A3E520F0A3E5F0F0A359
:1011100022851983851882E0C0E0A3E0F9A3E0FAF4
:10112000A3E0FBA37808E0F608A3DFFAE0FCA3E065
:10113000FDA3E0FEA3E0FFA3E0C0E0A3E0C0E0A3C6
:10114000E0F5D0A3E0F520A3E0A3F5F010AF08850B
:1011500083198582188008858319858218D2AFD0BB
:1011600082D083D0E0F8D0E032851983851882E000
:10117000A3FEE0A3F5207808E0A3F608DFFAE0A3D9
:10118000FFE0A3C0E0E0A3C0E0E0A3C0E0E0A3C0B4
:10119000E010AF088582188583198008858218853C
:1011A0008319D2AFD083D08222E490030278A17950
:1011B000038002F0A3D8FCD9FA7AA27B0590008EB6
:1011C000782979018015E493A3AD82AE838A828B5E
:1011D00083F0A3AA82AB838D828E83D8E9D9E712EC
:1011E0000B01121349C008C3E096F50808A3E09666
:1011F000420808A3E096420808A3E096450870015B
:10120000D3D00822C5822518C582C583351910AFF1
:1012100007F5198582188007F519858218D2AFC5A0
:1012200083222518F58210AF08F518400C15198097
:1012300008F51840021519D2AF8519832200C0D0D5
:10124000251810AF08F518500C05198008F518502E
:10125000020519D2AFD0D0226016080808C6C31301
:10126000C618C613C618C613C618C613C6D5E0EAF4
:1012700022251810AF08F518400C15198008F5182C
:1012800040021519D2AF22E066701008A3E0667024
:101290000A08A3E066700408A3E0662270042260D6
:1012A0000D18C6C333C608C633C6D5E0F41822E607
:1012B00027F60809E637F60809E637F60809E6379B
:1012C000F622E026F608A3E036F608A3E036F60894
:1012D000A3E036F62274028000C0E0F40412122269
:1012E000D0E0121332222518FAE43519FB22251812
:1012F000FCE43519FD22600C08C6C313C618C613DA
:10130000C6D5E0F42275D00075813F7518027519B5
:10131000030211A9E6F008A3E6F008A3E6F008A38B
:10132000E6F022E0F608A3E0F608A3E0F608A3E062
:10133000F622CAC0E0E6F0A308DAFAD0E0FA2225E5
:1013400018F582E43519F5832200000080FBFFFFC9
:10135000FFFFFFFFFFFFFFFFFFFFFFFFFFFFFFFF9D
:10136000FFFFFFFFFFFFFFFFFFFFFFFFFFFFFFFF8D
:10137000FFFFFFFFFFFFFFFFFFFFFFFFFFFFFFFF7D
:10138000FFFFFFFFFFFFFFFFFFFFFFFFFFFFFFFF6D
:0A1FF600CA05094338860000000008
:020000040003F7
:01FFF000F020
:020000040000FA
:10200000022C7A02221AFFFFFFFFFFFFFFFFFFFFF4
:10201000FFFFFFFFFFFFFFFFFFFFFFFFFFFFFFFFD0
:10202000FFFFFFFFFFFFFFFFFFFFFF022A06FFFF8B
:10203000FFFFFFFFFFFFFFFFFFFFFFFFFFFFFFFFB0
:10204000FFFFFF022775FFFFFFFFFFFFFFFFFFFFFF
:10205000FFFFFF022154FFFFFFFFFFFFFFFFFFFF16
:10206000FFFFFFFFFFFFFFFFFFFFFF022920FFFF32
:10207000FFFFFFFFFFFFFFFFFFFFFFFFFFFFFFFF70
:10208000FFFFFF0221AB01FFFFFFFFFFFFFFFFFF8D
:10209000102010200100F0FF0700080000FFFF00E3
:1020A00000030400000F0100000300019651180016
:1020B000020000D7310000000059315532A1311F14
:1020C000320000000000000000000000000000716D
:1020D00031000000000000000000007D3106FFFF1D
:1020E000FF010400000818000000E8030000FFFFE3
:1020F000D818018813000003E8030000640064009E
:10210000B801A0BB0D00A0BB0D0002020207040134
:102110000101051E02051E020A0A01010809080143
:1021200003B80B02803E0102FEFFE8030A0500012E
:10213000FFFF020A011401E00105030101FF0F1076
:10214000FEFF264E000000005C4D00000000FF0076
:102150000000FF00C0E074F2122595A2AFE433F551
:1021600008D2AFAFA7AEA1EE5F54106006122ECB1F
:1021700075A1EFEE5F54086008122ED175A1F780AB
:1021800023EEA2E092F0EFA2E082F0501790619867
:10219000E0F890093BE0C398A2D265D0335002E842
:1021A000F075A1FE751A00E5088066C0E074F212B1
:1021B0002595A2AFE433FED2AF9061A4E0F8759B01
:1021C00000E59158540860087591F7122F1F80237D
:1021D000E59158541060087591EF122F258014E591
:1021E00091A2E092F0E8A2E082F05007E0C2E0F0B5
:1021F0001230879061A3E0F8E5E9585404600E12AC
:10220000305D75E9FB906193E0A2E640F2751A003B
:10221000EEA2E092AF7F010225F4C0E074F2122535
:1022200095A2AFE433FED2AF9061A5E0F8E5BF58C8
:102230005404600675BFFB12309F80D1C3E498F848
:10224000E499F912227D8026C3E49AFAE49BFBE923
:1022500020E7E912227DE498F8E499F922C3E49892
:10226000F8E499F912227DE498F8E499F9C3E49A24
:10227000FAE49BFB22EB20E7CFE920E7E0B900106E
:10228000BB0008E88AF084F8AAF022E4FBC8FA222E
:10229000EB70227B10C833C8C933C9335007C39AC7
:1022A000C3DBF280069A50012ADBEAC833F4C8C9BE
:1022B00033F4C9FA2275F008E4C833C8C933C93306
:1022C000C99AC99B5004C92AC93BD5F0ECFBC83355
:1022D000F4C8E4C9FA2274F512252F74FA122AED13
:1022E0007508047509007808122A467404122AB782
:1022F0007AF87B077903122DA57402122A5990816E
:102300000B7808122CA87402122CFF7808122B18D4
:1023100070487508027509007808122A467402127E
:102320002AB77AF67B077903122DA57402122A596F
:10233000851882851983E0F47003A3E0F4601B859F
:102340001882851983E0F8A3E08882F5837402F08F
:10235000A3F0A37469F0A374A5F0C2AF75D69F0271
:1023600000007406122A597F040227B8080808EAF8
:10237000C0E0EBC0E086F0E7A4FA180986F0E7A415
:102380002AFA180986F0E7A42AFA180986F0E7A4C1
:102390002AFA1986F0E7A4FBE5F02AFA190886F074
:1023A000E7A42BFBE5F03AFA190886F0E7A42BFB2B
:1023B000E5F03AFA18180986F0E7A4C5F02BFBE41B
:1023C0003AFA1908E7C5F0C6A426F6E5F03BFBE4A7
:1023D0003AFA1886F0E7A4F6E5F00826F6E43B089A
:1023E000F6E43A08F6D0E0FBD0E0FA22E4CFC0E011
:1023F000E4CEC0E0E4CDC0E0E4CCC0E075F020E67F
:1024000026F608E633F608E633F608E633F618183B
:1024100018EC33FCED33FDEE33FEEF33FFC3EC97E6
:1024200009ED9709EE9709EF97191919400FFFEC7D
:1024300097FC09ED97FD09EE97FE191906D5F0BF37
:10244000ECF709EDF709EEF709EFF7191919D0E0E4
:10245000FCD0E0FDD0E0FED0E0FF222518C582C010
:10246000E0E51934FFC583C0E0E518C3958224F880
:1024700010AF0885831985821880088583198582A5
:1024800018D2AFCEF0A3E520F0A37808E608F0A3B9
:10249000DEFAEFF0A3E58124FAF8E608F0A3E608F7
:1024A000F0A3E608F0A30808E608F0A3E608F0A306
:1024B00015811581D0E0FED0E0F8158115811581D8
:1024C000E8C0E0EEC0E022122CF4B90003022519A6
:1024D000E49004D1781F791A8002F0A3D8FCD9FACD
:1024E000781A9020867A01BA00028007E493A3F656
:1024F00008DAF97AEF7B1D90209478C17901801574
:10250000E493A3AD82AE838A828B83F0A3AA82ABCD
:10251000838D828E83D8E9D9E7758280758386742E
:10252000071229E875825775834B74001229E82534
:1025300018C582C0E0E51934FFC583C0E0E518C3C3
:10254000958224F910AF0885831985821880088543
:102550008319858218D2AFCEF0A3E520F0A37808C6
:10256000E608F0A3DEFAEFF0A3E58124FBF8E60825
:10257000F0A3E608F0A30808E608F0A3E608F0A335
:1025800015811581D0E0FED0E0F815811581E8C0F5
:10259000E0EEC0E022C0D02518C582C0E0E51934C5
:1025A000FFC583C0E0E518C3958224F310AF08850A
:1025B00083198582188008858319858218D2AFC84F
:1025C000F0A3E9F0A3EAF0A3EBF0A37908E709F0A0
:1025D000A3D8FAECF0A3EDF0A3EEF0A3EFF0A3D0B4
:1025E000E0F0A3D0E0F0A3D0E0F0A3E520F0A3E575
:1025F000F0F0A322851983851882E0C0E0A3E0F9FA
:10260000A3E0FAA3E0FBA37808E0F608A3DFFAE072
:10261000FCA3E0FDA3E0FEA3E0FFA3E0C0E0A3E095
:10262000C0E0A3E0F5D0A3E0F520A3E0A3F5F0100F
:10263000AF088583198582188008858319858218DB
:10264000D2AFD082D083D0E0F8D0E03275F0108ED7
:10265000218F22858226858325851882851983E02E
:10266000CEA3E0CF852682852583EBC9EAC8EDCBD2
:10267000ECCAC3E833C8E933C9EA33CAEB33CBC386
:10268000EA9EF524EB9FF523B35004AB23AA24EC78
:1026900033CCED33CDD5F0DAAE21AF2222D083D0CA
:1026A00082ECC0E0EDC0E0E493A3FCE493A3FDED75
:1026B0004C600D1227F8EC24FFFCED34FFFD80EF99
:1026C000E493A3FCE493A3FDED4C600D1228CBEC46
:1026D00024FFFCED34FFFD80EFD0E0FDD0E0FCE412
:1026E00093A3C0E0E493C0E022851983851882E0BB
:1026F000A3FEE0A3F5207808E0A3F608DFFAE0A344
:10270000FFE0A3C0E0E0A3C0E0E0A3C0E0E0A3C01E
:10271000E0E0A3C0E010AF08858218858319800827
:10272000858218858319D2AFD083D0820229EED05A
:1027300083D082E9C0E0E493A3C386F0C5F095F0AE
:10274000F908E493A386F0C5F095F0700BE493A329
:10275000C3994005E9048002A3E475F002A4258230
:10276000F582E5F03583F583D0E0F9E493A3C0E08A
:10277000E493C0E022C0E074F2122595A2AFE433E6
:10278000FED2AFC2C0901A89E0700BE5D1A2E4502E
:102790001D122E298018E5D1A2E3500675D1F7123B
:1027A0002DFFE5D1A2E4500675D1EF122E05EEA261
:1027B000E092AF7F010225F4851983851882E0A39A
:1027C000FEE0A3F5207808E0A3F608DFFAE0A3FF17
:1027D000E0A3C0E0E0A3C0E0E0A3C0E0E0A3C0E06D
:1027E00010AF088582188583198008858218858333
:1027F00019D2AFD083D08222C0E0C3E4939608748C
:1028000001939618400FE49366700808740193666C
:102810001870007019A3A3C3E493960874019396EB
:1028200018A3A3400DD0E0D0E0D0E00226D9A3A3A6
:10283000A3A3A3A3D0E022D083D082C5F0E493A3C6
:10284000C5F0C395F0F5F0E493A3C395F04005E51A
:10285000F0048001E475F002A42582F582E5F035EC
:1028600083F583E493A3C0E0E493C0E02274048082
:102870000474028000CCC0E0EDC0E0E518C39CCC3D
:10288000AD1950011D10AF068C188D1980068C18DB
:102890008D19D2AF12296AD0E0FDD0E0FC2274027B
:1028A0008000CCC0E0EDC0E0E518C39CCCAD195071
:1028B000011D10AF068C188D1980068C188D19D249
:1028C000AF122948D0E0FDD0E0FC22C0E0C0F08883
:1028D000F0E4936670080874019366187000A8F01D
:1028E000A3A3700BD0F0D0E0D0E0D0E00226D9A3B3
:1028F000A3D0F0D0E022D083D082CCC0E0E493A378
:1029000060061229AA1470FAE493A36006122AD76B
:102910001470FAD0E0FCE493A3C0E0E493C0E0229A
:10292000C0E074F2122595758900C2C5901A89E03D
:10293000700E7A007B109009D3E0F9123381800386
:10294000123C097F010225F4CAC0E0E493A3C582CA
:10295000CCC582C583CDC583F0A3C582CCC582C555
:1029600083CDC583DAE5D0E0CA22CAC0E0E0A3C5C2
:1029700082CCC582C583CDC583F0A3C582CCC58278
:10298000C583CDC583DAE6D0E0CA22C008C3E0968D
:10299000F50808A3E096420808A3E096420808A3B9
:1029A000E09645087001D3D00822C0E0E493A3D399
:1029B0009C5010E493A3C39C400AD0E0D0E0D0E048
:1029C000022913A3A3A3D0E02270090808082260FB
:1029D00016181818C6C333C608C633C608C633C689
:1029E00008C633C6D5E0EA22C09FF59FE473D09FA6
:1029F00022D083D082C09FE493C0E0740193C0E0F2
:102A0000740293F59F22C0E0C0D0E8C0E0A8A8D22D
:102A1000AFC2C7751A00E8A2E792AFD0E0F8D0D0F5
:102A2000D0E0322518F58210AF08F518400C1519C2
:102A30008008F51840021519D2AF85198322740455
:102A4000800A74038006740280027401C0E0F404FA
:102A5000122A23D0E0122CB72200C0D0251810AFC4
:102A600008F518500C05198008F51850020519D200
:102A7000AFD0D022BB0102E722C082C08389828A04
:102A800083BB0003E08002E493D083D082226016EF
:102A9000080808C6C313C618C613C618C613C61836
:102AA000C613C6D5E0EA222518F8E43519F922251F
:102AB00018FAE43519FB222518FCE43519FD22C368
:102AC000E0C696F608A3E0C696F608A3E0C696F61A
:102AD00008A3E0C696F622C0E0E493A36C7009D088
:102AE000E0D0E0D0E0022913A3A3D0E02225181003
:102AF000AF08F518400C15198008F5184002151993
:102B0000D2AF22E76670100809E766700A0809E785
:102B10006670040809E76622E066701008A3E066A4
:102B2000700A08A3E066700408A3E06622C3E0967A
:102B300008A3E09608A3E09608A3E096A2D265D089
:102B40003322C3E096F008A3E096F008A3E096F0E5
:102B500008A3E096F022C3E697F60809E697F60880
:102B600009E697F60809E697F622C3E493960874F7
:102B70000193960874029396087403939622E627AD
:102B8000F60809E637F60809E637F60809E637F6E3
:102B900022E026F608A3E036F608A3E036F608A3FE
:102BA000E036F622E493F608740193F60874029373
:102BB000F608740393F622E647F60809E647F60896
:102BC00009E647F60809E647F622E657F60809E659
:102BD00057F60809E657F60809E657F622E056F6D2
:102BE00008A3E056F608A3E056F608A3E056F6223E
:102BF000E056F008A3E056F008A3E056F008A3E082
:102C000056F022E026F008A3E036F008A3E036F004
:102C100008A3E036F022700422600D18C6C333C644
:102C200008C633C6D5E0F41822E4C396F608E49645
:102C3000F608E496F608E496F622C6F4C608C6F44A
:102C4000C608C6F4C608C6F4C622600D08C6A2E7C8
:102C500013C618C613C6D5E0F322C3E7960809E7E2
:102C6000960809E7960809E79622C3E09608A3E0CC
:102C70009608A3E09608A3E0962275D00075813FE0
:102C80007518D1751904000224C7600C08C6C31357
:102C9000C618C613C6D5E0F422E6F008A3E6F0088D
:102CA000A3E6F008A3E6F022E0F608A3E0F608A306
:102CB000E0F608A3E0F622CAC0E0E6F0A308DAFADC
:102CC000D0E0FA22EAF0A3EBF0A3ECF0A3EDF022BF
:102CD000E0FAA3E0FBA3E0FCA3E0FD22E0F8A3E020
:102CE000F9A3E0FAA3E0FB22E8F0A3E9F0A3EAF0FD
:102CF000A3EBF022E5C754F84401F5C7790122257A
:102D000018F582E43519F583221229F127D305122B
:102D100029F109D4051229F1EED4051229F133D590
:102D2000051229F194D5051229F120D6051229F1B1
:102D30004CD6051229F197D6051229F1BDD60512F8
:102D400029F155D7051229F1FED7051229F151D8DD
:102D5000051229F182D8051229F1B9D8051229F1F5
:102D60005DDA051229F129DB051229F1DCDB0512F8
:102D700029F1B790071229F1C890071229F166913D
:102D8000071229F1E87F001229F1E8FF031229F167
:102D90007E91071229F18E91071229F1A391071252
:102DA00029F13492071229F1F7FE061229F17AFF70
:102DB000061229F1E0FF061229F1EB7F001229F13A
:102DC000E6FF051229F1F6FF051229F1F9FF0512B8
:102DD00029F1FCFF051229F1F87F001229F16F8417
:102DE000071229F19184071229F1F985071229F1B7
:102DF0007D86071229F1B4FF021229F1BDFF0212EC
:102E000029F1C6FF021229F1D4FF021229F117BBE2
:102E1000061229F183BB061229F14BBC061229F1D7
:102E20002CBD061229F129BF061229F190BF061206
:102E300029F1E3BF061229F1F4BF061229F104C0FB
:102E4000061229F176C0061229F18CC0061229F16A
:102E500097C0061229F1A5C0061229F1B7C00612C3
:102E600029F1ACFA031229F1D8FA031229F15AFD1B
:102E7000031229F1B1FD031229F1F1FD031229F129
:102E800005FE031229F11EFE031229F10FFF0312A2
:102E900029F1C0FF031229F1D4FF031229F1EA89B5
:102EA000071229F10E8A071229F1278A071229F140
:102EB000598A071229F1898A071229F1B68A07125D
:102EC00029F1C08A071229F1228B071229F1318BCF
:102ED000071229F13B8B071229F1488B071229F1C0
:102EE000B2F9061229F1D2F9061229F111FA0612E5
:102EF00029F12CFA061229F14BFA061229F1B1FA3E
:102F0000061229F1BAFA061229F117FB061229F165
:102F100026FB061229F14AFB061229F10BFC0612C8
:102F200029F118FC061229F129FC061229F16DFF7E
:102F3000011229F185FF011229F1B1FF011229F1D6
:102F40000CC1061229F160C2061229F16EC20612E6
:102F500029F181C2061229F196C2061229F1ABC2EB
:102F6000061229F1BEC2061229F132C3061229F156
:102F700097C3061229F11FC4061229F19BC4061239
:102F800029F15FC5061229F16FC5061229F17EC528
:102F9000061229F14794071229F16B94071229F1BF
:102FA0009394071229F1BB94071229F157FC0612DA
:102FB00029F17EFC061229F19DFC061229F105FD7E
:102FC000061229F1A0F6061229F1B9F6061229F126
:102FD000C5F6061229F1D9F6061229F1F7F60612FE
:102FE00029F101F7061229F10BF7061229F11EF754
:102FF000061229F1AFF7061229F11EF8061229F17F
:1030000052F8061229F1A0F8061229F1EDF806127D
:1030100029F108F9061229F112F9061229F138F9F5
:10302000061229F19DF9061229F1DD8F071229F107
:10303000FF8F071229F18D90071229F1DDFF02128F
:1030400029F171F6051229F19BF6051229F1B8F65E
:10305000051229F1CBF6051229F1E1F6051229F145
:103060003FF7051229F172F7051229F167FB0512E6
:1030700029F1C7FC051229F1FAFC051229F144FDDA
:10308000051229F1BAFE051229F1E2FE051229F115
:10309000F7FE051229F107FF051229F14BFF051272
:1030A00029F1A6FF051229F1B6FF051229F1AD8C11
:1030B000071229F1C78C071229F1EF8C071229F1A9
:1030C000088D071229F12C8D071229F14A8D07125C
:1030D00029F1618D071229F18F8D071229F1AA8D2F
:1030E000071229F14492071229F18A92071229F155
:1030F000F1EF061229F101F0061229F108F106128A
:1031000029F13CF1061229F168F1061229F18BF13F
:10311000061229F1A9F1061229F1E3F1061229F1AB
:103120004CF2061229F18EF2061229F1CDF20612A6
:1031300029F1FEF2061229F129F3061229F1C0DC69
:10314000061229F125DD061229F1CBDD061229F13F
:1031500002DE061229F143EC061229F102ED0612F5
:1031600029F107ED061229F10AED061229F1C3ED46
:10317000061229F1C97D001229F1E57F001229F11B
:1031800096A6061229F1BAA6061229F1F9A7061287
:1031900029F192A9061229F116AC061229F14DACBB
:1031A000061229F19BAD061229F143B1061229F14D
:1031B000E4B1061229F1C6B2061229F1F2B20612E2
:1031C00029F120B3061229F155B3061229F17DB376
:1031D000061229F1DDB3061229F1F8E9051229F1E9
:1031E000DFED051229F1CEEF051229F1F7F00512F6
:1031F00029F1D7F1051229F185F3051229F12FF5EF
:10320000051229F1FFF5051229F153F6051229F1EE
:103210000880071229F11280071229F13380071262
:1032200029F1BDDC051229F1D2E1051229F140E3B3
:10323000051229F1FCE4051229F1F9E5051229F13D
:1032400029E7051229F141E8051229F121E90512C2
:1032500029F10080051229F13880051229F15E8AD2
:10326000051229F13F8B051229F18B8C051229F1EA
:10327000D48D051229F18A8E051229F15E8F05126F
:1032800029F14590051229F12D91051229F1CF91CF
:10329000051229F1F991051229F1A993051229F1D5
:1032A0001994051229F18C94051229F1E395051260
:1032B00029F19496051229F11697051229F1C29762
:1032C000051229F13298051229F1D498051229F135
:1032D0004599051229F17D99051229F17F9A051268
:1032E00029F12F9B051229F1D59B051229F17B8825
:1032F000071229F1A588071229F1BA89071229F1C5
:10330000BD89071229F19D93071229F1E493071251
:1033100029F12694071229F13694071229F198B45D
:10332000061229F1D6B4061229F13FB5061229F189
:103330005CB5061229F175B5061229F127B60612F9
:1033400029F130B6061229F175B6061229F1ABB68D
:10335000061229F1C2B6061229F134B7061229F174
:10336000C1B7061229F1F7B7061229F14EB80612B5
:1033700029F1B2B8061229F1D5B8061229F139B9E6
:10338000061229F195B9061229F1D0B9061229F1D0
:1033900005BA061229F117BA061229F129BA06123E
:1033A00029F161BA061229F1ADBA061229F1EBBA78
:1033B000061229F1A0CA061229F1E0CB061229F162
:1033C00003CC061229F114CC061229F109CE0612FB
:1033D00029F129CE061229F13882071229F16C82CF
:1033E000071229F1B482071229F11084071229F17A
:1033F000E4EB021229F115ED021229F14FED021250
:1034000029F10EEF021229F138EF021229F1C5F16C
:10341000021229F105F2021229F19CF3021229F19C
:103420002FF4021229F187F4021229F12AF502126F
:1034300029F162F5021229F1A4F5021229F113F71C
:10344000021229F165F8021229F188FA021229F113
:10345000B6FA021229F1DDFA021229F1E6FA021295
:1034600029F136FB021229F1C8FB021229F1B8FE3C
:10347000021229F13BFF021229F1F892071229F1F9
:103480000E93071229F11893071229F1729307126C
:1034900029F11ED4061229F134D4061229F1D9D407
:1034A000061229F118D5061229F135D5061229F18F
:1034B00066D5061229F1B3D5061229F1E6D5061212
:1034C00029F121D6061229F10DD8061229F16ED85C
:1034D000061229F1D6FE041229F135FF041229F152
:1034E0008FFF041229F1DD8D071229F14F8E07128B
:1034F00029F18D8E071229F1CE8E071229F1289716
:10350000061229F12E97061229F16F97061229F15A
:103510006199061229F1D099061229F19E9A061294
:1035200029F1DF9A061229F10D9B061229F1979BCA
:10353000061229F1AE9B061229F1BB9B061229F156
:10354000C59B061229F1619D061229F1719E061292
:1035500029F1BA9E061229F1F79E061229F10D9F54
:10356000061229F1A09F061229F1CCA0061229F11A
:10357000C1A1061229F15EA2061229F1C3A2061208
:1035800029F1DFA2061229F132A3061229F1A3A420
:10359000061229F1A8A4061229F1C8A4061229F1DD
:1035A000EFDB031229F121DC031229F1BADC03124B
:1035B00029F113DE031229F1F6DE031229F175E079
:1035C000031229F191E0031229F1E0E0031229F13D
:1035D00062E1031229F1B7E1031229F1CAE10312F2
:1035E00029F12EE2031229F189E2031229F12EE3D7
:1035F000031229F125E4031229F160E4031229F1F1
:10360000E6E4031229F137E7031229F1FBE703127D
:1036100029F11FE9031229F196E9031229F1C4E9FE
:10362000031229F18EEA031229F113EB031229F197
:103630005FEB031229F179EB031229F1C2EB0312BC
:1036400029F1D8EB031229F192EC031229F1B8ED1C
:10365000031229F1C3ED031229F121EE031229F11E
:1036600076EE031229F1D4EE031229F1D0EF031202
:1036700029F173F2031229F192F2031229F19AF35C
:10368000031229F1BEF3031229F134F4031229F1D4
:10369000F4F4031229F12BF5031229F19DF503121D
:1036A00029F1BDF6031229F1EDF6031229F100F715
:1036B000031229F103F7031229F10CF7031229F180
:1036C0001EF7031229F18FF7031229F1C5F7031230
:1036D00029F1D8F7031229F104F8031229F12BF884
:1036E000031229F14FF8031229F1EEF8031229F120
:1036F00060F9031229F197F9031229F1A1F90312D4
:1037000029F1D8F9031229F1EEF9031229F10BFA84
:10371000031229F139FA031229F14FFA031229F1A0
:1037200067FA031229F179FA031229F1F08E0712D0
:1037300029F1018F071229F18C8F071229F16FCF20
:10374000061229F1ADCF061229F139D0061229F15E
:1037500044D1061229F160D3061229F195D306123D
:1037600029F162F8011229F1B1F8011229F151FA97
:10377000011229F125FC011229F167FC011229F13E
:1037800032FD011229F13AFE011229F15CFE01120B
:1037900029F1B8FE011229F139FF011229F15C511A
:1037A000001229F17E51001229F11153001229F162
:1037B0005A53001229F1CE53001229F14B54001232
:1037C00029F1B054001229F1B354001229F1F55433
:1037D000001229F16555001229F11456001229F141
:1037E0001756001229F18C56001229F1D1560012F9
:1037F00029F1D25A001229F13B5C001229F1795CBF
:10380000001229F1CF5C001229F11560001229F194
:103810009260001229F13762001229F167630012E9
:1038200029F1AE64001229F12865001229F14466DD
:10383000001229F1E966001229F1FD66001229F152
:10384000CB67001229F1F968001229F1116B0012FF
:1038500029F1236D001229F1026E001229F19D70E9
:10386000001229F13E71001229F12D72001229F186
:103870008775001229F19775001229F1FC76001264
:1038800029F18D77001229F19578001229F1207A1B
:10389000001229F19E7A001229F1E67B001229F12B
:1038A000307C001229F1097D001229F17C9C05125F
:1038B00029F11C9D051229F1869D051229F19F9D74
:1038C000051229F1369E051229F17A9E051229F179
:1038D0009C9F051229F1D89F051229F154A00512C9
:1038E00029F19FA0051229F1FEA0051229F107A2D6
:1038F000051229F12AA5051229F14BA6051229F175
:10390000C6A6051229F1ADA8051229F14DA9051287
:1039100029F1F4A9051229F157AA051229F1CCAA17
:10392000051229F1DBAB051229F1AFAC051229F123
:10393000E5AC051229F114AD051229F1C8AD051247
:1039400029F1F4AD051229F174AE051229F1F4AF95
:10395000051229F180B1051229F1C8B2051229F129
:1039600033B4051229F13FB5051229F1E2B505126C
:1039700029F15BB6051229F189B7051229F1B2BC0C
:10398000041229F115BD041229F15DBD041229F1BB
:10399000A1BD041229F10BBE041229F154BE041278
:1039A00029F18CBE041229F126BF041229F180BF2F
:1039B000041229F1CDC0041229F156C1041229F1D3
:1039C0007DC1041229F187C2041229F172C30412C5
:1039D00029F1BFC3041229F1BEC4041229F1E6C4BF
:1039E000041229F12FC6041229F140C6041229F14C
:1039F00058C6041229F141C7041229F127C804123C
:103A000029F130C9041229F15AC9041229F172C9E5
:103A1000041229F18CC9041229F1C3C9041229F135
:103A2000E3C9041229F10ACA041229F121CA0412B5
:103A300029F1FDCA041229F155CB041229F1FECD5A
:103A4000041229F12DCF041229F163CF041229F1B8
:103A50006DCF041229F184CF041229F1F1CF0412A1
:103A600029F1DAD0041229F110D1041229F1E1D19F
:103A7000041229F182D2041229F1B0D2041229F1E0
:103A8000BDD3041229F1DCD3041229F15FD404124E
:103A900029F1D0D4041229F114D5041229F198D5B2
:103AA000041229F1F5D5041229F1A2D6041229F144
:103AB00088D8041229F168D9041229F1BED9041258
:103AC00029F11CDB041229F132DD041229F1DCDFBB
:103AD000041229F186E1041229F156E2041229F1B7
:103AE000CEE2041229F1F0E2041229F1DFE304121C
:103AF00029F1CFE4041229F13AE5041229F17BD827
:103B0000061229F18FDA061229F155DB061229F186
:103B1000AADB061229F127DC061229F1B1E0061210
:103B200029F1CFE0061229F113E1061229F139E15A
:103B3000061229F15FE1061229F177E1061229F157
:103B40008FE1061229F1FAE1061229F13CE2061290
:103B500029F151E2061229F158E3061229F173E323
:103B6000061229F17CE3061229F190FD041229F1D5
:103B70008EE3061229F198E3061229F115E40612E4
:103B800029F1B7C5061229F118CA061229F134CA5B
:103B9000061229F139CA061229F10187071229F103
:103BA0006FE8061229F185E8061229F11EEA0612CD
:103BB00029F167EA061229F1D3EA061229F1E3EBAB
:103BC000061229F112EC061229F124EC061229F151
:103BD000CFD2051229F181F3061229F1DDF3061285
:103BE00029F11DF4061229F111F5061229F135F516
:103BF000061229F14AF5061229F16AF5061229F191
:103C0000A1F5061229F1B2F5061229F1C9F506123D
:103C100029F1EEF5061229F17DF6061229F188FF49
:103C2000021229F10080031229F13380031229F1D5
:103C30009A80031229F12681031229F1CD81031202
:103C400029F11582031229F13A82031229F15382D4
:103C5000031229F17982031229F19B82031229F1BF
:103C6000D982031229F12883031229F15183031207
:103C700029F1B083031229F18984031229F13F85C8
:103C8000031229F19D85031229F16386031229F19C
:103C9000AD86031229F10487031229F16F870312FD
:103CA00029F1AD87031229F10388031229F11F8836
:103CB000031229F14A88031229F1598A031229F1C2
:103CC0009F8B031229F1CB8B031229F1FF8B031277
:103CD00029F1208C031229F12F8C031229F13A8C3F
:103CE000031229F1EA8C031229F1598D031229F1EB
:103CF000068E031229F1428E031229F1008F03125E
:103D000029F10D90031229F15A90031229F1E9903B
:103D1000031229F14391031229F18891031229F129
:103D20001794031229F17195031229F1BD9803121A
:103D300029F19B99031229F1729A031229F1869AAB
:103D4000031229F1AF9A031229F1209B031229F1E2
:103D5000B69B031229F1299C031229F1189D031225
:103D600029F13D9D031229F1A09E031229F1BE9E67
:103D7000031229F1D19E031229F1359F031229F173
:103D8000449F031229F1CC9F031229F1E29F0312F1
:103D900029F1E6A0031229F1F3A0031229F1FCA0F6
:103DA000031229F1F6A2031229F126A4031229F124
:103DB00036A4031229F139A5031229F1B5A503127E
:103DC00029F1EEA5031229F126A7031229F16CA708
:103DD000031229F147A9031229F128AD031229F191
:103DE0003CAD031229F146AD031229F150AD031287
:103DF00029F15AAD031229F164AD031229F17DAD09
:103E0000031229F187AD031229F101AE031229F142
:103E10000CAE031229F13BAE031229F163AE03127B
:103E200029F16EAE031229F1BCAE031229F1C6AE20
:103E3000031229F1D1AE031229F1F5AE031229F1D3
:103E400019AF031229F176AF031229F1BCAF0312A7
:103E500029F1D8AF031229F15FB0031229F196B00E
:103E6000031229F1D5B0031229F122B1031229F16D
:103E7000A4B1031229F150B2031229F12CB4031298
:103E800029F19AB4031229F1C6B5031229F1ECB550
:103E9000031229F145B7031229F19DBA031229F142
:103EA000D6BC031229F1B4BE031229F14DBF03128F
:103EB00029F172C1031229F126C2031229F15FC24E
:103EC000031229F1C5C2031229F1CFC2031229F14D
:103ED000F9C4031229F104C6031229F14CC60312D6
:103EE00029F100C7031229F1A3C8031229F12ACA34
:103EF000031229F14ACA031229F19DCA031229F1BA
:103F00009DCB031229F1C5CB031229F128CC031252
:103F100029F10BCD031229F17DCD031229F18FCEAA
:103F2000031229F113CF031229F111D0031229F141
:103F3000A7D2031229F1C6D2031229F111D4031218
:103F400029F1DFD5031229F133D6031229F1EBD67B
:103F5000031229F19BD7031229F1FED7031229F18D
:103F6000C3D8031229F159D9031229F1C0D9031278
:103F700029F102DA031229F133DA031229F193DB72
:103F8000031229F10080021229F13280021229F174
:103F90006B80021229F16182021229F1A3820212BE
:103FA00029F18783021229F1DF83021229F1228588
:103FB000021229F16E85021229F19A88021229F162
:103FC000188C021229F1608D021229F1F68D02126D
:103FD00029F1028E021229F1428E021229F1D78FA5
:103FE000021229F1CB90021229F1F590021229F167
:103FF0004C91021229F1A591021229F11692021296
:1040000029F14B94021229F1E295021229F1B69698
:10401000021229F1FD97021229F1559A021229F193
:10402000269D021229F1359D021229F1B99D021235
:1040300029F16E9E021229F1B19E021229F1FA9E17
:10404000021229F14E9F021229F1B39F021229F1A7
:104050000FA0021229F12BA0021229F15DA0021279
:1040600029F19CA0021229F182A1021229F131A2A8
:10407000021229F1B7A4021229F1EDA5021229F1C9
:10408000D4A6021229F154A7021229F161AB02123F
:1040900029F19FAB021229F106AC021229F139ACC9
:1040A000021229F1CCAC021229F1FFAC021229F163
:1040B0009AAD021229F1E8AD021229F1BBAE02124B
:1040C00029F182AF021229F120B0021229F12AB39C
:1040D000021229F13EB4021229F1E4B7021229F1C9
:1040E000E6B8021229F1E9B8021229F118B9021250
:1040F00029F117BB021229F1F0BB021229F115BCFC
:10410000021229F131BD021229F1E9BD021229F191
:10411000A0BF021229F104C0021229F129C0021223
:1041200029F163C0021229F1BEC0021229F19FC118
:10413000021229F18DC2021229F1C1C2021229F123
:1041400077C3021229F188C5021229F1F3C50212C0
:1041500029F13BC6021229F174C6021229F106C7E1
:10416000021229F15FC8021229F137CC021229F19B
:104170002CCD021229F126CE021229F1A3CE021271
:1041800029F175CF021229F152D1021229F1E3D19E
:10419000021229F1E7D2021229F1FBD2021229F10F
:1041A0000FD3021229F123D3021229F137D30212BD
:1041B00029F16DD3021229F19DD3021229F127D5DD
:1041C000021229F1E5D5021229F169D6021229F16C
:1041D000BAD6021229F133D7021229F179D7021285
:1041E00029F15ED9021229F10EDA021229F13EDA22
:1041F000021229F1FDDA021229F19ADB021229F1E9
:1042000045DD021229F132DE021229F171DE0212BD
:1042100029F1E3DE021229F128E0021229F1DBE0A4
:10422000021229F10FE1021229F127E1021229F10C
:10423000CAE1021229F1B8E4021229F183E602125E
:1042400029F1A7E6021229F1C5E6021229F199E740
:10425000021229F1C6EB021229F194E4061229F1A7
:10426000D4E4061229F1A0E6061229F1AFE60612FF
:1042700029F1E4B8051229F1A8BD051229F1FDBD07
:10428000051229F13BC0051229F1DFC1051229F100
:104290006FC2051229F1CBC4051229F1D2C605124D
:1042A00029F129C7051229F11DC9051229F16AC989
:1042B000051229F1C8C9051229F1EAC9051229F127
:1042C000F1C9051229F109CA051229F1CDCA051251
:1042D00029F1C4CB051229F19281011229F1D4816F
:1042E000011229F12687011229F17287011229F1A1
:1042F000B887011229F10589011229F16F8901128C
:1043000029F1B789011229F1268B011229F16B8E4F
:10431000011229F1908F011229F14E9B011229F10E
:10432000D79B011229F13F9F011229F19EA0011292
:1043300029F1F9A0011229F141A2011229F129A3C1
:10434000011229F1D0A5011229F151A7011229F179
:10435000E2A7011229F1E5A7011229F15CA80112D7
:1043600029F166A8011229F173A8011229F19EA86A
:10437000011229F14DA9011229F13CAA011229F1DA
:10438000F5AA011229F178AB011229F196AB0112BD
:1043900029F1ABAB011229F1D4AB011229F101AC27
:1043A000011229F13EAE011229F11AAF011229F1D1
:1043B00064AF011229F1EFAF011229F19DB0011292
:1043C00029F1CFB0011229F115B1011229F148B13B
:1043D000011229F19CB1011229F1EDB1011229F16B
:1043E000F2B1011229F146B2011229F1AFB2011264
:1043F00029F17DB3011229F1C8B3011229F12DB4BD
:10440000011229F189B4011229F125B5011229F10E
:104410007FB8011229F1ACB9011229F14CBB01128C
:1044200029F1A2BE011229F138BF011229F168C297
:10443000011229F123C3011229F16BC3011229F1E1
:1044400024C5011229F138C5011229F142C5011212
:1044500029F14CC5011229F158C5011229F177C57E
:10446000011229F1C5C7011229F11EC8011229F153
:1044700028C8011229F132C8011229F1B8C8011265
:1044800029F10CC9011229F119CA011229F189CAAD
:10449000011229F193CB011229F1DCCB011229F190
:1044A00083CC011229F163CD011229F130CE011222
:1044B00029F163CF011229F1A0D0011229F1A1D174
:1044C000011229F1B9D1011229F1EDD1011229F11D
:1044D000F7D1011229F101D2011229F10CD20112F6
:1044E00029F12AD2011229F172D2011229F1D0D276
:1044F000011229F1F7D2011229F109D3011229F190
:10450000A4D3011229F1D9D3011229F1D7D4011270
:1045100029F12DD5011229F11CD6011229F152D60B
:10452000011229F1B5D6011229F12DD7011229F175
:10453000D2D8011229F1FAD9011229F1D8DA0112DF
:1045400029F1A9DB011229F12ADC011229F1C5DCCC
:10455000011229F1FADD011229F18CDE011229F193
:10456000E0DE011229F14CDF011229F112E0011203
:1045700029F163E0011229F1BBE0011229F18CE17C
:10458000011229F1AFE1011229F15EE2011229F1D4
:1045900080E2011229F1E1E2011229F12FE5011275
:1045A00029F132E6011229F1F6E6011229F12AE990
:1045B000011229F174E9011229F1BFE9011229F16F
:1045C0001AEA011229F187EA011229F1B5EA01126A
:1045D00029F1D9EA011229F10EEB011229F13BEB85
:1045E000011229F181EB011229F1DFEB011229F10E
:1045F00033EC011229F15DED011229F10AEF0112EC
:1046000029F153EF011229F17CEF011229F10EF08B
:10461000011229F186F0011229F194F0011229F119
:10462000B8F0011229F115F1011229F130F101124E
:1046300029F1F1F1011229F11DF2011229F160F2C3
:10464000011229F1C3F2011229F1BBF4011229F17F
:10465000E8F4011229F1DDF5011229F1DAF601126F
:1046600029F17DF7011229F1D18B061229F1098C6C
:10467000061229F12A8C061229F16E8C061229F1F4
:10468000D28C061229F1DC8C061229F1EC8C061270
:1046900029F1238D061229F11B91061229F1299384
:1046A000061229F11695061229F1AD95061229F187
:1046B0004F96061229F17380041229F11C8104120D
:1046C00029F1F381041229F1FB82041229F11B83E1
:1046D000041229F13384041229F1ED85041229F121
:1046E0006086041229F1FD86041229F1148804124F
:1046F00029F18188041229F1BC88041229F1118959
:10470000041229F14C89041229F19989041229F122
:10471000298A041229F1B68A041229F18B8B04121A
:1047200029F1648C041229F1F28C041229F1128D02
:10473000041229F13F8D041229F1708D041229F120
:10474000438E041229F1538E041229F1A28E041211
:1047500029F1AF8E041229F1B88E041229F1288FA5
:10476000041229F1888F041229F1D38F041229F140
:10477000EE8F041229F11590041229F132900412DF
:1047800029F13E90041229F1E991041229F10292D3
:10479000041229F18B92041229F19E92041229F13C
:1047A000BD92041229F15893041229F1C8940412FD
:1047B00029F16F96041229F1FE96041229F101974E
:1047C000041229F17197041229F18F97041229F12B
:1047D0003498041229F17098041229F17398041284
:1047E00029F13999041229F19C99041229F1D599DA
:1047F000041229F14A9A041229F1689A041229F143
:10480000B69A041229F18B9B041229F1D99B041248
:1048100029F1279C041229F1B49C041229F1E99C86
:10482000041229F11E9D041229F12C9D041229F174
:104830008B9D041229F1039E041229F1449E041257
:1048400029F1949E041229F1BF9E041229F1D99EE8
:10485000041229F1F39E041229F1CE9F041229F1CA
:10486000D89F041229F113A0041229F123A00412E5
:1048700029F12CA0041229F184A0041229F198A096
:10488000041229F1CEA1041229F1E1A1041229F1A7
:10489000F8A1041229F10DA2041229F19BA204121D
:1048A00029F103A3041229F1B6A3041229F1C1A32B
:1048B000041229F111A5041229F12DA5041229F1E0
:1048C00079A5041229F1E8A5041229F121A6041200
:1048D00029F13BA6041229F19BA6041229F13AA75B
:1048E000041229F185A7041229F147AA041229F11B
:1048F000FDAA041229F18DAB041229F1D5AD0412E1
:1049000029F1EDAD041229F1F0AD041229F1FCAD4D
:10491000041229F110AE041229F118AE041229F183
:104920004BAE041229F13EAF041229F1C9AF0412B3
:1049300029F15CB0041229F1D5B0041229F199B122
:10494000041229F1BBB1041229F154B2041229F165
:10495000B1B2041229F1B4B2041229F1E1B2041285
:1049600029F1F6B2041229F170B3041229F1BCB492
:10497000041229F1C7B5041229F152B6041229F123
:1049800057B7041229F117B8041229F148B80412D4
:1049900029F16EB8041229F177B8041229F1A5B8EB
:1049A000041229F13DB9041229F1F2B9041229F1D6
:1049B00063BA041229F10ABB041229F191BB041253
:1049C00029F1D0BB041229F113BC041229F14DBC0A
:1049D000041229F12DFD041229F103FD041229F11D
:1049E00087FC041229F1DBFA041229F184FA04127B
:1049F00029F1D8F9041229F10CF8041229F159F718
:104A0000041229F10EF7041229F1A9F6041229F172
:104A100068F6041229F148F6041229F17AF5041215
:104A200029F107F5041229F1A5F4041229F148F43B
:104A3000041229F1BBF2041229F158F2041229F1EF
:104A4000D2F1041229F1C9F1041229F1BDF10412C5
:104A500029F18AF1041229F144EE041229F116EE2B
:104A6000041229F13FD2051229F1C3ED041229F1F4
:104A7000FAD1051229F1DED1051229F1E4CF051290
:104A800029F1A6CF051229F180CF051229F104CF13
:104A9000051229F1ABED041229F1A0ED041229F160
:104AA00064ED041229F18EEB041229F147FE041281
:104AB00029F177EB041229F1ADEA041229F10AEA8F
:104AC000041229F12EE8041229F1528B071229F160
:104AD000D0E6041229F1FCFD041229F1C5E6041206
:104AE00029F13DE6041229F1F9E5041229F1D5E591
:104AF000041229F18A8B061229F1298B061229F159
:104B0000F48A061229F1C98A061229F1958A061239
:104B100029F16D8A061229F1F089061229F1DA8944
:104B2000061229F1AA89061229F1DF85061229F158
:104B30009783061229F16F81061229F1F18006127E
:104B400029F10080061229F1A280061229F15E8067
:104B5000061229F185E30600000080FBE4738F0054
:104B600001008F1E870001008D1E35000400531EBA
:104B700025000200571E26000200591E27000200D1
:104B80005B1E28000100651E29000100661E8400CE
:104B90000400571A86000100FD1D2A000100671E4F
:104BA0002B000100681E2C0001006E1E2D00080065
:104BB000641A2E0001006F1E2F000100701E3000CD
:104BC0000100711E31000100721E320001006C1ADA
:104BD000330001006D1A34000100731E360001001D
:104BE0006E1A38000100741E390001006D1E83002A
:104BF00002008B1E63000100791A64000100691E27
:104C0000650001006A1E6D0001007A1A710008003B
:104C10005C1A660001008A1E430001007B1E4400EE
:104C200002007C1E450001007E1E460002007F1E21
:104C300047000800711A48000100811E4B00010066
:104C4000821E040001008E1EA1000100921E37008A
:104C50000100911E88000100901E3C0001006F1AA7
:104C60003D000100751E49000200831E670001001F
:104C70007B1A4D000200851E4E000100871E4F006A
:104C80000200881E3E0001007A1E51000100761EBF
:104C900052000100771E53000100791E54000100EC
:104CA000701A00000000000000013636010100010A
:104CB00002010001030100010401060605020000D3
:104CC000070100340801000F090401010D0100FF74
:104CD0000E08000017020000190100FF1A01000170
:104CE0001B0100FE1C0100081D0200001F01000145
:104CF00020010001210200002301000F2402000016
:104D00002601000127010008280200FF2A010007F0
:104D10002B0102402C0100002D0100012E01000199
:104D20002F0100FF30010B1D310800003A0100087F
:104D30003B01000F3C0100013D0100FF3E0400006B
:104D400042040000460400004A0400004E04000033
:104D500052040000560400005A04000001037103CD
:104D60000103010301030103010322030203010301
:104D7000100300030003000300030003000300030B
:104D80004203000324030603000300030403120389
:104D90002503230325032303040304030003000363
:104DA0000003440300030003230300036503210001
:104DB0003503810300030503000300030003000320
:104DC0002503230303027102300160021102700205
:104DD0000102020202028002100261023A00410056
:104DE000630273027202620243020002130238007D
:104DF000000200020402120200020002000200028D
:104E000004020402370037003C0244020002390069
:104E10000002000265020002350281020002050262
:104E20008202830200020300710030016000110061
:104E30007000310220035004800010006100000067
:104E4000140063007300720062004300000013004E
:104E50000600000000000400120000000000000036
:104E6000000004000400370037003C02440000004A
:104E70000000000000006500000035008100000017
:104E80000500000083000000010171010101010122
:104E900011010101310101010101800110016101D4
:104EA0003B001400630173017201620143010001C0
:104EB000130106013D01350004011201000100014A
:104EC0000001000104010401330133013C014401EC
:104ED0003201360000010001650100013500810149
:104EE0000001050182018301000103047104020431
:104EF000600411047004020402040104020410049A
:104F0000610400041404630473047204620443041F
:104F10000004130406040004000404041204000442
:104F200000040004000451046400000400040004B0
:104F30004404000400040004000465040004350473
:104F400081046400050400048304000436000100A9
:104F5000060000000F00000000000000000000003C
:104F6000000003FFFF00000403FFFF0000FFFF0F2E
:104F7000F4010005C4040320000100000B00000040
:104F8000000000000003010F00000000000000000E
:104F90000000000000000000000000000000000011
:104FA00000000000000000000000130043381F0054
:104FB00049381F804F380000EB380100EB38020001
:104FC000C5370280BF370300CB370400D1370480D8
:104FD000D7370500DD370600E937300007383100E4
:104FE0000138320013383300193835001F383400C7
:104FF000253836002B381100373814003D3815009D
:10500000FB37FFFF00000A00000002000000040060
:105010000000080000001000000020000000400018
:1050200000008000000000010000000200000004F9
:1050300000000008000000100000002000000040F8
:105040000000011D43064D430847430B6B431033DB
:105050003F0A7D43022343053B430729430C054395
:105060000D114364053DFF000007ECFDFDFDECDC88
:10507000DCCCBCACAC9C9C8C7C7C6C6C5C5C5C4C80
:105080004C3C3C2C2C1C1C00160F00000B150B027A
:105090000002220F3300000E0F667A6C6368746999
:1050A0006D65434F2E2C4C54645A696742656541C7
:1050B0006C6C69616E63653039D0D1D2D3D4D5D6EA
:1050C000D7D8D9DADBDCDDDEDF150AF4D4C0A5954C
:1050D0008272636155504900034D4C4651181A25A0
:1050E0000502000119161816161823030030301691
:1050F000181920231A1C1E30003C40423A3F3F3909
:105100002F4730303017181921301B1D1F300C0E5F
:10511000020B040B0A0708000F020402010101013F
:10512000090200BE040AE8030000FA0669500C00F8
:105130001E0000000000C9500E00E8037F001E1E84
:10514000050CFF0404080028040002090809033CB8
:105150000C0305080B0300FF0A0C1010C082C0836B
:105160009018CFE4F0A3F07CB37D1B7AE97B171293
:1051700034F5123D35123F81123D3B0266F674F262
:1051800012245B74FE122AEDE9FF8A08EBFE8C09FB
:10519000E9703374026A70167908123711E4F50A5F
:1051A000F50B780A122A46780A122A4A80537401AB
:1051B0006A60030252E379081237117B00EEFAF9B4
:1051C000123DA70252DE74016F600874026F600323
:1051D0000252E3EA600874036A600302527E1241DD
:1051E000A3E9605374036508604D1233398A0A8B52
:1051F0000B780A122A46750A01780A122A4A750A99
:1052000000780A122A4AE509F50A780A122A4AEEB3
:10521000F50A780A122A4A90180312286D901DFD8B
:10522000E0F97C717D1A901E8B126524123D5F742B
:105230000A122A590252DE7902123711901DFDE03E
:10524000F9901803122CD0123D4DE9F8901813E094
:10525000A2E34010E9700D9018D3E004F0640470EC
:10526000031252FF7403650870769018D4E0F97445
:105270000129F0E9C3940540671252FF806274016E
:105280006A706074016F790A702C1237117A007B92
:1052900004901C84E0F91234B3AA18AB19795012A7
:1052A0006208126212E81276D47900901C371265F7
:1052B00024123DEF8044123711901E6112286D7A3E
:1052C000007B20901808E0F91234A77404122A59C0
:1052D000901DFDE0F9901803122CD0123D89E9F8D9
:1052E000E8601790816F12286D7A017B0090180892
:1052F000E0F91234A77404122A597402027B389020
:105300001803E4F0A374F8F0A374FFF0A37407F09B
:105310002274F612245BE9FFEAFE7AD1F912335DBA
:105320008A828B83E5824583702A7A027B0012335E
:105330003FEA4B700E7A107B00901808E0F91233A8
:105340008180148A828B8374D1F0EFA3F0EEF9127E
:10535000334B8003EFA3F002556074F712245B898E
:10536000089004D1127877901E49E0F47003A3E00E
:10537000F470309009D3E0901E49F0A3E4F080234C
:105380008E828F831264A7600F8E828F83A3A312F5
:1053900064A4FAA9081237A78E828F83126496E854
:1053A000FEE9FFEE4F70D9901E49E0F47003A3E0D0
:1053B000F4600A901E49E0FAA9081237A712444384
:1053C0009017D3125C7312443D7F010226E974F0FA
:1053D00012245B890B8C0C7509007508007410127F
:1053E0002CFF1264967412122CFF12560E80471274
:1053F0005497F50EA3E0F50FAE08EE2EFEE433FF52
:10540000EA2EF582EB126AEA650E7004A3E0650FDE
:105410007019AE09EE2EFEE433FFEC2EF582ED3F5F
:10542000F583E50EF0A3E50FF00509050AE50AC3CB
:10543000950C40BB0508E508C3950B5005750A009F
:1054400080EBA90980007F080226E974F412245B2E
:10545000890B7D00740C122CFF12649680010DEDF7
:10546000C3950B502E750A008002050AE50AC39CFD
:1054700050ECED25E0FEE433FFEA2EF582EB3F121F
:1054800076B112549765087004A3E0650970DB7962
:1054900001800279008014AE0AEE2EFEE433FFE8AC
:1054A0002EF582E9125C1022122A597F040226E9A5
:1054B0000229EE74F612245B12554A7003A3E06DC4
:1054C00070177508117509187808122A46EEFA1235
:1054D00038F17402122A59801A7508027509807809
:1054E00008122A468A0889097808122A461255376E
:1054F000122A59806B74F612245B12554A7003A36A
:10550000E06D701775081E7509187808122A46EEA6
:10551000FA1238F77402122A59801A7508037509AD
:10552000807808122A468A0889097808122A4612C1
:105530005537122A598029EE127B12125C10FD7C1D
:105540008012679C123915740422EAFEEBFF126781
:10555000B1FCE439FD9017D3E06C227402122A5991
:105560007F020226E974F612245B74FE122AED8A89
:10557000088B09851882851983E4F0A3F012608CEA
:105580001268EAFBECFA88828983A3A3E0F97F0022
:105590007E00600574FF6970047E8280459017D399
:1055A000E06A7003A3E06B701AAA18AB19124B15CE
:1055B000E9FA8518828519831266E370027E83EA10
:1055C000FF801F901E8DE060046401700E123CBDD0
:1055D000E960047E89800B7E818007E064027002AE
:1055E0007E80125608EEF9AA08AB091238FDEF606A
:1055F000148518828519831266E3600985188285EF
:10560000198312713702555B851882851983E0FC76
:10561000A3E0FD220229EE74F212245BEAFEEBFF06
:105620007508007509001267ADF50AE439F50B122B
:105630004443EA650A7003EB650B7012124B03E9F1
:1056400014F50879017A9B7B18124AFD80037509CD
:1056500080126AE4F50C780C122A4A750C9B750DC1
:1056600018780C122A467808122A4A780A122A4612
:10567000E509F5087808122A4A126513126AE7F953
:105680007A057B801239037407027B3874F6122482
:105690005BE9FF7E0080328A828B83E0F508A3E01D
:1056A000F8E4C8F9E50828E439F509EE25E0F8E45E
:1056B00033F9EC28F582ED39F583E508F0A3E50927
:1056C000F0EA2402FA50010B0EEEC39F40C90255C6
:1056D0006074E812245B74FE122AED8A108B117537
:1056E0000F00851882851983E4F0A3F0F516F517ED
:1056F000126362351112786D127CEDFA8E828F83FF
:10570000A3A3A3E0F9EAF508E439F509AA0AAB0B6B
:105710001244DFE96401702B1274C7122A4AE4F5BF
:1057200008F5097808122A467808122A4A780A12D7
:105730002A467508807808122A4A125AB4122A5941
:10574000025A9DAA0AAB0B1244DFE970419017D3AD
:10575000E0650A7004A3E0650B6033901E8DE06481
:105760000270281274C7122A4AE4F508F50978086D
:10577000122A467808122A4A780A122A46750880A0
:105780007808122A4A125AB4122A59025A9D8E8255
:105790008F83A3A3A3A3E0F50BEE2405FE50010F16
:1057A000E50B602A127BB1851882851983EAF0A384
:1057B000EB126B01E8496016125608EEFAEFFBA9EE
:1057C0000B1237E38A0C8B0DAE0CAF0D8003750BFB
:1057D00000127BC7601A127BB18A168B17EA4B60E6
:1057E0000FAC16AD17EEFAEFFBA90A1237E38003F0
:1057F000750A009004D180508E828F83A3A3A3A347
:10580000A3A3A3A3E4F0A3F0EEFAEFFB8514828533
:105810001583A3A3E0F81264A4F912334B85128216
:10582000851383E0C0E0A80F749B28F582E4341848
:10583000F583D0E0F0050FA2005007AA12AB1312B7
:1058400033E7851482851583E0F514A3E0F515E5AB
:105850001445157003025A1B851482851583126442
:10586000A760DF851482851583A3A3A3A3A3A3A3A5
:10587000A3E0A2E050CC851482851583A3A3A3A343
:105880001266E3851482851583A3A3601E1264A9A2
:10589000FA7901851482851583A3A3A3A3125AA7BD
:1058A000124B5C8A128B13D2008010125AA7A3A34A
:1058B000A3A3E0F512A3E0F513C200E512451370AF
:1058C00003025837851282851383A3E065087004AC
:1058D000A3E06509600F74FF6508700474FF650933
:1058E0006003025837851282851383A3A3A3A3A361
:1058F000A3A3122871851282851383A3A3A3A3A354
:10590000A3E0FC7402122CFF126524A90B1237B914
:105910007402122A59E97038851282851383A3A371
:10592000A3A3A3A3A3A3A3A3122871851282851303
:1059300083A3A3A3A3A3A3A3A3A3E0FCAA16AB17CB
:10594000A90A1237B97402122A59E97003025837AA
:10595000E50A250BC333240AFA7B0012333F8A0C75
:105960008B0DAE0CAF0DEA4F700302581D8A828B6F
:105970008374D2F0851082851183A3A3126221A3C0
:10598000A3E81276D48A828B83A3A3A3A3E50B1288
:105990007CFEE50B6033EA240AFAE43FFB8E828F3B
:1059A00083125C6E851882851983E0F50CA3E0F5FF
:1059B0000D750E00780C122A42AC0BEC2CFCE43373
:1059C000FD127CE7122A59800D8A828B83A3A3A340
:1059D000A3A3E4F0A3F0E50A70030257F8A80BE8CC
:1059E00028F8E433F9EE28F8EF39F9E8240AFAE464
:1059F00039FB8E828F83A3A3A3125C6E85160C8560
:105A0000170D750E00780C122A42AC0AEC2CFCE43F
:105A100033FD127CE7122A59025808E50F6025125F
:105A200074C7122A4A75089B7509187808122A4605
:105A3000E50FF5087808122A4A9017D312287175D5
:105A40000800802DE510240BF582E43511F583E084
:105A5000702A1274C7122A4A75089B7509187808AB
:105A6000122A467508007808122A4A9017D312287D
:105A7000717808122A4A125AB4122A598518828556
:105A800019831266E36009851882851983127137BC
:105A9000E51645176007AA16AB171233E774021212
:105AA0002A597F100226E9125AAB22E0F8A3E0F54A
:105AB00083888222E5102402FCE43511FDE51012F2
:105AC000648D3511F583E0F97A067B801239037411
:105AD000072274F412245B74F4122AED8A088B09ED
:105AE000ECFEEDFF740B122CFF7403F0122AAF12C0
:105AF00034F51266387403122AAF1234EFE9600AE3
:105B0000125C046010E06401600B851882851983C3
:105B10007484025BCD8E828F83A3A3A3A3A3A3A3CC
:105B2000A3E06013F46010125C047016EE241412EB
:105B30006AE76003F4700B8518828519837482020A
:105B40005BCD127861E064217002A3E07055851886
:105B500082851983748C126231E0F50A780A122A60
:105B60004A125C1512408F7401122A59E9705F8540
:105B70001882851983E4F01236ED125C04704F74BC
:105B800001122AB7EE240BFAE43FFB1240ADE97094
:105B90003D7D007C007900EE240BFAE43FFB1238D7
:105BA000BB802BEE2414126AE7F50A780A122A4AFF
:105BB000125C151240957401122A59E985188285E4
:105BC00019837007E4F01236ED80037488F01274C4
:105BD00082F50A780A122A4A7401122AA7880A89C9
:105BE0000B780A122A46E508126D1D350912621952
:105BF0004480F50B780A122A4612661A122A597442
:105C00000C0254A8EE2413125C0D640322F582E406
:105C10003FF583E022EE240BFCE43FFD8E828F8370
:105C2000A3A3A3A3A3A3A3A3A31274B78E828F835A
:105C3000A3A3A3A3A3A3A3A3E0F922C082C0837458
:105C4000F3122AED851882851983E4F004122CFFE3
:105C5000125C737403122CFFAA82AB83123C45AA18
:105C600018AB19123C81740D122A590266F6A3A3CF
:105C7000A3A3A3EAF0A3EBF02274F612245BEAFEDE
:105C8000EBFFEA2413126AE7F8A3E0125CC0F89075
:105C90001819E058F508A3E059F509E50845096029
:105CA0001C7808122A469017D3122871126AE4FD54
:105CB0007C0012679812390F7404122A5902556039
:105CC0008882F583125CC822E0FAA3E0F9EA227424
:105CD000EA12245B74DB122AED8A148B157512000C
:105CE000751300750A001263623515F5831264A9F5
:105CF000F50EAC18AD197A007B00799C123DBF906F
:105D00001E8DE06004640170147A047900123CABCB
:105D1000EAF50A851882851983E02A8008851882A9
:105D20008519837401F0E0F8E50EC3984003025F23
:105D300021E0C3950EF509C394044003750903E5FA
:105D40000975F01AA4FAABF01233E18A128B13EA48
:105D50004B7003025F24750B00AE12AF13850E0863
:105D6000025DE97C087D0079FFEE240AFAE43FFB3E
:105D7000123327850C82850D83A3A3A3A3E0702D86
:105D8000850C82850D831266E3700912768E125F90
:105D9000C8E48010125FA5F0901C4AE014C0E01225
:105DA0005F8CD0E0F0125F90125FD78032901C4A77
:105DB000E004C0E0125F8CD0E0126004C39403EEF4
:105DC0004003025E6A12776B740212600464017011
:105DD00003025E77EE2415125FA8125FB97401F01A
:105DE000EE241AFE50010F050BE50BC39509400385
:105DF000025ED6E508C3950A4003025E80AA087BCE
:105E000000123CED8A0C8B0D0508901C37125FEADE
:105E1000850C82850D83125FB1F0A3E9125FDC125D
:105E20005F8C74FF126009A3A3A3A3A3A3E0C0E047
:105E3000125F7AD0E0F07401122CFFE4F0850C823E
:105E4000850D831264967402122CFFE81276D474C6
:105E500001122AAF123C6FE964016003025D6374B2
:105E600004122CFF125F96025D73125FA61260048B
:105E700064036003025DD4EE2415127691025DDAAC
:105E8000E50AC3950E40057508008051E50EC395DF
:105E90000AF5088048EE2415127691125FD7F0902B
:105EA0001C4AE014C0E0125F8CD0E0125FDC741D6D
:105EB000122CFFE0C0E0125F7AD0E0F0125F841293
:105EC00066E1700512768E8003125FA5F0EE241A4B
:105ED000FE50010F050BE50BC395095047740E12D8
:105EE0002AB7AA087B007987123DBF0508741812EB
:105EF0002CFF125FEA7410122CFF125F96740E12C0
:105F00002CFF125FB11276D4901E8DE06004640104
:105F10007083125F90125FB97403125FC874FF80C0
:105F20008A750900750A00780A122A4A7812122A1C
:105F3000467809122A4AE50EF5097809122A4A74A8
:105F400005122CFFE0FD7C00E5141264843515FB7E
:105F5000E5141264893515F583E0F912394B74059F
:105F6000122A59E51245136007AA12AB131233E740
:105F70007425122A597F0E0226E9EE2419F582E4CF
:105F80003FF58322EE2412F582E43F22125FCD22F8
:105F90001276F2740222AC82AD83EE240AFAE43F58
:105FA000FB1234F522EE2414F582E43FF5837401EC
:105FB00022126B0C1276E8E822125FBD22F0EE246A
:105FC00016F582E43FF58322F0125FCD22EE24180D
:105FD000F582E43FF58322125FBDE422F0EE241740
:105FE000F582E43FF5837402F022126B0C8E828FEF
:105FF00083E8F0A3E9F07C4B7D1CEE1264843FFB48
:106000001234F522126009E022F0850C82850D839E
:10601000A3A3A3A32274F612245B74F9122AED122F
:106020006088127DB0851882851983122CE88E82D3
:106030008F83A3A3A3A3E0C0E07404122CFFD0E0DD
:10604000127AF1F87405122CFF7401F07406122C08
:10605000FF7401F09017DDF09017E604127787FACD
:10606000A3E0FB9017DE125C73E89017E7F0127B59
:1060700003E09017DCF0AA18AB19123D53E9600356
:10608000123D59740702555D8A088B09127B5235FF
:10609000092274F212245B74FF122AED7508007E47
:1060A000007F001243598A0A8B0B1261FC800505A0
:1060B00008126493E84970F7901E8DE06007640150
:1060C00060030261721261FC8003126493E849600C
:1060D0002D88828983126524901C37E06A7003A39F
:1060E000E06B600A12649A126524EA4B70DC8882C5
:1060F0008983126212E0687003A3E06960747A1603
:106100007B00127A83606B901C37126221E8127652
:10611000D4901C2C126DFCF01244C7E98E828F8340
:10612000A3A3A3A3A3F0901E67E08E828F83A3A3F3
:10613000A3A3A3A3F07C4B7D1CEE240B125F9DAAAE
:1061400018AB197941126208E060089017D3126405
:1061500096800478FE79FF8E828F83A3A3A3A3A3E6
:10616000A3A3E8F0A3E91262311262298E0A8F0B11
:1061700005089017E7E0F8E508C398500479008017
:1061800029E508C398F9C394064002790578008090
:106190000FE50A2414F582E4350B126219F50B0899
:1061A0009017E7E0FAE8C39A40E77509007809120A
:1061B0002A4A780A122A46E9F5097809122A4A90E9
:1061C00017E7E0F5097809122A4AAD087C007ADE63
:1061D0007B179017DCE0F91239457405122A5990A3
:1061E0001E8DE060046401700BEE4F6007EEFAEF65
:1061F000FB1233E7123D597401027B381243598A6E
:106200000C8B0DA80CA90D22123B2585188285192F
:106210008322126B0C901C3722F583E0F50AA3E071
:1062200022126B0C8A828B8322E50AF0A3E50BF025
:1062300022F0EE12776F2274F012245B74FF122AA0
:10624000ED8A0A8B0B7E008E0E8E0F126362350B69
:10625000F5831264A9FFAC18AD197A007B00799D13
:10626000123DBF851882851983E0F8EFC39840037B
:1062700002630CE0C39FFEC3940B40027E0AEE75DE
:10628000F007A4FAABF012647C8A0E8B0FEA4B6025
:1062900079750C00801A850882850983A3A3A3A3BE
:1062A000A37403F0E5082407F50850020509050C5E
:1062B000E50CC39E5056AC08AD09E50C2FFAE4344A
:1062C00000FB798B123DBF850882850983A3A3A3B8
:1062D000A3A3E014600814601314601F80B885083D
:1062E00082850983A3A3A3A3A3E480B7850882853D
:1062F0000983A3A3A3A3A3740180A88508828509A9
:1063000083A3A3A3A3A3740280997E0075080078D9
:1063100008122A4A780E122A46EEF5087808122A40
:106320004AEFF5087808122A4A7405122CFFE0FD9E
:106330007C00E50A126484350BFBE50A126489359A
:106340000BF583E0F91239517405122A59E50E450F
:106350000F6007AA0EAB0F1233E77401122A59021D
:106360005446EA127B532274EE12245B74FE122A06
:10637000ED8A0C8B0D751000751100126362350DDE
:10638000F5831264A9F50AAC18AD197A007B00797F
:10639000A312409B851882851983126496C3E50A6F
:1063A00098E4995020851882851983A80AE0C3983B
:1063B000FEA3E09400FFC3EE9404EF940040617EDE
:1063C000037F00805F7E00750B00EEF97508007892
:1063D00008122A4A7810122A46E9F5087808122A83
:1063E0004AE50AF5087808122A4A7405122CFFE0DB
:1063F000FDAC0BE50C126484350DFBE50C126489D1
:10640000350DF583E0F91239577405122A59E51054
:1064100045116007AA10AB111233E77402027B8B9F
:10642000EE4F60A3EEFAEFFBEA75F015A4FAA8F0C0
:1064300075F015EBA42812647B8A108B11EA4B606F
:1064400032750B00750E00C3E50E9EE49F400302FB
:1064500063CAAC08AD09A80AE50E28FAE43400FBCB
:1064600079A212409BE5082415F50850020509059C
:106470000E80D4750BB579000263CCFB1233E18A30
:10648000088B09222402FAE42212648D22240FF5DB
:1064900082E42212649A126B0C22E82414F582E43E
:1064A00039F58322125AADA3A3125AABE02274F637
:1064B00012245B74FF122AEDEAFEEBFF1266CF1284
:1064C00065248A82F583A3A3A3A3A3A3A3A3E0F9CE
:1064D000123D77E9851882851983F07508007808E0
:1064E000122A4A7401122AA7880889097808122AF0
:1064F000467508357509807808122A461265071214
:106500002A59740102555D7901126513FAE43F12AC
:10651000663122EE2402FCE43FFDEE240F228518B2
:10652000828519831274B72274F412245B74FA12F0
:106530002AED126088127875EEFAEFFB123C4BE9F7
:10654000600F126638EEFAEFFB1234EFE964017067
:1065500013901E8DE070030266157401122CFFE487
:10656000F0A380097401122CFFEEF0A3EFF0901E4F
:106570008DE064027017850882850983A3A3126ADF
:10658000FAE0687003A3E06960030266158E828FEB
:1065900083A3A3A3A3A3A3A3A3E0FEA2E65008742E
:1065A00003122CFF7401F0EEA2E750087404122CC1
:1065B000FF7401F07405122CFFE41268F1F0F50A83
:1065C000780A122A4A7401122AA7880A890B780AC3
:1065D000122A46750A34750B80780A122A4612660A
:1065E0001A122A59908133122CD01244617A007BFE
:1065F0000012446D7A007B001244677401122AAFC6
:10660000123DADEEA2E7400D7401122CFF1266E3BD
:106610007003124A9174060254A87901E508240215
:10662000FCE43509FDE508240FFAE435091266316A
:1066300022FB1238AF74052212443D8A0A8B0BAC40
:106640000AAD0B2274F612245B74FF122AEDEAFEE7
:10665000EBFF901E8DE07011901E6CE0700B8A8233
:106660008B83A3A31266E370631266CF1264A9F54D
:106670000874FF650870037508FEA908123D65E9F6
:10668000851882851983F01241A3E96005A90812D3
:106690003A1D901E8DE07005A908123A1DEE240BDC
:1066A000126AE770277508007808122A4A740112E6
:1066B0002AA7880889097808122A467508367509B4
:1066C000807808122A46126507122A59026502EAE2
:1066D0001266D4222413F582E43FF58322F582E486
:1066E00038F583126B0CE84922C082C083901E8D5E
:1066F000E07003123A23D083D0820229EE74F412A0
:10670000245B74EF122AEDEAFEEBFF1267ADF50889
:10671000E439F5099017D3E06A7003A3E069705279
:10672000A818A919880A890B780A122A46750A112D
