:020000040000FA
:10000000021305022003FFFFFFFFFF02200BFFFF8B
:10001000FFFFFF020E67FFFFFFFFFF02201BFFFF36
:10002000FFFFFF022023FFFFFFFFFF02202BFFFF48
:10003000FFFFFF022033FFFFFFFFFF020EAAFFFFBB
:10004000FFFFFF022043FFFFFFFFFF02204BFFFFE8
:10005000FFFFFF022053FFFFFFFFFF02205BFFFFB8
:10006000FFFFFF022063FFFFFFFFFF02206BFFFF88
:10007000FFFFFF022073FFFFFFFFFF02207BFFFF58
:10008000FFFFFF022083FFFFFFFFFF02208BFFFF28
:10009000FFFF70DFFFFF040000000002000000C847
:1000A0000300030369A5020269A501000000000026
:1000B00004003273000074F812104C900393E06057
:1000C0001590030274FEF0900304744DF0A37405C0
:1000D000F07A0112068C7F0102116974F712104C3C
:1000E00074FF1212717E00801F851882851983E0CB
:1000F00064FE70069003877401F085188285198369
:10010000E0F8900384E068F07C017D00AA18AB1948
:10011000120E228B09EA450970030201F385188249
:10012000851983E064EF70027E07E0C0E0900387EA
:10013000E0FA900385E0F8EA28F8E43400F9740264
:1001400028F582740339F583D0E0F0900387E060EE
:100150009814600E14602C14603C14605214606893
:100160008098900384E4F0851882851983E09003D9
:1001700086F0C394809003874004E40200F974027F
:100180000200F9851882851983E0900382F09003BC
:100190008774030200F9851882851983E090038330
:1001A000F0900386E0601990038774040200F990D0
:1001B0000385E004F0F8900386E06860030200FA2B
:1001C00090038774050200F9900385E4F09003879B
:1001D000F0900384E0F8851882851983E068600355
:1001E0000200FA900382E0644D60030200FA1203F9
:1001F000288002EEF9740112123D7F020211697427
:10020000F712104C74FB121271EAFEEBFF75080432
:1002100075090078081212D574021212EE7A907BDA
:10022000007904120ECB740212123D12067E1213D4
:100230003FE0687003A3E069701285188285198316
:10024000E0F47003A3E0F4600302030874041212E4
:10025000E61206E48A088B09A808A9097402121399
:100260003FE8F0A3E9F0740412133FE0600879015D
:100270001200B6020321851882851983E068700395
:10028000A3E0697076851882851983E0F47003A372
:10029000E0F47019740212133F7410F0A37420F08C
:1002A0008518828519837410F0A37420F0750801F5
:1002B00075090078081212D574021212EE7A247BA6
:1002C00008120F4F740212123D75080478081212BA
:1002D000D574021212EE7A907B007904120ECB7460
:1002E0000212123D12067E12133FE0687003A3E073
:1002F000697004790280067904800279031200B6DD
:100300008E828F83741E80058E828F83E4F01206A6
:100310007E12133FE0687003A3E0697004790180E6
:1003200002790074050201F774E912104C74F81296
:100330001271900307E0FA900306E0F9FEEAFCE48C
:10034000CCFDEE2CED3408FF751001750F00750E15
:10035000068E088F097402780812129CC39508FC57
:10036000E49509FD74022CF51474033DF515E514AC
:100370002497F516E5153420F517EE2410F508E45A
:100380003FF509EEF50CEF5401F50D8E128F137445
:100390000978121212F685120A900383E01460574E
:1003A00014700302046F1470030204E61460102436
:1003B000FE70030205A11470030206510206617566
:1003C0000E03794E120C619003071206747402F04A
:1003D000A374401206727408120672F0A3F0741827
:1003E000C3940704F510AA10A90F12068CA90E7465
:1003F0000812123D02083E750E04794E120C61EE91
:10040000450D7005A90A120FB5C3EE9425EF9408A7
:10041000503FC3E5089424E50994084034E51424CA
:1004200096F8E5153420F988828983E0701E8516D8
:1004300082851783E070159003887401F0888289A3
:100440008374A5F08516828517838004900388E461
:10045000F075081075090078081212D57C087D0324
:10046000EEFAEFFB120F4F740212123D0203E67513
:100470000E05C3E50A947995E04006750F01020365
:10048000E675104075110078101212D57C097D03B5
:100490007402780C12129CAA0CAB0DA90A120ECB96
:1004A000740212123D900307E0A3F0900306E0A34C
:1004B000F0751043C3EE9425EF940840030203E661
:1004C000C3E5089424E509940850030203E6900369
:1004D00088E070030203E6A816A91788828983E4DE
:1004E000F0A3F00203E675080475090078081212FB
:1004F000D574021212EE7A907B007904120ECB743E
:100500000212123D740212133FE0F8A3E0F98518BD
:1005100082851983E0687003A3E0698518828519D4
:1005200083700BE0F47003A3E0F470578009E0F4EB
:100530007003A3E0F4700D8518828519837410F0A0
:10054000A37420F012067E12133FE8F0A3E9F075C1
:10055000080178081212D574021212EE7A247B0870
:10056000120F4F740212123D75080478081212D54A
:1005700074021212EE7A907B007904120ECB740290
:1005800012123D12067E12133FE0687003A3E06969
:100590007006750E010203E6750E02750F07020361
:1005A000E6900391E06007640260030203E6EAFF5D
:1005B0007A01790012068CE060030206458003127E
:1005C0000D22120D2CE970F7740412133F12066607
:1005D000740412133F780812132385080C85090D43
:1005E000850A0E850B0F9005A2780C1212C27404B6
:1005F00012133F780C121314E5084509450A450B00
:1006000070CE8EC2E5C554E04FF5C5740412133F99
:10061000120666740412133F780812132385080C1F
:1006200085090D850A0E850B0F9005A2780C121214
:10063000C2740412133F780C121314E508450945DF
:100640000A450B70CE7A01790012068C79080203F4
:10065000EFE9900393F070030203E6750E090203BD
:10066000E679060203EFE4F0A37426F0A3E4F0A316
:10067000F022F0A3E4F0A3F0A3F0A3F0A3228518E6
:1006800082851983E0F8A3E0F974022274F812104D
:100690004CEAFE900305E0D2E7F0E9A3F0EE900308
:1006A00003F08E0874042AFE7C028004E062080CC9
:1006B000ECFA3395E0FB74022AF58274033BF58370
:1006C000EEF8C3EA98EB9400A2D265D03340DDE5A2
:1006D00008F074012A0C3395E0FD7A027B03120EB8
:1006E000520200D674E912104C7582007583FE1216
:1006F00012048A168B177514007515008A828B8375
:10070000E4F0900391E07006D2AAD2AF80046402B4
:10071000700579001200B6750C00750D20750E007D
:10072000750F00900391E0600464027015120D22B1
:100730001200DBE9F87409686003020814790012FA
:1007400000B675080075090278081212D5740212F5
:1007500012EE850C08850D09AA08E5095407FB85EA
:100760000E0A850F0B740B7808121258A908120E86
:10077000CB740212123D7E007F009005AAC0828ECB
:1007800010EFF5113395E0F512F513850C08850D82
:1007900009850E0A850F0B780879101212AF9005A3
:1007A000A678081212C2758305D08278081211E566
:1007B000501D851882851983E5822EF582E5833FD9
:1007C000F583E0F9AA14AB151208438A148B150EB1
:1007D000EE70010FC3EF940240A09005AE780C12AA
:1007E00012C29005B2780C1211E54003020723797A
:1007F00000AA14AB1512084379001208438B159018
:100800000391E07004C2AFC2AAEA451570277AA529
:100810007BA58021E870030207427406687003021A
:1008200007427407687003020742851682851783A2
:100830007401F080BA7582007583021212047F1071
:10084000021169C008C0097C088A088B09740F78F6
:10085000081212F6E508F8EA25E0FAEB33FBE9A204
:10086000E7500474014AFAE8A2E0500874216AFAD9
:1008700074106BFBE9C333F91CEC70CDD009D008C0
:100880002274F812104C78007900802274942EF5AE
:1008900082E43403F583E08A828B83F0900414129F
:1008A0000A014005900414E4F008E870010990047E
:1008B00014E0FEA3E06E6007C3E89CE99D40CDE82C
:1008C000FAE9FB7F0102116974F712104C90049849
:1008D000E0F509A3E0F508F8E509C398F895E0F913
:1008E000E508C39509E8500B120AE3701178007906
:1008F00000801B247F500109C39CE99D50EF7A00C2
:100900007B008041E004F0D2E908E8700109C3E807
:100910009CE99D502C8A828B83E0C0E0900499E092
:10092000FE74182EF582E43404F583D0E0120AD365
:1009300090049AE4F0900499E0C3947F40C6E48068
:10094000C5E8FAE9FB7F02021169C082C083C2E9EF
:10095000900498E0F8A3E0686017741828F582E422
:100960003404F583E0F5C1900498120AFA4002E4D9
:10097000F0020D4074F812104C7800790090051DBB
:10098000E07055A3E0705175F900C28FC284A28354
:1009900040FCA28F4004A28350F8AEF9C28FA2831C
:1009A0005004D2848032EEC0E0E0FE1209F6D0E0BE
:1009B000F090051E120AFA40D9E4F080D51209F62B
:1009C000E08A828B83F090051D120A014005900594
:1009D0001DE4F008E870010990051DE0FEA3E06E3B
:1009E0006007C3E89CE99D40D4E8497006E4F090B4
:1009F000051DF00208BF749D2EF582E43404F583D2
:100A000022E004120AD7C394802274F812104C908A
:100A100005A0E0FEF890059FE0FFEEC39FE0500DBB
:100A2000C398F895E0F9120AE270188012C398F89A
:100A300095E0F9E8247F500109C39CE99D4004EC4E
:100A40004D70077A007B00020AD08A828B83E0F522
:100A5000F9A3AA82AB83780179008008E004F0084A
:100A6000E8700109C3E89CE99D50278A828B83E0E6
:100A7000C0E09005A0E0FE741F2EF582E43405F579
:100A800083D0E0120AD39005A0E0C3947F40CDE468
:100A900080CCC28FA28340FCC284A28F4004A28378
:100AA00050F890059F120AEDE0F5F9C28F90059F6E
:100AB000E0FAA3E06A90059F7005120AED80051226
:100AC0000AFA4002E4F0A28350D0D284E8FAE9FBAB
:100AD0000208C3120AD722F08A828B83A3AA82ABB0
:100AE0008322E824FF18E934FFF9E84922E0FA7488
:100AF0001F2AF582E43405F58322E004F0C39480D4
:100B00002274FB121271C2009005CA7808121323D6
:100B10009005CA7401F0A3F0A37469F0A374A5F062
:100B20009005B678081212877004D20080159005DF
:100B3000BA78081212876008E59D54186410700393
:100B4000022000120C87A2005003020C04AA18AB6A
:100B5000191201FFE97003020C04851882851983BC
:100B6000E0C3943C500CE0F8743CC398FA95E0FB69
:100B700080047A007B00120D45E97003020C04909A
:100B80000391E06401700C75F800C2AB539AF7D280
:100B9000EA805E79071200B68003120D22120D2C36
:100BA000E970F7740112133FE4F0A37426F0A3E494
:100BB000F0A3F0740112133F780812132385080C78
:100BC00085090D850A0E850B0F9005A2780C12126F
:100BD000C2740112133F780C121314E5084509453D
:100BE0000A450B70CE758600C2AAC28B539AFBC20F
:100BF000E990000174CDF0022000C2AF75C9AB7559
:100C0000C95B80FE750800750900750A00750B0048
:100C1000900391E0701BD2AAD2AF79051200B6E022
:100C20007003120D221200DBE9F874096870098064
:100C3000E9794E120C6180ED74016870E2E0701782
:100C4000120D229005BE78081212C29005C27808D3
:100C50001211E550EBC2AAC2AF75C9AB75C95B8072
:100C6000FEC082C08378109005A1E0C3995015752D
:100C7000B60FE5B4A2E750FAE5BBC39940F118E816
:100C800070EDE9F0020D40C082C08353BEFBE59DCC
:100C9000A2E650FA0078F8790100120AE270FA75BB
:100CA000C6807480659E70FA43BE049062707408BA
:100CB000F0794A120C6190000174F5F07403F5D5D7
:100CC00075D489A2A0E433900391F0A2E05029D218
:100CD0008453F3F753F3EF53FDF743FD10538FF7AE
:100CE00053F7DF43FC2043F10253F5DF75F820434F
:100CF000F4F0D2FED2AB802853FF3F85FFFF53F1C3
:100D0000FE43F30C53F2F375868075C48090049B08
:100D1000E4F0A3F075C2D875C50B75C402438640D4
:100D2000801E800312094AA2E940F922C082C083D2
:100D3000900498E0F8A3E0686004790180027900EB
:100D4000D083D0822274F112104C74FF1212717E83
:100D500000900391E06401706CC28490039274016E
:100D6000F07508388E098E0A8E0B7C017D00AA185A
:100D7000AB19120E228B0DEA450D6018851882857D
:100D80001983E06410602DE064EF70088E088E090E
:100D90008E0A8E0B85080C85090D850A0E850B0FB2
:100DA0009005A278081212C2E50C450D450E450FBC
:100DB00070347E01900391E064017056D2849003F8
:100DC00092E4F08051D2AAD2AF8A088B09E4F50AE6
:100DD000F50B9005C6780C1213237808790C120FC6
:100DE000CC79061200B6900391E06003020D6A12FE
:100DF0000D221200DBE9F874096870077906120009
:100E0000B680917407686084E8608974066870A48D
:100E10008082C2AFC2AAEEF9740112123D7F0802AD
:100E20001169C082C083900391E07005120881802F
:100E30001E900392E06015A28F500BE5F98A828B19
:100E400083F07A0180027A007B0080031209740229
:100E50000D40C082C083900391E070051208C880E5
:100E600003120A0A020D40C0E074F21210B29000A0
:100E700001E064CD7005122013802AE064F570242F
:100E8000E5C1C28BC0E0900415E0F8749428F582A7
:100E9000E43403F583D0E0F0900415120AFA40051B
:100EA000E4F08001007F01021111C0E074F2121021
:100EB000B2900001E064CD700512203B800BE0642D
:100EC000F5700512094A80010080DA74F612104CA0
:100ED000890A740F550AF508750900740B78081211
:100EE000129CEA2400F8EB3480F9E82400E9350983
:100EF000F985C709A2AFE433F508C2AFE50AC454C7
:100F00000FFAE5C754F84AF5C7740A12133FE0FA1E
:100F1000A3E0FB801C88828983E08C828D83F0882B
:100F2000828983A3A882A9838C828D83A3AC82AD9E
:100F300083EAFEEBFFEE24FF1AEF34FFFBEE4F7067
:100F4000D48509C7E508A2E092AF7F030211697456
:100F5000F712104CED900389F0ECA3F0A37462F04B
:100F6000A37473F0A3E0541FF0740912133FE0F56B
:100F700008A3E0F509E508333354FC90038EF074C0
:100F80000678081212F6E50890038DF090038F742E
:100F900012F0A37442F075D1FE75D601EA90627129
:100FA000F0EBA3F0906270E0D2E1F0E0A2E740FB4A
:100FB0007F02021169C082C083E9C333906272F07C
:100FC000906270E0D2E0F0D083D08222080808EA74
:100FD000C0E0EBC0E086F0E7A4FA180986F0E7A4C9
:100FE0002AFA180986F0E7A42AFA180986F0E7A475
:100FF0002AFA1986F0E7A4FBE5F02AFA190886F028
:10100000E7A42BFBE5F03AFA190886F0E7A42BFBDE
:10101000E5F03AFA18180986F0E7A4C5F02BFBE4CE
:101020003AFA1908E7C5F0C6A426F6E5F03BFBE45A
:101030003AFA1886F0E7A4F6E5F00826F6E43B084D
:10104000F6E43A08F6D0E0FBD0E0FA222518C58293
:10105000C0E0E51934FFC583C0E0E518C3958224DC
:10106000F910AF0885831985821880088583198552
:101070008218D2AFCEF0A3E520F0A37808E608F0FE
:10108000A3DEFAEFF0A3E58124FBF8E608F0A3E67F
:1010900008F0A30808E608F0A3E608F0A3158115F8
:1010A00081D0E0FED0E0F815811581E8C0E0EEC007
:1010B000E022C0D02518C582C0E0E51934FFC58301
:1010C000C0E0E518C3958224F310AF088583198525
:1010D00082188008858319858218D2AFC8F0A3E9E9
:1010E000F0A3EAF0A3EBF0A37908E709F0A3D8FA9C
:1010F000ECF0A3EDF0A3EEF0A3EFF0A3D0E0F0A3AB
:10110000D0E0F0A3D0E0F0A3E520F0A3E5F0F0A359
:1011100022851983851882E0C0E0A3E0F9A3E0FAF4
:10112000A3E0FBA37808E0F608A3DFFAE0FCA3E065
:10113000FDA3E0FEA3E0FFA3E0C0E0A3E0C0E0A3C6
:10114000E0F5D0A3E0F520A3E0A3F5F010AF08850B
:1011500083198582188008858319858218D2AFD0BB
:1011600082D083D0E0F8D0E032851983851882E000
:10117000A3FEE0A3F5207808E0A3F608DFFAE0A3D9
:10118000FFE0A3C0E0E0A3C0E0E0A3C0E0E0A3C0B4
:10119000E010AF088582188583198008858218853C
:1011A0008319D2AFD083D08222E490030278A17950
:1011B000038002F0A3D8FCD9FA7AA27B0590008EB6
:1011C000782979018015E493A3AD82AE838A828B5E
:1011D00083F0A3AA82AB838D828E83D8E9D9E712EC
:1011E0000B01121349C008C3E096F50808A3E09666
:1011F000420808A3E096420808A3E096450870015B
:10120000D3D00822C5822518C582C583351910AFF1
:1012100007F5198582188007F519858218D2AFC5A0
:1012200083222518F58210AF08F518400C15198097
:1012300008F51840021519D2AF8519832200C0D0D5
:10124000251810AF08F518500C05198008F518502E
:10125000020519D2AFD0D0226016080808C6C31301
:10126000C618C613C618C613C618C613C6D5E0EAF4
:1012700022251810AF08F518400C15198008F5182C
:1012800040021519D2AF22E066701008A3E0667024
:101290000A08A3E066700408A3E0662270042260D6
:1012A0000D18C6C333C608C633C6D5E0F41822E607
:1012B00027F60809E637F60809E637F60809E6379B
:1012C000F622E026F608A3E036F608A3E036F60894
:1012D000A3E036F62274028000C0E0F40412122269
:1012E000D0E0121332222518FAE43519FB22251812
:1012F000FCE43519FD22600C08C6C313C618C613DA
:10130000C6D5E0F42275D00075813F7518027519B5
:10131000030211A9E6F008A3E6F008A3E6F008A38B
:10132000E6F022E0F608A3E0F608A3E0F608A3E062
:10133000F622CAC0E0E6F0A308DAFAD0E0FA2225E5
:1013400018F582E43519F5832200000080FBFFFFC9
:10135000FFFFFFFFFFFFFFFFFFFFFFFFFFFFFFFF9D
:10136000FFFFFFFFFFFFFFFFFFFFFFFFFFFFFFFF8D
:10137000FFFFFFFFFFFFFFFFFFFFFFFFFFFFFFFF7D
:10138000FFFFFFFFFFFFFFFFFFFFFFFFFFFFFFFF6D
:0A1FF600CA05094338860000000008
:020000040003F7
:01FFF000F020
:020000040000FA
:10200000022C7A022219FFFFFFFFFFFFFFFFFFFFF5
:10201000FFFFFFFFFFFFFFFFFFFFFFFFFFFFFFFFD0
:10202000FFFFFFFFFFFFFFFFFFFFFF022A06FFFF8B
:10203000FFFFFFFFFFFFFFFFFFFFFFFFFFFFFFFFB0
:10204000FFFFFF022775FFFFFFFFFFFFFFFFFFFFFF
:10205000FFFFFF022153FFFFFFFFFFFFFFFFFFFF17
:10206000FFFFFFFFFFFFFFFFFFFFFF022920FFFF32
:10207000FFFFFFFFFFFFFFFFFFFFFFFFFFFFFFFF70
:10208000FFFFFF0221AA01FFFFFFFFFFFFFFFFFF8E
:10209000102010200100F0FF0700080000FFFF00E3
:1020A00000030400000F0100000300019651180016
:1020B0000200000732000000006B318532D1314F41
:1020C000320000953100000000000000000000A177
:1020D0003100000000000000000000AD3106FFFFED
:1020E000FF010400000818000000E8030000FFFFE3
:1020F000D818018813000003E8030000640064009E
:10210000B801A0BB0D00A0BB0D0002020207040134
:102110000101051E02051E020A0A01010809080143
:1021200003B80B02803E0102FEFFE8030A0500012E
:10213000FFFF0A011401E00105030101FF0F10FE7A
:10214000FF6E4E00000000A44D00000000FF0000E4
:1021500000FF00C0E074F2122594A2AFE433F5084A
:10216000D2AFAFA7AEA1EE5F54106006122EDD75A0
:10217000A1EFEE5F54086008122EE375A1F78023EB
:10218000EEA2E092F0EFA2E082F05017906198E0AA
:10219000F890093BE0C398A2D265D0335002E8F032
:1021A00075A1FE751A00E5088066C0E074F212257C
:1021B00094A2AFE433FED2AF9061A4E0F8759B0027
:1021C000E59158540860087591F7122F318023E586
:1021D0009158541060087591EF122F378014E591D3
:1021E000A2E092F0E8A2E082F05007E0C2E0F01234
:1021F00030999061A3E0F8E5E9585404600E12307C
:102200006F75E9FB906193E0A2E640F2751A00EE6B
:10221000A2E092AF7F010225F3C0E074F212259490
:10222000A2AFE433FED2AF9061A5E0F8E5BF585409
:1022300004600675BFFB1230B180D1C3E498F8E4A6
:1022400099F912227C8026C3E49AFAE49BFBE920E8
:10225000E7E912227CE498F8E499F922C3E498F8BB
:10226000E499F912227CE498F8E499F9C3E49AFA23
:10227000E49BFB22EB20E7CFE920E7E0B90010BBAD
:102280000008E88AF084F8AAF022E4FBC8FA22EBFE
:1022900070227B10C833C8C933C9335007C39AC3EF
:1022A000DBF280069A50012ADBEAC833F4C8C9334E
:1022B000F4C9FA2275F008E4C833C8C933C933C970
:1022C0009AC99B5004C92AC93BD5F0ECFBC833F42A
:1022D000C8E4C9FA2274F512252E74FA122AED7593
:1022E00008047509007808122A467404122AB77A7D
:1022F000F87B077903122DB77402122A5990810FC7
:102300007808122CA87402122CFF7808122B18706F
:10231000487508027509007808122A467402122AC4
:10232000B77AF67B077903122DB77402122A598502
:102330001882851983E0F47003A3E0F4601B85180C
:1023400082851983E0F8A3E08882F5837402F0A304
:10235000F0A37469F0A374A5F0C2AF75D69F020014
:10236000007406122A597F040227B8080808EAC038
:10237000E0EBC0E086F0E7A4FA180986F0E7A42AAB
:10238000FA180986F0E7A42AFA180986F0E7A42AC1
:10239000FA1986F0E7A4FBE5F02AFA190886F0E7B7
:1023A000A42BFBE5F03AFA190886F0E7A42BFBE52D
:1023B000F03AFA18180986F0E7A4C5F02BFBE43AC6
:1023C000FA1908E7C5F0C6A426F6E5F03BFBE43AA7
:1023D000FA1886F0E7A4F6E5F00826F6E43B08F6DE
:1023E000E43A08F6D0E0FBD0E0FA22E4CFC0E0E423
:1023F000CEC0E0E4CDC0E0E4CCC0E075F020E6263D
:10240000F608E633F608E633F608E633F618181849
:10241000EC33FCED33FDEE33FEEF33FFC3EC9709F5
:10242000ED9709EE9709EF97191919400FFFEC97EF
:10243000FC09ED97FD09EE97FE191906D5F0BFECE2
:10244000F709EDF709EEF709EFF7191919D0E0FCD4
:10245000D0E0FDD0E0FED0E0FF222518C582C0E02C
:10246000E51934FFC583C0E0E518C3958224F81050
:10247000AF0885831985821880088583198582189D
:10248000D2AFCEF0A3E520F0A37808E608F0A3DEF3
:10249000FAEFF0A3E58124FAF8E608F0A3E608F0E5
:1024A000A3E608F0A30808E608F0A3E608F0A315E1
:1024B000811581D0E0FED0E0F8158115811581E805
:1024C000C0E0EEC0E022122CF4B90003022518E4AB
:1024D0009004D17820791A8002F0A3D8FCD9FA7838
:1024E0001A9020867A01BA00028007E493A3F608C6
:1024F000DAF97AF07B1D90209478C079018015E498
:1025000093A3AD82AE838A828B83F0A3AA82AB832E
:102510008D828E83D8E9D9E77582667583917407B9
:102520001229E875829F75834B74001229E82518DB
:10253000C582C0E0E51934FFC583C0E0E518C39546
:102540008224F910AF088583198582188008858355
:1025500019858218D2AFCEF0A3E520F0A37808E663
:1025600008F0A3DEFAEFF0A3E58124FBF8E608F01B
:10257000A3E608F0A30808E608F0A3E608F0A31510
:10258000811581D0E0FED0E0F815811581E8C0E02A
:10259000EEC0E022C0D02518C582C0E0E51934FFA6
:1025A000C583C0E0E518C3958224F310AF08858386
:1025B000198582188008858319858218D2AFC8F0E2
:1025C000A3E9F0A3EAF0A3EBF0A37908E709F0A3ED
:1025D000D8FAECF0A3EDF0A3EEF0A3EFF0A3D0E077
:1025E000F0A3D0E0F0A3D0E0F0A3E520F0A3E5F065
:1025F000F0A322851983851882E0C0E0A3E0F9A347
:10260000E0FAA3E0FBA37808E0F608A3DFFAE0FC19
:10261000A3E0FDA3E0FEA3E0FFA3E0C0E0A3E0C0D1
:10262000E0A3E0F5D0A3E0F520A3E0A3F5F010AF20
:10263000088583198582188008858319858218D2B8
:10264000AFD082D083D0E0F8D0E0321E75F0108E8B
:10265000218F22858226858325851882851983E02E
:10266000CEA3E0CF852682852583EBC9EAC8EDCBD2
:10267000ECCAC3E833C8E933C9EA33CAEB33CBC386
:10268000EA9EF524EB9FF523B35004AB23AA24EC78
:1026900033CCED33CDD5F0DAAE21AF2222D083D0CA
:1026A00082ECC0E0EDC0E0E493A3FCE493A3FDED75
:1026B0004C600D1227F8EC24FFFCED34FFFD80EF99
:1026C000E493A3FCE493A3FDED4C600D1228CBEC46
:1026D00024FFFCED34FFFD80EFD0E0FDD0E0FCE412
:1026E00093A3C0E0E493C0E022851983851882E0BB
:1026F000A3FEE0A3F5207808E0A3F608DFFAE0A344
:10270000FFE0A3C0E0E0A3C0E0E0A3C0E0E0A3C01E
:10271000E0E0A3C0E010AF08858218858319800827
:10272000858218858319D2AFD083D0820229EED05A
:1027300083D082E9C0E0E493A3C386F0C5F095F0AE
:10274000F908E493A386F0C5F095F0700BE493A329
:10275000C3994005E9048002A3E475F002A4258230
:10276000F582E5F03583F583D0E0F9E493A3C0E08A
:10277000E493C0E022C0E074F2122594A2AFE433E7
:10278000FED2AFC2C0901A8AE0700BE5D1A2E4502D
:102790001D122E3B8018E5D1A2E3500675D1F71229
:1027A0002E11E5D1A2E4500675D1EF122E17EEA23C
:1027B000E092AF7F010225F3851983851882E0A39B
:1027C000FEE0A3F5207808E0A3F608DFFAE0A3FF17
:1027D000E0A3C0E0E0A3C0E0E0A3C0E0E0A3C0E06D
:1027E00010AF088582188583198008858218858333
:1027F00019D2AFD083D08222C0E0C3E4939608748C
:1028000001939618400FE49366700808740193666C
:102810001870007019A3A3C3E493960874019396EB
:1028200018A3A3400DD0E0D0E0D0E00226D9A3A3A6
:10283000A3A3A3A3D0E022D083D082C5F0E493A3C6
:10284000C5F0C395F0F5F0E493A3C395F04005E51A
:10285000F0048001E475F002A42582F582E5F035EC
:1028600083F583E493A3C0E0E493C0E02274048082
:102870000474028000CCC0E0EDC0E0E518C39CCC3D
:10288000AD1950011D10AF068C188D1980068C18DB
:102890008D19D2AF12296AD0E0FDD0E0FC2274027B
:1028A0008000CCC0E0EDC0E0E518C39CCCAD195071
:1028B000011D10AF068C188D1980068C188D19D249
:1028C000AF122948D0E0FDD0E0FC22C0E0C0F08883
:1028D000F0E4936670080874019366187000A8F01D
:1028E000A3A3700BD0F0D0E0D0E0D0E00226D9A3B3
:1028F000A3D0F0D0E022D083D082CCC0E0E493A378
:1029000060061229AA1470FAE493A36006122AD76B
:102910001470FAD0E0FCE493A3C0E0E493C0E0229A
:10292000C0E074F2122594758900C2C5901A8AE03D
:10293000700E7A007B109009D3E0F91233B1800356
:10294000123C4B7F010225F3CAC0E0E493A3C58289
:10295000CCC582C583CDC583F0A3C582CCC582C555
:1029600083CDC583DAE5D0E0CA22CAC0E0E0A3C5C2
:1029700082CCC582C583CDC583F0A3C582CCC58278
:10298000C583CDC583DAE6D0E0CA22C008C3E0968D
:10299000F50808A3E096420808A3E096420808A3B9
:1029A000E09645087001D3D00822C0E0E493A3D399
:1029B0009C5010E493A3C39C400AD0E0D0E0D0E048
:1029C000022913A3A3A3D0E02270090808082260FB
:1029D00016181818C6C333C608C633C608C633C689
:1029E00008C633C6D5E0EA22C09FF59FE473D09FA6
:1029F00022D083D082C09FE493C0E0740193C0E0F2
:102A0000740293F59F22C0E0C0D0E8C0E0A8A8D22D
:102A1000AFC2C7751A00E8A2E792AFD0E0F8D0D0F5
:102A2000D0E0322518F58210AF08F518400C1519C2
:102A30008008F51840021519D2AF85198322740455
:102A4000800A74038006740280027401C0E0F404FA
:102A5000122A23D0E0122CB72200C0D0251810AFC4
:102A600008F518500C05198008F51850020519D200
:102A7000AFD0D022BB0102E722C082C08389828A04
:102A800083BB0003E08002E493D083D082226016EF
:102A9000080808C6C313C618C613C618C613C61836
:102AA000C613C6D5E0EA222518F8E43519F922251F
:102AB00018FAE43519FB222518FCE43519FD22C368
:102AC000E0C696F608A3E0C696F608A3E0C696F61A
:102AD00008A3E0C696F622C0E0E493A36C7009D088
:102AE000E0D0E0D0E0022913A3A3D0E02225181003
:102AF000AF08F518400C15198008F5184002151993
:102B0000D2AF22E76670100809E766700A0809E785
:102B10006670040809E76622E066701008A3E066A4
:102B2000700A08A3E066700408A3E06622C3E0967A
:102B300008A3E09608A3E09608A3E096A2D265D089
:102B40003322C3E096F008A3E096F008A3E096F0E5
:102B500008A3E096F022C3E697F60809E697F60880
:102B600009E697F60809E697F622C3E493960874F7
:102B70000193960874029396087403939622E627AD
:102B8000F60809E637F60809E637F60809E637F6E3
:102B900022E026F608A3E036F608A3E036F608A3FE
:102BA000E036F622E493F608740193F60874029373
:102BB000F608740393F622E647F60809E647F60896
:102BC00009E647F60809E647F622E657F60809E659
:102BD00057F60809E657F60809E657F622E056F6D2
:102BE00008A3E056F608A3E056F608A3E056F6223E
:102BF000E056F008A3E056F008A3E056F008A3E082
:102C000056F022E026F008A3E036F008A3E036F004
:102C100008A3E036F022700422600D18C6C333C644
:102C200008C633C6D5E0F41822E4C396F608E49645
:102C3000F608E496F608E496F622C6F4C608C6F44A
:102C4000C608C6F4C608C6F4C622600D08C6A2E7C8
:102C500013C618C613C6D5E0F322C3E7960809E7E2
:102C6000960809E7960809E79622C3E09608A3E0CC
:102C70009608A3E09608A3E0962275D00075813FE0
:102C80007518D1751904000224C6600C08C6C31358
:102C9000C618C613C6D5E0F422E6F008A3E6F0088D
:102CA000A3E6F008A3E6F022E0F608A3E0F608A306
:102CB000E0F608A3E0F622CAC0E0E6F0A308DAFADC
:102CC000D0E0FA22EAF0A3EBF0A3ECF0A3EDF022BF
:102CD000E0FAA3E0FBA3E0FCA3E0FD22E0F8A3E020
:102CE000F9A3E0FAA3E0FB22E8F0A3E9F0A3EAF0FD
:102CF000A3EBF022E5C754F84401F5C7790122257A
:102D000018F582E43519F583221229F1FAD105125A
:102D100029F13FD2051229F1CFD2051229F127D38B
:102D2000051229F109D4051229F1EED4051229F171
:102D300033D5051229F194D5051229F120D60512B3
:102D400029F14CD6051229F197D6051229F1BDD6E5
:102D5000051229F155D7051229F1FED7051229F1DF
:102D600051D8051229F182D8051229F1B9D80512D6
:102D700029F15DDA051229F129DB051229F1DCDBE5
:102D8000051229F1529C071229F1639C071229F1BF
:102D9000019D071229F1F17F001229F1A1FF021212
:102DA00029F1199D071229F1299D071229F13E9D4C
:102DB000071229F1CF9D071229F18999071229F1EC
:102DC0000C9A071229F1729A071229F1EE7F00126C
:102DD00029F188FF021229F198FF021229F19BFFC5
:102DE000021229F19EFF021229F1F87F001229F147
:102DF000558F071229F1778F071229F1DF900712FB
:102E000029F16391071229F1AB7F001229F1B47FF8
:102E1000001229F1BD7F001229F1CB7F001229F1A8
:102E200036C7061229F1A2C7061229F16AC806128E
:102E300029F14BC9061229F148CB061229F1AFCB73
:102E4000061229F102CC061229F113CC061229F13F
:102E500023CC061229F195CC061229F1ABCC06122F
:102E600029F1B6CC061229F1C4CC061229F1D6CC30
:102E7000061229F1E9CC061229F115CD061229F125
:102E800097CF061229F1EECF061229F12ED00612A5
:102E900029F142D0061229F15BD0061229F14CD15A
:102EA000061229F1FDD1061229F111D2061229F1DB
:102EB0006193071229F18593071229F19E93071256
:102EC00029F1D093071229F10094071229F12D94CA
:102ED000071229F13794071229F19994071229F161
:102EE000A894071229F1B294071229F1BF9407128E
:102EF00029F142FD061229F162FD061229F1A1FD18
:102F0000061229F1BCFD061229F1DBFD061229F19A
:102F100041FE061229F14AFE061229F1A7FE061209
:102F200029F1B6FE061229F1DAFE061229F19BFFFD
:102F3000061229F1A8FF061229F1B9FF061229F19C
:102F40006FFF011229F187FF011229F1B3FF01126E
:102F500029F167D2061229F1BBD3061229F1C9D390
:102F6000061229F1DCD3061229F1F1D3061229F158
:102F700006D4061229F119D4061229F18DD40612AD
:102F800029F1F2D4061229F17AD5061229F1F6D5E3
:102F9000061229F1BAD6061229F1CAD6061229F16B
:102FA000D9D6061229F13D9F071229F1619F071218
:102FB00029F1899F071229F1B19F071229F127866C
:102FC000071229F14E86071229F16D86071229F1A1
:102FD000D586071229F11F83071229F138830712BA
:102FE00029F14483071229F15883071229F17683C6
:102FF000071229F18083071229F18A83071229F128
:103000009D83071229F12E84071229F19D8407124E
:1030100029F1D184071229F11F85071229F16C8546
:10302000071229F18785071229F19185071229F1E5
:10303000B785071229F11C86071229F1789B071220
:1030400029F19A9B071229F1289C071229F1D47FB4
:10305000001229F183A1061229F1ADA1061229F16E
:10306000CAA1061229F1DDA1061229F1F3A1061267
:1030700029F151A2061229F184A2061229F179A69A
:10308000061229F1D9A7061229F10CA8061229F176
:1030900056A8061229F1CCA9061229F1F4A90612A4
:1030A00029F109AA061229F119AA061229F15DAA25
:1030B000061229F1B8AA061229F1C8AA061229F1A6
:1030C0002496071229F13E96071229F166960712F7
:1030D00029F17F96071229F1A396071229F1C196CB
:1030E000071229F1D896071229F10697071229F13C
:1030F0002197071229F1DF9D071229F1259E07125A
:1031000029F1A8F9061229F1B8F9061229F1BFFA36
:10311000061229F1F3FA061229F11FFB061229F112
:1031200042FB061229F160FB061229F19AFB0612F6
:1031300029F103FC061229F145FC061229F184FC51
:10314000061229F1B5FC061229F1E0FC061229F15C
:10315000F2FB031229F157FC031229F1FDFC0312C3
:1031600029F134FD031229F1D097061229F17B9839
:10317000061229F1AF9A061229F1CE9C061229F106
:103180005C9E061229F15F9E061229F1159F061218
:1031900029F156A0061229F15497071229F19F9799
:1031A000071229F1368D071229F1528F071229F1E2
:1031B000C7B2061229F1EBB2061229F12AB406129F
:1031C00029F1C3B5061229F147B8061229F17EB8D4
:1031D000061229F1CCB9061229F162BD061229F1B5
:1031E00003BE061229F1E5BE061229F111BF06122F
:1031F00029F13FBF061229F174BF061229F19CBFC5
:10320000061229F1FCBF061229F10080061229F1ED
:10321000E783061229F1D685061229F1FF860612E8
:1032200029F1DF87061229F18D89061229F1378BE2
:10323000061229F1078C061229F15B8C061229F17E
:10324000CF88071229F1D988071229F1FA880712C5
:1032500029F1BDDC051229F1D2E1051229F140E383
:10326000051229F1FCE4051229F1F9E5051229F10D
:1032700029E7051229F141E8051229F121E9051292
:1032800029F10080051229F13880051229F15E8AA2
:10329000051229F13F8B051229F18B8C051229F1BA
:1032A000D48D051229F18A8E051229F15E8F05123F
:1032B00029F14590051229F12D91051229F1CF919F
:1032C000051229F1F991051229F1A993051229F1A5
:1032D0001994051229F18C94051229F1E395051230
:1032E00029F19496051229F11697051229F1C29732
:1032F000051229F13298051229F1D498051229F105
:103300004599051229F17D99051229F17F9A051237
:1033100029F12F9B051229F1D59B051229F1107E69
:10332000001229F13A7E001229F14F7F001229F193
:10333000527F001229F1939E071229F1DA9E07129B
:1033400029F11C9F071229F12C9F071229F1B7C000
:10335000061229F1F5C0061229F15EC1061229F103
:103360007BC1061229F194C1061229F146C2061248
:1033700029F14FC2061229F194C2061229F1CAC2DC
:10338000061229F1E1C2061229F153C3061229F1EE
:10339000E0C3061229F116C4061229F16DC4061203
:1033A00029F1D1C4061229F1F4C4061229F158C535
:1033B000061229F1B4C5061229F1EFC5061229F14A
:1033C00024C6061229F136C6061229F148C606128D
:1033D00029F180C6061229F1CCC6061229F10AC7C6
:1033E000061229F1FBDB061229F13BDD061229F159
:1033F0005EDD061229F16FDD061229F164DF061287
:1034000029F184DF061229F1FF8A071229F1338B93
:10341000071229F17B8B071229F1D78C071229F1AA
:10342000E4EB021229F115ED021229F14FED02121F
:1034300029F10EEF021229F138EF021229F1C5F13C
:10344000021229F105F2021229F19CF3021229F16C
:103450002FF4021229F187F4021229F12AF502123F
:1034600029F162F5021229F1A4F5021229F113F7EC
:10347000021229F165F8021229F188FA021229F1E3
:10348000B6FA021229F1DDFA021229F1E6FA021265
:1034900029F136FB021229F1C8FB021229F1B8FE0C
:1034A000021229F13BFF021229F158FF051229F1FE
:1034B0006EFF051229F178FF051229F1D2FF0512DE
:1034C00029F179E5061229F18FE5061229F134E692
:1034D000061229F173E6061229F190E6061229F187
:1034E000C1E6061229F10EE7061229F141E706129C
:1034F00029F17CE7061229F168E9061229F1C9E9E8
:10350000061229F1D6FE041229F135FF041229F121
:103510008FFF041229F17698071229F1E898071213
:1035200029F12699071229F16799071229F1F8AABA
:10353000061229F1FEAA061229F13FAB061229F163
:1035400031AD061229F1A0AD061229F16EAE0612B8
:1035500029F1AFAE061229F1DDAE061229F167AFEF
:10356000061229F17EAF061229F18BAF061229F15E
:1035700095AF061229F131B1061229F141B20612B6
:1035800029F18AB2061229F1E8F6051229F1FEF6B0
:10359000051229F191F7051229F1BDF8051229F15B
:1035A000B2F9051229F14FFA051229F18FFA051225
:1035B00029F10DFB051229F16AFB051229F17AFBAD
:1035C000051229F1A1FB051229F1F4FB051229F1DD
:1035D00065FD051229F16AFD051229F18AFD051222
:1035E00029F130DD031229F162DD031229F1FBDD3F
:1035F000031229F154DF031229F137E0031229F1F4
:10360000B6E1031229F1D2E1031229F121E20312FA
:1036100029F1A3E2031229F1F8E2031229F10BE3E5
:10362000031229F16FE3031229F1CAE3031229F10E
:103630006FE4031229F166E5031229F1A1E50312F3
:1036400029F127E6031229F178E8031229F13CE970
:10365000031229F160EA031229F1D7EA031229F1D2
:1036600005EB031229F1CFEB031229F154EC0312FD
:1036700029F1A0EC031229F1BAEC031229F103EDB0
:10368000031229F119ED031229F1D3ED031229F1E7
:10369000F9EE031229F104EF031229F162EF03128C
:1036A00029F1B7EF031229F115F0031229F111F1F5
:1036B000031229F1B4F3031229F1D3F3031229F110
:1036C000DBF4031229F1FFF4031229F175F503125B
:1036D00029F135F6031229F16CF6031229F1DEF611
:1036E000031229F1FEF7031229F12EF8031229F132
:1036F00041F8031229F144F8031229F14DF803129D
:1037000029F15FF8031229F1D0F8031229F106F923
:10371000031229F119F9031229F145F9031229F1CC
:103720006CF9031229F190F9031229F12FFA03120F
:1037300029F1A1FA031229F1D8FA031229F1E2FAC8
:10374000031229F119FB031229F12FFB031229F1AE
:103750004CFB031229F17AFB031229F190FB0312AF
:1037600029F1A8FB031229F1BAFB031229F18B9A64
:10377000071229F19C9A071229F1279B071229F1B8
:10378000CAE0061229F108E1061229F194E10612B5
:1037900029F19FE2061229F1BBE4061229F1F0E4B7
:1037A000061229F164F8011229F1B3F8011229F186
:1037B00053FA011229F127FC011229F169FC0112C7
:1037C00029F134FD011229F13CFE011229F15EFEBE
:1037D000011229F1BAFE011229F13BFF011229F170
:1037E000A351001229F1C551001229F158530012BA
:1037F00029F1A153001229F11554001229F1925414
:10380000001229F1F754001229F1FA54001229F19B
:103810003C55001229F1AC55001229F15B560012FB
:1038200029F15E56001229F1D356001229F11857DA
:10383000001229F1195B001229F1825C001229F1B2
:10384000C05C001229F1165D001229F15C600012C3
:1038500029F1D960001229F17E62001229F1AE63CC
:10386000001229F1F564001229F16F65001229F1A7
:103870008B66001229F13067001229F144670012AB
:1038800029F11268001229F14069001229F1586BE0
:10389000001229F16A6D001229F1496E001229F116
:1038A000E470001229F18571001229F1747200127E
:1038B00029F1CE75001229F1DE75001229F1437746
:1038C000001229F1D477001229F1DC78001229F1D5
:1038D000677A001229F1E57A001229F12D7C001295
:1038E00029F1777C001229F1507D001229F17C9C8E
:1038F000051229F11C9D051229F1869D051229F159
:103900009F9D051229F1369E051229F17A9E051216
:1039100029F19C9F051229F1D89F051229F154A085
:10392000051229F19FA0051229F1FEA0051229F127
:1039300007A2051229F12AA5051229F14BA60512A5
:1039400029F1C6A6051229F1ADA8051229F14DA944
:10395000051229F1F4A9051229F157AA051229F136
:10396000CCAA051229F1DBAB051229F1AFAC051287
:1039700029F1E5AC051229F114AD051229F1C8AD04
:10398000051229F1F4AD051229F174AE051229F1E1
:10399000F4AF051229F180B1051229F1C8B2051260
:1039A00029F133B4051229F13FB5051229F1E2B529
:1039B000051229F15BB6051229F189B7051229F123
:1039C000B2BC041229F115BD041229F15DBD041227
:1039D00029F1A1BD041229F10BBE041229F154BE34
:1039E000041229F18CBE041229F126BF041229F118
:1039F00080BF041229F1CDC0041229F156C104126E
:103A000029F17DC1041229F187C2041229F172C380
:103A1000041229F1BFC3041229F1BEC4041229F112
:103A2000E6C4041229F12FC6041229F140C604127B
:103A300029F158C6041229F141C7041229F127C8F7
:103A4000041229F130C9041229F15AC9041229F1CA
:103A500072C9041229F18CC9041229F1C3C90412D4
:103A600029F1E3C9041229F10ACA041229F121CA71
:103A7000041229F1FDCA041229F155CB041229F1CF
:103A8000FECD041229F12DCF041229F163CF0412C7
:103A900029F16DCF041229F184CF041229F1F1CF5D
:103AA000041229F1DAD0041229F110D1041229F1FB
:103AB000E1D1041229F182D2041229F1B0D2041208
:103AC00029F1BDD3041229F1DCD3041229F15FD40A
:103AD000041229F1D0D4041229F114D5041229F1C9
:103AE00098D5041229F1F5D5041229F1A2D60412B1
:103AF00029F188D8041229F168D9041229F1BED914
:103B0000041229F11CDB041229F132DD041229F11F
:103B1000DCDF041229F186E1041229F156E20412D5
:103B200029F1CEE2041229F1F0E2041229F1DFE3D7
:103B3000041229F1CFE4041229F13AE5041229F123
:103B4000D6E9061229F1EAEB061229F1B0EC0612C9
:103B500029F105ED061229F182ED061229F116EE82
:103B6000061229F134EE061229F178EE061229F137
:103B70009EEE061229F1C4EE061229F1DCEE0612C1
:103B800029F1F4EE061229F15FEF061229F187FC04
:103B9000041229F1B6EF061229F1BDF0061229F13F
:103BA000D8F0061229F1E1F0061229F1EAF0061226
:103BB00029F1F3F0061229F1FDF0061229F17AF14C
:103BC000061229F112D7061229F173DB061229F128
:103BD0008FDB061229F194DB061229F1E791071217
:103BE00029F1D4F5061229F1EAF5061229F183F735
:103BF000061229F1DED1051229F138F8061229F151
:103C000048F9061229F177F9061229F189F9061205
:103C100029F1C994071229F10080071229F15C806B
:103C2000071229F19C80071229F19081071229F1CE
:103C3000B481071229F1C981071229F1E98107121C
:103C400029F12082071229F13182071229F14882D5
:103C5000071229F16D82071229F1FC82071229F15E
:103C60007F7F001229F10080031229F133800312B3
:103C700029F19A80031229F12681031229F1CD81BD
:103C8000031229F11582031229F13A82031229F154
:103C90005382031229F17982031229F19B820312C4
:103CA00029F1D982031229F12883031229F15183C2
:103CB000031229F1B083031229F18984031229F137
:103CC0003F85031229F19D85031229F163860312B2
:103CD00029F1AD86031229F10487031229F16F87B8
:103CE000031229F1AD87031229F10388031229F188
:103CF0001F88031229F14A88031229F1598A0312F5
:103D000029F19F8B031229F1CB8B031229F1FF8B31
:103D1000031229F1208C031229F12F8C031229F1AF
:103D20003A8C031229F1EA8C031229F1598D0312FE
:103D300029F1068E031229F1428E031229F1008F18
:103D4000031229F10D90031229F15A90031229F15F
:103D5000E990031229F14391031229F1889103128A
:103D600029F11794031229F17195031229F1BD98D5
:103D7000031229F19B99031229F1729A031229F176
:103D8000869A031229F1AF9A031229F1209B03129C
:103D900029F1B69B031229F1299C031229F1189DE0
:103DA000031229F13D9D031229F1A09E031229F16E
:103DB000BE9E031229F1D19E031229F1359F0312F1
:103DC00029F1449F031229F1CC9F031229F1E29FAC
:103DD000031229F1E6A0031229F1F3A0031229F13D
:103DE000FCA0031229F1F6A2031229F126A4031262
:103DF00029F136A4031229F139A5031229F1B5A539
:103E0000031229F1EEA5031229F126A7031229F1C5
:103E10006CA7031229F147A9031229F128AD031257
:103E200029F13CAD031229F146AD031229F150AD41
:103E3000031229F15AAD031229F164AD031229F1DD
:103E40007DAD031229F187AD031229F101AE0312F2
:103E500029F10CAE031229F13BAE031229F163AE36
:103E6000031229F16EAE031229F1BCAE031229F13F
:103E7000C6AE031229F1D1AE031229F1F5AE031239
:103E800029F119AF031229F176AF031229F1BCAF62
:103E9000031229F1D8AF031229F15FB0031229F1FF
:103EA00096B0031229F1D5B0031229F122B1031201
:103EB00029F1A4B1031229F150B2031229F12CB453
:103EC000031229F19AB4031229F1C6B5031229F19C
:103ED000ECB5031229F145B7031229F19DBA03127B
:103EE00029F1D6BC031229F1B4BE031229F14DBF4A
:103EF000031229F172C1031229F126C2031229F11A
:103F00005FC2031229F1C5C2031229F1CFC2031205
:103F100029F1F9C4031229F1DEC5031229F145C7BD
:103F2000031229F18DC7031229F141C8031229F1A7
:103F3000E4C9031229F16BCB031229F18BCB0312D5
:103F400029F1DECB031229F1DECC031229F106CDD3
:103F5000031229F169CD031229F14CCE031229F184
:103F6000BECE031229F1D0CF031229F154D003128F
:103F700029F152D1031229F1E8D3031229F107D410
:103F8000031229F152D5031229F120D7031229F186
:103F900074D7031229F12CD8031229F1DCD80312AB
:103FA00029F13FD9031229F104DA031229F19ADA2F
:103FB000031229F101DB031229F143DB031229F17A
:103FC00074DB031229F1D4DC031229F10080021200
:103FD00029F13280021229F16B80021229F16182EB
:103FE000021229F1A382021229F18783021229F118
:103FF000DF83021229F12285021229F16E85021255
:1040000029F19A88021229F1188C021229F1608D87
:10401000021229F1F68D021229F1028E021229F103
:10402000428E021229F1D78F021229F1CB9002128F
:1040300029F1F590021229F14C91021229F1A59172
:10404000021229F11692021229F14B94021229F15F
:10405000E295021229F1B696021229F1FD97021299
:1040600029F1559A021229F1269D021229F1359D56
:10407000021229F1B99D021229F16E9E021229F154
:10408000B19E021229F1FA9E021229F14E9F0212EC
:1040900029F1B39F021229F10FA0021229F12BA0DE
:1040A000021229F15DA0021229F19CA0021229F14D
:1040B00082A1021229F131A2021229F1B7A402123F
:1040C00029F1EDA5021229F1D4A6021229F154A773
:1040D000021229F161AB021229F19FAB021229F100
:1040E00006AC021229F139AC021229F1CCAC021251
:1040F00029F1FFAC021229F19AAD021229F1E8ADC3
:10410000021229F1BBAE021229F182AF021229F18B
:1041100020B0021229F12AB3021229F13EB4021290
:1041200029F1E4B7021229F1E6B8021229F1E9B83F
:10413000021229F118B9021229F117BB021229F152
:10414000F0BB021229F115BC021229F131BD021295
:1041500029F1E9BD021229F1A0BF021229F104C020
:10416000021229F129C0021229F163C0021229F1B9
:10417000BEC0021229F19FC1021229F18DC20212A2
:1041800029F1C1C2021229F177C3021229F188C5AF
:10419000021229F1F3C5021229F13BC6021229F1DC
:1041A00074C6021229F106C7021229F15FC8021271
:1041B00029F137CC021229F12CCD021229F126CE99
:1041C000021229F1A3CE021229F175CF021229F1B0
:1041D00052D1021229F1E3D1021229F1E7D20212DF
:1041E00029F1FBD2021229F10FD3021229F123D3B4
:1041F000021229F137D3021229F16DD3021229F1EB
:104200009DD3021229F127D5021229F1E5D5021218
:1042100029F169D6021229F1BAD6021229F133D74F
:10422000021229F179D7021229F15ED9021229F17D
:104230000EDA021229F13EDA021229F1FDDA021237
:1042400029F19ADB021229F145DD021229F132DE51
:10425000021229F171DE021229F1E3DE021229F1C4
:1042600028E0021229F1DBE0021229F10FE102122B
:1042700029F127E1021229F1CAE1021229F1B8E479
:10428000021229F183E6021229F1A7E6021229F1AE
:10429000C5E6021229F199E7021229F1C6EB0212D2
:1042A00029F1F9F1061229F139F2061229F105F482
:1042B000061229F114F4061229F1E4B8051229F1C5
:1042C000A8BD051229F1FDBD051229F13BC005125B
:1042D00029F1DFC1051229F16FC2051229F1CBC402
:1042E000051229F1D2C6051229F129C7051229F1B3
:1042F0001DC9051229F16AC9051229F1C8C905129B
:1043000029F1EAC9051229F1F1C9051229F109CAF1
:10431000051229F1CDCA051229F1C4CB051229F1E4
:104320009481011229F1D681011229F12887011205
:1043300029F17487011229F1BA87011229F107893D
:10434000011229F17189011229F1B989011229F1AA
:10435000288B011229F16D8E011229F1928F011221
:1043600029F1509B011229F1D99B011229F1419F9A
:10437000011229F1A0A0011229F1FBA0011229F1DB
:1043800043A2011229F12BA3011229F1D2A5011296
:1043900029F153A7011229F1E4A7011229F1E7A796
:1043A000011229F15EA8011229F168A8011229F170
:1043B00075A8011229F1A0A8011229F14FA9011233
:1043C00029F13EAA011229F1F7AA011229F17AABCB
:1043D000011229F198AB011229F1ADAB011229F1BB
:1043E000D6AB011229F103AC011229F140AE011242
:1043F00029F11CAF011229F166AF011229F1F1AFC9
:10440000011229F19FB0011229F1D1B0011229F155
:1044100017B1011229F14AB1011229F19EB101121D
:1044200029F1EFB1011229F1F4B1011229F148B2D9
:10443000011229F1B1B2011229F17FB3011229F160
:10444000CAB3011229F12FB4011229F18BB4011260
:1044500029F127B5011229F181B8011229F1AEB96C
:10446000011229F14EBB011229F1A4BE011229F15A
:104470003ABF011229F16AC2011229F125C30112C2
:1044800029F16DC3011229F126C5011229F13AC59E
:10449000011229F144C5011229F14EC5011229F179
:1044A0005AC5011229F179C5011229F1C7C70112B4
:1044B00029F120C8011229F12AC8011229F134C8B2
:1044C000011229F1BAC8011229F10EC9011229F10C
:1044D0001BCA011229F18BCA011229F195CB0112D5
:1044E00029F1DECB011229F185CC011229F165CD2C
:1044F000011229F132CE011229F165CF011229F101
:10450000A2D0011229F1A3D1011229F1BBD10112CC
:1045100029F1EFD1011229F1F9D1011229F103D2C8
:10452000011229F10ED2011229F12CD2011229F126
:1045300074D2011229F1D2D2011229F1F9D2011259
:1045400029F10BD3011229F1A6D3011229F1DBD3F2
:10455000011229F1D9D4011229F12FD5011229F123
:104560001ED6011229F154D6011229F1B7D6011233
:1045700029F12FD7011229F1D4D8011229F1FCD940
:10458000011229F1DADA011229F1ABDB011229F16A
:104590002CDC011229F1C7DC011229F1FCDD01122A
:1045A00029F18EDE011229F1E2DE011229F14EDF3E
:1045B000011229F114E0011229F165E0011229F13B
:1045C000BDE0011229F18EE1011229F1B1E10112E0
:1045D00029F160E2011229F182E2011229F1E3E2FC
:1045E000011229F131E5011229F134E6011229F114
:1045F000F8E6011229F12CE9011229F176E90112FC
:1046000029F1C1E9011229F11CEA011229F189EA13
:10461000011229F1B7EA011229F1DBEA011229F1AD
:1046200010EB011229F13DEB011229F183EB01128C
:1046300029F1E1EB011229F135EC011229F15FEDCD
:10464000011229F10CEF011229F155EF011229F1A4
:104650007EEF011229F110F0011229F188F0011208
:1046600029F196F0011229F1BAF0011229F117F19E
:10467000011229F132F1011229F1F3F1011229F1AC
:104680001FF2011229F162F2011229F1C5F20112A1
:1046900029F1BDF4011229F1EAF4011229F1DFF543
:1046A000011229F1DCF6011229F17FF7011229F13B
:1046B000798C061229F1B18C061229F1D28C0612DE
:1046C00029F1168D061229F17A8D061229F1848DB1
:1046D000061229F1948D061229F1CB8D061229F1CB
:1046E000C391061229F1D193061229F1BE95061243
:1046F00029F15596061229F1F796061229F17380D1
:10470000041229F11C81041229F1F381041229F108
:10471000FB82041229F11B83041229F13384041251
:1047200029F1ED85041229F16086041229F1FD8634
:10473000041229F11488041229F18188041229F144
:10474000BC88041229F11189041229F14C89041240
:1047500029F19989041229F1298A041229F1B68ACA
:10476000041229F18B8B041229F1648C041229F1B3
:10477000F28C041229F1128D041229F13F8D0412DA
:1047800029F1708D041229F1438E041229F1538E00
:10479000041229F1A28E041229F1AF8E041229F11C
:1047A000B88E041229F1288F041229F1888F04127F
:1047B00029F1D38F041229F1EE8F041229F11590FB
:1047C000041229F13290041229F13E90041229F1C9
:1047D000E991041229F10292041229F18B92041238
:1047E00029F19E92041229F1BD92041229F15893E5
:1047F000041229F1C894041229F16F96041229F1C8
:10480000FE96041229F10197041229F171970412FE
:1048100029F18F97041229F13498041229F1709824
:10482000041229F17398041229F13999041229F11B
:104830009C99041229F1D599041229F14A9A04127B
:1048400029F1689A041229F1B69A041229F18B9B76
:10485000041229F1D99B041229F1279C041229F191
:10486000B49C041229F1E99C041229F11E9D041242
:1048700029F12C9D041229F18B9D041229F1039E2C
:10488000041229F1449E041229F1949E041229F184
:10489000BF9E041229F1D99E041229F1F39E04123D
:1048A00029F1CE9F041229F1D89F041229F113A0F7
:1048B000041229F123A0041229F12CA0041229F1D9
:1048C00084A0041229F198A0041229F1CEA10412A7
:1048D00029F1E1A1041229F1F8A1041229F10DA294
:1048E000041229F19BA2041229F103A3041229F155
:1048F000B6A3041229F1C1A3041229F111A50412CF
:1049000029F12DA5041229F179A5041229F1E8A5B0
:10491000041229F121A6041229F13BA6041229F15F
:104920009BA6041229F13AA7041229F185A70412C3
:1049300029F147AA041229F1FDAA041229F18DAB2D
:10494000041229F1D5AD041229F1EDAD041229F1BB
:10495000F0AD041229F1FCAD041229F110AE0412DD
:1049600029F118AE041229F14BAE041229F13EAF21
:10497000041229F1C9AF041229F15CB0041229F123
:10498000D5B0041229F199B1041229F1BBB1041276
:1049900029F154B2041229F1B1B2041229F1B4B2CE
:1049A000041229F1E1B2041229F1F6B2041229F13C
:1049B00070B3041229F1BCB4041229F1C7B5041272
:1049C00029F152B6041229F157B7041229F117B888
:1049D000041229F148B8041229F16EB8041229F121
:1049E00077B8041229F1A5B8041229F13DB90412CF
:1049F00029F1F2B9041229F163BA041229F10ABBB0
:104A0000041229F191BB041229F1D0BB041229F13F
:104A100013BC041229F14DBC041229F1DBFA041273
:104A200029F184FA041229F1D8F9041229F10CF8B9
:104A3000041229F159F7041229F10EF7041229F191
:104A4000A9F6041229F168F6041229F148F60412B5
:104A500029F17AF5041229F107F5041229F1A5F4D8
:104A6000041229F148F4041229F1BBF2041229F1CD
:104A700058F2041229F1D2F1041229F1C9F10412F9
:104A800029F1BDF1041229F18AF1041229F144EE51
:104A9000041229F116EE041229F1C3ED041229F1D2
:104AA000ABED041229F1A0ED041229F1E4CF0512B7
:104AB00029F164ED041229F1A6CF051229F180CF66
:104AC000051229F104CF051229F147FE041229F13C
:104AD000FCFD041229F190FD041229F18EEB041261
:104AE00029F177EB041229F1ADEA041229F10AEA5F
:104AF000041229F12DFD041229F12EE8041229F1E6
:104B0000D0E6041229F1C5E6041229F13DE60412AB
:104B100029F1CCF7061229F1F9E5041229F103FD78
:104B2000041229F1D5E5041229F1B1F6051229F193
:104B30006AF6051229F109F6051229F1D4F50512D4
:104B400029F1A9F5051229F175F5051229F14DF59F
:104B5000051229F1D0F4051229F1BAF4051229F150
:104B60008AF4051229F100F4051229F145F0051225
:104B700029F1FDED051229F1D5EB051229F157EBCD
:104B8000051229F108EB051229F1F8E9051229F1BE
:104B900095EA051229F156EA051229F1A1EF06005E
:104BA000000080FBE4738F0001008F1E870001006E
:104BB0007E1A35000400541E25000200581E2600EF
:104BC00002005A1E270002005C1E28000100661E1B
:104BD00029000100671E84000400571A86000100A6
:104BE000FE1D2A000100681E2B000100691E2C001A
:104BF00001006F1E2D000800641A2E000100701EB7
:104C00002F000100711E30000100721E31000100F2
:104C1000731E320001006C1A330001006D1A34005B
:104C20000100741E360001006E1A38000100751E66
:104C3000390001006E1E830002008C1E630001001B
:104C4000791A640001006A1E650001006B1E6D0088
:104C500001007A1A710008005C1A660001008B1EC0
:104C6000430001007C1E440002007D1E450001003F
:104C70007F1E46000200801E47000800711A48008F
:104C80000100821E4B000100831E040001008E1EE5
:104C9000A1000100921E37000100911E8800010052
:104CA000901E3C0001006F1A3D000100761E490075
:104CB0000200841E670001007B1A4D000200861E60
:104CC0004E000100881E4F000200891E3E000100B8
:104CD0007B1E51000100771E52000100781E530018
:104CE00001007A1E54000100701A0000000000004C
:104CF000000136360101000102010001030100013B
:104D00000401060605020000070100340801000F37
:104D1000090401010D0100FF0E0800001702000048
:104D2000190100FF1A0100011B0100FE1C0100080F
:104D30001D0200001F0100012001000121020000EE
:104D40002301000F240200002601000127010008B2
:104D5000280200FF2A0100072B0102402C0100005D
:104D60002D0100012E0100012F0100FF30010B1D5C
:104D7000310800003A0100083B01000F3C0100012E
:104D80003D0100FF3E040000420400004604000014
:104D90004A0400004E0400005204000056040000C3
:104DA0005A0400000103710301030103010301031D
:104DB00001032203020301031003000300030003A5
:104DC000000300030003000342030003240306035F
:104DD0000003000304031203250323032503230315
:104DE000040304030003000300034403000300035F
:104DF000230300036503210035038103000305033A
:104E000000030003000300032503230303027102D0
:104E100030016002110270020102020202028002ED
:104E2000100261023A0041006302730272026202E0
:104E300043020002130238000002000204021202C0
:104E400000020002000200020402040237003700E0
:104E50003C02440200023900000200026502000226
:104E60003502810200020502820283020002030071
:104E70007100300160001100700031022003500405
:104E800080001000610000001400630073007200D5
:104E90006200430000001300060000000000040050
:104EA00012000000000000000000040004003700B1
:104EB00037003C02440000000000000000006500D4
:104EC00000003500810000000500000083000000A4
:104ED0000101710101010101110101013101010112
:104EE00001018001100161013B00140063017301A5
:104EF0007201620143010001130106013D01350009
:104F0000040112010001000100010001040104017B
:104F1000330133013C01440132013600000100013C
:104F20006501000135008101000105018201830155
:104F300000010304710402046004110470040204FB
:104F40000204010402041004610400041404630454
:104F5000730472046204430400041304060400048E
:104F600000040404120400040004000400045104BA
:104F7000640000040004000444040004000400046D
:104F80000004650400043504810464000504000481
:104F90008304000436000100060000000F0000003A
:104FA0000000000000000000000003FFFF000004FC
:104FB00003FFFF0000FFFF0FF4010005C4040320FE
:104FC000000100000B000000000000000003010FC2
:104FD00000000000000000000000000000000000D1
:104FE00000000000000000000000000000000000C1
:104FF0000000130085381F008B381F809138000097
:105000002D3901002D3902000738028001380300D4
:105010000D38040013380480193805001F380600C5
:105020002B383000493831004338320055383300CE
:105030005B38350061383400673836006D38110050
:10504000793814007F3815003D38FFFF00000A0052
:105050000000020000000400000008000000100032
:10506000000020000000400000008000000000015F
:105070000000000200000004000000080000001012
:105080000000002000000040000001654306954339
:10509000088F430BB343107B3F0AC543026B4305A4
:1050A00083430771430C4D430D594364473DFF0053
:1050B0000007ECFDFDFDECDCDCCCBCACAC9C9C8CBE
:1050C0007C7C6C6C5C5C5C4C4C3C3C2C2C1C1C005C
:1050D000160F00000B150B020002220F3300000E0A
:1050E0000F667A6C636874696D65434F2E2C4C545F
:1050F000645A6967426565416C6C69616E636530CD
:1051000039D0D1D2D3D4D5D6D7D8D9DADBDCDDDECD
:10511000DF150AF4D4C0A595827263615550490029
:10512000034D4C4651181A25050200011916181690
:105130001618230300303016181920231A1C1E30AD
:10514000003C40423A3F3F392F4730303017181962
:1051500021301B1D1F300C0E020B040B0A07080028
:105160000F02040201010101090200BE040AE80362
:105170000000FA06B1500C001E00000000001151A2
:105180000E00E8037F001E050CFF0404080028043D
:105190000002090809033C0C0305080B0300FF0A81
:1051A0000C1010C082C0839018CFE4F0A3F07CB440
:1051B0007D1B7AE97B17123525123D77123FC91204
:1051C0003D7D02673D74F212245A74FE122AEDE905
:1051D000FF8A08EBFE8C09E9703374026A70167955
:1051E00008123753E4F50AF50B780A122A46780AB2
:1051F000122A4A805374016A600302532A79081202
:1052000037537B00EEFAF9123DE902532574016F22
:10521000600874026F600302532AEA600874036A2C
:1052200060030252C51241EBE960537403650860E4
:105230004D1233698A0A8B0B780A122A46750A01C5
:10524000780A122A4A750A00780A122A4AE509F5EC
:105250000A780A122A4AEEF50A780A122A4A90189F
:105260000312286D901DFEE0F97C717D1A901E8C52
:1052700012656B123DA1740A122A59025325790254
:10528000123753901DFEE0F9901803122CD0123DF6
:105290008FE9F8901813E0A2E34010E9700D901820
:1052A000D3E004F06404700312534674036508707D
:1052B000769018D4E0F9740129F0E9C394054067A9
:1052C000125346806274016A706074016F790A70CB
:1052D0002C1237537A007B04901C85E0F91234E3DA
:1052E000AA18AB19795012624F126259E812771B53
:1052F0007900901C3812656B123E3180441237538E
:10530000901E6212286D7A007B20901808E0F91236
:1053100034D77404122A59901DFEE0F99018031234
:105320002CD0123DCBE9F8E8601790817312286DFC
:105330007A017B00901808E0F91234D77404122A1D
:10534000597402027B7F901803E4F0A374F8F0A371
:1053500074FFF0A37407F02274F612245AE9FFEAEE
:10536000FE7AD1F912338D8A828B83E58245837070
:105370002A7A027B0012336FEA4B700E7A107B00A0
:10538000901808E0F91233B180148A828B8374D1AB
:10539000F0EFA3F0EEF912337B8003EFA3F0025598
:1053A000A774F712245A89089004D11278BE901E6F
:1053B0004AE0F47003A3E0F470309009D3E0901E4B
:1053C0004AF0A3E4F080238E828F831264EE600F94
:1053D0008E828F83A3A31264EBFAA9081237E98E99
:1053E000828F831264DDE8FEE9FFEE4F70D9901ED4
:1053F0004AE0F47003A3E0F4600A901E4AE0FAA9C0
:10540000081237E912448B9017D3125CBA12448504
:105410007F010226E974F012245A890B8C0C75095D
:10542000007508007410122CFF1264DD7412122C27
:10543000FF12565580471254DEF50EA3E0F50FAE6D
:1054400008EE2EFEE433FFEA2EF582EB126B316597
:105450000E7004A3E0650F7019AE09EE2EFEE43362
:10546000FFEC2EF582ED3FF583E50EF0A3E50FF09E
:105470000509050AE50AC3950C40BB0508E508C304
:10548000950B5005750A0080EBA90980007F080282
:1054900026E974F412245A890B7D00740C122CFF37
:1054A0001264DD80010DEDC3950B502E750A00804E
:1054B00002050AE50AC39C50ECED25E0FEE433FF4B
:1054C000EA2EF582EB3F1276F81254DE650870047E
:1054D000A3E0650970DB7901800279008014AE0ACF
:1054E000EE2EFEE433FFE82EF582E9125C5722121D
:1054F0002A597F040226E90229EE74F612245A1270
:1055000055917003A3E06D7017750811750918782F
:1055100008122A46EEFA1239337402122A59801AF6
:105520007508027509807808122A468A0889097860
:1055300008122A4612557E122A59806B74F61224DC
:105540005A1255917003A3E06D701775081E750906
:10555000187808122A46EEFA1239397402122A59BA
:10556000801A7508037509807808122A468A088906
:10557000097808122A4612557E122A598029EE12FD
:105580007B59125C57FD7C801267E3123957740413
:1055900022EAFEEBFF1267F8FCE439FD9017D3E036
:1055A0006C227402122A597F020226E974F6122430
:1055B0005A74FE122AED8A088B0985188285198390
:1055C000E4F0A3F01260D3126931FBECFA8882890F
:1055D00083A3A3E0F97F007E00600574FF69700477
:1055E0007E8280459017D3E06A7003A3E06B701A47
:1055F000AA18AB19124B51E9FA8518828519831242
:10560000672A70027E83EAFF801F901A7EE06004A2
:105610006401700E123CFFE960047E89800B7E817C
:105620008007E0640270027E8012564FEEF9AA08ED
:10563000AB0912393FEF6014851882851983126710
:105640002A600985188285198312717E0255A28508
:105650001882851983E0FCA3E0FD220229EE74F292
:1056600012245AEAFEEBFF7508007509001267F470
:10567000F50AE439F50B12448BEA650A7003EB6511
:105680000B7012124B3FE914F50879017A9B7B18D5
:10569000124B398003750980126B2BF50C780C12B4
:1056A0002A4A750C9B750D18780C122A4678081238
:1056B0002A4A780A122A46E509F5087808122A4A81
:1056C00012655A126B2EF97A057B801239457407E0
:1056D000027B7F74F612245AE9FF7E0080328A82B0
:1056E0008B83E0F508A3E0F8E4C8F9E50828E4397D
:1056F000F509EE25E0F8E433F9EC28F582ED39F50B
:1057000083E508F0A3E509F0EA2402FA50010B0E44
:10571000EEC39F40C90255A774E812245A74FE12C2
:105720002AED8A108B11750F00851882851983E484
:10573000F0A3F0F516F5171263A935111278B4121B
:105740007D34FA8E828F83A3A3A3E0F9EAF508E4FF
:1057500039F509AA0AAB0B124527E96401702B122F
:10576000750E122A4AE4F508F5097808122A4678D7
:1057700008122A4A780A122A467508807808122ADE
:105780004A125AFB122A59025AE4AA0AAB0B1245D2
:1057900027E970419017D3E0650A7004A3E0650B18
:1057A0006033901A7EE06402702812750E122A4A45
:1057B000E4F508F5097808122A467808122A4A788A
:1057C0000A122A467508807808122A4A125AFB12D1
:1057D0002A59025AE48E828F83A3A3A3A3E0F50B78
:1057E000EE2405FE50010FE50B602A127BF88518A8
:1057F00082851983EAF0A3EB126B48E84960161220
:10580000564FEEFAEFFBA90B1238258A0C8B0DAE22
:105810000CAF0D8003750B00127C0E601A127BF822
:105820008A168B17EA4B600FAC16AD17EEFAEFFB3A
:10583000A90A1238258003750A009004D180508E81
:10584000828F83A3A3A3A3A3A3A3A3E4F0A3F0EE57
:10585000FAEFFB851482851583A3A3E0F81264EBAD
:10586000F912337B851282851383E0C0E0A80F74A0
:105870009B28F582E43418F583D0E0F0050FA200F0
:105880005007AA12AB13123417851482851583E0D2
:10589000F514A3E0F515E51445157003025A628569
:1058A00014828515831264EE60DF8514828515836A
:1058B000A3A3A3A3A3A3A3A3E0A2E050CC85148237
:1058C000851583A3A3A3A312672A85148285158354
:1058D000A3A3601E1264F0FA7901851482851583F2
:1058E000A3A3A3A3125AEE124BA48A128B13D200C5
:1058F0008010125AEEA3A3A3A3E0F512A3E0F513C0
:10590000C200E5124513700302587E85128285138A
:1059100083A3E065087004A3E06509600F74FF6568
:1059200008700474FF6509600302587E8512828541
:105930001383A3A3A3A3A3A3A31228718512828513
:105940001383A3A3A3A3A3A3E0FC7402122CFF124E
:10595000656BA90B1237FB7402122A59E97038855E
:105960001282851383A3A3A3A3A3A3A3A3A3A31218
:105970002871851282851383A3A3A3A3A3A3A3A342
:10598000A3E0FCAA16AB17A90A1237FB7402122A6D
:1059900059E9700302587EE50A250BC333240AFA3D
:1059A0007B0012336F8A0C8B0DAE0CAF0DEA4F707B
:1059B000030258648A828B8374D2F0851082851129
:1059C00083A3A3126268A3A3E812771B8A828B8346
:1059D000A3A3A3A3E50B127D45E50B6033EA240ADC
:1059E000FAE43FFB8E828F83125CB585188285199D
:1059F00083E0F50CA3E0F50D750E00780C122A4239
:105A0000AC0BEC2CFCE433FD127D2E122A59800DD8
:105A10008A828B83A3A3A3A3A3E4F0A3F0E50A7077
:105A20000302583FA80BE828F8E433F9EE28F8EF12
:105A300039F9E8240AFAE439FB8E828F83A3A3A301
:105A4000125CB585160C85170D750E00780C122AA0
:105A500042AC0AEC2CFCE433FD127D2E122A5902D2
:105A6000584FE50F602512750E122A4A75089B756E
:105A700009187808122A46E50FF5087808122A4A0C
:105A80009017D3122871750800802DE510240BF5AE
:105A900082E43511F583E0702A12750E122A4A75D8
:105AA000089B7509187808122A46750800780812AC
:105AB0002A4A9017D31228717808122A4A125AFBE0
:105AC000122A5985188285198312672A6009851858
:105AD0008285198312717EE51645176007AA16ABF9
:105AE000171234177402122A597F100226E9125A2B
:105AF000F222E0F8A3E0F583888222E5102402FC7C
:105B0000E43511FDE5101264D43511F583E0F97A1E
:105B1000067B8012394574072274F412245A74F4F7
:105B2000122AED8A088B09ECFEEDFF740B122CFF94
:105B30007403F0122AAF12352512667F7403122AFD
:105B4000AF12351FE9600A125C4B6010E06401601F
:105B50000B8518828519837484025C148E828F836E
:105B6000A3A3A3A3A3A3A3A3E06013F46010125CF8
:105B70004B7016EE2414126B2E6003F4700B851814
:105B8000828519837482025C141278A8E064217003
:105B900002A3E07055851882851983748C1262788F
:105BA000E0F50A780A122A4A125C5C1240D77401A6
:105BB000122A59E9705F851882851983E4F012373B
:105BC0002F125C4B704F7401122AB7EE240BFAE4CB
:105BD0003FFB1240F5E9703D7D007C007900EE242A
:105BE0000BFAE43FFB1238FD802BEE2414126B2ECF
:105BF000F50A780A122A4A125C5C1240DD7401121E
:105C00002A59E98518828519837007E4F012372F25
:105C100080037488F01274C9F50A780A122A4A744B
:105C200001122AA7880A890B780A122A46E5081267
:105C30006D6435091262604480F50B780A122A46B9
:105C4000126661122A59740C0254EFEE2413125C8E
:105C500054640322F582E43FF583E022EE240BFC3A
:105C6000E43FFD8E828F83A3A3A3A3A3A3A3A3A337
:105C70001274FE8E828F83A3A3A3A3A3A3A3A3E086
:105C8000F922C082C08374F3122AED851882851927
:105C900083E4F004122CFF125CBA7403122CFFAAE6
:105CA00082AB83123C87AA18AB19123CC3740D1245
:105CB0002A5902673DA3A3A3A3A3EAF0A3EBF02212
:105CC00074F612245AEAFEEBFFEA2413126B2EF844
:105CD000A3E0125D07F8901819E058F508A3E05901
:105CE000F509E5084509601C7808122A469017D383
:105CF000122871126B2BFD7C001267DF1239517470
:105D000004122A590255A78882F583125D0F22E0FA
:105D1000FAA3E0F9EA2274EA12245A74DB122AED9B
:105D20008A148B15751200751300750A001263A989
:105D30003515F5831264F0F50EAC18AD197A007BB9
:105D400000799C123E01901A7EE060046401701498
:105D50007A047900123CEDEAF50A851882851983E8
:105D6000E02A80088518828519837401F0E0F8E53F
:105D70000EC3984003025F68E0C3950EF509C39413
:105D8000044003750903E50975F01AA4FAABF01293
:105D900034118A128B13EA4B7003025F6B750B0090
:105DA000AE12AF13850E08025E307C087D0079FFCD
:105DB000EE240AFAE43FFB123357850C82850D83EB
:105DC000A3A3A3A3E0702D850C82850D8312672AFF
:105DD00070091276D512600FE48010125FECF0901B
:105DE0001C4BE014C0E0125FD3D0E0F0125FD7127A
:105DF000601E8032901C4BE004C0E0125FD3D0E004
:105E000012604BC39403EE4003025EB11277B2748A
:105E10000212604B64017003025EBEEE2415125F35
:105E2000EF1260007401F0EE241AFE50010F050B12
:105E3000E50BC395094003025F1DE508C3950A40C1
:105E400003025EC7AA087B00123D2F8A0C8B0D054A
:105E500008901C38126031850C82850D83125FF822
:105E6000F0A3E9126023125FD374FF126050A3A362
:105E7000A3A3A3A3E0C0E0125FC1D0E0F0740112BD
:105E80002CFFE4F0850C82850D831264DD74021210
:105E90002CFFE812771B7401122AAF123CB1E9649F
:105EA000016003025DAA7404122CFF125FDD025D23
:105EB000BA125FED12604B64036003025E1BEE24B6
:105EC000151276D8025E21E50AC3950E40057508C5
:105ED000008051E50EC3950AF5088048EE2415129E
:105EE00076D812601EF0901C4BE014C0E0125FD315
:105EF000D0E0126023741D122CFFE0C0E0125FC1DD
:105F0000D0E0F0125FCB12672870051276D58003BF
:105F1000125FECF0EE241AFE50010F050BE50BC3E7
:105F200095095047740E122AB7AA087B0079871288
:105F30003E0105087418122CFF1260317410122CE7
:105F4000FF125FDD740E122CFF125FF812771B90A8
:105F50001A7EE0600464017083125FD712600074DF
:105F60000312600F74FF808A750900750A00780AB1
:105F7000122A4A7812122A467809122A4AE50EF5A0
:105F8000097809122A4A7405122CFFE0FD7C00E50D
:105F9000141264CB3515FBE5141264D03515F58366
:105FA000E0F912398D7405122A59E512451360077C
:105FB000AA12AB131234177425122A597F0E022627
:105FC000E9EE2419F582E43FF58322EE2412F582EE
:105FD000E43F2212601422127739740222AC82AD9F
:105FE00083EE240AFAE43FFB12352522EE2414F551
:105FF00082E43FF583740122126B5312772FE8225B
:1060000012600422F0EE2416F582E43FF58322F0BC
:1060100012601422EE2418F582E43FF58322126008
:1060200004E422F0EE2417F582E43FF5837402F0D5
:1060300022126B538E828F83E8F0A3E9F07C4C7DB3
:106040001CEE1264CB3FFB12352522126050E02279
:10605000F0850C82850D83A3A3A3A32274F61224DA
:106060005A74F9122AED1260CF127DF785188285D5
:106070001983122CE88E828F83A3A3A3A3E0C0E030
:106080007404122CFFD0E0127B38F87405122CFF38
:106090007401F07406122CFF7401F09017DDF0907B
:1060A00017E6041277CEFAA3E0FB9017DE125CBA73
:1060B000E89017E7F0127B4AE09017DCF0AA18ABE3
:1060C00019123D95E96003123D9B74070255A48A9D
:1060D000088B09127B9935092274F212245A74FF35
:1060E000122AED7508007E007F001243A18A0A8BF8
:1060F0000B126243800505081264DAE84970F790D4
:106100001A7EE06007640160030261B91262438095
:10611000031264DAE849602D8882898312656B90E6
:106120001C38E06A7003A3E06B600A1264E1126538
:106130006BEA4B70DC88828983126259E0687003D5
:10614000A3E06960747A167B00127ACA606B901CB7
:1061500038126268E812771B901C2D126E43F01201
:10616000450FE98E828F83A3A3A3A3A3F0901E689B
:10617000E08E828F83A3A3A3A3A3A3F07C4C7D1CFA
:10618000EE240B125FE4AA18AB19794112624FE0BA
:1061900060089017D31264DD800478FE79FF8E8248
:1061A0008F83A3A3A3A3A3A3A3E8F0A3E912627818
:1061B0001262708E0A8F0B05089017E7E0F8E50869
:1061C000C398500479008029E508C398F9C3940660
:1061D000400279057800800FE50A2414F582E43541
:1061E0000B126260F50B089017E7E0FAE8C39A40DB
:1061F000E77509007809122A4A780A122A46E9F551
:10620000097809122A4A9017E7E0F5097809122A55
:106210004AAD087C007ADE7B179017DCE0F9123972
:10622000877405122A59901A7EE060046401700B8D
:10623000EE4F6007EEFAEFFB123417123D9B74012C
:10624000027B7F1243A18A0C8B0DA80CA90D221290
:106250003B6785188285198322126B53901C382264
:10626000F583E0F50AA3E022126B538A828B832226
:10627000E50AF0A3E50BF022F0EE1277B62274F0F7
:1062800012245A74FF122AED8A0A8B0B7E008E0E9E
:106290008E0F1263A9350BF5831264F0FFAC18ADB5
:1062A000197A007B00799D123E0185188285198339
:1062B000E0F8EFC3984003026353E0C39FFEC3942A
:1062C0000B40027E0AEE75F007A4FAABF01264C32D
:1062D0008A0E8B0FEA4B6079750C00801A85088254
:1062E000850983A3A3A3A3A37403F0E5082407F5FA
:1062F0000850020509050CE50CC39E5056AC08ADCC
:1063000009E50C2FFAE43400FB798B123E01850875
:1063100082850983A3A3A3A3A3E0146008146013D8
:1063200014601F80B8850882850983A3A3A3A3A353
:10633000E480B7850882850983A3A3A3A3A374017E
:1063400080A8850882850983A3A3A3A3A3740280E0
:10635000997E007508007808122A4A780E122A469B
:10636000EEF5087808122A4AEFF5087808122A4A4A
:106370007405122CFFE0FD7C00E50A1264CB350B9E
:10638000FBE50A1264D0350BF583E0F912399374FA
:1063900005122A59E50E450F6007AA0EAB0F1234FD
:1063A000177401122A5902548DEA127B9A2274EE54
:1063B00012245A74FE122AED8A0C8B0D751000758A
:1063C00011001263A9350DF5831264F0F50AAC18BB
:1063D000AD197A007B0079A31240E38518828519F4
:1063E000831264DDC3E50A98E499502085188285FC
:1063F0001983A80AE0C398FEA3E09400FFC3EE94BB
:1064000004EF940040617E037F00805F7E00750B87
:1064100000EEF97508007808122A4A7810122A4608
:10642000E9F5087808122A4AE50AF5087808122AD8
:106430004A7405122CFFE0FDAC0BE50C1264CB3561
:106440000DFBE50C1264D0350DF583E0F912399996
:106450007405122A59E51045116007AA10AB1112F4
:1064600034177402027BD2EE4F60A3EEFAEFFBEA20
:1064700075F015A4FAA8F075F015EBA4281264C203
:106480008A108B11EA4B6032750B00750E00C3E564
:106490000E9EE49F4003026411AC08AD09A80AE512
:1064A0000E28FAE43400FB79A21240E3E508241533
:1064B000F50850020509050E80D4750BB579000268
:1064C0006413FB1234118A088B09222402FAE42295
:1064D0001264D422240FF582E4221264E1126B5379
:1064E00022E82414F582E439F58322125AF4A3A396
:1064F000125AF2E02274F612245A74FF122AEDEABC
:10650000FEEBFF12671612656B8A82F583A3A3A3C5
:10651000A3A3A3A3A3E0F9123DB9E98518828519C5
:1065200083F07508007808122A4A7401122AA78895
:106530000889097808122A4675083575098078088F
:10654000122A4612654E122A5974010255A4790185
:1065500012655AFAE43F12667822EE2402FCE43F08
:10656000FDEE240F228518828519831274FE227491
:10657000F412245A74FA122AED1260CF1278BCEE8B
:10658000FAEFFB123C8DE9600F12667FEEFAEFFB2B
:1065900012351FE964017013901A7EE070030266E1
:1065A0005C7401122CFFE4F0A380097401122CFF2B
:1065B000EEF0A3EFF0901A7EE06402701785088277
:1065C000850983A3A3126B41E0687003A3E06960AF
:1065D0000302665C8E828F83A3A3A3A3A3A3A3A3BA
:1065E000E0FEA2E650087403122CFF7401F0EEA244
:1065F000E750087404122CFF7401F07405122CFF8C
:10660000E4126938F0F50A780A122A4A7401122A4B
:10661000A7880A890B780A122A46750A34750B80F6
:10662000780A122A46126661122A59908147122C62
:10663000D01244A97A007B001244B57A007B001284
:1066400044AF7401122AAF123DEFEEA2E7400D7481
:1066500001122CFF12672A7003124A9D740602541D
:10666000EF7901E5082402FCE43509FDE508240F73
:10667000FAE4350912667822FB1238F17405221209
:1066800044858A0A8B0BAC0AAD0B2274F612245A8D
:1066900074FF122AEDEAFEEBFF901A7EE070119073
:1066A0001E6DE0700B8A828B83A3A312672A70632E
:1066B0001267161264F0F50874FF65087003750818
:1066C000FEA908123DA7E9851882851983F01241B9
:1066D000EBE96005A908123A5F901A7EE07005A9FF
:1066E00008123A5FEE240B126B2E702775080078A3
:1066F00008122A4A7401122AA78808890978081200
:106700002A467508367509807808122A4612654EA1
:10671000122A59026549EA12671B222413F582E402
:106720003FF58322F582E438F583126B53E8492262
