:020000040000FA
:10000000021305022003FFFFFFFFFF02200BFFFF8B
:10001000FFFFFF020E67FFFFFFFFFF02201BFFFF36
:10002000FFFFFF022023FFFFFFFFFF02202BFFFF48
:10003000FFFFFF022033FFFFFFFFFF020EAAFFFFBB
:10004000FFFFFF022043FFFFFFFFFF02204BFFFFE8
:10005000FFFFFF022053FFFFFFFFFF02205BFFFFB8
:10006000FFFFFF022063FFFFFFFFFF02206BFFFF88
:10007000FFFFFF022073FFFFFFFFFF02207BFFFF58
:10008000FFFFFF022083FFFFFFFFFF02208BFFFF28
:10009000FFFF70DFFFFF040000000002000000C847
:1000A0000300030369A5020269A501000000000026
:1000B00004003273000074F812104C900393E06057
:1000C0001590030274FEF0900304744DF0A37405C0
:1000D000F07A0112068C7F0102116974F712104C3C
:1000E00074FF1212717E00801F851882851983E0CB
:1000F00064FE70069003877401F085188285198369
:10010000E0F8900384E068F07C017D00AA18AB1948
:10011000120E228B09EA450970030201F385188249
:10012000851983E064EF70027E07E0C0E0900387EA
:10013000E0FA900385E0F8EA28F8E43400F9740264
:1001400028F582740339F583D0E0F0900387E060EE
:100150009814600E14602C14603C14605214606893
:100160008098900384E4F0851882851983E09003D9
:1001700086F0C394809003874004E40200F974027F
:100180000200F9851882851983E0900382F09003BC
:100190008774030200F9851882851983E090038330
:1001A000F0900386E0601990038774040200F990D0
:1001B0000385E004F0F8900386E06860030200FA2B
:1001C00090038774050200F9900385E4F09003879B
:1001D000F0900384E0F8851882851983E068600355
:1001E0000200FA900382E0644D60030200FA1203F9
:1001F000288002EEF9740112123D7F020211697427
:10020000F712104C74FB121271EAFEEBFF75080432
:1002100075090078081212D574021212EE7A907BDA
:10022000007904120ECB740212123D12067E1213D4
:100230003FE0687003A3E069701285188285198316
:10024000E0F47003A3E0F4600302030874041212E4
:10025000E61206E48A088B09A808A9097402121399
:100260003FE8F0A3E9F0740412133FE0600879015D
:100270001200B6020321851882851983E068700395
:10028000A3E0697076851882851983E0F47003A372
:10029000E0F47019740212133F7410F0A37420F08C
:1002A0008518828519837410F0A37420F0750801F5
:1002B00075090078081212D574021212EE7A247BA6
:1002C00008120F4F740212123D75080478081212BA
:1002D000D574021212EE7A907B007904120ECB7460
:1002E0000212123D12067E12133FE0687003A3E073
:1002F000697004790280067904800279031200B6DD
:100300008E828F83741E80058E828F83E4F01206A6
:100310007E12133FE0687003A3E0697004790180E6
:1003200002790074050201F774E912104C74F81296
:100330001271900307E0FA900306E0F9FEEAFCE48C
:10034000CCFDEE2CED3408FF751001750F00750E15
:10035000068E088F097402780812129CC39508FC57
:10036000E49509FD74022CF51474033DF515E514AC
:100370002497F516E5153420F517EE2410F508E45A
:100380003FF509EEF50CEF5401F50D8E128F137445
:100390000978121212F685120A900383E01460574E
:1003A00014700302046F1470030204E61460102436
:1003B000FE70030205A11470030206510206617566
:1003C0000E03794E120C619003071206747402F04A
:1003D000A374401206727408120672F0A3F0741827
:1003E000C3940704F510AA10A90F12068CA90E7465
:1003F0000812123D02083E750E04794E120C61EE91
:10040000450D7005A90A120FB5C3EE9425EF9408A7
:10041000503FC3E5089424E50994084034E51424CA
:1004200096F8E5153420F988828983E0701E8516D8
:1004300082851783E070159003887401F0888289A3
:100440008374A5F08516828517838004900388E461
:10045000F075081075090078081212D57C087D0324
:10046000EEFAEFFB120F4F740212123D0203E67513
:100470000E05C3E50A947995E04006750F01020365
:10048000E675104075110078101212D57C097D03B5
:100490007402780C12129CAA0CAB0DA90A120ECB96
:1004A000740212123D900307E0A3F0900306E0A34C
:1004B000F0751043C3EE9425EF940840030203E661
:1004C000C3E5089424E509940850030203E6900369
:1004D00088E070030203E6A816A91788828983E4DE
:1004E000F0A3F00203E675080475090078081212FB
:1004F000D574021212EE7A907B007904120ECB743E
:100500000212123D740212133FE0F8A3E0F98518BD
:1005100082851983E0687003A3E0698518828519D4
:1005200083700BE0F47003A3E0F470578009E0F4EB
:100530007003A3E0F4700D8518828519837410F0A0
:10054000A37420F012067E12133FE8F0A3E9F075C1
:10055000080178081212D574021212EE7A247B0870
:10056000120F4F740212123D75080478081212D54A
:1005700074021212EE7A907B007904120ECB740290
:1005800012123D12067E12133FE0687003A3E06969
:100590007006750E010203E6750E02750F07020361
:1005A000E6900391E06007640260030203E6EAFF5D
:1005B0007A01790012068CE060030206458003127E
:1005C0000D22120D2CE970F7740412133F12066607
:1005D000740412133F780812132385080C85090D43
:1005E000850A0E850B0F9005A2780C1212C27404B6
:1005F00012133F780C121314E5084509450A450B00
:1006000070CE8EC2E5C554E04FF5C5740412133F99
:10061000120666740412133F780812132385080C1F
:1006200085090D850A0E850B0F9005A2780C121214
:10063000C2740412133F780C121314E508450945DF
:100640000A450B70CE7A01790012068C79080203F4
:10065000EFE9900393F070030203E6750E090203BD
:10066000E679060203EFE4F0A37426F0A3E4F0A316
:10067000F022F0A3E4F0A3F0A3F0A3F0A3228518E6
:1006800082851983E0F8A3E0F974022274F812104D
:100690004CEAFE900305E0D2E7F0E9A3F0EE900308
:1006A00003F08E0874042AFE7C028004E062080CC9
:1006B000ECFA3395E0FB74022AF58274033BF58370
:1006C000EEF8C3EA98EB9400A2D265D03340DDE5A2
:1006D00008F074012A0C3395E0FD7A027B03120EB8
:1006E000520200D674E912104C7582007583FE1216
:1006F00012048A168B177514007515008A828B8375
:10070000E4F0900391E07006D2AAD2AF80046402B4
:10071000700579001200B6750C00750D20750E007D
:10072000750F00900391E0600464027015120D22B1
:100730001200DBE9F87409686003020814790012FA
:1007400000B675080075090278081212D5740212F5
:1007500012EE850C08850D09AA08E5095407FB85EA
:100760000E0A850F0B740B7808121258A908120E86
:10077000CB740212123D7E007F009005AAC0828ECB
:1007800010EFF5113395E0F512F513850C08850D82
:1007900009850E0A850F0B780879101212AF9005A3
:1007A000A678081212C2758305D08278081211E566
:1007B000501D851882851983E5822EF582E5833FD9
:1007C000F583E0F9AA14AB151208438A148B150EB1
:1007D000EE70010FC3EF940240A09005AE780C12AA
:1007E00012C29005B2780C1211E54003020723797A
:1007F00000AA14AB1512084379001208438B159018
:100800000391E07004C2AFC2AAEA451570277AA529
:100810007BA58021E870030207427406687003021A
:1008200007427407687003020742851682851783A2
:100830007401F080BA7582007583021212047F1071
:10084000021169C008C0097C088A088B09740F78F6
:10085000081212F6E508F8EA25E0FAEB33FBE9A204
:10086000E7500474014AFAE8A2E0500874216AFAD9
:1008700074106BFBE9C333F91CEC70CDD009D008C0
:100880002274F812104C78007900802274942EF5AE
:1008900082E43403F583E08A828B83F0900414129F
:1008A0000A014005900414E4F008E870010990047E
:1008B00014E0FEA3E06E6007C3E89CE99D40CDE82C
:1008C000FAE9FB7F0102116974F712104C90049849
:1008D000E0F509A3E0F508F8E509C398F895E0F913
:1008E000E508C39509E8500B120AE3701178007906
:1008F00000801B247F500109C39CE99D50EF7A00C2
:100900007B008041E004F0D2E908E8700109C3E807
:100910009CE99D502C8A828B83E0C0E0900499E092
:10092000FE74182EF582E43404F583D0E0120AD365
:1009300090049AE4F0900499E0C3947F40C6E48068
:10094000C5E8FAE9FB7F02021169C082C083C2E9EF
:10095000900498E0F8A3E0686017741828F582E422
:100960003404F583E0F5C1900498120AFA4002E4D9
:10097000F0020D4074F812104C7800790090051DBB
:10098000E07055A3E0705175F900C28FC284A28354
:1009900040FCA28F4004A28350F8AEF9C28FA2831C
:1009A0005004D2848032EEC0E0E0FE1209F6D0E0BE
:1009B000F090051E120AFA40D9E4F080D51209F62B
:1009C000E08A828B83F090051D120A014005900594
:1009D0001DE4F008E870010990051DE0FEA3E06E3B
:1009E0006007C3E89CE99D40D4E8497006E4F090B4
:1009F000051DF00208BF749D2EF582E43404F583D2
:100A000022E004120AD7C394802274F812104C908A
:100A100005A0E0FEF890059FE0FFEEC39FE0500DBB
:100A2000C398F895E0F9120AE270188012C398F89A
:100A300095E0F9E8247F500109C39CE99D4004EC4E
:100A40004D70077A007B00020AD08A828B83E0F522
:100A5000F9A3AA82AB83780179008008E004F0084A
:100A6000E8700109C3E89CE99D50278A828B83E0E6
:100A7000C0E09005A0E0FE741F2EF582E43405F579
:100A800083D0E0120AD39005A0E0C3947F40CDE468
:100A900080CCC28FA28340FCC284A28F4004A28378
:100AA00050F890059F120AEDE0F5F9C28F90059F6E
:100AB000E0FAA3E06A90059F7005120AED80051226
:100AC0000AFA4002E4F0A28350D0D284E8FAE9FBAB
:100AD0000208C3120AD722F08A828B83A3AA82ABB0
:100AE0008322E824FF18E934FFF9E84922E0FA7488
:100AF0001F2AF582E43405F58322E004F0C39480D4
:100B00002274FB121271C2009005CA7808121323D6
:100B10009005CA7401F0A3F0A37469F0A374A5F062
:100B20009005B678081212877004D20080159005DF
:100B3000BA78081212876008E59D54186410700393
:100B4000022000120C87A2005003020C04AA18AB6A
:100B5000191201FFE97003020C04851882851983BC
:100B6000E0C3943C500CE0F8743CC398FA95E0FB69
:100B700080047A007B00120D45E97003020C04909A
:100B80000391E06401700C75F800C2AB539AF7D280
:100B9000EA805E79071200B68003120D22120D2C36
:100BA000E970F7740112133FE4F0A37426F0A3E494
:100BB000F0A3F0740112133F780812132385080C78
:100BC00085090D850A0E850B0F9005A2780C12126F
:100BD000C2740112133F780C121314E5084509453D
:100BE0000A450B70CE758600C2AAC28B539AFBC20F
:100BF000E990000174CDF0022000C2AF75C9AB7559
:100C0000C95B80FE750800750900750A00750B0048
:100C1000900391E0701BD2AAD2AF79051200B6E022
:100C20007003120D221200DBE9F874096870098064
:100C3000E9794E120C6180ED74016870E2E0701782
:100C4000120D229005BE78081212C29005C27808D3
:100C50001211E550EBC2AAC2AF75C9AB75C95B8072
:100C6000FEC082C08378109005A1E0C3995015752D
:100C7000B60FE5B4A2E750FAE5BBC39940F118E816
:100C800070EDE9F0020D40C082C08353BEFBE59DCC
:100C9000A2E650FA0078F8790100120AE270FA75BB
:100CA000C6807480659E70FA43BE049062707408BA
:100CB000F0794A120C6190000174F5F07403F5D5D7
:100CC00075D489A2A0E433900391F0A2E05029D218
:100CD0008453F3F753F3EF53FDF743FD10538FF7AE
:100CE00053F7DF43FC2043F10253F5DF75F820434F
:100CF000F4F0D2FED2AB802853FF3F85FFFF53F1C3
:100D0000FE43F30C53F2F375868075C48090049B08
:100D1000E4F0A3F075C2D875C50B75C402438640D4
:100D2000801E800312094AA2E940F922C082C083D2
:100D3000900498E0F8A3E0686004790180027900EB
:100D4000D083D0822274F112104C74FF1212717E83
:100D500000900391E06401706CC28490039274016E
:100D6000F07508388E098E0A8E0B7C017D00AA185A
:100D7000AB19120E228B0DEA450D6018851882857D
:100D80001983E06410602DE064EF70088E088E090E
:100D90008E0A8E0B85080C85090D850A0E850B0FB2
:100DA0009005A278081212C2E50C450D450E450FBC
:100DB00070347E01900391E064017056D2849003F8
:100DC00092E4F08051D2AAD2AF8A088B09E4F50AE6
:100DD000F50B9005C6780C1213237808790C120FC6
:100DE000CC79061200B6900391E06003020D6A12FE
:100DF0000D221200DBE9F874096870077906120009
:100E0000B680917407686084E8608974066870A48D
:100E10008082C2AFC2AAEEF9740112123D7F0802AD
:100E20001169C082C083900391E07005120881802F
:100E30001E900392E06015A28F500BE5F98A828B19
:100E400083F07A0180027A007B0080031209740229
:100E50000D40C082C083900391E070051208C880E5
:100E600003120A0A020D40C0E074F21210B29000A0
:100E700001E064CD7005122013802AE064F570242F
:100E8000E5C1C28BC0E0900415E0F8749428F582A7
:100E9000E43403F583D0E0F0900415120AFA40051B
:100EA000E4F08001007F01021111C0E074F2121021
:100EB000B2900001E064CD700512203B800BE0642D
:100EC000F5700512094A80010080DA74F612104CA0
:100ED000890A740F550AF508750900740B78081211
:100EE000129CEA2400F8EB3480F9E82400E9350983
:100EF000F985C709A2AFE433F508C2AFE50AC454C7
:100F00000FFAE5C754F84AF5C7740A12133FE0FA1E
:100F1000A3E0FB801C88828983E08C828D83F0882B
:100F2000828983A3A882A9838C828D83A3AC82AD9E
:100F300083EAFEEBFFEE24FF1AEF34FFFBEE4F7067
:100F4000D48509C7E508A2E092AF7F030211697456
:100F5000F712104CED900389F0ECA3F0A37462F04B
:100F6000A37473F0A3E0541FF0740912133FE0F56B
:100F700008A3E0F509E508333354FC90038EF074C0
:100F80000678081212F6E50890038DF090038F742E
:100F900012F0A37442F075D1FE75D601EA90627129
:100FA000F0EBA3F0906270E0D2E1F0E0A2E740FB4A
:100FB0007F02021169C082C083E9C333906272F07C
:100FC000906270E0D2E0F0D083D08222080808EA74
:100FD000C0E0EBC0E086F0E7A4FA180986F0E7A4C9
:100FE0002AFA180986F0E7A42AFA180986F0E7A475
:100FF0002AFA1986F0E7A4FBE5F02AFA190886F028
:10100000E7A42BFBE5F03AFA190886F0E7A42BFBDE
:10101000E5F03AFA18180986F0E7A4C5F02BFBE4CE
:101020003AFA1908E7C5F0C6A426F6E5F03BFBE45A
:101030003AFA1886F0E7A4F6E5F00826F6E43B084D
:10104000F6E43A08F6D0E0FBD0E0FA222518C58293
:10105000C0E0E51934FFC583C0E0E518C3958224DC
:10106000F910AF0885831985821880088583198552
:101070008218D2AFCEF0A3E520F0A37808E608F0FE
:10108000A3DEFAEFF0A3E58124FBF8E608F0A3E67F
:1010900008F0A30808E608F0A3E608F0A3158115F8
:1010A00081D0E0FED0E0F815811581E8C0E0EEC007
:1010B000E022C0D02518C582C0E0E51934FFC58301
:1010C000C0E0E518C3958224F310AF088583198525
:1010D00082188008858319858218D2AFC8F0A3E9E9
:1010E000F0A3EAF0A3EBF0A37908E709F0A3D8FA9C
:1010F000ECF0A3EDF0A3EEF0A3EFF0A3D0E0F0A3AB
:10110000D0E0F0A3D0E0F0A3E520F0A3E5F0F0A359
:1011100022851983851882E0C0E0A3E0F9A3E0FAF4
:10112000A3E0FBA37808E0F608A3DFFAE0FCA3E065
:10113000FDA3E0FEA3E0FFA3E0C0E0A3E0C0E0A3C6
:10114000E0F5D0A3E0F520A3E0A3F5F010AF08850B
:1011500083198582188008858319858218D2AFD0BB
:1011600082D083D0E0F8D0E032851983851882E000
:10117000A3FEE0A3F5207808E0A3F608DFFAE0A3D9
:10118000FFE0A3C0E0E0A3C0E0E0A3C0E0E0A3C0B4
:10119000E010AF088582188583198008858218853C
:1011A0008319D2AFD083D08222E490030278A17950
:1011B000038002F0A3D8FCD9FA7AA27B0590008EB6
:1011C000782979018015E493A3AD82AE838A828B5E
:1011D00083F0A3AA82AB838D828E83D8E9D9E712EC
:1011E0000B01121349C008C3E096F50808A3E09666
:1011F000420808A3E096420808A3E096450870015B
:10120000D3D00822C5822518C582C583351910AFF1
:1012100007F5198582188007F519858218D2AFC5A0
:1012200083222518F58210AF08F518400C15198097
:1012300008F51840021519D2AF8519832200C0D0D5
:10124000251810AF08F518500C05198008F518502E
:10125000020519D2AFD0D0226016080808C6C31301
:10126000C618C613C618C613C618C613C6D5E0EAF4
:1012700022251810AF08F518400C15198008F5182C
:1012800040021519D2AF22E066701008A3E0667024
:101290000A08A3E066700408A3E0662270042260D6
:1012A0000D18C6C333C608C633C6D5E0F41822E607
:1012B00027F60809E637F60809E637F60809E6379B
:1012C000F622E026F608A3E036F608A3E036F60894
:1012D000A3E036F62274028000C0E0F40412122269
:1012E000D0E0121332222518FAE43519FB22251812
:1012F000FCE43519FD22600C08C6C313C618C613DA
:10130000C6D5E0F42275D00075813F7518027519B5
:10131000030211A9E6F008A3E6F008A3E6F008A38B
:10132000E6F022E0F608A3E0F608A3E0F608A3E062
:10133000F622CAC0E0E6F0A308DAFAD0E0FA2225E5
:1013400018F582E43519F5832200000080FBFFFFC9
:10135000FFFFFFFFFFFFFFFFFFFFFFFFFFFFFFFF9D
:10136000FFFFFFFFFFFFFFFFFFFFFFFFFFFFFFFF8D
:10137000FFFFFFFFFFFFFFFFFFFFFFFFFFFFFFFF7D
:10138000FFFFFFFFFFFFFFFFFFFFFFFFFFFFFFFF6D
:0A1FF600CA05094338860000000008
:020000040003F7
:01FFF000F020
:020000040000FA
:10200000022C7A022219FFFFFFFFFFFFFFFFFFFFF5
:10201000FFFFFFFFFFFFFFFFFFFFFFFFFFFFFFFFD0
:10202000FFFFFFFFFFFFFFFFFFFFFF022A06FFFF8B
:10203000FFFFFFFFFFFFFFFFFFFFFFFFFFFFFFFFB0
:10204000FFFFFF022775FFFFFFFFFFFFFFFFFFFFFF
:10205000FFFFFF022153FFFFFFFFFFFFFFFFFFFF17
:10206000FFFFFFFFFFFFFFFFFFFFFF022920FFFF32
:10207000FFFFFFFFFFFFFFFFFFFFFFFFFFFFFFFF70
:10208000FFFFFF0221AA01FFFFFFFFFFFFFFFFFF8E
:10209000102010200100F0FF0700080000FFFF00E3
:1020A00000030400000F0100000300019651180016
:1020B00002000007320000000071318532D7314F35
:1020C0003200009B3100000000000000000000A76B
:1020D0003100000000000000000000B33106FFFFE7
:1020E000FF010400000818000000E8030000FFFFE3
:1020F000D818018813000003E8030000640064009E
:10210000B801A0BB0D00A0BB0D0002020207040134
:102110000101051E02051E020A0A01010809080143
:1021200003B80B02803E0102FEFFE8030A0500012E
:10213000FFFF0A011401E00105030101FF0F10FE7A
:10214000FF744E00000000AA4D00000000FF0000D8
:1021500000FF00C0E074F2122594A2AFE433F5084A
:10216000D2AFAFA7AEA1EE5F54106006122EE3759A
:10217000A1EFEE5F54086008122EE975A1F78023E5
:10218000EEA2E092F0EFA2E082F05017906198E0AA
:10219000F890093BE0C398A2D265D0335002E8F032
:1021A00075A1FE751A00E5088066C0E074F212257C
:1021B00094A2AFE433FED2AF9061A4E0F8759B0027
:1021C000E59158540860087591F7122F378023E580
:1021D0009158541060087591EF122F3D8014E591CD
:1021E000A2E092F0E8A2E082F05007E0C2E0F01234
:1021F000309F9061A3E0F8E5E9585404600E123076
:102200007575E9FB906193E0A2E640F2751A00EE65
:10221000A2E092AF7F010225F3C0E074F212259490
:10222000A2AFE433FED2AF9061A5E0F8E5BF585409
:1022300004600675BFFB1230B780D1C3E498F8E4A0
:1022400099F912227C8026C3E49AFAE49BFBE920E8
:10225000E7E912227CE498F8E499F922C3E498F8BB
:10226000E499F912227CE498F8E499F9C3E49AFA23
:10227000E49BFB22EB20E7CFE920E7E0B90010BBAD
:102280000008E88AF084F8AAF022E4FBC8FA22EBFE
:1022900070227B10C833C8C933C9335007C39AC3EF
:1022A000DBF280069A50012ADBEAC833F4C8C9334E
:1022B000F4C9FA2275F008E4C833C8C933C933C970
:1022C0009AC99B5004C92AC93BD5F0ECFBC833F42A
:1022D000C8E4C9FA2274F512252E74FA122AED7593
:1022E00008047509007808122A467404122AB77A7D
:1022F000F87B077903122DBD7402122A5990810FC1
:102300007808122CA87402122CFF7808122B18706F
:10231000487508027509007808122A467402122AC4
:10232000B77AF67B077903122DBD7402122A5985FC
:102330001882851983E0F47003A3E0F4601B85180C
:1023400082851983E0F8A3E08882F5837402F0A304
:10235000F0A37469F0A374A5F0C2AF75D69F020014
:10236000007406122A597F040227B8080808EAC038
:10237000E0EBC0E086F0E7A4FA180986F0E7A42AAB
:10238000FA180986F0E7A42AFA180986F0E7A42AC1
:10239000FA1986F0E7A4FBE5F02AFA190886F0E7B7
:1023A000A42BFBE5F03AFA190886F0E7A42BFBE52D
:1023B000F03AFA18180986F0E7A4C5F02BFBE43AC6
:1023C000FA1908E7C5F0C6A426F6E5F03BFBE43AA7
:1023D000FA1886F0E7A4F6E5F00826F6E43B08F6DE
:1023E000E43A08F6D0E0FBD0E0FA22E4CFC0E0E423
:1023F000CEC0E0E4CDC0E0E4CCC0E075F020E6263D
:10240000F608E633F608E633F608E633F618181849
:10241000EC33FCED33FDEE33FEEF33FFC3EC9709F5
:10242000ED9709EE9709EF97191919400FFFEC97EF
:10243000FC09ED97FD09EE97FE191906D5F0BFECE2
:10244000F709EDF709EEF709EFF7191919D0E0FCD4
:10245000D0E0FDD0E0FED0E0FF222518C582C0E02C
:10246000E51934FFC583C0E0E518C3958224F81050
:10247000AF0885831985821880088583198582189D
:10248000D2AFCEF0A3E520F0A37808E608F0A3DEF3
:10249000FAEFF0A3E58124FAF8E608F0A3E608F0E5
:1024A000A3E608F0A30808E608F0A3E608F0A315E1
:1024B000811581D0E0FED0E0F8158115811581E805
:1024C000C0E0EEC0E022122CF4B90003022518E4AB
:1024D0009004D17820791A8002F0A3D8FCD9FA7838
:1024E0001A9020867A01BA00028007E493A3F608C6
:1024F000DAF97AF07B1D90209478C079018015E498
:1025000093A3AD82AE838A828B83F0A3AA82AB832E
:102510008D828E83D8E9D9E77582447583917407DB
:102520001229E87582A575834B74001229E82518D5
:10253000C582C0E0E51934FFC583C0E0E518C39546
:102540008224F910AF088583198582188008858355
:1025500019858218D2AFCEF0A3E520F0A37808E663
:1025600008F0A3DEFAEFF0A3E58124FBF8E608F01B
:10257000A3E608F0A30808E608F0A3E608F0A31510
:10258000811581D0E0FED0E0F815811581E8C0E02A
:10259000EEC0E022C0D02518C582C0E0E51934FFA6
:1025A000C583C0E0E518C3958224F310AF08858386
:1025B000198582188008858319858218D2AFC8F0E2
:1025C000A3E9F0A3EAF0A3EBF0A37908E709F0A3ED
:1025D000D8FAECF0A3EDF0A3EEF0A3EFF0A3D0E077
:1025E000F0A3D0E0F0A3D0E0F0A3E520F0A3E5F065
:1025F000F0A322851983851882E0C0E0A3E0F9A347
:10260000E0FAA3E0FBA37808E0F608A3DFFAE0FC19
:10261000A3E0FDA3E0FEA3E0FFA3E0C0E0A3E0C0D1
:10262000E0A3E0F5D0A3E0F520A3E0A3F5F010AF20
:10263000088583198582188008858319858218D2B8
:10264000AFD082D083D0E0F8D0E0321E75F0108E8B
:10265000218F22858226858325851882851983E02E
:10266000CEA3E0CF852682852583EBC9EAC8EDCBD2
:10267000ECCAC3E833C8E933C9EA33CAEB33CBC386
:10268000EA9EF524EB9FF523B35004AB23AA24EC78
:1026900033CCED33CDD5F0DAAE21AF2222D083D0CA
:1026A00082ECC0E0EDC0E0E493A3FCE493A3FDED75
:1026B0004C600D1227F8EC24FFFCED34FFFD80EF99
:1026C000E493A3FCE493A3FDED4C600D1228CBEC46
:1026D00024FFFCED34FFFD80EFD0E0FDD0E0FCE412
:1026E00093A3C0E0E493C0E022851983851882E0BB
:1026F000A3FEE0A3F5207808E0A3F608DFFAE0A344
:10270000FFE0A3C0E0E0A3C0E0E0A3C0E0E0A3C01E
:10271000E0E0A3C0E010AF08858218858319800827
:10272000858218858319D2AFD083D0820229EED05A
:1027300083D082E9C0E0E493A3C386F0C5F095F0AE
:10274000F908E493A386F0C5F095F0700BE493A329
:10275000C3994005E9048002A3E475F002A4258230
:10276000F582E5F03583F583D0E0F9E493A3C0E08A
:10277000E493C0E022C0E074F2122594A2AFE433E7
:10278000FED2AFC2C0901A8AE0700BE5D1A2E4502D
:102790001D122E418018E5D1A2E3500675D1F71223
:1027A0002E17E5D1A2E4500675D1EF122E1DEEA230
:1027B000E092AF7F010225F3851983851882E0A39B
:1027C000FEE0A3F5207808E0A3F608DFFAE0A3FF17
:1027D000E0A3C0E0E0A3C0E0E0A3C0E0E0A3C0E06D
:1027E00010AF088582188583198008858218858333
:1027F00019D2AFD083D08222C0E0C3E4939608748C
:1028000001939618400FE49366700808740193666C
:102810001870007019A3A3C3E493960874019396EB
:1028200018A3A3400DD0E0D0E0D0E00226D9A3A3A6
:10283000A3A3A3A3D0E022D083D082C5F0E493A3C6
:10284000C5F0C395F0F5F0E493A3C395F04005E51A
:10285000F0048001E475F002A42582F582E5F035EC
:1028600083F583E493A3C0E0E493C0E02274048082
:102870000474028000CCC0E0EDC0E0E518C39CCC3D
:10288000AD1950011D10AF068C188D1980068C18DB
:102890008D19D2AF12296AD0E0FDD0E0FC2274027B
:1028A0008000CCC0E0EDC0E0E518C39CCCAD195071
:1028B000011D10AF068C188D1980068C188D19D249
:1028C000AF122948D0E0FDD0E0FC22C0E0C0F08883
:1028D000F0E4936670080874019366187000A8F01D
:1028E000A3A3700BD0F0D0E0D0E0D0E00226D9A3B3
:1028F000A3D0F0D0E022D083D082CCC0E0E493A378
:1029000060061229AA1470FAE493A36006122AD76B
:102910001470FAD0E0FCE493A3C0E0E493C0E0229A
:10292000C0E074F2122594758900C2C5901A8AE03D
:10293000700E7A007B109009D3E0F91233B1800356
:10294000123C517F010225F3CAC0E0E493A3C58283
:10295000CCC582C583CDC583F0A3C582CCC582C555
:1029600083CDC583DAE5D0E0CA22CAC0E0E0A3C5C2
:1029700082CCC582C583CDC583F0A3C582CCC58278
:10298000C583CDC583DAE6D0E0CA22C008C3E0968D
:10299000F50808A3E096420808A3E096420808A3B9
:1029A000E09645087001D3D00822C0E0E493A3D399
:1029B0009C5010E493A3C39C400AD0E0D0E0D0E048
:1029C000022913A3A3A3D0E02270090808082260FB
:1029D00016181818C6C333C608C633C608C633C689
:1029E00008C633C6D5E0EA22C09FF59FE473D09FA6
:1029F00022D083D082C09FE493C0E0740193C0E0F2
:102A0000740293F59F22C0E0C0D0E8C0E0A8A8D22D
:102A1000AFC2C7751A00E8A2E792AFD0E0F8D0D0F5
:102A2000D0E0322518F58210AF08F518400C1519C2
:102A30008008F51840021519D2AF85198322740455
:102A4000800A74038006740280027401C0E0F404FA
:102A5000122A23D0E0122CB72200C0D0251810AFC4
:102A600008F518500C05198008F51850020519D200
:102A7000AFD0D022BB0102E722C082C08389828A04
:102A800083BB0003E08002E493D083D082226016EF
:102A9000080808C6C313C618C613C618C613C61836
:102AA000C613C6D5E0EA222518F8E43519F922251F
:102AB00018FAE43519FB222518FCE43519FD22C368
:102AC000E0C696F608A3E0C696F608A3E0C696F61A
:102AD00008A3E0C696F622C0E0E493A36C7009D088
:102AE000E0D0E0D0E0022913A3A3D0E02225181003
:102AF000AF08F518400C15198008F5184002151993
:102B0000D2AF22E76670100809E766700A0809E785
:102B10006670040809E76622E066701008A3E066A4
:102B2000700A08A3E066700408A3E06622C3E0967A
:102B300008A3E09608A3E09608A3E096A2D265D089
:102B40003322C3E096F008A3E096F008A3E096F0E5
:102B500008A3E096F022C3E697F60809E697F60880
:102B600009E697F60809E697F622C3E493960874F7
:102B70000193960874029396087403939622E627AD
:102B8000F60809E637F60809E637F60809E637F6E3
:102B900022E026F608A3E036F608A3E036F608A3FE
:102BA000E036F622E493F608740193F60874029373
:102BB000F608740393F622E647F60809E647F60896
:102BC00009E647F60809E647F622E657F60809E659
:102BD00057F60809E657F60809E657F622E056F6D2
:102BE00008A3E056F608A3E056F608A3E056F6223E
:102BF000E056F008A3E056F008A3E056F008A3E082
:102C000056F022E026F008A3E036F008A3E036F004
:102C100008A3E036F022700422600D18C6C333C644
:102C200008C633C6D5E0F41822E4C396F608E49645
:102C3000F608E496F608E496F622C6F4C608C6F44A
:102C4000C608C6F4C608C6F4C622600D08C6A2E7C8
:102C500013C618C613C6D5E0F322C3E7960809E7E2
:102C6000960809E7960809E79622C3E09608A3E0CC
:102C70009608A3E09608A3E0962275D00075813FE0
:102C80007518D1751904000224C6600C08C6C31358
:102C9000C618C613C6D5E0F422E6F008A3E6F0088D
:102CA000A3E6F008A3E6F022E0F608A3E0F608A306
:102CB000E0F608A3E0F622CAC0E0E6F0A308DAFADC
:102CC000D0E0FA22EAF0A3EBF0A3ECF0A3EDF022BF
:102CD000E0FAA3E0FBA3E0FCA3E0FD22E0F8A3E020
:102CE000F9A3E0FAA3E0FB22E8F0A3E9F0A3EAF0FD
:102CF000A3EBF022E5C754F84401F5C7790122257A
:102D000018F582E43519F583221229F193D10512C1
:102D100029F1AFD1051229F1F4D1051229F184D29C
:102D2000051229F1DCD2051229F1BED3051229F1D1
:102D3000A3D4051229F1E8D4051229F149D50512C9
:102D400029F1D5D5051229F101D6051229F14CD664
:102D5000051229F172D6051229F10AD7051229F1B7
:102D6000B3D7051229F106D8051229F137D8051273
:102D700029F16ED8051229F112DA051229F1DEDAED
:102D8000051229F191DB051229F11EFF061229F126
:102D90002FFF061229F1CDFF061229F1F57F00124F
:102DA00029F1A0FF021229F18D9B071229F19D9BA9
:102DB000071229F1B29B071229F1439C071229F14E
:102DC0008B9A071229F10E9B071229F1749B0712A7
:102DD00029F1F27F001229F1D97F001229F1E97F50
:102DE000001229F1EC7F001229F1EF7F001229F186
:102DF000F87F001229F1338F071229F1558F07123E
:102E000029F1BD90071229F14191071229F1B07FF4
:102E1000001229F1B97F001229F1C27F001229F1B5
:102E2000D07F001229F1E8C0061229F154C1061220
:102E300029F11CC2061229F1FDC2061229F1FAC4B9
:102E4000061229F161C5061229F1B4C5061229F14D
:102E5000C5C5061229F1D5C5061229F147C60612C5
:102E600029F15DC6061229F168C6061229F176C657
:102E7000061229F188C6061229F19BC6061229F10D
:102E8000C7C6061229F149C9061229F1A0C90612BE
:102E900029F1E0C9061229F1F4C9061229F10DCA77
:102EA000061229F1FECA061229F1AFCB061229F14A
:102EB000C3CB061229F13C93071229F16093071244
:102EC00029F17993071229F1AB93071229F1DB93CA
:102ED000071229F10894071229F11294071229F117
:102EE0007494071229F18394071229F18D94071223
:102EF00029F19A94071229F11283071229F13283DA
:102F0000071229F17183071229F18C83071229F125
:102F1000AB83071229F11184071229F11A840712D1
:102F200029F17784071229F18684071229F1AA84EE
:102F3000071229F16B85071229F17885071229F10B
:102F40008985071229F16FFF011229F187FF01120C
:102F500029F1B3FF011229F12ED1061229F182D2F3
:102F6000061229F190D2061229F1A3D2061229F1F4
:102F7000B8D2061229F1CDD2061229F1E0D20612FA
:102F800029F154D3061229F1B9D3061229F141D4FB
:102F9000061229F1BDD4061229F181D5061229F1B4
:102FA00091D5061229F1A0D5061229F1569E0712D5
:102FB00029F17A9E071229F1A29E071229F1CA9ED1
:102FC000071229F1B785071229F1DE85071229F1C9
:102FD000FD85071229F16586071229F10080071285
:102FE00029F11980071229F12580071229F139806A
:102FF000071229F15780071229F16180071229F180
:103000006B80071229F17E80071229F10F810712C8
:1030100029F17E81071229F1B281071229F100827C
:10302000071229F14D82071229F16882071229F14E
:103030007282071229F19882071229F1FD82071284
:1030400029F10DFF051229F12FFF051229F1BCFF0F
:10305000051229F188FF021229F1F0A1061229F1C7
:103060001AA2061229F137A2061229F14AA2061263
:1030700029F160A2061229F1BEA2061229F1F1A2DD
:10308000061229F1E6A6061229F146A8061229F130
:1030900079A8061229F1C3A8061229F139AA061245
:1030A00029F161AA061229F176AA061229F186AA47
:1030B000061229F1CAAA061229F125AB061229F136
:1030C00035AB061229F1FF95071229F1199607125F
:1030D00029F14196071229F15A96071229F17E9695
:1030E000071229F19C96071229F1B396071229F1CC
:1030F000E196071229F1FC96071229F1539C071259
:1031000029F1999C071229F16FF8061229F17FF82D
:10311000061229F186F9061229F1BAF9061229F1E7
:10312000E6F9061229F109FA061229F127FA061220
:1031300029F161FA061229F1CAFA061229F10CFBEB
:10314000061229F14BFB061229F17CFB061229F12C
:10315000A7FB061229F1F2FB031229F157FC031217
:1031600029F1FDFC031229F134FD031229F1D09756
:10317000061229F17B98061229F1A59A061229F167
:10318000D79C061229F1659E061229F1B09E0612FF
:1031900029F1849F061229F1C5A0061229F156983B
:1031A000071229F1A198071229F15788071229F16E
:1031B0007A8A071229F164B3061229F188B306123C
:1031C00029F1C7B4061229F160B6061229F1E4B854
:1031D000061229F11BB9061229F1D7CB061229F1E3
:1031E0007DCE061229F122CF061229F14ECF06120A
:1031F00029F17CCF061229F1B1CF061229F1D9CFDE
:10320000061229F139D0061229F10080061229F19F
:10321000E783061229F1D685061229F1FF860612E8
:1032200029F1DF87061229F18D89061229F1378BE2
:10323000061229F1078C061229F15B8C061229F17E
:10324000CC8A071229F1D68A071229F1F78A0712C8
:1032500029F172DC051229F187E1051229F1F5E265
:10326000051229F1B1E4051229F1AEE5051229F1A3
:10327000DEE6051229F1F6E7051229F1D6E8051276
:1032800029F1689C051229F1A09C051229F1C6A616
:10329000051229F1A7A7051229F1F3A8051229F1B2
:1032A0003CAA051229F1F2AA051229F1C6AB0512B2
:1032B00029F1ADAC051229F195AD051229F137AE12
:1032C000051229F161AE051229F111B0051229F19B
:1032D00081B0051229F19AB0051229F1F1B1051258
:1032E00029F1A2B2051229F124B3051229F1D0B3B4
:1032F000051229F140B4051229F1DCB4051229F1B7
:1033000053B5051229F18BB5051229F18DB60512B9
:1033100029F14CB7051229F1F2B7051229F1157EF2
:10332000001229F13F7E001229F1547F001229F189
:10333000577F001229F1AC9D071229F1F39D071266
:1033400029F1359E071229F1459E071229F169BA24
:10335000061229F1A7BA061229F110BB061229F1AB
:103360002DBB061229F146BB061229F1F8BB061245
:1033700029F101BC061229F146BC061229F17CBCD8
:10338000061229F193BC061229F105BD061229F196
:1033900092BD061229F1C8BD061229F11FBE061200
:1033A00029F183BE061229F1A6BE061229F10ABF31
:1033B000061229F166BF061229F1A1BF061229F1F2
:1033C000D6BF061229F1E8BF061229F1FABF06128C
:1033D00029F132C0061229F17EC0061229F1BCC0C3
:1033E000061229F1C2DA061229F102DC061229F1CD
:1033F00025DC061229F136DC061229F12BDE061235
:1034000029F14BDE061229F1FC8C071229F1308DCF
:10341000071229F1788D071229F1D48E071229F1AC
:10342000E4EB021229F115ED021229F14FED02121F
:1034300029F10EEF021229F138EF021229F1C5F13C
:10344000021229F105F2021229F19CF3021229F16C
:103450002FF4021229F187F4021229F12AF502123F
:1034600029F162F5021229F1A4F5021229F113F7EC
:10347000021229F165F8021229F188FA021229F1E3
:10348000B6FA021229F1DDFA021229F1E6FA021265
:1034900029F136FB021229F1C8FB021229F1B8FE0C
:1034A000021229F13BFF021229F1079D071229F1AF
:1034B0001D9D071229F1279D071229F1819D0712F1
:1034C00029F140E4061229F156E4061229F1FBE441
:1034D000061229F13AE5061229F157E5061229F1FB
:1034E00088E5061229F1D5E5061229F108E606124B
:1034F00029F143E6061229F12FE8061229F190E896
:10350000061229F12F97071229F18E97071229F138
:10351000E897071229F17899071229F1EA99071219
:1035200029F1289A071229F1699A071229F165AB46
:10353000061229F16BAB061229F1ACAB061229F188
:103540009EAD061229F1CEAD061229F13DAE06124E
:1035500029F10BAF061229F14CAF061229F17AAF0F
:10356000061229F104B0061229F11BB0061229F146
:1035700028B0061229F132B0061229F1CEB1061296
:1035800029F1DEB2061229F127B3061229F19DF6C0
:10359000051229F1B3F6051229F146F7051229F1B2
:1035A00072F8051229F167F9051229F104FA0512DA
:1035B00029F144FA051229F1C2FA051229F11FFB7B
:1035C000051229F12FFB051229F156FB051229F1ED
:1035D000A9FB051229F11AFD051229F11FFD05129B
:1035E00029F13FFD051229F130DD031229F162DDD9
:1035F000031229F1FBDD031229F154DF031229F133
:1036000037E0031229F1B6E1031229F1D2E10312E6
:1036100029F121E2031229F1A3E2031229F1F8E2D0
:10362000031229F10BE3031229F16FE3031229F1CD
:10363000CAE3031229F16FE4031229F166E50312CC
:1036400029F1A1E5031229F127E6031229F178E80F
:10365000031229F13CE9031229F160EA031229F16E
:10366000D7EA031229F105EB031229F1CFEB03127C
:1036700029F154EC031229F1A0EC031229F1BAEC60
:10368000031229F103ED031229F119ED031229F1B7
:10369000D3ED031229F1F9EE031229F104EF03121D
:1036A00029F162EF031229F1B7EF031229F115F0A6
:1036B000031229F111F1031229F1B4F3031229F1D4
:1036C000D3F3031229F1DBF4031229F1FFF40312FF
:1036D00029F175F5031229F135F6031229F16CF67B
:1036E000031229F1DEF6031229F1FEF7031229F184
:1036F0002EF8031229F141F8031229F144F80312BC
:1037000029F14DF8031229F15FF8031229F1D0F8DD
:10371000031229F106F9031229F119F9031229F10B
:1037200045F9031229F16CF9031229F190F90312FA
:1037300029F12FFA031229F1A1FA031229F1D8FA7B
:10374000031229F1E2FA031229F119FB031229F1FC
:103750002FFB031229F14CFB031229F17AFB031210
:1037600029F190FB031229F1A8FB031229F1BAFBFE
:10377000031229F102FF041229F113FF041229F1A7
:103780009EFF041229F191DF061229F1CFDF061204
:1037900029F15BE0061229F166E1061229F182E3C4
:1037A000061229F1B7E3061229F164F8011229F192
:1037B000B3F8011229F153FA011229F127FC011281
:1037C00029F169FC011229F134FD011229F13CFEB5
:1037D000011229F15EFE011229F1BAFE011229F14E
:1037E0003BFF011229F1A851001229F1CA51001220
:1037F00029F15D53001229F1A653001229F11A5440
:10380000001229F19754001229F1FC54001229F1F9
:10381000FF54001229F14155001229F1B15500124F
:1038200029F16056001229F16356001229F1D85689
:10383000001229F11D57001229F11E5B001229F117
:10384000875C001229F1C55C001229F11B5D001292
:1038500029F16160001229F1DE60001229F1836212
:10386000001229F1B363001229F1FA64001229F160
:103870007465001229F19066001229F13567001273
:1038800029F14967001229F11768001229F14569E9
:10389000001229F15D6B001229F16F6D001229F100
:1038A0004E6E001229F1E970001229F18A7100129E
:1038B00029F17972001229F1D375001229F1E3750B
:1038C000001229F14877001229F1D977001229F165
:1038D000E178001229F16C7A001229F1EA7A0012DB
:1038E00029F1327C001229F17C7C001229F1557DEE
:1038F000001229F10080051229F1A080051229F19A
:103900000A81051229F12381051229F1BA810512D4
:1039100029F1FE81051229F12083051229F15C832A
:10392000051229F1D883051229F12384051229F102
:103930008284051229F18B85051229F1AE880512C2
:1039400029F1CF89051229F14A8A051229F1318C12
:10395000051229F1D18C051229F1788D051229F172
:10396000DB8D051229F1508E051229F15F8F0512AA
:1039700029F13390051229F16990051229F19890E7
:10398000051229F14C91051229F17891051229F1BE
:10399000F891051229F17893051229F10495051281
:1039A00029F14C96051229F1B797051229F1C39810
:1039B000051229F16699051229F1DF99051229F1FD
:1039C0000D9B051229F1B2BC041229F115BD041298
:1039D00029F15DBD041229F1A1BD041229F10BBE2C
:1039E000041229F154BE041229F18CBE041229F1EB
:1039F00026BF041229F180BF041229F1CDC00412A0
:103A000029F156C1041229F17DC1041229F187C29E
:103A1000041229F172C3041229F1BFC3041229F15F
:103A2000BEC4041229F1E6C4041229F12FC60412FF
:103A300029F140C6041229F158C6041229F141C7E0
:103A4000041229F127C8041229F130C9041229F1FE
:103A50005AC9041229F172C9041229F18CC904123D
:103A600029F1C3C9041229F1E3C9041229F10ACAD0
:103A7000041229F121CA041229F1FDCA041229F104
:103A800055CB041229F1FECD041229F12DCF0412D9
:103A900029F163CF041229F16DCF041229F184CFEB
:103AA000041229F1F1CF041229F1DAD0041229F11C
:103AB00010D1041229F1E1D1041229F182D20412A9
:103AC00029F1B0D2041229F1BDD3041229F1DCD3BB
:103AD000041229F15FD4041229F1D0D4041229F17F
:103AE00014D5041229F198D5041229F1F5D5041240
:103AF00029F1A2D6041229F188D8041229F168D933
:103B0000041229F1BED9041229F11CDB041229F197
:103B100032DD041229F1DCDF041229F186E10412FE
:103B200029F156E2041229F1CEE2041229F1F0E261
:103B3000041229F1DFE3041229F1CFE4041229F180
:103B40003AE5041229F19DE8061229F1B1EA0612BC
:103B500029F177EB061229F1CCEB061229F149EC99
:103B6000061229F1DDEC061229F1FBEC061229F10F
:103B70003FED061229F165ED061229F18BED0612D3
:103B800029F1A3ED061229F1BBED061229F107FB7D
:103B9000041229F168EE061229F17DEE061229F1D0
:103BA00084EF061229F19FEF061229F1A8EF061201
:103BB00029F1B1EF061229F1BAEF061229F1C4EF8B
:103BC000061229F141F0061229F1D9D5061229F180
:103BD0003ADA061229F156DA061229F15BDA0612F0
:103BE00029F1C291071229F19BF4061229F1B1F4CF
:103BF000061229F199CF051229F193F6061229F13F
:103C0000FFF6061229F10FF8061229F13EF8061206
:103C100029F150F8061229F1A494071229F1FFFBAB
:103C2000061229F15BFC061229F19BFC061229F110
:103C30008FFD061229F1B3FD061229F1C8FD061207
:103C400029F1E8FD061229F11FFE061229F130FEC6
:103C5000061229F147FE061229F16CFE061229F11F
:103C6000FBFE061229F1847F001229F10080031265
:103C700029F13380031229F19A80031229F1268158
:103C8000031229F1CD81031229F11582031229F1C2
:103C90003A82031229F15382031229F17982031225
:103CA00029F19B82031229F1D982031229F1288379
:103CB000031229F15183031229F1B083031229F170
:103CC0008984031229F13F85031229F19D8503128E
:103CD00029F16386031229F1AD86031229F10487C5
:103CE000031229F16F87031229F1AD87031229F11D
:103CF0000388031229F11F88031229F14A8803124D
:103D000029F1598A031229F19F8B031229F1CB8BD8
:103D1000031229F1FF8B031229F1208C031229F1E0
:103D20002F8C031229F13A8C031229F1EA8C031229
:103D300029F1598D031229F1068E031229F1428EC1
:103D4000031229F1008F031229F10D90031229F1BA
:103D50005A90031229F1E990031229F143910312B9
:103D600029F18891031229F11794031229F1719511
:103D7000031229F1BD98031229F19B99031229F12D
:103D8000729A031229F1869A031229F1AF9A03124B
:103D900029F1209B031229F1B69B031229F1299CDA
:103DA000031229F1189D031229F13D9D031229F1F7
:103DB000A09E031229F1BE9E031229F1D19E031287
:103DC00029F1359F031229F1449F031229F1CC9F59
:103DD000031229F1E29F031229F1E6A0031229F14F
:103DE000F3A0031229F1FCA0031229F1F6A2031299
:103DF00029F126A4031229F136A4031229F139A5C9
:103E0000031229F1B5A5031229F1EEA5031229F138
:103E100026A7031229F16CA7031229F147A903125F
:103E200029F128AD031229F13CAD031229F146AD69
:103E3000031229F150AD031229F15AAD031229F1F1
:103E400064AD031229F17DAD031229F187AD031290
:103E500029F101AE031229F10CAE031229F13BAE98
:103E6000031229F163AE031229F16EAE031229F198
:103E7000BCAE031229F1C6AE031229F1D1AE031272
:103E800029F1F5AE031229F119AF031229F176AF2A
:103E9000031229F1BCAF031229F1D8AF031229F1A3
:103EA0005FB0031229F196B0031229F1D5B00312C5
:103EB00029F122B1031229F1A4B1031229F150B260
:103EC000031229F12CB4031229F19AB4031229F137
:103ED000C6B5031229F1ECB5031229F145B7031257
:103EE00029F19DBA031229F1D6BC031229F1B4BEFF
:103EF000031229F14DBF031229F172C1031229F1F6
:103F000026C2031229F15FC2031229F1C5C20312AE
:103F100029F1CFC2031229F1F9C4031229F1DEC538
:103F2000031229F145C7031229F18DC7031229F1A4
:103F300041C8031229F1E4C9031229F16BCB031222
:103F400029F18BCB031229F1DECB031229F1DECC50
:103F5000031229F106CD031229F169CD031229F1CB
:103F60004CCE031229F1BECE031229F1D0CF031299
:103F700029F154D0031229F152D1031229F1E8D3C7
:103F8000031229F107D4031229F152D5031229F1A2
:103F900020D7031229F174D7031229F12CD8031268
:103FA00029F1DCD8031229F13FD9031229F104DAEF
:103FB000031229F19ADA031229F101DB031229F124
:103FC00043DB031229F174DB031229F1D4DC031261
:103FD00029F10080021229F13280021229F16B804E
:103FE000021229F16182021229F1A382021229F13F
:103FF0008783021229F1DF83021229F1228502123E
:1040000029F16E85021229F19A88021229F1188C81
:10401000021229F1608D021229F1F68D021229F1A6
:10402000028E021229F1428E021229F1D78F02125A
:1040300029F1CB90021229F1F590021229F14C914D
:10404000021229F1A591021229F11692021229F108
:104050004B94021229F1E295021229F1B69602124E
:1040600029F1FD97021229F1559A021229F1269D94
:10407000021229F1359D021229F1B99D021229F18E
:104080006E9E021229F1B19E021229F1FA9E0212CD
:1040900029F14E9F021229F1B39F021229F10FA0BC
:1040A000021229F12BA0021229F15DA0021229F1BE
:1040B0009CA0021229F182A1021229F131A202125E
:1040C00029F1B7A4021229F1EDA5021229F1D4A613
:1040D000021229F154A7021229F161AB021229F14F
:1040E0009FAB021229F106AC021229F139AC02127F
:1040F00029F1CCAC021229F1FFAC021229F19AADE0
:10410000021229F1E8AD021229F1BBAE021229F127
:1041100082AF021229F120B0021229F12AB3021251
:1041200029F13EB4021229F1E4B7021229F1E6B8EE
:10413000021229F1E9B8021229F118B9021229F183
:1041400017BB021229F1F0BB021229F115BC0212B1
:1041500029F131BD021229F1E9BD021229F1A0BFF6
:10416000021229F104C0021229F129C0021229F118
:1041700063C0021229F1BEC0021229F19FC10212CE
:1041800029F18DC2021229F1C1C2021229F177C3AD
:10419000021229F188C5021229F1F3C5021229F190
:1041A0003BC6021229F174C6021229F106C7021297
:1041B00029F15FC8021229F137CC021229F12CCD66
:1041C000021229F126CE021229F1A3CE021229F100
:1041D00075CF021229F152D1021229F1E3D1021254
:1041E00029F1E7D2021229F1FBD2021229F10FD3F1
:1041F000021229F123D3021229F137D3021229F135
:104200006DD3021229F19DD3021229F127D5021292
:1042100029F1E5D5021229F169D6021229F1BAD69F
:10422000021229F133D7021229F179D7021229F1AA
:104230005ED9021229F10EDA021229F13EDA0212D7
:1042400029F1FDDA021229F19ADB021229F145DD8A
:10425000021229F132DE021229F171DE021229F175
:10426000E3DE021229F128E0021229F1DBE002125A
:1042700029F10FE1021229F127E1021229F1CAE125
:10428000021229F1B8E4021229F183E6021229F19F
:10429000A7E6021229F1C5E6021229F199E70212F6
:1042A00029F1C6EB021229F1C0F0061229F100F142
:1042B000061229F1CCF2061229F1DBF2061229F1DD
:1042C00099B8051229F15DBD051229F1B2BD05129B
:1042D00029F1F0BF051229F194C1051229F124C278
:1042E000051229F180C4051229F187C6051229F1AA
:1042F000DEC6051229F1D2C8051229F11FC905121F
:1043000029F17DC9051229F19FC9051229F1A6C914
:10431000051229F1BEC9051229F182CA051229F137
:1043200079CB051229F19481011229F1D68101126C
:1043300029F12887011229F17487011229F1BA871E
:10434000011229F10789011229F17189011229F15C
:10435000B989011229F1288B011229F16D8E011200
:1043600029F1928F011229F1509B011229F1D99B59
:10437000011229F1419F011229F1A0A0011229F196
:10438000FBA0011229F143A2011229F12BA3011272
:1043900029F1D2A5011229F153A7011229F1E4A7AD
:1043A000011229F1E7A7011229F15EA8011229F1F2
:1043B00068A8011229F175A8011229F1A0A801121B
:1043C00029F14FA9011229F13EAA011229F1F7AAF8
:1043D000011229F17AAB011229F198AB011229F1EE
:1043E000ADAB011229F1D6AB011229F103AC0112D8
:1043F00029F140AE011229F11CAF011229F166AF7B
:10440000011229F1F1AF011229F19FB0011229F136
:10441000D1B0011229F117B1011229F14AB10112EB
:1044200029F19EB1011229F1EFB1011229F1F4B184
:10443000011229F148B2011229F1B1B2011229F198
:104440007FB3011229F1CAB3011229F12FB401126D
:1044500029F18BB4011229F127B5011229F181B894
:10446000011229F1AEB9011229F14EBB011229F155
:10447000A4BE011229F13ABF011229F16AC2011248
:1044800029F125C3011229F16DC3011229F126C5B5
:10449000011229F13AC5011229F144C5011229F18D
:1044A0004EC5011229F15AC5011229F179C501122F
:1044B00029F1C7C7011229F120C8011229F12AC820
:1044C000011229F134C8011229F1BAC8011229F1E7
:1044D0000EC9011229F11BCA011229F18BCA01125E
:1044E00029F195CB011229F1DECB011229F185CCFE
:1044F000011229F165CD011229F132CE011229F103
:1045000065CF011229F1A2D0011229F1A3D1011224
:1045100029F1BBD1011229F1EFD1011229F1F9D111
:10452000011229F103D2011229F10ED2011229F14F
:104530002CD2011229F174D2011229F1D2D2011226
:1045400029F1F9D2011229F10BD3011229F1A6D3D5
:10455000011229F1DBD3011229F1D9D4011229F179
:104560002FD5011229F11ED6011229F154D60112BC
:1045700029F1B7D6011229F12FD7011229F1D4D888
:10458000011229F1FCD9011229F1DADA011229F11B
:10459000ABDB011229F12CDC011229F1C7DC01127D
:1045A00029F1FCDD011229F18EDE011229F1E2DE92
:1045B000011229F14EDF011229F114E0011229F153
:1045C00065E0011229F1BDE0011229F18EE101122D
:1045D00029F1B1E1011229F160E2011229F182E22F
:1045E000011229F1E3E2011229F131E5011229F169
:1045F00034E6011229F1F8E6011229F12CE9011241
:1046000029F176E9011229F1C1E9011229F11CEA27
:10461000011229F189EA011229F1B7EA011229F1FF
:10462000DBEA011229F110EB011229F13DEB011235
:1046300029F183EB011229F1E1EB011229F135ECAB
:10464000011229F15FED011229F10CEF011229F19C
:1046500055EF011229F17EEF011229F110F001123C
:1046600029F188F0011229F196F0011229F1BAF02E
:10467000011229F117F1011229F132F1011229F188
:10468000F3F1011229F11FF2011229F162F2011274
:1046900029F1C5F2011229F1BDF4011229F1EAF460
:1046A000011229F1DFF5011229F1DCF6011229F1DD
:1046B0007FF7011229F1798C061229F1B18C0612CB
:1046C00029F1D28C061229F1168D061229F17A8D64
:1046D000061229F1848D061229F1948D061229F112
:1046E000CB8D061229F1C391061229F1D19306123E
:1046F00029F1BE95061229F15596061229F1F79671
:10470000061229F17380041229F11C81041229F187
:10471000F381041229F1FB82041229F11B83041294
:1047200029F13384041229F1ED85041229F1608600
:10473000041229F1FD86041229F11488041229F1CA
:104740008188041229F1BC88041229F1118904120C
:1047500029F14C89041229F19989041229F1298A35
:10476000041229F1B68A041229F18B8B041229F163
:10477000648C041229F1F28C041229F1128D0412B6
:1047800029F13F8D041229F1708D041229F1438E15
:10479000041229F1538E041229F1A28E041229F178
:1047A000AF8E041229F1B88E041229F1288F041259
:1047B00029F1888F041229F1D38F041229F1EE8F89
:1047C000041229F11590041229F13290041229F1F2
:1047D0003E90041229F1E991041229F10292041287
:1047E00029F18B92041229F19E92041229F1BD92B3
:1047F000041229F15893041229F1C894041229F1E2
:104800006F96041229F1FE96041229F10197041201
:1048100029F17197041229F18F97041229F1349824
:10482000041229F17098041229F17398041229F1E5
:104830003999041229F19C99041229F1D59904128D
:1048400029F14A9A041229F1689A041229F1B69AB8
:10485000041229F18B9B041229F1D99B041229F12E
:10486000279C041229F1B49C041229F1E99C04123A
:1048700029F11E9D041229F12C9D041229F18B9D12
:10488000041229F1039E041229F1449E041229F115
:10489000949E041229F1BF9E041229F1D99E04129C
:1048A00029F1F39E041229F1CE9F041229F1D89F19
:1048B000041229F113A0041229F123A0041229F1F2
:1048C0002CA0041229F184A0041229F198A004124A
:1048D00029F1CEA1041229F1E1A1041229F1F8A1D4
:1048E000041229F10DA2041229F19BA2041229F14C
:1048F00003A3041229F1B6A3041229F1C1A30412DF
:1049000029F111A5041229F12DA5041229F179A587
:10491000041229F1E8A5041229F121A6041229F1B3
:104920003BA6041229F19BA6041229F13AA704120E
:1049300029F185A7041229F147AA041229F1FDAA39
:10494000041229F18DAB041229F1D5AD041229F11D
:10495000EDAD041229F1F0AD041229F1FCAD041201
:1049600029F110AE041229F118AE041229F14BAE50
:10497000041229F13EAF041229F1C9AF041229F142
:104980005CB0041229F1D5B0041229F199B10412D6
:1049900029F1BBB1041229F154B2041229F1B1B2C8
:1049A000041229F1B4B2041229F1E1B2041229F17E
:1049B000F6B2041229F170B3041229F1BCB4041246
:1049C00029F1C7B5041229F152B6041229F157B7DB
:1049D000041229F117B8041229F148B8041229F178
:1049E0006EB8041229F177B8041229F1A5B804129F
:1049F00029F13DB9041229F1F2B9041229F163BA7F
:104A0000041229F10ABB041229F191BB041229F105
:104A1000D0BB041229F113BC041229F14DBC0412BD
:104A200029F1B0FA041229F104FA041229F13CF830
:104A3000041229F185F7041229F155F7041229F11E
:104A40000AF7041229F1A5F6041229F164F60412FA
:104A500029F144F6041229F176F5041229F103F53F
:104A6000041229F1A1F4041229F144F4041229F1E9
:104A7000B7F2041229F154F2041229F1CEF1041212
:104A800029F1C5F1041229F1B9F1041229F186F1D5
:104A9000041229F140EE041229F112EE041229F158
:104AA000BFED041229F1A7ED041229F19CED0412C7
:104AB00029F15BCF051229F160ED041229F135CF00
:104AC000051229F1B9CE051229F173FE041229F15C
:104AD00028FE041229F1BCFD041229F159FD04122B
:104AE00029F18EEB041229F177EB041229F1ADEADA
:104AF000041229F10AEA041229F12FFD041229F106
:104B00002EE8041229F1D0E6041229F1C5E60412B8
:104B100029F13DE6041229F14AF6061229F1F9E5D8
:104B2000041229F1B3FC041229F1D5E5041229F18C
:104B300066F6051229F11FF6051229F1BEF50512D8
:104B400029F189F5051229F15EF5051229F12AF5F9
:104B5000051229F102F5051229F185F4051229F152
:104B60006FF4051229F13FF4051229F1B5F305128E
:104B700029F1FAEF051229F1B2ED051229F18AEBBC
:104B8000051229F10CEB051229F1BDEA051229F1F4
:104B9000ADE9051229F14AEA051229F10BEA0512DD
:104BA00029F126EE0600000080FBE4738F0001006F
:104BB0008F1E870001007E1A35000400541E250058
:104BC0000200581E260002005A1E270002005C1E2A
:104BD00028000100661E29000100671E84000400F1
:104BE000571A86000100FE1D2A000100681E2B00D6
:104BF0000100691E2C0001006F1E2D000800641AC0
:104C00002E000100701E2F000100711E30000100F7
:104C1000721E31000100731E320001006C1A330055
:104C200001006D1A34000100741E360001006E1A76
:104C300038000100751E390001006E1E830002005D
:104C40008C1E63000100791A640001006A1E650071
:104C500001006B1E6D0001007A1A710008005C1AD9
:104C6000660001008B1E430001007C1E4400020010
:104C70007D1E450001007F1E46000200801E470089
:104C80000800711A48000100821E4B000100831EBB
:104C9000040001008E1EA1000100921E37000100D9
:104CA000911E88000100901E3C0001006F1A3D001B
:104CB0000100761E49000200841E670001007B1A75
:104CC0004D000200861E4E000100881E4F000200AB
:104CD000891E3E0001007B1E51000100771E52001C
:104CE0000100781E530001007A1E54000100701A62
:104CF0000000000000000001363601010001020141
:104D0000000103010001040106060502000007017D
:104D100000340801000F090401010D0100FF0E0815
:104D2000000017020000190100FF1A0100011B0119
:104D300000FE1C0100081D0200001F0100012001EF
:104D40000001210200002301000F240200002601BF
:104D5000000127010008280200FF2A0100072B019B
:104D600002402C0100002D0100012E0100012F0145
:104D700000FF30010B1D310800003A0100083B0123
:104D8000000F3C0100013D0100FF3E040000420411
:104D90000000460400004A0400004E0400005204D3
:104DA0000000560400005A040000010371030103CF
:104DB00001030103010301032203020301031003A2
:104DC0000003000300030003000300030003420389
:104DD0000003240306030003000304031203250356
:104DE0002303250323030403040300030003000338
:104DF000440300030003230300036503210035037C
:104E000081030003050300030003000300032503DF
:104E100023030302710230016002110270020102D9
:104E2000020202028002100261023A0041006302A3
:104E3000730272026202430200021302380000028F
:104E40000002040212020002000200020002040238
:104E50000402370037003C0244020002390000021D
:104E60000002650200023502810200020502820290
:104E70008302000203007100300160001100700025
:104E80003102200350048000100061000000140073
:104E9000630073007200620043000000130006000C
:104EA00000000000040012000000000000000000EC
:104EB00004000400370037003C02440000000000FA
:104EC00000000000650000003500810000000500C2
:104ED00000008300000001017101010101011101C5
:104EE00001013101010101018001100161013B005B
:104EF0001400630173017201620143010001130197
:104F000006013D013500040112010001000100010C
:104F1000000104010401330133013C014401320169
:104F2000360000010001650100013500810100012A
:104F3000050182018301000103047104020460047D
:104F40001104700402040204010402041004610448
:104F50000004140463047304720462044304000430
:104F600013040604000400040404120400040004F2
:104F7000000400045104640000040004000444041C
:104F800000040004000400046504000435048104E6
:104F900064000504000483040004360001000600D8
:104FA00000000F00000000000000000000000000F2
:104FB00003FFFF00000403FFFF0000FFFF0FF401E9
:104FC0000005C4040320000100000B0000000000E5
:104FD00000000003010F00000000000000000000BE
:104FE00000000000000000000000000000000000C1
:104FF000000000000000000013008B381F009138F3
:105000001F809738000033390100333902000D3812
:1050100002800738030013380400193804801F3851
:10502000050025380600313830004F383100493846
:1050300032005B38330061383500673834006D3832
:105040003600733811007F38140085381500433856
:10505000FFFF00000A000000020000000400000042
:1050600008000000100000002000000040000000C8
:1050700080000000000100000002000000040000A9
:1050800000080000001000000020000000400000A8
:10509000016B43069B430895430BB94310813F0ABC
:1050A000CB430271430589430777430C53430D5F9C
:1050B00043644D3DFF000007ECFDFDFDECDCDCCC66
:1050C000BCACAC9C9C8C7C7C6C6C5C5C5C4C4C3C50
:1050D0003C2C2C1C1C00160F00000B150B020002B0
:1050E000220F3300000E0F667A6C636874696D6579
:1050F000434F2E2C4C54645A6967426565416C6C71
:1051000069616E63653039D0D1D2D3D4D5D6D7D8C2
:10511000D9DADBDCDDDEDF140AE5D5C5B5A5A5955A
:105120008585756500034D4C4651181A250502000A
:1051300001191618161618230300303016181920F6
:10514000231A1C1E30003C40423A3F3F392F473063
:10515000303017181921301B1D1F300C0E020B04A4
:105160000B0A0708000F02040201010101090200F5
:10517000BE040AE8030000FA06B7500C001E000047
:1051800000000017510E00E8037F001E050CFF040D
:1051900004080028040002090809033C0C03050860
:1051A0000B0300FF0A0C1010C082C0839018CFE4DC
:1051B000F0A3F07CB47D1B7AE97B17123525123DF4
:1051C0007D123FCF123D8302674274F212245A745B
:1051D000FE122AEDE9FF8A08EBFE8C09E9703374B0
:1051E000026A70167908123759E4F50AF50B780A45
:1051F000122A46780A122A4A805374016A6003020E
:10520000532F79081237597B00EEFAF9123DEF025D
:10521000532A74016F600874026F600302532FEA0F
:10522000600874036A60030252CA1241F1E96053D4
:1052300074036508604D1233698A0A8B0B780A1271
:105240002A46750A01780A122A4A750A00780A1253
:105250002A4AE509F50A780A122A4AEEF50A780A76
:10526000122A4A90180312286D901DFEE0F97C71F5
:105270007D1A901E8C126570123DA7740A122A596D
:1052800002532A7902123759901DFEE0F990180353
:10529000122CD0123D95E9F8901813E0A2E34010CB
:1052A000E9700D9018D3E004F06404700312534BBE
:1052B0007403650870769018D4E0F9740129F0E958
:1052C000C39405406712534B806274016A70607426
:1052D000016F790A702C1237597A007B04901C8573
:1052E000E0F91234E3AA18AB197950126254126231
:1052F0005EE81277207900901C38126570123E37F4
:105300008044123759901E6212286D7A007B2090DB
:105310001808E0F91234D77404122A59901DFEE0DF
:10532000F9901803122CD0123DD1E9F8E8601790DB
:10533000817312286D7A017B00901808E0F912340D
:10534000D77404122A597402027B84901803E4F083
:10535000A374F8F0A374FFF0A37407F02274F6129C
:10536000245AE9FFEAFE7AD1F912338D8A828B83BF
:10537000E5824583702A7A027B0012336FEA4B7014
:105380000E7A107B00901808E0F91233B180148A6D
:10539000828B8374D1F0EFA3F0EEF912337B80039C
:1053A000EFA3F00255AC74F712245A89089004D187
:1053B0001278C3901E4AE0F47003A3E0F4703090BA
:1053C00009D3E0901E4AF0A3E4F080238E828F83FD
:1053D0001264F3600F8E828F83A3A31264F0FAA984
:1053E000081237EF8E828F831264E2E8FEE9FFEE47
:1053F0004F70D9901E4AE0F47003A3E0F4600A9065
:105400001E4AE0FAA9081237EF1244919017D312FE
:105410005CBF12448B7F010226E974F012245A8982
:105420000B8C0C7509007508007410122CFF1264A7
:10543000E27412122CFF12565A80471254E3F50EF2
:10544000A3E0F50FAE08EE2EFEE433FFEA2EF58260
:10545000EB126B36650E7004A3E0650F7019AE0990
:10546000EE2EFEE433FFEC2EF582ED3FF583E50EE4
:10547000F0A3E50FF00509050AE50AC3950C40BB4A
:105480000508E508C3950B5005750A0080EBA909CE
:1054900080007F080226E974F412245A890B7D00EB
:1054A000740C122CFF1264E280010DEDC3950B50B9
:1054B0002E750A008002050AE50AC39C50ECED2512
:1054C000E0FEE433FFEA2EF582EB3F1276FD125444
:1054D000E365087004A3E0650970DB790180027957
:1054E000008014AE0AEE2EFEE433FFE82EF582E9CA
:1054F000125C5C22122A597F040226E90229EE740A
:10550000F612245A1255967003A3E06D70177508B1
:10551000117509187808122A46EEFA123939740200
:10552000122A59801A7508027509807808122A46CD
:105530008A0889097808122A46125583122A598046
:105540006B74F612245A1255967003A3E06D70170F
:1055500075081E7509187808122A46EEFA12393FA6
:105560007402122A59801A75080375098078081286
:105570002A468A0889097808122A46125583122A6F
:10558000598029EE127B5E125C5CFD7C801267E81C
:1055900012395D740422EAFEEBFF1267FDFCE43968
:1055A000FD9017D3E06C227402122A597F02022662
:1055B000E974F612245A74FE122AED8A088B0985C2
:1055C0001882851983E4F0A3F01260D8126936FBC3
:1055D000ECFA88828983A3A3E0F97F007E0060054E
:1055E00074FF6970047E8280459017D3E06A70036F
:1055F000A3E06B701AAA18AB19124B57E9FA851879
:105600008285198312672F70027E83EAFF801F90C4
:105610001A7EE060046401700E123D05E960047EAC
:1056200089800B7E818007E0640270027E801256C2
:1056300054EEF9AA08AB09123945EF6014851882B7
:1056400085198312672F6009851882851983127165
:10565000830255A7851882851983E0FCA3E0FD220B
:105660000229EE74F212245AEAFEEBFF7508007567
:1056700009001267F9F50AE439F50B124491EA655D
:105680000A7003EB650B7012124B45E914F50879AB
:10569000017A9B7B18124B3F8003750980126B3097
:1056A000F50C780C122A4A750C9B750D18780C12A3
:1056B0002A467808122A4A780A122A46E509F50885
:1056C0007808122A4A12655F126B33F97A057B80DB
:1056D00012394B7407027B8474F612245AE9FF7E58
:1056E0000080328A828B83E0F508A3E0F8E4C8F9F1
:1056F000E50828E439F509EE25E0F8E433F9EC286B
:10570000F582ED39F583E508F0A3E509F0EA240216
:10571000FA50010B0EEEC39F40C90255AC74E8125B
:10572000245A74FE122AED8A108B11750F00851809
:1057300082851983E4F0A3F0F516F5171263AE35F0
:10574000111278B9127D39FA8E828F83A3A3A3E058
:10575000F9EAF508E439F509AA0AAB0B12452DE977
:105760006401702B127513122A4AE4F508F50978C2
:1057700008122A467808122A4A780A122A46750818
:10578000807808122A4A125B00122A59025AE9AAA2
:105790000AAB0B12452DE970419017D3E0650A70F2
:1057A00004A3E0650B6033901A7EE0640270281257
:1057B0007513122A4AE4F508F5097808122A467882
:1057C00008122A4A780A122A467508807808122A8E
:1057D0004A125B00122A59025AE98E828F83A3A3D0
:1057E000A3A3E0F50BEE2405FE50010FE50B602AA4
:1057F000127BFD851882851983EAF0A3EB126B4DAD
:10580000E8496016125654EEFAEFFBA90B12382B3A
:105810008A0C8B0DAE0CAF0D8003750B00127C1340
:10582000601A127BFD8A168B17EA4B600FAC16AD1F
:1058300017EEFAEFFBA90A12382B8003750A0090C5
:1058400004D180508E828F83A3A3A3A3A3A3A3A379
:10585000E4F0A3F0EEFAEFFB851482851583A3A391
:10586000E0F81264F0F912337B851282851383E02D
:10587000C0E0A80F749B28F582E43418F583D0E0CB
:10588000F0050FA2005007AA12AB131234178514AB
:1058900082851583E0F514A3E0F515E51445157030
:1058A00003025A678514828515831264F360DF85CD
:1058B0001482851583A3A3A3A3A3A3A3A3E0A2E0BB
:1058C00050CC851482851583A3A3A3A312672F85CB
:1058D0001482851583A3A3601E1264F5FA790185ED
:1058E0001482851583A3A3A3A3125AF3124BAA8A89
:1058F000128B13D2008010125AF3A3A3A3A3E0F5D6
:1059000012A3E0F513C200E5124513700302588399
:10591000851282851383A3E065087004A3E06509FE
:10592000600F74FF6508700474FF65096003025816
:1059300083851282851383A3A3A3A3A3A3A3122801
:1059400071851282851383A3A3A3A3A3A3E0FC7490
:1059500002122CFF126570A90B1238017402122A70
:1059600059E97038851282851383A3A3A3A3A3A347
:10597000A3A3A3A3122871851282851383A3A3A3D3
:10598000A3A3A3A3A3A3E0FCAA16AB17A90A1238EA
:10599000017402122A59E97003025883E50A250BA3
:1059A000C333240AFA7B0012336F8A0C8B0DAE0CC2
:1059B000AF0DEA4F70030258698A828B8374D2F06C
:1059C000851082851183A3A312626DA3A3E81277C9
:1059D000208A828B83A3A3A3A3E50B127D4AE50B48
:1059E0006033EA240AFAE43FFB8E828F83125CBAAA
:1059F000851882851983E0F50CA3E0F50D750E007E
:105A0000780C122A42AC0BEC2CFCE433FD127D33F3
:105A1000122A59800D8A828B83A3A3A3A3A3E4F047
:105A2000A3F0E50A7003025844A80BE828F8E43311
:105A3000F9EE28F8EF39F9E8240AFAE439FB8E8206
:105A40008F83A3A3A3125CBA85160C85170D750E60
:105A500000780C122A42AC0AEC2CFCE433FD127DD7
:105A600033122A59025854E50F6025127513122A71
:105A70004A75089B7509187808122A46E50FF5083B
:105A80007808122A4A9017D3122871750800802DC1
:105A9000E510240BF582E43511F583E0702A1275C8
:105AA00013122A4A75089B7509187808122A467538
:105AB00008007808122A4A9017D312287178081221
:105AC0002A4A125B00122A598518828519831267A7
:105AD0002F6009851882851983127183E516451791
:105AE0006007AA16AB171234177402122A597F10D6
:105AF0000226E9125AF722E0F8A3E0F58388822211
:105B0000E5102402FCE43511FDE5101264D93511CD
:105B1000F583E0F97A067B8012394B74072274F41E
:105B200012245A74F4122AED8A088B09ECFEEDFF58
:105B3000740B122CFF7403F0122AAF123525126673
:105B4000847403122AAF12351FE9600A125C506098
:105B500010E06401600B8518828519837484025CEF
:105B6000198E828F83A3A3A3A3A3A3A3A3E060138F
:105B7000F46010125C507016EE2414126B33600344
:105B8000F4700B8518828519837482025C1912786F
:105B9000ADE064217002A3E07055851882851983F9
:105BA000748C12627DE0F50A780A122A4A125C614E
:105BB0001240DD7401122A59E9705F851882851937
:105BC00083E4F0123735125C50704F7401122AB71B
:105BD000EE240BFAE43FFB1240FBE9703D7D007CB4
:105BE000007900EE240BFAE43FFB123903802BEE20
:105BF0002414126B33F50A780A122A4A125C6112D5
:105C000040E37401122A59E98518828519837007C7
:105C1000E4F012373580037488F01274CEF50A78F8
:105C20000A122A4A7401122AA7880A890B780A12D2
:105C30002A46E508126D6935091262654480F50B44
:105C4000780A122A46126666122A59740C0254F413
:105C5000EE2413125C59640322F582E43FF583E0DD
:105C600022EE240BFCE43FFD8E828F83A3A3A3A32B
:105C7000A3A3A3A3A31275038E828F83A3A3A3A3BD
:105C8000A3A3A3A3E0F922C082C08374F3122AED78
:105C9000851882851983E4F004122CFF125CBF740E
:105CA00003122CFFAA82AB83123C8DAA18AB1912E7
:105CB0003CC9740D122A59026742A3A3A3A3A3EA05
:105CC000F0A3EBF02274F612245AEAFEEBFFEA246A
:105CD00013126B33F8A3E0125D0CF8901819E0581A
:105CE000F508A3E059F509E5084509601C78081294
:105CF0002A469017D3122871126B30FD7C00126770
:105D0000E41239577404122A590255AC8882F5837B
:105D1000125D1422E0FAA3E0F9EA2274EA12245A8E
:105D200074DB122AED8A148B157512007513007539
:105D30000A001263AE3515F5831264F5F50EAC1842
:105D4000AD197A007B00799C123E07901A7EE060C4
:105D500004640170147A047900123CF3EAF50A85B0
:105D60001882851983E02A80088518828519837432
:105D700001F0E0F8E50EC3984003025F6DE0C395C3
:105D80000EF509C394044003750903E50975F01A7B
:105D9000A4FAABF01234118A128B13EA4B7003028F
:105DA0005F70750B00AE12AF13850E08025E357C76
:105DB000087D0079FFEE240AFAE43FFB1233578591
:105DC0000C82850D83A3A3A3A3E0702D850C82858F
:105DD0000D8312672F70091276DA126014E48010B6
:105DE000125FF1F0901C4BE014C0E0125FD8D0E0DD
:105DF000F0125FDC1260238032901C4BE004C0E0A4
:105E0000125FD8D0E0126050C39403EE4003025EEC
:105E1000B61277B7740212605064017003025EC359
:105E2000EE2415125FF41260057401F0EE241AFEE0
:105E300050010F050BE50BC395094003025F22E5F6
:105E400008C3950A4003025ECCAA087B00123D35C8
:105E50008A0C8B0D0508901C38126036850C8285E3
:105E60000D83125FFDF0A3E9126028125FD874FF62
:105E7000126055A3A3A3A3A3A3E0C0E0125FC6D002
:105E8000E0F07401122CFFE4F0850C82850D831282
:105E900064E27402122CFFE81277207401122AAF18
:105EA000123CB7E964016003025DAF7404122CFF79
:105EB000125FE2025DBF125FF21260506403600382
:105EC000025E20EE24151276DD025E26E50AC395F9
:105ED0000E40057508008051E50EC3950AF508804F
:105EE00048EE24151276DD126023F0901C4BE0146E
:105EF000C0E0125FD8D0E0126028741D122CFFE0C1
:105F0000C0E0125FC6D0E0F0125FD012672D7005BE
:105F10001276DA8003125FF1F0EE241AFE50010FC0
:105F2000050BE50BC395095047740E122AB7AA0852
:105F30007B007987123E0705087418122CFF126047
:105F4000367410122CFF125FE2740E122CFF125FD7
:105F5000FD127720901A7EE0600464017083125F66
:105F6000DC126005740312601474FF808A750900E6
:105F7000750A00780A122A4A7812122A46780912FB
:105F80002A4AE50EF5097809122A4A7405122CFFEF
:105F9000E0FD7C00E5141264D03515FBE5141264B5
:105FA000D53515F583E0F91239937405122A59E5B0
:105FB0001245136007AA12AB131234177425122A64
:105FC000597F0E0226E9EE2419F582E43FF583227B
:105FD000EE2412F582E43F221260192212773E74F9
:105FE0000222AC82AD83EE240AFAE43FFB1235258F
:105FF00022EE2414F582E43FF583740122126B58DB
:10600000127734E82212600922F0EE2416F582E4B9
:106010003FF58322F012601922EE2418F582E43F46
:10602000F58322126009E422F0EE2417F582E43FA2
:10603000F5837402F022126B588E828F83E8F0A3EE
:10604000E9F07C4C7D1CEE1264D03FFB123525221A
:10605000126055E022F0850C82850D83A3A3A3A3D3
:106060002274F612245A74F9122AED1260D4127DA9
:10607000FC851882851983122CE88E828F83A3A356
:10608000A3A3E0C0E07404122CFFD0E0127B3DF823
:106090007405122CFF7401F07406122CFF7401F0C9
:1060A0009017DDF09017E6041277D3FAA3E0FB9087
:1060B00017DE125CBFE89017E7F0127B4FE09017F5
:1060C000DCF0AA18AB19123D9BE96003123DA174E4
:1060D000070255A98A088B09127B9E35092274F2A2
:1060E00012245A74FF122AED7508007E007F0012F8
:1060F00043A78A0A8B0B126248800505081264DFE9
:10610000E84970F7901A7EE060076401600302615D
:10611000BE12624880031264DFE849602D888289DC
:1061200083126570901C38E06A7003A3E06B600A0C
:106130001264E6126570EA4B70DC88828983126211
:106140005EE0687003A3E06960747A167B00127ADF
:10615000CF606B901C3812626DE8127720901C2D76
:10616000126E48F0124515E98E828F83A3A3A3A374
:10617000A3F0901E68E08E828F83A3A3A3A3A3A3A2
:10618000F07C4C7D1CEE240B125FE9AA18AB197948
:1061900041126254E060089017D31264E2800478E0
:1061A000FE79FF8E828F83A3A3A3A3A3A3A3E8F00A
:1061B000A3E912627D1262758E0A8F0B0508901793
:1061C000E7E0F8E508C398500479008029E508C3A2
:1061D00098F9C39406400279057800800FE50A24F7
:1061E00014F582E4350B126265F50B089017E7E0B1
:1061F000FAE8C39A40E77509007809122A4A780A32
:10620000122A46E9F5097809122A4A9017E7E0F5BB
:10621000097809122A4AAD087C007ADE7B179017AC
:10622000DCE0F912398D7405122A59901A7EE0606B
:10623000046401700BEE4F6007EEFAEFFB123417A7
:10624000123DA17401027B841243A78A0C8B0DA816
:106250000CA90D22123B6D85188285198322126BC1
:1062600058901C3822F583E0F50AA3E022126B58FF
:106270008A828B8322E50AF0A3E50BF022F0EE126E
:1062800077BB2274F012245A74FF122AED8A0A8B0B
:106290000B7E008E0E8E0F1263AE350BF5831264EB
:1062A000F5FFAC18AD197A007B00799D123E078589
:1062B0001882851983E0F8EFC3984003026358E021
:1062C000C39FFEC3940B40027E0AEE75F007A4FA4A
:1062D000ABF01264C88A0E8B0FEA4B6079750C0024
:1062E000801A850882850983A3A3A3A3A37403F05E
:1062F000E5082407F50850020509050CE50CC39EC6
:106300005056AC08AD09E50C2FFAE43400FB798B4C
:10631000123E07850882850983A3A3A3A3A3E014E3
:10632000600814601314601F80B885088285098393
:10633000A3A3A3A3A3E480B7850882850983A3A3AD
:10634000A3A3A3740180A8850882850983A3A3A3BE
:10635000A3A3740280997E007508007808122A4A67
:10636000780E122A46EEF5087808122A4AEFF50848
:106370007808122A4A7405122CFFE0FD7C00E50A19
:106380001264D0350BFBE50A1264D5350BF583E0BA
:10639000F91239997405122A59E50E450F6007AABA
:1063A0000EAB0F1234177401122A59025492EA12DA
:1063B0007B9F2274EE12245A74FE122AED8A0C8BF3
:1063C0000D7510007511001263AE350DF583126462
:1063D000F5F50AAC18AD197A007B0079A31240E9F3
:1063E0008518828519831264E2C3E50A98E49950FE
:1063F00020851882851983A80AE0C398FEA3E0943B
:1064000000FFC3EE9404EF940040617E037F0080A0
:106410005F7E00750B00EEF97508007808122A4AB5
:106420007810122A46E9F5087808122A4AE50AF592
:10643000087808122A4A7405122CFFE0FDAC0BE51F
:106440000C1264D0350DFBE50C1264D5350DF583C7
:10645000E0F912399F7405122A59E51045116007B9
:10646000AA10AB111234177402027BD7EE4F60A34F
:10647000EEFAEFFBEA75F015A4FAA8F075F015EB4B
:10648000A4281264C78A108B11EA4B6032750B0086
:10649000750E00C3E50E9EE49F4003026416AC082F
:1064A000AD09A80AE50E28FAE43400FB79A21240EF
:1064B000E9E5082415F50850020509050E80D47594
:1064C0000BB57900026418FB1234118A088B09227B
:1064D0002402FAE4221264D922240FF582E4221263
:1064E00064E6126B5822E82414F582E439F583221D
:1064F000125AF9A3A3125AF7E02274F612245A741E
:10650000FF122AEDEAFEEBFF12671B1265708A820A
:10651000F583A3A3A3A3A3A3A3A3E0F9123DBFE91B
:10652000851882851983F07508007808122A4A7444
:1065300001122AA7880889097808122A46750835A1
:106540007509807808122A46126553122A59740177
:106550000255A9790112655FFAE43F12667D22EEC9
:106560002402FCE43FFDEE240F2285188285198366
:106570001275032274F412245A74FA122AED12606E
:10658000D41278C1EEFAEFFB123C93E9600F126669
:1065900084EEFAEFFB12351FE964017013901A7E46
:1065A000E070030266617401122CFFE4F0A380091D
:1065B0007401122CFFEEF0A3EFF0901A7EE064025B
:1065C0007017850882850983A3A3126B46E0687063
:1065D00003A3E06960030266618E828F83A3A3A395
:1065E000A3A3A3A3A3E0FEA2E650087403122CFF0A
:1065F0007401F0EEA2E750087404122CFF7401F04D
:106600007405122CFFE412693DF0F50A780A122A8B
:106610004A7401122AA7880A890B780A122A467539
:106620000A34750B80780A122A46126666122A59B5
:10663000908147122CD01244AF7A007B001244BBE9
:106640007A007B001244B57401122AAF123DF5EEB8
:10665000A2E7400D7401122CFF12672F7003124A3B
:10666000A374060254F47901E5082402FCE4350918
:10667000FDE508240FFAE4350912667D22FB123885
:10668000F774052212448B8A0A8B0BAC0AAD0B22DD
:1066900074F612245A74FF122AEDEAFEEBFF901AE8
:1066A0007EE07011901E6DE0700B8A828B83A3A335
:1066B00012672F706312671B1264F5F50874FF658B
:1066C0000870037508FEA908123DADE9851882859A
:1066D0001983F01241F1E96005A908123A65901A90
:1066E0007EE07005A908123A65EE240B126B337038
:1066F000277508007808122A4A7401122AA7880808
:1067000089097808122A46750836750980780812B2
:106710002A46126553122A5902654EEA1267202250
:106720002413F582E43FF58322F582E438F58312E1
