:020000040000FA
:10000000021305022003FFFFFFFFFF02200BFFFF8B
:10001000FFFFFF020E67FFFFFFFFFF02201BFFFF36
:10002000FFFFFF022023FFFFFFFFFF02202BFFFF48
:10003000FFFFFF022033FFFFFFFFFF020EAAFFFFBB
:10004000FFFFFF022043FFFFFFFFFF02204BFFFFE8
:10005000FFFFFF022053FFFFFFFFFF02205BFFFFB8
:10006000FFFFFF022063FFFFFFFFFF02206BFFFF88
:10007000FFFFFF022073FFFFFFFFFF02207BFFFF58
:10008000FFFFFF022083FFFFFFFFFF02208BFFFF28
:10009000FFFF70DFFFFF040000000002000000C847
:1000A0000300030369A5020269A501000000000026
:1000B00004003273000074F812104C900393E06057
:1000C0001590030274FEF0900304744DF0A37405C0
:1000D000F07A0112068C7F0102116974F712104C3C
:1000E00074FF1212717E00801F851882851983E0CB
:1000F00064FE70069003877401F085188285198369
:10010000E0F8900384E068F07C017D00AA18AB1948
:10011000120E228B09EA450970030201F385188249
:10012000851983E064EF70027E07E0C0E0900387EA
:10013000E0FA900385E0F8EA28F8E43400F9740264
:1001400028F582740339F583D0E0F0900387E060EE
:100150009814600E14602C14603C14605214606893
:100160008098900384E4F0851882851983E09003D9
:1001700086F0C394809003874004E40200F974027F
:100180000200F9851882851983E0900382F09003BC
:100190008774030200F9851882851983E090038330
:1001A000F0900386E0601990038774040200F990D0
:1001B0000385E004F0F8900386E06860030200FA2B
:1001C00090038774050200F9900385E4F09003879B
:1001D000F0900384E0F8851882851983E068600355
:1001E0000200FA900382E0644D60030200FA1203F9
:1001F000288002EEF9740112123D7F020211697427
:10020000F712104C74FB121271EAFEEBFF75080432
:1002100075090078081212D574021212EE7A907BDA
:10022000007904120ECB740212123D12067E1213D4
:100230003FE0687003A3E069701285188285198316
:10024000E0F47003A3E0F4600302030874041212E4
:10025000E61206E48A088B09A808A9097402121399
:100260003FE8F0A3E9F0740412133FE0600879015D
:100270001200B6020321851882851983E068700395
:10028000A3E0697076851882851983E0F47003A372
:10029000E0F47019740212133F7410F0A37420F08C
:1002A0008518828519837410F0A37420F0750801F5
:1002B00075090078081212D574021212EE7A247BA6
:1002C00008120F4F740212123D75080478081212BA
:1002D000D574021212EE7A907B007904120ECB7460
:1002E0000212123D12067E12133FE0687003A3E073
:1002F000697004790280067904800279031200B6DD
:100300008E828F83741E80058E828F83E4F01206A6
:100310007E12133FE0687003A3E0697004790180E6
:1003200002790074050201F774E912104C74F81296
:100330001271900307E0FA900306E0F9FEEAFCE48C
:10034000CCFDEE2CED3408FF751001750F00750E15
:10035000068E088F097402780812129CC39508FC57
:10036000E49509FD74022CF51474033DF515E514AC
:100370002497F516E5153420F517EE2410F508E45A
:100380003FF509EEF50CEF5401F50D8E128F137445
:100390000978121212F685120A900383E01460574E
:1003A00014700302046F1470030204E61460102436
:1003B000FE70030205A11470030206510206617566
:1003C0000E03794E120C619003071206747402F04A
:1003D000A374401206727408120672F0A3F0741827
:1003E000C3940704F510AA10A90F12068CA90E7465
:1003F0000812123D02083E750E04794E120C61EE91
:10040000450D7005A90A120FB5C3EE9425EF9408A7
:10041000503FC3E5089424E50994084034E51424CA
:1004200096F8E5153420F988828983E0701E8516D8
:1004300082851783E070159003887401F0888289A3
:100440008374A5F08516828517838004900388E461
:10045000F075081075090078081212D57C087D0324
:10046000EEFAEFFB120F4F740212123D0203E67513
:100470000E05C3E50A947995E04006750F01020365
:10048000E675104075110078101212D57C097D03B5
:100490007402780C12129CAA0CAB0DA90A120ECB96
:1004A000740212123D900307E0A3F0900306E0A34C
:1004B000F0751043C3EE9425EF940840030203E661
:1004C000C3E5089424E509940850030203E6900369
:1004D00088E070030203E6A816A91788828983E4DE
:1004E000F0A3F00203E675080475090078081212FB
:1004F000D574021212EE7A907B007904120ECB743E
:100500000212123D740212133FE0F8A3E0F98518BD
:1005100082851983E0687003A3E0698518828519D4
:1005200083700BE0F47003A3E0F470578009E0F4EB
:100530007003A3E0F4700D8518828519837410F0A0
:10054000A37420F012067E12133FE8F0A3E9F075C1
:10055000080178081212D574021212EE7A247B0870
:10056000120F4F740212123D75080478081212D54A
:1005700074021212EE7A907B007904120ECB740290
:1005800012123D12067E12133FE0687003A3E06969
:100590007006750E010203E6750E02750F07020361
:1005A000E6900391E06007640260030203E6EAFF5D
:1005B0007A01790012068CE060030206458003127E
:1005C0000D22120D2CE970F7740412133F12066607
:1005D000740412133F780812132385080C85090D43
:1005E000850A0E850B0F9005A2780C1212C27404B6
:1005F00012133F780C121314E5084509450A450B00
:1006000070CE8EC2E5C554E04FF5C5740412133F99
:10061000120666740412133F780812132385080C1F
:1006200085090D850A0E850B0F9005A2780C121214
:10063000C2740412133F780C121314E508450945DF
:100640000A450B70CE7A01790012068C79080203F4
:10065000EFE9900393F070030203E6750E090203BD
:10066000E679060203EFE4F0A37426F0A3E4F0A316
:10067000F022F0A3E4F0A3F0A3F0A3F0A3228518E6
:1006800082851983E0F8A3E0F974022274F812104D
:100690004CEAFE900305E0D2E7F0E9A3F0EE900308
:1006A00003F08E0874042AFE7C028004E062080CC9
:1006B000ECFA3395E0FB74022AF58274033BF58370
:1006C000EEF8C3EA98EB9400A2D265D03340DDE5A2
:1006D00008F074012A0C3395E0FD7A027B03120EB8
:1006E000520200D674E912104C7582007583FE1216
:1006F00012048A168B177514007515008A828B8375
:10070000E4F0900391E07006D2AAD2AF80046402B4
:10071000700579001200B6750C00750D20750E007D
:10072000750F00900391E0600464027015120D22B1
:100730001200DBE9F87409686003020814790012FA
:1007400000B675080075090278081212D5740212F5
:1007500012EE850C08850D09AA08E5095407FB85EA
:100760000E0A850F0B740B7808121258A908120E86
:10077000CB740212123D7E007F009005AAC0828ECB
:1007800010EFF5113395E0F512F513850C08850D82
:1007900009850E0A850F0B780879101212AF9005A3
:1007A000A678081212C2758305D08278081211E566
:1007B000501D851882851983E5822EF582E5833FD9
:1007C000F583E0F9AA14AB151208438A148B150EB1
:1007D000EE70010FC3EF940240A09005AE780C12AA
:1007E00012C29005B2780C1211E54003020723797A
:1007F00000AA14AB1512084379001208438B159018
:100800000391E07004C2AFC2AAEA451570277AA529
:100810007BA58021E870030207427406687003021A
:1008200007427407687003020742851682851783A2
:100830007401F080BA7582007583021212047F1071
:10084000021169C008C0097C088A088B09740F78F6
:10085000081212F6E508F8EA25E0FAEB33FBE9A204
:10086000E7500474014AFAE8A2E0500874216AFAD9
:1008700074106BFBE9C333F91CEC70CDD009D008C0
:100880002274F812104C78007900802274942EF5AE
:1008900082E43403F583E08A828B83F0900414129F
:1008A0000A014005900414E4F008E870010990047E
:1008B00014E0FEA3E06E6007C3E89CE99D40CDE82C
:1008C000FAE9FB7F0102116974F712104C90049849
:1008D000E0F509A3E0F508F8E509C398F895E0F913
:1008E000E508C39509E8500B120AE3701178007906
:1008F00000801B247F500109C39CE99D50EF7A00C2
:100900007B008041E004F0D2E908E8700109C3E807
:100910009CE99D502C8A828B83E0C0E0900499E092
:10092000FE74182EF582E43404F583D0E0120AD365
:1009300090049AE4F0900499E0C3947F40C6E48068
:10094000C5E8FAE9FB7F02021169C082C083C2E9EF
:10095000900498E0F8A3E0686017741828F582E422
:100960003404F583E0F5C1900498120AFA4002E4D9
:10097000F0020D4074F812104C7800790090051DBB
:10098000E07055A3E0705175F900C28FC284A28354
:1009900040FCA28F4004A28350F8AEF9C28FA2831C
:1009A0005004D2848032EEC0E0E0FE1209F6D0E0BE
:1009B000F090051E120AFA40D9E4F080D51209F62B
:1009C000E08A828B83F090051D120A014005900594
:1009D0001DE4F008E870010990051DE0FEA3E06E3B
:1009E0006007C3E89CE99D40D4E8497006E4F090B4
:1009F000051DF00208BF749D2EF582E43404F583D2
:100A000022E004120AD7C394802274F812104C908A
:100A100005A0E0FEF890059FE0FFEEC39FE0500DBB
:100A2000C398F895E0F9120AE270188012C398F89A
:100A300095E0F9E8247F500109C39CE99D4004EC4E
:100A40004D70077A007B00020AD08A828B83E0F522
:100A5000F9A3AA82AB83780179008008E004F0084A
:100A6000E8700109C3E89CE99D50278A828B83E0E6
:100A7000C0E09005A0E0FE741F2EF582E43405F579
:100A800083D0E0120AD39005A0E0C3947F40CDE468
:100A900080CCC28FA28340FCC284A28F4004A28378
:100AA00050F890059F120AEDE0F5F9C28F90059F6E
:100AB000E0FAA3E06A90059F7005120AED80051226
:100AC0000AFA4002E4F0A28350D0D284E8FAE9FBAB
:100AD0000208C3120AD722F08A828B83A3AA82ABB0
:100AE0008322E824FF18E934FFF9E84922E0FA7488
:100AF0001F2AF582E43405F58322E004F0C39480D4
:100B00002274FB121271C2009005CA7808121323D6
:100B10009005CA7401F0A3F0A37469F0A374A5F062
:100B20009005B678081212877004D20080159005DF
:100B3000BA78081212876008E59D54186410700393
:100B4000022000120C87A2005003020C04AA18AB6A
:100B5000191201FFE97003020C04851882851983BC
:100B6000E0C3943C500CE0F8743CC398FA95E0FB69
:100B700080047A007B00120D45E97003020C04909A
:100B80000391E06401700C75F800C2AB539AF7D280
:100B9000EA805E79071200B68003120D22120D2C36
:100BA000E970F7740112133FE4F0A37426F0A3E494
:100BB000F0A3F0740112133F780812132385080C78
:100BC00085090D850A0E850B0F9005A2780C12126F
:100BD000C2740112133F780C121314E5084509453D
:100BE0000A450B70CE758600C2AAC28B539AFBC20F
:100BF000E990000174CDF0022000C2AF75C9AB7559
:100C0000C95B80FE750800750900750A00750B0048
:100C1000900391E0701BD2AAD2AF79051200B6E022
:100C20007003120D221200DBE9F874096870098064
:100C3000E9794E120C6180ED74016870E2E0701782
:100C4000120D229005BE78081212C29005C27808D3
:100C50001211E550EBC2AAC2AF75C9AB75C95B8072
:100C6000FEC082C08378109005A1E0C3995015752D
:100C7000B60FE5B4A2E750FAE5BBC39940F118E816
:100C800070EDE9F0020D40C082C08353BEFBE59DCC
:100C9000A2E650FA0078F8790100120AE270FA75BB
:100CA000C6807480659E70FA43BE049062707408BA
:100CB000F0794A120C6190000174F5F07403F5D5D7
:100CC00075D489A2A0E433900391F0A2E05029D218
:100CD0008453F3F753F3EF53FDF743FD10538FF7AE
:100CE00053F7DF43FC2043F10253F5DF75F820434F
:100CF000F4F0D2FED2AB802853FF3F85FFFF53F1C3
:100D0000FE43F30C53F2F375868075C48090049B08
:100D1000E4F0A3F075C2D875C50B75C402438640D4
:100D2000801E800312094AA2E940F922C082C083D2
:100D3000900498E0F8A3E0686004790180027900EB
:100D4000D083D0822274F112104C74FF1212717E83
:100D500000900391E06401706CC28490039274016E
:100D6000F07508388E098E0A8E0B7C017D00AA185A
:100D7000AB19120E228B0DEA450D6018851882857D
:100D80001983E06410602DE064EF70088E088E090E
:100D90008E0A8E0B85080C85090D850A0E850B0FB2
:100DA0009005A278081212C2E50C450D450E450FBC
:100DB00070347E01900391E064017056D2849003F8
:100DC00092E4F08051D2AAD2AF8A088B09E4F50AE6
:100DD000F50B9005C6780C1213237808790C120FC6
:100DE000CC79061200B6900391E06003020D6A12FE
:100DF0000D221200DBE9F874096870077906120009
:100E0000B680917407686084E8608974066870A48D
:100E10008082C2AFC2AAEEF9740112123D7F0802AD
:100E20001169C082C083900391E07005120881802F
:100E30001E900392E06015A28F500BE5F98A828B19
:100E400083F07A0180027A007B0080031209740229
:100E50000D40C082C083900391E070051208C880E5
:100E600003120A0A020D40C0E074F21210B29000A0
:100E700001E064CD7005122013802AE064F570242F
:100E8000E5C1C28BC0E0900415E0F8749428F582A7
:100E9000E43403F583D0E0F0900415120AFA40051B
:100EA000E4F08001007F01021111C0E074F2121021
:100EB000B2900001E064CD700512203B800BE0642D
:100EC000F5700512094A80010080DA74F612104CA0
:100ED000890A740F550AF508750900740B78081211
:100EE000129CEA2400F8EB3480F9E82400E9350983
:100EF000F985C709A2AFE433F508C2AFE50AC454C7
:100F00000FFAE5C754F84AF5C7740A12133FE0FA1E
:100F1000A3E0FB801C88828983E08C828D83F0882B
:100F2000828983A3A882A9838C828D83A3AC82AD9E
:100F300083EAFEEBFFEE24FF1AEF34FFFBEE4F7067
:100F4000D48509C7E508A2E092AF7F030211697456
:100F5000F712104CED900389F0ECA3F0A37462F04B
:100F6000A37473F0A3E0541FF0740912133FE0F56B
:100F700008A3E0F509E508333354FC90038EF074C0
:100F80000678081212F6E50890038DF090038F742E
:100F900012F0A37442F075D1FE75D601EA90627129
:100FA000F0EBA3F0906270E0D2E1F0E0A2E740FB4A
:100FB0007F02021169C082C083E9C333906272F07C
:100FC000906270E0D2E0F0D083D08222080808EA74
:100FD000C0E0EBC0E086F0E7A4FA180986F0E7A4C9
:100FE0002AFA180986F0E7A42AFA180986F0E7A475
:100FF0002AFA1986F0E7A4FBE5F02AFA190886F028
:10100000E7A42BFBE5F03AFA190886F0E7A42BFBDE
:10101000E5F03AFA18180986F0E7A4C5F02BFBE4CE
:101020003AFA1908E7C5F0C6A426F6E5F03BFBE45A
:101030003AFA1886F0E7A4F6E5F00826F6E43B084D
:10104000F6E43A08F6D0E0FBD0E0FA222518C58293
:10105000C0E0E51934FFC583C0E0E518C3958224DC
:10106000F910AF0885831985821880088583198552
:101070008218D2AFCEF0A3E520F0A37808E608F0FE
:10108000A3DEFAEFF0A3E58124FBF8E608F0A3E67F
:1010900008F0A30808E608F0A3E608F0A3158115F8
:1010A00081D0E0FED0E0F815811581E8C0E0EEC007
:1010B000E022C0D02518C582C0E0E51934FFC58301
:1010C000C0E0E518C3958224F310AF088583198525
:1010D00082188008858319858218D2AFC8F0A3E9E9
:1010E000F0A3EAF0A3EBF0A37908E709F0A3D8FA9C
:1010F000ECF0A3EDF0A3EEF0A3EFF0A3D0E0F0A3AB
:10110000D0E0F0A3D0E0F0A3E520F0A3E5F0F0A359
:1011100022851983851882E0C0E0A3E0F9A3E0FAF4
:10112000A3E0FBA37808E0F608A3DFFAE0FCA3E065
:10113000FDA3E0FEA3E0FFA3E0C0E0A3E0C0E0A3C6
:10114000E0F5D0A3E0F520A3E0A3F5F010AF08850B
:1011500083198582188008858319858218D2AFD0BB
:1011600082D083D0E0F8D0E032851983851882E000
:10117000A3FEE0A3F5207808E0A3F608DFFAE0A3D9
:10118000FFE0A3C0E0E0A3C0E0E0A3C0E0E0A3C0B4
:10119000E010AF088582188583198008858218853C
:1011A0008319D2AFD083D08222E490030278A17950
:1011B000038002F0A3D8FCD9FA7AA27B0590008EB6
:1011C000782979018015E493A3AD82AE838A828B5E
:1011D00083F0A3AA82AB838D828E83D8E9D9E712EC
:1011E0000B01121349C008C3E096F50808A3E09666
:1011F000420808A3E096420808A3E096450870015B
:10120000D3D00822C5822518C582C583351910AFF1
:1012100007F5198582188007F519858218D2AFC5A0
:1012200083222518F58210AF08F518400C15198097
:1012300008F51840021519D2AF8519832200C0D0D5
:10124000251810AF08F518500C05198008F518502E
:10125000020519D2AFD0D0226016080808C6C31301
:10126000C618C613C618C613C618C613C6D5E0EAF4
:1012700022251810AF08F518400C15198008F5182C
:1012800040021519D2AF22E066701008A3E0667024
:101290000A08A3E066700408A3E0662270042260D6
:1012A0000D18C6C333C608C633C6D5E0F41822E607
:1012B00027F60809E637F60809E637F60809E6379B
:1012C000F622E026F608A3E036F608A3E036F60894
:1012D000A3E036F62274028000C0E0F40412122269
:1012E000D0E0121332222518FAE43519FB22251812
:1012F000FCE43519FD22600C08C6C313C618C613DA
:10130000C6D5E0F42275D00075813F7518027519B5
:10131000030211A9E6F008A3E6F008A3E6F008A38B
:10132000E6F022E0F608A3E0F608A3E0F608A3E062
:10133000F622CAC0E0E6F0A308DAFAD0E0FA2225E5
:1013400018F582E43519F5832200000080FBFFFFC9
:10135000FFFFFFFFFFFFFFFFFFFFFFFFFFFFFFFF9D
:10136000FFFFFFFFFFFFFFFFFFFFFFFFFFFFFFFF8D
:10137000FFFFFFFFFFFFFFFFFFFFFFFFFFFFFFFF7D
:10138000FFFFFFFFFFFFFFFFFFFFFFFFFFFFFFFF6D
:0A1FF600CA05094338860000000008
:020000040003F7
:01FFF000F020
:020000040000FA
:10200000022C7A022219FFFFFFFFFFFFFFFFFFFFF5
:10201000FFFFFFFFFFFFFFFFFFFFFFFFFFFFFFFFD0
:10202000FFFFFFFFFFFFFFFFFFFFFF022A06FFFF8B
:10203000FFFFFFFFFFFFFFFFFFFFFFFFFFFFFFFFB0
:10204000FFFFFF022775FFFFFFFFFFFFFFFFFFFFFF
:10205000FFFFFF022153FFFFFFFFFFFFFFFFFFFF17
:10206000FFFFFFFFFFFFFFFFFFFFFF022920FFFF32
:10207000FFFFFFFFFFFFFFFFFFFFFFFFFFFFFFFF70
:10208000FFFFFF0221AA01FFFFFFFFFFFFFFFFFF8E
:10209000102010200100F0FF0700080000FFFF00E3
:1020A00000030400000F0100000300019651180016
:1020B000020000E331000000005F316132B3312BD8
:1020C00032000077310000000000000000000083B3
:1020D00031000000000000000000008F3106FFFF0B
:1020E000FF010400000818000000E8030000FFFFE3
:1020F000D818018813000003E8030000640064009E
:10210000B801A0BB0D00A0BB0D0002020207040134
:102110000101051E02051E020A0A01010809080143
:1021200003B80B02803E0102FEFFE8030A0500012E
:10213000FFFF0A011401E00105030101FF0F10FE7A
:10214000FF384E000000006E4D00000000FF000050
:1021500000FF00C0E074F2122594A2AFE433F5084A
:10216000D2AFAFA7AEA1EE5F54106006122ED175AC
:10217000A1EFEE5F54086008122ED775A1F78023F7
:10218000EEA2E092F0EFA2E082F05017906198E0AA
:10219000F890093BE0C398A2D265D0335002E8F032
:1021A00075A1FE751A00E5088066C0E074F212257C
:1021B00094A2AFE433FED2AF9061A4E0F8759B0027
:1021C000E59158540860087591F7122F258023E592
:1021D0009158541060087591EF122F2B8014E591DF
:1021E000A2E092F0E8A2E082F05007E0C2E0F01234
:1021F000308D9061A3E0F8E5E9585404600E123088
:102200006375E9FB906193E0A2E640F2751A00EE77
:10221000A2E092AF7F010225F3C0E074F212259490
:10222000A2AFE433FED2AF9061A5E0F8E5BF585409
:1022300004600675BFFB1230A580D1C3E498F8E4B2
:1022400099F912227C8026C3E49AFAE49BFBE920E8
:10225000E7E912227CE498F8E499F922C3E498F8BB
:10226000E499F912227CE498F8E499F9C3E49AFA23
:10227000E49BFB22EB20E7CFE920E7E0B90010BBAD
:102280000008E88AF084F8AAF022E4FBC8FA22EBFE
:1022900070227B10C833C8C933C9335007C39AC3EF
:1022A000DBF280069A50012ADBEAC833F4C8C9334E
:1022B000F4C9FA2275F008E4C833C8C933C933C970
:1022C0009AC99B5004C92AC93BD5F0ECFBC833F42A
:1022D000C8E4C9FA2274F512252E74FA122AED7593
:1022E00008047509007808122A467404122AB77A7D
:1022F000F87B077903122DAB7402122A5990810BD7
:102300007808122CA87402122CFF7808122B18706F
:10231000487508027509007808122A467402122AC4
:10232000B77AF67B077903122DAB7402122A59850E
:102330001882851983E0F47003A3E0F4601B85180C
:1023400082851983E0F8A3E08882F5837402F0A304
:10235000F0A37469F0A374A5F0C2AF75D69F020014
:10236000007406122A597F040227B8080808EAC038
:10237000E0EBC0E086F0E7A4FA180986F0E7A42AAB
:10238000FA180986F0E7A42AFA180986F0E7A42AC1
:10239000FA1986F0E7A4FBE5F02AFA190886F0E7B7
:1023A000A42BFBE5F03AFA190886F0E7A42BFBE52D
:1023B000F03AFA18180986F0E7A4C5F02BFBE43AC6
:1023C000FA1908E7C5F0C6A426F6E5F03BFBE43AA7
:1023D000FA1886F0E7A4F6E5F00826F6E43B08F6DE
:1023E000E43A08F6D0E0FBD0E0FA22E4CFC0E0E423
:1023F000CEC0E0E4CDC0E0E4CCC0E075F020E6263D
:10240000F608E633F608E633F608E633F618181849
:10241000EC33FCED33FDEE33FEEF33FFC3EC9709F5
:10242000ED9709EE9709EF97191919400FFFEC97EF
:10243000FC09ED97FD09EE97FE191906D5F0BFECE2
:10244000F709EDF709EEF709EFF7191919D0E0FCD4
:10245000D0E0FDD0E0FED0E0FF222518C582C0E02C
:10246000E51934FFC583C0E0E518C3958224F81050
:10247000AF0885831985821880088583198582189D
:10248000D2AFCEF0A3E520F0A37808E608F0A3DEF3
:10249000FAEFF0A3E58124FAF8E608F0A3E608F0E5
:1024A000A3E608F0A30808E608F0A3E608F0A315E1
:1024B000811581D0E0FED0E0F8158115811581E805
:1024C000C0E0EEC0E022122CF4B90003022518E4AB
:1024D0009004D17820791A8002F0A3D8FCD9FA7838
:1024E0001A9020867A01BA00028007E493A3F608C6
:1024F000DAF97AF07B1D90209478C079018015E498
:1025000093A3AD82AE838A828B83F0A3AA82AB832E
:102510008D828E83D8E9D9E775826F7583847407BD
:102520001229E875826975834B74001229E8251811
:10253000C582C0E0E51934FFC583C0E0E518C39546
:102540008224F910AF088583198582188008858355
:1025500019858218D2AFCEF0A3E520F0A37808E663
:1025600008F0A3DEFAEFF0A3E58124FBF8E608F01B
:10257000A3E608F0A30808E608F0A3E608F0A31510
:10258000811581D0E0FED0E0F815811581E8C0E02A
:10259000EEC0E022C0D02518C582C0E0E51934FFA6
:1025A000C583C0E0E518C3958224F310AF08858386
:1025B000198582188008858319858218D2AFC8F0E2
:1025C000A3E9F0A3EAF0A3EBF0A37908E709F0A3ED
:1025D000D8FAECF0A3EDF0A3EEF0A3EFF0A3D0E077
:1025E000F0A3D0E0F0A3D0E0F0A3E520F0A3E5F065
:1025F000F0A322851983851882E0C0E0A3E0F9A347
:10260000E0FAA3E0FBA37808E0F608A3DFFAE0FC19
:10261000A3E0FDA3E0FEA3E0FFA3E0C0E0A3E0C0D1
:10262000E0A3E0F5D0A3E0F520A3E0A3F5F010AF20
:10263000088583198582188008858319858218D2B8
:10264000AFD082D083D0E0F8D0E0321E75F0108E8B
:10265000218F22858226858325851882851983E02E
:10266000CEA3E0CF852682852583EBC9EAC8EDCBD2
:10267000ECCAC3E833C8E933C9EA33CAEB33CBC386
:10268000EA9EF524EB9FF523B35004AB23AA24EC78
:1026900033CCED33CDD5F0DAAE21AF2222D083D0CA
:1026A00082ECC0E0EDC0E0E493A3FCE493A3FDED75
:1026B0004C600D1227F8EC24FFFCED34FFFD80EF99
:1026C000E493A3FCE493A3FDED4C600D1228CBEC46
:1026D00024FFFCED34FFFD80EFD0E0FDD0E0FCE412
:1026E00093A3C0E0E493C0E022851983851882E0BB
:1026F000A3FEE0A3F5207808E0A3F608DFFAE0A344
:10270000FFE0A3C0E0E0A3C0E0E0A3C0E0E0A3C01E
:10271000E0E0A3C0E010AF08858218858319800827
:10272000858218858319D2AFD083D0820229EED05A
:1027300083D082E9C0E0E493A3C386F0C5F095F0AE
:10274000F908E493A386F0C5F095F0700BE493A329
:10275000C3994005E9048002A3E475F002A4258230
:10276000F582E5F03583F583D0E0F9E493A3C0E08A
:10277000E493C0E022C0E074F2122594A2AFE433E7
:10278000FED2AFC2C0901A8AE0700BE5D1A2E4502D
:102790001D122E2F8018E5D1A2E3500675D1F71235
:1027A0002E05E5D1A2E4500675D1EF122E0BEEA254
:1027B000E092AF7F010225F3851983851882E0A39B
:1027C000FEE0A3F5207808E0A3F608DFFAE0A3FF17
:1027D000E0A3C0E0E0A3C0E0E0A3C0E0E0A3C0E06D
:1027E00010AF088582188583198008858218858333
:1027F00019D2AFD083D08222C0E0C3E4939608748C
:1028000001939618400FE49366700808740193666C
:102810001870007019A3A3C3E493960874019396EB
:1028200018A3A3400DD0E0D0E0D0E00226D9A3A3A6
:10283000A3A3A3A3D0E022D083D082C5F0E493A3C6
:10284000C5F0C395F0F5F0E493A3C395F04005E51A
:10285000F0048001E475F002A42582F582E5F035EC
:1028600083F583E493A3C0E0E493C0E02274048082
:102870000474028000CCC0E0EDC0E0E518C39CCC3D
:10288000AD1950011D10AF068C188D1980068C18DB
:102890008D19D2AF12296AD0E0FDD0E0FC2274027B
:1028A0008000CCC0E0EDC0E0E518C39CCCAD195071
:1028B000011D10AF068C188D1980068C188D19D249
:1028C000AF122948D0E0FDD0E0FC22C0E0C0F08883
:1028D000F0E4936670080874019366187000A8F01D
:1028E000A3A3700BD0F0D0E0D0E0D0E00226D9A3B3
:1028F000A3D0F0D0E022D083D082CCC0E0E493A378
:1029000060061229AA1470FAE493A36006122AD76B
:102910001470FAD0E0FCE493A3C0E0E493C0E0229A
:10292000C0E074F2122594758900C2C5901A8AE03D
:10293000700E7A007B109009D3E0F912338D80037A
:10294000123C1B7F010225F3CAC0E0E493A3C582B9
:10295000CCC582C583CDC583F0A3C582CCC582C555
:1029600083CDC583DAE5D0E0CA22CAC0E0E0A3C5C2
:1029700082CCC582C583CDC583F0A3C582CCC58278
:10298000C583CDC583DAE6D0E0CA22C008C3E0968D
:10299000F50808A3E096420808A3E096420808A3B9
:1029A000E09645087001D3D00822C0E0E493A3D399
:1029B0009C5010E493A3C39C400AD0E0D0E0D0E048
:1029C000022913A3A3A3D0E02270090808082260FB
:1029D00016181818C6C333C608C633C608C633C689
:1029E00008C633C6D5E0EA22C09FF59FE473D09FA6
:1029F00022D083D082C09FE493C0E0740193C0E0F2
:102A0000740293F59F22C0E0C0D0E8C0E0A8A8D22D
:102A1000AFC2C7751A00E8A2E792AFD0E0F8D0D0F5
:102A2000D0E0322518F58210AF08F518400C1519C2
:102A30008008F51840021519D2AF85198322740455
:102A4000800A74038006740280027401C0E0F404FA
:102A5000122A23D0E0122CB72200C0D0251810AFC4
:102A600008F518500C05198008F51850020519D200
:102A7000AFD0D022BB0102E722C082C08389828A04
:102A800083BB0003E08002E493D083D082226016EF
:102A9000080808C6C313C618C613C618C613C61836
:102AA000C613C6D5E0EA222518F8E43519F922251F
:102AB00018FAE43519FB222518FCE43519FD22C368
:102AC000E0C696F608A3E0C696F608A3E0C696F61A
:102AD00008A3E0C696F622C0E0E493A36C7009D088
:102AE000E0D0E0D0E0022913A3A3D0E02225181003
:102AF000AF08F518400C15198008F5184002151993
:102B0000D2AF22E76670100809E766700A0809E785
:102B10006670040809E76622E066701008A3E066A4
:102B2000700A08A3E066700408A3E06622C3E0967A
:102B300008A3E09608A3E09608A3E096A2D265D089
:102B40003322C3E096F008A3E096F008A3E096F0E5
:102B500008A3E096F022C3E697F60809E697F60880
:102B600009E697F60809E697F622C3E493960874F7
:102B70000193960874029396087403939622E627AD
:102B8000F60809E637F60809E637F60809E637F6E3
:102B900022E026F608A3E036F608A3E036F608A3FE
:102BA000E036F622E493F608740193F60874029373
:102BB000F608740393F622E647F60809E647F60896
:102BC00009E647F60809E647F622E657F60809E659
:102BD00057F60809E657F60809E657F622E056F6D2
:102BE00008A3E056F608A3E056F608A3E056F6223E
:102BF000E056F008A3E056F008A3E056F008A3E082
:102C000056F022E026F008A3E036F008A3E036F004
:102C100008A3E036F022700422600D18C6C333C644
:102C200008C633C6D5E0F41822E4C396F608E49645
:102C3000F608E496F608E496F622C6F4C608C6F44A
:102C4000C608C6F4C608C6F4C622600D08C6A2E7C8
:102C500013C618C613C6D5E0F322C3E7960809E7E2
:102C6000960809E7960809E79622C3E09608A3E0CC
:102C70009608A3E09608A3E0962275D00075813FE0
:102C80007518D1751904000224C6600C08C6C31358
:102C9000C618C613C6D5E0F422E6F008A3E6F0088D
:102CA000A3E6F008A3E6F022E0F608A3E0F608A306
:102CB000E0F608A3E0F622CAC0E0E6F0A308DAFADC
:102CC000D0E0FA22EAF0A3EBF0A3ECF0A3EDF022BF
:102CD000E0FAA3E0FBA3E0FCA3E0FD22E0F8A3E020
:102CE000F9A3E0FAA3E0FB22E8F0A3E9F0A3EAF0FD
:102CF000A3EBF022E5C754F84401F5C7790122257A
:102D000018F582E43519F583221229F184D20512CF
:102D100029F1DCD2051229F1BED3051229F1A3D481
:102D2000051229F1E8D4051229F149D5051229F136
:102D3000D5D5051229F101D6051229F14CD6051277
:102D400029F172D6051229F10AD7051229F1B3D754
:102D5000051229F106D8051229F137D8051229F1F3
:102D60006ED8051229F112DA051229F1DEDA051200
:102D700029F191DB051229F10391071229F1149130
:102D8000071229F1B291071229F1ED7F001229F102
:102D90009BFF051229F1CA91071229F1DA91071256
:102DA00029F1EF91071229F18092071229F1258F5D
:102DB000071229F1A88F071229F10E90071229F1A5
:102DC000EA7F001229F1DDFF021229F1EDFF021264
:102DD00029F1F0FF021229F1F3FF021229F1F87F25
:102DE000001229F1D97D001229F1FB7D001229F191
:102DF000637F001229F1E77F001229F1B4FF02126C
:102E000029F1BDFF021229F1C6FF021229F1D4FFF8
:102E1000021229F14AB4061229F1B6B4061229F1B8
:102E20007EB5061229F15FB6061229F15CB80612CA
:102E300029F1C3B8061229F116B9061229F127B9EA
:102E4000061229F137B9061229F1A9B9061229F19A
:102E5000BFB9061229F1CAB9061229F1D8B906126A
:102E600029F1EAB9061229F1ACFA031229F1D8FACC
:102E7000031229F15AFD031229F1B1FD031229F1C0
:102E8000F1FD031229F105FE031229F11EFE0312C2
:102E900029F10FFF031229F1C0FF031229F1D4FF1A
:102EA000031229F1D687071229F1FA87071229F1AF
:102EB0001388071229F14588071229F1758807122E
:102EC00029F1A288071229F1AC88071229F10E898D
:102ED000071229F11D89071229F12789071229F103
:102EE0003489071229F11FF8061229F13FF806125A
:102EF00029F17EF8061229F199F8061229F1B8F89D
:102F0000061229F11EF9061229F127F9061229F1F4
:102F100084F9061229F193F9061229F1B7F906127C
:102F200029F178FA061229F185FA061229F196FAA2
:102F3000061229F16DFF011229F185FF011229F115
:102F4000B1FF011229F154BF061229F1A8C00612DF
:102F500029F1B6C0061229F1C9C0061229F1DEC056
:102F6000061229F1F3C0061229F106C1061229F151
:102F70007AC1061229F1DFC1061229F167C20612D1
:102F800029F1E3C2061229F1A7C3061229F1B7C33A
:102F9000061229F1C6C3061229F19394071229F1EA
:102FA000B794071229F1DF94071229F10795071248
:102FB00029F1C4FA061229F1EBFA061229F10AFBEB
:102FC000061229F172FB061229F10DF5061229F1FC
:102FD00026F5061229F132F5061229F146F50612F8
:102FE00029F164F5061229F16EF5061229F178F53A
:102FF000061229F18BF5061229F11CF6061229F1A9
:103000008BF6061229F1BFF6061229F10DF706120A
:1030100029F15AF7061229F175F7061229F17FF7FF
:10302000061229F1A5F7061229F10AF8061229F16C
:103030002790071229F14990071229F1D69007121B
:1030400029F1E8FF031229F126F6051229F150F6BD
:10305000051229F16DF6051229F180F6051229F104
:1030600096F6051229F1F4F6051229F127F7051253
:1030700029F11CFB051229F17CFC051229F1AFFC9A
:10308000051229F1F9FC051229F16FFE051229F14B
:1030900097FE051229F1ACFE051229F1BCFE0512BE
:1030A00029F100FF051229F15BFF051229F16BFFE1
:1030B000051229F1998A071229F1B38A071229F119
:1030C000DB8A071229F1F48A071229F1188B0712FB
:1030D00029F1368B071229F14D8B071229F17B8BD1
:1030E000071229F1968B071229F19092071229F104
:1030F000D692071229F15EEE061229F16EEE061243
:1031000029F175EF061229F1A9EF061229F1D5EF81
:10311000061229F1F8EF061229F116F0061229F12C
:1031200050F0061229F1B9F0061229F1FBF006124F
:1031300029F13AF1061229F16BF1061229F196F103
:10314000061229F108DB061229F16DDB061229F1BE
:1031500013DC061229F14ADC061229F18BEA061269
:1031600029F14AEB061229F167EB061229F19BEDD2
:10317000061229F19EED061229F1F08C071229F1B1
:103180003B8D071229F164FD061229F187FF061213
:1031900029F1C6A6061229F1EAA6061229F129A8E4
:1031A000061229F1C2A9061229F146AC061229F12C
:1031B0007DAC061229F1FDB9061229F1A3BC061255
:1031C00029F148BD061229F174BD061229F1A2BDEC
:1031D000061229F1D7BD061229F1FFBD061229F109
:1031E0005FBE061229F1ADE9051229F194ED051231
:1031F00029F183EF051229F1ACF0051229F18CF1C8
:10320000051229F13AF3051229F1E4F4051229F126
:10321000B4F5051229F108F6051229F10880071204
:1032200029F11280071229F13380071229F172DC8B
:10323000051229F187E1051229F1F5E2051229F1BC
:10324000B1E4051229F1AEE5051229F1DEE6051219
:1032500029F1F6E7051229F1D6E8051229F1689C53
:10326000051229F1A09C051229F1C6A6051229F123
:10327000A7A7051229F1F3A8051229F13CAA051206
:1032800029F1F2AA051229F1C6AB051229F1ADAC5C
:10329000051229F195AD051229F137AE051229F174
:1032A00061AE051229F111B0051229F181B00512A4
:1032B00029F19AB0051229F1F1B1051229F1A2B252
:1032C000051229F124B3051229F1D0B3051229F111
:1032D00040B4051229F1DCB4051229F153B50512E9
:1032E00029F18BB5051229F18DB6051229F14CB7DC
:1032F000051229F1F2B7051229F16786071229F1A3
:103300009186071229F1A687071229F1A9870712CA
:1033100029F1E993071229F13094071229F17294E7
:10332000071229F18294071229F1CBAD061229F177
:1033300009AE061229F172AE061229F18FAE0612FD
:1033400029F1A8AE061229F15AAF061229F163AF8E
:10335000061229F1A8AF061229F1DEAF061229F1F3
:10336000F5AF061229F167B0061229F1F4B0061282
:1033700029F12AB1061229F181B1061229F1E5B12C
:10338000061229F108B2061229F16CB2061229F1CF
:10339000C8B2061229F103B3061229F138B3061296
:1033A00029F14AB3061229F15CB3061229F194B34C
:1033B000061229F1E0B3061229F11EB4061229F112
:1033C000E8C8061229F128CA061229F14BCA0612CA
:1033D00029F15CCA061229F151CC061229F171CCEF
:1033E000061229F13882071229F16C82071229F19D
:1033F000B482071229F11084071229F1E4EB0212BA
:1034000029F115ED021229F14FED021229F10EEF0B
:10341000021229F138EF021229F1C5F1021229F145
:1034200005F2021229F19CF3021229F12FF4021283
:1034300029F187F4021229F12AF5021229F162F525
:10344000021229F1A4F5021229F113F7021229F14F
:1034500065F8021229F188FA021229F1B6FA02126D
:1034600029F1DDFA021229F1E6FA021229F136FBFE
:10347000021229F1C8FB021229F1B8FE021229F149
:103480003BFF021229F14493071229F15A930712C4
:1034900029F16493071229F1BE93071229F166D22C
:1034A000061229F17CD2061229F121D3061229F144
:1034B00060D3061229F17DD3061229F1AED306128C
:1034C00029F1FBD3061229F12ED4061229F169D471
:1034D000061229F155D6061229F1B6D6061229F19F
:1034E000C98B071229F1288C071229F1828C071247
:1034F00029F1128E071229F1848E071229F1C28E4A
:10350000071229F1038F071229F12897061229F1D2
:103510002E97061229F16F97061229F1619906126A
:1035200029F19199061229F1009A061229F1CE9AF1
:10353000061229F10F9B061229F13D9B061229F173
:10354000C79B061229F1DE9B061229F1EB9B06129E
:1035500029F1F59B061229F1919D061229F1A19EF0
:10356000061229F1EA9E061229F1279F061229F177
:103570003D9F061229F1D09F061229F1FCA00612E8
:1035800029F1F1A1061229F18EA2061229F1F3A266
:10359000061229F10FA3061229F162A3061229F1DE
:1035A000D3A4061229F1D8A4061229F1F8A4061210
:1035B00029F1EFDB031229F121DC031229F1BADC36
:1035C000031229F113DE031229F1F6DE031229F1A9
:1035D00075E0031229F191E0031229F1E0E00312F2
:1035E00029F162E1031229F1B7E1031229F1CAE1DD
:1035F000031229F12EE2031229F189E2031229F1C3
:103600002EE3031229F125E4031229F160E40312E9
:1036100029F1E6E4031229F137E7031229F1FBE768
:10362000031229F11FE9031229F196E9031229F186
:10363000C4E9031229F18EEA031229F113EB0312F4
:1036400029F15FEB031229F179EB031229F1C2EBA7
:10365000031229F1D8EB031229F192EC031229F19C
:10366000B8ED031229F1C3ED031229F121EE031283
:1036700029F176EE031229F1D4EE031229F1D0EFED
:10368000031229F173F2031229F192F2031229F1C4
:103690009AF3031229F1BEF3031229F134F4031251
:1036A00029F1F4F4031229F12BF5031229F19DF508
:1036B000031229F1BDF6031229F1EDF6031229F1E7
:1036C00000F7031229F103F7031229F10CF7031293
:1036D00029F11EF7031229F18FF7031229F1C5F71B
:1036E000031229F1D8F7031229F104F8031229F182
:1036F0002BF8031229F14FF8031229F1EEF8031207
:1037000029F160F9031229F197F9031229F1A1F9BE
:10371000031229F1D8F9031229F1EEF9031229F164
:103720000BFA031229F139FA031229F14FFA0312A5
:1037300029F167FA031229F179FA031229F102FF3C
:10374000041229F113FF041229F19EFF041229F13A
:10375000B7CD061229F1F5CD061229F181CE061258
:1037600029F18CCF061229F1A8D1061229F1DDD159
:10377000061229F162F8011229F1B1F8011229F1BA
:1037800051FA011229F125FC011229F167FC0112FD
:1037900029F132FD011229F13AFE011229F15CFEF4
:1037A000011229F1B8FE011229F139FF011229F1A4
:1037B0006C51001229F18E51001229F1215300128F
:1037C00029F16A53001229F1DE53001229F15B54EA
:1037D000001229F1C054001229F1C354001229F13A
:1037E0000555001229F17555001229F124560012D1
:1037F00029F12756001229F19C56001229F1E156B1
:10380000001229F1E25A001229F14B5C001229F151
:10381000895C001229F1DF5C001229F12560001299
:1038200029F1A260001229F14762001229F17763A1
:10383000001229F1BE64001229F13865001229F145
:103840005466001229F1F966001229F10D67001281
:1038500029F1DB67001229F10969001229F1216BB6
:10386000001229F1336D001229F1126E001229F1B4
:10387000AD70001229F14E71001229F13D72001253
:1038800029F19775001229F1A775001229F10C771B
:10389000001229F19D77001229F1A578001229F173
:1038A000307A001229F1AE7A001229F1F67B00126B
:1038B00029F1407C001229F1197D001229F10080C4
:1038C000051229F1A080051229F10A81051229F1BA
:1038D0002381051229F1BA81051229F1FE81051211
:1038E00029F12083051229F15C83051229F1D8837F
:1038F000051229F12384051229F18284051229F188
:103900008B85051229F1AE88051229F1CF890512A0
:1039100029F14A8A051229F1318C051229F1D18C3D
:10392000051229F1788D051229F1DB8D051229F197
:10393000508E051229F15F8F051229F1339005127F
:1039400029F16990051229F19890051229F14C91FD
:10395000051229F17891051229F1F891051229F142
:103960007893051229F10495051229F14C96051258
:1039700029F1B797051229F1C398051229F1669923
:10398000051229F1DF99051229F10D9B051229F184
:10399000B2BC041229F115BD041229F15DBD041257
:1039A00029F1A1BD041229F10BBE041229F154BE64
:1039B000041229F18CBE041229F126BF041229F148
:1039C00080BF041229F1CDC0041229F156C104129E
:1039D00029F17DC1041229F187C2041229F172C3B1
:1039E000041229F1BFC3041229F1BEC4041229F143
:1039F000E6C4041229F12FC6041229F140C60412AC
:103A000029F158C6041229F141C7041229F127C827
:103A1000041229F130C9041229F15AC9041229F1FA
:103A200072C9041229F18CC9041229F1C3C9041204
:103A300029F1E3C9041229F10ACA041229F121CAA1
:103A4000041229F1FDCA041229F155CB041229F1FF
:103A5000FECD041229F12DCF041229F163CF0412F7
:103A600029F16DCF041229F184CF041229F1F1CF8D
:103A7000041229F1DAD0041229F110D1041229F12B
:103A8000E1D1041229F182D2041229F1B0D2041238
:103A900029F1BDD3041229F1DCD3041229F15FD43A
:103AA000041229F1D0D4041229F114D5041229F1F9
:103AB00098D5041229F1F5D5041229F1A2D60412E1
:103AC00029F188D8041229F168D9041229F1BED944
:103AD000041229F11CDB041229F132DD041229F150
:103AE000DCDF041229F186E1041229F156E2041206
:103AF00029F1CEE2041229F1F0E2041229F1DFE308
:103B0000041229F1CFE4041229F13AE5041229F153
:103B1000C3D6061229F1D7D8061229F19DD906126B
:103B200029F1F2D9061229F16FDA061229F1F9DE2C
:103B3000061229F117DF061229F15BDF061229F1BF
:103B400081DF061229F1A7DF061229F1BFDF061275
:103B500029F1D7DF061229F142E0061229F184E0AB
:103B6000061229F199E0061229F1A0E1061229F1C5
:103B700059FD041229F1C4E1061229F1CDE1061222
:103B800029F1D6E1061229F1E0E1061229F15DE200
:103B9000061229F1FFC3061229F160C8061229F1A5
:103BA0007CC8061229F181C8061229F1ED8407129A
:103BB00029F1B7E6061229F1CDE6061229F166E8E9
:103BC000061229F1AFE8061229F11BE9061229F1C4
:103BD0002BEA061229F1F4D1051229F16CEA06123A
:103BE00029F13E89071229F1EEF1061229F14AF274
:103BF000061229F18AF2061229F17EF3061229F142
:103C0000A2F3061229F1B7F3061229F1D7F306122F
:103C100029F10EF4061229F11FF4061229F136F4E7
:103C2000061229F15BF4061229F1EAF4061229F1D1
:103C300088FF021229F10080031229F13380031258
:103C400029F19A80031229F12681031229F1CD81ED
:103C5000031229F11582031229F13A82031229F184
:103C60005382031229F17982031229F19B820312F4
:103C700029F1D982031229F12883031229F15183F2
:103C8000031229F1B083031229F18984031229F167
:103C90003F85031229F19D85031229F163860312E2
:103CA00029F1AD86031229F10487031229F16F87E8
:103CB000031229F1AD87031229F10388031229F1B8
:103CC0001F88031229F14A88031229F1598A031225
:103CD00029F19F8B031229F1CB8B031229F1FF8B62
:103CE000031229F1208C031229F12F8C031229F1E0
:103CF0003A8C031229F1EA8C031229F1598D03122F
:103D000029F1068E031229F1428E031229F1008F48
:103D1000031229F10D90031229F15A90031229F18F
:103D2000E990031229F14391031229F188910312BA
:103D300029F11794031229F17195031229F1BD9805
:103D4000031229F19B99031229F1729A031229F1A6
:103D5000869A031229F1AF9A031229F1209B0312CC
:103D600029F1B69B031229F1299C031229F1189D10
:103D7000031229F13D9D031229F1A09E031229F19E
:103D8000BE9E031229F1D19E031229F1359F031221
:103D900029F1449F031229F1CC9F031229F1E29FDC
:103DA000031229F1E6A0031229F1F3A0031229F16D
:103DB000FCA0031229F1F6A2031229F126A4031292
:103DC00029F136A4031229F139A5031229F1B5A569
:103DD000031229F1EEA5031229F126A7031229F1F6
:103DE0006CA7031229F147A9031229F128AD031288
:103DF00029F13CAD031229F146AD031229F150AD72
:103E0000031229F15AAD031229F164AD031229F10D
:103E10007DAD031229F187AD031229F101AE031222
:103E200029F10CAE031229F13BAE031229F163AE66
:103E3000031229F16EAE031229F1BCAE031229F16F
:103E4000C6AE031229F1D1AE031229F1F5AE031269
:103E500029F119AF031229F176AF031229F1BCAF92
:103E6000031229F1D8AF031229F15FB0031229F12F
:103E700096B0031229F1D5B0031229F122B1031231
:103E800029F1A4B1031229F150B2031229F12CB483
:103E9000031229F19AB4031229F1C6B5031229F1CC
:103EA000ECB5031229F145B7031229F19DBA0312AB
:103EB00029F1D6BC031229F1B4BE031229F14DBF7A
:103EC000031229F172C1031229F126C2031229F14A
:103ED0005FC2031229F1C5C2031229F1CFC2031236
:103EE00029F1F9C4031229F104C6031229F14CC6C1
:103EF000031229F100C7031229F1A3C8031229F103
:103F00002ACA031229F14ACA031229F19DCA0312CF
:103F100029F19DCB031229F1C5CB031229F128CC3D
:103F2000031229F10BCD031229F17DCD031229F1E2
:103F30008FCE031229F113CF031229F111D00312EE
:103F400029F1A7D2031229F1C6D2031229F111D403
:103F5000031229F1DFD5031229F133D6031229F117
:103F6000EBD6031229F19BD7031229F1FED70312D6
:103F700029F1C3D8031229F159D9031229F1C0D963
:103F8000031229F102DA031229F133DA031229F1BB
:103F900093DB031229F10080021229F13280021210
:103FA00029F16B80021229F16182021229F1A382A8
:103FB000021229F18783021229F1DF83021229F10B
:103FC0002285021229F16E85021229F19A880212C5
:103FD00029F1188C021229F1608D021229F1F68D57
:103FE000021229F1028E021229F1428E021229F1E7
:103FF000D78F021229F1CB90021229F1F59002120B
:1040000029F14C91021229F1A591021229F116927F
:10401000021229F14B94021229F1E295021229F1C0
:10402000B696021229F1FD97021229F1559A021251
:1040300029F1269D021229F1359D021229F1B99D1F
:10404000021229F16E9E021229F1B19E021229F18B
:10405000FA9E021229F14E9F021229F1B39F021219
:1040600029F10FA0021229F12BA0021229F15DA063
:10407000021229F19CA0021229F182A1021229F157
:1040800031A2021229F1B7A4021229F1EDA5021200
:1040900029F1D4A6021229F154A7021229F161AB29
:1040A000021229F19FAB021229F106AC021229F18A
:1040B00039AC021229F1CCAC021229F1FFAC021288
:1040C00029F19AAD021229F1E8AD021229F1BBAE35
:1040D000021229F182AF021229F120B0021229F155
:1040E0002AB3021229F13EB4021229F1E4B70212F6
:1040F00029F1E6B8021229F1E9B8021229F118B93A
:10410000021229F117BB021229F1F0BB021229F1A8
:1041100015BC021229F131BD021229F1E9BD0212CA
:1041200029F1A0BF021229F104C0021229F129C00D
:10413000021229F163C0021229F1BEC0021229F154
:104140009FC1021229F18DC2021229F1C1C20212CD
:1041500029F177C3021229F188C5021229F1F3C5AA
:10416000021229F13BC6021229F174C6021229F18A
:1041700006C7021229F15FC8021229F137CC0212D8
:1041800029F12CCD021229F126CE021229F1A3CE5B
:10419000021229F175CF021229F152D1021229F12E
:1041A000E3D1021229F1E7D2021229F1FBD2021265
:1041B00029F10FD3021229F123D3021229F137D3A7
:1041C000021229F16DD3021229F19DD3021229F1B5
:1041D00027D5021229F1E5D5021229F169D602127A
:1041E00029F1BAD6021229F133D7021229F179D76F
:1041F000021229F15ED9021229F10EDA021229F116
:104200003EDA021229F1FDDA021229F19ADB0212DA
:1042100029F145DD021229F132DE021229F171DEA7
:10422000021229F1E3DE021229F128E0021229F13B
:10423000DBE0021229F10FE1021229F127E102125B
:1042400029F1CAE1021229F1B8E4021229F183E648
:10425000021229F1A7E6021229F1C5E6021229F19C
:1042600099E7021229F1C6EB021229F1DCE20612EB
:1042700029F11CE3061229F1E8E4061229F1F7E41A
:10428000061229F199B8051229F15DBD051229F12F
:10429000B2BD051229F1F0BF051229F194C1051232
:1042A00029F124C2051229F180C4051229F187C61B
:1042B000051229F1DEC6051229F1D2C8051229F12D
:1042C0001FC9051229F17DC9051229F19FC90512DF
:1042D00029F1A6C9051229F1BEC9051229F182CA20
:1042E000051229F179CB051229F19281011229F1E8
:1042F000D481011229F12687011229F17287011256
:1043000029F1B887011229F10589011229F16F8974
:10431000011229F1B789011229F1268B011229F125
:104320006B8E011229F1908F011229F14E9B01121F
:1043300029F1D79B011229F13F9F011229F19EA07B
:10434000011229F1F9A0011229F141A2011229F16A
:1043500029A3011229F1D0A5011229F151A70112B7
:1043600029F1E2A7011229F1E5A7011229F15CA8C0
:10437000011229F166A8011229F173A8011229F18D
:104380009EA8011229F14DA9011229F13CAA01129E
:1043900029F1F5AA011229F178AB011229F196ABA6
:1043A000011229F1ABAB011229F1D4AB011229F1B1
:1043B00001AC011229F13EAE011229F11AAF01122E
:1043C00029F164AF011229F1EFAF011229F19DB07B
:1043D000011229F1CFB0011229F115B1011229F111
:1043E00048B1011229F19CB1011229F1EDB101127C
:1043F00029F1F2B1011229F146B2011229F1AFB24D
:10440000011229F17DB3011229F1C8B3011229F17A
:104410002DB4011229F189B4011229F125B5011237
:1044200029F17FB8011229F1ACB9011229F14CBB75
:10443000011229F1A2BE011229F138BF011229F19E
:1044400068C2011229F123C3011229F16BC30112C1
:1044500029F124C5011229F138C5011229F142C5FB
:10446000011229F14CC5011229F158C5011229F197
:1044700077C5011229F1C5C7011229F11EC8011221
:1044800029F128C8011229F132C8011229F1B8C84E
:10449000011229F10CC9011229F119CA011229F1DD
:1044A00089CA011229F193CB011229F1DCCB011247
:1044B00029F183CC011229F163CD011229F130CE0B
:1044C000011229F163CF011229F1A0D0011229F1C3
:1044D000A1D1011229F1B9D1011229F1EDD10112B5
:1044E00029F1F7D1011229F101D2011229F10CD2DF
:1044F000011229F12AD2011229F172D2011229F1F5
:10450000D0D2011229F1F7D2011229F109D30112F7
:1045100029F1A4D3011229F1D9D3011229F1D7D459
:10452000011229F12DD5011229F11CD6011229F110
:1045300052D6011229F1B5D6011229F12DD7011257
:1045400029F1D2D8011229F1FAD9011229F1D8DAC8
:10455000011229F1A9DB011229F12ADC011229F14A
:10456000C5DC011229F1FADD011229F18CDE0112FC
:1045700029F1E0DE011229F14CDF011229F112E0EC
:10458000011229F163E0011229F1BBE0011229F1C6
:104590008CE1011229F1AFE1011229F15EE2011271
:1045A00029F180E2011229F1E1E2011229F12FE55E
:1045B000011229F132E6011229F1F6E6011229F180
:1045C0002AE9011229F174E9011229F1BFE9011266
:1045D00029F11AEA011229F187EA011229F1B5EA53
:1045E000011229F1D9EA011229F10EEB011229F188
:1045F0003BEB011229F181EB011229F1DFEB0112F2
:1046000029F133EC011229F15DED011229F10AEFD4
:10461000011229F153EF011229F17CEF011229F166
:104620000EF0011229F186F0011229F194F0011225
:1046300029F1B8F0011229F115F1011229F130F137
:10464000011229F1F1F1011229F11DF2011229F1F2
:1046500060F2011229F1C3F2011229F1BBF4011237
:1046600029F1E8F4011229F1DDF5011229F1DAF658
:10467000011229F17DF7011229F1D18B061229F1DE
:10468000098C061229F12A8C061229F16E8C061269
:1046900029F1D28C061229F1DC8C061229F1EC8C5E
:1046A000061229F1238D061229F11B91061229F118
:1046B0002993061229F11695061229F1AD950612D5
:1046C00029F14F96061229F17380041229F11C81F9
:1046D000041229F1F381041229F1FB82041229F159
:1046E0001B83041229F13384041229F1ED8504128D
:1046F00029F16086041229F1FD86041229F114883B
:10470000041229F18188041229F1BC88041229F1CC
:104710001189041229F14C89041229F19989041292
:1047200029F1298A041229F1B68A041229F18B8B06
:10473000041229F1648C041229F1F28C041229F17B
:10474000128D041229F13F8D041229F1708D04128B
:1047500029F1438E041229F1538E041229F1A28EFD
:10476000041229F1AF8E041229F1B88E041229F136
:10477000288F041229F1888F041229F1D38F041293
:1047800029F1EE8F041229F11590041229F13290CB
:10479000041229F13E90041229F1E991041229F141
:1047A0000292041229F18B92041229F19E920412B2
:1047B00029F1BD92041229F15893041229F1C894E9
:1047C000041229F16F96041229F1FE96041229F1C0
:1047D0000197041229F17197041229F18F9704129D
:1047E00029F13498041229F17098041229F1739870
:1047F000041229F13999041229F19C99041229F122
:10480000D599041229F14A9A041229F1689A0412DE
:1048100029F1B69A041229F18B9B041229F1D99B34
:10482000041229F1279C041229F1B49C041229F1E5
:10483000E99C041229F11E9D041229F12C9D0412F9
:1048400029F18B9D041229F1039E041229F1449E43
:10485000041229F1949E041229F1BF9E041229F139
:10486000D99E041229F1F39E041229F1CE9F04125D
:1048700029F1D89F041229F113A0041229F123A0D1
:10488000041229F12CA0041229F184A0041229F1A8
:1048900098A0041229F1CEA1041229F1E1A1041279
:1048A00029F1F8A1041229F10DA2041229F19BA209
:1048B000041229F103A3041229F1B6A3041229F169
:1048C000C1A3041229F111A5041229F12DA5041286
:1048D00029F179A5041229F1E8A5041229F121A6EC
:1048E000041229F13BA6041229F19BA6041229F116
:1048F0003AA7041229F185A7041229F147AA041244
:1049000029F1FDAA041229F18DAB041229F1D5ADCC
:10491000041229F1EDAD041229F1F0AD041229F1D0
:10492000FCAD041229F110AE041229F118AE0412E4
:1049300029F14BAE041229F13EAF041229F1C9AF9F
:10494000041229F15CB0041229F1D5B0041229F146
:1049500099B1041229F1BBB1041229F154B2041225
:1049600029F1B1B2041229F1B4B2041229F1E1B271
:10497000041229F1F6B2041229F170B3041229F1DC
:10498000BCB4041229F1C7B5041229F152B60412BD
:1049900029F157B7041229F117B8041229F148B8C0
:1049A000041229F16EB8041229F177B8041229F122
:1049B000A5B8041229F13DB9041229F1F2B9041283
:1049C00029F163BA041229F10ABB041229F191BB3F
:1049D000041229F1D0BB041229F113BC041229F1ED
:1049E0004DBC041229F12FFD041229F1B3FC04126D
:1049F00029F107FB041229F1B0FA041229F104FA93
:104A0000041229F13CF8041229F185F7041229F166
:104A100055F7041229F10AF7041229F1A5F6041238
:104A200029F164F6041229F144F6041229F176F50D
:104A3000041229F103F5041229F1A1F4041229F159
:104A400044F4041229F1B7F2041229F154F20412C9
:104A500029F1CEF1041229F1C5F1041229F1B9F1BD
:104A6000041229F186F1041229F140EE041229F111
:104A700012EE041229F1AFD1051229F1BFED041293
:104A800029F193D1051229F199CF051229F15BCFB4
:104A9000051229F135CF051229F1B9CE051229F1F8
:104AA00073FE041229F1A7ED041229F19CED041202
:104AB00029F160ED041229F18EEB041229F128FE90
:104AC000041229F177EB041229F1ADEA041229F15D
:104AD0000AEA041229F12EE8041229F15AEA061210
:104AE00029F1D0E6041229F1BCFD041229F1C5E632
:104AF000041229F13DE6041229F1F9E5041229F125
:104B0000D5E5041229F18A8B061229F1298B0612A8
:104B100029F1F48A061229F1C98A061229F1958A27
:104B2000061229F16D8A061229F1F089061229F17F
:104B3000DA89061229F1AA89061229F1DF850612FF
:104B400029F19783061229F16F81061229F1F1806C
:104B5000061229F10080061229F1A280061229F11D
:104B60005E80061229F1BBE10600000080FBE473C1
:104B70008F0001008F1E870001007E1A350004009F
:104B8000541E25000200581E260002005A1E27004F
:104B900002005C1E28000100661E29000100671E3D
:104BA00084000400571A86000100FE1D2A0001003F
:104BB000681E2B000100691E2C0001006F1E2D00D5
:104BC0000800641A2E000100701E2F000100711EE3
:104BD00030000100721E31000100731E320001001E
:104BE0006C1A330001006D1A34000100741E360087
:104BF00001006E1A38000100751E390001006E1E9A
:104C0000830002008C1E63000100791A6400010019
:104C10006A1E650001006B1E6D0001007A1A7100AA
:104C200008005C1A660001008B1E430001007C1E18
:104C3000440002007D1E450001007F1E4600020068
:104C4000801E47000800711A48000100821E4B00B8
:104C50000100831E040001008E1EA1000100921EAF
:104C600037000100911E88000100901E3C000100E9
:104C70006F1A3D000100761E49000200841E670085
:104C800001007B1A4D000200861E4E000100881EA6
:104C90004F000200891E3E0001007B1E51000100F2
:104CA000771E52000100781E530001007A1E540046
:104CB0000100701A000000000000000136360101FA
:104CC00000010201000103010001040106060502C2
:104CD0000000070100340801000F090401010D0163
:104CE00000FF0E08000017020000190100FF1A0162
:104CF00000011B0100FE1C0100081D0200001F0135
:104D0000000120010001210200002301000F240204
:104D100000002601000127010008280200FF2A01E7
:104D200000072B0102402C0100002D0100012E0183
:104D300000012F0100FF30010B1D310800003A0176
:104D400000083B01000F3C0100013D0100FF3E0453
:104D5000000042040000460400004A0400004E0423
:104D6000000052040000560400005A040000010331
:104D70007103010301030103010301032203020381
:104D800001031003000300030003000300030003FA
:104D9000000342030003240306030003000304038B
:104DA0001203250323032503230304030403000341
:104DB000000300034403000300032303000365030F
:104DC00021003503810300030503000300030003F2
:104DD0000003250323030302710230016002110264
:104DE00070020102020202028002100261023A0015
:104DF0004100630273027202620243020002130264
:104E00003800000200020402120200020002000246
:104E1000000204020402370037003C024402000290
:104E20003900000200026502000235028102000220
:104E3000050282028302000203007100300160005B
:104E40001100700031022003500480001000610046
:104E50000000140063007300720062004300000051
:104E60001300060000000000040012000000000013
:104E70000000000004000400370037003C0244003A
:104E80000000000000000000650000003500810007
:104E90000000050000008300000001017101010114
:104EA0000101110101013101010101018001100124
:104EB00061013B001400630173017201620143014F
:104EC0000001130106013D0135000401120100013A
:104ED00000010001000104010401330133013C0120
:104EE0004401320136000001000165010001350076
:104EF00081010001050182018301000103047104A5
:104F00000204600411047004020402040104020497
:104F10001004610400041404630473047204620442
:104F200043040004130406040004000404041204EF
:104F300000040004000400045104640000040004A0
:104F40000004440400040004000400046504000498
:104F50003504810464000504000483040004360061
:104F60000100060000000F0000000000000000002B
:104F70000000000003FFFF00000403FFFF0000FF2C
:104F8000FF0FF4010005C4040320000100000B0022
:104F90000000000000000003010F000000000000FE
:104FA0000000000000000000000000000000000001
:104FB0000000000000000000000000001300553851
:104FC0001F005B381F8061380000FD380100FD388C
:104FD0000200D7370280D1370300DD370400E33702
:104FE0000480E9370500EF370600FB373000193839
:104FF000310013383200253833002B383500313872
:105000003400373836003D381100493814004F3825
:1050100015000D38FFFF00000A000000020000002C
:105020000400000008000000100000002000000044
:1050300040000000800000000001000000020000AD
:105040000004000000080000001000000020000024
:1050500000400000012F43065F430859430B7D4386
:1050600010453F0A8F43023543054D43073B430C30
:1050700017430D234364173DFF000007ECFDFDFDC2
:10508000ECDCDCCCBCACAC9C9C8C7C7C6C6C5C5C50
:105090005C4C4C3C3C2C2C1C1C00160F00000B15CF
:1050A0000B020002220F3300000E0F667A6C636859
:1050B00074696D65434F2E2C4C54645A6967426580
:1050C00065416C6C69616E63653039D0D1D2D3D4DF
:1050D000D5D6D7D8D9DADBDCDDDEDF140AE5D5C5D5
:1050E000B5A5A5958585756500034D4C4651181AE3
:1050F0002505020001191618161618230300303072
:1051000016181920231A1C1E30003C40423A3F3F1B
:10511000392F4730303017181921301B1D1F300C24
:105120000E020B040B0A0708000F02040201010122
:1051300001090200BE040AE8030000FA067B500CD5
:10514000001E0000000000DB500E00E8037F001E80
:10515000050CFF0404080028040002090809033CA8
:105160000C0305080B0300FF0A0C1010C082C0835B
:105170009018CFE4F0A3F07CB47D1B7AE97B171282
:105180003501123D47123F93123D4D02670674F2FE
:1051900012245A74FE122AEDE9FF8A08EBFE8C09EC
:1051A000E9703374026A70167908123723E4F50A3D
:1051B000F50B780A122A46780A122A4A805374019B
:1051C0006A60030252F379081237237B00EEFAF982
:1051D000123DB90252EE74016F600874026F6003F1
:1051E0000252F3EA600874036A600302528E1241AD
:1051F000B5E9605374036508604D1233458A0A8B24
:105200000B780A122A46750A01780A122A4A750A88
:1052100000780A122A4AE509F50A780A122A4AEEA3
:10522000F50A780A122A4A90180312286D901DFE7A
:10523000E0F97C717D1A901E8C126534123D7174F8
:105240000A122A590252EE7902123723901DFEE00B
:10525000F9901803122CD0123D5FE9F8901813E072
:10526000A2E34010E9700D9018D3E004F0640470DC
:105270000312530F7403650870769018D4E0F97424
:105280000129F0E9C39405406712530F806274014D
:105290006A706074016F790A702C1237237A007B70
:1052A00004901C85E0F91234BFAA18AB197950128A
:1052B0006218126222E81276E47900901C381265B6
:1052C00034123E018044123723901E6212286D7AF8
:1052D000007B20901808E0F91234B37404122A59A4
:1052E000901DFEE0F9901803122CD0123D9BE9F8B6
:1052F000E8601790816F12286D7A017B0090180882
:10530000E0F91234B37404122A597402027B4890F3
:105310001803E4F0A374F8F0A374FFF0A37407F08B
:105320002274F612245AE9FFEAFE7AD1F91233699F
:105330008A828B83E5824583702A7A027B0012334E
:105340004BEA4B700E7A107B00901808E0F912338C
:105350008D80148A828B8374D1F0EFA3F0EEF91262
:1053600033578003EFA3F002557074F712245A8963
:10537000089004D1127887901E4AE0F47003A3E0ED
:10538000F470309009D3E0901E4AF0A3E4F080233B
:105390008E828F831264B7600F8E828F83A3A312D5
:1053A00064B4FAA9081237B98E828F831264A6E812
:1053B000FEE9FFEE4F70D9901E4AE0F47003A3E0BF
:1053C000F4600A901E4AE0FAA9081237B91244554F
:1053D0009017D3125C8312444F7F010226E974F0C8
:1053E00012245A890B8C0C75090075080074101270
:1053F0002CFF1264A67412122CFF12561E80471244
:1054000054A7F50EA3E0F50FAE08EE2EFEE433FF31
:10541000EA2EF582EB126AFA650E7004A3E0650FBE
:105420007019AE09EE2EFEE433FFEC2EF582ED3F4F
:10543000F583E50EF0A3E50FF00509050AE50AC3BB
:10544000950C40BB0508E508C3950B5005750A008F
:1054500080EBA90980007F080226E974F412245A1F
:10546000890B7D00740C122CFF1264A680010DEDD7
:10547000C3950B502E750A008002050AE50AC39CED
:1054800050ECED25E0FEE433FFEA2EF582EB3F120F
:1054900076C11254A765087004A3E0650970DB7932
:1054A00001800279008014AE0AEE2EFEE433FFE89C
:1054B0002EF582E9125C2022122A597F040226E985
:1054C0000229EE74F612245A12555A7003A3E06DA5
:1054D00070177508117509187808122A46EEFA1225
:1054E00039037402122A59801A75080275098078E6
:1054F00008122A468A0889097808122A461255474E
:10550000122A59806B74F612245A12555A7003A34A
:10551000E06D701775081E7509187808122A46EE96
:10552000FA1239097402122A59801A75080375098A
:10553000807808122A468A0889097808122A4612B1
:105540005547122A598029EE127B22125C20FD7CDD
:10555000801267AC123927740422EAFEEBFF12674F
:10556000C1FCE439FD9017D3E06C227402122A5971
:105570007F020226E974F612245A74FE122AED8A7A
:10558000088B09851882851983E4F0A3F012609CCA
:105590001268FAFBECFA88828983A3A3E0F97F0002
:1055A0007E00600574FF6970047E8280459017D389
:1055B000E06A7003A3E06B701AAA18AB19124B27AC
:1055C000E9FA8518828519831266F370027E83EAF0
:1055D000FF801F901A7EE060046401700E123CCFC1
:1055E000E960047E89800B7E818007E0640270029E
:1055F0007E80125618EEF9AA08AB0912390FEF6037
:10560000148518828519831266F3600985188285CE
:10561000198312714702556B851882851983E0FC46
:10562000A3E0FD220229EE74F212245AEAFEEBFFF7
:105630007508007509001267BDF50AE439F50B120B
:105640004455EA650A7003EB650B7012124B15E9BD
:1056500014F50879017A9B7B18124B0F80037509AA
:1056600080126AF4F50C780C122A4A750C9B750DA1
:1056700018780C122A467808122A4A780A122A4602
:10568000E509F5087808122A4A126523126AF7F923
:105690007A057B801239157407027B4874F6122450
:1056A0005AE9FF7E0080328A828B83E0F508A3E00E
:1056B000F8E4C8F9E50828E439F509EE25E0F8E44E
:1056C00033F9EC28F582ED39F583E508F0A3E50917
:1056D000F0EA2402FA50010B0EEEC39F40C90255B6
:1056E0007074E812245A74FE122AED8A108B117518
:1056F0000F00851882851983E4F0A3F0F516F517DD
:10570000126372351112787D127CFDFA8E828F83BE
:10571000A3A3A3E0F9EAF508E439F509AA0AAB0B5B
:105720001244F1E96401702B1274D7122A4AE4F58D
:1057300008F5097808122A467808122A4A780A12C7
:105740002A467508807808122A4A125AC4122A5921
:10575000025AADAA0AAB0B1244F1E970419017D37B
:10576000E0650A7004A3E0650B6033901A7EE06484
:105770000270281274D7122A4AE4F508F50978084D
:10578000122A467808122A4A780A122A4675088090
:105790007808122A4A125AC4122A59025AAD8E8225
:1057A0008F83A3A3A3A3E0F50BEE2405FE50010F06
:1057B000E50B602A127BC1851882851983EAF0A364
:1057C000EB126B11E8496016125618EEFAEFFBA9BE
:1057D0000B1237F58A0C8B0DAE0CAF0D8003750BD9
:1057E00000127BD7601A127BC18A168B17EA4B60B6
:1057F0000FAC16AD17EEFAEFFBA90A1237F58003CE
:10580000750A009004D180508E828F83A3A3A3A336
:10581000A3A3A3A3E4F0A3F0EEFAEFFB8514828523
:105820001583A3A3E0F81264B4F9123357851282EA
:10583000851383E0C0E0A80F749B28F582E4341838
:10584000F583D0E0F0050FA2005007AA12AB1312A7
:1058500033F3851482851583E0F514A3E0F515E58F
:105860001445157003025A2B851482851583126422
:10587000B760DF851482851583A3A3A3A3A3A3A385
:10588000A3E0A2E050CC851482851583A3A3A3A333
:105890001266F3851482851583A3A3601E1264B972
:1058A000FA7901851482851583A3A3A3A3125AB79D
:1058B000124B6E8A128B13D2008010125AB7A3A318
:1058C000A3A3E0F512A3E0F513C200E5124513709F
:1058D00003025847851282851383A3E0650870048C
:1058E000A3E06509600F74FF6508700474FF650923
:1058F0006003025847851282851383A3A3A3A3A341
:10590000A3A3122871851282851383A3A3A3A3A343
:10591000A3E0FC7402122CFF126534A90B1237CBE2
:105920007402122A59E97038851282851383A3A361
:10593000A3A3A3A3A3A3A3A31228718512828513F3
:1059400083A3A3A3A3A3A3A3A3A3E0FCAA16AB17BB
:10595000A90A1237CB7402122A59E9700302584778
:10596000E50A250BC333240AFA7B0012334B8A0C59
:105970008B0DAE0CAF0DEA4F700302582D8A828B4F
:105980008374D2F0851082851183A3A3126231A3A0
:10599000A3E81276E48A828B83A3A3A3A3E50B1268
:1059A0007D0EE50B6033EA240AFAE43FFB8E828F1A
:1059B00083125C7E851882851983E0F50CA3E0F5DF
:1059C0000D750E00780C122A42AC0BEC2CFCE43363
:1059D000FD127CF7122A59800D8A828B83A3A3A320
:1059E000A3A3E4F0A3F0E50A7003025808A80BE8AB
:1059F00028F8E433F9EE28F8EF39F9E8240AFAE454
:105A000039FB8E828F83A3A3A3125C7E85160C853F
:105A1000170D750E00780C122A42AC0AEC2CFCE42F
:105A200033FD127CF7122A59025818E50F6025122F
:105A300074D7122A4A75089B7509187808122A46E5
:105A4000E50FF5087808122A4A9017D312287175C5
:105A50000800802DE510240BF582E43511F583E074
:105A6000702A1274D7122A4A75089B75091878088B
:105A7000122A467508007808122A4A9017D312286D
:105A8000717808122A4A125AC4122A598518828536
:105A900019831266F360098518828519831271478C
:105AA000E51645176007AA16AB171233F3740212F6
:105AB0002A597F100226E9125ABB22E0F8A3E0F52A
:105AC00083888222E5102402FCE43511FDE51012E2
:105AD000649D3511F583E0F97A067B8012391574DF
:105AE000072274F412245A74F4122AED8A088B09DE
:105AF000ECFEEDFF740B122CFF7403F0122AAF12B0
:105B000035011266487403122AAF1234FBE9600AA9
:105B1000125C146010E06401600B851882851983A3
:105B20007484025BDD8E828F83A3A3A3A3A3A3A3AC
:105B3000A3E06013F46010125C147016EE241412CB
:105B40006AF76003F4700B851882851983748202EA
:105B50005BDD127871E064217002A3E07055851856
:105B600082851983748C126241E0F50A780A122A40
:105B70004A125C251240A17401122A59E9705F850E
:105B80001882851983E4F01236FF125C14704F748A
:105B900001122AB7EE240BFAE43FFB1240BFE97072
:105BA0003D7D007C007900EE240BFAE43FFB1238C7
:105BB000CD802BEE2414126AF7F50A780A122A4ACD
:105BC000125C251240A77401122A59E985188285B2
:105BD00019837007E4F01236FF80037488F01274A2
:105BE00092F50A780A122A4A7401122AA7880A89A9
:105BF0000B780A122A46E508126D2D350912622922
:105C00004480F50B780A122A4612662A122A597421
:105C10000C0254B8EE2413125C1D640322F582E4D6
:105C20003FF583E022EE240BFCE43FFD8E828F8360
:105C3000A3A3A3A3A3A3A3A3A31274C78E828F833A
:105C4000A3A3A3A3A3A3A3A3E0F922C082C0837448
:105C5000F3122AED851882851983E4F004122CFFD3
:105C6000125C837403122CFFAA82AB83123C57AAE6
:105C700018AB19123C93740D122A59026706A3A39C
:105C8000A3A3A3EAF0A3EBF02274F612245AEAFECF
:105C9000EBFFEA2413126AF7F8A3E0125CD0F89045
:105CA0001819E058F508A3E059F509E50845096019
:105CB0001C7808122A469017D3122871126AF4FD34
:105CC0007C001267A81239217404122A59025570F7
:105CD0008882F583125CD822E0FAA3E0F9EA227404
:105CE000EA12245A74DB122AED8A148B15751200FD
:105CF000751300750A001263723515F5831264B9C5
:105D0000F50EAC18AD197A007B00799C123DD1904C
:105D10001A7EE06004640170147A047900123CBDBC
:105D2000EAF50A851882851983E02A800885188299
:105D30008519837401F0E0F8E50EC3984003025F13
:105D400031E0C3950EF509C394044003750903E5DA
:105D50000975F01AA4FAABF01233ED8A128B13EA2C
:105D60004B7003025F34750B00AE12AF13850E0843
:105D7000025DF97C087D0079FFEE240AFAE43FFB1E
:105D8000123333850C82850D83A3A3A3A3E0702D6A
:105D9000850C82850D831266F3700912769E125F60
:105DA000D8E48010125FB5F0901C4BE014C0E012F4
:105DB0005F9CD0E0F0125FA0125FE78032901C4B36
:105DC000E004C0E0125F9CD0E0126014C39403EEC4
:105DD0004003025E7A12777B7402126014640170D1
:105DE00003025E87EE2415125FB8125FC97401F0DA
:105DF000EE241AFE50010F050BE50BC39509400375
:105E0000025EE6E508C3950A4003025E90AA087B9D
:105E100000123CFF8A0C8B0D0508901C38125FFAAB
:105E2000850C82850D83125FC1F0A3E9125FEC122D
:105E30005F9C74FF126019A3A3A3A3A3A3E0C0E017
:105E4000125F8AD0E0F07401122CFFE4F0850C821E
:105E5000850D831264A67402122CFFE81276E47496
:105E600001122AAF123C81E964016003025D737480
:105E700004122CFF125FA6025D83125FB61260143B
:105E800064036003025DE4EE24151276A1025DEA6C
:105E9000E50AC3950E40057508008051E50EC395CF
:105EA0000AF5088048EE24151276A1125FE7F090FB
:105EB0001C4BE014C0E0125F9CD0E0125FEC741D3C
:105EC000122CFFE0C0E0125F8AD0E0F0125F941263
:105ED00066F1700512769E8003125FB5F0EE241A0B
:105EE000FE50010F050BE50BC395095047740E12C8
:105EF0002AB7AA087B007987123DD10508741812C9
:105F00002CFF125FFA7410122CFF125FA6740E128F
:105F10002CFF125FC11276E4901A7EE060046401E7
:105F20007083125FA0125FC97403125FD874FF8080
:105F30008A750900750A00780A122A4A7812122A0C
:105F4000467809122A4AE50EF5097809122A4A7498
:105F500005122CFFE0FD7C00E5141264943515FB5E
:105F6000E5141264993515F583E0F912395D74056D
:105F7000122A59E51245136007AA12AB131233F324
:105F80007425122A597F0E0226E9EE2419F582E4BF
:105F90003FF58322EE2412F582E43F22125FDD22D8
:105FA000127702740222AC82AD83EE240AFAE43F37
:105FB000FB12350122EE2414F582E43FF5837401CF
:105FC00022126B1C1276F8E822125FCD22F0EE242A
:105FD00016F582E43FF58322F0125FDD22EE2418ED
:105FE000F582E43FF58322125FCDE422F0EE241720
:105FF000F582E43FF5837402F022126B1C8E828FCF
:1060000083E8F0A3E9F07C4C7D1CEE1264943FFB26
:1060100012350122126019E022F0850C82850D8371
:10602000A3A3A3A32274F612245A74F9122AED1220
:106030006098127DC0851882851983122CE88E82A3
:106040008F83A3A3A3A3E0C0E07404122CFFD0E0CD
:10605000127B01F87405122CFF7401F07406122CE7
:10606000FF7401F09017DDF09017E604127797FAAD
:10607000A3E0FB9017DE125C83E89017E7F0127B39
:1060800013E09017DCF0AA18AB19123D65E9600324
:10609000123D6B740702556D8A088B09127B6235BD
:1060A000092274F212245A74FF122AED7508007E38
:1060B000007F0012436B8A0A8B0B12620C8005056D
:1060C000081264A3E84970F7901A7EE06007640143
:1060D000600302618212620C80031264A3E84960CB
:1060E0002D88828983126534901C38E06A7003A37E
:1060F000E06B600A1264AA126534EA4B70DC888295
:106100008983126222E0687003A3E06960747A16E2
:106110007B00127A93606B901C38126231E8127621
:10612000E4901C2D126E0CF01244D9E98E828F83FC
:10613000A3A3A3A3A3F0901E68E08E828F83A3A3E2
:10614000A3A3A3A3F07C4C7D1CEE240B125FADAA8D
:1061500018AB197941126218E060089017D31264E5
:10616000A6800478FE79FF8E828F83A3A3A3A3A3C6
:10617000A3A3E8F0A3E91262411262398E0A8F0BE1
:1061800005089017E7E0F8E508C398500479008007
:1061900029E508C398F9C394064002790578008080
:1061A0000FE50A2414F582E4350B126229F50B0879
:1061B0009017E7E0FAE8C39A40E7750900780912FA
:1061C0002A4A780A122A46E9F5097809122A4A90D9
:1061D00017E7E0F5097809122A4AAD087C007ADE53
:1061E0007B179017DCE0F91239577405122A599081
:1061F0001A7EE060046401700BEE4F6007EEFAEF68
:10620000FB1233F3123D6B7401027B4812436B8A1D
:106210000C8B0DA80CA90D22123B3785188285190D
:106220008322126B1C901C3822F583E0F50AA3E050
:1062300022126B1C8A828B8322E50AF0A3E50BF005
:1062400022F0EE12777F2274F012245A74FF122A81
:10625000ED8A0A8B0B7E008E0E8E0F126372350B49
:10626000F5831264B9FFAC18AD197A007B00799DF3
:10627000123DD1851882851983E0F8EFC398400359
:1062800002631CE0C39FFEC3940B40027E0AEE75BE
:10629000F007A4FAABF012648C8A0E8B0FEA4B6005
:1062A00079750C00801A850882850983A3A3A3A3AE
:1062B000A37403F0E5082407F50850020509050C4E
:1062C000E50CC39E5056AC08AD09E50C2FFAE4343A
:1062D00000FB798B123DD1850882850983A3A3A396
:1062E000A3A3E014600814601314601F80B885082D
:1062F00082850983A3A3A3A3A3E480B7850882852D
:106300000983A3A3A3A3A3740180A8850882850998
:1063100083A3A3A3A3A3740280997E0075080078C9
:1063200008122A4A780E122A46EEF5087808122A30
:106330004AEFF5087808122A4A7405122CFFE0FD8E
:106340007C00E50A126494350BFBE50A126499356A
:106350000BF583E0F91239637405122A59E50E45ED
:106360000F6007AA0EAB0F1233F37401122A590201
:106370005456EA127B632274EE12245A74FE122AD7
:10638000ED8A0C8B0D751000751100126372350DBE
:10639000F5831264B9F50AAC18AD197A007B00795F
:1063A000A31240AD8518828519831264A6C3E50A3D
:1063B00098E4995020851882851983A80AE0C3982B
:1063C000FEA3E09400FFC3EE9404EF940040617ECE
:1063D000037F00805F7E00750B00EEF97508007882
:1063E00008122A4A7810122A46E9F5087808122A73
:1063F0004AE50AF5087808122A4A7405122CFFE0CB
:10640000FDAC0BE50C126494350DFBE50C126499A0
:10641000350DF583E0F91239697405122A59E51032
:1064200045116007AA10AB111233F37402027B9B73
:10643000EE4F60A3EEFAEFFBEA75F015A4FAA8F0B0
:1064400075F015EBA42812648B8A108B11EA4B604F
:1064500032750B00750E00C3E50E9EE49F400302EB
:1064600063DAAC08AD09A80AE50E28FAE43400FBAB
:1064700079A21240ADE5082415F50850020509057A
:106480000E80D4750BB579000263DCFB1233ED8A04
:10649000088B09222402FAE42212649D22240FF5BB
:1064A00082E4221264AA126B1C22E82414F582E40E
:1064B00039F58322125ABDA3A3125ABBE02274F607
:1064C00012245A74FF122AEDEAFEEBFF1266DF1265
:1064D00065348A82F583A3A3A3A3A3A3A3A3E0F9AE
:1064E000123D89E9851882851983F07508007808BE
:1064F000122A4A7401122AA7880889097808122AE0
:10650000467508357509807808122A4612651712F3
:106510002A59740102556D7901126523FAE43F127C
:10652000664122EE2402FCE43FFDEE240F22851892
:10653000828519831274C72274F412245A74FA12D1
:106540002AED126098127885EEFAEFFB123C5DE9B5
:10655000600F126648EEFAEFFB1234FBE96401703B
:1065600013901A7EE070030266257401122CFFE47A
:10657000F0A380097401122CFFEEF0A3EFF0901A43
:106580007EE064027017850882850983A3A3126BDD
:106590000AE0687003A3E06960030266258E828FBB
:1065A00083A3A3A3A3A3A3A3A3E0FEA2E65008741E
:1065B00003122CFF7401F0EEA2E750087404122CB1
:1065C000FF7401F07405122CFFE4126901F0F50A62
:1065D000780A122A4A7401122AA7880A890B780AB3
:1065E000122A46750A34750B80780A122A461266FA
:1065F0002A122A59908133122CD01244737A007BCC
:106600000012447F7A007B001244797401122AAF91
:10661000123DBFEEA2E7400D7401122CFF1266F38B
:106620007003124AA374060254B87901E5082402E3
:10663000FCE43509FDE508240FFAE435091266414A
:1066400022FB1238C174052212444F8A0A8B0BAC0C
:106650000AAD0B2274F612245A74FF122AEDEAFED8
:10666000EBFF901A7EE07011901E6DE0700B8A8235
:106670008B83A3A31266F370631266DF1264B9F50D
:106680000874FF650870037508FEA908123D77E9D4
:10669000851882851983F01241B5E96005A90812B1
:1066A0003A2F901A7EE07005A908123A2FEE240BBB
:1066B000126AF770277508007808122A4A740112C6
:1066C0002AA7880889097808122A467508367509A4
:1066D000807808122A46126517122A59026512EAB2
:1066E0001266E4222413F582E43FF58322F582E466
:1066F00038F583126B1CE84922C082C083901A7E51
:10670000E07003123A35D083D0820229EE74F4127D
:10671000245A74EF122AEDEAFEEBFF1267BDF5086A
:10672000E439F5099017D3E06A7003A3E069705269
