:020000040000FA
:0600000002134702083460
:03002B0002113986
:03003300020D3289
:03004300020FEDBC
:0300530002076938
:03006B00020D0083
:100083000207C80100F0FF0700080000FFFF00009F
:1000930001040000000300010020FD00056B15773B
:1000A300150000000071157D1571158915000000FC
:1000B3000071157D15000000000000000000000025
:1000C30000000000000000000000000000A715ADC4
:1000D30015B315E9150000000000000000B1829D72
:1000E300829982D5820D83D982D182CD82C982C57C
:1000F300822D83958201AACDABCDAB010140830153
:1001030042830206FFFF010400003715000000E8E8
:10011300030000FFFF88150188130000E8030000B7
:1001230064006400B801A0BB0D00A0BB0D00020277
:1001330002070401051E02051E020A0A010808013E
:1001430003B80B02803E0102FEFFE8030A0500012B
:10015300FFFF020A011401E0303132333435363700
:10016300383941424344454600286E756C6C207013
:100173006F696E7465722900303132333435363726
:100183003839616263646566003F3F3F0000008069
:100193007F0000803FF9021550B743BA5100002099
:1001A3004100E7DB2E0000A04005030101FF0F140F
:1001B3002C00000000E82A00000000FF000000FF00
:1001C300001213666046121357603DE9687008F623
:1001D30018F618F618F622748067F71201F8090961
:1001E30009748067F722121357601D121366700596
:1001F300191919801A12126B701F121257C3700348
:10020300E6673319191940071818182208080874E3
:10021300FFF618F618F618F6221212576017121383
:10022300F4702192F01213FD7019501720F0140886
:100233000808090909E7F61819E7F61819E7F6187F
:1002430019E7F6221213FD60E6E869701F0808E655
:100253002480F608E436F618547FB47F0CE6548005
:100263006007F6E418F618F622181822E9C6CC0837
:10027300C6CD08C6CE08C6CFC0E0E8C0E0EAC0E0FD
:10028300EBC0E009E9F809E7FA09E7FBE6F918E644
:10029300F8C3EC98ED99EE9AEBC2E7F5F0EFC2E7FD
:1002A30095F0500E600CEBCFFBEACEFAE9CDF9E8FE
:1002B300CCF8EAA2E7D2E7FAEB33FB13F5F0EEA2B0
:1002C300E7D2E7FEEF33FFC5F013A2E730E601B351
:1002D30013C5F0C3C0E0C0F07F00C39BFB605E9416
:1002E30018600F401D14601AD0E023F9D0E0F80223
:1002F30003CA8AF0E9486003D2F0E4AFF0FAF9F8F0
:10030300803BEB30E40D89F0EA6003D2F0E4AFF018
:10031300F9CAF8EB30E30D88F0EF6002D2F0AFF0EA
:10032300E4CAC9F8EB54076014FBC3EA13FAE913F0
:10033300F9E813F8EF135002D2E0FFDBEDD0E0C091
:10034300E030E739C3E49FFFF5F0EC98FC42F0EDB1
:1003530099FD42F0EE9AFE42F0D0E0F9D0E0F8E5E4
:10036300F0607AE923F9EE20E742D8028067C3EF11
:1003730033FFEC33FCED33FDEE33FE80EAEC28FC77
:10038300ED39FDEE3AFED0E023F9D0E0F8400280EB
:100393001BC3EE13FEED13FDEC13FCEF135002D25F
:1003A300E0FF08B800067F7F74FF802EEF335017FD
:1003B3008CF020F00260100CBC000C0DBD00080E88
:1003C300BE000408E860DFE933E813FFEE2313FE01
:1003D3004F4D4C8008E95480FFE4FEFDFCEE33EF03
:1003E30033F47004FCFD7E80D0E0FBD0E0FAD0E073
:1003F300F8D0E0CFC618CEC618CDC618CCC6F922A1
:10040300121357700418181822121366700D74FF14
:10041300F61819F61819F61819F622E7548066F635
:100423001213FD700F1213F470F014F608F608F6A9
:1004330008F680D11213F4700CF608F608768008DB
:10044300E6447F80EC12125A700C12126E60BFE603
:100453005480F6E480BB12126E700519191980A539
:10046300E869700C763F18768018F618F6E8F922DA
:10047300E6CDC0E018ECC0E0E633CD33CDD313F6C0
:10048300E719FCE7191933CC33C3947F400ECD9D94
:10049300502408E65480F6E418F6800FF4043D1463
:1004A300501408E6447FF6187680E418F618F6D060
:1004B300E0FCD0E0FD22CCD313CCFD18E4C6CBC0C6
:1004C300E018E4C6CAC0E00808ED08C633E613F630
:1004D30018E433C675F003C3CA97CA09CB97CB197F
:1004E3009C40047D08802EBD00030205AC16B6FFB8
:1004F300050606081618C3CA33CACB33CB33CA273B
:10050300CA09CB37CB193CC37D08803E187D082030
:10051300E75CC633C6CA33CACB33CB33DDF1D5F080
:10052300EB30E77BCA97CA09CB974ACB199C406F3C
:100533004B7025E620E0218066187D08C3CA97CA60
:1005430009CB97CB199CD3C633C6CA33CACB33CB9B
:100553003350C9DDE7D5F0E1D3E4C636C608C63665
:10056300C608C636C608C636C61818188031C3CAA8
:1005730097CA09CB97CB199CB34097C633C6CA33E6
:10058300CACB33CB33DD34D5F02EC6A2E0C640C888
:10059300CA27CA09CB37194A70BECB3CB480B90805
:1005A30008E63308E633601F181818D0E0FAD0E0E5
:1005B300FBD0E0FCD0E0FD22187D08CA27CA09CB96
:1005C30037CB193CD3808013F618E4B67F11F618A5
:1005D300B6FF0EF618C60470D20808768080CAF6F5
:1005E30018F618F680C500121357604F1213666091
:1005F30012E7548066F612126B70111213F4703BFB
:10060300090909F4F618F618F618F62212125770AB
:10061300151213FD08080860EAE6447FF618768091
:1006230018E4F618F6221213FD60161213F4701272
:10063300E4F608F608F608E65480F60909091818DE
:100643001822EAC0E0EBC0E0ECC0E0EDC0E0E687D2
:10065300F0A4FBACF008E687F0A42CFCE435F0FA38
:100663001809E687F0A42C4B60027401CA35F0FC2C
:10067300E433FB09E687F0D2F7A42CCB35F0FC1961
:1006830008E687F0A42BCC35F0FBE433FD0819E62C
:1006930087F0D2E7A42C4ACB35F0CD3400FC09E631
:1006A30087F0D2E7A42DCC35F0FDE433FA0918E640
:1006B30087F0D2F7A42CCD35F0CA3400FC08E687C6
:1006C300F0D2E7D2F7A42ACC35F07A7E20E70B0AE2
:1006D300CB33CBCD33CDCC33CC33CB3350147004AD
:1006E300ED30E00ED2F1E4CD3DCDCC3CCC3B50051A
:1006F300DA05C2F1EB547FC63308E63392F0FBE729
:100703003309E733C39A502D2B70190C0D4C4D70E0
:10071300151806E608C333700D20F10AA2F013F68C
:10072300E418800B4024E4F630F002768018F618C3
:10073300F618F68024D33B14501074FFA2F013F67E
:10074300187680E418F618F6800FA2F013F618E670
:100753003303F618ECF618EDF6D0E0FDD0E0FCD04C
:10076300E0FBD0E0FA22C0E074F1120B52A2AFE436
:1007730033F509D2AF85A708AFA1EF5508FE741072
:100783005E600612165575A1EF74085E60081216B6
:100793005B75A1F78024EFA2E092F0E508A2E08266
:1007A300F05017906198E0F89007D3E0C398A2D275
:1007B30065D0335002E8F075A1FEE509A2E092AFDF
:1007C3007F02020BB1C0E074F2120B52A2AFE4330A
:1007D300FED2AF9061A4E0F8759B00E591585408F0
:1007E30060087591F71216A98023E591585410609B
:1007F300087591EF1216AF8014E591A2E092F0E82C
:10080300A2E082F05007E0C2E0F01217F99061A372
:10081300E0F8E5E9585404600E1217CF75E9FB9030
:100823006193E0A2E640F2EEA2E092AF7F01020BF9
:10083300B1C0E074F2120B52A2AFE433FED2AF9018
:1008430061A5E0F8E5BF585404600675BFFB1218B4
:100853001180D4C3E498F8E499F91208978026C369
:10086300E49AFAE49BFBE920E7E9120897E498F895
:10087300E499F922C3E498F8E499F9120897E49803
:10088300F8E499F9C3E49AFAE49BFB22EB20E7CF5F
:10089300E920E7E0B90010BB0008E88AF084F8AA71
:1008A300F022E4FBC8FA22EB70227B10C833C8C9DC
:1008B30033C9335007C39AC3DBF280069A50012A27
:1008C300DBEAC833F4C8C933F4C9FA2275F008E483
:1008D300C833C8C933C933C99AC99B5004C92AC983
:1008E3003BD5F0ECFBC833F4C8E4C9FA2212093053
:1008F30020F01430E72B74FFFCFBFA747F8022E4B2
:10090300FCFBFA7480801AB48008BC00F2BB00EFD1
:10091300800F50EBF9E4C39AFAE49BFBE49CFCE4FC
:1009230099C6CC18C6CB18C6CA18C6F922E4C9C6DC
:1009330008CAC608CBC6D3330308CCC63392F0C368
:10094300947F402E94184019C9B90704CACBCC220E
:100953005025C309CA33CACB33CBCC33CC33D9F4F8
:1009630022F4600DC9CCC313CB13CBCA13CAD9F677
:10097300CC22E4FCFBFA2214FCFBFA22080808EA66
:10098300C0E0EBC0E086F0E7A4FA180986F0E7A41C
:100993002AFA180986F0E7A42AFA180986F0E7A4C8
:1009A3002AFA1986F0E7A4FBE5F02AFA190886F07B
:1009B300E7A42BFBE5F03AFA190886F0E7A42BFB32
:1009C300E5F03AFA18180986F0E7A4C5F02BFBE422
:1009D3003AFA1908E7C5F0C6A426F6E5F03BFBE4AE
:1009E3003AFA1886F0E7A4F6E5F00826F6E43B08A1
:1009F300F6E43A08F6D0E0FBD0E0FA22080808E66D
:100A030030E711121207120A17080808C64480C6F5
:100A130018181822181818E9799EC608CAC608CBF0
:100A2300C608CCC6C370207996CACBCC7019798E10
:100A3300CBCC70137986CC700EF9802ACA33CACB1B
:100A430033CBCC33CC331930E7F2CCCBCA3350148D
:100A53007004EA30E00DE4CA3ACACB3BCBCC3CCCC1
:100A6300500209C3E913C6CC182313C6CB18C6CA50
:100A730018C6F922E4CFC0E0E4CEC0E0E4CDC0E084
:100A8300E4CCC0E075F020E626F608E633F608E687
:100A930033F608E633F6181818EC33FCED33FDEEA5
:100AA30033FEEF33FFC3EC9709ED9709EE9709EF98
:100AB30097191919400FFFEC97FC09ED97FD09EE03
:100AC30097FE191906D5F0BFECF709EDF709EEF714
:100AD30009EFF7191919D0E0FCD0E0FDD0E0FED002
:100AE300E0FF222518C582C0E0E51934FFC583C0A5
:100AF300E0E518C3958224F810AF08858319858231
:100B0300188008858319858218D2AFCEF0A3E5201B
:100B1300F0A37808E608F0A3DEFAEFF0A3E581245A
:100B2300FAF8E608F0A3E608F0A3E608F0A308083D
:100B3300E608F0A3E608F0A315811581D0E0FED006
:100B4300E0F8158115811581E8C0E0EEC0E022C010
:100B5300D02518C582C0E0E51934FFC583C0E0E5A0
:100B630018C3958224F310AF0885831985821880F2
:100B730008858319858218D2AFC8F0A3E9F0A3EAE8
:100B8300F0A3EBF0A37908E709F0A3D8FAECF0A3FC
:100B9300EDF0A3EEF0A3EFF0A3D0E0F0A3D0E0F0EC
:100BA300A3D0E0F0A3E520F0A3E5F0F0A32285199C
:100BB30083851882E0C0E0A3E0F9A3E0FAA3E0FB99
:100BC300A37808E0F608A3DFFAE0FCA3E0FDA3E0C6
:100BD300FEA3E0FFA3E0C0E0A3E0C0E0A3E0F5D004
:100BE300A3E0F520A3E0A3F5F010AF0885831985F2
:100BF30082188008858319858218D2AFD082D0836A
:100C0300D0E0F8D0E0321213DFB90003020C48E45D
:100C1300900301782679168002F0A3D8FCD9FA7ADA
:100C2300267B18900086783F79028015E493A3AD64
:100C330082AE838A828B83F0A3AA82AB838D828E5A
:100C430083D8E9D9E775823A7583AA74041210B080
:100C53007582E575832874001210B0E47375F01083
:100C63008E1A8F1B85821F85831E851882851983A3
:100C7300E0CEA3E0CF851F82851E83EBC9EAC8EDD2
:100C8300CBECCAC3E833C8E933C9EA33CAEB33CB85
:100C9300C3EA9EF51DEB9FF51CB35004AB1CAA1DC4
:100CA300EC33CCED33CDD5F0DAAE1AAF1B221213F1
:100CB30057601C12136660171213FD70071213F4AA
:100CC3007001D322C0D01213F47006D0D0B322C364
:100CD3002233D0D0501430E0F6C3E7960809E796E4
:100CE3000809E7960809E796B32220E0D5E69708B6
:100CF30009E6970809E6970809E697B322C0E07466
:100D0300F2120B52A2AFE433FED2AFE589A2E04068
:100D13000CE589A2E14006E589A2E25003121451D1
:100D2300758900C2C5EEA2E092AF7F01020BB1C08C
:100D3300E0C0D0E8C0E0A8A8D2AF758B00C2E8E855
:100D4300A2E792AFD0E0F8D0D0D0E032D083D08207
:100D5300ECC0E0EDC0E0E493A3FCE493A3FDED4C11
:100D6300600D120E73EC24FFFCED34FFFD80EFE405
:100D730093A3FCE493A3FDED4C600D120F72EC24DE
:100D8300FFFCED34FFFD80EFD0E0FDD0E0FCE49309
:100D9300A3C0E0E493C0E022121357601B12136652
:100DA30060161213FD70071213F4600CB322C0D047
:100DB3001213F47005D0D022C32233D0D050133095
:100DC300E0EBC3E7960809E7960809E7960809E701
:100DD300962220E0E4E6970809E6970809E69708D3
:100DE30009E69722851983851882E0A3FEE0A3F51F
:100DF300207808E0A3F608DFFAE0A3FFE0A3C0E051
:100E0300E0A3C0E0E0A3C0E0E0A3C0E0E0A3C0E053
:100E130010AF088582188583198008858218858319
:100E230019D2AFD083D0820210B6D083D082E9C06A
:100E3300E0E493A3C386F0C5F095F0F908E493A327
:100E430086F0C5F095F0700BE493A3C3994005E9D0
:100E5300048002A3E475F002A42582F582E5F0354F
:100E630083F583D0E0F9E493A3C0E0E493C0E022E8
:100E7300C0E0C3E49396087401939618400FE4937B
:100E830066700808740193661870007019A3A3C3F1
:100E9300E49396087401939618A3A3400DD0E0D071
:100EA300E0D0E0020D8BA3A3A3A3A3A3D0E022C0B1
:100EB30082C08374FE1211B2851882851983EAF009
:100EC300A3EBF07C017D00AA18AB1979001214B1D1
:100ED300851882851983E0FAA3E0FB7402121104DA
:100EE300D083D082227404800474028000CCC0E0DA
:100EF300EDC0E0E518C39CCCAD1950011D10AF0641
:100F03008C188D1980068C188D19D2AF121032D01F
:100F1300E0FDD0E0FC2274028000CCC0E0EDC0E034
:100F2300E518C39CCCAD1950011D10AF068C188D6C
:100F33001980068C188D19D2AF121010D0E0FDD095
:100F4300E0FC22121357602512136660201213FD72
:100F530070030213F4080808E76670101819E766AF
:100F6300700A1819E76670041819E76622F422C09C
:100F7300E0C0F088F0E49366700808740193661883
:100F83007000A8F0A3A3700BD0F0D0E0D0E0D0E0C5
:100F9300020D8BA3A3D0F0D0E022D083D082CCC0AB
:100FA300E0E493A360061210911470FAE493A36033
:100FB3000612119C1470FAD0E0FCE493A3C0E0E4A1
:100FC30093C0E022C008C3E096F50808A3E0964268
:100FD3000808A3E096420808A3E0964208A2D26557
:100FE300D033E5087001D3D00822C0E074F2120BAD
:100FF30052A2AFE433FED2AFC2C0E5D1A2E45003A4
:10100300121499EEA2E092AF7F01020BB1CAC0E0C5
:10101300E493A3C582CCC582C583CDC583F0A3C5A4
:1010230082CCC582C583CDC583DAE5D0E0CA22CAA6
:10103300C0E0E0A3C582CCC582C583CDC583F0A340
:10104300C582CCC582C583CDC583DAE6D0E0CA228A
:101053007009080808226016181818C6C333C60892
:10106300C633C608C633C608C633C6D5E0EA22C0AF
:1010730008C3E096F50808A3E096420808A3E096A3
:10108300420808A3E09645087001D3D00822C0E0C7
:10109300E493A3D39C5010E493A3C39C400AD0E0F1
:1010A300D0E0D0E0020FBAA3A3A3D0E022C09FF503
:1010B3009FE473D09F22D083D082C09FE493C0E08B
:1010C300740193C0E0740293F59F222518F58210F2
:1010D300AF08F518400C15198008F51840021519CA
:1010E300D2AF851983227404800A740380067402C4
:1010F30080027401C0E0F4041210CED0E01213A2F7
:101103002200C0D0251810AF08F518500C0519801F
:1011130008F51850020519D2AFD0D022BB0102E75F
:1011230022C082C08389828A83BB0003E08002E4F9
:1011330093D083D08222C0E0C0D0E8C0E0A8A8D278
:10114300AFC2C7E8A2E792AFD0E0F8D0D0D0E03288
:101153006016080808C6C313C618C613C618C613F4
:10116300C618C613C6D5E0EA222518F8E43519F9DE
:10117300222518FAE43519FB222518FCE43519FD5C
:1011830022C3E0C696F608A3E0C696F608A3E0C617
:1011930096F608A3E0C696F622C0E0E493A36C702B
:1011A30009D0E0D0E0D0E0020FBAA3A3D0E022251B
:1011B3001810AF08F518400C15198008F5184002EF
:1011C3001519D2AF22C3E09608A3E09608A3E096D0
:1011D30008A3E096A2D265D03322E066701008A37C
:1011E300E066700A08A3E066700408A3E06622E7DD
:1011F3006670100809E766700A0809E76670040854
:1012030009E76622181818E4C396F608E496F60868
:10121300E496F608E496F622C3E4939608740193E1
:10122300960874029396087403939622C3E096F08B
:1012330008A3E096F008A3E096F008A3E096F02256
:10124300C3E697F60809E697F60809E697F608094C
:10125300E697F622191919E70947097009E72709DB
:101263007005E733F4220922181818E608460870B7
:1012730009E626087005E633F4220822E026F00882
:10128300A3E036F008A3E036F008A3E036F022E04E
:1012930026F608A3E036F608A3E036F608A3E03600
:1012A300F622E627F60809E637F60809E637F608D0
:1012B30009E637F622700422600D18C6C333C60848
:1012C300C633C6D5E0F41822E657F60809E657F602
:1012D3000809E657F60809E657F622E056F608A38A
:1012E300E056F608A3E056F608A3E056F622E647D2
:1012F300F60809E647F60809E647F60809E647F659
:1013030022E056F008A3E056F008A3E056F008A345
:10131300E056F022C6F4C608C6F4C608C6F4C608EA
:10132300C6F4C622C3E09608A3E09608A3E0960895
:10133300A3E09622C3E7960809E7960809E796080B
:1013430009E7962275D00075813F75180175190359
:1013530000020C09E6084608C3134608336002E698
:1013630033F422E7094709C3134709336002E7331C
:10137300F422600C08C6C313C618C613C6D5E0F41E
:1013830022E6F008A3E6F008A3E6F008A3E6F022BD
:10139300E0F608A3E0F608A3E0F608A3E0F622CA05
:1013A300C0E0E6F0A308DAFAD0E0FA22E0FAA3E01C
:1013B300FBA3E0FCA3E0FD22EAF0A3EBF0A3ECF037
:1013C300A3EDF022E0F8A3E0F9A3E0FAA3E0FB2207
:1013D300E8F0A3E9F0A3EAF0A3EBF022E5C754F8A1
:1013E3004401F5C77901222518F582E43519F583FF
:1013F30022E72719471947194722E62618461846B0
:10140300184622C2AF75D69F020000221210B959A6
:10141300BA041210B969BA041210B981BA041210CD
:10142300B9F8BA041210B9D9FE011210B95CFF0160
:101433001210B9C2FF011210B915A8041210B9494C
:10144300A8041210B9B2A8041210B996A904121074
:10145300B9F0A9041210B97291041210B980910461
:101463001210B9F991041210B9F392041210B9C908
:1014730094041210B94EBE041210B9008004121065
:10148300B96C80041210B92481041210B9108204BB
:101493001210B98083041210B9E783041210B93B08
:1014A30084041210B94484041210B9548404121031
:1014B300B9C784041210B9DD84041210B9E7840497
:1014C3001210B902BB041210B953BB041210B99B1A
:1014D300BB041210B9DFAD041210B9EFAD04121042
:1014E300B9ABAE041210B9BAAE041210B9D1D2021C
:1014F3001210B931D3021210B9EBD3021210B995FD
:10150300D5021210B935D6021210B97BD6021210C9
:10151300B9E6D6021210B954D7021210B995D70200
:101523001210B902D8021210B940D9021210B955DB
:10153300D9021210B97BD9021210B9E8D9021210DC
:10154300B959DA021210B9D9DA021210B94ADB0218
:101553001210B974DB021210B93CDD021210B97417
:10156300DE021210B997DF021210B929E00212103D
:10157300B999E0021210B9FFE1021210B9BDE302FA
:101583001210B977E5021210B970E6021210B91DF4
:10159300EA021210B93BEC021210B92EAC0412107D
:1015A300B99CAC041210B9BEAD041210B9C1AD049C
:1015B3001210B9C7AD041210B90CA1041210B94B23
:1015C300A1041210B988A2041210B98F8D0412104D
:1015D300B93C8E041210B9368F041210B9FE8F0471
:1015E3001210B90E91041210B9CEB0041210B971D1
:1015F300F6031210B99DF6031210B90EF903121077
:10160300B94EF9031210B98EF9031210B9A2F903F6
:101613001210B9BBF9031210B9ACFA031210B95185
:10162300FB031210B965FB031210B944B204121084
:10163300B968B2041210B981B2041210B9B3B2047A
:101643001210B9E3B2041210B910B3041210B97234
:10165300B3041210B981B3041210B98BB30412107E
:10166300B998B3041210B9679E041210B9879E0487
:101673001210B9C69E041210B9E19E041210B900EB
:101683009F041210B9669F041210B96F9F041210C1
:10169300B9CC9F041210B9DB9F041210B9FF9F0449
:1016A3001210B9C0A0041210B9CDA0041210B9DEF3
:1016B300A0041210B98ABD041210B9A2BD041210FD
:1016C300B9CEBD041210B93C85041210B996860434
:1016D3001210B9A486041210B9B786041210B9CC3B
:1016E30086041210B9E186041210B9F486041210AC
:1016F300B96887041210B9CD87041210B96F880432
:101703001210B93389041210B94389041210B95263
:1017130089041210B94EBC041210B972BC04121021
:10172300B99ABC041210B9C2BC041210B98EA30436
:101733001210B9B5A3041210B9D3A3041210B946F9
:10174300A4041210B9949B041210B9AD9B04121097
:10175300B9B99B041210B9CD9B041210B9EB9B04C9
:101763001210B9F59B041210B9FF9B041210B912A1
:101773009C041210B9989C041210B90D9D04121008
:10178300B93C9D041210B98A9D041210B9D99D0465
:101793001210B9F49D041210B9FE9D041210B90F72
:1017A3009E041210B9529E041210B9EFBC04121019
:1017B300B910ED031210B93AED031210B957ED0346
:1017C3001210B96AED031210B980ED031210B9DEDD
:1017D300ED031210B916EE031210B90AF203121038
:1017E300B94FF3031210B982F3031210B9E5F303EF
:1017F3001210B945F5031210B96DF5031210B98231
:10180300F5031210B992F5031210B9D6F5031210AD
:10181300B931F6031210B941F6031210B976B704C1
:101823001210B990B7041210B9B8B7041210B9D195
:10183300B7041210B9F5B7041210B913B804121093
:10184300B92AB8041210B958B8041210B973B804FD
:101853001210B9D1BD041210B92E95041210B93E5D
:1018630095041210B94396041210B9759604121018
:10187300B9A596041210B9C896041210B9DF9604DC
:101883001210B91997041210B97E97041210B9C037
:1018930097041210B9FF97041210B930980412106C
:1018A300B95B98041210B9A5BB041210B9B7BB04F5
:1018B3001210B9F5BB041210B903BC041210B938E5
:1018C300B6041210B9BDB6041210B955B7041210FC
:1018D300B9A2B3041210B9B4B3041210B9C8B40452
:1018E3001210B9CBB4041210B9A6B9041210B9DCA2
:1018F300B9041210B9F6B9041210B938BA041210A7
:10190300B94FBA041210B9DEF7011210B9E8F701A2
:101913001210B922F8011210B98BF8011210B9A8EC
:10192300F8011210B94AF9011210B953F901121052
:10193300B998F9011210B9C1F9011210B9CEF90120
:101943001210B93FFA011210B9CAFA011210B918EC
:10195300FB011210B956FB011210B9BBFB011210A7
:10196300B9DEFB011210B955FC011210B9ACFC0130
:101973001210B9E7FC011210B91CFD011210B92EA7
:10198300FD011210B940FD011210B95FFD011210E3
:10199300B968FD011210B923FE011210B96FFE01DF
:1019A3001210B9ADFE011210B9F8B4041210B93A0D
:1019B300BD041210B9DFA5041210B915A604121044
:1019C300B95DA6041210B9B6A7041210B9AE6B0024
:1019D3001210B9D26C001210B90C6D001210B9B606
:1019E3006E001210B9E06E001210B955710012109A
:1019F300B99571001210B92B73001210B9C8730096
:101A03001210B91A74001210B9BD74001210B9F58E
:101A130074001210B93775001210B9A676001210AF
:101A2300B9F477001210B9257A001210B9537A006D
:101A33001210B97A7A001210B9837A001210B9D34E
:101A43007A001210B9657B001210B9947E0012104F
:101A5300B9177F001210B9E37F001210B98B890404
:101A63001210B9A189041210B9458A041210B9845D
:101A73008A041210B9A18A041210B9D28A0412106E
:101A8300B91F8B041210B9528B041210B98D8B0439
:101A93001210B9828D041210B9A6B8041210B90538
:101AA300B9041210B943B9041210B984B90412105D
:101AB300B90080031210B92F80031210B9A7800355
:101AC3001210B9AA81031210B90682031210B98742
:101AD30083031210B9A383031210B9F58303121001
:101AE300B92D84031210B94084031210B9928403F0
:101AF3001210B91E85031210B98B85031210B9B5E4
:101B030085031210B9ED85031210B9D187031210A2
:101B1300B9AA88031210B9F389031210B91F8A03F3
:101B23001210B9F28A031210B97A8B031210B9BBDF
:101B33008B031210B9D58B031210B91C8C0312102E
:101B4300B93C8C031210B9D68C031210B9658D03FE
:101B53001210B9BF8D031210B9038E031210B97F8F
:101B630090031210B9A191031210B9DD9103121061
:101B7300B9CF92031210B9F792031210B9FA920374
:101B83001210B90493031210B91793031210B9A0DA
:101B930093031210B9D693031210B90294031210CF
:101BA300B92994031210B94D94031210B9E49403A4
:101BB3001210B9F294031210B90895031210B94028
:101BC30095031210B9647F001210B9707F001210D0
:101BD300B9AE7F001210B9F97F001210B956950300
:101BE3001210B97995031210B9BF96031210B908F0
:101BF30097031210B96297031210B9C89703121012
:101C0300B9CB97031210B91798031210B99198031F
:101C13001210B91799031210B91A99031210B9A621
:101C230099031210B9E999031210B9109E03121007
:101C3300B9AD9F031210B9F49F031210B969A3033E
:101C43001210B98EA4031210B91CA6031210B9AA5C
:101C5300A6031210B9ABA7031210B910AA031210EE
:101C6300B9B0AA031210B91AAB031210B933AB03FC
:101C73001210B9EEAB031210B955AC031210B9CB65
:101C8300AD031210B9F9AE031210B972AF031210FB
:101C9300B975B1031210B91DB2031210B9ACB20376
:101CA3001210B97FB3031210B95AB5031210B9FB5E
:101CB300B6031210B9A3B7031210B9B5B8031210C3
:101CC300B970DD011210B9E4DD011210B92CDE0187
:101CD3001210B96ADE011210B9B3DE011210B9FD98
:101CE300DE011210B935DF011210B9B3DF01121092
:101CF300B90DE0011210B969E1011210B9FAE1015D
:101D03001210B958E2011210B972E2011210B9931C
:101D1300E2011210B9EBE2011210B95CE5011210F5
:101D2300B97BE5011210B95AE6011210B972E70145
:101D33001210B9EFE7011210B95CE8011210B9C52E
:101D4300E8011210B97FE9011210B93DEB0112103D
:101D5300B93EEC011210B9C3ED011210B9A4EF01A1
:101D63001210B907F2011210B9ADF3011210B97BC9
:101D7300F4011210B9E1F4011210B9F8F4011210D0
:101D8300B9E8F5011210B9D4F6011210B9AFD103B5
:101D93001210B9B398041210B9FF99041210B9BC08
:101DA3009A041210B9209B041210B99FFC0212105E
:101DB300B9BAFC021210B9FEFC021210B924FD02DA
:101DC3001210B94AFD021210B962FD021210B9C510
:101DD300FD021210B9DAFD021210B9FCFE02121054
:101DE300B905FF021210B90EFF021210B917FF0254
:101DF3001210B979FB031210B967FF031210B96C03
:101E0300FF031210B96EFF031210B9BBAA0412101C
:101E1300B9B2BE041210B90ABF031210B986BE04C8
:101E23001210B9A2FF021210B9B2FF021210B9DBED
:101E3300FF011210B915BE041210B925BE04121009
:101E4300B927AD021210B95AAD021210B9C1AD02D1
:101E53001210B94DAE021210B9F2AE021210B93A15
:101E6300AF021210B95FAF021210B978AF021210AD
:101E7300B99EAF021210B9C0AF021210B9FEAF0281
:101E83001210B94DB0021210B976B0021210B9D5C2
:101E9300B0021210B9AEB1021210B964B20212103C
:101EA300B9C2B2021210B989B3021210B9E0B30277
:101EB3001210B94BB4021210B989B4021210B9DF6F
:101EC300B4021210B957B5021210B9AEB50212100E
:101ED300B9B1B5021210B932B6021210B9D1B602B5
:101EE3001210B94DB7021210B96FB7021210B9D25E
:101EF300B8021210B9DFB8021210B9E3B902121016
:101F0300B9F0B9021210B9F9B9021210B9F4BB024F
:101F13001210B90EBD021210B982BD021210B9EF30
:101F2300BD021210B917BE021210B9A9BE021210D7
:101F3300B98CC0021210B963C4021210B977C4027B
:101F43001210B987C4021210B991C4021210B99ABF
:101F5300C4021210B9A3C4021210B9ADC402121004
:101F6300B9DCC4021210B90FC5021210B91AC502A6
:101F73001210B93EC5021210B962C5021210B9BFE0
:101F8300C5021210B905C6021210B921C6021210F9
:101F9300B994C6021210B9CBC6021210B90AC7020D
:101FA3001210B957C7021210B9DDC7021210B9B91E
:101FB300C9021210B943CA021210B928CB02121077
:101FC300B99DCD021210B9F0CD021210B918CE028C
:101FD3001210B942CF021210B96FCF021210B9C159
:101FE300CF021210B976D0021210B926D102121004
:101FF300B95BD1021210B9F1D1021210B975D20234
:102003001210B94B83011210B97D83011210B9ADBF
:1020130083011210B98185011210B9628601121071
:10202300B9BA86011210B9FD87011210B9498801A6
:102033001210B97D8B011210B9938E011210B9DD04
:102043008F011210B97390011210B97F9001121011
:10205300B9BF90011210B94992011210B93D930111
:102063001210B96793011210B9CE93011210B92758
:1020730094011210B99E94011210B9E59601121041
:10208300B97C98011210B95099011210B98F9A01B5
:102093001210B9D49C011210B9A59F011210B9B442
:1020A3009F011210B938A0011210B9DFA00112105C
:1020B300B922A1011210B988A1011210B9A4A1017A
:1020C3001210B9D6A1011210B915A2011210B9FA52
:1020D300A2011210B9A9A3011210B92DA601121061
:1020E300B96FA7011210B94EA8011210B9CEA801F9
:1020F3001210B9F0AC011210B92EAD011210B9894A
:10210300AD011210B9BCAD011210B938AE011210F5
:10211300B954AE011210B9EFAE011210B93DAF01BF
:102123001210B910B0011210B9D5B0011210B97361
:10213300B1011210B97CB4011210B990B50112109B
:10214300B92DB9011210B935BA011210B938BA0153
:102153001210B967BA011210B966BC011210B93F67
:10216300BD011210B986BD011210B9D3BE01121000
:10217300B90DBF011210B9BABF011210B9EEBF01F8
:102183001210B9A0C0011210B9AFC2011210B91ACE
:10219300C3011210B962C3011210B9FFC3011210B7
:1021A300B92EC5011210B9F5C5011210B9EBC7015B
:1021B3001210B9FFC7011210B913C8011210B9499F
:1021C300C8011210B979C8011210B907CA01121057
:1021D300B9E8CA011210B958CB011210B908CC01E1
:1021E3001210B938CC011210B902CD011210B9BFC7
:1021F300CD011210B9C8CF011210B907D0011210C6
:10220300B974D0011210B9B9D1011210B96CD2014D
:102213001210B9A0D2011210B9B8D2011210B95BD1
:10222300D3011210B949D6011210B914D8011210F2
:10223300B938D8011210B956D8011210B92AD901E8
:102243001210B952DD011210B9F82D001210B92A7B
:102253002E001210B92932001210B9753200121073
:10226300B9BB32001210B96333001210B9CD330079
:102273001210B91534001210B97335001210B97861
:1022830036001210B96A3A001210B9FB3A00121064
:10229300B9233C001210B9803C001210B94F3E0024
:1022A3001210B9C63E001210B9D03E001210B9DDAB
:1022B3003E001210B9083F001210B9EF3F00121090
:1022C300B9A840001210B92B41001210B9444100C3
:1022D3001210B96D41001210B99A41001210B9F4ED
:1022E30043001210B9B844001210B9FD4400121093
:1022F300B97445001210B92246001210B9544600B1
:102303001210B99A46001210B9D646001210B92716
:1023130047001210B97B47001210B906480012108B
:10232300B95148001210B9B648001210B92F49002C
:102333001210B9EE4A001210B9FD4B001210B91C6D
:102343004D001210B97850001210B9A753001210A3
:10235300B96054001210B9A854001210B9475600BE
:102363001210B95B56001210B96556001210B96FFE
:1023730056001210B97B56001210B99A560012106B
:10238300B95057001210B9A957001210B9B357002A
:102393001210B9BD57001210B92D58001210B9749C
:1023A30058001210B97959001210B9C85900121007
:1023B300B96B5A001210B9445B001210B9645C0087
:1023C3001210B9A65D001210B9A05E001210B9B8C0
:1023D3005E001210B9EC5E001210B90A5F00121011
:1023E300B9695F001210B9905F001210B92B600039
:1023F3001210B9EA60001210B95A61001210B9D272
:1024030061001210B9DC62001210B9A96300121046
:10241300B9A364001210B9E864001210B94365004F
:102423001210B9AA65001210B9D865001210B9FCD0
:1024330065001210B93166001210B95E6600121001
:10244300B9A466001210B9C866001210B93167004A
:102453001210B91968001210B96468001210B98D0E
:1024630068001210B92569001210B9A8690012108A
:10247300B9D469001210B9C96A001210B908D70398
:102483001210B940D7031210B961D7031210B9A5BE
:10249300D7031210B909D8031210B913D8031210B5
:1024A300B923D8031210B95AD8031210B952DC0356
:1024B3001210B960DE031210B94DE0031210B9E433
:1024C300E0031210B986E1031210B90F8102121052
:1024D300B97F81021210B9DF81021210B92A820278
:1024E3001210B94582021210B96C82021210B98916
:1024F30082021210B99582021210B940840212109E
:10250300B95984021210B9E284021210B9F5840297
:102513001210B91485021210B9AF85021210B91F37
:1025230087021210B9C688021210B9558902121017
:10253300B95889021210B9C889021210B9E6890282
:102543001210B98B8A021210B9C78A021210B9CAC3
:102553008A021210B9908B021210B9F38B02121077
:10256300B92C8C021210B9A18C021210B9BF8C02C3
:102573001210B90D8D021210B9E28D021210B9308A
:102583008E021210B9788E021210B9058F02121042
:10259300B93A8F021210B96F8F021210B97D8F02F0
:1025A3001210B9DC8F021210B95490021210B995AF
:1025B30090021210B9E590021210B9109102121094
:1025C300B92A91021210B94491021210B91F920252
:1025D3001210B92992021210B96492021210B9743E
:1025E30092021210B97D92021210B9D59202121002
:1025F300B9E992021210B91F94021210B93494026D
:102603001210B9C294021210B92A95021210B9DD40
:1026130095021210B9E895021210B93597021210FB
:10262300B95197021210B99D97021210B90C980272
:102633001210B94598021210B95F98021210B9A18D
:1026430098021210B9639B021210B9199C0212105E
:10265300B9A99C021210B9F19E021210B9099F0286
:102663001210B90C9F021210B9189F021210B92C44
:102673009F021210B9349F021210B9679F02121001
:10268300B95AA0021210B9E5A0021210B978A1023A
:102693001210B9F1A1021210B9B5A2021210B9D7E2
:1026A300A2021210B970A3021210B9CDA302121024
:1026B300B9D0A3021210B94AA4021210B996A50206
:1026C3001210B9A1A6021210B92CA7021210B93127
:1026D300A8021210B9F1A8021210B922A90212100D
:1026E300B948A9021210B951A9021210B97FA9025F
:1026F3001210B917AA021210B9CCAA021210B93DCE
:10270300AB021210B9E4AB021210B96BAC02121097
:10271300B9AAAC021210B9EDAC021210B91FD10361
:102723001210B9F9D0031210B9AED0031210B97850
:10273300D0031210B9FBCF031210B996CF031210B6
:10274300B945CF031210B96DCE031210B9DDCD0315
:102753001210B991CD031210B90CCD031210B9FCAC
:102763007F001210B9E6FF031210B9C7CC03121091
:10277300B9ABCC031210B9D5FF031210B921B004C1
:102783001210B9B9CA031210B98BCA031210B9587F
:10279300CA031210B9DCC9031210B982FC02121069
:1027A300B911FC021210B963FA021210B90CFA0241
:1027B3001210B94CF9021210B959F7021210B929C3
:1027C300F7021210B9DAF6021210B96CF6021210FF
:1027D300B92BF6021210B962F5021210B9FDF40218
:1027E3001210B9A8F4021210B94EF4021210B92053
:1027F300F3021210B9BDF2021210B939F20212102B
:10280300B934F2021210B98EAF041210B95CAF04DE
:102813001210B957AF041210B92FD6031210B955BD
:10282300D5031210B98BD4031210B9FAD2031210C4
:10283300B928F2021210B96CEF021210B93AEF0282
:102843001210B9C3D2031210B9FAEE021210B9E290
:10285300EE021210B9D7EE021210B9B3EE02121043
:10286300B992D2031210B9DEEC021210B9FEB90309
:102873001210B99AEC021210B986EC021210B9C503
:10288300EC031210B96CEC031210B937EC031210FD
:10289300B902EC031210B9CEEB031210B960EB03CB
:1028A3001210B948EB031210B923EB031210B9EC61
:1028B300E7031210B9BFE5031210B9C6E303121000
:1028C300B952E3031210B946D2031210B903E3035A
:1028D3001210B9BDE2031210B95FE2031210B9413D
:1028E300F70100000080FB8F000100F7188700014B
:1028F30000F51835000400BF1825000200C3182690
:10290300000200C51827000200C71828000100D1E3
:102913001829000100D21884000400121686000151
:102923000034182A000100D3182B000100D4182CFE
:10293300000100D8182D0008001E162E000100D932
:10294300182F000100DA1830000100DB18310001F4
:1029530000DC18320001002616330001002716346C
:10296300000100DD1836000100281638000100DEE2
:102973001839000100D71883000200F3186300011F
:1029830000341664000100D51865000100D6186DE7
:10299300000100351671000800161666000100F2EA
:1029A3001843000100E31844000200E41845000145
:1029B30000E61846000200E718470008002C1648F6
:1029C300000100E9184B000100EA1804000100F6B9
:1029D30018A1000100FA1837000100F91888000156
:1029E30000F8183C00010029163D000100DF1849DA
:1029F300000200EB186700010036164D000200EDDF
:102A0300184E000100EF184F000200F0183E0001BD
:102A130000E218510001002A1652000100E0185389
:102A2300000100E118540001002B16000000000013
:102A3300000001363601010001020100010301001B
:102A43000104010606050200000701003408010025
:102A53000F090401010D0100FF0E08000017020019
:102A630000190100FF1A0100011B0100FE1C0100F7
:102A7300081D0200001F01000120010001210200C6
:102A8300002301000F24020000260100012701009A
:102A930008280200FF2A0100072B0102402C010035
:102AA300002D0100012E0100012F0100FF30010B59
:102AB3001D310800003A0100083B01000F3C0100F2
:102AC300013D0100FF3E04000042040000460400F3
:102AD300004A0400004E04000052040000560400A3
:102AE300005A040000010371030103010301030100
:102AF3000301032203020301031003000300030085
:102B0300030003000300030003420300032403063E
:102B130003000300030403120325032303250323F4
:102B2300030403040300030003000344030003003E
:102B33000323030003650321003503810300030519
:102B430003000300030003000325032303010171B2
:102B530001010101011101010131010101010180A3
:102B630001100161013B00140063017301720162F2
:102B73000143010001130106013D01350004011267
:102B830001000100010001000104010401330133CC
:102B9300013C0144013201360000010001650100DE
:102BA3000135008101000105018201830100010358
:102BB300027102300160021102700201020202027C
:102BC300028002100261023A004100630273027242
:102BD30002620243020002130238000002000204F0
:102BE3000212020002000200020002040204023781
:102BF3000037003C02440200023900000200026573
:102C030002000235028102000205028202830200F1
:102C130002030071003001600011007000310220D6
:102C2300035004800010006100000014006300736F
:102C33000072006200430000001300060000000061
:102C43000004001200000000000000000004000463
:102C530000370037003C0244000000000000000081
:102C630000650000003500810000000500000083BE
:102C730000000036000100060000000F0000000005
:102C830000000000000000000003FFFF0000040339
:102C9300FFFF0000FFFF0FF4010005C40403200041
:102CA3000100000B000000000000000003010F0002
:102CB3000000000000000000000000000000000011
:102CC3000000000000000000000000000000000001
:102CD300000000791C0100791C0200011C0280FB2A
:102CE3001B0300071C04000D1C0480131C050019A2
:102CF3001C0600251C3100371C33003D1C340043E7
:102D03001CFFFF000007ECFDFDFDECDCDCCCBCACE4
:102D1300AC9C9C8C7C7C6C6C5C5C5C4C4C3C3C2C20
:102D23002C1C1C03EAF5E5D5D5C5B5A59595858578
:102D33007575656555554545353525251515050ABB
:102D4300C122028B220597220791220C73220D7F49
:102D530022FF000000160F00000B150B02000222D9
:102D63000F3300000E0F5A6967426565416C6C6949
:102D7300616E63653039D0D1D2D3D4D5D6D7D8D903
:102D8300DADBDCDDDEDF303016181920231A1C1ED7
:102D930030303017181921301B1D1F300001191650
:102DA3001816161823030000034D4C4651181A2514
:102DB3000502003C40423A3F3F392F47300C0E0298
:102DC3000B040B0A0708000F0204020101010109A9
:102DD30002E803000000BE040AE803030001000E3A
:102DE300000409030404101E0A0C041E0828020C24
:102DF30005081503FF74F7120AE6E990170BF09024
:102E030016C0E4F01218D1901723E4F0A3F0901742
:102E13000CF0A3F01224111218D7901644E4F0A377
:102E2300F0121DDB0247D674F0120AE674D31211B6
:102E3300B285188285198312640A548060689017DA
:102E43000BE0F91219438A088B09AE08AF09EE4F5C
:102E5300604C7C0080010CEC75F003A4F8A9F074BD
:102E63004228F582742D39F583E493F46029E493C1
:102E7300F88E828F83E06870DDEC75F003A4F8743C
:102E83004328F582742D39F583E493C0E0740193EC
:102E9300F583D082120C5EEEFAEFFB121931126940
:102EA3009D648002320F851882851983A3E0542024
:102EB30060211223278A088B09AE08AF09EE4F6001
:102EC3000A12227FEEFAEFFB12193112699D642078
:102ED30002320F851882851983E0A2E050259016EF
:102EE300C5E0640F70117900122255E9600990184A
:102EF300BF1213AF12226D851882851983E0640116
:102F03000231EE542070030231F37A207B009017D4
:102F13000BE0F9121A87EA4B4C4D701A90171F12E7
:102F230013C7E8494A4B700E750801750900750A05
:102F330000750B00806A750C00750D00750E007529
:102F43000F00121A938A088B098C0A8D0B90171F96
:102F53001213C7E8494A4B603190171F78081210C3
:102F630072400E750CFF750DFF750EFF750F7F8098
:102F73001985080C85090D8C0E8D0F90171F780C81
:102F83001211847401780C121153850C08850D09F4
:102F9300850E0A850F0BE50812340E700302312EDD
:102FA3007C0079047A007B001222FD8A0C8B0DAE23
:102FB3000CAF0D02306F74021213EA74FFF0740346
:102FC3001213EA74FFF074041213EA74FF12672AEF
:102FD300740712117C125E87125F5F122345E96446
:102FE30001706B1250004480F8A3E0F974281213A7
:102FF300EAE8F0A3E9126659E0C0E0742A1213EA82
:10300300D0E01249125408601674281213EAA3E0A0
:103013004401123222C0E0742C1213EAD0E0F01201
:1030230062B860121247B5126370E0F87416121397
:10303300EAE8F0A3E4F09082F5120EE874061211A8
:103043007C740B121174121F3174041211048E82DA
:103053008F83A3A3A3A3A3A3A3A3A37406123222C0
:10306300F91222DF74051213EA126384EE4F700320
:1030730002312E7C007904EEFAEFFB1222FD740577
:103083001213EAEAF0A3EB12562EE0F50CA3E0F5D7
:103093000DE4F50EF50F7808790C1213374023EE83
:1030A3002404F8E43FF985080C85090D8882898397
:1030B300C3E0950CF0A3E0950D126AA6E84970A44D
:1030C300800C8E828F83A3A3A3A3E4F0A3F08E824C
:1030D3008F83A3A3A3A3A3A3A3A3A3A3E064018EAA
:1030E300828F83A3A3A3A3A3A37023E05404600349
:1030F300022FB98E828F83A3A3A3A3A3A3A3A3A306
:103103007406F07AB7123351122267023067A3A311
:10311300A3A3E06003022FB98E828F83A3A3A3A38B
:10312300A3A3A3A3A37401F00230671222CD7C00F2
:1031330079017A007B001222FD8B0DEA450D600CAC
:103143007A207B0090170BE0F912196D7C0079044B
:103153007A007B001222FDEA4B7013804D8A828B2A
:1031630083A3A3A3A3126458EE98EF99400B8A821A
:103173008B83A3A3A3A31263847C0079041222FD8F
:103183008B0BA90BEA4970D5C3E5089EE5099F504F
:103193000DC3EE9508FEEF9509FFEE4F70167A20EA
:1031A3007B0090170BE0F912196D90171F12321B59
:1031B300A3F0802EEE2EFEEF33FF8E088F09E4F589
:1031C3000AF50B78081210E97A207B0090170BE0C0
:1031D300F9121A757404121104121A9390171F121C
:1031E30013BB851882851983E06420FAA3E0801C51
:1031F300A3E054046019125B271228497901901641
:10320300BE125F5F121F4312699D6404FB80047A40
:10321300007B00742D02628DE4F0A3F0A3F0221270
:103223004917A3A3E022C082C08374EA1211B27CBF
:10323300167D007900AA18AB191219197408121314
:10324300EA7402F09016B4125D871232697409129F
:1032530013EA125DA074131213EAE4125A65121DE5
:10326300CF7416024BDBE8F0A3E9F09016BE1262AE
:10327300D62274F7120AE674DA1211B2EAFEEBFFF1
:10328300EE4F602DAC18AD1912234574061213EAE4
:10329300E0601E74171213EAE0FD74011213EAE0F2
:1032A300FCEEFAEFFB790012222BE9600479A4808B
:1032B30002790074260247D374F7120AE6EAFEEB9A
:1032C300FF8E828F83A3A3A3A3A3A3E0544060171D
:1032D30012629A125F5F1223DBE960067AFF7BFFBB
:1032E300801512629A80039016B4125F5F74FE6AAF
:1032F300700374FF6B604712629A12640A1223DB35
:10330300E98E828F83600E126A35124BE838F5839B
:10331300E4F0A38003126A5AF07C5B7D228E828FD5
:1033230083125F5F121DD5E9F5087015EE4F600932
:103333007901EEFAEFFB1222D9A9080247D67508E4
:10334300CDAA08123351122267E960E080EB8E8226
:103353008F83126A39240CF582E438F583E0F9226D
:1033630074F6120AE6E9FEEAFF7A0F7B0012192BC4
:10337300EA4B601F8A828B83740CF0EEA3A3F0EFF9
:103383008A828B8312456B90170BE0F912193779F8
:10339300008034EEF91223038A088B09A808A909CF
:1033A300E849602188828983A3A3A3A3A3A3A3A33A
:1033B300A3740612646BA3A3A3A3A3E0F9121FD300
:1033C300EEF91222DF791002582874F4120AE68A01
:1033D300088B098C0A8D0B9016C5E0640F702812B8
:1033E300340D60239016C0E064086005E064047047
:1033F3001678081210E97A017B0090170BE0F91296
:103403001A757404121104023673EA4509450A4514
:103413000B2274F4120AE674FC1211B2EAFEEBFFFB
:103423008E828F83A3A3E0F91223038A088B09EA10
:10343300450970030235548E828F83A3A882A98322
:10344300E0C0E0EA125A17D0E01243D664F16028D4
:103453008E828F83A3E064CD601E8E828F83A3E070
:10346300641A60148E828F83A3E064E9600A8E82FB
:103473008F83A3E064E1703079001222D9E96028D8
:10348300E5082404F50AE43509F50B850882850966
:10349300831235651243BC125F5F1218E3850A82FB
:1034A300850B8312640A80788E828F83A3E0C0E049
:1034B30074021213EAD0E0124BEE126A94EE240B5C
:1034C300124ADAC0E074031213EAD0E0F0E50812FE
:1034D300671C123ADFE0AA18AB197005121F2B8084
:1034E300031223C374021213EAE064E970328508FD
:1034F30082850983123C78750A01780A1210F575E2
:103503000AE9780A1210F51243A01247E3A3A3A312
:10351300A3A31247DB125F5F12237B740212110411
:10352300850882850983A3A3A3A3A3A3A3A3A3E0DD
:1035330064027012850882850983A3A3A3A3A3A3AE
:10354300A3A3A37406F08E828F83A3A3E0F91222B0
:10355300DF1222CD9018C5123A4312226D74040271
:103563003670A3A3A3A3A3A3125E748E828F8322B8
:1035730074F4120AE6EAFEEBFF7508008E828F836D
:10358300A3A3A3A3A3E0603B750808125F5279FFCE
:103593001220AB8B0BEA450B601075082C8E828FC3
:1035A30083A3A3A3A3A3E0D2E0F08E828F83A3A37C
:1035B300A3A3A3E054036401600302366A43081122
:1035C30002366AEE2418124ADA6036EE241A124AD8
:1035D300DA6003F470121264107003A3E0696003ED
:1035E30002366A750822807FEE241B125E6AEE247F
:1035F3001A124ADAFAEE2419124ADAF9121FC180B2
:1036030066125F521223DBE964027003750801122C
:1036130064107003A3E0697006E508D2E1F508E5DC
:103623000860158E828F83A3A3E07006E508D2E5B8
:103633008004E508D2E6F508125F521223DBE96441
:10364300017006E508D2E0F5088E828F83A3A3E01C
:103653006015EE241D12531AF91223C9E96401609F
:1036630006E508C2E0F508A90880057409121104EB
:103673007F04020DE774F0120AE674D71211B2EA5E
:10368300FEEBFF8E828F83A3A3A3A3E060119018A8
:10369300C31262C160099018C3123A4312226D74B7
:1036A3000312117C8E828F83A3A3A3125C39125F52
:1036B3005D122345E9700302380E78017405121375
:1036C300EAE0C394024002780074071213EAE0C3ED
:1036D300940240027800740C1213EAE064F8700359
:1036E300A3E0F4700302380E740C1213EAE064F9D9
:1036F3007003A3E0F4700302380E740C1213EAE0B3
:1037030064FA7003A3E0F4700302380E740C12130E
:10371300EAE064FB7003A3E0F4700302380E74065E
:103723001213EAE0F99016AEE069600302380EE87E
:10373300A2E0400302380E74271213EAE06003028A
:10374300380EEE24131262CC74221213EA125C4375
:10375300241C1262CC74101213EA125DA0740912B5
:1037630013EAE0601D741A1213EAE0FD74041213E5
:10377300EAE0FC8E828F83125F5D790112222BE9CE
:10378300703D7403121174122279E9F50C74091255
:1037930013EAE0702E9016A8E060287422550C649A
:1037A3002260207442550C6442701474201213EA90
:1037B300123A4F600E74201213EA123A3C60047AF4
:1037C300CF804AE9A2E6504D74201213EA12532027
:1037D30024FD600F14600C24FD600824FD600424A4
:1037E300FE702874201213EA123A35700E742012F8
:1037F30013EA125974A3E0640D601A74031211746E
:103803001223F3E96401700D023A307AD37B00127C
:103813001BD7023A30EE242DF582E43FF583123CA8
:103823006F7003A3E069702275080078081210F521
:1038330078081210F5EE242F124ADAF9123A5512CB
:103843005F5F12237B740212110474091213EAE0FE
:1038530070030238F2123A55125F5F1224418A0E46
:103863008B0FEA450F700302398974041213EAE0DF
:10387300F88E828F83A3A3E028F8A3E03400F9E84D
:10388300124BE839F583E0F88A828B83A3A3A3E084
:1038930068600EE88A828B83A3A3A3124564123265
:1038A3001C7904E91213EA125021A3E02AF8A3E0D9
:1038B30034008882F583A3AA82AB8312191F8A0876
:1038C3008B098C0A8D0B850E82850F83A3A3A3A37B
:1038D30078081210724003023A309082ED78081291
:1038E3001292850E82850F83126A90A3124D149053
:1038F30016C0E064046008E064096003023A30E53E
:103903000CA2E540030239C3EE242F124FF1F0EE6F
:103913002430124ADAC0E074011213EAD0E0F0EE68
:103923002431124ADAC0E074021213EAD0E0F074D0
:10393300141213EAE06401702C740E1213EA12439A
:10394300CD2413124ADA687003A3E0697017740C6C
:103953001213EA125F5F1223DBE964027007741427
:103963001213EAE4F0EE2425F582E43FF583120E08
:10397300E8740412117C7407121174121F31740459
:10398300121104023A30901705E064016003023813
:10399300F274201213EA123A4F7009E50CA2E650B2
:1039A300030238F274101213EAE0F47003A3E0F494
:1039B300607BEEFCEFFD7403121174122285806D9F
:1039C300A2E6506974201213EA125E817016741A0B
:1039D3001213EAE064027055740312117479001231
:1039E30023BD804974201213EA123A3C7014741AEE
:1039F3001213EAE06404703574031211741223B1D4
:103A0300802B74201213EA123A35700C7900740378
:103A13001211741223FF801574201213EA125974C1
:103A2300E0640C7008740312117412240B742902DD
:103A3300628D1262A4E06403221262A4E06407228E
:103A4300E0F508A3E0AA08FBE4FCFD22125324647A
:103A53000622EE242BF582E43F123A63124AD32264
:103A6300F583125E74EE2274F4120AE6EAFEEBFFAB
:103A73008C088D09901626E0600F1264107003A362
:103A8300E0697005121FAF80497900125F52121F5F
:103A9300DF8A828B83E5824583602FA3A3A3A3A33D
:103AA300A3E054186024E508241C123ADC120EEC3F
:103AB300123AD8120EECEE2418124ADAF9123AE44A
:103AC300121FF1740412110480087900123AE412EF
:103AD3001FB5023673E5082413F582E43509F5832F
:103AE300228E828F83A3A3A3A3A3A3A3A3A3123A88
:103AF30065125D7E125F632274F7120AE674F71291
:103B030011B2EAFEEBFF9016C0E06403600DE064BF
:103B1300016008E064096003023C168E828F83A370
:103B2300E06003023BD97C007D007A027B0012181F
:103B3300DD123C1B8A828B831262D29016B1125D16
:103B4300A07953121DBD9016C0E064096009901658
:103B5300BE125F5F12243B8518828519837401129C
:103B63005A657942121DBD9016C07404F074011297
:103B73001174794A121DB7740112117C7AB67B163F
:103B8300121AAB90153AE0640B70057406F0800BC3
:103B930079009016BE125F5F121F439016B1125E3A
:103BA300707A037B001218DD9016B4125E707A04EB
:103BB3007B001218DD9016ABE0A2E35004D2F08034
:103BC30002C2F0125A5B7952121DBD9018BF121334
:103BD300AF12226D803AFC7D007A037B101218DD50
:103BE30090153AE0640B7003740AF090162AE4F01F
:103BF300FA7B4090170BE0F9121A818E828F83A310
:103C0300E0F99016BE125F5F121F439016C0E4F0F6
:103C13001222AF74090247D3EE2402FAE43FFB22D7
:103C2300C082C0839016441262C170179016C0E020
:103C330024FB6005146007800A90164A80209016C2
:103C43004C801BE8496008901645123E47700C8A69
:103C5300828B83A3E0F9121F37800E90173A12620A
:103C6300C16006125975120C5E0254A11262D690FD
:103C730016BEE068221262D6E8FAE9FB2274F51256
:103C83000AE674D81211B28A088B098A828B83A33D
:103C9300A3A3A3A3A3A3A3E0C3940F5003023E4291
:103CA3008A828B83A3A3A3126384741512117C8A63
:103CB300828B83A3A3A3A3A3A3A3A3E0F98A828BE9
:103CC30083125F561222BB74151213EAE0702E851D
:103CD3000882850983A3A3A3A3A3A3A3A3E0C394F7
:103CE3000B401A8E828F83A3A3A3A3A3A3A3A3E052
:103CF30064027009EE240B124ADAF46003023E42B6
:103D030074171213EAE0600764026003023E4290F4
:103D130016C0E06402601AE064066015901644124F
:103D230062C17003023E42123E476003023E42807C
:103D3300329016441262C1702A7508007808121076
:103D4300F578081210F5EE2410F582E43FF583129E
:103D53005C3AA3A3A3123565125F5F12237B74023F
:103D63001211048E828F83125D87E8F0A3E9124358
:103D7300DF1262D274021213EA125C43125001C0C2
:103D8300E074041213EAD0E0F0EE240B12645D74C5
:103D93000F780812137574051213EAE508F0741905
:103DA3001213EAE0C0E074061213EAD0E0F0741BC9
:103DB3001213EAE0C0E074071213EAD0E0F07416BD
:103DC3001213EAE0C0E074091213EAD0E0F07417AA
:103DD3001213EAE0C0E074081213EAD0E0F0EE2414
:103DE30010124ADAC0E0740A1213EAD0E0F0741A2F
:103DF3001213EAE0C0E0740B1213EAD0E0F0742768
:103E03001213EAE0C0E0740C1213EAD0E0F0741C61
:103E13001213EAA982AA8389088A09750A00780815
:103E23001210ED7C087D0074101213EAAA82AB8392
:103E330012190D7403121104AA18AB19121F3D7441
:103E430028024927E0C8125E6064012274F2120A54
:103E5300E674F81211B28A0A8B0B8C0C8D0D89084B
:103E6300908242AC18AD197408121032C200AC0A29
:103E7300AD0BAA18AB19121AA5E97002D20090175C
:103E83000C8014AC0AAD0BEE240BFAE43FFB121AC0
:103E9300A5E9701B124AC012471F601EA20040E32F
:103EA3008E828F83E0650C7004A3E0650D70E58E50
:103EB300828F83A3A3E0650870DAEEFAEFFB740840
:103EC3000243ECC082C08390170C02549EC082C090
:103ED3008390170CE4F0A302414074F7120AE690B2
:103EE300170C1269A3800FEA2414F582E41263818C
:103EF3001219C7EEFAEFFBEA4B70EC90170CE4F0E3
:103F0300A3F00247D674F2120AE68A0C8B0DECFE7C
:103F1300EDFF890B8A828B83125A22F0A3A882A910
:103F2300838A828B83123FD112455FA3E0C454F08E
:103F3300FA88828983E04A125045850C828B83A3D9
:103F4300A3123FD1123FE4E0333354FC123FD8E0D5
:103F530033333354F8123FD8A3E0A2E0E43313130E
:103F6300FA88828983E04AF0EE2403FE50010FE5CC
:103F73000C2407F508E4350DF509750A00780812D5
:103F830010ED7C087D00EEFAEFFB12190D7403129D
:103F93001104EE2408FE50010FE50C240FF508E48C
:103FA300350DF50978081210ED7C037D00EEFAEF6C
:103FB300FB12190D7403121104E50BC3940F400B8C
:103FC300E50C124BE2350D1255EDF00243EFA3E081
:103FD3008882898322FA88828983E04A123FE4A394
:103FE30022F0850C828B83A3A3A3A32274F2120A6B
:103FF300E6EAFEEBFF8C0C8D0D8E828F83E08C82C4
:104003008D83125623A882A983E0540F8C828D835B
:104013001243D5C412544412503B12544C1243D38E
:10402300A2E2E4338C828D831243D2131313541F01
:104033001254441243D2A2E7E4338C828D83A3A3A8
:10404300A3A3A3A3F0EE2403FE50010F8E088F0950
:10405300750A0078081210ED7C087D00E50C240732
:10406300FAE4350DFB12190D7403121104EE240842
:10407300FE50010F8E088F0978081210ED7C037D26
:1040830000E50C240FFAE4350DFB12190D7403122D
:1040930011048E828F83A3A3A3E0C0E0126AAED083
:1040A300E0F00243EF74F6120AE6EAFEEBFF8E82BB
:1040B3008F83A3858208858309E0F9121F5B850836
:1040C30082850983E064EB601E8E828F83A3E064A4
:1040D300E160148E828F83A3E064F1600A8E828F85
:1040E30083A3E0641A70078E828F83A3E4F0901891
:1040F300BF1213AF12226D75080178081210F58EE6
:10410300828F83A3E0F50878081210F579009016E2
:10411300BE125E709016B4125F5F12237B7402129C
:1041230011041222CD025828C082C083E990171EC1
:104133007003E4800274018004EAF0A3EBF00254FC
:10414300A174F6120AE690171EE0701B7C00790139
:104153007A007B001222FDEA4B600C8A828B831269
:1041630062C16003122261025828C082C0837904AD
:104173001222F7E9F8902DF3E493C398401079FFE6
:104183001222F7E9F8902DF2E493C39850047901D1
:10419300800279000254A174F2120AE68A0A8B0B98
:1041A3008909C2008A828B83A3A3A3A3A3A3A3A386
:1041B300E0F91223038A0C8B0DAE0CAF0D750801C9
:1041C300EE4F6003024283850A82850B83A3A3A378
:1041D300A3A3A3125E70850A82850B83A3A3A3A363
:1041E300A3A3A31243BC125F5F1222EB8A0C8B0DB5
:1041F300AE0CAF0DEE4F70030243998E828F83A3F3
:10420300A3A3A3E4F0A3F0E50A240CFAE4350BFB23
:104213008A828B83E0C0E01243A0D0E0F0E50A2459
:104223000D1243C6240D125D9A1223E1EE240F12E0
:104233006404E50A24111243C62411125D9AE50AA7
:10424300241312644FC0E0124ACED0E0F0D200EE45
:104253002406124FE81243B31243D65404600302F8
:1042630042F19018D1E0F50A750B007407780A1231
:1042730012B88E828F83A3A3A3A3A3A31243AAF08E
:104283008E828F83A3A3A3A3A3A3E0F50AA3E0F5E0
:104293000B7407780A121375E50A5407FCE50960E5
:1042A3005C8E828F83A3A3A3A3A3A3A3A3A374025C
:1042B300125628124693600B9016AC12506EA3A3AD
:1042C300125DA0EC7003024364EE2406126A171217
:1042D30043B3F0EC24FFF50AE434FFF50B740778DD
:1042E3000A1212B88A828B831243AAF080738E82D9
:1042F3008F83A3A3A3A3A3A3E044808082EC7005D0
:10430300750800805C8E828F83A3A3A3A3A3A3E07D
:104313005420600C121925EA547F7900245F801918
:104323008E828F83A3A3A3A3A3A3E05410601A12C6
:104333001925EA540F7900240A5001098E828F83CC
:10434300A3A3A3A3F0A3E9800D8E828F83A3A3A3CA
:10435300A37401F0A3E41243DF7404124617121985
:104363006DA20050348E828F83123567A3A3A3A35B
:10437300A3A3A3A3A3E0F9EEFAEFFB1222F1E960F2
:10438300181262B860091247B5125F5F1219C7EEBF
:10439300FAEFFB1219C7750800A908804FEE240C29
:1043A300F582E43FF58322E0450AF0A3E0450B22C2
:1043B300E0547FF0A3E054FC22A3E0F9850A828550
:1043C3000B8322F582E4350BF5831262D6EE22A32A
:1043D300A3A3A31243DA22126476E0221243E32258
:1043E30012491BA3A3A32274031211047F06020D17
:1043F300E774F4120AE674F71211B27E0012230373
:10440300EA4B70030244B38A828B83A3A3A3A3A3BF
:10441300A3A3A3A3E0640660030244B38A828B834D
:10442300A3A3A3A3A3A3A3E0FF8A828B83126A3F60
:10443300E0C0E074081213EAD0E01247F9125D8C71
:10444300125DA0122315EF54086063851882851945
:1044530083125E707A007B001222E58B0BEA450B18
:10446300704C126ABA121DE77C007D007A007B0053
:1044730080288E828F83125320F47003A3E0F460AC
:104483002D9016BE12356B125F5F121DE1E9641A9F
:10449300601C7C007D00EEFAEFFB1222E58A0A8B9A
:1044A3000BAE0AAF0BEE4F70C97900121DED7E0102
:1044B300EEF902366EC082C0838A828B83E5824521
:1044C30083700990172380068A828B83A3A31246E5
:1044D300C760208A828B83A3A3A3A3A3A3A3E054CF
:1044E3000860E5EC4D60101246CD7003A3E06D70DB
:1044F300D780047A007B000254A174F2120AE68A80
:10450300088B09890AECFEEDFF7A147B001219C1AE
:10451300EA4B603B8A828B83A3A3A3A3A3A3A3A396
:10452300A3E41247EEA3E50A126431A3A3A3EEF0BA
:10453300A3EF12456412480012456B8A828B8312E3
:104543006A94EA240F12455512455EA3F0A3F002C4
:1045530043EFF582E43BF583E4F022A3126A77A3E9
:1045630022126441E4F0A322A3F012637A124558A5
:104573002274F5120AE6EAFEEBFF890A8C088D091C
:10458300EE4F70030246127401650A70127901122C
:1045930022F7E9F8902DF4E493C39850228016741F
:1045A30004650A701479041222F7E9F8902DF3E4F4
:1045B30093C398500A791180587402650A70508E1B
:1045C300828F83A3A3A3A3A3A3A3A3A3E50A125642
:1045D30028126A908E828F83A3A3E4F0A3F090172E
:1045E300231262C1601880031262D288828983A376
:1045F300A31246C788828983A3A370EC8003901714
:1046030023EEF0A3EF12461712196D790080027999
:10461300C102492AF07A207B0090170BE0F922C0EF
:1046230082C083E9F87900901723801D8A828B83E7
:10463300A3A3A3A3A3A3A3A3A3E068600574FF6834
:104643007001098A828B83A3A31246C770DE0254CA
:10465300A174F7120AE6EA4B700590172380068AC5
:10466300828B83A3A31246C7601F8A828B83A3A373
:10467300A3A3A3A3A3A3A3E06970E4EC600F8A82BE
:104683008B8312469370D880047A007B000247D64E
:10469300126A63E0540422C082C083901723800609
:1046A3008A828B83A3A31246C760128A828B83A359
:1046B300A3A3A3A3A3A3A3E06970E580047A007B6B
:1046C300000254A1125F63EA4B228A828B83125346
:1046D300246C2274F2120AE68A0A8B0B8C0C8D0D61
:1046E300750800750900EA450B602A9017238006B8
:1046F3008E828F83A3A312471F601AAC0CAD0DEEFD
:10470300FAEFFB850A82850B83120C5EE964017064
:10471300DF8E088F09AA08AB090243EFE0FEA3E08E
:10472300FFEE4F2274F7120AE69017231262D27C2F
:10473300007D00800DE8FCE9FD88828983A3A31234
:1047430062D2E8496030EA687002EB6970E790175B
:1047530023125F5FE86A7002E96B88828983A3A3EF
:1047630070081262D290172380091262D28C828D54
:1047730083A3A3125DA0805B74F7120AE6EAFEEB43
:10478300FFEE4F602B12230F1247C3125F5F121904
:10479300C78E828F83125F5F1219C71262B86009D6
:1047A3001247B5125F5F1219C7EEFAEFFB1219C772
:1047B3008021EE1247BA22240FF582E43FF58322CB
:1047C3008E828F83E0F8A3E0C8125E9A38F58322C5
:1047D3001211047F01020DE7125E748A828B832219
:1047E300E0F98A828B83A3A3A3A3221247F22212A6
:1047F3006445A3A3A322126A77125324221247F219
:10480300A3A32274F6120AE690172312638480305E
:104813008E828F83A3A31264631247C3125F5F1256
:1048230019C78E828F83125F5F1219C71247B512A1
:104833005F5F1219C7EEFAEFFB1219C7AE08AF0993
:10484300EE4F70CC901723E4F0A3F0025828C082F7
:10485300C083EAFCEBFDEC4D6017EC24FBF582ED25
:1048630034FF1262BF70071248ABE0F460071219FD
:10487300317905803090170BE0C0E01248ABD0E0EF
:10488300F0902DEBE493F97A257B17121967E9640D
:104893000170107A007B2090170BE0F912196D79E3
:1048A30000800279040254A1EC24FFF582ED34FF69
:1048B300F5832274F4120AE6A2AFE433F508C2AF1B
:1048C30090172512471F603AEE24FBF582EF34FF61
:1048D3001262BF7A007B2090170B6007E0F9121970
:1048E3006D8005E0F9121973E4F50AF50B780A12E5
:1048F30010F1EEFCEFFD7A257B1712196174021299
:104903001104E508A2E092AFEEFAEFFB0236731250
:104913004917E02212491B22F08E828F83A3A3A39F
:10492300A3A3A3221211047F03020DE774F2120A58
:10493300E674FA1211B2EAFEEBFF7508FE7509FF81
:104943001222D3E960057911024ABB124AD7603BB0
:104953009018EAE0C43354E0F8E0333354FC48C021
:10496300E0126150D0E012647CFAA3E0FB79FF12FD
:1049730020AB8B0BEA450B60127508FFEE240F1278
:104983004ADA4404F0124AD7D2E0F08E828F8312BF
:104993005F5D1223DBE96006EE2412126493EE24BA
:1049A30013124ADA700D902DEAE493C0E0124ACE56
:1049B300D0E0F08E828F83E0A2E750045403801985
:1049C300EE2414124ADA701290169DE0C0E0124AE7
:1049D300C0D0E0F090169DE004F0EE2411124ADA04
:1049E300640170169018D5E0600D9016A8E0700A67
:1049F3008E828F83E070031264908E828F83E064D3
:104A0300017013EE240B12531A64027009EE240F83
:104A1300124ADA4440F0AC18AD19EEFAEFFB122358
:104A23003F8A0A8B0B74FE6508700374FFF47009E8
:104A33008E828F83A3A3126463EA450B60768E8212
:104A43008F83E0C0E074011213EAD0E0F074041223
:104A530013EAEEF0A3EFF0EE241E1262CC740212FE
:104A630013EA125DA0740112116C880C890D780C85
:104A73001210F1EE2420124AE21210F51247B51279
:104A83000EECEE240E124AE21210F59016B1120E3D
:104A9300EC74081213EAE0F9AC08AD091223397477
:104AA30008121104E9FE74106E700BAA0AAB0B1204
:104AB30019C780027E10EEF974060243EC124AC451
:104AC30022EE2414F582E43FF58322EE124AD32228
:104AD300125A5222EE2415F582E43FF583E022F5C3
:104AE30082E43FF583E0F50C780C22C082C0837426
:104AF300D71211B29080BA740312117C742612106B
:104B0300328A828B83A3A3A3A31262D2740E1213DD
:104B1300EA126A6FA3A31262D2740C1213EA124B45
:104B2300F6124BE812574BC0E0741A1213EAD0E0A6
:104B3300F01261CD1262D074201213EA124BF612F6
:104B43005A1112574BC0E074081213EAD0E0F0EA8E
:104B5300241CF582E43B1262D074121213EA124B46
:104B6300F62411F582E412574BC0E074091213EADC
:104B7300D0E0F0124BE112574BC0E074071213EA76
:104B8300D0E0F0EA241EF582E43B1262D0742412D2
:104B930013EA124BF62420F582E412574BC0E0745B
:104BA300261213EAD0E0124BEE74FFF074011213D5
:104BB300EA74FFF074021213EA74FFF09082F512A4
:104BC3000EE8740412117C7407121174121F3174ED
:104BD30004121104790074291211040254A1EA2465
:104BE30012F582E422240DF582E422F085188285F1
:104BF300198322E8F0A3E9F0EA2274F4120AE674B6
:104C0300EC1211B28A0A8B0B8C088D09E9FF7E1016
:104C13007A217B001219C1851882851983EAF0A3D2
:104C2300EB1262C7E8497003024D0B7C217D0079CA
:104C330000851882851983E0FA1219199016BE129D
:104C43005F5F851882851983126A352409F582E42A
:104C53003812640874201213EA1262D27411121308
:104C6300EA12539712627A38F583740212539B1235
:104C73006A467402125384E508F0A3E50912539BB4
:104C8300126A24EFF074221213EA125338F9A3E0E4
:104C9300C912671C39F583E8125036A3E0C9125EC6
:104CA3009A39124D1274231213EA125F5F740612BB
:104CB30013EA12640A74081213EAE8F07426121352
:104CC300EA12629EC082C083740C1213EAAC82ADF6
:104CD30083D083D082740512103274251213EAE054
:104CE300C0E074131213EAD0E0F07900AA18AB19EC
:104CF3001222D9E9640170047E00800C8518828534
:104D03001983125F5F1219C7EEF97414023670F536
:104D130083E50AF0A3E50BF02274F0120AE674FFB0
:104D23001211B2EAFEEBFF8C088D098E828F83A3EA
:104D33007408F0EE2416124ADA60088E828F83A379
:104D43007410F0EE2417124ADA60098E828F83A35F
:104D5300E02408F0124AD760088E828F83A3E00410
:104D6300F08E828F83A3A3A3A3A3A3E060198E82F3
:104D73008F83A3A3A3A3A3A3A3E0C3332402F88E27
:104D8300828F83A3E028F0EE2411124FF1600474A4
:104D93000E8001E4F09018E2E0640170168E828FB9
:104DA30083E06401600D90162AE06007124FDE7401
:104DB300018004124FDEE41250368E828F83A3E00B
:104DC300124FFF28298C828D83F0EE2411124ADAC8
:104DD30060139016A9E0F9122231E9F8850882855B
:104DE3000983E029F0850882850983E0C39475402F
:104DF30009750C00750D00024FD5E0FA7B001219FE
:104E0300C18A0C8B0DEA450D7003024FD58E828F3C
:104E130083E0FA9016AE12502F740278081212B87B
:104E2300EA4508FAAB09EE241212502974067808F1
:104E33001212B8A808EA48FCEBFD124AD7600478BE
:104E43000180027800EE2416FAE43FFBE4C8F9ED92
:104E530049FDEE2411124ADAF50888097409780825
:104E63001212B8ED4509FD8A828B8312502F740B01
:104E730078081212B8ED4509FDEE24171250297473
:104E83000C78081212B8ED4509FD8E828F83A3A317
:104E9300A3A3A3A312502F740A78081212B8ED45E6
:104EA30009FDEE2423125029740D78081212B8EC70
:104EB300F8ED4509F9E8850C82850D83F0E9125078
:104EC3003B850C82850D8312505EF0EE2404124F55
:104ED300E812501312505EA3A3125A48125013A3A0
:104EE300A3A3A3126A8A850C82850D83A3A3A3A31C
:104EF300A3A3A3F0750B088A828B83E06015EE24CD
:104F030018125E6AE50C2408FAE4350DFB121AAB9D
:104F1300750B10EE2417124ADA6019EE241A125E8A
:104F23006AA80BE50C28FAE4350DFB121AAB7408DA
:104F3300250BF50B8E828F83A3A3A3A3A3A3E0600A
:104F430055EE2407F50EE43FF50F850E82F583E059
:104F5300C0E0125006D0E012504EE0C0E0081250FC
:104F630008D0E012504EA31262AB1210ED850E82F0
:104F7300850F83E01252EAA80BE50C28FAE4350DFD
:104F8300FB12190D7403121104850E82850F83E041
:104F9300C333250BF50B124AD76008C0E012500645
:104FA300D0E0F0125D791262AB1210ED125000FCEA
:104FB3007D0074031213EA125021E0F8E50C28F87F
:104FC300E4350DF9E82AFAE439FB12190D740312DA
:104FD3001104AA0CAB0D740102628DEE2423F58239
:104FE300E43FF58322F8E43FF98882898322F5823E
:104FF300E43FF583E085188285198322F8EE126970
:105003000CE022A80BE50C28F582E4350DF583228C
:1050130012501722E0850C82850D83A3A322E0FAA8
:105023008E828F83A322F582E43FF583E0F5087532
:10503300090022126A7DF922A312504588828983CE
:10504300E022F0EE2402F8E43FF922F0050B8E8211
:105053008F83A3A3A3A3A3A3A3A322A3A3126476CF
:10506300A3125017A32274030236701262D68E82E3
:105073008F83A3A32274F0120AE674FD1211B28582
:10508300188285198312640A74021213EAE9F08CF8
:105093000C8D0D750B017C267D007900AA0CAB0DE0
:1050A30012191974021213EAE0C39408500302524E
:1050B30074E0850C82850D83F0AC0CAD0D851882F0
:1050C300851983125320FA8518828519831259741E
:1050D30012561712234BE96003750B00851882855E
:1050E300198312629E125342E0F9EA850C82850D00
:1050F30083A3A3A3A3A3A3A3A3A3F0A3E91253840A
:10510300A3A3125342A3A3E0F9EAF8E50C12627ACF
:10511300126AB5125397125E5CC0E0E50C241112BB
:105123006AB2D0E012539B2407F582E438F583E09A
:10513300C0E0126AAED0E012536E740812537BA320
:10514300E06020851882851983E02408F8A3E03401
:1051530000F9E50C2413126AB2E8F0A3E9126275B0
:105163002408F0850C82850D83A3A3A3A3A3A3A383
:10517300A3E0602A850C82850D83A385820E858337
:105183000F12532FF8A3E03400F9E50C125A11352E
:105193000D125D9E850E82850F83E02408F0125266
:1051A300F1E4F0125301E4F0A312536EA3A3A3A3FB
:1051B300E06011125353850C82850D83A3A3A3A32F
:1051C300A312538CE50C125312E0700302526012C7
:1051D3005353FA1252F1EA12538CF8851882851947
:1051E30083E028FBA3E034008B82F583E0F8E50C31
:1051F300241A126AB2E812538CE8C39AE50C505889
:1052030012530DF8902DECE493C39850047E0C8058
:1052130006E50C12530DFE850C82850D8312532E69
:10522300F508A3E03400F509750A0078081210EDBB
:10523300EE1252EA7A287B0C12190D740312110430
:105243001253017428F0A3740CF0EEC333F8850EE7
:1052530082850F83E0288004125312E4F0850C82C8
:10526300850D83A3E0F8850C82850D83E0C39850F8
:10527300047900806F12532EFAA3E03400FBE50C8F
:1052830012648A350D126408850C82850D83E0C390
:1052930098C0E0E50C2417126AB2D0E012537BE009
:1052A3006040E50C2417FEE4350DFF8E828F83E00A
:1052B30024F2F0E50C241DF8E4350DF98882898386
:1052C300E0240EFAA3E03400FB8882898312640A87
:1052D3009016A9E0F9122231E9F88E828F83E0C398
:1052E30098F0A90B02628B25E0FCE433FD22E50C68
:1052F3001252F7222419F582E4350DF58322E50CC9
:10530300241BF582E4350DF583221252F7E02212B5
:10531300626F350DF58322F582E43FF58312532442
:1053230022E0F8A3E0F5838882E022A3125333221C
:105333001253382822E0F8851882851983E022A3C6
:10534300A3E0FA8518828519831262A4A3A3A3227A
:10535300850C82850D83A385820E85830F125333BB
:10536300FAA3E034008A82F583E02212537222F01A
:10537300850C82850D83A322125372A3A3A3A3A337
:10538300221253A0F583888222F0850E82850F8333
:10539300E004F022E8F0A3E91253A0C822126A81C4
:1053A300F8A3E02274F4120AE68A088B09EA12547D
:1053B3004CA3A3F0EA1313543F125444A3A3F0EAFB
:1053C300C4131312544C1254567409780A121375E9
:1053D30012543BA3A3A3A3A3A3F0EB12543D125473
:1053E30055740A780A121375E50A5401C0E0EC12E9
:1053F300626F3DF583D0E012545A740B780A12138E
:105403007512543B125453740C780A1213751254C8
:105413003BA3125453740D780A121375E50A540111
:10542300C0E0EC2424F582E43DF583D0E0F0740E73
:10543300780812137502366AE50A54018C828D834B
:1054430022540F8C828D83A32254038C828D83225A
:10545300A3A3A3A3A3A3A3F08A0A8B0B22C082C096
:105463008379008A828B83A3A3A3A3A3A3E09016CB
:10547300A8600EE070238A828B83A3A3E0701A8056
:1054830016E060158A828B83125F569016B1E06A2C
:105493007003A3E06B600279018003125F5FD08326
:1054A300D0820210B674F2120AE68A0A8B0B890CB8
:1054B300ECFEEDFF8A828B8312561512234B850A6D
:1054C30082850B83A3A3125609E0F9EA8E828F83A8
:1054D300A3A3A3A3A3A3A3A3A3125634125609A35E
:1054E300A3E0F9EAF8125D79E8125634A3A3E0C009
:1054F300E0EE2411F582E43FF583D0E012563BA39E
:10550300A3A3E0C0E0EE124BE23FF583D0E01256D6
:1055130023740812562EA3A3A3E06016E50A2408F9
:10552300F8E4350BF9EE2413125A28125623E0241B
:1055330008F08E828F83A3A3A3A3A3A3A3A3E060F6
:10554300148E828F83A31255F8EE2415125A281253
:105553005C5B2408F08E828F83A3A3A3A3A3E060E4
:105563001F8E828F83A3858208858309E0F8E50A6D
:1055730028F582E4350B1255EDA3A3125C5B04F00E
:10558300EEFAEFFB122351E9F50D70598E828F83EA
:10559300A3A3A3125A1FA37014E0F8E50A28FAE4A0
:1055A300350BFBEE241D126404E50C80281255F81C
:1055B300E8240EF8500109EE241D125D9A9016A9F5
:1055C300E0F9122231E9F8850882850983E0F9E5DB
:1055D3000CC39924F2C398C0E0EE2417F582E43F8C
:1055E300F583D0E0F0A90D0243EFF583E08E828FBF
:1055F30083A3A3A322858208858309E0F8E50A280B
:10560300F8E4350BF922E0FA850A82850B83A3A31C
:10561300A322E0FAA3E0F8E4C8F9EA28E439FB227C
:10562300125628A322F08E828F8322126481A3A3B1
:1056330022F0A3E912563B22F0850A82850B83A34D
:10564300A3A3A322C082C0837A317B1779E2121D00
:10565300B77A317B170254A1C082C0839016B1027E
:10566300549EC082C0839016B402549EC082C083ED
:10567300794A121DB70254A174F6120AE69017393B
:10568300E0FE04F0EEF91223038B09EA450970EDFD
:10569300EE60EAF902582874F2120AE6EAFEEBFF1A
:1056A3008C088D09890A122441740E1213EAE0F959
:1056B300740F1213EAE0F8EA4B7012E8701BA90AA0
:1056C300AC08AD09EEFAEFFB12245F8071E86017B6
:1056D300E970068A828B83E4F07401687060E99054
:1056E300173C7027E48021E97054EA2402F582E430
:1056F30012574BA80A28F8E4340013E813F0703E5D
:105703008A828B83A3A37401F08033E004F09018A2
:10571300D2E0F890173CE0C3984023E4F09016B42D
:10572300E06E7003A3E06F7015EEFAEFFB790112E0
:105733001F557A017B0090170BE0F9121A8102437F
:10574300EF74B42AF582740A3BF583E02274F412F1
:105753000AE68A088B098C0A8D0B9082ED78081271
:1057630011DD700E7A017B0090170BE0F912196DB1
:1057730080319018BF780812138412340D601878A2
:10578300081210E97A017B0090170BE0F9121A75E1
:105793007404121104800C7A017B0090170BE0F95A
:1057A300121A81023673C082C0839018C302413C2F
:1057B300C082C0839018C502413C74F6120AE67E8B
:1057C3000075089D75091678081210F17C6E7D002E
:1057D3007A217B00121A397402121104E9640A70E7
:1057E300027E01121EB3E9640A7004EED2E1FE9058
:1057F30003191262C1600F125975120C5EE9640A33
:105803007004EED2E3FE1220BDE9640A7004EED206
:10581300E4FE121D39E9640A7004EED2E5FEEEF9E6
:1058230080031211047F02020DE774F6120AE612D6
:1058330018D775089D75091678081210F175086E4A
:1058430075090078081210F17C007D007A217B0035
:10585300121A457404121104121EB990031B12622A
:10586300C16006125975120C5E1220C3121D4B80C3
:10587300B474F6120AE674FF1211B27E0075089D25
:1058830075091678081210F17C6E7D007A217B0071
:10589300121A397402121104E96003025959780883
:1058A3001210F175086E8E0978081210F17C007DD4
:1058B300007A217B00121A4B7404121104E960036D
:1058C3000259599016B1E064FE7003A3E0F470032B
:1058D3000259597E019016C0E064086005E0640433
:1058E300706F851882851983EE125A657942121DED
:1058F300BD7AC87B167943121DBD7AC57B167947DD
:10590300121DBD7AB67B16794A121DBD7AB47B1679
:10591300794B121DBD7ABE7B167950121DBD7AB12B
:105923007B167953121DBD7AC67B167954121DBDA1
:105933007AB37B1679E1121DBD9016ABE0A2E3505A
:1059430004D2F08002C2F0125A5B7952121DBD805C
:10595300051218D77E00121EA790031D1262C160A4
:1059630006125975120C5E1220CFEEF9740102581B
:1059730025A31262A52274F6120AE6E9FEA2E050FC
:105983002675089D75091678081210F175086E754D
:10599300090078081210F17C007D007A217B001247
:1059A3001A457404121104EEA2E35003121EADEE65
:1059B300A2E2500E90031F1262C1600612597512C3
:1059C3000C5E02582874F7120AE674ED1211B2E95C
:1059D300FE90170AF0AC18AD19901951E0F97A0E40
:1059E3007B171222BB74121213EAEE125A06AA187C
:1059F300AB191222B57A0E7B177945121DBD7413AC
:105A03000247D3F0901951E0F97C0E7D172224153B
:105A1300F582E42212637B3509F58322A3A3A3E075
:105A23008E828F8322F582E43FF583E8F0A3E92297
:105A3300EE12637B3FF583125A3E22E0F8A3E0F9AE
:105A43008882898322125A4C22F0EE125A5222245F
:105A530013F582E43FF58322A2F0E43385188285AF
:105A63001983F0AA18AB192274F4120AE68A088B78
:105A7300097A007B0490170BE0F9121A81125B2755
:105A83009016C07409F012235D8A0A8B0BAC0AAD21
:105A93000B123AD8125F5F121AA5E96401706B7A90
:105AA3000F7B0012192B8A0A8B0BAE0AAF0BEE4F3A
:105AB30060588E828F837402F0E50812648A350978
:105AC300125B10FC88828983A3A3E0FBEC8E828F98
:105AD30083A3A312640B88828983125A1F125B1853
:105AE300FAA3E0FB794A121DBD850882850983A3C9
:105AF300A3A3A3A3A3E0700690153A7405F0EEFAEE
:105B0300EFFB90170BE0F9121937023673F5831286
:105B13005A3EA3E022A3F0E5082415F582E43509F3
:105B2300F583E0229016461262D69018C5E8F0A3DA
