:020000040000FA
:06000000020AF1020244B5
:03002B000208E1E7
:030033000205EBD8
:030053000201792E
:03006B000205B9D2
:100083000201D80100F0FF0700080000FFFF000095
:1000930003040000000300010020FD00FD0C090D16
:1000A30000000000030D0F0D030D1B0D00000000E9
:1000B300030D0F0D00000000000000000000000011
:1000C300000000000000000000000000390D3F0D9B
:1000D300450D7B0D000000000000000042823A82C3
:1000E300368232822A821A8216829E823E820A8255
:1000F3000E82128201AACDABCDAB0101C68201CC27
:10010300820206FFFF010400000117000000E8035C
:100113000000FFFF7B170188130000E80300006461
:10012300006400B801A0BB0D00A0BB0D00020202D9
:1001330007040101051E02051E020A0A010108093E
:10014300080103B80B02803E0102FEFFE8030A0523
:100153000001FFFF010A011401E00105030101FF92
:100163000F10FEFF5A270000000090260000000039
:10017300FF000000FF00C0E074F112045BA2AFE4D3
:1001830033F509D2AF85A708AFA1EF5508FE741068
:100193005E6006120DE775A1EF74085E6008120D2C
:1001A300ED75A1F78024EFA2E092F0E508A2E082CA
:1001B300F05017906198E0F89003C5E0C398A2D27D
:1001C30065D0335002E8F075A1FEE509A2E092AFD5
:1001D3007F020204BAC0E074F212045BA2AFE433FC
:1001E300FED2AF9061A4E0F8759B00E591585408E6
:1001F30060087591F7120E3B8023E5915854106007
:10020300087591EF120E418014E591A2E092F0E897
:10021300A2E082F05007E0C2E0F0120F8B9061A3DE
:10022300E0F8E5E9585404600E120F6175E9FB909C
:100233006193E0A2E640F2EEA2E092AF7F010204F6
:10024300BAC0E074F212045BA2AFE433FED2AF9003
:1002530061A5E0F8E5BF585404600675BFFB120FB3
:10026300A380D4C3E498F8E499F91202A78026C3C3
:10027300E49AFAE49BFBE920E7E91202A7E498F881
:10028300E499F922C3E498F8E499F91202A7E498EF
:10029300F8E499F9C3E49AFAE49BFB22EB20E7CF55
:1002A300E920E7E0B90010BB0008E88AF084F8AA67
:1002B300F022E4FBC8FA22EB70227B10C833C8C9D2
:1002C30033C9335007C39AC3DBF280069A50012A1D
:1002D300DBEAC833F4C8C933F4C9FA2275F008E479
:1002E300C833C8C933C933C99AC99B5004C92AC979
:1002F3003BD5F0ECFBC833F4C8E4C9FA220808087C
:10030300EAC0E0EBC0E086F0E7A4FA180986F0E75C
:10031300A42AFA180986F0E7A42AFA180986F0E74E
:10032300A42AFA1986F0E7A4FBE5F02AFA1908864D
:10033300F0E7A42BFBE5F03AFA190886F0E7A42BC3
:10034300FBE5F03AFA18180986F0E7A4C5F02BFB91
:10035300E43AFA1908E7C5F0C6A426F6E5F03BFB34
:10036300E43AFA1886F0E7A4F6E5F00826F6E43B4B
:1003730008F6E43A08F6D0E0FBD0E0FA22E4CFC076
:10038300E0E4CEC0E0E4CDC0E0E4CCC0E075F02012
:10039300E626F608E633F608E633F608E633F618FB
:1003A3001818EC33FCED33FDEE33FEEF33FFC3ECF3
:1003B3009709ED9709EE9709EF97191919400FFF60
:1003C300EC97FC09ED97FD09EE97FE191906D5F098
:1003D300BFECF709EDF709EEF709EFF7191919D093
:1003E300E0FCD0E0FDD0E0FED0E0FF222518C5827E
:1003F300C0E0E51934FFC583C0E0E518C395822446
:10040300F810AF08858319858218800885831985BC
:100413008218D2AFCEF0A3E520F0A37808E608F067
:10042300A3DEFAEFF0A3E58124FAF8E608F0A3E6E9
:1004330008F0A3E608F0A30808E608F0A3E608F02E
:10044300A315811581D0E0FED0E0F8158115811543
:1004530081E8C0E0EEC0E022C0D02518C582C0E02C
:10046300E51934FFC583C0E0E518C3958224F31072
:10047300AF088583198582188008858319858218BA
:10048300D2AFC8F0A3E9F0A3EAF0A3EBF0A3790895
:10049300E709F0A3D8FAECF0A3EDF0A3EEF0A3EF95
:1004A300F0A3D0E0F0A3D0E0F0A3D0E0F0A3E520E8
:1004B300F0A3E5F0F0A322851983851882E0C0E05C
:1004C300A3E0F9A3E0FAA3E0FBA37808E0F608A30E
:1004D300DFFAE0FCA3E0FDA3E0FEA3E0FFA3E0C09E
:1004E300E0A3E0C0E0A3E0F5D0A3E0F520A3E0A300
:1004F300F5F010AF08858319858218800885831964
:10050300858218D2AFD082D083D0E0F8D0E0321207
:100513000B6BB90003020551E49003017876791857
:100523008002F0A3D8FCD9FA7A767B1A90008678F9
:10053300F479018015E493A3AD82AE838A828B8321
:10054300F0A3AA82AB838D828E83D8E9D9E7758223
:10055300B37583B0740512087275828B7583247426
:10056300001208720575F0108E1A8F1B85821F8585
:10057300831E851882851983E0CEA3E0CF851F8271
:10058300851E83EBC9EAC8EDCBECCAC3E833C8E9DF
:1005930033C9EA33CAEB33CBC3EA9EF51DEB9FF5B0
:1005A3001CB35004AB1CAA1DEC33CCED33CDD5F0FA
:1005B300DAAE1AAF1B22C0E074F212045BA2AFE4FE
:1005C30033FED2AFE589A2E0400CE589A2E1400603
:1005D300E589A2E25003120C31758900C2C5EEA26F
:1005E300E092AF7F010204BAC0E0C0D0E8C0E0A847
:1005F300A8D2AF758B00C2E8E8A2E792AFD0E0F8CB
:10060300D0D0D0E032D083D082ECC0E0EDC0E0E4C3
:1006130093A3FCE493A3FDED4C600D1206E0EC24E0
:10062300FFFCED34FFFD80EFE493A3FCE493A3FD13
:10063300ED4C600D12077DEC24FFFCED34FFFD80D3
:10064300EFD0E0FDD0E0FCE493A3C0E0E493C0E08E
:1006530022851983851882E0A3FEE0A3F52078089C
:10066300E0A3F608DFFAE0A3FFE0A3C0E0E0A3C045
:10067300E0E0A3C0E0E0A3C0E0E0A3C0E010AF0867
:100683008582188583198008858218858319D2AFDE
:10069300D083D082020878D083D082E9C0E0E4938B
:1006A300A3C386F0C5F095F0F908E493A386F0C5DB
:1006B300F095F0700BE493A3C3994005E90480021D
:1006C300A3E475F002A42582F582E5F03583F58372
:1006D300D0E0F9E493A3C0E0E493C0E022C0E0C318
:1006E300E49396087401939618400FE49366700898
:1006F30008740193661870007019A3A3C3E493965A
:10070300087401939618A3A3400DD0E0D0E0D0E085
:10071300020644A3A3A3A3A3A3D0E02274048004EA
:1007230074028000CCC0E0EDC0E0E518C39CCCAD02
:100733001950011D10AF068C188D1980068C188D69
:1007430019D2AF1207F4D0E0FDD0E0FC227402808E
:1007530000CCC0E0EDC0E0E518C39CCCAD1950015E
:100763001D10AF068C188D1980068C188D19D2AF09
:100773001207D2D0E0FDD0E0FC22C0E0C0F088F048
:10078300E4936670080874019366187000A8F0A3D8
:10079300A3700BD0F0D0E0D0E0D0E0020644A3A3D6
:1007A300D0F0D0E022D083D082CCC0E0E493A36029
:1007B300061208531470FAE493A3600612095E1438
:1007C30070FAD0E0FCE493A3C0E0E493C0E022CA53
:1007D300C0E0E493A3C582CCC582C583CDC583F0B5
:1007E300A3C582CCC582C583CDC583DAE5D0E0CA73
:1007F30022CAC0E0E0A3C582CCC582C583CDC58330
:10080300F0A3C582CCC582C583CDC583DAE6D0E02B
:10081300CA22C008C3E096F50808A3E09642080878
:10082300A3E096420808A3E09645087001D3D008D8
:10083300227009080808226016181818C6C333C6A0
:1008430008C633C608C633C608C633C6D5E0EA228F
:10085300C0E0E493A3D39C5010E493A3C39C400A49
:10086300D0E0D0E0D0E00207C5A3A3A3D0E022C02C
:100873009FF59FE473D09F22D083D082C09FE493DF
:10088300C0E0740193C0E0740293F59F2274048066
:100893000A74038006740280027401C0E0F4041237
:1008A30008C6D0E0120B2E2200C0D0251810AF08C6
:1008B300F518500C05198008F51850020519D2AF28
:1008C300D0D0222518F58210AF08F518400C151961
:1008D3008008F51840021519D2AF85198322C0E0AC
:1008E300C0D0E8C0E0A8A8D2AFC2C7E8A2E792AFE1
:1008F300D0E0F8D0D0D0E032BB0102E722C082C002
:100903008389828A83BB0003E08002E493D083D08F
:1009130082226016080808C6C313C618C613C61871
:10092300C613C618C613C6D5E0EA222518F8E4355F
:1009330019F9222518FAE43519FB222518FCE435A8
:1009430019FD22C3E0C696F608A3E0C696F608A3EF
:10095300E0C696F608A3E0C696F622C0E0E493A3A9
:100963006C7009D0E0D0E0D0E00207C5A3A3D0E0CB
:1009730022251810AF08F518400C15198008F51832
:1009830040021519D2AF22E066701008A3E066702A
:100993000A08A3E066700408A3E06622C3E0960891
:1009A300A3E09608A3E09608A3E096A2D265D0330D
:1009B30022E76670100809E766700A0809E766709F
:1009C300040809E76622C3E096F008A3E096F0085E
:1009D300A3E096F008A3E096F022C3E697F6080991
:1009E300E697F60809E697F60809E697F622C3E4C0
:1009F300939608740193960874029396087403936C
:100A03009622E627F60809E637F60809E637F608D8
:100A130009E637F622700422600D18C6C333C608F0
:100A2300C633C6D5E0F41822E493F608740193F6AE
:100A330008740293F608740393F622E657F608093E
:100A4300E657F60809E657F60809E657F622E05690
:100A5300F608A3E056F608A3E056F608A3E056F618
:100A630022E056F008A3E056F008A3E056F008A3EE
:100A7300E056F022E026F608A3E036F608A3E036B7
:100A8300F608A3E036F622E647F60809E647F60835
:100A930009E647F60809E647F622E026F008A3E050
:100AA30036F008A3E036F008A3E036F022E4C3965C
:100AB300F608E496F608E496F608E496F622C6F4F9
:100AC300C608C6F4C608C6F4C608C6F4C622C3E7F9
:100AD300960809E7960809E7960809E79622C3E00E
:100AE3009608A3E09608A3E09608A3E0962275D0A3
:100AF3000075813F75180175190300020512E6F0B0
:100B030008A3E6F008A3E6F008A3E6F022600C08C9
:100B1300C6C313C618C613C6D5E0F422E0F608A36D
:100B2300E0F608A3E0F608A3E0F622CAC0E0E6F088
:100B3300A308DAFAD0E0FA22E8F0A3E9F0A3EAF096
:100B4300A3EBF022E0F8A3E0F9A3E0FAA3E0FB2291
:100B5300EAF0A3EBF0A3ECF0A3EDF022E0FAA3E0BC
:100B6300FBA3E0FCA3E0FD22E5C754F84401F5C76D
:100B73007901222518F582E43519F58322C2AF7570
:100B8300D69F0200002212087B84DE0412087B1425
:100B9300DF0412087BABDF0412087BF7DF041208C3
:100BA3007B28E00412087B5FE00412087BF0E10479
:100BB30012087BBAE20412087B94E30412087BD088
:100BC300B50512087BD5B50512087B07B6051208D3
:100BD3007B9AB60512087B15C10512087B26C10551
:100BE30012087BFCFF0212087B5EC10512087B8F93
:100BF300BF0512087B9FBF0512087BB4BF0512080F
:100C03007B2BC00512087BFAFE0212087B7DFF02D4
:100C130012087BE3FF0212087B8EAE0512087BC22B
:100C2300AE0512087B2BAF0512087B0FB005120827
:100C33007B69B00512087BE8970512087BF69705D8
:100C430012087B6F980512087B69990512087B3F90
:100C53009B0512087BC37F0012087B71C105120834
:100C63007B74C10512087B58B40512087B68B40570
:100C730012087B24B50512087B33B50512087B1BCC
:100C83009A0412087B7B9A0412087B359B04120892
:100C93007BDF9C0412087B7F9D0412087BC59D04A7
:100CA30012087B309E0412087B9E9E0412087BDF91
:100CB3009E0412087B4C9F0412087B8AA00412082E
:100CC3007B9FA00412087BC5A00412087B32A104F9
:100CD30012087BA3A10412087B23A20412087B94AD
:100CE300A20412087BBEA20412087B86A404120885
:100CF3007BBEA50412087BE1A60412087B73A7043C
:100D030012087BE3A70412087B49A90412087B0796
:100D1300AB0412087BC1AC0412087BBAAD04120801
:100D23007B67B10412087B85B30412087BA7B20565
:100D330012087B15B30512087B37B40512087B3AFA
:100D4300B40512087B40B40512087B85A705120879
:100D53007BC4A70512087B01A90512087BDE9E054B
:100D630012087B7F9F0512087B2EA00512087BF2D9
:100D7300A00512087BA9A10512087B47B705120835
:100D83007B087A0012087B347A0012087BA57C006A
:100D930012087BE57C0012087B257D0012087B3955
:100DA3007D0012087B527D0012087B437E001208EF
:100DB3007BE87E0012087BFC7E0012087B21BA05CB
:100DC30012087B45BA0512087B5EBA0512087B90B0
:100DD300BA0512087BC0BA0512087BEDBA051208E2
:100DE3007B4FBB0512087B5EBB0512087B68BB0506
:100DF30012087B75BB0512087BE0A40512087B0073
:100E0300A50512087B3FA50512087B5AA505120804
:100E13007B79A50512087BDFA50512087BE8A505EC
:100E230012087B45A60512087B54A60512087B7899
:100E3300A60512087B39A70512087B46A7051208E9
:100E43007B57A70512087BB9FF0112087BD1FF016D
:100E530012087BFDFF0112087BD28B0512087B2C45
:100E63008D0512087B3A8D0512087B4D8D051208FE
:100E73007B628D0512087B778D0512087B8A8D05B1
:100E830012087BFE8D0512087B638E0512087B0515
:100E93008F0512087BC98F0512087BD98F051208AD
:100EA3007BE88F0512087BF6BE0512087B1ABF0587
:100EB30012087B42BF0512087B6ABF0512087B0735
:100EC300AA0512087B2EAA0512087B4CAA05120854
:100ED3007BBFAA0512087B0DA20512087B26A2057B
:100EE30012087B32A20512087B46A20512087B6416
:100EF300A20512087B6EA20512087B78A2051208D0
:100F03007B8BA20512087B11A30512087B86A30520
:100F130012087BB5A30512087B03A40512087B52B4
:100F2300A40512087B6DA40512087B77A40512089B
:100F33007B88A40512087BCBA40512087B36C00569
:100F430012087B1EEF0412087B48EF0412087B652E
:100F5300EF0412087B78EF0412087B8EEF0412086B
:100F63007BECEF0412087B24F00412087B18F404D2
:100F730012087B5DF50412087B90F50412087BF3DD
:100F8300F50412087B53F70412087B7BF70412085D
:100F93007B90F70412087BA0F70412087BE4F704A4
:100FA30012087B3FF80412087B4FF80412087BBF3A
:100FB300BC0512087BD9BC0512087B01BD051208CC
:100FC3007B1ABD0512087B3EBD0512087B5CBD057F
:100FD30012087B73BD0512087BA1BD0512087BBCFB
:100FE300BD0512087BD1C00512087B5CFC03120807
:100FF3007B6CFC0312087B71FD0312087BA3FD03CA
:1010030012087BD3FD0312087BF6FD0312087B0D48
:10101300FE0312087B47FE0312087BACFE03120893
:101023007BEEFE0312087B2DFF0312087B5EFF039A
:1010330012087B89FF0312087B17FF0112087B2923
:10104300FF0112087B67FF0112087B75FF0112087D
:101053007BBDB80512087BDDB80512087BF1B90525
:1010630012087BF4B90512087B107F0012087B4637
:101073007F0012087B607F0012087BA27F001208AA
:101083007BB97F0012087B00800512087B0A80056C
:1010930012087B44800512087BAD800512087BCAC9
:1010A300800512087B6C810512087B758105120887
:1010B3007BBA810512087BE3810512087BF0810569
:1010C30012087B61820512087BEC820512087B3AC9
:1010D300830512087B78830512087BDD83051208DC
:1010E3007B00840512087B77840512087BCE840578
:1010F30012087B09850512087B3E850512087B5083
:10110300850512087B62850512087B818505120817
:101113007B8A850512087B45860512087B91860527
:1011230012087BCF860512087B7FBB0512087B7FE5
:10113300FF0412087B58AC0512087B8EAC0512081D
:101143007BD6AC0512087B2FAE0512087B526600D6
:1011530012087B76670012087BB0670012087B5A7F
:10116300690012087B84690012087BF96B0012087E
:101173007B396C0012087BCF6D0012087B6C6E000C
:1011830012087BBE6E0012087B616F0012087B9908
:101193006F0012087BDB6F0012087B4A7100120894
:1011A3007B98720012087BC9740012087BF77400E5
:1011B30012087B1E750012087B27750012087B77C7
:1011C300750012087B09760012087B387900120833
:1011D3007BBB790012087B3EC10512087B54C10515
:1011E30012087B21900512087B37900512087BDBE0
:1011F300900512087B1A910512087B379105120896
:101203007B68910512087BB5910512087BE891056F
:1012130012087B23920512087B18940512087BEFB2
:10122300BD0512087B4EBE0512087B8CBE05120855
:101233007BCDBE0512087B00800412087B2F80043F
:1012430012087BAB800412087BF9810412087BDF50
:10125300820412087B53840412087B7884041208E6
:101263007BCA840412087B4C850412087B8D850499
:1012730012087BA0850412087BF7850412087BB44F
:10128300860412087B20870412087B4A870412080D
:101293007B93870412087B27890412087B008A0446
:1012A30012087B498B0412087B1C8C0412087BA454
:1012B3008C0412087BE78C0412087B018D0412084E
:1012C3007B488D0412087B688D0412087B278E04EB
:1012D30012087B4A8F0412087BA48F0412087BE850
:1012E3008F0412087BE4900412087B6093041208B5
:1012F3007B7F930412087BEB930412087B10940406
:1013030012087B8D940412087B53950412087B907A
:10131300950412087B09960412087BFD96041208B3
:101323007B00970412087B0A970412087B14970426
:1013330012087B27970412087BA3970412087BD912
:10134300970412087BEC970412087B189804120880
:101353007B3F980412087B63980412087B9E9804D1
:1013630012087B10990412087B38990412087B42F7
:10137300990412087B7E990412087B989904120839
:101383007BD2990412087BE8990412087B81C0057B
:1013930012087B99C00512087BFB7F0012087B7F34
:1013A300F80412087BCEF80412087B6EFA041208C4
:1013B3007B29FC0412087B6BFC0412087B54FD049C
:1013C30012087B5EFE0412087B80FE0412087BCAAF
:1013D300FE0412087B4BFF0412087BF3E20212089F
:1013E3007B16E30212087B75E40212087BBEE4025B
:1013F30012087B18E50212087B7EE50212087B8146
:10140300E50212087BCDE50212087B47E6021208CB
:101413007BDAE60212087BDDE60212087B69E7024B
:1014230012087BACE70212087B0DEC0212087B9FCB
:10143300ED0212087BE1ED0212087B55F10212085E
:101443007B7CF20212087B61F30212087BEFF3024A
:1014530012087B17F40212087BD9F50212087BF6F7
:10146300F70212087BF6F80212087B84F9021208CD
:101473007B85FA0212087B2FFC0212087B32FD02E5
:1014830012087B98FD0212087B44FE0212087BD0EF
:10149300B30412087B70B40412087BDAB404120894
:1014A3007BF3B40412087BAFB50412087B0EB604B9
:1014B30012087B12B70412087B27BA0412087B595F
:1014C300BB0412087BDABB0412087BD9BD041208E3
:1014D3007B86BE0412087B2CBF0412087B11C00458
:1014E30012087BDCC10412087B44C30412087B543A
:1014F300C40412087BF6C40412087B15C604120840
:101503007B9BDA0312087B0FDB0312087B57DB0399
:1015130012087B95DB0312087BE4DB0312087B2EA6
:10152300DC0312087B66DC0312087BE4DC0312088D
:101533007B3EDD0312087B9ADE0312087B29DF035F
:1015430012087B40E00312087B68E00312087BAEBD
:10155300E10312087BBFE10312087BD7E103120802
:101563007BE1E20312087BABE30312087BB8E403DD
:1015730012087BDCE40312087BF3E40312087B14F8
:10158300E50312087B36E50312087B53E5031208D3
:101593007B2FE60312087B87E60312087B19E90316
:1015A30012087B68E90312087B87E90312087B664C
:1015B300EA0312087B9CEA0312087BB4EB031208CC
:1015C3007B31EC0312087B9EEC0312087BDAEC03FD
:1015D30012087B43ED0312087BFDED0312087BBB6E
:1015E300EF0312087BBCF00312087B41F2031208DD
:1015F3007B22F40312087B85F60312087B2BF80386
:1016030012087BF9F80312087B5FF90312087B7653
:10161300F90312087B66FA0312087B52FB031208D4
:101623007BBFFB0312087BA49B0512087B499D0526
:1016330012087B069E0512087B6A9E0512087B250D
:10164300940512087B43940512087B8794051208BE
:101653007BAD940512087BD3940512087BEB9405AC
:1016630012087B03950512087B66950512087BA873
:10167300950512087BCA960512087BD396051208B6
:101683007BDC960512087BE5960512087BEF960531
:1016930012087BFB860512087B168B0512087B2438
:1016A3008B0512087B298B0512087B34B1051208C0
:1016B3007BD4FF0412087BE1FF0312087B00800345
:1016C30012087B33800312087B9A800312087B265F
:1016D300810312087BCD810312087B158203120854
:1016E3007B3A820312087B53820312087B798203BD
:1016F30012087B9B820312087BD9820312087B2882
:10170300830312087B51830312087BB083031208FF
:101713007B89840312087B3F850312087B9D850325
:1017230012087B63860312087BAD860312087B04D1
:10173300870312087B6F870312087BAD87031208A8
:101743007B03880312087B1F880312087B10DA04CB
:1017530012087B598A0312087B9F8B0312087BCBE9
:101763008B0312087BFF8B0312087B208C03120868
:101773007B2F8C0312087B3A8C0312087BEA8C03C1
:1017830012087B598D0312087B068E0312087B42D5
:101793008E0312087B008F0312087B0D900312083F
:1017A3007B5A900312087BE9900312087B43910351
:1017B30012087B5EDE0412087B17940312087B7108
:1017C300950312087BBD980312087B9B99031208AB
:1017D3007B729A0312087B9B9A0312087B0C9B0370
:1017E30012087BA29B0312087B069C0312087BF55D
:1017F3009C0312087B1A9D0312087B7D9E0312082B
:101803007B9B9E0312087BAE9E0312087B1C9F03E7
:1018130012087B20A00312087B2DA00312087B363D
:10182300A00312087B30A20312087B56A3031208FD
:101833007B66A30312087B5CA40312087BD8A40372
:1018430012087B11A50312087B1FA60312087B5BFA
:10185300A60312087B36A80312087B17AC031208F1
:101863007B21AC0312087B35AC0312087B3FAC032E
:1018730012087B49AC0312087B53AC0312087B6C40
:10188300AC0312087B76AC0312087BE6AC031208A8
:101893007BF1AC0312087B19AD0312087B24AD0363
:1018A30012087B72AD0312087B7CAD0312087B87A1
:1018B300AD0312087BABAD0312087BCFAD03120857
:1018C3007B2CAE0312087B72AE0312087B8EAE0331
:1018D30012087B15AF0312087B4CAF0312087B8BF6
:1018E300AF0312087BD8AF0312087B5AB003120868
:1018F3007B06B10312087BE2B20312087B50B303E9
:1019030012087B7CB40312087BA2B40312087BFB8E
:10191300B50312087B53B90312087B8CBB0312086F
:101923007B6ABD0312087B03BE0312087B28C00336
:1019330012087BDCC00312087B15C10312087B7BF2
:10194300C10312087B85C10312087BAFC3031208CE
:101953007BBAC40312087B02C50312087BB6C50316
:1019630012087B59C70312087BE0C80312087B00E7
:10197300C90312087B53C90312087B53CA03120815
:101983007B7BCA0312087BDECA0312087BC1CB032D
:1019930012087B33CC0312087B45CD0312087BC9A5
:1019A300CD0312087BC7CE0312087B5DD103120857
:1019B3007B7CD10312087BC7D20312087B95D40327
:1019C30012087BE9D40312087BA1D50312087B51CB
:1019D300D60312087BAAD60312087B6FD70312081B
:1019E3007B05D80312087B6CD80312087BAED8039F
:1019F30012087BDFD80312087B3FDA0312087B004F
:101A0300800212087B32800212087B6B800212086C
:101A13007B56820212087B3A830212087B9283026E
:101A230012087BD5840212087B21850212087B4DA4
:101A3300880212087BC18B0212087B098D021208EF
:101A43007B9F8D0212087BAB8D0212087BEB8D020C
:101A530012087B808F0212087B74900212087B9E0F
:101A6300900212087BF5900212087B4E9102120835
:101A73007BBF910212087BF4930212087B8B9502C1
:101A830012087B5F960212087BA6970212087BFE60
:101A9300990212087BCF9C0212087BDE9C0212087B
:101AA3007B629D0212087B179E0212087B5A9E02DC
:101AB30012087BB89E0212087BD49E0212087B0692
:101AC3009F0212087B459F0212087B2BA00212087B
:101AD3007BDAA00212087B60A30212087B96A402A1
:101AE30012087B7DA50212087BFDA50212087B0A62
:101AF300AA0212087B48AA0212087BAFAA021208A4
:101B03007BE2AA0212087B75AB0212087BA8AB0228
:101B130012087B43AC0212087B91AC0212087B646F
:101B2300AD0212087B2BAE0212087BC9AE0212086B
:101B33007BD3B10212087BE7B20212087B8DB60297
:101B430012087B8FB70212087B92B70212087BC17F
:101B5300B70212087BC0B90212087B99BA021208B5
:101B63007BBEBA0212087BDABB0212087B92BC026C
:101B730012087B49BE0212087B6EBE0212087BA8C4
:101B8300BE0212087B41BF0212087B3CC00212084E
:101B93007BF2C00212087B03C30212087B6EC302EE
:101BA30012087BB6C30212087B11C40212087BE938
:101BB300C70212087BDEC80212087BD8C9021208CA
:101BC3007B55CA0212087B27CB0212087B28CD0261
:101BD30012087B3CCD0212087B50CD0212087B8693
:101BE300CD0212087BB6CD0212087B40CF02120849
:101BF3007B21D00212087B89D00212087BFDD00220
:101C030012087BADD10212087BDDD10212087B9C46
:101C1300D20212087B39D30212087B46D50212087E
:101C23007B85D50212087BF7D50212087B3CD702CD
:101C330012087BEFD70212087B23D80212087B3BE2
:101C4300D80212087BDED80212087BCCDB02120812
:101C53007B97DD0212087BBBDD0212087BD9DD0214
:101C630012087BADDE0212087BD5E20212087BD19B
:101C7300820112087B09830112087B228801120862
:101C83007B68880112087BBA890112087B2C8A01C0
:101C930012087B9B8B0112087B8F8E0112087BB38A
:101CA3008F0112087BD1990112087B5A9A011208FD
:101CB3007BB79D0112087BC69E0112087B219F0101
:101CC30012087B6FA00112087B59A10112087B0443
:101CD300A40112087B8AA50112087B17A60112082A
:101CE3007B1AA60112087B91A60112087B9BA60111
:101CF30012087BA8A60112087BD3A60112087B7EDB
:101D0300A70112087B6EA80112087B27A9011208FC
:101D13007B45A90112087B5AA90112087B83A901FB
:101D230012087BB0A90112087BF0AB0112087BBD3E
:101D3300AC0112087B02AD0112087B79AD011208D8
:101D43007B27AE0112087B59AE0112087B9FAE01BF
:101D530012087BD2AE0112087B17AF0112087B6811
:101D6300AF0112087B6DAF0112087BC1AF011208EE
:101D73007B2AB00112087BF3B00112087B3EB1014C
:101D830012087BA3B10112087BFFB10112087B9DEE
:101D9300B20112087B09B60112087B24B7011208AD
:101DA3007BB0B80112087BD1BB0112087B73BC0165
:101DB30012087B84BF0112087B3FC00112087B8796
:101DC300C00112087B36C20112087B4AC201120805
:101DD3007B54C20112087B5EC20112087B6AC201F6
:101DE30012087B92C20112087B76C40112087BCFD2
:101DF300C40112087BD9C40112087BE3C401120891
:101E03007B58C50112087BA3C50112087BA4C60138
:101E130012087BFBC60112087B05C80112087B4E22
:101E2300C80112087BFEC80112087BE1C901120830
:101E33007BB4CA0112087B06CC0112087B29CD01B1
:101E430012087B21CE0112087B39CE0112087B7068
:101E5300CE0112087B7ACE0112087B85CE011208CF
:101E63007BA3CE0112087BEBCE0112087B49CF0185
:101E730012087B70CF0112087B82CF0112087B1DF1
:101E8300D00112087B52D00112087B44D101120801
:101E93007B86D10112087B6AD20112087B91D201A1
:101EA30012087BFED20112087B76D30112087BFA5B
:101EB300D40112087B27D60112087BFCD601120835
:101EC3007BBFD70112087B66D80112087BABD9010F
:101ED30012087B69DA0112087BD5DA0112087B91BB
:101EE300DB0112087BE2DB0112087B3CDC011208F8
:101EF3007B0DDD0112087B30DD0112087BF1DD0172
:101F030012087B13DE0112087B74DE0112087BBC0E
:101F1300E00112087BC0E10112087B77E20112089D
:101F23007B98E40112087BE2E40112087B2DE501B2
:101F330012087B88E50112087BF5E50112087B2373
:101F4300E60112087B47E60112087B7CE6011208D2
:101F53007BA9E60112087BEFE60112087B43E70148
:101F630012087B97E70112087BBAE80112087B5A33
:101F7300EA0112087BA5EA0112087BCEEA011208E6
:101F83007B61EB0112087BD9EB0112087BE7EB01C4
:101F930012087B0BEC0112087B62EC0112087B7DBB
:101FA300EC0112087B3AED0112087B66ED01120881
:101FB3007BA9ED0112087B0CEE0112087BFCEF01FB
:101FC30012087B29F00112087B1BF10112087B2800
:101FD300F20112087BE1F20112087BC0F30112083F
:101FE3007BF8F30112087B19F40112087B5DF401FD
:101FF30012087BC1F40112087BCBF40112087BDBCE
:10200300F40112087B12F50112087B0AF901120888
:102013007B18FB0112087B05FD0112087B9CFD0167
:1020230012087B3EFE0112087BED2A0012087B9604
:102033002B0012087B6D2C0012087B752D001208F3
:102043007B952D0012087BAD2E0012087B673000B4
:1020530012087BDA300012087B77310012087B8E7E
:10206300320012087BFB320012087B363300120861
:102073007B8B330012087BC6330012087B133400BA
:1020830012087BA3340012087B30350012087B054D
:10209300360012087BDE360012087B6C370012080C
:1020A3007B8C370012087BB9370012087BEA3700B4
:1020B30012087BBD380012087BCD380012087B1C48
:1020C300390012087B29390012087B3239001208C3
:1020D3007BA2390012087B023A0012087B4D3A00BA
:1020E30012087B683A0012087B8F3A0012087BAC17
:1020F3003A0012087BB83A0012087B633C001208CE
:102103007B7C3C0012087B053D0012087B183D00D8
:1021130012087B373D0012087BD23D0012087B4238
:102123003F0012087BE9400012087B784100120847
:102133007B7B410012087BEB410012087B094200C4
:1021430012087BAE420012087BEA420012087BEDC4
:10215300420012087BB3430012087B1644001208A6
:102163007B4F440012087BC4440012087BE2440006
:1021730012087B30450012087B05460012087B538A
:10218300460012087BA1460012087B2E4700120866
:102193007B63470012087B98470012087BA6470021
:1021A30012087B05480012087B7D480012087BBE9D
:1021B300480012087B0E490012087B3949001208B7
:1021C3007B53490012087B6D490012087B484A0083
:1021D30012087B524A0012087B8D4A0012087B9D2D
:1021E3004A0012087BF54A0012087B094B001208CB
:1021F3007B3F4C0012087B544C0012087BE24C00DE
:1022030012087B4A4D0012087BFD4D0012087B0823
:102213004E0012087B584F0012087B744F001208BF
:102223007BC04F0012087B2F500012087B685000C0
:1022330012087B82500012087BE2500012087B8157
:10224300510012087BCC510012087B8E54001208F7
:102253007B44550012087BD4550012087B1C5800A0
:1022630012087B34580012087B37580012087B434E
:10227300580012087B57580012087B5F5800120859
:102283007B92580012087B85590012087B105A0074
:1022930012087BA35A0012087B1C5B0012087BE028
:1022A3005B0012087B025C0012087B9B5C00120837
:1022B3007BF85C0012087BFB5C0012087B755D00F9
:1022C30012087BC15E0012087BCC5F0012087B57AB
:1022D300600012087B5C610012087B1C620012081C
:1022E3007B4D620012087B73620012087B7C6200E4
:1022F30012087BAA620012087B42630012087BF774
:10230300630012087B68640012087B0F65001208E3
:102313007B96650012087BD5650012087B18660062
:1023230012087B1ED80412087BF0D70412087BBD69
:10233300D70412087B41D70412087B24D704120860
:102343007BB3D60412087B05D50412087BBDD404E5
:1023530012087BEED30412087B63D20412087BD0ED
:10236300D10412087BA0D10412087B51D1041208B6
:102373007BEBD00412087BAAD00412087BDCCF04C9
:1023830012087B77CF0412087B16CF0412087BBC9C
:10239300CE0412087B55CD0412087BF2CC0412083C
:1023A3007B6ACC0412087B65CC0412087B4ECC04F8
:1023B30012087B13DE0412087B1BCC0412087BDD9E
:1023C300DD0412087B60DD0412087BFBDC041208C9
:1023D3007BAADC0412087BD2DB0412087B42DB04F9
:1023E30012087BC1C90412087BBEC90412087BA56D
:1023F300C90412087BF6DA0412087B9AC90412088E
:102403007B6FC90412087BACC70412087B68C7043E
:1024130012087B71DA0412087B54C70412087B8804
:10242300910312087BD3EE0412087B7AEE041208A0
:102433007B45EE0412087B10EE0412087BDCED04EE
:1024430012087B6EED0412087B56ED0412087B31F3
:10245300ED0412087BFAE90412087BCDE7041208A5
:102463007BD4E50412087B60E50412087B11E504C4
:1024730012087BCBE40412087B2CDA0412087B6D70
:10248300E40412087B4A880300000080FBE4738F96
:10249300000100491B87000100471B350004000EA3
:1024A3001B25000200121B26000200141B2700023A
:1024B30000161B28000100201B29000100211B849A
:1024C300000400071886000100841A2A0001002274
:1024D3001B2B000100231B2C000100281B2D0008CF
:1024E3000014182E000100291B2F0001002A1B30A5
:1024F3000001002B1B310001002C1B320001001CCA
:1025030018330001001D18340001002D1B36000193
:10251300001E18380001002E1B39000100271B8301
:10252300000200451B630001002918640001002418
:102533001B65000100251B6D0001002A18710008AE
:10254300000C1866000100441B43000100351B44C6
:10255300000200361B45000100381B46000200390B
:102563001B470008002118480001003B1B4B0001DA
:10257300003C1B04000100481BA10001004C1B3759
:102583000001004B1B880001004A1B3C0001001F97
:10259300183D0001002F1B490002003D1B6700018D
:1025A300002B184D0002003F1B4E000100411B4F42
:1025B300000200421B3E000100341B5100010030A9
:1025C3001B52000100311B53000100331B54000157
:1025D3000020180000000000000001363601010051
:1025E30001020100010301000104010606050200C6
:1025F30000070100340801000F090401010D010067
:10260300FF0E08000017020000190100FF1A010065
:10261300011B0100FE1C0100081D0200001F010038
:102623000120010001210200002301000F24020008
:10263300002601000127010008280200FF2A0100EB
:10264300072B0102402C0100002D0100012E010087
:10265300012F0100FF30010B1D310800003A01007A
:10266300083B01000F3C0100013D0100FF3E040057
:102673000042040000460400004A0400004E040027
:102683000052040000560400005A040000010371C4
:1026930003010301030103010301032203020301F5
:1026A30003100300030003000300030003000300FF
:1026B300034203000324030603000300030403127D
:1026C3000325032303250323030403040300030057
:1026D30003000344030003000323030003650321F2
:1026E3000035038103000305030003000300030017
:1026F30003250323030302710230016002110270F8
:10270300020102020202028002100261023A004147
:102713000063027302720262024302000213023870
:102723000000020002040212020002000200020082
:102733000204020402370037003C0244020002395B
:102743000000020002650200023502810200020558
:102753000282028302000203007100300160001153
:10276300007000310220035004800010006100005B
:102773000014006300730072006200430000001342
:10278300000600000000000400120000000000002A
:1027930000000004000400370037003C024400003E
:1027A300000000000000006500000035008100000B
:1027B3000005000000830000000101710101010117
:1027C30001110101013101010101018001100161C8
:1027D300013B0014006301730172016201430100B4
:1027E30001130106013D013500040112010001003E
:1027F300010001000104010401330133013C0144E0
:10280300013201360000010001650100013500813C
:102813000100010501820183010001030471040227
:10282300046004110470040204020401040204108D
:102833000461040004140463047304720462044313
:102843000400041304060400040004040412040036
:1028530004000400040004510464000004000400A4
:102863000444040004000400040004650400043567
:102873000481046400050400048304000436000199
:1028830000060000000F0000000000000000000030
:1028930000000003FFFF00000403FFFF0000FFFF31
:1028A3000FF4010005C4040320000100000B000025
:1028B30000000000000003010F0000000000000002
:1028C3000000000000000000000000000000000005
:1028D3000000000000000000000000130053141F5C
:1028E3000059141F805F140000B3140100B31402D5
:1028F30000FF130280F9130300051404000B1404F2
:102903008011140500171406002314310035143305
:10291300003B143400411436004714FFFF00000A43
:102923000000000200000004000000080000001086
:1029330000000020000000400000008000000000B4
:102943000100000002000000040000000800000075
:10295300100000002000000040000001AB1C06DB5B
:102963001C08D51C0BF91C10B11902B11C05C91C9C
:1029730007B71C0C931C0D9F1C64A117FF000007D5
:10298300ECFDFDFDECDCDCCCBCACAC9C9C8C7C7C21
:102993006C6C5C5C5C4C4C3C3C2C2C1C1C03EAF5C6
:1029A300E5D5D5C5B5A595958585757565655555E4
:1029B30045453535252515150500160F00000B1562
:1029C3000B020002220F3300000E0F667A6C63685D
:1029D30074696D65434F2E2C4C54645A6967426584
:1029E30065416C6C69616E63653039D0D1D2D3D4E3
:1029F300D5D6D7D8D9DADBDCDDDEDF00011916182E
:102A030016161823030000034D4C4651181A2505CA
:102A130002303016181920231A1C1E30003C404285
:102A23003A3F3F392F4730303017181921301B1DDB
:102A33001F300C0E020B040B0A0708000F020402DE
:102A430001010101090200BE040AE80300000E00AF
:102A53000000E8030100030000007F0003000409F5
:102A63001E100A0C100803FF0C28000404020903BB
:102A73003C0C050815081EE4F0A3F0A3F0A32212F2
:102A83002A7AF0221258122408123F2522122A947D
:102A930022E0F508E4F509F50AF50B22E824FBF535
:102AA30082E934FFF58322F583122AB022E0F50888
:102AB300A3E0F5092212231174041208AB7F080264
:102AC30006547401F09003DDE0640F2274091208C8
:102AD300AB7F04020654A3A3E024F5C3941322900E
:102AE30003FD125A8C7A147B0022C082C083901992
:102AF300557489F0A37420F0A3749BF0A37420F0A1
:102B03009019597471F0A37420F0A3746BF0A3743B
:102B130020F0A374A7F0A37420F0A374ADF0A37402
:102B230020F0A374A1F0A37420F0A37459F0A3744C
:102B330020F0901965747DF0A37420F0A37483F0E2
:102B4300A37420F0A37477F0A37420F0A374B3F0FC
:102B5300A37420F0901976124AEF6006124F3E12CA
:102B630011479019731243AA7408F0A3E4F0A3F079
:102B7300901A1FF0901978F07C0BFDF97A797B1984
:102B83001210997C0B7D0079007A847B19121099BD
:102B930002420274F71203EF74F7120974EAFEEBB0
:102BA300FF1241607405122C5B7403F0122C301277
:102BB3002C372430FCE43FFD8C828D83E0888289AE
:102BC30083122C44600812349174FFF0A3F0EE24B6
:102BD3002EE43F1C1CFD8C828D83A3E0C0E08A821F
:102BE3008B83124167D0E0122C4488828983124A76
:102BF3001624031255BB1212317408120B76740398
:102C0300F09003F2120723740212093E7903EEFADD
:102C1300EFFB12224574021208ABE9F5087007EEC8
:102C2300FAEFFB122125A908740902349DEE240250
:102C3300FAE43F22FB8A828B83122C531245FFEE68
:102C430022124A42122C531245FF8C828D83E022BA
:102C53001244BA8A828B8322F0A3E4F0122C6322FB
:102C6300EE240DF582E43FF5832274F01203EFEABC
:102C7300FEEBFF8C0C8D0D890B122C301244B174BA
:102C830010120B76E0F508A3E088828983F0E8242C
:102C9300FFF582E912305BE508F0E824FEF582E9EE
:102CA30012305BE50BF09003F7E0C0E0E824FDF59C
:102CB30082E912305BD0E0F09003F6E0C0E0E82454
:102CC300FCF582E912305BD0E0F07412120B76123D
:102CD3002AAC122A9FE509F0E824FAF8E934FFF94F
:102CE30088828983E508F0EE2404FCE43FFD88082C
:102CF3008A828B83E0F50E8C828D83E0250EC3954B
:102D030008124A421245FB850C82850D83A3A3A3B7
:102D1300A3A3A3A3A3E0640370081244ABF0A3E44A
:102D23008003123060122C5E7409F07508797509FE
:102D330019750A00780812089412304912108D741C
:102D4300031208AB7508FF7509FF7808120898ACE1
:102D53000CAD0D7903EEFAEFFB1222457402120853
:102D6300ABE9F5087007EEFAEFFB122125A908027B
:102D73002AC0C082C083901995E0C39408400474AC
:102D8300078001E08A828B83F033333354F8F902EE
:102D9300420274F01203EF8A088B09890A8C0E8DA4
:102DA3000F750C00A2AFE433F50BC2AF90198F80FF
:102DB30045122E91503D122EA064037036E508246F
:102DC300F9F508E50934FFF5098E828F83A3A3E0A3
:102DD3002405FCA3E03400FDAA08AB09121231E577
:102DE3000824FFF508E50934FFF5097410250CF5EF
:102DF3000C150A12326E126509E50A6004EE4F7073
:102E0300B0E50BA2E092AFA2AFE433F50BC2AF90F3
:102E1300198F8038124A0D123C0785088285098371
:102E2300124A42122E97A3A3E0C0E0E50824FFF55F
:102E330082E50912305BD0E0F0E50824FEF508E5F1
:102E43000934FFF509050C150A12326E1230C860F9
:102E530021122EA0640270F1122E91EE40B612429E
:102E630094A2E550E4850E82850F837401F0E50A90
:102E730070D7E50BA2E092AF850882850983E50C44
:102E8300F0E50824FFFAE50934FFFB022AC01232F9
:102E93007DA2E622122E9B22124A37A3228E828F14
:102EA30083A3A312416B1251782274F01203EF74BF
:102EB300F31209747403120B76E9F07402120B76A1
:102EC300EAF08B0B851882851983E4F00412093626
:102ED30012203BE9F89003DCE0292437F508FA7B5C
:102EE300001210AB8A0C8B0DAE0CAF0DEE4F7003BE
:102EF300023040EE2402F50EE43FF50FA808EE2859
:102F0300F8E43FF9850E82850F83124DEF9003DCC1
:102F1300E0F9FAC3E49AFA95E0FB850E82850F8304
:102F2300E02AF50CA3E03BF50D9003DA122AAC7509
:102F33000A007808120894E9FC7D00AA0CAB0D1274
:102F4300108D74031208ABAC18AD197401120B7613
:102F5300E0F9E50C24FFFAE50D34FFFB1220418A6A
:102F6300828B83E4F0E50BC454F0F9901A20E0C49B
:102F7300333354C0F89003D6E0A2E0E4331313488C
:102F830049440FC0E0EA24FFF582EB12305BD0E046
:102F9300F0EA24FEF50CEB34FFF50D7403120B7607
:102FA300E0F87402120B76E0C454F048850C828575
:102FB3000D83F0A80C850E82850F831257DB2AC37D
:102FC300988E828F83A3A3A3A3F0850E82850F839C
:102FD300E8F0A3E50DF0123060122C5EE4F0740CFF
:102FE300120B76E4F07508847509197808120894B1
:102FF30012304912108D74031208AB85188285199B
:1030030083E06009EE240E1242964408F012222D4A
:10301300E9F9E4F508F50978081208987406120925
:103023003EEEFAEFFB12224574021208ABE970067A
:10303300EEFAEFFB800BEEFAEFFB1210B17A007B96
:1030430000740D022ABD7C0B7D00EE241BFAE43FC5
:10305300FB22EE24FFF582EF34FFF5832212553471
:10306300E4F0A32274F21203EF8A0C8B0DA2AFE4F7
:1030730033F50AC2AF75080075090090198F802CCB
:103083001232885024850C82850D83A3A312553EEA
:103093008E828F83A3A3124F41122233E9600A1257
:1030A3003279C2E6F08E088F0912326E1230C87080
:1030B300CFE50845096006123161D2E6F0E50AA2C0
:1030C300E092AF800DE0FEA3E0FFEE4F2274021208
:1030D30008AB7F0602065474F01203EF8A0E8B0FBF
:1030E3008C0C8D0D750A00A2AFE433F50BC2AF7ED5
:1030F300007F0090198F8010AE08AF09123159126A
:103103004294D2E7F0124081124097603412316149
:10311300A2E750F1850882850983A3A3120723AC94
:103123000CAD0DAA0EAB0F12223974021208ABE9D3
:1031330060D3EE4F60C2123529700612316CD2E4AF
:10314300F0E50BA2E092AFEE4F600612211F750A65
:1031530001A90A022AC012327DD2E4F0EE22E50868
:1031630012545E3509F583E0228E828F83A3A31266
:10317300416BE02274F21203EF74FE120974750CB2
:1031830000750D00851882851983E4F0A3F0A2AFC2
:1031930033F50AC2AF90198F1265098035EE24FB0F
:1031A300F582EF34FF122AAA780C120898EEFCEF8E
:1031B300FD7A8F7B191210E174021208ABEEFCEF5B
:1031C300FDAA18AB191210CFAE08AF09901995E0FC
:1031D30014F0EE4F602B123288501DEE240BF8E4EE
:1031E3003FF988828983E024FFF0A3E034FFF0886D
:1031F300828983124AEF60A58E0C8F0D12326E8086
:1032030097E50AA2E092AF901995E060319003DD53
:10321300E0640F6006901A1FE070237A6D7B191229
:10322300231D9082C212071F7A6D7B19122311741A
:10323300041208AB800874F012469B122113AA18DB
:10324300AB191210D58A088B09AE08AF09EE4F608F
:103253001312204D123279A2E28E828F83A350D6AD
:1032630074E980D40230D08E0A8F0BEE24FBF582F2
:10327300EF34FFF5832212327D22EE2411F582E42E
:103283003FF583E02212327DA2E72274F71203EFA7
:10329300EAFEEBFF12204D124164122490E964010F
:1032A3009003F9700AE02401F8A3E03400800312CC
:1032B30040E4F912486F1245FB901995E070219094
:1032C30003DDE0640F70197A6D7B1912231D908260
:1032D300C212071F7A6D7B1912231174041208ABF3
:1032E300A8A8C2AF901995E004F0E8A2E78004E52E
:1032F30008A2E092AF02475E74F71203EFEAFEEB17
:10330300FF123330F012204DEEFCEFFD7A8F7B1964
:103313001210DBA8A8C2AF901995123C5A9003DD96
:10332300E0640F700579081221E502475E12327DD1
:10333300C2E42274F71203EF74EA120974EAFEEB93
:10334300FF9003D6E0603C8518828519837401F0F1
:10335300120B76E4123408120B76AA82AB83121294
:103363003112316CC0E0740A120B76D0E01257F7B9
:10337300740B120B76AA82AB8312225DAA18AB19C7
:10338300121693741602349D74F71203EFEAFEEBE0
:10339300FF12202FE9F974DC69601E74DD6960197E
:1033A30074E469601474F369600F74DE69600A740D
:1033B300DF69600574DB697007EEFAEFFB1221EB3E
:1033C30002475E74F71203EF74EB120974EAFEEB23
:1033D300FF8518828519837406123408120B76AAA6
:1033E30082AB83121231EE2408FCE43FFD740A120F
:1033F3000B76AA82AB8312225DAA18AB191216931D
:10340300741502349DF0EE2413FCE43FFD74022294
:1034130074F71203EF74F7120974EAFEEBFFEE245C
:10342300301242966065123CFDAA18AB1912123194
:103433007408120B767403F09003F212072312340C
:1034430091120723900405E0F9740412093EEEFA81
:10345300EFFB12203574041208ABE9F974DC6960E0
:103463002374DD69601E74E469601974F369601480
:1034730074DE69600F74DF69600A74E8696005745B
:10348300DB697007EEFAEFFB1221EB022C2BEE2423
:103493002EF582E43FF5832274031208AB02475EE4
:1034A30074F21203EF8A0C8B0D750A00750B00750D
:1034B30008E7A2AFE433F509C2AF90198F80031276
:1034C300326A1230C8603612328850F312352970CE
:1034D300EEEE2432124296F88A828B83A3A3E0682D
:1034E30070DD780A120898EEFCEFFD7A8F7B1912D3
:1034F30010E174021208AB901995E014F0E509A2EB
:10350300E092AFEE4F6013EEFAEFFB12204D79F02D
:10351300EEFAEFFB1221EB750800A908AA0CAB0D1C
:103523001221EB0230D5122C63E064012274F412F1
:1035330003EF74F7120974EAFEEBFF8E828F83A305
:10354300E064F370030235DA8E828F83A3E064DFD5
:1035530070030235DA8E828F83A3E064E860788E8D
:10356300828F83A3E064DB606E12208FE9F508701D
:103573005EEE240E12429660561235E41220D1EA12
:103583004B604C7408120B761235EE120723750844
:10359300FF7509FF78081208988E828F83A3A3A36F
:1035A300A3A3A3A3A3E0F9740412093E1220357464
:1035B300041208ABE9F50874F36508601274DF655B
:1035C30008600C74E86508600674DB6508700F8E8C
:1035D300828F83A3E508F0EEFAEFFB12209B022A09
:1035E300CFEE240FFAE43FFB7909227402124F5005
:1035F30074FFF0A31235FB221235FF22124A1FA3D8
:10360300A32274F11203EFEAFEEBFF7508008E822A
:103613008F83A3A3A3A3A3A3122AD940037508E806
:103623008E828F83A3A3A3A3A3A3A3A3A3A3E0C374
:10363300941040057508E880138E828F83A3A3A39B
:10364300A3A3A3A3A3A3A3E0640F600B9019FCE0BF
:10365300540870037508E8EE240B124296F88E8224
:103663008F83A3A3A3A3A3A3A3A3A3A3E0C398505C
:103673000DEE240B124296640F60037508E8900365
:10368300F6E0F47003A3E0F470037508EC7A237B8F
:10369300001211418A0A8B0BA80AA90B9019761202
:1036A30036D860298E828F83A3A3A982AA83890C2B
:1036B3008A0D750E00780C1208947C237D009019F6
:1036C30076E0FA12108D74031208AB800375081AA2
:1036D300A9080255271245FFE8492274F51203EFA2
:1036E300EAFEEBFF8E828F83A3A3A3A3A3A3A3A3CB
:1036F300E09003DD125EAF9003F8125E959003D85D
:10370300125EB4901A20F0F9120EE9901A20E060CC
:1037130018EE2404FAE43FFB7950120ED1EE24068E
:10372300FAE43FFB79E1120ED1901A1F122AC56009
:1037330004740180027400901978125E9B1208943D
:103743007C0B7D007A797B1912108D74031208AB00
:10375300EE2418F508E43FF50978081208947C0B69
:103763007D007A847B1902440974F71203EFEAFEA1
:10377300EBFF8E828F83A3E07006124F3E122095DB
:103783001246951221F702475E74F71203EFEAFE21
:10379300EBFF901976124AEF600D124F3E901976A7
:1037A300E4F0A3F01211478E828F83740812469BB4
:1037B30012169302475E74F61203EF901A1FE0602D
:1037C30013901978E0700D1237DA122047EA4B6034
:1037D30003122125025B179003D8E0FB9003F8E066
:1037E300FA9003DDE0F92274F41203EF74E712098F
:1037F30074EAFEEBFF750B018E828F83A3A3A3A351
:10380300A3A3A3E0A2E25068EE242BF582E43F12C7
:10381300553C124726122053E97055908202E0640A
:10382300017005750B0080481238B61208947C0BA2
:103833007D00741112093612108D74031208AB1235
:10384300222DE9FA740E12092E88088909780812C4
:10385300089875083075090078081208981238A876
:103863001207231257C5790112224B74061208ABB3
:103873008518828519837410123408120B76AA8274
:10388300AB831212251238A8125A88740B120B76C6
:103893001245FB740D120B76E50B12444912169375
:1038A3007419022AD11238AC22EE242BF582E43F9C
:1038B300F58322EE2408125EA322C082C083901AED
:1038C30020E0600312229F024202C082C083901A4A
:1038D300177455F0A37419F0A37459F0A37419F075
:1038E300A37465F0A37419F0901B5F741EF0A374A6
:1038F30028F0901A017429F0A37420F090199A7497
:103903005FF0A37420F090199C7465F0A37420F009
:103913009019FCE04402023D33C082C083EAFCEB11
:10392300FD7903024A97C082C0837908025C95C07F
:1039330082C08374FE1209749019A2740DF0A374EB
:1039430021F09019A47407F0A37421F0800D7A8FED
:103953007B191210D512443F12221B90198F124A61
:10396300EF70EB901991124AEF600F7A917B191265
:1039730010D512443F12221B80E990198FE4F0A363
:10398300F0901995F0A3F0A3F09019B07449F0A347
:103993007421F07402800274111208AB02420274A3
:1039A300F61203EFE9FF741F29F582E4342AF58345
:1039B300E493FEFA7B001210ABEA4B6013EA2E127B
:1039C30042DFE8F0A3E9125817A3A3A3E4F0802C85
:1039D3007A027B001210ABEA4B601D742A2FF5822A
:1039E300E4342AF583E4938A828B83F0A3741AF078
:1039F3009019F7E0F91210B77A007B00025B17E920
:103A0300FC740629F8EAA2E0501EE875F00A84E582
:103A1300F0F96014740A28C399F8E9C394054004C3
:103A2300740A28F8740B28F8ECC39413400479142F
:103A330080027906E82979002409F85001097A0AF5
:103A43007B0012029FE8F9020878C082C0839019B4
:103A5300FCE05402600A121699E9600479018002BD
:103A63007900024202C082C0839019FCE0540260D4
:103A730016901995E0700C124AEC600BE0C81240E6
:103A83008E5004790180027900024202C082C08311
:103A93009081FFE0F8901997E0C39850051210AB9E
:103AA30080047A007B00024202C082C08312221B80
:103AB3007900024202C082C08374FE120974851821
:103AC30082851983EAF0A3EB123C36A3A3A3A3A335
:103AD300E0600A14605D24FE6060023B959003DDA4
:103AE300E0640F60181221F1E970128518828519BC
:103AF30083124F4190199E1241671224909004053E
:103B0300E0C0E08518828519831249EFD0E0123CAA
:103B1300367414125478FCA3E0FD7A917B191210C9
:103B2300CFA8A8C2AF901997123C5A79201221E569
:103B3300023996123BFA741580D9123BFAA3A3A358
:103B4300A3E0604E123BFA123170C0E08518828503
:103B530019831257EA123C14D0E01254782402F865
:103B6300A3E03400F988828983E02401FAA3E034D6
:103B730000FB88828983EAF0A3EB125478123F2E6C
:103B83008518828519836013123C076005123C1D5A
:103B93004048AA18AB1912221B8095123C0760F209
:103BA300123C1D5021123C2AFA851882851983A3E1
:103BB300E0C82406123EF9F8743F124C31342AF55A
:103BC30083E4936A6014851882851983123C076421
:103BD3000870BF123C2A640870B8123C2A14123CC5
:103BE3003E240AC0E0851882851983124167D0E01C
:103BF300123C3E04023B16851882851983A3E0F527
:103C030083888222123C0B221240E4C8123C14E047
:103C1300222406F582E438F58322851882851983E8
:103C2300123C0BC3940A22851882851983122E9B9A
:103C3300A3E022123C48F583888222123C48C82420
:103C430006123F2522F08518828519831240E4224B
:103C5300A8A8C2AF901996E004F0E8A2E792AF22B9
:103C6300C082C0839019A6124AEF6008123C011269
:103C730024908002790002420274F71203EFEAFEF5
:103C8300EBFF122C63740112429E12552C122C3F2F
:103C93002435124296C0E0EE2413F582E43FF58307
:103CA300D0E0F0EE2436124296C0E0EE2414F58202
:103CB300E43FF583D0E0F0EE2438124296C0E0EE04
:103CC3002418F582E43FF583D0E0F0EE242FF5824B
:103CD300E43FF583120723123CFDEE243112429692
:103CE300F912224574021208ABE9F5087007EEFADF
:103CF300EFFB122125A90802475EEE2426FCE43FD0
:103D0300FD22C082C0831221F1E960047920800280
:103D13007901024202C082C083EA2411123D29D2F2
:103D2300E0800DEA240DF582E43BF583E022F0A365
:103D3300F0024202C082C083123D26640170111258
:103D43003DC5400C8A828B83A3E0F91221EB806F7F
:103D5300EA2410123D29A2E650128A828B83A3E043
:103D6300F99019A01241671224908053123D2664E2
:103D730001700D123DC550088A828B8374308036E2
:103D83008A828B83A3E0641B8A828B8370047422F0
:103D93008024A3E0700D123D26F87414124C3134C4
:103DA3002A800B123D26F8742A124C31342AF583EB
:103DB300E4938A828B83F09019F7E0F91210B7022B
:103DC3004202EA2410F582E43BF583E0A2E3227485
:103DD300F71203EFE9FE124AEC7003023EF4EE60C1
:103DE30011741B6E7013E0C8123EF7640570030272
:103DF3003EC2123EFDE4023EC674E96E7061123F9C
:103E03001D700B12169FE96005123F38606179EE51
:103E1300120E53901998123F1A901998603A123F54
:103E23003B901998700B123F1A14F0121009023EBE
:103E3300F4123F2DC2E71240CA123EF76403700B1F
:103E43001257E72411123EF9D2E2F079ED120E5324
:103E5300123F0D1224908075123F0074E980647440
:103E6300E16E703E12169FE96055123F3870509014
:103E730003FFE0C0E01257E72412F582E438F5832C
:103E8300D0E0F09003EEE0C0E0901998123F0912E1
:103E93003F09D0E0F09003EEE004F07901120FF156
:103EA300804F741C6E7018901998124F419019A886
:103EB300124167122490901998E4F0A3F080321213
:103EC3003EFDEEF0901998124F411221131240ABB0
:103ED300E054806010900405E0F9120F0D90040483
:103EE300E0F9120F01901998E4F0A3F07910122170
:103EF300E502475E240D123F2522901998123F04D4
:103F03002212416FA322124A3322901998124F456D
:103F130090199C12416B22E0F8A3E0C82412123FCF
:103F23002522F582E438F583E022E0F8A3E0C824F3
:103F330010123F25229019981240B2E054042274C3
:103F4300F41203EF750A00750B00A2AFE433FEC24F
:103F5300AF124AEC6003024037124164122490E925
:103F63004410F890198F800985080A85090B1240BF
:103F7300811240977003024037123161586870E82C
:103F8300780A120898AC08AD097A8F7B191210E1F0
:103F930074021208AB901998E508F0A3E5091240E2
:103FA300CA12408E500302403E901996E014F0EE80
:103FB300A2E092AF901998E0240EF8A3E03400F940
:103FC300E8FEE9FF8E828F83124F41901998123CCD
:103FD30030F91220D7E9901993F0A3125A09E0544B
:103FE3008060181257E72413123EF9F9120F0D12CD
:103FF30057E72414123EF9F9120F011240ABA3E064
:104003005401605F901993124AEF60451240C160FA
:10401300401240C1F87900901993124F411202A740
:10402300E8C0E012409FD0E01240CFC39413401188
:104033007402800FEEA2E092AF8037901995023F91
:10404300AF7400C0E0901999E0C8124078D0E080C6
:104053000D12409F74011240CA1240787401F07926
:1040630003800C901998123F2DA2E1B3E433F912A7
:104073000FF1022AD4241AF582E438F58322E508E5
:1040830024FBF582E50934FFF5832212545E123FC7
:1040930028A2E722122AB0E50845092212580F2464
:1040A30019F582E438F583229019981240B222124E
:1040B30040E4C81240BA2212548838F583221258B9
:1040C3000F2418123F25221240DCC8221240DCF5CF
:1040D300838882A3A3A3A3E022F09019981240E45B
:1040E30022E0F8A3E02274F71203EFEAFEEBFF12DB
:1040F3002215124293A2E3400A12352970059081DA
:10410300FD80039081FEE0F9EEFCEFFD7A8F7B19D1
:104113001210E7E96037EEFAEFFB9019A21241673C
:10412300122490EE240E12429654047011123C5342
:10413300124160A3E05401702112211F801CEEFA8A
:10414300EFFB90199A124167122490800D8E828F93
:1041530083A374F112469B12211302475E12553456
:10416300229019A412416B2212416F22E0F8A3E0BE
:10417300F5838882220241FB74F71203EFEAFEEB18
:10418300FF79009019FCE05402700CEE24331242C4
:10419300965404600279E89019FCE05460700CEEC8
:1041A30024331242965402600279E88E828F83A3ED
:1041B300A3A3A3E0F8908203E0C398500279E8EE4A
:1041C3002431124296700CEE242E1242967004791A
:1041D300F5800BE97005122101E9F9E96007EEFAB0
:1041E300EFFB1221EB02475EC082C0838A828B837E
:1041F300740DF01216938007C082C08312211FD062
:1042030083D08202087874F41203EFEAFEEBFF8E88
:10421300828F83E4F0A312429E54049081FD7012B6
:10422300E0F8901996E0C398401279F11221EB025D
:104233002AD4E0F8901995E0C39850EE1242A4A353
:10424300E054016039EE2437124296C39405403C92
:10425300EE2433124296540570327AAA7B19122344
:104263001DEE2437F582E43FF583122A9078081275
:1042730008907AAA7B1912231174041208ABEEFA80
:10428300EFFB9019F7E0F91210B780A379E8809C4F
:10429300EE2410F582E43FF583E022F01242A4E01D
:1042A30022EE2433F582E43FF5832274F61203EF02
:1042B300E9FE2451FAE43400FB1210ABEA4B60151B
:1042C300EE8A828B83A3A3A3A3F0EA24511242DFD5
:1042D3001245FB80047A007B00025B17F8E43BF98C
:1042E3008A828B83A3A3220241FBC082C0839019DD
:1042F300B37473F0A37421F0A374A3F0A37421F037
:10430300A37479F0A37421F0A3747FF0A37421F054
:10431300A3749DF0A37421F0A37491F0A37421F00E
:10432300A3748BF0A37421F0A374A9F0A37421F0F8
:10433300A374AFF0A37421F0A374B5F0A37421F0B8
:10434300A374C1F0A37421F0A37485F0A37421F0C6
:10435300A3746DF0A37421F0A37467F0A37421F028
:104363009019CF7497F0A37421F0A374BBF0A374D6
:1043730021F0A374D5F0A37422F0A374C7F0A3743F
:1043830021F0A374CDF0A37421F09019F3E4F0901D
:1043930019F6F09019DF1243AA7402F09019E8128B
:1043A30043AA7401023D3374E5F0A37421F0A32200
:1043B30074F51203EF74F112097485188285198359
:1043C3007402F07401120B76E9F060047AFF7BFF4C
:1043D3007402120B761265907508EB750919750A4C
:1043E3000078081208947C0B7D007407120B76AAE0
:1043F30082AB8312108D74031208ABAA18AB191287
:104403001693740F800512108D74031208AB7F038B
:1044130002065474F71203EF74FD120974851882AF
:10442300851983740AF07401120B76E9F074021291
:104433000B76EA12444912169302349B851882853F
:104443001983EAF0A3EBF0AA18AB192274F612034E
:10445300EF74F7120974EAFEEBFF1244AB122C5B04
:1044630074021245ECAA18AB19121225EE2431126C
:1044730055A31244B18A828B83E8F0A3E912429ECA
:104483001255C8120898740212093E79831A1AEF5A
:10449300FB12224574021208ABE9F5087007EEFA25
:1044A300EFFB122125025B10125534740122FB8AA3
:1044B300828B831244BA22E024FFF8A3E034FFF98D
:1044C3002274F01203EF12604B120B1F7808790C61
:1044D30012030078081208907AE27B19022AB87452
:1044E300F41203EF74C61209749003DDE0640F60E5
:1044F30010851882851983742E1244491221F7807E
:10450300277AD97B1912231D122AE21202A78808DF
:104513008909E4F50AF50B78081208907AD97B1912
:1045230012231174041208AB743A022AD174F512DF
:1045330003EFEAFEEBFF8E828F83A3E0F8600302B2
:1045430045D5EE243012429664026007E0640360AE
:104553000278E8EE2426F582E43FF583122ADB4055
:104563000478E88070E8706AEE2426FAE43FFB7969
:10457300E1120ED1EE2431FAE43FFB7950120ED151
:10458300EE243012429664027014EE2428F582E47D
:104593003FF583125A889003EC1245FB8012900377
:1045A300EC74FEF0A3041245EC7AE37B03121231A0
:1045B300EE241B1238B91208947C0B7D007AEB7B36
:1045C3001912108D74031208ABEEFAEFFB1221617E
:1045D300E9F8E86011E88E828F83A3125A0A7417F0
:1045E30012469B1221F7024411F0EE2428FCE43F0B
:1045F300FD22125A8C901A741245FF22E8F0A3E9A7
:10460300F02274F61203EF74F71209749019F6E0AE
:10461300703B7401F0F9120FBBAA18AB19122227D1
:104623007508EB750919780812089875080175095A
:104633000078081208989003F212072374061209EF
:104643003E7A03790512224B74061208AB025B1201
:1046530074F71203EFEAFEEBFF7901120FC18E82AA
:104663008F83E064207004A374EBF09019F6E0A24A
:10467300E25003C2E2F0E0A2E150081248B1122175
:104683005B800C8E828F83742A12469B1221F70261
:10469300475E8E828F83742CF0EEFAEFFB2274F464
:1046A3001203EF74FE120974EAFEEBFF7901120F95
:1046B300C17AD97B1912231D7AE27B1912231D12A9
:1046C30049FB851882851983124A29E0F50B70117D
:1046D300AA18AB197953120ED1124726794A120E32
:1046E300D11238B61208947C0B7D007AEB7B191239
:1046F300108D74031208AB851882851983124F41FC
:10470300A90B1221559019F6E0A2E1500C7A008E04
:10471300828F83A3E0F912215B9019F6E4F074020F
:10472300022AD1EE2413FAE43FFB2274F71203EFBB
:10473300EAFEEBFF8E828F83A374EBF09019F6E011
:10474300A2E150077A0079EB12215BEEFAEFFB123C
:1047530021918007EEFAEFFB1222937F01020654A8
:1047630074F71203EFEAFEEBFF7901120FC17AD956
:104773007B1912231D7AE27B1912231D9019F3E48E
:10478300F09019F6F07AFF7BFF8E828F83A3E0F916
:1047930012215580C674F71203EFEAFEEBFF1221D4
:1047A3008B80B174F71203EFEAFEEBFF7901120F6E
:1047B300C18E828F83A3A3A3A3E06004740080024D
:1047C30074EB1247F85003C2E2F0E0A2E150081282
:1047D30048FA12215B8014A2E050108E828F8374FA
:1047E3002AF0A374EB12469B1221F7EEFAEFFB12A9
:1047F300213702475E8E828F83A3F09019F6E0A2E1
:10480300E22274F61203EFEAFEEBFF9019F6E0D210
:10481300E1F07901120FBB8E828F83A3E0703C120B
:10482300222DE9FAEE240DF508E43FF50978081284
:104833000898750801750900780812089812486FDE
:10484300120723EE2402FCE43FFD790512224B7488
:10485300061208ABE98E828F83A3F08E828F83A327
:10486300E060067A00F912215B025B17124873229B
:10487300EE240BF582E43FF5832274F71203EFEA8B
:10488300FEEBFF7901120FC18E828F83E0642070EB
:1048930004A374EBF09019F6E0A2E25003C2E2F035
:1048A300E0A2E150061248B112215B02475EC2E169
:1048B300F07A008E828F83A3E0F92274F71203EF5C
:1048C300EAFEEBFF7901120FC17AD97B1912231D7E
:1048D3008E828F83A3A3A3A3E06004740080027479
:1048E300EB1247F85003C2E2F0E0A2E1500612488F
:1048F300FA12215B0247EEC2E11235FBA3E0A2E408
:10490300E433FA8E828F83A3E0F92274F71203EF64
:10491300EAFEEBFF7901120FC18E828F83A374EB42
:104923001247FD5003C2E2F0E0A2E150061248B183
:1049330012215B02475E74F71203EFEAFEEBFF7A84
:10494300D97B1912231DEEFAEFFB1221B50247574B
:1049530074F71203EFEAFEEBFF7AD97B1912231DDA
:10496300EEFAEFFB1221B502475E74F71203EF7400
:10497300EF120974EAFEEBFF1257C57AE37B0312C9
:10498300121FE960628518828519837409F0740126
:10499300120B7674EFF01249FBF87402120B76E8EF
:1049A300124A29A3A3E0C0E07404120B76D0E012EC
:1049B3004A16640870158E828F83A3A31249EFE011
:1049C300C0E07405120B76D0E080067405120B76F6
:1049D300E41257F77406120B76AA82AB8312225D98
:1049E300AA18AB19121693741102349D125812248B
:1049F30007F582E438F58322EE124A0D125A8C88A9
:104A0300828983E0FCA3E0F9EC221255B1FB8A8290
:104A13008B8322124A1A22124A1FE022F08E828FBF
:104A230083A3A3A3A322F0A3E9124A42124A332287
:104A3300124A3722E0F8A3E0F5838882A3A322F089
:104A43008A828B8322C082C08312229F024202C0C9
:104A530082C083901A1374B3F0A37419F0A374CFB4
:104A6300F0A37419F0901B5974BCF0A37427F0A33E
:104A730074F8F0A37426F09019FF744FF0A3742117
:104A8300F09019FCE04401023D33C082C083EAFC8C
:104A9300EBFD790212220302420274F61203EF7451
:104AA300FE1209749019F8124AEF60077AF87B191D
:104AB30012221B9019FEE4F0900AA3124AEF60241D
:104AC3008007AA18AB1912221B9019F7E0F91210EC
:104AD300C38A088B09A808A9098518828519831236
:104AE30036D870DE7402025B14901998125A8CE85F
:104AF300492274F71203EFE9FA7B009019F7E0F902
:104B03001210ED02475E74F71203EF74F01209748A
:104B1300EAFCEBFDE9FE8C828D83E0F87435124CE0
:104B230031342AF583E493C0E07401120B76D0E0AC
:104B3300F0640B700DEE8C828D83A3F01222810240
:104B43004C2CE07003024C2C640C6003024C1D746B
:104B53001A6E700B7404120B76E4F0A3024C1C74EF
:104B630004120B76ECF0A3EDF0EC2432F582E43D75
:104B7300F583E0C0E07403120B76D0E0125D6A1295
:104B83000B477406120B76120B3B8C828D83125AE1
:104B93007F740A120B76E8F0A3E9124C36E0541046
:104BA3006009851882851983E48017EC2412F58245
:104BB300E43DF583E0F89003FFE0C3988518828510
:104BC3001983F0E0C0E0740C120B76D0E0F0EC2413
:104BD30015F582E43DF583E0C0E0740D120B76D049
:104BE300E0F0EC2416F582E43DF583E0C0E0740EBA
:104BF300120B76D0E0F0EC2417F582E43DF583E068
:104C0300C0E0740F120B76D0E0124C36A3E05401CF
:104C130060087401120B767411F07402120B76EEB5
:104C2300F07401120936121693741002349D28F59C
:104C330082E422F0EC1254883DF58322C082C083C3
:104C43009019FEE064037004790180027900024246
:104C53000274F71203EF9019FEE0124CCF74572839
:104C6300F582741B39F5831251BAC2E7F0124CD6A0
:104C7300A3E493FE25E0FCE433FD74572CF5827422
:104C83001B3D12553CEC4D6005EE9019FEF08A82F7
:104C93008B83E025E0FCE433FDE82CF582E93DF568
:104CA30083E493FCC4540F25E0F8740D124C3134A3
:104CB3001AF583124AEF700512226F800CEC540F21
:104CC300124CD612416712249002475E25E0F8E4A5
:104CD30033F92225E0FCE82CF582E439F5832274CC
:104CE300F21203EF74FE120974890B8A088B0912FE
:104CF3004DD0FA7B001210AB8A0C8B0DAE0CAF0DAE
:104D0300EE4F602E8E828F83E50BF0A3E4F0F50A5D
:104D13007808120894124DDD122C31FB12108D7499
:104D2300031208ABEEFAEFFB9019F7E0F91210B794
:104D33008012851882851983E50BF0791AAA18ABBE
:104D4300191221EB0230D074F01203EF74FE120932
:104D530074890B8A0E8B0F124DD0F508FA7B001263
:104D630010AB8A0C8B0DAE0CAF0DEE4F60468E82EE
:104D73008F83E50BF0A3E4F0A808EE28F8E43FF9ED
:104D83008E828F83A3A3124DEF850E08850F09F53D
:104D93000A7808120894124DDD12304E12108D74E9
:104DA300031208ABEEFAEFFB9019F7E0F91210B714
:104DB30079008014851882851983E50BF0791AAA86
:104DC30018AB191221EB791A7402022ABD7409294E
:104DD300F582E4342AF583E49322A80B74FE124C83
:104DE300313429F583E493FC7D00EE221245FF8ED6
:104DF300828F83A3A3A3A3E4F022C082C083E9909C
:104E030019F7023D3374F61203EF74FE120974EAC4
:104E1300FEEBFFEE542070308039A8A8C2AF901982
:104E230097E014123C5C8A828B83124F319019FAFB
:104E33001265901221F7851882851983E064156045
:104E4300077AFA7B1912221B7A917B191210D5EA81
:104E53004B70C7EF54807012801C9019FA12659042
:104E63001221F77AFA7B1912221B9019F7E0F91233
:104E730010C3EA4B70E4EE5410600E851882851956
:104E830083742D1244491221F7EEA2E0500E8518C7
:104E93008285198374241244491221F7EE54026067
:104EA3000E85188285198374251244491221F7EE61
:104EB3005404600E8518828519837426124449129E
:104EC30021F7EE5408600E85188285198374281221
:104ED30044491221F7EE544060107401120B76120C
:104EE3004F4B742C1244491221F7EE548060107416
:104EF30001120B76124F4B742F1244491221F79073
:104F030019F8124AEF6020A8A8C2AF9019F8124FFF
:104F1300419019F8E4F0A3123C5C12658F1221F75B
:104F23007AFA7B1912221B7A007B00024AE7124F9E
:104F33003522E0851882851983F022901976124F65
:104F43004522E0FAA3E0FB22E4124F5022F0851839
:104F53008285198322C082C0839019FA125A88EA83
:104F6300687002EB6970079019FAE4F0A3F002424B
:104F73000274F71203EFEAFEEBFFEE4F7003120B1E
:104F8300E3A2AFE433F508C2AF8E828F83124AEFF8
:104F93006028E824FBFAE934FFFB9019FA12553E26
:104FA300E86C7002E96D70079019FAE4F0A3F08ED3
:104FB300828F83E4F0A3F01211470232F2C082C061
:104FC30083901A217463F0A37422F0A37475F0A381
:104FD3007422F0A3747BF0A37422F0A37431F0A3C2
:104FE3007421F0A37481F0A37422F0A3742BF0A3B3
:104FF3007421F0A37437F0A37421F0901A2F74B1C5
:10500300F0A37422F0A37487F0A37422F0A3748D29
:10501300F0A37422F0A37499F0A37422F0A3749301
:10502300F0A37422F0901A20E4023D33C082C083BF
:105033009003ECE064FE7003A3E0F470097CE37D6D
:1050430003121225801C8A828B83A3A3A3A3A3A389
:10505300A3A37402F09003EC125A888A828B831202
:1050630045FB024202C082C0839003F6C3E094FE74
:10507300A3E094FF4004790380027902024202C054
:1050830082C0831251C38C828D8312517868703928
:10509300740268701C8A828B831250D1E068702975
:1050A3008A828B83A31250D1A3E068701C7901809C
:1050B3001A7403687013EC2405FC50010DEA2405EF
:1050C300FA50010B12122B80027900024202A3A3B1
:1050D300A3A3A3E0F88C828D83A3A3A3A3A3227429
:1050E300F61203EF7E00740A120B76E012516CFF86
:1050F3008A828B83A3A3A3A3A3A3A3A3E06F706458
:1051030074026F704E8A828B83C082C083888289C7
:1051130083A3A3A3A3A3E0F50888828983A3A3A3FE
:10512300A3A3A3E0FBAA08D083D082E06A7003A301
:10513300E06B703088828983A3A3A3E0FA88828915
:1051430083A3A3A3A3E0F9EA6C7002E96D70157E53
:1051530001801174036F700CE82405FCE439FD121F
:10516300122BE9FEEEF9025B17F8A3E0F9888289B6
:105173008312517822A3E01313543F540322C082B5
:10518300C0838A828B83A3A3A3A3A3A3A3A3E06463
:105193000270169003EC1251BA687003A3E06970B1
:1051A300047901800F7900800BEAFCEBFD7AE37B45
:1051B3000312121F024202125A8C8A828B83E0224C
:1051C3008A828B83125178F82274F01203EF74FCF5
:1051D300120974E9851882851983F07402120B761B
:1051E300ECF0A3EDF08A0A8B0B7508007402120B26
:1051F30076122A87C0E07401120B76D0E01254783D
:10520300A2E75008750EFF750FFF800A9003F2E0C6
:10521300F50EA3E0F50F851882851983E0C2E71226
:10522300547D5420600712544A7408800412544A6F
:10523300E412547D5404600712545574808005129F
:105243005455741012547D54106006125434E48083
:105253000B9003FFE0C0E0125434D0E012547DA25F
:10526300E050037508205408600674104508F508DB
:105273008A828B83A3A3E024FFFEA3E034FFFFEA2B
:1052830012543FC39402E0400F640B6009E0148E94
:10529300828F8312546E74034508F50875090090D4
:1052A3000412E0640170118A828B83A3A3A3A3E099
:1052B300C394674003750910851882851983E0F547
:1052C3000C750D00740E780C120A18E50D4509F5DE
:1052D30009E0640270199003F7125D5FF09003F622
:1052E300E0C0E0123055D0E0F0EE24FEFE801CE07A
:1052F3006403701DEE24F9FEEF34FFFF7C067D048A
:10530300EEFAEFFB121231EE24FF1EEF34FFFF80A3
:1053130003E0602F7401120B76E060187414120B13
:1053230076E0650E7004A3E0650F700874404508CD
:10533300F508800F8E828F83E50FF0123055E50E4E
:105343001254647401120B76E0F50C750D00740AA7
:10535300780C120A18E50D4509F509E0640270237B
:105363007402120B76125BD38E828F83F074021257
:105373000B76123172C0E0123055D0E0F0EE24FE0D
:10538300FE8020E064037021EE24F9FEEF34FFFF7A
:105393007402120B7612553EEEFAEFFB121231EE47
:1053A30024FF1EEF34FFFF8003E060197414120B17
:1053B30076125D5EF07414120B76E0C0E012305585
:1053C300D0E0125464EEF8EFF9E824FF1EE934FF4D
:1053D300FFE50A12543F70059003E280039003EE49
:1053E300E0FA04F0EA88828983125A0AE509125422
:1053F3006E8E828F83E508F0E50A2404F8E4350B0A
:10540300F9E50A2402FAE4350BFBEEFC8A828B836E
:10541300E0F50888828983E02508C39C124A42EE9E
:10542300F0A3EFF0850A82850B83A3E4F0F9022A47
:10543300BBEA2412F582E4350BF58322240DF582B1
:10544300E4350BF583E022EA2410F582E4350BF50D
:105453008322EA12545E350BF583222411F582E48C
:1054630022F0EE24FEFEEF34FFFF22F0EE24FF1EB7
:10547300EF34FFFF22124F50E022F0EA1254883536
:105483000BF583E022240EF582E42274F11203EF7C
:1054930074FE120974851882851983ECF0A3EDF06C
:1054A300890B8A0E750A1A7415120B761263E712AA
:1054B30020D18A0C8B0DAE0CAF0DEE4F605F7413D1
:1054C300120B76E012552CE8F0A3E9122C5EE50BE3
:1054D300F0750A00780812089412304912108D747E
:1054E300031208AB7411120B761207237402120B0A
:1054F3007612553EA90EEEFAEFFB12224574021204
:1055030008ABE9F50A7016E50B24F960031470067D
:10551300123279D2E5F0EEFAEFFB122125A90A74D3
:10552300021208AB7F07020654F8A3E0F9125534C0
:1055330022EE1254883FF58322F583E0FCA3E0FDBD
:105543002274F61203EF74F7120974EAFEEBFF7884
:1055530001EE243212429660027805124160E8128D
:105563002C5B74041255BB121225EE242F1255A383
:10557300122C3724311242961255C812089874021D
:1055830012093E79031A1AEFFB122245740212081C
:10559300ABE9F5087007EEFAEFFB122125025B1069
:1055A300F582E43FF583122AB0EE1255B1222402AC
:1055B300F8E43FF9E8FAE922F0EE2426FCE43FFDA3
:1055C300AA18AB192288828983124A1A04F0780830
:1055D3002274F21203EF8A088B09ECFEEDFF8A8234
:1055E3008B837405F0EE24321242968A828B83A356
:1055F300A3F0EA2403F50AE43509F50B850A82F5DD
:1056030083E0F50CA3E0F50DEE2425F582E43FF5E8
:1056130083120B47E50C12545E350DF583120B3BD9
:105623001257C5AA0CAB0D121225850A82850B836E
:10563300125BD8FAA3E0FB88828983A3A3A3126534
:105643008AEE242F124296C0E01257CDD0E01258B2
:10565300042415F582E438F583E41258041240BAA1
:10566300E41257F7850A82850B83E02416FAA3E038
:105673003400FB12225D8E828F83A3A3A3A3A3A373
:10568300A3E0C0E0850A82850B831257EA240DF557
:1056930082E438F583D0E01257EEFAA3E0FB850AE3
:1056A30082850B83125A88E8240BFCE439FD8A8235
:1056B3008B83E08C828D83F0A3E4125817E0F50B03
:1056C3008C828D83A3E0450B125817A3E0FCEA24D8
:1056D30003FA50010BECA2E7E433C0E0E8240FF532
:1056E30082E439F583D0E0F074075C6004780180CC
:1056F30002780075F00374075CA428F8EA28FAE43A
:105703003BFBE5082405F8E43509F98A828B83E03D
:1057130088828983125817AA82AB838508828509F8
:105723008312658A88828983E0F50A25E0540EFC9A
:10573300E50AC4540FF50A750B007403780A120ABC
:1057430018E50A5438F8EC28F8EA28F8E43BF98518
:105753000882850983A3A3A3A3A3A3A3A3A3E8F018
:10576300A3E9124A16FA8E828F83A3A3E02AFAA32F
:10577300E03400FBC3EA98EB9940288E828F83A321
:10578300A3E0F8850882850983A3A3A3A3A3A3A306
:10579300A3A31257DBC39A28850882850983A3A391
:1057A300A38016850882850983A3A3A3A3A3A3A328
:1057B300A3E4F0850882850983A3A3A3A3A3F0022E
:1057C30030D5EE2413FCE43FFD221257D122E82406
:1057D30010F582E439F58322E0FA8E828F83A3A346
:1057E300A3A3E02290199812581222F08E828F837D
:1057F300A3A3E0221257FB22F0EE2408FCE43FFDB2
:1058030022F0850A82850B8312581222901998126E
:1058130040E4C822124A42A32274F51203EF8C0813
:105823008D09750A0078081208947C0B7D000244E8
:1058330009020878C082C08379181221EB02420260
:10584300C082C0838A828B83E0C3940B50031222ED
:1058530069024202C082C083791980DE74F71203A1
:10586300EFEAFEEBFF9019F8124AEF60109019F877
:10587300124F411222757AF87B1912221BEEFAEFAE
:10588300FB1222159019F8EEF0A3EFF002475E74B5
:10589300F71203EF74DE120974EAFEEBFF8E828FB8
:1058A30083E024FD601124FE601524ED600924FAD1
:1058B300600D14600A803D7416120B76E480077441
:1058C30016120B767401F0123CFD740B120B76AAC0
:1058D30082AB831212317413120B7612596D120BB1
:1058E300761245FB740A120B76125979120B761253
:1058F30045FB80417416120B767402F01257C5747F
:105903000B120B76AA82AB831212317413120B762D
:1059130012596D120B761245FB740A120B7612594B
:1059230079120B76E8F0A3E9125967120B76AA8273
:10593300AB8312225D851882851983740B125A0A70
:10594300A3E0C0E07401120B76D0E0125967120B8A
:1059530076AA82AB8312225DAA18AB19121693742E
:105963002202349D1257FB7417227403F09003F63E
:10597300125A8C7402227402F09003F2125A8C743D
:10598300142274F71203EFEAFEEBFF8E828F83A3D8
:10599300E0F5087036EE242F1259FA7003A3E0697C
:1059A30060037508E8EE2426FAE43FFB12223FE980
:1059B3006032EE2432F582E43FF583E4F0E50870CB
:1059C3000AEEFAEFFB122251E9F508E50860128EA0
:1059D300828F83A3E508125A0A741912469B122177
:1059E300F702475EEE243212429660D1901A1FE00E
:1059F30070CB7508E880D8F582E43FF583125A8CA2
:105A03009003F2E06822E4F08E828F8322C082C08A
:105A13008374F11209747402120B7674041258170A
:105A2300E0C0E07403120B76D0E0F0EA242FF58295
:105A3300E43BF583125A88740D120B761245FBEA88
:105A43002426FCE43BFD7404120B76AA82AB83127A
:105A530012257404120B76AA82AB8312223FE960EB
:105A63000E125A91120ED19003EC74FFF0A3F0744E
:105A730002120936121693740F02399CA3A3A3A32F
:105A8300A3A3A3A3A3125A8C221240E4F9228518DC
:105A93008285198374FFF0A3F0AA18AB19795322F6
:105AA30074F61203EF74E8120974EAFEEBFF740252
:105AB300120B767403F0EE2413F508E43FF509ACFA
:105AC30008FD7404120B76AA82AB831212311231D1
:105AD3006CC0E0740C120B76D0E01257F7740D1201
:105AE3000B76AA82AB8312225DAA08AB0912223F6E
:105AF300E9600E125A91120ED19003EC74FFF0A3D9
:105B0300F0740212093612169374188004A90874EB
:105B1300091208AB7F0202065474F61203EF74D421
:105B2300120974EAFEEBFF8E828F83A3A3125BD369
:105B3300A2E650179003F2125BD8687003A3E069E2
