:020000040000FA
:06000000020B02020244A3
:03002B000208F2D6
:030033000204AA1A
:030053000201792E
:03006B0002045B31
:03007B0002048DEF
:100083000201D80100F0FF0700080000FFFF000095
:1000930003040000000300010020FD00080D140DFF
:1000A300000000000E0D1A0D0E0D260D00000000BD
:1000B3000E0D1A0D000000000000000000000000FB
:1000C300000000000000000000000000440D4A0D85
:1000D300500D980D00000000000000004482408293
:1000E3003C82388220821C82CC828C827C82788201
:1000F30074825C8201AACDABCDAB0101D88201DE53
:10010300820206FFFF010400000017000000E8035D
:100113000000FFFF7A170188130000E80300006462
:10012300006400B801A0BB0D00A0BB0D00020202D9
:1001330007040101051E02051E020A0A010108093E
:10014300080103B80B02803E0102FEFFE8030A0523
:100153000001FFFF010A011401E00105030101FF92
:100163000F10FEFF772700000000AD2600000000FF
:10017300FF000000FF00C0E074F11204BCA2AFE472
:1001830033F509D2AF85A708AFA1EF5508FE741068
:100193005E6006120E0475A1EF74085E6008120E0D
:1001A3000A75A1F78024EFA2E092F0E508A2E082AD
:1001B300F05017906198E0F89003C4E0C398A2D27E
:1001C30065D0335002E8F075A1FEE509A2E092AFD5
:1001D3007F0202051BC0E074F21204BCA2AFE43339
:1001E300FED2AF9061A4E0F8759B00E591585408E6
:1001F30060087591F7120E588023E59158541060EA
:10020300087591EF120E5E8014E591A2E092F0E87A
:10021300A2E082F05007E0C2E0F0120FA89061A3C1
:10022300E0F8E5E9585404600E120F7E75E9FB907F
:100233006193E0A2E640F2EEA2E092AF7F010205F5
:100243001BC0E074F21204BCA2AFE433FED2AF9041
:1002530061A5E0F8E5BF585404600675BFFB120FB3
:10026300C080D4C3E498F8E499F91202A78026C3A6
:10027300E49AFAE49BFBE920E7E91202A7E498F881
:10028300E499F922C3E498F8E499F91202A7E498EF
:10029300F8E499F9C3E49AFAE49BFB22EB20E7CF55
:1002A300E920E7E0B90010BB0008E88AF084F8AA67
:1002B300F022E4FBC8FA22EB70227B10C833C8C9D2
:1002C30033C9335007C39AC3DBF280069A50012A1D
:1002D300DBEAC833F4C8C933F4C9FA2275F008E479
:1002E300C833C8C933C933C99AC99B5004C92AC979
:1002F3003BD5F0ECFBC833F4C8E4C9FA220808087C
:10030300EAC0E0EBC0E086F0E7A4FA180986F0E75C
:10031300A42AFA180986F0E7A42AFA180986F0E74E
:10032300A42AFA1986F0E7A4FBE5F02AFA1908864D
:10033300F0E7A42BFBE5F03AFA190886F0E7A42BC3
:10034300FBE5F03AFA18180986F0E7A4C5F02BFB91
:10035300E43AFA1908E7C5F0C6A426F6E5F03BFB34
:10036300E43AFA1886F0E7A4F6E5F00826F6E43B4B
:1003730008F6E43A08F6D0E0FBD0E0FA22E4CFC076
:10038300E0E4CEC0E0E4CDC0E0E4CCC0E075F02012
:10039300E626F608E633F608E633F608E633F618FB
:1003A3001818EC33FCED33FDEE33FEEF33FFC3ECF3
:1003B3009709ED9709EE9709EF97191919400FFF60
:1003C300EC97FC09ED97FD09EE97FE191906D5F098
:1003D300BFECF709EDF709EEF709EFF7191919D093
:1003E300E0FCD0E0FDD0E0FED0E0FF222518C5827E
:1003F300C0E0E51934FFC583C0E0E518C395822446
:10040300F810AF08858319858218800885831985BC
:100413008218D2AFCEF0A3E520F0A37808E608F067
:10042300A3DEFAEFF0A3E58124FAF8E608F0A3E6E9
:1004330008F0A3E608F0A30808E608F0A3E608F02E
:10044300A315811581D0E0FED0E0F8158115811543
:1004530081E8C0E0EEC0E022C0E074F21204BCA266
:10046300AFE433FED2AFE589A2E0400CE589A2E117
:100473004006E589A2E25003120C3C758900C2C50F
:10048300EEA2E092AF7F0102051BC0E0C0D0E8C03E
:10049300E0A8A8D2AF758A00C2EBE8A2E792AFD07A
:1004A300E0F8D0D0D0E032C0E0C0D0E8C0E0A8A8E7
:1004B300D2AF758B00C2E880E1C0D02518C582C0D9
:1004C300E0E51934FFC583C0E0E518C3958224F342
:1004D30010AF088583198582188008858319858262
:1004E30018D2AFC8F0A3E9F0A3EAF0A3EBF0A37925
:1004F30008E709F0A3D8FAECF0A3EDF0A3EEF0A31C
:10050300EFF0A3D0E0F0A3D0E0F0A3D0E0F0A3E5B8
:1005130020F0A3E5F0F0A322851983851882E0C0BB
:10052300E0A3E0F9A3E0FAA3E0FBA37808E0F60870
:10053300A3DFFAE0FCA3E0FDA3E0FEA3E0FFA3E05A
:10054300C0E0A3E0C0E0A3E0F5D0A3E0F520A3E082
:10055300A3F5F010AF088583198582188008858379
:1005630019858218D2AFD082D083D0E0F8D0E032A0
:10057300120B7CB900030205B2E49003017875798C
:10058300188002F0A3D8FCD9FA7A757B1A900086FA
:1005930078F479018015E493A3AD82AE838A828BCC
:1005A30083F0A3AA82AB838D828E83D8E9D9E775C2
:1005B30082FB7583B274051208837582A875832440
:1005C300740012088375F0108E1A8F1B85821F85A5
:1005D300831E851882851983E0CEA3E0CF851F8211
:1005E300851E83EBC9EAC8EDCBECCAC3E833C8E97F
:1005F30033C9EA33CAEB33CBC3EA9EF51DEB9FF550
:100603001CB35004AB1CAA1DEC33CCED33CDD5F099
:10061300DAAE1AAF1B22D083D082ECC0E0EDC0E08B
:10062300E493A3FCE493A3FDED4C600D1206F1ECFF
:1006330024FFFCED34FFFD80EFE493A3FCE493A3DC
:10064300FDED4C600D12078EEC24FFFCED34FFFD35
:1006530080EFD0E0FDD0E0FCE493A3C0E0E493C0DE
:10066300E022851983851882E0A3FEE0A3F52078B4
:1006730008E0A3F608DFFAE0A3FFE0A3C0E0E0A3ED
:10068300C0E0E0A3C0E0E0A3C0E0E0A3C0E010AF9F
:10069300088582188583198008858218858319D275
:1006A300AFD083D082020889D083D082E9C0E0E44E
:1006B30093A3C386F0C5F095F0F908E493A386F0FD
:1006C300C5F095F0700BE493A3C3994005E904804A
:1006D30002A3E475F002A42582F582E5F03583F5E3
:1006E30083D0E0F9E493A3C0E0E493C0E022C0E048
:1006F300C3E49396087401939618400FE4936670CD
:100703000808740193661870007019A3A3C3E493D7
:1007130096087401939618A3A3400DD0E0D0E0D0BF
:10072300E0020655A3A3A3A3A3A3D0E022740480ED
:100733000474028000CCC0E0EDC0E0E518C39CCC9B
:10074300AD1950011D10AF068C188D1980068C1839
:100753008D19D2AF120805D0E0FDD0E0FC2274025F
:100763008000CCC0E0EDC0E0E518C39CCCAD1950CF
:10077300011D10AF068C188D1980068C188D19D2A7
:10078300AF1207E3D0E0FDD0E0FC22C0E0C0F08868
:10079300F0E4936670080874019366187000A8F07B
:1007A300A3A3700BD0F0D0E0D0E0D0E0020655A3B5
:1007B300A3D0F0D0E022D083D082CCC0E0E493A3D6
:1007C30060061208641470FAE493A3600612096FBA
:1007D3001470FAD0E0FCE493A3C0E0E493C0E022F9
:1007E300CAC0E0E493A3C582CCC582C583CDC583CB
:1007F300F0A3C582CCC582C583CDC583DAE5D0E03D
:10080300CA22CAC0E0E0A3C582CCC582C583CDC5D8
:1008130083F0A3C582CCC582C583CDC583DAE6D078
:10082300E0CA22C008C3E096F50808A3E096420890
:1008330008A3E096420808A3E09645087001D3D0C8
:1008430008227009080808226016181818C6C3334E
:10085300C608C633C608C633C608C633C6D5E0EADB
:1008630022C0E0E493A3D39C5010E493A3C39C4021
:100873000AD0E0D0E0D0E00207D6A3A3A3D0E022C1
:10088300C09FF59FE473D09F22D083D082C09FE4A2
:1008930093C0E0740193C0E0740293F59F22740443
:1008A300800A74038006740280027401C0E0F404B9
:1008B3001208D7D0E0120B3F2200C0D0251810AF8A
:1008C30008F518500C05198008F51850020519D2BF
:1008D300AFD0D0222518F58210AF08F518400C15BB
:1008E300198008F51840021519D2AF85198322C063
:1008F300E0C0D0E8C0E0A8A8D2AFC2C7E8A2E792A0
:10090300AFD0E0F8D0D0D0E032BB0102E722C08202
:10091300C08389828A83BB0003E08002E493D0838F
:10092300D082226016080808C6C313C618C613C6A9
:1009330018C613C618C613C6D5E0EA222518F8E46C
:100943003519F9222518FAE43519FB222518FCE498
:100953003519FD22C3E0C696F608A3E0C696F6084D
:10096300A3E0C696F608A3E0C696F622C0E0E49399
:10097300A36C7009D0E0D0E0D0E00207D6A3A3D0E7
:10098300E022251810AF08F518400C15198008F55A
:100993001840021519D2AF22E066701008A3E06672
:1009A300700A08A3E066700408A3E06622C3E09619
:1009B30008A3E09608A3E09608A3E096A2D265D028
:1009C3003322E76670100809E766700A0809E766CC
:1009D30070040809E76622C3E096F008A3E096F0E6
:1009E30008A3E096F008A3E096F022C3E697F60882
:1009F30009E697F60809E697F60809E697F622C38B
:100A0300E49396087401939608740293960874030A
:100A1300939622E627F60809E637F60809E637F63D
:100A23000809E637F622700422600D18C6C333C6E0
:100A330008C633C6D5E0F41822E493F6087401938C
:100A4300F608740293F608740393F622E657F60841
:100A530009E657F60809E657F60809E657F622E0CD
:100A630056F608A3E056F608A3E056F608A3E056A8
:100A7300F622E056F008A3E056F008A3E056F0088B
:100A8300A3E056F022E026F608A3E036F608A3E03A
:100A930036F608A3E036F622E647F60809E647F6F7
:100AA3000809E647F60809E647F622E026F008A318
:100AB300E036F008A3E036F008A3E036F022E4C302
:100AC30096F608E496F608E496F608E496F622C647
:100AD300F4C608C6F4C608C6F4C608C6F4C622C3DC
:100AE300E7960809E7960809E7960809E79622C3F7
:100AF300E09608A3E09608A3E09608A3E096227583
:100B0300D00075813F75180175190300020573E65E
:100B1300F008A3E6F008A3E6F008A3E6F022600CD1
:100B230008C6C313C618C613C6D5E0F422E0F608F8
:100B3300A3E0F608A3E0F608A3E0F622CAC0E0E6C5
:100B4300F0A308DAFAD0E0FA22E8F0A3E9F0A3EA86
:100B5300F0A3EBF022E0F8A3E0F9A3E0FAA3E0FBB3
:100B630022EAF0A3EBF0A3ECF0A3EDF022E0FAA36A
:100B7300E0FBA3E0FCA3E0FD22E5C754F84401F544
:100B8300C77901222518F582E43519F58322C2AF0E
:100B930075D69F0200002212088C84DE0412088C92
:100BA30014DF0412088CABDF0412088CF7DF041285
:100BB300088C28E00412088C5FE00412088CF0E132
:100BC3000412088CBAE20412088C94E30412088C11
:100BD30038B80512088C3DB80512088C6FB8051299
:100BE300088C02B90512088CE1FF0312088CFCFF84
:100BF3000212088C83C20512088C81C00512088C6E
:100C030091C00512088CA3C00512088C1AC10512E5
:100C1300088CFAFE0212088C7DFF0212088CE3FF97
:100C23000212088CB2AE0512088CE6AE0512088CCF
:100C33004FAF0512088C33B00512088C8DB0051226
:100C4300088CE8970512088CF6970512088C6F98A4
:100C53000512088C69990512088C3F9B0512088CB4
:100C63004BC20512088CF7FF0112088CFAFF011220
:100C7300088CC0B60512088CD0B60512088C8CB748
:100C83000512088C9BB70512088C1B9A0412088C5A
:100C93007B9A0412088C359B0412088CDF9C041287
:100CA300088C7F9D0412088CC59D0412088C309E0D
:100CB3000412088C9E9E0412088CDF9E0412088C7A
:100CC3004C9F0412088C8AA00412088C9FA0041263
:100CD300088CC5A00412088C32A10412088CA3A1AD
:100CE3000412088C23A20412088C94A20412088C08
:100CF300BEA20412088C86A40412088CBEA504129A
:100D0300088CE1A60412088C73A70412088CE3A7CD
:100D13000412088C49A90412088C07AB0412088C2E
:100D2300C1AC0412088CBAAD0412088C67B104126A
:100D3300088C85B30412088CD7B00512088C45B112
:100D43000512088C67B20512088C6AB20512088C6A
:100D530070B20512088C88B20512088CA9A7051277
:100D6300088CE8A70512088C25A90512088CA49BFA
:100D73000512088C489C0512088CF79C0512088CF8
:100D8300BB9D0512088C379E0512088C9B9E05128D
:100D9300088CEFB40512088C4AB50512088C267A24
:100DA3000012088C527A0012088CC37C0012088C43
:100DB300037D0012088C437D0012088C577D0012BE
:100DC300088C707D0012088C617E0012088C067FEF
:100DD3000012088C1A7F0012088C13BB0512088CB2
:100DE30037BB0512088C50BB0512088C82BB051259
:100DF300088CB2BB0512088CDFBB0512088C41BC02
:100E03000512088C50BC0512088C5ABC0512088CBC
:100E130067BC0512088C04A50512088C24A50512CD
:100E2300088C63A50512088C7EA50512088C9DA568
:100E33000512088C03A60512088C0CA60512088C53
:100E430069A60512088C78A60512088C9CA60512C3
:100E5300088C5DA70512088C6AA70512088C7BA76E
:100E63000512088CC0C10512088CD8C10512088C64
:100E730004C20512088CD28B0512088C2C8D051226
:100E8300088C3A8D0512088C4D8D0512088C628DE5
:100E93000512088C778D0512088C8A8D0512088C33
:100EA300FE8D0512088C638E0512088C058F0512C2
:100EB300088CC98F0512088CD98F0512088CE88F0E
:100EC3000512088CE8BF0512088C0CC00512088CAB
:100ED30034C00512088C5CC00512088C2BAA0512BD
:100EE300088C52AA0512088C70AA0512088CE3AA72
:100EF3000512088C31A20512088C4AA20512088C2F
:100F030056A20512088C6AA20512088C88A2051243
:100F1300088C92A20512088C9CA20512088CAFA221
:100F23000512088C35A30512088CAAA30512088C98
:100F3300D9A30512088C27A40512088C76A40512E0
:100F4300088C91A40512088C9BA40512088CACA4F0
:100F53000512088CEFA40512088C25C10512088C14
:100F63001EEF0412088C48EF0412088C65EF04127C
:100F7300088C78EF0412088C8EEF0412088CECEFC7
:100F83000412088C24F00412088C18F40412088C40
:100F93005DF50412088C90F50412088CF3F5041225
:100FA300088C53F70412088C7BF70412088C90F713
:100FB3000412088CA0F70412088CE4F70412088CBE
:100FC3003FF80412088C4FF80412088CB1BD0512C7
:100FD300088CCBBD0512088CF3BD0512088C0CBE22
:100FE3000512088C30BE0512088C4EBE0512088C03
:100FF30065BE0512088C93BE0512088CAEBE0512A1
:10100300088C07C20512088C5CFC0312088C6CFC6C
:101013000312088C71FD0312088CA3FD0312088CC4
:10102300D3FD0312088CF6FD0312088C0DFE031288
:10103300088C47FE0312088CACFE0312088CEEFEEC
:101043000312088C2DFF0312088C5EFF0312088C19
:1010530089FF0312088C29FF0112088C3BFF011240
:10106300088C79FF0112088C87FF0112088CAFB935
:101073000512088CCFB90512088CE3BA0512088C47
:10108300E6BA0512088C2E7F0012088C647F0012CA
:10109300088C7E7F0012088CC07F0012088CD77FDB
:1010A3000012088C00800512088C0A800512088C37
:1010B30044800512088CAD800512088CCA80051285
:1010C300088C6C810512088C75810512088CBA8115
:1010D3000512088CE3810512088CF0810512088C37
:1010E30061820512088CEC820512088C3A83051282
:1010F300088C78830512088CDD830512088C008424
:101103000512088C77840512088CCE840512088C8E
:1011130009850512088C3E850512088C5085051239
:10112300088C62850512088C81850512088C8A85D6
:101133000512088C45860512088C91860512088CC9
:10114300CF860512088C71BC0512088C7FFF041230
:10115300088C7CAC0512088CB2AC0512088CFAAC76
:101163000512088C53AE0512088C70660012088CA9
:1011730094670012088CCE670012088C78690012FD
:10118300088CA2690012088C176C0012088C576C2B
:101193000012088CED6D0012088C8A6E0012088C08
:1011A300DC6E0012088C7F6F0012088CB76F001280
:1011B300088CF96F0012088C68710012088CB672E3
:1011C3000012088CE7740012088C15750012088C45
:1011D3003C750012088C45750012088C9575001239
:1011E300088C27760012088C56790012088CD9795E
:1011F3000012088CD4FF0412088CEAFF0412088C36
:1012030021900512088C37900512088CDB9005128B
:10121300088C1A910512088C37910512088C689175
:101223000512088CB5910512088CE8910512088CFB
:1012330023920512088C18940512088CE1BE05123E
:10124300088C40BF0512088C7EBF0512088CBFBFF7
:101253000512088C00800412088C2F800412088C5D
:10126300AB800412088CF9810412088CDF8204120B
:10127300088C53840412088C78840412088CCA8462
:101283000412088C4C850412088C8D850412088C7A
:10129300A0850412088CF7850412088CB486041206
:1012A300088C20870412088C4A870412088C9387C1
:1012B3000412088C27890412088C008A0412088CF3
:1012C300498B0412088C1C8C0412088CA48C041205
:1012D300088CE78C0412088C018D0412088C488D4D
:1012E3000412088C688D0412088C278E0412088C53
:1012F3004A8F0412088CA48F0412088CE88F0412FE
:10130300088CE4900412088C60930412088C7F9379
:101313000412088CEB930412088C10940412088CAA
:101323008D940412088C53950412088C9095041222
:10133300088C09960412088CFD960412088C0097F9
:101343000412088C0A970412088C14970412088C50
:1013530027970412088CA3970412088CD9970412B8
:10136300088CEC970412088C18980412088C3F9888
:101373000412088C63980412088C9E980412088C3B
:1013830010990412088C38990412088C429904129B
:10139300088C7E990412088C98990412088CD299AF
:1013A3000412088CE8990412088C70C10512088C89
:1013B30088C10512088CFDFF0112088C7FF8041206
:1013C300088CCEF80412088C6EFA0412088C29FCDF
:1013D3000412088C6BFC0412088C54FD0412088C54
:1013E3005EFE0412088C80FE0412088CCAFE0412EE
:1013F300088C4BFF0412088CF3E20212088C16E3EC
:101403000212088C75E40212088CBEE40212088CE6
:1014130018E50212088C7EE50212088C81E502129F
:10142300088CCDE50212088C47E60212088CDAE636
:101433000212088CDDE60212088C69E70212088C9E
:10144300ACE70212088C0DEC0212088C9FED02121D
:10145300088CE1ED0212088C55F10212088C7CF223
:101463000212088C61F30212088CEFF30212088C4B
:1014730017F40212088CD9F50212088CF6F702123F
:10148300088CF6F80212088C84F90212088C85FA8B
:101493000212088C2FFC0212088C32FD0212088CF7
:1014A30098FD0212088C44FE0212088CD0B3041279
:1014B300088C70B40412088CDAB40412088CF3B4E8
:1014C3000412088CAFB50412088C0EB60412088CF3
:1014D30012B70412088C27BA0412088C59BB0412E1
:1014E300088CDABB0412088CD9BD0412088C86BEA2
:1014F3000412088C2CBF0412088C11C00412088C2F
:10150300DCC10412088C44C30412088C54C40412B2
:10151300088CF6C40412088C15C60412088C9BDAD6
:101523000312088C0FDB0312088C57DB0312088CA1
:1015330095DB0312088CE4DB0312088C2EDC031208
:10154300088C66DC0312088CE4DC0312088C3EDD95
:101553000312088C9ADE0312088C29DF0312088C0D
:1015630040E00312088C68E00312088CAEE103121A
:10157300088CBFE10312088CD7E10312088CE1E267
:101583000312088CABE30312088CB8E40312088C33
:10159300DCE40312088CF3E40312088C14E5031251
:1015A300088C36E50312088C53E50312088C2FE6EA
:1015B3000312088C87E60312088C19E90312088CBE
:1015C30068E90312088C87E90312088C66EA0312A0
:1015D300088C9CEA0312088CB4EB0312088C31ECE0
:1015E3000312088C9EEC0312088CDAEC0312088CAD
:1015F30043ED0312088CFDED0312088CBBEF0312BD
:10160300088CBCF00312088C41F20312088C22F4FC
:101613000312088C85F60312088C2BF80312088C2E
:10162300F9F80312088C5FF90312088C76F9031298
:10163300088C66FA0312088C52FB0312088CBFFB5A
:101643000312088CF79E0512088C9CA00512088CC7
:1016530059A10512088CBDA10512088C2594051209
:10166300088C43940512088C87940512088CAD945A
:101673000512088CD3940512088CEB940512088C80
:1016830003950512088C66950512088CA89505121A
:10169300088CCA960512088CD3960512088CDC9622
:1016A3000512088CE5960512088CEF960512088C36
:1016B300FB860512088C168B0512088C248B0512E9
:1016C300088C298B0512088C7CB30512088CCBFF80
:1016D3000112088CE17F0012088C00800312088C31
:1016E30033800312088C9A800312088C268103121C
:1016F300088CCD810312088C15820312088C3A8260
:101703000312088C53820312088C79820312088C0B
:101713009B820312088CD9820312088C288303123C
:10172300088C51830312088CB0830312088C8984BC
:101733000312088C3F850312088C9D850312088CC5
:1017430063860312088CAD860312088C0487031288
:10175300088C6F870312088CAD870312088C0388EB
:101763000312088C10DA0412088C4A880312088CBE
:10177300598A0312088C9F8B0312088CCB8B03129C
:10178300088CFF8B0312088C208C0312088C2F8C7F
:101793000312088C3A8C0312088CEA8C0312088C0F
:1017A300598D0312088C068E0312088C428E031285
:1017B300088C008F0312088C0D900312088C5A902A
:1017C3000312088CE9900312088C5EDE0412088C65
:1017D30088910312088C17940312088C71950312D5
:1017E300088CBD980312088C9B990312088C729A7B
:1017F3000312088C9B9A0312088C0C9B0312088C0F
:10180300A29B0312088C069C0312088CF59C0312FE
:10181300088C1A9D0312088C7D9E0312088C9B9ED4
:101823000312088CAE9E0312088C1C9F0312088CB3
:1018330020A00312088C2DA00312088C36A00312DB
:10184300088C30A20312088C56A30312088C66A3DB
:101853000312088C5CA40312088CD8A40312088C0E
:1018630011A50312088C1FA60312088C5BA6031292
:10187300088C36A80312088C17AC0312088C21AC11
:101883000312088C35AC0312088C3FAC0312088C8E
:1018930049AC0312088C53AC0312088C6CAC0312D2
:1018A300088C76AC0312088CE6AC0312088CF1ACFE
:1018B3000312088C19AD0312088C24AD0312088C93
:1018C30072AD0312088C7CAD0312088C87AD031232
:1018D300088CABAD0312088CCFAD0312088C2CAE71
:1018E3000312088C72AE0312088C8EAE0312088C9E
:1018F30015AF0312088C4CAF0312088C8BAF031285
:10190300088CD8AF0312088C5AB00312088C06B1A6
:101913000312088CE2B20312088C50B30312088C32
:101923007CB40312088CA2B40312088CFBB5031217
:10193300088C53B90312088C8CBB0312088C6ABD44
:101943000312088C03BE0312088C28C00312088CF0
:10195300DCC00312088C15C10312088C7BC103126F
:10196300088C85C10312088CAFC30312088CBAC458
:101973000312088C02C50312088CB6C50312088C27
:1019830059C70312088CE0C80312088C00C903125C
:10199300088C53C90312088C53CA0312088C7BCAE0
:1019A3000312088CDECA0312088CC1CB0312088C05
:1019B30033CC0312088C45CD0312088CC9CD031216
:1019C300088CC7CE0312088C5DD10312088C7CD11E
:1019D3000312088CC7D20312088C95D40312088C07
:1019E300E9D40312088CA1D50312088C51D6031233
:1019F300088CAAD60312088C6FD70312088C05D85B
:101A03000312088C6CD80312088CAED80312088C0E
:101A1300DFD80312088C3FDA0312088C008002120D
:101A2300088C32800212088C6B800212088C56825A
:101A33000212088C3A830212088C92830212088CD9
:101A4300D5840212088C21850212088C4D8802125B
:101A5300088CC18B0212088C098D0212088C9F8D91
:101A63000212088CAB8D0212088CEB8D0212088CCB
:101A7300808F0212088C74900212088C9E900212BE
:101A8300088CF5900212088C4E910212088CBF91BB
:101A93000212088CF4930212088C8B950212088CA4
:101AA3005F960212088CA6970212088CFE99021206
:101AB300088CCF9C0212088CDE9C0212088C629D5B
:101AC3000212088C179E0212088C5A9E0212088C6E
:101AD300B89E0212088CD49E0212088C069F021232
:101AE300088C459F0212088C2BA00212088CDAA0E6
:101AF3000212088C60A30212088C96A40212088CAE
:101B03007DA50212088CFDA50212088C0AAA0212F6
:101B1300088C48AA0212088CAFAA0212088CE2AA07
:101B23000212088C75AB0212088CA8AB0212088C47
:101B330043AC0212088C91AC0212088C64AD021201
:101B4300088C2BAE0212088CC9AE0212088CD3B1DA
:101B53000212088CE7B20212088C8DB60212088CAE
:101B63008FB70212088C92B70212088CC1B7021207
:101B7300088CC0B90212088C99BA0212088CBEBA3A
:101B83000212088CDABB0212088C92BC0212088C77
:101B930049BE0212088C6EBE0212088CA8BE021245
:101BA300088C41BF0212088C3CC00212088CF2C0A0
:101BB3000212088C03C30212088C6EC30212088C33
:101BC300B6C30212088C11C40212088CE9C70212B0
:101BD300088CDEC80212088CD8C90212088C55CAB8
:101BE3000212088C27CB0212088C28CD0212088C13
:101BF3003CCD0212088C50CD0212088C86CD021205
:101C0300088CB6CD0212088C40CF0212088C21D06A
:101C13000212088C89D00212088CFDD00212088CA3
:101C2300ADD10212088CDDD10212088C9CD20212B3
:101C3300088C39D30212088C46D50212088C85D53C
:101C43000212088CF7D50212088C3CD70212088CBA
:101C5300EFD70212088C23D80212088C3BD8021249
:101C6300088CDED80212088CCCDB0212088C97DDBC
:101C73000212088CBBDD0212088CD9DD0212088C1B
:101C8300ADDE0212088CD5E20212088CE382011247
:101C9300088C1B830112088C34880112088C7A8803
:101CA3000112088CCC890112088C3E8A0112088C1F
:101CB300AD8B0112088CA18E0112088CC58F011205
:101CC300088CE3990112088C6C9A0112088CC99D47
:101CD3000112088CD89E0112088C339F0112088CC4
:101CE30081A00112088C6BA10112088C16A40112A9
:101CF300088C9CA50112088C29A60112088C2CA61D
:101D03000112088CA3A60112088CADA60112088C3F
:101D1300BAA60112088CE5A60112088C90A701123D
:101D2300088C80A80112088C39A90112088C57A9C4
:101D33000112088C6CA90112088C95A90112088C58
:101D4300C2A90112088C02AC0112088CCFAC01129B
:101D5300088C14AD0112088C8BAD0112088C39AEBE
:101D63000112088C6BAE0112088CB1AE0112088C03
:101D7300E4AE0112088C29AF0112088C7AAF01126C
:101D8300088C7FAF0112088CD3AF0112088C3CB0D2
:101D93000112088C05B10112088C50B10112088C94
:101DA300B5B10112088C11B20112088CAFB2011245
:101DB300088C1BB60112088C36B70112088CC2B806
:101DC3000112088CE3BB0112088C85BC0112088C3C
:101DD30096BF0112088C51C00112088C99C00112E0
:101DE300088C48C20112088C5CC20112088C66C2BE
:101DF3000112088C70C20112088C7CC20112088C7B
:101E0300A4C20112088C88C40112088CE1C4011217
:101E1300088CEBC40112088CF5C40112088C6AC546
:101E23000112088CB5C50112088CB6C60112088CC4
:101E33000DC70112088C17C80112088C60C8011263
:101E4300088C10C90112088CF3C90112088CC6CA88
:101E53000112088C18CC0112088C3BCD0112088C9E
:101E630033CE0112088C4BCE0112088C82CE0112A4
:101E7300088C8CCE0112088C97CE0112088CB5CE3B
:101E83000112088CFDCE0112088C5BCF0112088C65
:101E930082CF0112088C94CF0112088C2FD001122B
:101EA300088C64D00112088C56D10112088C98D189
:101EB3000112088C7CD20112088CA3D20112088C67
:101EC30010D30112088C88D30112088C0CD501128F
:101ED300088C39D60112088C0ED70112088CD1D781
:101EE3000112088C78D80112088CBDD90112088C14
:101EF3007BDA0112088CE7DA0112088CA3DB0112EA
:101F0300088CF4DB0112088C4EDC0112088C1FDDF7
:101F13000112088C42DD0112088C03DE0112088CC9
:101F230025DE0112088C86DE0112088CCEE0011238
:101F3300088CD2E10112088C89E20112088CAAE410
:101F43000112088CF4E40112088C3FE50112088C9D
:101F53009AE50112088C07E60112088C35E6011296
:101F6300088C59E60112088C8EE60112088CBBE638
:101F73000112088C01E70112088C55E70112088C45
:101F8300A9E70112088CCCE80112088C6CEA011253
:101F9300088CB7EA0112088CE0EA0112088C73EB93
:101FA3000112088CEBEB0112088CF9EB0112088C7F
:101FB3001DEC0112088C74EC0112088C8FEC0112D9
:101FC300088C4CED0112088C78ED0112088CBBEDE6
:101FD3000112088C1EEE0112088C0EF00112088CFF
:101FE3003BF00112088C2DF10112088C3AF2011218
:101FF300088CF3F20112088CD2F30112088C0AF454
:102003000112088C2BF40112088C6FF40112088C56
:10201300D3F40112088CDDF40112088CEDF40112E3
:10202300088C24F50112088C1CF90112088C2AFB78
:102033000112088C17FD0112088CAEFD0112088CE9
:1020430050FE0112088C0B2B0012088CB42B0012CB
:10205300088C8B2C0012088C932D0012088CB32D46
:102063000012088CCB2E0012088C85300012088CCD
:10207300F8300012088C95310012088CAC32001233
:10208300088C19330012088C54330012088CA933BE
:102093000012088CE4330012088C31340012088CCF
:1020A300C1340012088C4E350012088C23360012FE
:1020B300088CFC360012088C8A370012088CAA3769
:1020C3000012088CD7370012088C08380012088CCD
:1020D300DB380012088CEB380012088C3A390012F6
:1020E300088C47390012088C50390012088CC0390B
:1020F3000012088C203A0012088C6B3A0012088CEC
:10210300863A0012088CAD3A0012088CCA3A0012C3
:10211300088CD63A0012088C813C0012088C9A3C39
:102123000012088C233D0012088C363D0012088CE7
:10213300553D0012088CF03D0012088C603F0012E0
:10214300088C07410012088C96410012088C9941B3
:102153000012088C09420012088C27420012088CD6
:10216300CC420012088C08430012088C0B43001267
:10217300088CD1430012088C34440012088C6D443F
:102183000012088CE2440012088C00450012088CEF
:102193004E450012088C23460012088C714600122B
:1021A300088CBF460012088C4C470012088C8147EC
:1021B3000012088CB6470012088CC4470012088C22
:1021C30023480012088C9B480012088CDC4800123C
:1021D300088C2C490012088C57490012088C71494D
:1021E3000012088C8B490012088C664A0012088C76
:1021F300704A0012088CAB4A0012088CBB4A0012CA
:10220300088C134B0012088C274B0012088C5D4C72
:102213000012088C724C0012088C004D0012088CBE
:10222300684D0012088C1B4E0012088C264E0012BB
:10223300088C764F0012088C924F0012088CDE4FE8
:102243000012088C4D500012088C86500012088C26
:10225300A0500012088C00510012088C9F510012EC
:10226300088CEA510012088CAC540012088C625599
:102273000012088CF2550012088C3A580012088C90
:1022830052580012088C55580012088C61580012DD
:10229300088C75580012088C7D580012088CB058B1
:1022A3000012088CA3590012088C2E5A0012088CB5
:1022B300C15A0012088C3A5B0012088CFE5B0012B4
:1022C300088C205C0012088CB95C0012088C165D27
:1022D3000012088C195D0012088C935D0012088CA3
:1022E300DF5E0012088CEA5F0012088C7560001232
:1022F300088C7A610012088C3A620012088C6B62B7
:102303000012088C91620012088C9A620012088CE9
:10231300C8620012088C60630012088C15640012F6
:10232300088C86640012088C2D650012088CB46535
:102333000012088CF3650012088C36660012088CB4
:102343001ED80412088CF0D70412088CBDD70412CF
:10235300088C41D70412088C24D70412088CB3D6F6
:102363000412088C05D50412088CBDD40412088C01
:10237300EED30412088C63D20412088CD0D1041259
:10238300088CA0D10412088C51D10412088CEBD014
:102393000412088CAAD00412088CDCCF0412088C17
:1023A30077CF0412088C16CF0412088CBCCE04120B
:1023B300088C55CD0412088CF2CC0412088C6ACC1C
:1023C3000412088C65CC0412088C4ECC0412088CC1
:1023D30013DE0412088C1BCC0412088CDDDD0412FE
:1023E300088C60DD0412088CFBDC0412088CAADC68
:1023F3000412088CD2DB0412088C42DB0412088C12
:10240300C1C90412088CBEC90412088CA5C90412E0
:10241300088CF6DA0412088C9AC90412088C6FC966
:102423000412088CACC70412088C68C70412088C09
:1024330071DA0412088C54C70412088C43910312F6
:10244300088CD3EE0412088C7AEE0412088C45EE45
:102453000412088C10EE0412088CDCED0412088CB4
:102463006EED0412088C56ED0412088C31ED041243
:10247300088CFAE90412088CCDE70412088CD4E521
:102483000412088C60E50412088C11E50412088C10
:10249300CBE40412088C2CDA0412088C6DE40412C9
:1024A300088C1F880300000080FBE4738F00010089
:1024B300481B87000100461B350004000D1B250047
:1024C3000200111B26000200131B27000200151B2C
:1024D300280001001F1B29000100201B84000400A9
:1024E300061886000100831A2A000100211B2B0015
:1024F3000100221B2C000100271B2D0008001318CC
:102503002E000100281B2F000100291B30000100B1
:102513002A1B310001002B1B320001001B18330062
:1025230001001C18340001002C1B360001001D188B
:10253300380001002D1B39000100261B8300020017
:10254300441B63000100281864000100231B65007D
:102553000100241B6D0001002918710008000B18ED
:1025630066000100431B43000100341B44000200CA
:10257300351B45000100371B46000200381B47008E
:1025830008002018480001003A1B4B0001003B1BC8
:1025930004000100471BA10001004B1B3700010091
:1025A3004A1B88000100491B3C0001001E183D0026
:1025B30001002E1B490002003C1B670001002A1882
:1025C3004D0002003E1B4E000100401B4F00020065
:1025D300411B3E000100331B510001002F1B520021
:1025E3000100301B53000100321B540001001F186F
:1025F3000000000000000001363601010001020165
:1026030000010301000104010606050200000701A1
:1026130000340801000F090401010D0100FF0E0839
:10262300000017020000190100FF1A0100011B013D
:1026330000FE1C0100081D0200001F010001200113
:102643000001210200002301000F240200002601E3
:10265300000127010008280200FF2A0100072B01BF
:1026630002402C0100002D0100012E0100012F0169
:1026730000FF30010B1D310800003A0100083B0147
:10268300000F3C0100013D0100FF3E040000420435
:102693000000460400004A0400004E0400005204F7
:1026A3000000560400005A040000010371030103F3
:1026B30001030103010301032203020301031003C6
:1026C30000030003000300030003000300034203AD
:1026D300000324030603000300030403120325037A
:1026E300230325032303040304030003000300035C
:1026F30044030003000323030003650321003503A0
:102703008103000305030003000300030003250303
:1027130023030302710230016002110270020102FD
:10272300020202028002100261023A0041006302C7
:1027330073027202620243020002130238000002B3
:10274300000204021202000200020002000204025C
:102753000402370037003C02440200023900000241
:1027630000026502000235028102000205028202B4
:102773008302000203007100300160001100700049
:102783003102200350048000100061000000140097
:102793006300730072006200430000001300060030
:1027A3000000000004001200000000000000000010
:1027B30004000400370037003C024400000000001E
:1027C30000000000650000003500810000000500E6
:1027D30000008300000001017101010101011101E9
:1027E30001013101010101018001100161013B007F
:1027F30014006301730172016201430100011301BB
:1028030006013D0135000401120100010001000130
:10281300000104010401330133013C01440132018D
:10282300360000010001650100013500810100014E
:1028330005018201830100010304710402046004A1
:10284300110470040204020401040204100461046C
:102853000004140463047304720462044304000454
:102863001304060400040004040412040004000416
:102873000004000451046400000400040004440440
:10288300000400040004000465040004350481040A
:1028930064000504000483040004360001000600FC
:1028A30000000F0000000000000000000000000016
:1028B30003FFFF00000403FFFF0000FFFF0FF4010D
:1028C3000005C4040320000100000B000000000009
:1028D30000000003010F00000000000000000000E2
:1028E30000000000000000000000000000000000E5
:1028F3000000000000000000130070141F00761495
:102903001F807C140000D0140100D01402001C149A
:1029130002801614030022140400281404802E14C9
:1029230005003414060040143100521433005814C7
:1029330034005E1436006414FFFF00000A00000038
:102943000200000004000000080000001000000066
:102953002000000040000000800000000001000093
:102963000002000000040000000800000010000046
:10297300002000000040000001C81C06F81C08F2FB
:102983001C0B161D10CE1902CE1C05E61C07D41C09
:102993000CB01C0DBC1C64BE17FF000007ECFDFD52
:1029A300FDECDCDCCCBCACAC9C9C8C7C7C6C6C5CB3
:1029B3005C5C4C4C3C3C2C2C1C1C03EAF5E5D5D54B
:1029C300C5B5A59595858575756565555545453594
:1029D30035252515150500160F00000B150B0200F4
:1029E30002220F3300000E0F667A6C636874696D00
:1029F30065434F2E2C4C54645A6967426565416C9C
:102A03006C69616E63653039D0D1D2D3D4D5D6D752
:102A1300D8D9DADBDCDDDEDF00011916181616184B
:102A230023030000034D4C4651181A25050230308C
:102A330016181920231A1C1E30003C40423A3F3F0F
:102A4300392F4730303017181921301B1D1F300C18
:102A53000E020B040B0A0708000F02040201010116
:102A630001090200BE040AE80300000E000000E8AA
:102A7300030100030000007F0005030004091E108A
:102A83000A0C100803FF0C280004040209033C0C81
:102A9300050815081EE4F0A3F0A3F0A322122A9858
:102AA300F0221258302408123F4322122AB222E0A5
:102AB300F508E4F509F50AF50B22E824FBF582E9AC
:102AC30034FFF58322F583122ACE22E0F508A3E032
:102AD300F5092212232E74041208BC7F080206652E
:102AE3007401F09003DCE0640F2274091208BC7FC8
:102AF30004020665A3A3E024F5C39413229003FC08
:102B0300125AAA7A147B0022C082C083901954748B
:102B1300A6F0A37420F0A374B8F0A37420F0901966
:102B230058748EF0A37420F0A37488F0A37420F07B
:102B3300A374C4F0A37420F0A374CAF0A37420F0A8
:102B4300A374BEF0A37420F0A37476F0A37420F0F2
:102B5300901964749AF0A37420F0A374A0F0A37482
:102B630020F0A37494F0A37420F0A374D0F0A374A2
:102B730020F0901975124B0D6006124F5C12116410
:102B83009019721243C87408F0A3E4F0A3F0901AEA
:102B93001EF0901977F07C0BFDF97A787B191210EF
:102BA300B67C0B7D0079007A837B191210B6024242
:102BB3002074F71203EF74F7120985EAFEEBFF1294
:102BC300417E7405122C797403F0122C4E122C558D
:102BD3002430FCE43FFD8C828D83E088828983125C
:102BE3002C6260081234AF74FFF0A3F0EE242EE4DD
:102BF3003F1C1CFD8C828D83A3E0C0E08A828B8303
:102C0300124185D0E0122C6288828983124A3424CF
:102C1300031255D912124E7408120B877403F090E5
:102C230003F1120734740212094F7903EEFAEFFB32
:102C330012226274021208BCE9F5087007EEFAEF7B
:102C4300FB122142A90874090234BBEE2402FAE400
:102C53003F22FB8A828B83122C7112461DEE2212B5
:102C63004A60122C7112461D8C828D83E02212441D
:102C7300D88A828B8322F0A3E4F0122C8122EE24E3
:102C83000DF582E43FF5832274F01203EFEAFEEBC5
:102C9300FF8C0C8D0D890B122C4E1244CF74101225
:102CA3000B87E0F508A3E088828983F0E824FFF529
:102CB30082E9123079E508F0E824FEF582E9123062
:102CC30079E50BF09003F6E0C0E0E824FDF582E936
:102CD300123079D0E0F09003F5E0C0E0E824FCF591
:102CE30082E9123079D0E0F07412120B87122ACAEB
:102CF300122ABDE509F0E824FAF8E934FFF98882DD
:102D03008983E508F0EE2404FCE43FFD88088A8209
:102D13008B83E0F50E8C828D83E0250EC39508121C
:102D23004A60124619850C82850D83A3A3A3A3A32E
:102D3300A3A3A3E0640370081244C9F0A3E48003CF
:102D430012307E122C7C7409F07508787509197598
:102D53000A0078081208A51230671210AA74031229
:102D630008BC7508FF7509FF78081208A9AC0CADFB
:102D73000D7903EEFAEFFB12226274021208BCE92A
:102D8300F5087007EEFAEFFB122142A908022ADECA
:102D9300C082C083901994E0C394084004740780F0
:102DA30001E08A828B83F033333354F8F9024220F3
:102DB30074F01203EF8A088B09890A8C0E8D0F7544
:102DC3000C00A2AFE433F50BC2AF90198E8045120D
:102DD3002EAF503D122EBE64037036E50824F9F57C
:102DE30008E50934FFF5098E828F83A3A3E0240548
:102DF300FCA3E03400FDAA08AB0912124EE5082437
:102E0300FFF508E50934FFF5097410250CF50C15D9
:102E13000A12328C126527E50A6004EE4F70B0E5A2
:102E23000BA2E092AFA2AFE433F50BC2AF90198EC1
:102E33008038124A2B123C25850882850983124A61
:102E430060122EB5A3A3E0C0E0E50824FFF582E5F8
:102E530009123079D0E0F0E50824FEF508E50934DD
:102E6300FFF509050C150A12328C1230E6602112A7
:102E73002EBE640270F1122EAFEE40B61242B2A221
:102E8300E550E4850E82850F837401F0E50A70D75F
:102E9300E50BA2E092AF850882850983E50CF0E596
:102EA3000824FFFAE50934FFFB022ADE12329BA253
:102EB300E622122EB922124A55A3228E828F83A3B1
:102EC300A31241891251962274F01203EF74F31284
:102ED30009857403120B87E9F07402120B87EAF079
:102EE3008B0B851882851983E4F00412094712209D
:102EF30058E9F89003DBE0292437F508FA7B001240
:102F030010C88A0C8B0DAE0CAF0DEE4F7003023060
:102F13005EEE2402F50EE43FF50FA808EE28F8E470
:102F23003FF9850E82850F83124E0D9003DBE0F986
:102F3300FAC3E49AFA95E0FB850E82850F83E02AB3
:102F4300F50CA3E03BF50D9003D9122ACA750A00CC
:102F530078081208A5E9FC7D00AA0CAB0D1210AA93
:102F630074031208BCAC18AD197401120B87E0F995
:102F7300E50C24FFFAE50D34FFFB12205E8A828BF9
:102F830083E4F0E50BC454F0F9901A1FE0C4333323
:102F930054C0F89003D5E0A2E0E433131348494446
:102FA3000FC0E0EA24FFF582EB123079D0E0F0EABB
:102FB30024FEF50CEB34FFF50D7403120B87E0F8D8
:102FC3007402120B87E0C454F048850C82850D838C
:102FD300F0A80C850E82850F831257F92AC3988EA9
:102FE300828F83A3A3A3A3F0850E82850F83E8F0CA
:102FF300A3E50DF012307E122C7CE4F0740C120B5E
:1030030087E4F075088375091978081208A512304A
:10301300671210AA74031208BC851882851983E00D
:103023006009EE240E1242B44408F012224AE9F970
:10303300E4F508F50978081208A9740612094FEE99
:10304300FAEFFB12226274021208BCE97006EEFA70
:10305300EFFB800BEEFAEFFB1210CE7A007B0074CD
:103063000D022ADB7C0B7D00EE241BFAE43FFB22DE
:10307300EE24FFF582EF34FFF58322125552E4F07C
:10308300A32274F21203EF8A0C8B0DA2AFE433F583
:103093000AC2AF75080075090090198E802C123290
:1030A300A65024850C82850D83A3A312555C8E82C2
:1030B3008F83A3A3124F5F122250E9600A12329743
:1030C300C2E6F08E088F0912328C1230E670CFE51B
:1030D300084509600612317FD2E6F0E50AA2E092C4
:1030E300AF800DE0FEA3E0FFEE4F2274021208BC96
:1030F3007F0602066574F01203EF8A0E8B0F8C0CA9
:103103008D0D750A00A2AFE433F50BC2AF7E007FCD
:103113000090198E8010AE08AF091231771242B2B7
:10312300D2E7F012409F1240B5603412317FA2E71C
:1031330050F1850882850983A3A3120734AC0CAD33
:103143000DAA0EAB0F12225674021208BCE960D30B
:10315300EE4F60C2123547700612318AD2E4F0E5B1
:103163000BA2E092AFEE4F600612213C750A01A953
:103173000A022ADE12329BD2E4F0EE22E508125450
:103183007C3509F583E0228E828F83A3A3124189C4
:10319300E02274F21203EF74FE120985750C0075B8
:1031A3000D00851882851983E4F0A3F0A2AF33F5EF
:1031B3000AC2AF90198E1265278035EE24FBF58283
:1031C300EF34FF122AC8780C1208A9EEFCEFFD7A3F
:1031D3008E7B191210FE74021208BCEEFCEFFDAADE
:1031E30018AB191210ECAE08AF09901994E014F063
:1031F300EE4F602B1232A6501DEE240BF8E43FF97C
:1032030088828983E024FFF0A3E034FFF088828979
:1032130083124B0D60A58E0C8F0D12328C8097E5B7
:103223000AA2E092AF901994E060319003DCE0646D
:103233000F6006901A1EE070237A6C7B1912233AF2
:103243009082D41207307A6C7B1912232E740412E5
:1032530008BC800874F01246B9122130AA18AB19C1
:103263001210F28A088B09AE08AF09EE4F601312F1
:10327300206A123297A2E28E828F83A350D674E91A
:1032830080D40230EE8E0A8F0BEE24FBF582EF34EE
:10329300FFF5832212329B22EE2411F582E43FF5DF
:1032A30083E02212329BA2E72274F71203EFEAFEB5
:1032B300EBFF12206A1241821224ADE964019003EC
:1032C300F8700AE02401F8A3E034008003124102FD
:1032D300F912488D124619901994E070219003DC7D
:1032E300E0640F70197A6C7B1912233A9082D4121E
:1032F30007307A6C7B1912232E74041208BCA8A819
:10330300C2AF901994E004F0E8A2E78004E508A2B4
:10331300E092AF02477C74F71203EFEAFEEBFF1271
:10332300334EF012206AEEFCEFFD7A8E7B191210F9
:10333300F8A8A8C2AF901994123C789003DCE0641B
:103343000F7005790812220202477C12329BC2E4F5
:103353002274F71203EF74EA120985EAFEEBFF9079
:1033630003D5E0603C8518828519837401F0120B44
:1033730087E4123426120B87AA82AB8312124E12F1
:10338300318AC0E0740A120B87D0E0125815740B0F
:10339300120B87AA82AB8312227AAA18AB191216D0
:1033A300B074160234BB74F71203EFEAFEEBFF129C
:1033B300204CE9F974DC69601E74DD69601974E4FA
:1033C30069601474F369600F74DE69600A74DF69FD
:1033D300600574DB697007EEFAEFFB1222080247FF
:1033E3007C74F71203EF74EB120985EAFEEBFF8599
:1033F30018828519837406123426120B87AA82ABAE
:103403008312124EEE2408FCE43FFD740A120B876C
:10341300AA82AB8312227AAA18AB191216B07415BA
:103423000234BBF0EE2413FCE43FFD74022274F774
:103433001203EF74F7120985EAFEEBFFEE24301254
:1034430042B46065123D1BAA18AB1912124E7408E0
:10345300120B877403F09003F11207341234AF1286
:103463000734900404E0F9740412094FEEFAEFFBF9
:1034730012205274041208BCE9F974DC69602374E5
:10348300DD69601E74E469601974F369601474DEA5
:1034930069600F74DF69600A74E869600574DB6949
:1034A3007007EEFAEFFB122208022C49EE242EF5E8
:1034B30082E43FF5832274031208BC02477C74F252
:1034C3001203EF8A0C8B0D750A00750B007508E764
:1034D300A2AFE433F509C2AF90198E80031232888C
:1034E3001230E660361232A650F312354770EEEE14
:1034F30024321242B4F88A828B83A3A3E06870DD7E
:10350300780A1208A9EEFCEFFD7A8E7B191210FEE1
:1035130074021208BC901994E014F0E509A2E09239
:10352300AFEE4F6013EEFAEFFB12206A79F0EEFA7A
:10353300EFFB122208750800A908AA0CAB0D122292
:10354300080230F3122C81E064012274F41203EFB9
:1035530074F7120985EAFEEBFF8E828F83A3E06482
:10356300F370030235F88E828F83A3E064DF700368
:103573000235F88E828F83A3E064E860788E828FB1
:1035830083A3E064DB606E1220ACE9F508705EEEA5
:10359300240E1242B460561236021220EEEA4B6039
:1035A3004C7408120B8712360C1207347508FF751A
:1035B30009FF78081208A98E828F83A3A3A3A3A36C
:1035C300A3A3A3E0F9740412094F12205274041246
:1035D30008BCE9F50874F36508601274DF650860D8
:1035E3000C74E86508600674DB6508700F8E828FC3
:1035F30083A3E508F0EEFAEFFB1220B8022AEDEE02
:10360300240FFAE43FFB7909227402124F6E74FF10
:10361300F0A31236192212361D22124A3DA3A32209
:1036230074F11203EFEAFEEBFF7508008E828F83BD
:10363300A3A3A3A3A3A3122AF740037508E88E82CA
:103643008F83A3A3A3A3A3A3A3A3A3A3E0C39410C0
:1036530040057508E880138E828F83A3A3A3A3A3D9
:10366300A3A3A3A3A3E0640F600B9019FBE054088A
:1036730070037508E8EE240B1242B4F88E828F8330
:10368300A3A3A3A3A3A3A3A3A3A3E0C398500DEE53
:10369300240B1242B4640F60037508E89003F5E04D
:1036A300F47003A3E0F470037508EC7A237B001233
:1036B300115E8A0A8B0BA80AA90B9019751236F6AC
:1036C30060298E828F83A3A3A982AA83890C8A0D82
:1036D300750E00780C1208A57C237D00901975E007
:1036E300FA1210AA74031208BC800375081AA908F9
:1036F30002554512461DE8492274F51203EFEAFE0E
:10370300EBFF8E828F83A3A3A3A3A3A3A3A3E09022
:1037130003DC125ECD9003F7125EB39003D7125E03
:10372300D2901A1FF0F9120F06901A1FE06018EEDC
:103733002404FAE43FFB7950120EEEEE2406FAE479
:103743003FFB79E1120EEE901A1E122AE360047415
:103753000180027400901977125EB91208A57C0BE0
:103763007D007A787B191210AA74031208BCEE2428
:1037730018F508E43FF50978081208A57C0B7D00CD
:103783007A837B1902442774F71203EFEAFEEBFFF7
:103793008E828F83A3E07006124F5C1220B2124612
:1037A300B312221402477C74F71203EFEAFEEBFF15
:1037B300901975124B0D600D124F5C901975E4F062
:1037C300A3F01211648E828F8374081246B9121605
:1037D300B002477C74F61203EF901A1EE060139058
:1037E3001977E0700D1237F8122064EA4B60031268
:1037F3002142025B359003D7E0FB9003F7E0FA9098
:1038030003DCE0F92274F41203EF74E7120985EA8A
:10381300FEEBFF750B018E828F83A3A3A3A3A3A348
:10382300A3E0A2E25068EE242BF582E43F12555A3E
:10383300124744122070E97055908202E0640170CF
:1038430005750B0080481238D41208A57C0B7D0047
:1038530074111209471210AA74031208BC12224AE7
:10386300E9FA740E12093F8808890978081208A931
:1038730075083075090078081208A91238C61207AE
:10388300341257E3790112226874061208BC8518B2
:10389300828519837410123426120B87AA82AB8394
:1038A3001212421238C6125AA6740B120B87124612
:1038B30019740D120B87E50B1244671216B07419B5
:1038C300022AEF1238CA22EE242BF582E43FF58355
:1038D30022EE2408125EC122C082C083901A1FE028
:1038E30060031222BC024220C082C083901A167465
:1038F30054F0A37419F0A37458F0A37419F0A374CB
:1039030064F0A37419F0901B5E743BF0A37428F069
:10391300901A007446F0A37420F0901999747CF007
:10392300A37420F090199B7482F0A37420F0901973
:10393300FBE04402023D51C082C083EAFCEBFD7907
:1039430003024AB5C082C0837908025CB3C082C057
:103953008374FE1209859019A1742AF0A37421F0CF
:103963009019A37424F0A37421F0800D7A8E7B192F
:103973001210F212445D12223890198E124B0D7000
:10398300EB901990124B0D600F7A907B191210F285
:1039930012445D12223880E990198EE4F0A3F0906E
:1039A3001994F0A3F0A3F09019AF7466F0A37421F7
:1039B300F07402800274111208BC02422074F612E1
:1039C30003EFE9FF743C29F582E4342AF583E49399
:1039D300FEFA7B001210C8EA4B6013EA2E1242FD76
:1039E300E8F0A3E9125835A3A3A3E4F0802C7A02EC
:1039F3007B001210C8EA4B601D74472FF582E43434
:103A03002AF583E4938A828B83F0A3741AF09019C6
:103A1300F6E0F91210D47A007B00025B35E9FC74FE
:103A23000629F8EAA2E0501EE875F00A84E5F0F9E9
:103A33006014740A28C399F8E9C394054004740A0E
:103A430028F8740B28F8ECC394134004791480020B
:103A53007906E82979002409F85001097A0A7B00DC
:103A630012029FE8F9020889C082C0839019FBE023
:103A73005402600A1216B6E96004790180027900E3
:103A8300024220C082C0839019FBE054026016906A
:103A93001994E0700C124B0A600BE0C81240AC5052
:103AA30004790180027900024220C082C0839081A0
:103AB300FFE0F8901996E0C39850051210C88004EF
:103AC3007A007B00024220C082C083122238790030
:103AD300024220C082C08374FE1209858518828544
:103AE3001983EAF0A3EB123C54A3A3A3A3A3E060BE
:103AF3000A14605D24FE6060023BB39003DCE06463
:103B03000F601812220EE97012851882851983122C
:103B13004F5F90199D1241851224AD900404E0C0BB
:103B2300E0851882851983124A0DD0E0123C547443
:103B330014125496FCA3E0FD7A907B191210ECA8A2
:103B4300A8C2AF901996123C78792012220202394A
:103B5300B4123C18741580D9123C18A3A3A3A3E094
:103B6300604E123C1812318EC0E08518828519838D
:103B7300125808123C32D0E01254962402F8A3E003
:103B83003400F988828983E02401FAA3E03400FB3E
:103B930088828983EAF0A3EB125496123F4C85186E
:103BA300828519836013123C256005123C3B404813
:103BB300AA18AB191222388095123C2560F2123CE8
:103BC3003B5021123C48FA851882851983A3E0C82B
:103BD3002406123F17F8745C124C4F342AF583E421
:103BE300936A6014851882851983123C25640870D2
:103BF300BF123C48640870B8123C4814123C5C2461
:103C03000AC0E0851882851983124185D0E0123CF1
:103C13005C04023B34851882851983A3E0F583880D
:103C23008222123C2922124102C8123C32E0222491
:103C330006F582E438F58322851882851983123CC0
:103C430029C3940A22851882851983122EB9A3E009
:103C530022123C66F583888222123C66C82406122F
:103C63003F4322F085188285198312410222A8A8B6
:103C7300C2AF901995E004F0E8A2E792AF22C082A8
:103C8300C0839019A5124B0D6008123C1F1224AD7E
:103C93008002790002422074F71203EFEAFEEBFF81
:103CA300122C8174011242BC12554A122C5D243528
:103CB3001242B4C0E0EE2413F582E43FF583D0E072
:103CC300F0EE24361242B4C0E0EE2414F582E43F51
:103CD300F583D0E0F0EE24381242B4C0E0EE2418AD
:103CE300F582E43FF583D0E0F0EE242FF582E43F44
:103CF300F583120734123D1BEE24311242B4F9123C
:103D0300226274021208BCE9F5087007EEFAEFFBB1
:103D1300122142A90802477CEE2426FCE43FFD223F
:103D2300C082C08312220EE96004792080027901E7
:103D3300024220C082C083EA2411123D47D2E080B0
:103D43000DEA240DF582E43BF583E022F0A3F002B3
:103D53004220C082C083123D4464017011123DE3CE
:103D6300400C8A828B83A3E0F9122208806FEA2435
:103D730010123D47A2E650128A828B83A3E0F9908A
:103D8300199F1241851224AD8053123D4464017082
:103D93000D123DE350088A828B83743080368A8209
:103DA3008B83A3E0641B8A828B8370047422802438
:103DB300A3E0700D123D44F87431124C4F342A8045
:103DC3000B123D44F87447124C4F342AF583E493A5
:103DD3008A828B83F09019F6E0F91210D402422004
:103DE300EA2410F582E43BF583E0A2E32274F712A0
:103DF30003EFE9FE124B0A7003023F12EE601174E7
:103E03001B6E7013E0C8123F1564057003023EE099
:103E1300123F1BE4023EE474E96E7061123F3B7093
:103E23000B1216BCE96005123F56606179EE120E63
:103E330070901997123F38901997603A123F599032
:103E43001997700B123F3814F0121026023F12120A
:103E53003F4BC2E71240E8123F156403700B125840
:103E6300052411123F17D2E2F079ED120E70123FC2
:103E73002B1224AD8075123F1E74E9806474E16EC9
:103E8300703E1216BCE96055123F5670509003FE07
:103E9300E0C0E01258052412F582E438F583D0E03F
:103EA300F09003EDE0C0E0901997123F27123F27EF
:103EB300D0E0F09003EDE004F0790112100E804F92
:103EC300741C6E7018901997124F5F9019A71241C6
:103ED300851224AD901997E4F0A3F08032123F1BB2
:103EE300EEF0901997124F5F1221301240C9E0543F
:103EF300806010900404E0F9120F2A900403E0F9A3
:103F0300120F1E901997E4F0A3F079101222020207
:103F1300477C240D123F4322901997123F2222120D
:103F2300418DA322124A5122901997124F6390197F
:103F33009B12418922E0F8A3E0C82412123F4322D6
:103F4300F582E438F583E022E0F8A3E0C8241012F8
:103F53003F43229019971240D0E054042274F41284
:103F630003EF750A00750B00A2AFE433FEC2AF1274
:103F73004B0A60030240551241821224ADE94410FA
:103F8300F890198E800985080A85090B12409F1243
:103F930040B5700302405512317F586870E8780AC3
:103FA3001208A9AC08AD097A8E7B191210FE7402AF
:103FB3001208BC901997E508F0A3E5091240E8122E
:103FC30040AC500302405C901995E014F0EEA2E07F
:103FD30092AF901997E0240EF8A3E03400F9E8FEBD
:103FE300E9FF8E828F83124F5F901997123C4EF92F
:103FF3001220F4E9901992F0A3125A27E05480603A
:10400300181258052413123F17F9120F2A125805D4
:104013002414123F17F9120F1E1240C9A3E05401D2
:10402300605F901992124B0D60451240DF604012A1
:1040330040DFF87900901992124F5F1202A7E8C08F
:10404300E01240BDD0E01240EDC39413401174025E
:10405300800FEEA2E092AF8037901994023FCD74A7
:1040630000C0E0901998E0C8124096D0E0800D128D
:1040730040BD74011240E81240967401F079038048
:104083000C901997123F4BA2E1B3E433F912100ECF
:10409300022AF2241AF582E438F58322E50824FB88
:1040A300F582E50934FFF5832212547C123F46A2C0
:1040B300E722122ACEE50845092212582D2419F5C4
:1040C30082E438F583229019971240D022124102DC
:1040D300C81240D8221254A638F5832212582D2430
:1040E30018123F43221240FAC8221240FAF583887D
:1040F30082A3A3A3A3E022F090199712410222E026
:10410300F8A3E02274F71203EFEAFEEBFF12223268
:104113001242B1A2E3400A12354770059081FD8037
:10412300039081FEE0F9EEFCEFFD7A8E7B1912110C
:1041330004E96037EEFAEFFB9019A11241851224CE
:10414300ADEE240E1242B454047011123C711241AC
:104153007EA3E05401702112213C801CEEFAEFFB98
:104163009019991241851224AD800D8E828F83A3FD
:1041730074F11246B912213002477C125552229033
:1041830019A31241892212418D22E0F8A3E0F5839D
:1041930088822202421974F71203EFEAFEEBFF79D9
:1041A300009019FBE05402700CEE24331242B45415
:1041B30004600279E89019FBE05460700CEE24333C
:1041C3001242B45402600279E88E828F83A3A3A3C0
:1041D300A3E0F8908203E0C398500279E8EE24311B
:1041E3001242B4700CEE242E1242B4700479F5809E
:1041F3000BE9700512211EE9F9E96007EEFAEFFBFE
:1042030012220802477CC082C0838A828B83740D8A
:10421300F01216B08007C082C08312213CD083D035
:104223008202088974F41203EFEAFEEBFF8E828F99
:1042330083E4F0A31242BC54049081FD7012E0F8B1
:10424300901995E0C398401279F1122208022AF2DC
:10425300E0F8901994E0C39850EE1242C2A3E054E0
:10426300016039EE24371242B4C39405403CEE2476
:10427300331242B4540570327AA97B1912233AEEF1
:104283002437F582E43FF583122AAE78081208A199
:104293007AA97B1912232E74041208BCEEFAEFFBE1
:1042A3009019F6E0F91210D480A379E8809CEE24EB
:1042B30010F582E43FF583E022F01242C2E022EEE1
:1042C3002433F582E43FF5832274F61203EFE9FE0B
:1042D3002451FAE43400FB1210C8EA4B6015EE8A4D
:1042E300828B83A3A3A3A3F0EA24511242FD1246B7
:1042F3001980047A007B00025B35F8E43BF98A827B
:104303008B83A3A322024219C082C0839019B27483
:1043130090F0A37421F0A374C0F0A37421F0A374EC
:1043230096F0A37421F0A3749CF0A37421F0A374FA
:10433300BAF0A37421F0A374AEF0A37421F0A374B4
:10434300A8F0A37421F0A374C6F0A37421F0A3749E
:10435300CCF0A37421F0A374D2F0A37421F0A3745E
:10436300DEF0A37421F0A374A2F0A37421F0A3746C
:104373008AF0A37421F0A37484F0A37421F090193C
:10438300CE74B4F0A37421F0A374D8F0A37421F015
:10439300A374F2F0A37422F0A374E4F0A37421F0E5
:1043A300A374EAF0A37421F09019F2E4F09019F5E4
:1043B300F09019DE1243C87402F09019E71243C853
:1043C3007401023D517402F0A37422F0A32274F528
:1043D3001203EF74F112098585188285198374021B
:1043E300F07401120B87E9F060047AFF7BFF74021B
:1043F300120B871265AE7508EA750919750A0078FC
:10440300081208A57C0B7D007407120B87AA82ABE8
:10441300831210AA74031208BCAA18AB191216B09F
:10442300740F80051210AA74031208BC7F030206DE
:104433006574F71203EF74FD1209858518828519D7
:1044430083740AF07401120B87E9F07402120B876C
:10445300EA1244671216B00234B9851882851983AB
:10446300EAF0A3EBF0AA18AB192274F61203EF7467
:10447300F7120985EAFEEBFF1244C9122C79740284
:1044830012460AAA18AB19121242EE24311255C170
:104493001244CF8A828B83E8F0A3E91242BC1255FF
:1044A300E61208A9740212094F79831A1AEFFB1254
:1044B300226274021208BCE9F5087007EEFAEFFBFA
:1044C300122142025B2E125552740122FB8A828B07
:1044D300831244D822E024FFF8A3E034FFF92274C6
:1044E300F01203EF126069120B307808790C120393
:1044F3000078081208A17AE17B19022AD674F41213
:1045030003EF74C61209859003DCE0640F60108525
:104513001882851983742E12446712221480277A15
:10452300D87B1912233A122B001202A78808890993
:10453300E4F50AF50B78081208A17AD87B1912233F
:104543002E74041208BC743A022AEF74F51203EFB6
:10455300EAFEEBFF8E828F83A3E0F860030245F34C
:10456300EE24301242B464026007E0640360027810
:10457300E8EE2426F582E43FF583122AF940047815
:10458300E88070E8706AEE2426FAE43FFB79E112D2
:104593000EEEEE2431FAE43FFB7950120EEEEE24D8
:1045A300301242B464027014EE2428F582E43FF51D
:1045B30083125AA69003EB12461980129003EB74F0
:1045C300FEF0A30412460A7AE27B0312124EEE2493
:1045D3001B1238D71208A57C0B7D007AEA7B1912CF
:1045E30010AA74031208BCEEFAEFFB12217EE9F85D
:1045F300E86011E88E828F83A3125A28741712463B
:10460300B912221402442FF0EE2428FCE43FFD22C9
:10461300125AAA901A7312461D22E8F0A3E9F02257
:1046230074F61203EF74F71209859019F5E0703BE5
:104633007401F0F9120FD8AA18AB191222447508A5
:10464300EA75091978081208A9750801750900782F
:10465300081208A99003F1120734740612094F7A5D
:1046630003790512226874061208BC025B3074F7E2
:104673001203EFEAFEEBFF7901120FDE8E828F83C6
:10468300E064207004A374EBF09019F5E0A2E2500B
:1046930003C2E2F0E0A2E150081248CF1221788071
:1046A3000C8E828F83742A1246B912221402477C1D
:1046B3008E828F83742CF0EEFAEFFB2274F41203D4
:1046C300EF74FE120985EAFEEBFF7901120FDE7A21
:1046D300D87B1912233A7AE17B1912233A124A1929
:1046E300851882851983124A47E0F50B7011AA18C1
:1046F300AB197953120EEE124744794A120EEE1299
:1047030038D41208A57C0B7D007AEA7B191210AA13
:1047130074031208BC851882851983124F5FA90B95
:104723001221729019F5E0A2E1500C7A008E828F6B
:1047330083A3E0F91221789019F5E4F07402022AB8
:10474300EFEE2413FAE43FFB2274F71203EFEAFEC1
:10475300EBFF8E828F83A374EBF09019F5E0A2E157
:1047630050077A0079EB122178EEFAEFFB1221AEB3
:104773008007EEFAEFFB1222B07F0102066574F7A1
:104783001203EFEAFEEBFF7901120FDE7AD87B19F1
:1047930012233A7AE17B1912233A9019F2E4F0904A
:1047A30019F5F07AFF7BFF8E828F83A3E0F9122144
:1047B3007280C674F71203EFEAFEEBFF1221A880A2
:1047C300B174F71203EFEAFEEBFF7901120FDE8EED
:1047D300828F83A3A3A3A3E060047400800274EB1D
:1047E3001248165003C2E2F0E0A2E1500812491841
:1047F3001221788014A2E050108E828F83742AF0E5
:10480300A374EB1246B9122214EEFAEFFB122154F1
:1048130002477C8E828F83A3F09019F5E0A2E222F7
:1048230074F61203EFEAFEEBFF9019F5E0D2E1F024
:104833007901120FD88E828F83A3E0703C12224A33
:10484300E9FAEE240DF508E43FF50978081208A902
:1048530075080175090078081208A912488D120716
:1048630034EE2402FCE43FFD79051222687406123B
:1048730008BCE98E828F83A3F08E828F83A3E060CE
:10488300067A00F9122178025B3512489122EE2450
:104893000BF582E43FF5832274F71203EFEAFEEB94
:1048A300FF7901120FDE8E828F83E064207004A3F0
:1048B30074EBF09019F5E0A2E25003C2E2F0E0A23B
:1048C300E150061248CF12217802477CC2E1F07A08
:1048D300008E828F83A3E0F92274F71203EFEAFEBE
:1048E300EBFF7901120FDE7AD87B1912233A8E82FD
:1048F3008F83A3A3A3A3E060047400800274EB126C
:1049030048165003C2E2F0E0A2E150061249181221
:10491300217802480CC2E1123619A3E0A2E4E43381
:10492300FA8E828F83A3E0F92274F71203EFEAFE73
:10493300EBFF7901120FDE8E828F83A374EB124893
:104943001B5003C2E2F0E0A2E150061248CF12214D
:104953007802477C74F71203EFEAFEEBFF7AD87B09
:104963001912233AEEFAEFFB1221D202477574F7BC
:104973001203EFEAFEEBFF7AD87B1912233AEEFA21
:10498300EFFB1221D202477C74F71203EF74EF128C
:104993000985EAFEEBFF1257E37AE27B0312123C2E
:1049A300E960628518828519837409F07401120B1A
:1049B3008774EFF0124A19F87402120B87E8124A4F
:1049C30047A3A3E0C0E07404120B87D0E0124A347B
:1049D300640870158E828F83A3A3124A0DE0C0E092
:1049E3007405120B87D0E080067405120B87E4125E
:1049F30058157406120B87AA82AB8312227AAA185F
:104A0300AB191216B074110234BB1258302407F5D7
:104A130082E438F58322EE124A2B125AAA8882893D
:104A230083E0FCA3E0F9EC221255CFFB8A828B834F
:104A330022124A3822124A3DE022F08E828F83A34B
:104A4300A3A3A322F0A3E9124A60124A5122124AF5
:104A53005522E0F8A3E0F5838882A3A322F08A829B
:104A63008B8322C082C0831222BC024220C082C038
:104A730083901A1274B2F0A37419F0A374CEF0A346
:104A83007419F0901B5874D9F0A37427F0A374150C
:104A9300F0A37427F09019FE746CF0A37421F090C6
:104AA30019FBE04401023D51C082C083EAFCEBFDE7
:104AB300790212222002422074F61203EF74FE12CE
:104AC30009859019F7124B0D60077AF77B191222AB
:104AD300389019FDE4F0900AA2124B0D6024800770
:104AE300AA18AB191222389019F6E0F91210E08ACD
:104AF300088B09A808A9098518828519831236F637
:104B030070DE7402025B32901997125AAAE84922A6
:104B130074F71203EFE9FA7B009019F6E0F912112A
:104B23000A02477C74F71203EF74F0120985EAFC5A
:104B3300EBFDE9FE8C828D83E0F87452124C4F3406
:104B43002AF583E493C0E07401120B87D0E0F0648C
:104B53000B700DEE8C828D83A3F012229E024C4AC1
:104B6300E07003024C4A640C6003024C3B741A6EFF
:104B7300700B7404120B87E4F0A3024C3A74041212
:104B83000B87ECF0A3EDF0EC2432F582E43DF583E2
:104B9300E0C0E07403120B87D0E0125D88120B585B
:104BA3007406120B87120B4C8C828D83125A9D74E0
:104BB3000A120B87E8F0A3E9124C54E05410600981
:104BC300851882851983E48017EC2412F582E43D6D
:104BD300F583E0F89003FEE0C39885188285198376
:104BE300F0E0C0E0740C120B87D0E0F0EC2415F574
:104BF30082E43DF583E0C0E0740D120B87D0E0F052
:104C0300EC2416F582E43DF583E0C0E0740E120B4C
:104C130087D0E0F0EC2417F582E43DF583E0C0E0B3
:104C2300740F120B87D0E0124C54A3E054016008B8
:104C33007401120B877411F07402120B87EEF07477
:104C4300011209471216B074100234BB28F582E42E
:104C530022F0EC1254A63DF58322C082C083901942
:104C6300FDE064037004790180027900024220743C
:104C7300F71203EF9019FDE0124CED745628F582FC
:104C8300741B39F5831251D8C2E7F0124CF4A3E434
:104C930093FE25E0FCE433FD74562CF582741B3D32
:104CA30012555AEC4D6005EE9019FDF08A828B8304
:104CB300E025E0FCE433FDE82CF582E93DF583E4EF
:104CC30093FCC4540F25E0F8740C124C4F341AF5BE
:104CD30083124B0D700512228C800CEC540F124C76
:104CE300F41241851224AD02477C25E0F8E433F940
:104CF3002225E0FCE82CF582E439F5832274F212D4
:104D030003EF74FE120985890B8A088B09124DEE95
:104D1300FA7B001210C88A0C8B0DAE0CAF0DEE4F50
:104D2300602E8E828F83E50BF0A3E4F0F50A7808FA
:104D33001208A5124DFB122C4FFB1210AA7403127A
:104D430008BCEEFAEFFB9019F6E0F91210D48012CA
:104D5300851882851983E50BF0791AAA18AB191205
:104D630022080230EE74F01203EF74FE12098589F3
:104D73000B8A0E8B0F124DEEF508FA7B001210C84A
:104D83008A0C8B0DAE0CAF0DEE4F60468E828F8377
:104D9300E50BF0A3E4F0A808EE28F8E43FF98E82CF
:104DA3008F83A3A3124E0D850E08850F09F50A788C
:104DB300081208A5124DFB12306C1210AA740312CC
:104DC30008BCEEFAEFFB9019F6E0F91210D4790063
:104DD3008014851882851983E50BF0791AAA18AB1C
:104DE30019122208791A7402022ADB742629F58221
:104DF300E4342AF583E49322A80B741B124C4F343A
:104E03002AF583E493FC7D00EE2212461D8E828FE9
:104E130083A3A3A3A3E4F022C082C083E99019F67D
:104E2300023D5174F61203EF74FE120985EAFEEB9C
:104E3300FFEE542070308039A8A8C2AF901996E0D5
:104E430014123C7A8A828B83124F4F9019F91265A0
:104E5300AE122214851882851983E0641560077ADF
:104E6300F97B191222387A907B191210F2EA4B70EF
:104E7300C7EF54807012801C9019F91265AE12228C
:104E8300147AF97B191222389019F6E0F91210E01E
:104E9300EA4B70E4EE5410600E8518828519837412
:104EA3002D124467122214EEA2E0500E851882855B
:104EB30019837424124467122214EE5402600E857F
:104EC30018828519837425124467122214EE540440
:104ED300600E851882851983742612446712221482
:104EE300EE5408600E85188285198374281244676E
:104EF300122214EE544060107401120B87124F6992
:104F0300742C124467122214EE5480601074011240
:104F13000B87124F69742F1244671222149019F7EA
:104F2300124B0D6020A8A8C2AF9019F7124F5F90E3
:104F330019F7E4F0A3123C7A1265AD1222147AF940
:104F43007B191222387A007B00024B05124F532241
:104F5300E0851882851983F022901975124F632218
:104F6300E0FAA3E0FB22E4124F6E22F0851882855B
:104F7300198322C082C0839019F9125AA6EA687075
:104F830002EB6970079019F9E4F0A3F00242207470
:104F9300F71203EFEAFEEBFFEE4F7003120BEEA2E4
:104FA300AFE433F508C2AF8E828F83124B0D6028B6
:104FB300E824FBFAE934FFFB9019F912555CE86C1D
:104FC3007002E96D70079019F9E4F0A3F08E828FF7
:104FD30083E4F0A3F0121164023310C082C0839003
:104FE3001A207480F0A37422F0A37492F0A37422A5
:104FF300F0A37498F0A37422F0A3744EF0A3742169
:10500300F0A3749EF0A37422F0A37448F0A3742158
:10501300F0A37454F0A37421F0901A2E74CEF0A36D
:105023007422F0A374A4F0A37422F0A374AAF0A3CF
:105033007422F0A374B6F0A37422F0A374B0F0A3A7
:105043007422F0901A1FE4023D51C082C083900382
:10505300EBE064FE7003A3E0F470097CE27D0312CD
:105063001242801C8A828B83A3A3A3A3A3A3A3A31B
:105073007402F09003EB125AA68A828B83124619AC
:10508300024220C082C0839003F5C3E094FEA3E0F4
:1050930094FF4004790380027902024220C082C057
:1050A300831251E18C828D83125196687039740298
:1050B30068701C8A828B831250EFE06870298A82A1
:1050C3008B83A31250EFA3E068701C7901801A74DC
:1050D30003687013EC2405FC50010DEA2405FA5013
:1050E300010B12124880027900024220A3A3A3A35A
:1050F300A3E0F88C828D83A3A3A3A3A32274F61247
:1051030003EF7E00740A120B87E012518AFF8A8232
:105113008B83A3A3A3A3A3A3A3A3E06F70647402CD
:105123006F704E8A828B83C082C08388828983A3F7
:10513300A3A3A3A3E0F50888828983A3A3A3A3A3BE
:10514300A3E0FBAA08D083D082E06A7003A3E06BDC
:10515300703088828983A3A3A3E0FA88828983A31A
:10516300A3A3A3E0F9EA6C7002E96D70157E0180D8
:105173001174036F700CE82405FCE439FD12124826
:10518300E9FEEEF9025B35F8A3E0F9888289831220
:10519300519622A3E01313543F540322C082C083C9
:1051A3008A828B83A3A3A3A3A3A3A3A3E064027014
:1051B300169003EB1251D8687003A3E06970047969
:1051C30001800F7900800BEAFCEBFD7AE27B03128E
:1051D300123C024220125AAA8A828B83E0228A82DC
:1051E3008B83125196F82274F01203EF74FC1209A8
:1051F30085E9851882851983F07402120B87ECF018
:10520300A3EDF08A0A8B0B7508007402120B871248
:105213002AA5C0E07401120B87D0E0125496A2E7CE
:105223005008750EFF750FFF800A9003F1E0F50E2D
:10523300A3E0F50F851882851983E0C2E712549B1A
:105243005420600712546874088004125468E412EE
:10525300549B540460071254737480800512547372
:10526300741012549B54106006125452E4800B9035
:1052730003FEE0C0E0125452D0E012549BA2E0506F
:10528300037508205408600674104508F5088A82DF
:105293008B83A3A3E024FFFEA3E034FFFFEA1254B1
:1052A3005DC39402E0400F640B6009E0148E828FAB
:1052B3008312548C74034508F50875090090041192
:1052C300E0640170118A828B83A3A3A3A3E0C39438
:1052D300674003750910851882851983E0F50C75FD
:1052E3000D00740E780C120A29E50D4509F509E045
:1052F300640270199003F6125D7DF09003F5E0C02F
:10530300E0123073D0E0F0EE24FEFE801CE0640374
:10531300701DEE24F9FEEF34FFFF7C057D04EEFAE9
:10532300EFFB12124EEE24FF1EEF34FFFF8003E06B
:10533300602F7401120B87E060187414120B87E05E
:10534300650E7004A3E0650F700874404508F50806
:10535300800F8E828F83E50FF0123073E50E1254A7
:10536300827401120B87E0F50C750D00740A780C3A
:10537300120A29E50D4509F509E064027023740258
:10538300120B87125BF18E828F83F07402120B87EC
:10539300123190C0E0123073D0E0F0EE24FEFE80B4
:1053A30020E064037021EE24F9FEEF34FFFF740262
:1053B300120B8712555CEEFAEFFB12124EEE24FF2E
:1053C3001EEF34FFFF8003E060197414120B871281
:1053D3005D7CF07414120B87E0C0E0123073D0E0F0
:1053E300125482EEF8EFF9E824FF1EE934FFFFE5DB
:1053F3000A12545D70059003E180039003EDE0FA17
:1054030004F0EA88828983125A28E50912548C8EA3
:10541300828F83E508F0E50A2404F8E4350BF9E507
:105423000A2402FAE4350BFBEEFC8A828B83E0F557
:105433000888828983E02508C39C124A60EEF0A3A2
:10544300EFF0850A82850B83A3E4F0F9022AD9EAF7
:105453002412F582E4350BF58322240DF582E4351D
:105463000BF583E022EA2410F582E4350BF5832261
:10547300EA12547C350BF583222411F582E422F0E1
:10548300EE24FEFEEF34FFFF22F0EE24FF1EEF3486
:10549300FFFF22124F6EE022F0EA1254A6350BF5FD
:1054A30083E022240EF582E42274F11203EF74FEEA
:1054B300120985851882851983ECF0A3EDF0890B19
:1054C3008A0E750A1A7415120B871264051220EEE0
:1054D3008A0C8B0DAE0CAF0DEE4F605F7413120B85
:1054E30087E012554AE8F0A3E9122C7CE50BF0752E
:1054F3000A0078081208A51230671210AA74031262
:1055030008BC7411120B871207347402120B871232
:10551300555CA90EEEFAEFFB12226274021208BC6C
:10552300E9F50A7016E50B24F960031470061232CC
:1055330097D2E5F0EEFAEFFB122142A90A740212A8
:1055430008BC7F07020665F8A3E0F912555222EE64
:105553001254A63FF58322F583E0FCA3E0FD2274F9
:10556300F61203EF74F7120985EAFEEBFF7801EEFA
:1055730024321242B46002780512417EE8122C797B
:1055830074041255D9121242EE242F1255C1122C53
:105593005524311242B41255E61208A974021209B5
:1055A3004F79031A1AEFFB12226274021208BCE944
:1055B300F5087007EEFAEFFB122142025B2EF5822B
:1055C300E43FF583122ACEEE1255CF222402F8E4EB
:1055D3003FF9E8FAE922F0EE2426FCE43FFDAA189D
:1055E300AB192288828983124A3804F0780822741E
:1055F300F21203EF8A088B09ECFEEDFF8A828B839C
:105603007405F0EE24321242B48A828B83A3A3F092
:10561300EA2403F50AE43509F50B850A82F583E0EC
:10562300F50CA3E0F50DEE2425F582E43FF5831296
:105633000B58E50C12547C350DF583120B4C1257A5
:10564300E3AA0CAB0D121242850A82850B83125B0F
:10565300F6FAA3E0FB88828983A3A3A31265A8EECD
:10566300242F1242B4C0E01257EBD0E01258222488
:1056730015F582E438F583E41258221240D8E41277
:105683005815850A82850B83E02416FAA3E03400BB
:10569300FB12227A8E828F83A3A3A3A3A3A3A3E0E7
:1056A300C0E0850A82850B83125808240DF582E435
:1056B30038F583D0E012580CFAA3E0FB850A828503
:1056C3000B83125AA6E8240BFCE439FD8A828B83F0
:1056D300E08C828D83F0A3E4125835E0F50B8C82C5
:1056E3008D83A3E0450B125835A3E0FCEA2403FAAB
:1056F30050010BECA2E7E433C0E0E8240FF582E4A9
:1057030039F583D0E0F074075C6004780180027897
:105713000075F00374075CA428F8EA28FAE43BFB5D
:10572300E5082405F8E43509F98A828B83E0888249
:105733008983125835AA82AB83850882850983122F
:1057430065A888828983E0F50A25E0540EFCE50A02
:10575300C4540FF50A750B007403780A120A29E57D
:105763000A5438F8EC28F8EA28F8E43BF98508826B
:10577300850983A3A3A3A3A3A3A3A3A3E8F0A3E9F6
:10578300124A34FA8E828F83A3A3E02AFAA3E03469
:1057930000FBC3EA98EB9940288E828F83A3A3E092
:1057A300F8850882850983A3A3A3A3A3A3A3A3A323
:1057B3001257F9C39A28850882850983A3A3A38076
:1057C30016850882850983A3A3A3A3A3A3A3A3E4A4
:1057D300F0850882850983A3A3A3A3A3F00230F372
:1057E300EE2413FCE43FFD221257EF22E82410F5C8
:1057F30082E439F58322E0FA8E828F83A3A3A3A3E5
:10580300E02290199712583022F08E828F83A3A33F
:10581300E02212581922F0EE2408FCE43FFD22F0A6
:10582300850A82850B831258302290199712410200
:10583300C822124A60A32274F51203EF8C088D0963
:10584300750A0078081208A57C0B7D000244270224
:105853000889C082C0837918122208024220C082BC
:10586300C0838A828B83E0C3940B50031222860287
:105873004220C082C083791980DE74F71203EFEAF5
:10588300FEEBFF9019F7124B0D60109019F7124FB2
:105893005F1222927AF77B19122238EEFAEFFB128B
:1058A30022329019F7EEF0A3EFF002477C74F7125F
:1058B30003EF74DE120985EAFEEBFF8E828F83E02D
:1058C30024FD601124FE601524ED600924FA600DA7
:1058D30014600A803D7416120B87E4800774161255
:1058E3000B877401F0123D1B740B120B87AA82AB5A
:1058F3008312124E7413120B8712598B120B8712D9
:105903004619740A120B87125997120B87124619FC
:1059130080417416120B877402F01257E3740B1252
:105923000B87AA82AB8312124E7413120B87125980
:105933008B120B87124619740A120B87125997128E
:105943000B87E8F0A3E9125985120B87AA82AB8370
:1059530012227A851882851983740B125A28A3E0C0
:10596300C0E07401120B87D0E0125985120B87AA8D
:1059730082AB8312227AAA18AB191216B0742202D0
:1059830034BB1258197417227403F09003F5125A9A
:10599300AA7402227402F09003F1125AAA74142218
:1059A30074F71203EFEAFEEBFF8E828F83A3E0F519
:1059B300087036EE242F125A187003A3E0696003AF
:1059C3007508E8EE2426FAE43FFB12225CE9603214
:1059D300EE2432F582E43FF583E4F0E508700AEE45
:1059E300FAEFFB12226EE9F508E50860128E828F4A
:1059F30083A3E508125A2874191246B91222140215
:105A0300477CEE24321242B460D1901A1EE070CB70
:105A13007508E880D8F582E43FF583125AAA90030B
:105A2300F1E06822E4F08E828F8322C082C0837407
:105A3300F11209857402120B877404125835E0C001
:105A4300E07403120B87D0E0F0EA242FF582E43BE5
:105A5300F583125AA6740D120B87124619EA2426EF
:105A6300FCE43BFD7404120B87AA82AB831212423F
:105A73007404120B87AA82AB8312225CE9600E12B4
:105A83005AAF120EEE9003EB74FFF0A3F074021200
:105A930009471216B0740F0239BAA3A3A3A3A3A391
:105AA300A3A3A3125AAA22124102F92285188285BE
:105AB300198374FFF0A3F0AA18AB1979532274F673
:105AC3001203EF74E8120985EAFEEBFF7402120B6E
:105AD300877403F0EE2413F508E43FF509AC08FDE1
:105AE3007404120B87AA82AB8312124E12318AC03E
:105AF300E0740C120B87D0E0125815740D120B874B
:105B0300AA82AB8312227AAA08AB0912225CE9604B
:105B13000E125AAF120EEE9003EB74FFF0A3F07463
:105B2300021209471216B074188004A908740912E6
