:020000040000FA
:06000000020AF1020244B5
:03002B000208E1E7
:030033000205EBD8
:030053000201792E
:03006B000205B9D2
:100083000201D80100F0FF0700080000FFFF000095
:1000930003040000000300010020FD00FD0C090D16
:1000A30000000000030D0F0D030D1B0D00000000E9
:1000B300030D0F0D00000000000000000000000011
:1000C300000000000000000000000000390D3F0D9B
:1000D300450D810D00000000000000003A823682C9
:1000E30032822E822A821A8216829E823E820A825D
:1000F3000E82128201AACDABCDAB0101C68201CC27
:10010300820206FFFF010400000117000000E8035C
:100113000000FFFF7B170188130000E80300006461
:10012300006400B801A0BB0D00A0BB0D00020202D9
:1001330007040101051E02051E020A0A010108093E
:10014300080103B80B02803E0102FEFFE8030A0523
:100153000001FFFF010A011401E00105030101FF92
:100163000F10FEFF6027000000009626000000002D
:10017300FF000000FF00C0E074F112045BA2AFE4D3
:1001830033F509D2AF85A708AFA1EF5508FE741068
:100193005E6006120DED75A1EF74085E6008120D26
:1001A300F375A1F78024EFA2E092F0E508A2E082C4
:1001B300F05017906198E0F89003C5E0C398A2D27D
:1001C30065D0335002E8F075A1FEE509A2E092AFD5
:1001D3007F020204BAC0E074F212045BA2AFE433FC
:1001E300FED2AF9061A4E0F8759B00E591585408E6
:1001F30060087591F7120E418023E5915854106001
:10020300087591EF120E478014E591A2E092F0E891
:10021300A2E082F05007E0C2E0F0120F919061A3D8
:10022300E0F8E5E9585404600E120F6775E9FB9096
:100233006193E0A2E640F2EEA2E092AF7F010204F6
:10024300BAC0E074F212045BA2AFE433FED2AF9003
:1002530061A5E0F8E5BF585404600675BFFB120FB3
:10026300A980D4C3E498F8E499F91202A78026C3BD
:10027300E49AFAE49BFBE920E7E91202A7E498F881
:10028300E499F922C3E498F8E499F91202A7E498EF
:10029300F8E499F9C3E49AFAE49BFB22EB20E7CF55
:1002A300E920E7E0B90010BB0008E88AF084F8AA67
:1002B300F022E4FBC8FA22EB70227B10C833C8C9D2
:1002C30033C9335007C39AC3DBF280069A50012A1D
:1002D300DBEAC833F4C8C933F4C9FA2275F008E479
:1002E300C833C8C933C933C99AC99B5004C92AC979
:1002F3003BD5F0ECFBC833F4C8E4C9FA220808087C
:10030300EAC0E0EBC0E086F0E7A4FA180986F0E75C
:10031300A42AFA180986F0E7A42AFA180986F0E74E
:10032300A42AFA1986F0E7A4FBE5F02AFA1908864D
:10033300F0E7A42BFBE5F03AFA190886F0E7A42BC3
:10034300FBE5F03AFA18180986F0E7A4C5F02BFB91
:10035300E43AFA1908E7C5F0C6A426F6E5F03BFB34
:10036300E43AFA1886F0E7A4F6E5F00826F6E43B4B
:1003730008F6E43A08F6D0E0FBD0E0FA22E4CFC076
:10038300E0E4CEC0E0E4CDC0E0E4CCC0E075F02012
:10039300E626F608E633F608E633F608E633F618FB
:1003A3001818EC33FCED33FDEE33FEEF33FFC3ECF3
:1003B3009709ED9709EE9709EF97191919400FFF60
:1003C300EC97FC09ED97FD09EE97FE191906D5F098
:1003D300BFECF709EDF709EEF709EFF7191919D093
:1003E300E0FCD0E0FDD0E0FED0E0FF222518C5827E
:1003F300C0E0E51934FFC583C0E0E518C395822446
:10040300F810AF08858319858218800885831985BC
:100413008218D2AFCEF0A3E520F0A37808E608F067
:10042300A3DEFAEFF0A3E58124FAF8E608F0A3E6E9
:1004330008F0A3E608F0A30808E608F0A3E608F02E
:10044300A315811581D0E0FED0E0F8158115811543
:1004530081E8C0E0EEC0E022C0D02518C582C0E02C
:10046300E51934FFC583C0E0E518C3958224F31072
:10047300AF088583198582188008858319858218BA
:10048300D2AFC8F0A3E9F0A3EAF0A3EBF0A3790895
:10049300E709F0A3D8FAECF0A3EDF0A3EEF0A3EF95
:1004A300F0A3D0E0F0A3D0E0F0A3D0E0F0A3E520E8
:1004B300F0A3E5F0F0A322851983851882E0C0E05C
:1004C300A3E0F9A3E0FAA3E0FBA37808E0F608A30E
:1004D300DFFAE0FCA3E0FDA3E0FEA3E0FFA3E0C09E
:1004E300E0A3E0C0E0A3E0F5D0A3E0F520A3E0A300
:1004F300F5F010AF08858319858218800885831964
:10050300858218D2AFD082D083D0E0F8D0E0321207
:100513000B6BB90003020551E49003017876791857
:100523008002F0A3D8FCD9FA7A767B1A90008678F9
:10053300F479018015E493A3AD82AE838A828B8321
:10054300F0A3AA82AB838D828E83D8E9D9E7758223
:10055300EA7583B2740512087275829175832474E7
:10056300001208720575F0108E1A8F1B85821F8585
:10057300831E851882851983E0CEA3E0CF851F8271
:10058300851E83EBC9EAC8EDCBECCAC3E833C8E9DF
:1005930033C9EA33CAEB33CBC3EA9EF51DEB9FF5B0
:1005A3001CB35004AB1CAA1DEC33CCED33CDD5F0FA
:1005B300DAAE1AAF1B22C0E074F212045BA2AFE4FE
:1005C30033FED2AFE589A2E0400CE589A2E1400603
:1005D300E589A2E25003120C31758900C2C5EEA26F
:1005E300E092AF7F010204BAC0E0C0D0E8C0E0A847
:1005F300A8D2AF758B00C2E8E8A2E792AFD0E0F8CB
:10060300D0D0D0E032D083D082ECC0E0EDC0E0E4C3
:1006130093A3FCE493A3FDED4C600D1206E0EC24E0
:10062300FFFCED34FFFD80EFE493A3FCE493A3FD13
:10063300ED4C600D12077DEC24FFFCED34FFFD80D3
:10064300EFD0E0FDD0E0FCE493A3C0E0E493C0E08E
:1006530022851983851882E0A3FEE0A3F52078089C
:10066300E0A3F608DFFAE0A3FFE0A3C0E0E0A3C045
:10067300E0E0A3C0E0E0A3C0E0E0A3C0E010AF0867
:100683008582188583198008858218858319D2AFDE
:10069300D083D082020878D083D082E9C0E0E4938B
:1006A300A3C386F0C5F095F0F908E493A386F0C5DB
:1006B300F095F0700BE493A3C3994005E90480021D
:1006C300A3E475F002A42582F582E5F03583F58372
:1006D300D0E0F9E493A3C0E0E493C0E022C0E0C318
:1006E300E49396087401939618400FE49366700898
:1006F30008740193661870007019A3A3C3E493965A
:10070300087401939618A3A3400DD0E0D0E0D0E085
:10071300020644A3A3A3A3A3A3D0E02274048004EA
:1007230074028000CCC0E0EDC0E0E518C39CCCAD02
:100733001950011D10AF068C188D1980068C188D69
:1007430019D2AF1207F4D0E0FDD0E0FC227402808E
:1007530000CCC0E0EDC0E0E518C39CCCAD1950015E
:100763001D10AF068C188D1980068C188D19D2AF09
:100773001207D2D0E0FDD0E0FC22C0E0C0F088F048
:10078300E4936670080874019366187000A8F0A3D8
:10079300A3700BD0F0D0E0D0E0D0E0020644A3A3D6
:1007A300D0F0D0E022D083D082CCC0E0E493A36029
:1007B300061208531470FAE493A3600612095E1438
:1007C30070FAD0E0FCE493A3C0E0E493C0E022CA53
:1007D300C0E0E493A3C582CCC582C583CDC583F0B5
:1007E300A3C582CCC582C583CDC583DAE5D0E0CA73
:1007F30022CAC0E0E0A3C582CCC582C583CDC58330
:10080300F0A3C582CCC582C583CDC583DAE6D0E02B
:10081300CA22C008C3E096F50808A3E09642080878
:10082300A3E096420808A3E09645087001D3D008D8
:10083300227009080808226016181818C6C333C6A0
:1008430008C633C608C633C608C633C6D5E0EA228F
:10085300C0E0E493A3D39C5010E493A3C39C400A49
:10086300D0E0D0E0D0E00207C5A3A3A3D0E022C02C
:100873009FF59FE473D09F22D083D082C09FE493DF
:10088300C0E0740193C0E0740293F59F2274048066
:100893000A74038006740280027401C0E0F4041237
:1008A30008C6D0E0120B2E2200C0D0251810AF08C6
:1008B300F518500C05198008F51850020519D2AF28
:1008C300D0D0222518F58210AF08F518400C151961
:1008D3008008F51840021519D2AF85198322C0E0AC
:1008E300C0D0E8C0E0A8A8D2AFC2C7E8A2E792AFE1
:1008F300D0E0F8D0D0D0E032BB0102E722C082C002
:100903008389828A83BB0003E08002E493D083D08F
:1009130082226016080808C6C313C618C613C61871
:10092300C613C618C613C6D5E0EA222518F8E4355F
:1009330019F9222518FAE43519FB222518FCE435A8
:1009430019FD22C3E0C696F608A3E0C696F608A3EF
:10095300E0C696F608A3E0C696F622C0E0E493A3A9
:100963006C7009D0E0D0E0D0E00207C5A3A3D0E0CB
:1009730022251810AF08F518400C15198008F51832
:1009830040021519D2AF22E066701008A3E066702A
:100993000A08A3E066700408A3E06622C3E0960891
:1009A300A3E09608A3E09608A3E096A2D265D0330D
:1009B30022E76670100809E766700A0809E766709F
:1009C300040809E76622C3E096F008A3E096F0085E
:1009D300A3E096F008A3E096F022C3E697F6080991
:1009E300E697F60809E697F60809E697F622C3E4C0
:1009F300939608740193960874029396087403936C
:100A03009622E627F60809E637F60809E637F608D8
:100A130009E637F622700422600D18C6C333C608F0
:100A2300C633C6D5E0F41822E493F608740193F6AE
:100A330008740293F608740393F622E657F608093E
:100A4300E657F60809E657F60809E657F622E05690
:100A5300F608A3E056F608A3E056F608A3E056F618
:100A630022E056F008A3E056F008A3E056F008A3EE
:100A7300E056F022E026F608A3E036F608A3E036B7
:100A8300F608A3E036F622E647F60809E647F60835
:100A930009E647F60809E647F622E026F008A3E050
:100AA30036F008A3E036F008A3E036F022E4C3965C
:100AB300F608E496F608E496F608E496F622C6F4F9
:100AC300C608C6F4C608C6F4C608C6F4C622C3E7F9
:100AD300960809E7960809E7960809E79622C3E00E
:100AE3009608A3E09608A3E09608A3E0962275D0A3
:100AF3000075813F75180175190300020512E6F0B0
:100B030008A3E6F008A3E6F008A3E6F022600C08C9
:100B1300C6C313C618C613C6D5E0F422E0F608A36D
:100B2300E0F608A3E0F608A3E0F622CAC0E0E6F088
:100B3300A308DAFAD0E0FA22E8F0A3E9F0A3EAF096
:100B4300A3EBF022E0F8A3E0F9A3E0FAA3E0FB2291
:100B5300EAF0A3EBF0A3ECF0A3EDF022E0FAA3E0BC
:100B6300FBA3E0FCA3E0FD22E5C754F84401F5C76D
:100B73007901222518F582E43519F58322C2AF7570
:100B8300D69F0200002212087B84DE0412087B1425
:100B9300DF0412087BABDF0412087BF7DF041208C3
:100BA3007B28E00412087B5FE00412087BF0E10479
:100BB30012087BBAE20412087B94E30412087B5602
:100BC300B60512087B5BB60512087B8DB6051208C5
:100BD3007B20B70512087BD4FF0412087BE5FF04D2
:100BE30012087BFCFF0212087BF3C10512087B1578
:100BF300C00512087B25C00512087B3AC005120800
:100C03007BB1C00512087BFAFE0212087B7DFF024E
:100C130012087BE3FF0212087BC5B00512087BF9BB
:100C2300B00512087B62B10512087B46B2051208B3
:100C33007BA0B20512087BE8970512087BF697059F
:100C430012087B6F980512087B69990512087B3F90
:100C53009B0512087B9BC10512087BF57F001208D8
:100C63007BF87F0012087BDEB40512087BEEB40527
:100C730012087BAAB50512087BB9B50512087B1BC0
:100C83009A0412087B7B9A0412087B359B04120892
:100C93007BDF9C0412087B7F9D0412087BC59D04A7
:100CA30012087B309E0412087B9E9E0412087BDF91
:100CB3009E0412087B4C9F0412087B8AA00412082E
:100CC3007B9FA00412087BC5A00412087B32A104F9
:100CD30012087BA3A10412087B23A20412087B94AD
:100CE300A20412087BBEA20412087B86A404120885
:100CF3007BBEA50412087BE1A60412087B73A7043C
:100D030012087BE3A70412087B49A90412087B0796
:100D1300AB0412087BC1AC0412087BBAAD04120801
:100D23007B67B10412087B85B30412087B92AE057E
:100D330012087B00AF0512087B31B00512087B3423
:100D4300B00512087B3AB00512087B52B0051208B1
:100D53007B89A70512087BC8A70512087B05A9058F
:100D630012087BDE9E0512087B7F9F0512087B2EEF
:100D7300A00512087BF2A00512087BADA10512089D
:100D83007BCDB70512087B0E7A0012087B3A7A00F6
:100D930012087BAB7C0012087BEB7C0012087B2BD8
:100DA3007D0012087B3F7D0012087B587D001208EE
:100DB3007B497E0012087BEE7E0012087B027F00D7
:100DC30012087BA7BA0512087BCBBA0512087BE48D
:100DD300BA0512087B16BB0512087B46BB05120831
:100DE3007B73BB0512087BD5BB0512087BE4BB05EF
:100DF30012087BEEBB0512087BFBBB0512087BE4E4
:100E0300A40512087B04A50512087B43A505120857
:100E13007B5EA50512087B7DA50512087BE3A5056E
:100E230012087BECA50512087B49A60512087B581E
:100E3300A60512087B7CA60512087B3DA7051208B0
:100E43007B4AA70512087B5BA70512087BB9FF0144
:100E530012087BD1FF0112087BFDFF0112087BD230
:100E63008B0512087B2C8D0512087B3A8D05120821
:100E73007B4D8D0512087B628D0512087B778D05EE
:100E830012087B8A8D0512087BFE8D0512087B6391
:100E93008E0512087B058F0512087BC98F05120882
:100EA3007BD98F0512087BE88F0512087B7CBF0571
:100EB30012087BA0BF0512087BC8BF0512087BF090
:100EC300BF0512087B0BAA0512087B32AA0512087C
:100ED3007B50AA0512087BC3AA0512087B11A20541
:100EE30012087B2AA20512087B36A20512087B4A48
:100EF300A20512087B68A20512087B72A2051208DC
:100F03007B7CA20512087B8FA20512087B15A30523
:100F130012087B8AA30512087BB9A30512087B0775
:100F2300A40512087B56A40512087B71A4051208B8
:100F33007B7BA40512087B8CA40512087BCFA40538
:100F430012087BBCC00512087B1EEF0412087B4805
:100F5300EF0412087B65EF0412087B78EF04120894
:100F63007B8EEF0412087BECEF0412087B24F00461
:100F730012087B18F40412087B5DF50412087B90B9
:100F8300F50412087BF3F50412087B53F7041208E7
:100F93007B7BF70412087B90F70412087BA0F7040D
:100FA30012087BE4F70412087B3FF80412087B4F16
:100FB300F80412087B45BD0512087B5FBD051208C6
:100FC3007B87BD0512087BA0BD0512087BC4BD0548
:100FD30012087BE2BD0512087BF9BD0512087B27C9
:100FE300BE0512087B42BE0512087B57C1051208D5
:100FF3007B5CFC0312087B6CFC0312087B71FD0312
:1010030012087BA3FD0312087BD3FD0312087BF6B2
:10101300FD0312087B0DFE0312087B47FE03120833
:101023007BACFE0312087BEEFE0312087B2DFF034D
:1010330012087B5EFF0312087B89FF0312087B17EC
:10104300FF0112087B29FF0112087B67FF011208C9
:101053007B75FF0112087B43B90512087B63B90551
:1010630012087B77BA0512087B7ABA0512087B1639
:101073007F0012087B4C7F0012087B667F001208FA
:101083007BA87F0012087BBF7F0012087B008005CE
:1010930012087B0A800512087B44800512087BAD89
:1010A300800512087BCA800512087B6C8105120833
:1010B3007B75810512087BBA810512087BE38105E4
:1010C30012087BF0810512087B61820512087BEC14
:1010D300820512087B3A830512087B788305120880
:1010E3007BDD830512087B00840512087B7784056A
:1010F30012087BCE840512087B09850512087B3E06
:10110300850512087B50850512087B628505120848
:101113007B81850512087B8A850512087B45860538
:1011230012087B91860512087BCF860512087B0582
:10113300BC0512087B7FFF0412087B5CAC05120818
:101143007B92AC0512087BDAAC0512087B33AE0543
:1011530012087B58660012087B7C670012087BB676
:10116300670012087B60690012087B8A6900120815
:101173007BFF6B0012087B3F6C0012087BD56D0070
:1011830012087B726E0012087BC46E0012087B6724
:101193006F0012087B9F6F0012087BE16F0012083B
:1011A3007B50710012087B9E720012087BCF740083
:1011B30012087BFD740012087B24750012087B2D36
:1011C300750012087B7D750012087B0F76001208EC
:1011D3007B3E790012087BC1790012087BD3C105DD
:1011E30012087BE9C10512087B21900512087B37A1
:1011F300900512087BDB900512087B1A91051208F3
:101203007B37910512087B68910512087BB5910520
:1012130012087BE8910512087B23920512087B18BC
:10122300940512087B75BE0512087BD4BE0512080F
:101233007B12BF0512087B53BF0512087B00800495
:1012430012087B2F800412087BAB800412087BF901
:10125300810412087BDF820412087B538404120882
:101263007B78840412087BCA840412087B4C8504AF
:1012730012087B8D850412087BA0850412087BF776
:10128300850412087BB4860412087B2087041208A5
:101293007B4A870412087B93870412087B278904FF
:1012A30012087B008A0412087B498B0412087B1CFA
:1012B3008C0412087BA48C0412087BE78C041208AC
:1012C3007B018D0412087B488D0412087B688D0412
:1012D30012087B278E0412087B4A8F0412087BA412
:1012E3008F0412087BE88F0412087BE49004120831
:1012F3007B60930412087B7F930412087BEB9304B7
:1013030012087B10940412087B8D940412087B53FB
:10131300950412087B90950412087B099604120821
:101323007BFD960412087B00970412087B0A97043E
:1013330012087B14970412087B27970412087BA3D7
:10134300970412087BD9970412087BEC97041208C0
:101353007B18980412087B3F980412087B63980457
:1013630012087B9E980412087B10990412087B389C
:10137300990412087B42990412087B7E990412088F
:101383007B98990412087BD2990412087BE899048C
:1013930012087B07C10512087B1FC10512087BFBDE
:1013A3007F0012087B7FF80412087BCEF804120832
:1013B3007B6EFA0412087B29FC0412087B6BFC0485
:1013C30012087B54FD0412087B5EFE0412087B8026
:1013D300FE0412087BCAFE0412087B4BFF041208AA
:1013E3007BF3E20212087B16E30212087B75E40228
:1013F30012087BBEE40212087B18E50212087B7E0A
:10140300E50212087B81E50212087BCDE502120892
:101413007B47E60212087BDAE60212087BDDE6026E
:1014230012087B69E70212087BACE70212087B0D06
:10143300EC0212087B9FED0212087BE1ED02120819
:101443007B55F10212087B7CF20212087B61F302E6
:1014530012087BEFF30212087B17F40212087BD900
:10146300F50212087BF6F70212087BF6F80212085F
:101473007B84F90212087B85FA0212087B2FFC0297
:1014830012087B32FD0212087B98FD0212087B448E
:10149300FE0212087BD0B30412087B70B404120856
:1014A3007BDAB40412087BF3B40412087BAFB504EF
:1014B30012087B0EB60412087B12B70412087B27AE
:1014C300BA0412087B59BB0412087BDABB04120866
:1014D3007BD9BD0412087B86BE0412087B2CBF0493
:1014E30012087B11C00412087BDCC10412087B4480
:1014F300C30412087B54C40412087BF6C404120804
:101503007B15C60412087B9BDA0312087B0FDB03EF
:1015130012087B57DB0312087B95DB0312087BE47D
:10152300DB0312087B2EDC0312087B66DC03120844
:101533007BE4DC0312087B3EDD0312087B9ADE03A7
:1015430012087B29DF0312087B40E00312087B6843
:10155300E00312087BAEE10312087BBFE10312082C
:101563007BD7E10312087BE1E20312087BABE303C1
:1015730012087BB8E40312087BDCE40312087BF354
:10158300E40312087B14E50312087B36E503120813
:101593007B53E50312087B2FE60312087B87E603E0
:1015A30012087B19E90312087B68E90312087B8799
:1015B300E90312087B66EA0312087B9CEA0312081C
:1015C3007BB4EB0312087B31EC0312087B9EEC0324
:1015D30012087BDAEC0312087B43ED0312087BFD50
:1015E300ED0312087BBBEF0312087BBCF003120868
:1015F3007B41F20312087B22F40312087B85F60376
:1016030012087B2BF80312087BF9F80312087B5F9F
:10161300F90312087B76F90312087B66FA031208B2
:101623007B52FB0312087BBFFB0312087BA49B05C1
:1016330012087B499D0512087B069E0512087B6AEA
:101643009E0512087B25940512087B439405120816
:101653007B87940512087BAD940512087BD3940510
:1016630012087BEB940512087B03950512087B6631
:10167300950512087BA8950512087BCA96051208E2
:101683007BD3960512087BDC960512087BE596054D
:1016930012087BEF960512087BFB860512087B1662
:1016A3008B0512087B248B0512087B298B051208F6
:1016B3007B6BB30512087BC97F0012087BE1FF0334
:1016C30012087B00800312087B33800312087B9A85
:1016D300800312087B26810312087BCD8103120845
:1016E3007B15820312087B3A820312087B53820321
:1016F30012087B79820312087B9B820312087BD931
:10170300820312087B28830312087B518303120888
:101713007BB0830312087B89840312087B3F850314
:1017230012087B9D850312087B63860312087BAD39
:10173300860312087B04870312087B6F8703120852
:101743007BAD870312087B03880312087B1F880382
:1017530012087B10DA0412087B598A0312087B9F54
:101763008B0312087BCB8B0312087BFF8B031208BE
:101773007B208C0312087B2F8C0312087B3A8C038B
:1017830012087BEA8C0312087B598D0312087B062F
:101793008E0312087B428E0312087B008F0312080C
:1017A3007B0D900312087B5A900312087BE9900388
:1017B30012087B43910312087B5EDE0412087B1739
:1017C300940312087B71950312087BBD98031208DA
:1017D3007B9B990312087B729A0312087B9B9A03E3
:1017E30012087B0C9B0312087BA29B0312087B0647
:1017F3009C0312087BF59C0312087B1A9D031208B5
:101803007B7D9E0312087B9B9E0312087BAE9E0387
:1018130012087B1C9F0312087B20A00312087B2D58
:10182300A00312087B36A00312087B30A203120820
:101833007B56A30312087B66A30312087B5CA403F5
:1018430012087BD8A40312087B11A50312087B1F7F
:10185300A60312087B5BA60312087B36A8031208B3
:101863007B17AC0312087B21AC0312087B35AC0356
:1018730012087B3FAC0312087B49AC0312087B536D
:10188300AC0312087B6CAC0312087B76AC03120822
:101893007BE6AC0312087BF1AC0312087B19AD03A2
:1018A30012087B24AD0312087B72AD0312087B7C04
:1018B300AD0312087B87AD0312087BABAD0312089F
:1018C3007BCFAD0312087B2CAE0312087B72AE03F1
:1018D30012087B8EAE0312087B15AF0312087B4CF4
:1018E300AF0312087B8BAF0312087BD8AF03120838
:1018F3007B5AB00312087B06B10312087BE2B203E2
:1019030012087B50B30312087B7CB40312087BA23A
:10191300B40312087BFBB50312087B53B903120807
:101923007B8CBB0312087B6ABD0312087B03BE03D7
:1019330012087B28C00312087BDCC00312087B1546
:10194300C10312087B7BC10312087B85C103120804
:101953007BAFC30312087BBAC40312087B02C5031F
:1019630012087BB6C50312087B59C70312087BE034
:10197300C80312087B00C90312087B53C90312086A
:101983007B53CA0312087B7BCA0312087BDECA039C
:1019930012087BC1CB0312087B33CC0312087B45AF
:1019A300CD0312087BC9CD0312087BC7CE031208EF
:1019B3007B5DD10312087B7CD10312087BC7D20362
:1019C30012087B95D40312087BE9D40312087BA188
:1019D300D50312087B51D60312087BAAD60312083B
:1019E3007B6FD70312087B05D80312087B6CD803DF
:1019F30012087BAED80312087BDFD80312087B3FA3
:101A0300DA0312087B00800212087B32800212087C
:101A13007B6B800212087B56820212087B3A830298
:101A230012087B92830212087BD5840212087B2161
:101A3300850212087B4D880212087BC18B021208B3
:101A43007B098D0212087B9F8D0212087BAB8D02EE
:101A530012087BEB8D0212087B808F0212087B74C5
:101A6300900212087B9E900212087BF590021208E6
:101A73007B4E910212087BBF910212087BF4930202
:101A830012087B8B950212087B5F960212087BA6D5
:101A9300970212087BFE990212087BCF9C02120860
:101AA3007BDE9C0212087B629D0212087B179E025A
:101AB30012087B5A9E0212087BB89E0212087BD43E
:101AC3009E0212087B069F0212087B459F021208A2
:101AD3007B2BA00212087BDAA00212087B60A30210
:101AE30012087B96A40212087B7DA50212087BFDD7
:101AF300A50212087B0AAA0212087B48AA0212084E
:101B03007BAFAA0212087BE2AA0212087B75AB0222
:101B130012087BA8AB0212087B43AC0212087B912C
:101B2300AC0212087B64AD0212087B2BAE021208D2
:101B33007BC9AE0212087BD3B10212087BE7B20263
:101B430012087B8DB60212087B8FB70212087B92B4
:101B5300B70212087BC1B70212087BC0B902120890
:101B63007B99BA0212087BBEBA0212087BDABB0267
:101B730012087B92BC0212087B49BE0212087B6EDC
:101B8300BE0212087BA8BE0212087B41BF021208E4
:101B93007B3CC00212087BF2C00212087B03C30223
:101BA30012087B6EC30212087BB6C30212087B11B4
:101BB300C40212087BE9C70212087BDEC8021208BE
:101BC3007BD8C90212087B55CA0212087B27CB02B5
:101BD30012087B28CD0212087B3CCD0212087B50F1
:101BE300CD0212087B86CD0212087BB6CD02120805
:101BF3007B40CF0212087B21D00212087B89D002DE
:101C030012087BFDD00212087BADD10212087BDDE6
:101C1300D10212087B9CD20212087B39D30212082C
:101C23007B46D50212087B85D50212087BF7D502C5
:101C330012087B3CD70212087BEFD70212087B23E2
:101C4300D80212087B3BD80212087BDED8021208A6
:101C53007BCCDB0212087B97DD0212087BBBDD0223
:101C630012087BD9DD0212087BADDE0212087BD598
:101C7300E20212087BD1820112087B098301120858
:101C83007B22880112087B68880112087BBA8901CC
:101C930012087B2C8A0112087B9B8B0112087B8F15
:101CA3008E0112087BB38F0112087BD199011208B0
:101CB3007B5A9A0112087BB79D0112087BC69E01CD
:101CC30012087B219F0112087B6FA00112087B5928
:101CD300A10112087B04A40112087B8AA501120842
:101CE3007B17A60112087B1AA60112087B91A60195
:101CF30012087B9BA60112087BA8A60112087BD3BE
:101D0300A60112087B7EA70112087B6EA8011208A8
:101D13007B27A90112087B45A90112087B5AA90157
:101D230012087B83A90112087BB0A90112087BF07A
:101D3300AB0112087BBDAC0112087B02AD01120896
:101D43007B79AD0112087B27AE0112087B59AE01E6
:101D530012087B9FAE0112087BD2AE0112087B17DB
:101D6300AF0112087B68AF0112087B6DAF01120847
:101D73007BC1AF0112087B2AB00112087BF3B001CB
:101D830012087B3EB10112087BA3B10112087BFF4D
:101D9300B10112087B9DB20112087B09B60112083A
:101DA3007B24B70112087BB0B80112087BD1BB01B9
:101DB30012087B73BC0112087B84BF0112087B3FAE
:101DC300C00112087B87C00112087B36C2011208CA
:101DD3007B4AC20112087B54C20112087B5EC20116
:101DE30012087B6AC20112087B92C20112087B7639
:101DF300C40112087BCFC40112087BD9C4011208A5
:101E03007BE3C40112087B58C50112087BA3C501FB
:101E130012087BA4C60112087BFBC60112087B05CE
:101E2300C80112087B4EC80112087BFEC8011208C4
:101E33007BE1C90112087BB4CA0112087B06CC01FD
:101E430012087B29CD0112087B21CE0112087B39B0
:101E5300CE0112087B70CE0112087B7ACE011208E4
:101E63007B85CE0112087BA3CE0112087BEBCE014A
:101E730012087B49CF0112087B70CF0112087B82C5
:101E8300CF0112087B1DD00112087B52D00112082A
:101E93007B44D10112087B86D10112087B6AD201EF
:101EA30012087B91D20112087BFED20112087B76C5
:101EB300D30112087BFAD40112087B27D60112083A
:101EC3007BFCD60112087BBFD70112087B66D801C1
:101ED30012087BABD90112087B69DA0112087BD5A2
:101EE300DA0112087B91DB0112087BE2DB011208A5
:101EF3007B3CDC0112087B0DDD0112087B30DD0128
:101F030012087BF1DD0112087B13DE0112087B74DA
:101F1300DE0112087BBCE00112087BC0E10112085C
:101F23007B77E20112087B98E40112087BE2E4016B
:101F330012087B2DE50112087B88E50112087BF569
:101F4300E50112087B23E60112087B47E60112082C
:101F53007B7CE60112087BA9E60112087BEFE60110
:101F630012087B43E70112087B97E70112087BBA4B
:101F7300E80112087B5AEA0112087BA5EA0112085C
:101F83007BCEEA0112087B61EB0112087BD9EB01DE
:101F930012087BE7EB0112087B0BEC0112087B6252
:101FA300EC0112087B7DEC0112087B3AED0112086B
:101FB3007B66ED0112087BA9ED0112087B0CEE0193
:101FC30012087BFCEF0112087B29F00112087B1B2E
:101FD300F10112087B28F20112087BE1F2011208D9
:101FE3007BC0F30112087BF8F30112087B19F4019B
:101FF30012087B5DF40112087BC1F40112087BCB4C
:10200300F40112087BDBF40112087B12F5011208BC
:102013007B0AF90112087B18FB0112087B05FD01FD
:1020230012087B9CFD0112087B3EFE0112087BF324
:102033002A0012087B9C2B0012087B732C001208C9
:102043007B7B2D0012087B9B2D0012087BB32E0097
:1020530012087B6D300012087BE0300012087B7D94
:10206300310012087B94320012087B0133001208FE
:102073007B3C330012087B91330012087BCC330086
:1020830012087B19340012087BA9340012087B362E
:10209300350012087B0B360012087BE43600120869
:1020A3007B72370012087B92370012087BBF370020
:1020B30012087BF0370012087BC3380012087BD369
:1020C300380012087B22390012087B2F39001208CE
:1020D3007B38390012087BA8390012087B083A00C4
:1020E30012087B533A0012087B6E3A0012087B9564
:1020F3003A0012087BB23A0012087BBE3A0012087B
:102103007B693C0012087B823C0012087B0B3D007C
:1021130012087B1E3D0012087B3D3D0012087BD850
:102123003D0012087B483F0012087BEF4000120875
:102133007B7E410012087B81410012087BF1410044
:1021430012087B0F420012087BB4420012087BF096
:10215300420012087BF3420012087BB943001208C5
:102163007B1C440012087B55440012087BCA4400C0
:1021730012087BE8440012087B36450012087B0BEB
:10218300460012087B59460012087BA74600120836
:102193007B34470012087B69470012087B9E470087
:1021A30012087BAC470012087B0B480012087B83A4
:1021B300480012087BC4480012087B144900120827
:1021C3007B3F490012087B59490012087B73490081
:1021D30012087B4E4A0012087B584A0012087B9370
:1021E3004A0012087BA34A0012087BFB4A0012082C
:1021F3007B0F4B0012087B454C0012087B5A4C00A6
:1022030012087BE84C0012087B504D0012087B0338
:102213004E0012087B0E4E0012087B5E4F00120820
:102223007B7A4F0012087BC64F0012087B355000A3
:1022330012087B6E500012087B88500012087BE85E
:10224300500012087B87510012087BD251001208FC
:102253007B94540012087B4A550012087BDA550020
:1022630012087B22580012087B3A580012087B3D63
:10227300580012087B49580012087B5D5800120869
:102283007B65580012087B98580012087B8B590015
:1022930012087B165A0012087BA95A0012087B22E7
:1022A3005B0012087BE65B0012087B085C001208E7
:1022B3007BA15C0012087BFE5C0012087B015D00C1
:1022C30012087B7B5D0012087BC75E0012087BD27D
:1022D3005F0012087B5D600012087B6261001208D8
:1022E3007B22620012087B53620012087B79620032
:1022F30012087B82620012087BB0620012087B48DE
:10230300630012087BFD630012087B6E64001208F1
:102313007B15650012087B9C650012087BDB65005A
:1023230012087B1E660012087B1ED80412087BF07D
:10233300D70412087BBDD70412087B41D7041208C7
:102343007B24D70412087BB3D60412087B05D5047B
:1023530012087BBDD40412087BEED30412087B63FE
:10236300D20412087BD0D10412087BA0D104120836
:102373007B51D10412087BEBD00412087BAAD00452
:1023830012087BDCCF0412087B77CF0412087B167C
:10239300CF0412087BBCCE0412087B55CD0412086F
:1023A3007BF2CC0412087B6ACC0412087B65CC0454
:1023B30012087B4ECC0412087B13DE0412087B1B2D
:1023C300CC0412087BDDDD0412087B60DD041208F7
:1023D3007BFBDC0412087BAADC0412087BD2DB043F
:1023E30012087B42DB0412087BC1C90412087BBEBE
:1023F300C90412087BA5C90412087BF6DA04120883
:102403007B9AC90412087B6FC90412087BACC7040A
:1024130012087B68C70412087B71DA0412087B5424
:10242300C70412087B88910312087BD3EE041208B9
:102433007B7AEE0412087B45EE0412087B10EE044F
:1024430012087BDCED0412087B6EED0412087B5648
:10245300ED0412087B31ED0412087BFAE90412083B
:102463007BCDE70412087BD4E50412087B60E50406
:1024730012087B11E50412087BCBE40412087B2CC1
:10248300DA0412087B6DE40412087B4A8803000017
:102493000080FBE4738F000100491B8700010047A4
:1024A3001B350004000E1B25000200121B26000230
:1024B30000141B27000200161B28000100201B2903
:1024C300000100211B84000400071886000100841A
:1024D3001A2A000100221B2B000100231B2C0001E0
:1024E30000281B2D00080014182E000100291B2FA3
:1024F3000001002A1B300001002B1B310001002CBE
:102503001B320001001C18330001001D18340001A8
:10251300002D1B360001001E18380001002E1B3948
:10252300000100271B83000200451B6300010029F3
:102533001864000100241B65000100251B6D0001C8
:10254300002A18710008000C1866000100441B43A0
:10255300000100351B44000200361B450001003812
:102563001B46000200391B470008002118480001E0
:10257300003B1B4B0001003C1B04000100481BA156
:102583000001004C1B370001004B1B880001004A6F
:102593001B3C0001001F183D0001002F1B490002D6
:1025A300003D1B670001002B184D0002003F1B4E2E
:1025B300000100411B4F000200421B3E000100349A
:1025C3001B51000100301B52000100311B5300015D
:1025D30000331B540001002018000000000000001D
:1025E300013636010100010201000103010001046B
:1025F30001060605020000070100340801000F0967
:102603000401010D0100FF0E08000017020000196C
:102613000100FF1A0100011B0100FE1C0100081D3F
:102623000200001F0100012001000121020000231C
:1026330001000F24020000260100012701000828E1
:102643000200FF2A0100072B0102402C0100002D8C
:102653000100012E0100012F0100FF30010B1D318C
:102663000800003A0100083B01000F3C0100013D56
:102673000100FF3E04000042040000460400004A3B
:102683000400004E04000052040000560400005AE7
:1026930004000001037103010301030103010301AA
:1026A30003220302030103100300030003000300DA
:1026B3000300030003000342030003240306030093
:1026C3000300030403120325032303250323030445
:1026D3000304030003000300034403000300032374
:1026E3000300036503210035038103000305030091
:1026F30003000300030003250323030302710230D5
:102703000160021102700201020202020280021041
:102713000261023A004100630273027202620243E1
:102723000200021302380000020002040212020037
:102733000200020002000204020402370037003CD8
:102743000244020002390000020002650200023561
:102753000281020002050282028302000203007169
:10276300003001600011007000310220035004802A
:102773000010006100000014006300730072006227
:1027830000430000001300060000000000040012D4
:1027930000000000000000000004000400370037C0
:1027A300003C02440000000000000000006500003F
:1027B30000350081000000050000008300000001D7
:1027C3000171010101010111010101310101010146
:1027D300018001100161013B001400630173017268
:1027E30001620143010001130106013D01350004AB
:1027F3000112010001000100010001040104013381
:102803000133013C0144013201360000010001653E
:1028130001000135008101000105018201830100EE
:10282300010304710402046004110470040204022D
:102833000401040204100461040004140463047317
:102843000472046204430400041304060400040035
:10285300040404120400040004000400045104648A
:102863000000040004000444040004000400040005
:102873000465040004350481046400050400048332
:1028830004000436000100060000000F00000000F1
:1028930000000000000000000003FFFF000004032D
:1028A300FFFF0000FFFF0FF4010005C40403200035
:1028B3000100000B000000000000000003010F00F6
:1028C3000000000000000000000000000000000005
:1028D30000000000000000000000000000000000F5
:1028E30000130059141F005F141F8065140000B902
:1028F300140100B914020005140280FF1303000B36
:1029030014040011140480171405001D1406002973
:102913001431003B14330041143400471436004D86
:1029230014FFFF00000A0000000200000004000082
:10293300000800000010000000200000004000001C
:1029430000800000000001000000020000000400FD
:1029530000000800000010000000200000004000FC
:102963000001B11C06E11C08DB1C0BFF1C10B7198E
:1029730002B71C05CF1C07BD1C0C991C0DA51C64BC
:10298300A717FF000007ECFDFDFDECDCDCCCBCACC5
:10299300AC9C9C8C7C7C6C6C5C5C5C4C4C3C3C2CA4
:1029A3002C1C1C03EAF5E5D5D5C5B5A595958585FC
:1029B3007575656555554545353525251515050049
:1029C300160F00000B150B020002220F3300000E3E
:1029D3000F667A6C636874696D65434F2E2C4C5493
:1029E300645A6967426565416C6C69616E63653001
:1029F30039D0D1D2D3D4D5D6D7D8D9DADBDCDDDE02
:102A0300DF000119161816161823030000034D4C96
:102A13004651181A250502303016181920231A1C9E
:102A23001E30003C40423A3F3F392F473030301789
:102A3300181921301B1D1F300C0E020B040B0A0743
:102A430008000F02040201010101090200BE040A89
:102A5300E80300000E000000E8030100030000008B
:102A63007F00030004091E100A0C100803FF0C2842
:102A73000004040209033C0C050815081EE4F0A336
:102A8300F0A3F0A322122A80F0221258182408126D
:102A93003F2B22122A9A22E0F508E4F509F50AF5FC
:102AA3000B22E824FBF582E934FFF58322F5831238
:102AB3002AB622E0F508A3E0F509221223177404CD
:102AC3001208AB7F080206547401F09003DDE06442
:102AD3000F2274091208AB7F04020654A3A3E02457
:102AE300F5C39413229003FD125A927A147B0022A9
:102AF300C082C083901955748FF0A37420F0A3741F
:102B0300A1F0A37420F09019597477F0A37420F006
:102B1300A37471F0A37420F0A374ADF0A37420F038
:102B2300A374B3F0A37420F0A374A7F0A37420F0EC
:102B3300A3745FF0A37420F09019657483F0A374F9
:102B430020F0A37489F0A37420F0A3747DF0A37420
:102B530020F0A374B9F0A37420F0901976124AF50B
:102B63006006124F4412114D9019731243B074084A
:102B7300F0A3E4F0A3F0901A1FF0901978F07C0B07
:102B8300FDF97A797B1912109F7C0B7D0079007A0D
:102B9300847B1912109F02420874F71203EF74F733
:102BA300120974EAFEEBFF1241667405122C61747C
:102BB30003F0122C36122C3D2430FCE43FFD8C82B2
:102BC3008D83E088828983122C4A600812349774BB
:102BD300FFF0A3F0EE242EE43F1C1CFD8C828D83BA
:102BE300A3E0C0E08A828B8312416DD0E0122C4AAD
:102BF30088828983124A1C24031255C11212377426
:102C030008120B767403F09003F212072374021276
:102C1300093E7903EEFAEFFB12224B74021208AB62
:102C2300E9F5087007EEFAEFFB12212BA9087409E6
:102C33000234A3EE2402FAE43F22FB8A828B83123E
:102C43002C59124605EE22124A48122C59124605F7
:102C53008C828D83E0221244C08A828B8322F0A36C
:102C6300E4F0122C6922EE240DF582E43FF5832271
:102C730074F01203EFEAFEEBFF8C0C8D0D890B123F
:102C83002C361244B77410120B76E0F508A3E088D3
:102C9300828983F0E824FFF582E9123061E508F0C8
:102CA300E824FEF582E9123061E50BF09003F7E0CA
:102CB300C0E0E824FDF582E9123061D0E0F0900332
:102CC300F6E0C0E0E824FCF582E9123061D0E0F0E0
:102CD3007412120B76122AB2122AA5E509F0E8241F
:102CE300FAF8E934FFF988828983E508F0EE2404D1
:102CF300FCE43FFD88088A828B83E0F50E8C828D8D
:102D030083E0250EC39508124A48124601850C82BA
:102D1300850D83A3A3A3A3A3A3A3A3E064037008C4
:102D23001244B1F0A3E48003123066122C647409D8
:102D3300F0750879750919750A0078081208941254
:102D4300304F12109374031208AB7508FF7509FF17
:102D53007808120898AC0CAD0D7903EEFAEFFB126C
:102D6300224B74021208ABE9F5087007EEFAEFFB89
:102D730012212BA908022AC6C082C083901995E0AC
:102D8300C39408400474078001E08A828B83F03384
:102D9300333354F8F902420874F01203EF8A088BB4
:102DA30009890A8C0E8D0F750C00A2AFE433F50B65
:102DB300C2AF90198F8045122E97503D122EA664F4
:102DC300037036E50824F9F508E50934FFF5098EA3
:102DD300828F83A3A3E02405FCA3E03400FDAA08AB
:102DE300AB09121237E50824FFF508E50934FFF5AE
:102DF300097410250CF50C150A12327412650FE5CF
:102E03000A6004EE4F70B0E50BA2E092AFA2AFE40C
:102E130033F50BC2AF90198F8038124A13123C0D51
:102E2300850882850983124A48122E9DA3A3E0C018
:102E3300E0E50824FFF582E509123061D0E0F0E512
:102E43000824FEF508E50934FFF509050C150A12F7
:102E530032741230CE6021122EA6640270F1122E4B
:102E630097EE40B612429AA2E550E4850E82850F92
:102E7300837401F0E50A70D7E50BA2E092AF8508F1
:102E830082850983E50CF0E50824FFFAE50934FFA0
:102E9300FB022AC6123283A2E622122EA122124A72
:102EA3003DA3228E828F83A3A312417112517E22EE
:102EB30074F01203EF74F31209747403120B76E9BE
:102EC300F07402120B76EAF08B0B85188285198356
:102ED300E4F004120936122041E9F89003DCE029FA
:102EE3002437F508FA7B001210B18A0C8B0DAE0C57
:102EF300AF0DEE4F7003023046EE2402F50EE43FB1
:102F0300F50FA808EE28F8E43FF9850E82850F83B4
:102F1300124DF59003DCE0F9FAC3E49AFA95E0FB6D
:102F2300850E82850F83E02AF50CA3E03BF50D9017
:102F330003DA122AB2750A007808120894E9FC7DB4
:102F430000AA0CAB0D12109374031208ABAC18ADAE
:102F5300197401120B76E0F9E50C24FFFAE50D3440
:102F6300FFFB1220478A828B83E4F0E50BC454F005
:102F7300F9901A20E0C4333354C0F89003D6E0A28A
:102F8300E0E43313134849440FC0E0EA24FFF58219
:102F9300EB123061D0E0F0EA24FEF50CEB34FFF5E0
:102FA3000D7403120B76E0F87402120B76E0C4542E
:102FB300F048850C82850D83F0A80C850E82850F61
:102FC300831257E12AC3988E828F83A3A3A3A3F00E
:102FD300850E82850F83E8F0A3E50DF012306612AB
:102FE3002C64E4F0740C120B76E4F0750884750914
:102FF30019780812089412304F12109374031208B0
:10300300AB851882851983E06009EE240E12429C79
:103013004408F0122233E9F9E4F508F509780812B7
:103023000898740612093EEEFAEFFB12224B740263
:103033001208ABE97006EEFAEFFB800BEEFAEFFB3A
:103043001210B77A007B00740D022AC37C0B7D003B
:10305300EE241BFAE43FFB22EE24FFF582EF34FF5C
:10306300F5832212553AE4F0A32274F21203EF8A95
:103073000C8B0DA2AFE433F50AC2AF7508007509D6
:103083000090198F802C12328E5024850C82850D6E
:1030930083A3A31255448E828F83A3A3124F471297
:1030A3002239E9600A12327FC2E6F08E088F0912D4
:1030B30032741230CE70CFE50845096006123167CD
:1030C300D2E6F0E50AA2E092AF800DE0FEA3E0FFB6
:1030D300EE4F2274021208AB7F0602065474F012FC
:1030E30003EF8A0E8B0F8C0C8D0D750A00A2AFE4D3
:1030F30033F50BC2AF7E007F0090198F8010AE08AE
:10310300AF0912315F12429AD2E7F01240871240A0
:103113009D6034123167A2E750F1850882850983E7
:10312300A3A3120723AC0CAD0DAA0EAB0F12223FC3
:1031330074021208ABE960D3EE4F60C212352F70F0
:1031430006123172D2E4F0E50BA2E092AFEE4F60CB
:1031530006122125750A01A90A022AC6123283D250
:10316300E4F0EE22E5081254643509F583E0228E7B
:10317300828F83A3A3124171E02274F21203EF74CE
:10318300FE120974750C00750D008518828519836C
:10319300E4F0A3F0A2AF33F50AC2AF90198F126522
:1031A3000F8035EE24FBF582EF34FF122AB0780C42
:1031B300120898EEFCEFFD7A8F7B191210E7740268
:1031C3001208ABEEFCEFFDAA18AB191210D5AE082E
:1031D300AF09901995E014F0EE4F602B12328E5028
:1031E3001DEE240BF8E43FF988828983E024FFF085
:1031F300A3E034FFF088828983124AF560A58E0C20
:103203008F0D1232748097E50AA2E092AF90199560
:10321300E060319003DDE0640F6006901A1FE070F8
:10322300237A6D7B191223239082C212071F7A6DB2
:103233007B1912231774041208AB800874F012462A
:10324300A1122119AA18AB191210DB8A088B09AE37
:1032530008AF09EE4F601312205312327FA2E28EA1
:10326300828F83A350D674E980D40230D68E0A8F1E
:103273000BEE24FBF582EF34FFF583221232832217
:10328300EE2411F582E43FF583E022123283A2E7B4
:103293002274F71203EFEAFEEBFF12205312416A86
:1032A300122496E964019003F9700AE02401F8A35B
:1032B300E0340080031240EAF91248751246019087
:1032C3001995E070219003DDE0640F70197A6D7B2E
:1032D300191223239082C212071F7A6D7B191223BE
:1032E3001774041208ABA8A8C2AF901995E004F0B4
:1032F300E8A2E78004E508A2E092AF02476474F70E
:103303001203EFEAFEEBFF123336F0122053EEFC0A
:10331300EFFD7A8F7B191210E1A8A8C2AF9019951F
:10332300123C609003DDE0640F700579081221EB15
:10333300024764123283C2E42274F71203EF74EA81
:10334300120974EAFEEBFF9003D6E0603C85188215
:103353008519837401F0120B76E412340E120B7686
:10336300AA82AB83121237123172C0E0740A120BB5
:1033730076D0E01257FD740B120B76AA82AB831240
:103383002263AA18AB1912169974160234A374F7A0
:103393001203EFEAFEEBFF122035E9F974DC6960F2
:1033A3001E74DD69601974E469601474F369600F55
:1033B30074DE69600A74DF69600574DB697007EEA7
:1033C300FAEFFB1221F102476474F71203EF74EB77
:1033D300120974EAFEEBFF851882851983740612BD
:1033E300340E120B76AA82AB83121237EE2408FC3A
:1033F300E43FFD740A120B76AA82AB83122263AAFE
:1034030018AB1912169974150234A3F0EE2413FCA9
:10341300E43FFD74022274F71203EF74F712097488
:10342300EAFEEBFFEE243012429C6065123D03AAD4
:1034330018AB191212377408120B767403F0900349
:10344300F2120723123497120723900405E0F9744C
:103453000412093EEEFAEFFB12203B74041208AB90
:10346300E9F974DC69602374DD69601E74E46960E2
:103473001974F369601474DE69600F74DF69600A9C
:1034830074E869600574DB697007EEFAEFFB1221DB
:10349300F1022C31EE242EF582E43FF583227403EE
:1034A3001208AB02476474F21203EF8A0C8B0D759A
:1034B3000A00750B007508E7A2AFE433F509C2AF44
:1034C30090198F80031232701230CE603612328E12
:1034D30050F312352F70EEEE243212429CF88A829A
:1034E3008B83A3A3E06870DD780A120898EEFCEFE3
:1034F300FD7A8F7B191210E774021208AB901995AD
:10350300E014F0E509A2E092AFEE4F6013EEFAEF9C
:10351300FB12205379F0EEFAEFFB1221F17508004C
:10352300A908AA0CAB0D1221F10230DB122C69E0C1
:1035330064012274F41203EF74F7120974EAFEEBC8
:10354300FF8E828F83A3E064F370030235E08E82E3
:103553008F83A3E064DF70030235E08E828F83A341
:10356300E064E860788E828F83A3E064DB606E1290
:103573002095E9F508705EEE240E12429C60561207
:1035830035EA1220D7EA4B604C7408120B761235D9
:10359300F41207237508FF7509FF78081208988E3F
:1035A300828F83A3A3A3A3A3A3A3A3E0F974041209
:1035B300093E12203B74041208ABE9F50874F36565
:1035C30008601274DF6508600C74E86508600674AF
:1035D300DB6508700F8E828F83A3E508F0EEFAEFA8
:1035E300FB1220A1022AD5EE240FFAE43FFB79094E
:1035F300227402124F5674FFF0A3123601221236C0
:103603000522124A25A3A32274F11203EFEAFEEB6B
:10361300FF7508008E828F83A3A3A3A3A3A3122AFB
:10362300DF40037508E88E828F83A3A3A3A3A3A31C
:10363300A3A3A3A3E0C3941040057508E880138EE9
:10364300828F83A3A3A3A3A3A3A3A3A3A3E0640F32
:10365300600B9019FCE0540870037508E8EE240B26
:1036630012429CF88E828F83A3A3A3A3A3A3A3A335
:10367300A3A3E0C398500DEE240B12429C640F6089
:10368300037508E89003F6E0F47003A3E0F4700315
:103693007508EC7A237B001211478A0A8B0BA80A60
:1036A300A90B9019761236DE60298E828F83A3A32D
:1036B300A982AA83890C8A0D750E00780C120894CE
:1036C3007C237D00901976E0FA121093740312089C
:1036D300AB800375081AA90802552D124605E8495F
:1036E3002274F51203EFEAFEEBFF8E828F83A3A30E
:1036F300A3A3A3A3A3A3E09003DD125EB59003F8F5
:10370300125E9B9003D8125EBA901A20F0F9120E43
:10371300EF901A20E06018EE2404FAE43FFB79509E
:10372300120ED7EE2406FAE43FFB79E1120ED7908E
:103733001A1F122ACB600474018002740090197856
:10374300125EA11208947C0B7D007A797B1912100A
:103753009374031208ABEE2418F508E43FF50978D7
:10376300081208947C0B7D007A847B1902440F7441
:10377300F71203EFEAFEEBFF8E828F83A3E070065E
:10378300124F4412209B12469B1221FD0247647480
:10379300F71203EFEAFEEBFF901976124AF5600D7C
:1037A300124F44901976E4F0A3F012114D8E828FDC
:1037B3008374081246A112169902476474F6120321
:1037C300EF901A1FE06013901978E0700D1237E044
:1037D30012204DEA4B600312212B025B1D9003D88C
:1037E300E0FB9003F8E0FA9003DDE0F92274F412B1
:1037F30003EF74E7120974EAFEEBFF750B018E8287
:103803008F83A3A3A3A3A3A3A3E0A2E25068EE2400
:103813002BF582E43F12554212472C122059E970CE
:1038230055908202E064017005750B0080481238E0
:10383300BC1208947C0B7D0074111209361210938C
:1038430074031208AB122233E9FA740E12092E889C
:1038530008890978081208987508307509007808EE
:103863001208981238AE1207231257CB790112228D
:103873005174061208AB85188285198374101234AB
:103883000E120B76AA82AB8312122B1238AE125A87
:103893008E740B120B76124601740D120B76E50B28
:1038A30012444F1216997419022AD71238B222EE13
:1038B300242BF582E43FF58322EE2408125EA9222D
:1038C300C082C083901A20E060031222A50242083E
:1038D300C082C083901A177455F0A37419F0A374AF
:1038E30059F0A37419F0A37465F0A37419F0901B35
:1038F3005F7424F0A37428F0901A01742FF0A3745A
:1039030020F090199A7465F0A37420F090199C74B8
:103913006BF0A37420F09019FCE04402023D39C01F
:1039230082C083EAFCEBFD7903024A9DC082C08317
:103933007908025C9BC082C08374FE1209749019DB
:10394300A27413F0A37421F09019A4740DF0A3745E
:1039530021F0800D7A8F7B191210DB12444512225D
:103963002190198F124AF570EB901991124AF56064
:103973000F7A917B191210DB12444512222180E940
:1039830090198FE4F0A3F0901995F0A3F0A3F090B1
:1039930019B0744FF0A37421F074028002741112F1
:1039A30008AB02420874F61203EFE9FF742529F508
:1039B30082E4342AF583E493FEFA7B001210B1EA21
:1039C3004B6013EA2E1242E5E8F0A3E912581DA357
:1039D300A3A3E4F0802C7A027B001210B1EA4B60BF
:1039E3001D74302FF582E4342AF583E4938A828BA5
:1039F30083F0A3741AF09019F7E0F91210BD7A005E
:103A03007B00025B1DE9FC740629F8EAA2E0501E64
:103A1300E875F00A84E5F0F96014740A28C399F88C
:103A2300E9C394054004740A28F8740B28F8ECC31E
:103A330094134004791480027906E8297900240953
:103A4300F85001097A0A7B0012029FE8F90208780C
:103A5300C082C0839019FCE05402600A12169FE9E9
:103A63006004790180027900024208C082C0839019
:103A730019FCE054026016901995E0700C124AF29A
:103A8300600BE0C81240945004790180027900026F
:103A93004208C082C0839081FFE0F8901997E0C389
:103AA3009850051210B180047A007B00024208C0CE
:103AB30082C0831222217900024208C082C083742B
:103AC300FE120974851882851983EAF0A3EB123C70
:103AD3003CA3A3A3A3A3E0600A14605D24FE60607B
:103AE300023B9B9003DDE0640F60181221F7E9703D
:103AF30012851882851983124F4790199E12416DC2
:103B0300122496900405E0C0E0851882851983127B
:103B130049F5D0E0123C3C741412547EFCA3E0FD42
:103B23007A917B191210D5A8A8C2AF901997123CAD
:103B33006079201221EB02399C123C00741580D964
:103B4300123C00A3A3A3A3E0604E123C0012317603
:103B5300C0E08518828519831257F0123C1AD0E011
:103B630012547E2402F8A3E03400F988828983E0AA
:103B73002401FAA3E03400FB88828983EAF0A3EBF3
:103B830012547E123F348518828519836013123CC8
:103B93000D6005123C234048AA18AB19122221805C
:103BA30095123C0D60F2123C235021123C30FA85F1
:103BB3001882851983A3E0C82406123EFFF87445D2
:103BC300124C37342AF583E4936A6014851882858E
:103BD3001983123C0D640870BF123C30640870B83E
:103BE300123C3014123C44240AC0E0851882851923
:103BF3008312416DD0E0123C4404023B1C851882C1
:103C0300851983A3E0F583888222123C1122124096
:103C1300EAC8123C1AE0222406F582E438F583222E
:103C2300851882851983123C11C3940A2285188250
:103C3300851983122EA1A3E022123C4EF5838882BC
:103C430022123C4EC82406123F2B22F0851882858F
:103C530019831240EA22A8A8C2AF901996E004F093
:103C6300E8A2E792AF22C082C0839019A6124AF558
:103C73006008123C071224968002790002420874FD
:103C8300F71203EFEAFEEBFF122C6974011242A450
:103C9300125532122C45243512429CC0E0EE2413F7
:103CA300F582E43FF583D0E0F0EE243612429CC067
:103CB300E0EE2414F582E43FF583D0E0F0EE2438FF
:103CC30012429CC0E0EE2418F582E43FF583D0E075
:103CD300F0EE242FF582E43FF583120723123D0310
:103CE300EE243112429CF912224B74021208ABE902
:103CF300F5087007EEFAEFFB12212BA908024764BF
:103D0300EE2426FCE43FFD22C082C0831221F7E9A2
:103D13006004792080027901024208C082C083EAEC
:103D23002411123D2FD2E0800DEA240DF582E43BED
:103D3300F583E022F0A3F0024208C082C083123D63
:103D43002C64017011123DCB400C8A828B83A3E05B
:103D5300F91221F1806FEA2410123D2FA2E65012CE
:103D63008A828B83A3E0F99019A012416D122496E5
:103D73008053123D2C6401700D123DCB50088A8292
:103D83008B83743080368A828B83A3E0641B8A82A0
:103D93008B83700474228024A3E0700D123D2CF8F1
:103DA300741A124C37342A800B123D2CF8743012DB
:103DB3004C37342AF583E4938A828B83F09019F786
:103DC300E0F91210BD024208EA2410F582E43BF543
:103DD30083E0A2E32274F71203EFE9FE124AF270C2
:103DE30003023EFAEE6011741B6E7013E0C8123EBC
:103DF300FD64057003023EC8123F03E4023ECC7427
:103E0300E96E7061123F23700B1216A5E96005126B
:103E13003F3E606179EE120E59901998123F20903F
:103E23001998603A123F41901998700B123F201471
:103E3300F012100F023EFA123F33C2E71240D012C3
:103E43003EFD6403700B1257ED2411123EFFD2E2C4
:103E5300F079ED120E59123F131224968075123F1A
:103E63000674E9806474E16E703E1216A5E960552C
:103E7300123F3E70509003FFE0C0E01257ED241252
:103E8300F582E438F583D0E0F09003EEE0C0E090F3
:103E93001998123F0F123F0FD0E0F09003EEE004A9
:103EA300F07901120FF7804F741C6E7018901998F7
:103EB300124F479019A812416D122496901998E455
:103EC300F0A3F08032123F03EEF0901998124F479F
:103ED3001221191240B1E054806010900405E0F9FA
:103EE300120F13900404E0F9120F07901998E4F0ED
:103EF300A3F079101221EB024764240D123F2B2209
:103F0300901998123F0A22124175A322124A3922AC
:103F1300901998124F4B90199C12417122E0F8A30B
:103F2300E0C82412123F2B22F582E438F583E02205
:103F3300E0F8A3E0C82410123F2B229019981240F6
:103F4300B8E054042274F41203EF750A00750B00F1
:103F5300A2AFE433FEC2AF124AF2600302403D1245
:103F6300416A122496E94410F890198F8009850854
:103F73000A85090B12408712409D700302403D12CF
:103F83003167586870E8780A120898AC08AD097A66
:103F93008F7B191210E774021208AB901998E50889
:103FA300F0A3E5091240D01240945003024044901C
:103FB3001996E014F0EEA2E092AF901998E0240E67
:103FC300F8A3E03400F9E8FEE9FF8E828F83124FF5
:103FD30047901998123C36F91220DDE9901993F0B5
:103FE300A3125A0FE0548060181257ED2413123EA7
:103FF300FFF9120F131257ED2414123EFFF9120F9B
:10400300071240B1A3E05401605F901993124AF57F
:1040130060451240C760401240C7F8790090199379
:10402300124F471202A7E8C0E01240A5D0E01240A9
:10403300D5C3941340117402800FEEA2E092AF80B7
:1040430037901995023FB57400C0E0901999E0C804
:1040530012407ED0E0800D1240A574011240D012B0
:10406300407E7401F07903800C901998123F33A2BB
:10407300E1B3E433F9120FF7022ADA241AF582E4E2
:1040830038F58322E50824FBF582E50934FFF5833F
:1040930022125464123F2EA2E722122AB6E50845E3
:1040A30009221258152419F582E438F58322901950
:1040B300981240B8221240EAC81240C02212548E0D
:1040C30038F583221258152418123F2B221240E28E
:1040D300C8221240E2F5838882A3A3A3A3E022F0BF
:1040E3009019981240EA22E0F8A3E02274F7120331
:1040F300EFEAFEEBFF12221B124299A2E3400A12DF
:10410300352F70059081FD80039081FEE0F9EEFC70
:10411300EFFD7A8F7B191210EDE96037EEFAEFFBB2
:104123009019A212416D122496EE240E12429C5451
:10413300047011123C59124166A3E054017021121C
:104143002125801CEEFAEFFB90199A12416D12247F
:1041530096800D8E828F83A374F11246A1122119CA
:1041630002476412553A229019A412417122124156
:104173007522E0F8A3E0F58388822202420174F7F6
:104183001203EFEAFEEBFF79009019FCE054027092
:104193000CEE243312429C5404600279E89019FC1B
:1041A300E05460700CEE243312429C540260027996
:1041B300E88E828F83A3A3A3A3E0F8908203E0C3D6
:1041C30098500279E8EE243112429C700CEE242EB2
:1041D30012429C700479F5800BE97005122107E9FE
:1041E300F9E96007EEFAEFFB1221F1024764C0829E
:1041F300C0838A828B83740DF01216998007C08264
:10420300C083122125D083D08202087874F412036C
:10421300EFEAFEEBFF8E828F83E4F0A31242A454F5
:10422300049081FD7012E0F8901996E0C398401253
:1042330079F11221F1022ADAE0F8901995E0C39896
:1042430050EE1242AAA3E054016039EE2437124221
:104253009CC39405403CEE243312429C54057032B7
:104263007AAA7B19122323EE2437F582E43FF583E0
:10427300122A9678081208907AAA7B1912231774C7
:10428300041208ABEEFAEFFB9019F7E0F91210BD38
:1042930080A379E8809CEE2410F582E43FF583E067
:1042A30022F01242AAE022EE2433F582E43FF583A2
:1042B3002274F61203EFE9FE2451FAE43400FB12F0
:1042C30010B1EA4B6015EE8A828B83A3A3A3A3F0FC
:1042D300EA24511242E512460180047A007B00026F
:1042E3005B1DF8E43BF98A828B83A3A3220242017C
:1042F300C082C0839019B37479F0A37421F0A374BE
:10430300A9F0A37421F0A3747FF0A37421F0A37424
:1043130085F0A37421F0A374A3F0A37421F0A37414
:1043230097F0A37421F0A37491F0A37421F0A37404
:10433300AFF0A37421F0A374B5F0A37421F0A374B8
:10434300BBF0A37421F0A374C7F0A37421F0A3748A
:104353008BF0A37421F0A37473F0A37421F0A374FE
:104363006DF0A37421F09019CF749DF0A37421F024
:10437300A374C1F0A37421F0A374DBF0A37422F03F
:10438300A374CDF0A37421F0A374D3F0A37421F02C
:104393009019F3E4F09019F6F09019DF1243B0741A
:1043A30002F09019E81243B07401023D3974EBF046
:1043B300A37421F0A32274F51203EF74F1120974AC
:1043C3008518828519837402F07401120B76E9F063
:1043D30060047AFF7BFF7402120B761265967508F0
:1043E300EB750919750A0078081208947C0B7D0097
:1043F3007407120B76AA82AB83121093740312080C
:10440300ABAA18AB19121699740F80051210937486
:10441300031208AB7F0302065474F71203EF74FD13
:10442300120974851882851983740AF07401120BBA
:1044330076E9F07402120B76EA12444F12169902CF
:1044430034A1851882851983EAF0A3EBF0AA18AB8F
:10445300192274F61203EF74F7120974EAFEEBFFE4
:104463001244B1122C6174021245F2AA18AB19124C
:10447300122BEE24311255A91244B78A828B83E89A
:10448300F0A3E91242A41255CE120898740212093D
:104493003E79831A1AEFFB12224B74021208ABE91E
:1044A300F5087007EEFAEFFB12212B025B1612558B
:1044B3003A740122FB8A828B831244C022E024FFD8
:1044C300F8A3E034FFF92274F01203EF12605112E3
:1044D3000B1F7808790C12030078081208907AE20F
:1044E3007B19022ABE74F41203EF74C61209749086
:1044F30003DDE0640F6010851882851983742E1222
:10450300444F1221FD80277AD97B19122323122AC3
:10451300E81202A788088909E4F50AF50B7808125E
:1045230008907AD97B1912231774041208AB743AD2
:10453300022AD774F51203EFEAFEEBFF8E828F8314
:10454300A3E0F860030245DBEE243012429C6402D0
:104553006007E06403600278E8EE2426F582E43F16
:10456300F583122AE1400478E88070E8706AEE244B
:1045730026FAE43FFB79E1120ED7EE2431FAE43F49
:10458300FB7950120ED7EE243012429C6402701451
:10459300EE2428F582E43FF583125A8E9003EC1241
:1045A300460180129003EC74FEF0A3041245F27AE4
:1045B300E37B03121237EE241B1238BF1208947CDC
:1045C3000B7D007AEB7B1912109374031208ABEE88
:1045D300FAEFFB122167E9F8E86011E88E828F8316
:1045E300A3125A1074171246A11221FD024417F0A8
:1045F300EE2428FCE43FFD22125A92901A741246CC
:104603000522E8F0A3E9F02274F61203EF74F7121F
:1046130009749019F6E0703B7401F0F9120FC1AA06
:1046230018AB1912222D7508EB75091978081208B1
:104633009875080175090078081208989003F2121A
:104643000723740612093E7A037905122251740670
:104653001208AB025B1874F71203EFEAFEEBFF7963
:1046630001120FC78E828F83E064207004A374EB62
:10467300F09019F6E0A2E25003C2E2F0E0A2E150AA
:10468300081248B7122161800C8E828F83742A121C
:1046930046A11221FD0247648E828F83742CF0EEB3
:1046A300FAEFFB2274F41203EF74FE120974EAFEAC
:1046B300EBFF7901120FC77AD97B191223237AE210
:1046C3007B19122323124A01851882851983124A02
:1046D3002FE0F50B7011AA18AB197953120ED712EC
:1046E300472C794A120ED71238BC1208947C0B7DE2
:1046F300007AEB7B1912109374031208AB851882AE
:10470300851983124F47A90B12215B9019F6E0A27A
:10471300E1500C7A008E828F83A3E0F9122161901D
:1047230019F6E4F07402022AD7EE2413FAE43FFBED
:104733002274F71203EFEAFEEBFF8E828F83A374DA
:10474300EBF09019F6E0A2E150077A0079EB122121
:1047530061EEFAEFFB1221978007EEFAEFFB1222CC
:10476300997F0102065474F71203EFEAFEEBFF7917
:1047730001120FC77AD97B191223237AE27B19120C
:1047830023239019F3E4F09019F6F07AFF7BFF8E60
:10479300828F83A3E0F912215B80C674F71203EFC3
:1047A300EAFEEBFF12219180B174F71203EFEAFEE8
:1047B300EBFF7901120FC78E828F83A3A3A3A3E01C
:1047C30060047400800274EB1247FE5003C2E2F0EF
:1047D300E0A2E150081249001221618014A2E050C6
:1047E300108E828F83742AF0A374EB1246A11221D8
:1047F300FDEEFAEFFB12213D0247648E828F83A305
:10480300F09019F6E0A2E22274F61203EFEAFEEB4F
:10481300FF9019F6E0D2E1F07901120FC18E828F79
:1048230083A3E0703C122233E9FAEE240DF508E489
:104833003FF509780812089875080175090078088A
:10484300120898124875120723EE2402FCE43FFD78
:10485300790512225174061208ABE98E828F83A365
:10486300F08E828F83A3E060067A00F91221610241
:104873005B1D12487922EE240BF582E43FF5832277
:1048830074F71203EFEAFEEBFF7901120FC78E8272
:104893008F83E064207004A374EBF09019F6E0A218
:1048A300E25003C2E2F0E0A2E150061248B712213F
:1048B30061024764C2E1F07A008E828F83A3E0F93C
:1048C3002274F71203EFEAFEEBFF7901120FC77AA6
:1048D300D97B191223238E828F83A3A3A3A3E06022
:1048E300047400800274EB1247FE5003C2E2F0E04E
:1048F300A2E150061249001221610247F4C2E112FB
:104903003601A3E0A2E4E433FA8E828F83A3E0F9B5
:104913002274F71203EFEAFEEBFF7901120FC78E41
:10492300828F83A374EB1248035003C2E2F0E0A228
:10493300E150061248B712216102476474F712036B
:10494300EFEAFEEBFF7AD97B19122323EEFAEFFB92
:104953001221BB02475D74F71203EFEAFEEBFF7A05
:10496300D97B19122323EEFAEFFB1221BB02476412
:1049730074F71203EF74EF120974EAFEEBFF125798
:10498300CB7AE37B03121225E960628518828519CD
:10499300837409F07401120B7674EFF0124A01F874
:1049A3007402120B76E8124A2FA3A3E0C0E074044A
:1049B300120B76D0E0124A1C640870158E828F8326
:1049C300A3A31249F5E0C0E07405120B76D0E08092
:1049D300067405120B76E41257FD7406120B76AAC1
:1049E30082AB83122263AA18AB19121699741102AF
:1049F30034A31258182407F582E438F58322EE1203
:104A03004A13125A9288828983E0FCA3E0F9EC22CC
:104A13001255B7FB8A828B8322124A2022124A251F
:104A2300E022F08E828F83A3A3A3A322F0A3E91233
:104A33004A48124A3922124A3D22E0F8A3E0F5839C
:104A43008882A3A322F08A828B8322C082C083122E
:104A530022A5024208C082C083901A1374B3F0A344
:104A63007419F0A374CFF0A37419F0901B5974C296
:104A7300F0A37427F0A374FEF0A37426F09019FF3B
:104A83007455F0A37421F09019FCE04401023D3900
:104A9300C082C083EAFCEBFD7902122209024208BC
:104AA30074F61203EF74FE1209749019F8124AF5A2
:104AB30060077AF87B191222219019FEE4F0900A1C
:104AC300A3124AF560248007AA18AB191222219079
:104AD30019F7E0F91210C98A088B09A808A90985F2
:104AE30018828519831236DE70DE7402025B1A9017
:104AF3001998125A92E8492274F71203EFE9FA7BE4
:104B0300009019F7E0F91210F302476474F71203E7
:104B1300EF74F0120974EAFCEBFDE9FE8C828D83DD
:104B2300E0F8743B124C37342AF583E493C0E07405
:104B330001120B76D0E0F0640B700DEE8C828D8346
:104B4300A3F0122287024C32E07003024C32640C51
:104B53006003024C23741A6E700B7404120B76E418
:104B6300F0A3024C227404120B76ECF0A3EDF0ECEC
:104B73002432F582E43DF583E0C0E07403120B7642
:104B8300D0E0125D70120B477406120B76120B3BCA
:104B93008C828D83125A85740A120B76E8F0A3E98E
:104BA300124C3CE054106009851882851983E48017
:104BB30017EC2412F582E43DF583E0F89003FFE05F
:104BC300C398851882851983F0E0C0E0740C120B3A
:104BD30076D0E0F0EC2415F582E43DF583E0C0E007
:104BE300740D120B76D0E0F0EC2416F582E43DF55B
:104BF30083E0C0E0740E120B76D0E0F0EC2417F5DE
:104C030082E43DF583E0C0E0740F120B76D0E0122E
:104C13004C3CA3E0540160087401120B767411F04C
:104C23007402120B76EEF07401120936121699749F
:104C3300100234A328F582E422F0EC12548E3DF5E1
:104C43008322C082C0839019FEE06403700479015B
:104C53008002790002420874F71203EF9019FEE014
:104C6300124CD5745728F582741B39F5831251C041
:104C7300C2E7F0124CDCA3E493FE25E0FCE433FD31
:104C830074572CF582741B3D125542EC4D6005EEB2
:104C93009019FEF08A828B83E025E0FCE433FDE883
:104CA3002CF582E93DF583E493FCC4540F25E0F829
:104CB300740D124C37341AF583124AF5700512221B
:104CC30075800CEC540F124CDC12416D12249602C9
:104CD300476425E0F8E433F92225E0FCE82CF5826B
:104CE300E439F5832274F21203EF74FE1209748916
:104CF3000B8A088B09124DD6FA7B001210B18A0C6D
:104D03008B0DAE0CAF0DEE4F602E8E828F83E50BB5
:104D1300F0A3E4F0F50A7808120894124DE3122C7C
:104D230037FB12109374031208ABEEFAEFFB9019E2
:104D3300F7E0F91210BD8012851882851983E50BFF
:104D4300F0791AAA18AB191221F10230D674F012B5
:104D530003EF74FE120974890B8A0E8B0F124DD662
:104D6300F508FA7B001210B18A0C8B0DAE0CAF0D57
:104D7300EE4F60468E828F83E50BF0A3E4F0A80824
:104D8300EE28F8E43FF98E828F83A3A3124DF585B5
:104D93000E08850F09F50A7808120894124DE312DC
:104DA300305412109374031208ABEEFAEFFB901910
:104DB300F7E0F91210BD79008014851882851983F4
:104DC300E50BF0791AAA18AB191221F1791A7402BA
:104DD300022AC3740F29F582E4342AF583E493226B
:104DE300A80B7404124C37342AF583E493FC7D003A
:104DF300EE221246058E828F83A3A3A3A3E4F0229F
:104E0300C082C083E99019F7023D3974F61203EFAB
:104E130074FE120974EAFEEBFFEE54207030803901
:104E2300A8A8C2AF901997E014123C628A828B83C0
:104E3300124F379019FA1265961221FD8518828553
:104E43001983E0641560077AFA7B191222217A919B
:104E53007B191210DBEA4B70C7EF54807012801C71
:104E63009019FA1265961221FD7AFA7B1912222102
:104E73009019F7E0F91210C9EA4B70E4EE54106090
:104E83000E851882851983742D12444F1221FDEE6D
:104E9300A2E0500E851882851983742412444F12A0
:104EA30021FDEE5402600E85188285198374251244
:104EB300444F1221FDEE5404600E85188285198338
:104EC300742612444F1221FDEE5408600E85188299
:104ED300851983742812444F1221FDEE544060104B
:104EE3007401120B76124F51742C12444F1221FD90
:104EF300EE548060107401120B76124F51742F120E
:104F0300444F1221FD9019F8124AF56020A8A8C257
:104F1300AF9019F8124F479019F8E4F0A3123C62CE
:104F23001265951221FD7AFA7B191222217A007BF0
:104F330000024AED124F3B22E0851882851983F067
:104F430022901976124F4B22E0FAA3E0FB22E412DF
:104F53004F5622F085188285198322C082C0839020
:104F630019FA125A8EEA687002EB6970079019FAFF
:104F7300E4F0A3F002420874F71203EFEAFEEBFF3A
:104F8300EE4F7003120BE3A2AFE433F508C2AF8E0A
:104F9300828F83124AF56028E824FBFAE934FFFB89
:104FA3009019FA125544E86C7002E96D7007901974
:104FB300FAE4F0A3F08E828F83E4F0A3F012114D94
:104FC3000232F8C082C083901A217469F0A374225C
:104FD300F0A3747BF0A37422F0A37481F0A3742272
:104FE300F0A37437F0A37421F0A37487F0A37422A1
:104FF300F0A37431F0A37421F0A3743DF0A37421E2
:10500300F0901A2F74B7F0A37422F0A3748DF0A359
:105013007422F0A37493F0A37422F0A3749FF0A3FB
:105023007422F0A37499F0A37422F0901A20E4027E
:105033003D39C082C0839003ECE064FE7003A3E0BB
:10504300F470097CE37D0312122B801C8A828B830C
:10505300A3A3A3A3A3A3A3A37402F09003EC125AE4
:105063008E8A828B83124601024208C082C08390DB
:1050730003F6C3E094FEA3E094FF400479038002A7
:105083007902024208C082C0831251C98C828D8387
:1050930012517E687039740268701C8A828B831285
:1050A30050D7E06870298A828B83A31250D7A3E07C
:1050B30068701C7901801A7403687013EC2405FC72
:1050C30050010DEA2405FA50010B121231800279C6
:1050D30000024208A3A3A3A3A3E0F88C828D83A3B9
:1050E300A3A3A3A32274F61203EF7E00740A120B88
:1050F30076E0125172FF8A828B83A3A3A3A3A3A397
:10510300A3A3E06F706474026F704E8A828B83C0B6
:1051130082C08388828983A3A3A3A3A3E0F508881D
:10512300828983A3A3A3A3A3A3E0FBAA08D083D06C
:1051330082E06A7003A3E06B703088828983A3A343
:10514300A3E0FA88828983A3A3A3A3E0F9EA6C709E
:1051530002E96D70157E01801174036F700CE824F1
:1051630005FCE439FD121231E9FEEEF9025B1DF88C
:10517300A3E0F98882898312517E22A3E01313549A
:105183003F540322C082C0838A828B83A3A3A3A339
:10519300A3A3A3A3E0640270169003EC1251C068AA
:1051A3007003A3E06970047901800F7900800BEA32
:1051B300FCEBFD7AE37B03121225024208125A929A
:1051C3008A828B83E0228A828B8312517EF8227437
:1051D300F01203EF74FC120974E9851882851983B0
:1051E300F07402120B76ECF0A3EDF08A0A8B0B75C8
:1051F30008007402120B76122A8DC0E07401120BA0
:1052030076D0E012547EA2E75008750EFF750FFFAB
:10521300800A9003F2E0F50EA3E0F50F851882856E
:105223001983E0C2E7125483542060071254507468
:10523300088004125450E412548354046007125437
:105243005B7480800512545B741012548354106095
:105253000612543AE4800B9003FFE0C0E012543A84
:10526300D0E0125483A2E05003750820540860066E
:1052730074104508F5088A828B83A3A3E024FFFEFC
:10528300A3E034FFFFEA125445C39402E0400F64E5
:105293000B6009E0148E828F8312547474034508E3
:1052A300F508750900900412E0640170118A828B7D
:1052B30083A3A3A3A3E0C3946740037509108518D0
:1052C30082851983E0F50C750D00740E780C120AB3
:1052D30018E50D4509F509E0640270199003F7120A
:1052E3005D65F09003F6E0C0E012305BD0E0F0EED5
:1052F30024FEFE801CE06403701DEE24F9FEEF34EF
:10530300FFFF7C067D04EEFAEFFB121237EE24FF5B
:105313001EEF34FFFF8003E0602F7401120B76E071
:1053230060187414120B76E0650E7004A3E0650F29
:10533300700874404508F508800F8E828F83E50F4F
:10534300F012305BE50E12546A7401120B76E0F52D
:105353000C750D00740A780C120A18E50D4509F551
:1053630009E0640270237402120B76125BD98E82F9
:105373008F83F07402120B76123178C0E012305B27
:10538300D0E0F0EE24FEFE8020E064037021EE24E2
:10539300F9FEEF34FFFF7402120B76125544EEFA56
:1053A300EFFB121237EE24FF1EEF34FFFF8003E002
:1053B30060197414120B76125D64F07414120B7678
:1053C300E0C0E012305BD0E012546AEEF8EFF9E887
:1053D30024FF1EE934FFFFE50A12544570059003CC
:1053E300E280039003EEE0FA04F0EA8882898312F4
:1053F3005A10E5091254748E828F83E508F0E50A8A
:105403002404F8E4350BF9E50A2402FAE4350BFB2E
:10541300EEFC8A828B83E0F50888828983E0250885
:10542300C39C124A48EEF0A3EFF0850A82850B83F2
:10543300A3E4F0F9022AC1EA2412F582E4350BF55C
:105443008322240DF582E4350BF583E022EA241050
:10545300F582E4350BF58322EA125464350BF583A8
:10546300222411F582E422F0EE24FEFEEF34FFFF46
:1054730022F0EE24FF1EEF34FFFF22124F56E022EC
:10548300F0EA12548E350BF583E022240EF582E404
:105493002274F11203EF74FE1209748518828519C0
:1054A30083ECF0A3EDF0890B8A0E750A1A741512BA
:1054B3000B761263ED1220D78A0C8B0DAE0CAF0D59
:1054C300EE4F605F7413120B76E0125532E8F0A3CF
:1054D300E9122C64E50BF0750A007808120894129F
:1054E300304F12109374031208AB7411120B76121F
:1054F30007237402120B76125544A90EEEFAEFFB42
:1055030012224B74021208ABE9F50A7016E50B245C
:10551300F9600314700612327FD2E5F0EEFAEFFB66
:1055230012212BA90A74021208AB7F07020654F852
:10553300A3E0F912553A22EE12548E3FF58322F579
:1055430083E0FCA3E0FD2274F61203EF74F7120963
:1055530074EAFEEBFF7801EE243212429C6002787B
:1055630005124166E8122C6174041255C112122B04
:10557300EE242F1255A9122C3D243112429C1255B0
:10558300CE120898740212093E79031A1AEFFB121D
:10559300224B74021208ABE9F5087007EEFAEFFB31
:1055A30012212B025B16F582E43FF583122AB6EE35
:1055B3001255B7222402F8E43FF9E8FAE922F0EEA3
:1055C3002426FCE43FFDAA18AB19228882898312A2
:1055D3004A2004F078082274F21203EF8A088B0938
:1055E300ECFEEDFF8A828B837405F0EE24321242C7
:1055F3009C8A828B83A3A3F0EA2403F50AE435098A
:10560300F50B850A82F583E0F50CA3E0F50DEE2496
:1056130025F582E43FF583120B47E50C12546435FC
:105623000DF583120B3B1257CBAA0CAB0D12122BA9
:10563300850A82850B83125BDEFAA3E0FB888289ED
:1056430083A3A3A3126590EE242F12429CC0E01201
:1056530057D3D0E012580A2415F582E438F583E4D1
:1056630012580A1240C0E41257FD850A82850B8343
:10567300E02416FAA3E03400FB1222638E828F83A8
:10568300A3A3A3A3A3A3A3E0C0E0850A82850B83FE
:105693001257F0240DF582E438F583D0E01257F465
:1056A300FAA3E0FB850A82850B83125A8EE8240B4A
:1056B300FCE439FD8A828B83E08C828D83F0A3E442
:1056C30012581DE0F50B8C828D83A3E0450B125815
:1056D3001DA3E0FCEA2403FA50010BECA2E7E43338
:1056E300C0E0E8240FF582E439F583D0E0F07407D5
:1056F3005C600478018002780075F00374075CA491
:1057030028F8EA28FAE43BFBE5082405F8E4350920
:10571300F98A828B83E08882898312581DAA82AB1F
:105723008385088285098312659088828983E0F5E1
:105733000A25E0540EFCE50AC4540FF50A750B0064
:105743007403780A120A18E50A5438F8EC28F8EAC0
:1057530028F8E43BF9850882850983A3A3A3A3A3BF
:10576300A3A3A3A3E8F0A3E9124A1CFA8E828F83B2
:10577300A3A3E02AFAA3E03400FBC3EA98EB994021
:10578300288E828F83A3A3E0F8850882850983A3EB
:10579300A3A3A3A3A3A3A3A31257E1C39A28850892
:1057A30082850983A3A3A38016850882850983A321
:1057B300A3A3A3A3A3A3A3E4F0850882850983A3DA
:1057C300A3A3A3A3F00230DBEE2413FCE43FFD22EA
:1057D3001257D722E82410F582E439F58322E0FA40
:1057E3008E828F83A3A3A3A3E02290199812581843
:1057F30022F08E828F83A3A3E02212580122F0EEBF
:105803002408FCE43FFD22F0850A82850B831258AD
:1058130018229019981240EAC822124A48A3227407
:10582300F51203EF8C088D09750A007808120894A5
:105833007C0B7D0002440F020878C082C083791874
:105843001221F1024208C082C0838A828B83E0C3A3
:10585300940B500312226F024208C082C08379194D
:1058630080DE74F71203EFEAFEEBFF9019F8124A99
:10587300F560109019F8124F4712227B7AF87B19C2
:10588300122221EEFAEFFB12221B9019F8EEF0A37D
:10589300EFF002476474F71203EF74DE120974EA3F
:1058A300FEEBFF8E828F83E024FD601124FE6015E2
:1058B30024ED600924FA600D14600A803D74161209
:1058C3000B76E480077416120B767401F0123D0315
:1058D300740B120B76AA82AB831212377413120B5A
:1058E30076125973120B76124601740A120B761252
:1058F300597F120B7612460180417416120B76748F
:1059030002F01257CB740B120B76AA82AB831212DE
:10591300377413120B76125973120B7612460174F5
:105923000A120B7612597F120B76E8F0A3E912598B
:105933006D120B76AA82AB831222638518828519B6
:1059430083740B125A10A3E0C0E07401120B76D0DB
:10595300E012596D120B76AA82AB83122263AA1846
:10596300AB1912169974220234A312580174172228
:105973007403F09003F6125A927402227402F090A8
:1059830003F2125A9274142274F71203EFEAFEEB35
:10599300FF8E828F83A3E0F5087036EE242F125A10
:1059A300007003A3E06960037508E8EE2426FAE4B7
:1059B3003FFB122245E96032EE2432F582E43FF5E3
:1059C30083E4F0E508700AEEFAEFFB122257E9F5DB
:1059D30008E50860128E828F83A3E508125A1074BB
:1059E300191246A11221FD024764EE243212429C91
:1059F30060D1901A1FE070CB7508E880D8F582E477
:105A03003FF583125A929003F2E06822E4F08E820B
:105A13008F8322C082C08374F11209747402120B43
:105A230076740412581DE0C0E07403120B76D0E0C4
:105A3300F0EA242FF582E43BF583125A8E740D129B
:105A43000B76124601EA2426FCE43BFD7404120B98
:105A530076AA82AB8312122B7404120B76AA82AB42
:105A630083122245E9600E125A97120ED79003EC67
:105A730074FFF0A3F07402120936121699740F0220
:105A830039A2A3A3A3A3A3A3A3A3A3125A9222124B
:105A930040EAF92285188285198374FFF0A3F0AADE
:105AA30018AB1979532274F61203EF74E8120974D0
:105AB300EAFEEBFF7402120B767403F0EE2413F587
:105AC30008E43FF509AC08FD7404120B76AA82AB17
:105AD30083121237123172C0E0740C120B76D0E0CD
:105AE3001257FD740D120B76AA82AB83122263AA9E
:105AF30008AB09122245E9600E125A97120ED7908D
:105B030003EC74FFF0A3F0740212093612169974B1
:105B1300188004A90874091208AB7F0202065474A2
:105B2300F61203EF74D4120974EAFEEBFF8E828F30
:105B330083A3A3125BD9A2E650179003F2125BDE94
