:020000040000FA
:06000000020AEB02023DC2
:03002B00020908BF
:030033000204A321
:0300530002017235
:03006B0002045438
:03007B00020486F6
:100083000201D10100F0FF0700080000FFFF00009C
:1000930001040000000300010020FD00F10CFD0C31
:1000A30000000000F70C030DF70C0F0D000000001B
:1000B300F70C030D0000000000000000000000002A
:1000C3000000000000000000000000002D0D330DB3
:1000D300390D810D0000000000000000A682A282FD
:1000E3009E82968292828E828682AA82D6820E8394
:1000F300DE82DA8201AACDABCDAB010122830128D6
:10010300830206FFFF010400002411000000E8033E
:100113000000FFFF75110188130000E8030000646D
:10012300006400B801A0BB0D00A0BB0D00020202D9
:10013300070401051E02051E020A0A01080801033D
:10014300B80B02803E0102FEFFE8030A050001FF2F
:10015300FF020A011401E005030101FF0F10230050
:10016300000000E42100000000FF000000FF00C0C9
:10017300E074F11204B5A2AFE433F509D2AF85A759
:1001830008AFA1EF5508FE74105E6006120DED7501
:10019300A1EF74085E6008120DF375A1F78024EFD8
:1001A300A2E092F0E508A2E082F05017906198E097
:1001B300F89003C4E0C398A2D265D0335002E8F0AC
:1001C30075A1FEE509A2E092AF7F02020514C0E02B
:1001D30074F21204B5A2AFE433FED2AF9061A4E08F
:1001E300F8759B00E59158540860087591F7120E55
:1001F300418023E59158541060087591EF120E4722
:100203008014E591A2E092F0E8A2E082F05007E0CA
:10021300C2E0F0120F919061A3E0F8E5E9585404AD
:10022300600E120F6775E9FB906193E0A2E640F25E
:10023300EEA2E092AF7F01020514C0E074F2120453
:10024300B5A2AFE433FED2AF9061A5E0F8E5BF58A5
:100253005404600675BFFB120FA980D4C3E498F859
:10026300E499F91202A08026C3E49AFAE49BFBE91D
:1002730020E7E91202A0E498F8E499F922C3E4988C
:10028300F8E499F91202A0E498F8E499F9C3E49A1E
:10029300FAE49BFB22EB20E7CFE920E7E0B900106B
:1002A300BB0008E88AF084F8AAF022E4FBC8FA222B
:1002B300EB70227B10C833C8C933C9335007C39AC4
:1002C300C3DBF280069A50012ADBEAC833F4C8C9BB
:1002D30033F4C9FA2275F008E4C833C8C933C93303
:1002E300C99AC99B5004C92AC93BD5F0ECFBC83352
:1002F300F4C8E4C9FA22080808EAC0E0EBC0E086C3
:10030300F0E7A4FA180986F0E7A42AFA180986F098
:10031300E7A42AFA180986F0E7A42AFA1986F0E76F
:10032300A4FBE5F02AFA190886F0E7A42BFBE5F015
:100333003AFA190886F0E7A42BFBE5F03AFA181805
:100343000986F0E7A4C5F02BFBE43AFA1908E7C5E0
:10035300F0C6A426F6E5F03BFBE43AFA1886F0E78C
:10036300A4F6E5F00826F6E43B08F6E43A08F6D0EE
:10037300E0FBD0E0FA22E4CFC0E0E4CEC0E0E4CD7D
:10038300C0E0E4CCC0E075F020E626F608E633F6DC
:1003930008E633F608E633F6181818EC33FCED33A9
:1003A300FDEE33FEEF33FFC3EC9709ED9709EE97AC
:1003B30009EF97191919400FFFEC97FC09ED97FD09
:1003C30009EE97FE191906D5F0BFECF709EDF70909
:1003D300EEF709EFF7191919D0E0FCD0E0FDD0E0F2
:1003E300FED0E0FF222518C582C0E0E51934FFC521
:1003F30083C0E0E518C3958224F810AF08858319FC
:100403008582188008858319858218D2AFCEF0A320
:10041300E520F0A37808E608F0A3DEFAEFF0A3E501
:100423008124FAF8E608F0A3E608F0A3E608F0A3AF
:100433000808E608F0A3E608F0A315811581D0E0CB
:10044300FED0E0F8158115811581E8C0E0EEC0E02B
:1004530022C0E074F21204B5A2AFE433FED2AFE5DA
:1004630089A2E0400CE589A2E14006E589A2E250B9
:1004730003120C25758900C2C5EEA2E092AF7F017D
:10048300020514C0E0C0D0E8C0E0A8A8D2AF758AC6
:1004930000C2EBE8A2E792AFD0E0F8D0D0D0E032D0
:1004A300C0E0C0D0E8C0E0A8A8D2AF758B00C2E816
:1004B30080E1C0D02518C582C0E0E51934FFC583AB
:1004C300C0E0E518C3958224F310AF08858319852E
:1004D30082188008858319858218D2AFC8F0A3E9F2
:1004E300F0A3EAF0A3EBF0A37908E709F0A3D8FAA5
:1004F300ECF0A3EDF0A3EEF0A3EFF0A3D0E0F0A3B4
:10050300D0E0F0A3D0E0F0A3E520F0A3E5F0F0A362
:1005130022851983851882E0C0E0A3E0F9A3E0FAFD
:10052300A3E0FBA37808E0F608A3DFFAE0FCA3E06E
:10053300FDA3E0FEA3E0FFA3E0C0E0A3E0C0E0A3CF
:10054300E0F5D0A3E0F520A3E0A3F5F010AF088514
:1005530083198582188008858319858218D2AFD0C4
:1005630082D083D0E0F8D0E032120B65B9000302E9
:1005730005ABE4900301781379128002F0A3D8FC51
:10058300D9FA7A137B1490008678ED79018015E40B
:1005930093A3AD82AE838A828B83F0A3AA82AB83BB
:1005A3008D828E83D8E9D9E77582CA7583907404E6
:1005B30012087F7582E175831F740012087FE4734C
:1005C3000475F0108E1A8F1B85821F85831E851874
:1005D30082851983E0CEA3E0CF851F82851E83EB3E
:1005E300C9EAC8EDCBECCAC3E833C8E933C9EA3377
:1005F300CAEB33CBC3EA9EF51DEB9FF51CB3500446
:10060300AB1CAA1DEC33CCED33CDD5F0DAAE1AAF6B
:100613001B22D083D082ECC0E0EDC0E0E493A3FCC6
:10062300E493A3FDED4C600D1206EDEC24FFFCED0D
:1006330034FFFD80EFE493A3FCE493A3FDED4C6052
:100643000D12078AEC24FFFCED34FFFD80EFD0E0B0
:10065300FDD0E0FCE493A3C0E0E493C0E02285195D
:1006630083851882E0A3FEE0A3F5207808E0A3F6D3
:1006730008DFFAE0A3FFE0A3C0E0E0A3C0E0E0A34B
:10068300C0E0E0A3C0E0E0A3C0E010AF088582189B
:100693008583198008858218858319D2AFD083D0CA
:1006A30082020885D083D082E9C0E0E493A3C386A5
:1006B300F0C5F095F0F908E493A386F0C5F095F042
:1006C300700BE493A3C3994005E9048002A3E47586
:1006D300F002A42582F582E5F03583F583D0E0F9B5
:1006E300E493A3C0E0E493C0E022C0E0C3E49396A4
:1006F300087401939618400FE49366700808740118
:1007030093661870007019A3A3C3E4939608740149
:10071300939618A3A3400DD0E0D0E0D0E002065199
:10072300A3A3A3A3A3A3D0E0227404800474028030
:1007330000CCC0E0EDC0E0E518C39CCCAD1950017E
:100743001D10AF068C188D1980068C188D19D2AF29
:10075300120801D0E0FDD0E0FC2274028000CCC07E
:10076300E0EDC0E0E518C39CCCAD1950011D10AFFE
:10077300068C188D1980068C188D19D2AF1207DFDD
:10078300D0E0FDD0E0FC22C0E0C0F088F0E4936646
:1007930070080874019366187000A8F0A3A3700B87
:1007A300D0F0D0E0D0E0D0E0020651A3A3D0F0D047
:1007B300E022D083D082CCC0E0E493A36006120889
:1007C300411470FAE493A3600612096B1470FAD013
:1007D300E0FCE493A3C0E0E493C0E022CAC0E0E4F9
:1007E30093A3C582CCC582C583CDC583F0A3C5823F
:1007F300CCC582C583CDC583DAE5D0E0CA22CAC0A1
:10080300E0E0A3C582CCC582C583CDC583F0A3C573
:1008130082CCC582C583CDC583DAE6D0E0CA22C0C7
:1008230008C3E096F50808A3E096420808A3E096FB
:10083300420808A3E09645087001D3D00822C0E01F
:10084300E493A3D39C5010E493A3C39C400AD0E049
:10085300D0E0D0E00207D2A3A3A3D0E0227009081E
:100863000808226016181818C6C333C608C633C64C
:1008730008C633C608C633C6D5E0EA22C09FF59F33
:10088300E473D09F22D083D082C09FE493C0E074EE
:100893000193C0E0740293F59F227404800A7403E9
:1008A3008006740280027401C0E0F4041208D3D0FD
:1008B300E0120B282200C0D0251810AF08F51850FD
:1008C3000C05198008F51850020519D2AFD0D022B3
:1008D3002518F58210AF08F518400C15198008F596
:1008E3001840021519D2AF85198322BB0102E722F2
:1008F300C082C08389828A83BB0003E08002E493C1
:10090300D083D08222C0E0C0D0E8C0E0A8A8D2AF94
:10091300C2C7E8A2E792AFD0E0F8D0D0D0E032600F
:1009230016080808C6C313C618C613C618C613C6C6
:1009330018C613C6D5E0EA22C3E0C696F608A3E0BC
:10094300C696F608A3E0C696F608A3E0C696F62276
:100953002518F8E43519F9222518FAE43519FB228C
:100963002518FCE43519FD22C0E0E493A36C70095B
:10097300D0E0D0E0D0E00207D2A3A3D0E022251834
:1009830010AF08F518400C15198008F5184002152A
:1009930019D2AF22E76670100809E766700A0809E2
:1009A300E76670040809E76622C3E09608A3E096A9
:1009B30008A3E09608A3E096A2D265D03322E066AE
:1009C300701008A3E066700A08A3E066700408A329
:1009D300E06622C3E096F008A3E096F008A3E09651
:1009E300F008A3E096F022C3E697F60809E697F627
:1009F3000809E697F60809E697F622C3E4939608F2
:100A0300740193960874029396087403939622E6EE
:100A130047F60809E647F60809E647F60809E647F0
:100A2300F622700422600D18C6C333C608C633C647
:100A3300D5E0F41822E026F608A3E036F608A3E092
:100A430036F608A3E036F622E657F60809E657F627
:100A53000809E657F60809E657F622E056F608A312
:100A6300E056F608A3E056F608A3E056F622E6277A
:100A7300F60809E637F60809E637F60809E637F611
:100A830022E056F008A3E056F008A3E056F008A3CE
:100A9300E056F022E026F008A3E036F008A3E036A3
:100AA300F008A3E036F022E4C396F608E496F608CD
:100AB300E496F608E496F622C6F4C608C6F4C60819
:100AC300C6F4C608C6F4C622C3E7960809E7960823
:100AD30009E7960809E79622C3E09608A3E096087B
:100AE300A3E09608A3E0962275D00075813F7518A0
:100AF300017519030002056CE6F008A3E6F008A3EC
:100B0300E6F008A3E6F022600C08C6C313C618C6B5
:100B130013C6D5E0F422E0F608A3E0F608A3E0F656
:100B230008A3E0F622CAC0E0E6F0A308DAFAD0E0B0
:100B3300FA22E8F0A3E9F0A3EAF0A3EBF022E0F84D
:100B4300A3E0F9A3E0FAA3E0FB22EAF0A3EBF0A30E
:100B5300ECF0A3EDF022E0FAA3E0FBA3E0FCA3E0BA
:100B6300FD22E5C754F84401F5C77901222518F59C
:100B730082E43519F58322C2AF75D69F02000022A5
:100B8300120888B3AF0312088843B003120888DA47
:100B9300B00312088826B10312088857B10312085C
:100BA300888EB1031208881FB303120888E9B303C0
:100BB300120888C3B4031208883694041208883BC9
:100BC30094041208886D940412088800950412088E
:100BD300889B9E04120888F4FF01120888C99E04AA
:100BE300120888439C04120888539C0412088865E1
:100BF3009C04120888DC9C04120888A1990412083A
:100C030088249A041208888A9A04120888818C041A
:100C1300120888B58C041208881E8D0412088802F5
:100C23008E041208885C8E04120888F9ED031208FA
:100C33008807EE0312088880EE031208887AEF0310
:100C430012088850F103120888459E04120888F799
:100C53007F00120888FA7F00120888BE92041208E7
:100C630088CE92041208888A930412088899930400
:100C730012088818C00212088878C0021208883245
:100C8300C102120888DCC2021208887CC30212085F
:100C930088C2C3021208882DC4021208889BC402AA
:100CA300120888DCC40212088849C5021208888722
:100CB300C6021208889CC602120888C2C60212081D
:100CC300882FC702120888A0C70212088820C8020A
:100CD30012088891C802120888BBC80212088883C8
:100CE300CA02120888BBCB02120888DECC021208A3
:100CF3008870CD02120888E0CD0212088846CF0220
:100D030012088804D102120888BED202120888B7DA
:100D1300D30212088864D70212088882D902120803
:100D230088A68E04120888148F041208883690044B
:100D33001208883990041208883F900412088857D3
:100D43009004120888788504120888B7850412086D
:100D530088F48604120888B5F10312088859F2034F
:100D63001208882EF303120888F2F303120888A5E9
:100D7300F40312088809F50312088823FE011208F8
:100D8300887EFE0112088800DC031208882CDC032D
:100D93001208889DDE03120888DDDE031208881D11
:100DA300DF0312088831DF031208884ADF031208C1
:100DB300883BE003120888E0E003120888F4E003AC
:100DC300120888AD9504120888D19504120888EAA0
:100DD30095041208881C96041208884C960412087D
:100DE30088799604120888DB9604120888EA960428
:100DF300120888F49604120888019704120888D30D
:100E03008204120888F382041208883283041208C9
:100E1300884D83041208886C8304120888D28304E3
:100E2300120888DB83041208883884041208884770
:100E330084041208886B84041208882C8504120821
:100E4300883985041208884A8504120888B3FF028A
:100E5300120888CBFF02120888F7FF021208884A9B
:100E6300E103120888A4E203120888B2E20312081D
:100E730088C5E203120888DAE203120888EFE20366
:100E830012088802E30312088876E303120888DB5A
:100E9300E3031208887DE40312088841E50312087E
:100EA3008851E50312088860E503120888AA9B04A9
:100EB300120888CE9B04120888F69B041208881E29
:100EC3009C04120888FA87041208882188041208EF
:100ED300883F8804120888B28804120888008004B6
:100EE300120888198004120888258004120888399A
:100EF300800412088857800412088861800412084D
:100F0300886B80041208887E800412088804810498
:100F1300120888798104120888A88104120888F6C7
:100F2300810412088845820412088860820412082A
:100F3300886A82041208887B8204120888BE8204AD
:100F4300120888669D04120888A4CB03120888CE71
:100F5300CB03120888EBCB03120888FECB031208DD
:100F63008814CC0312088872CC03120888AACC0315
:100F73001208889ED003120888E3D103120888164A
:100F8300D20312088879D203120888D9D30312082E
:100F93008801D40312088816D40312088826D403C0
:100FA3001208886AD403120888C5D403120888D5A6
:100FB300D403120888CEFE03120888E8FE03120841
:100FC3008810FF0312088829FF031208884DFF03C6
:100FD3001208886BFF0312088882FF03120888B087
:100FE300FF03120888CBFF03120888019E0412082E
:100FF3008865F50312088875F5031208887AF603E5
:10100300120888ACF603120888DCF603120888FF7E
:10101300F60312088816F70312088850F70312081C
:1010230088B5F703120888F7F70312088836F80320
:1010330012088867F80312088892F80312088811C7
:10104300FF0212088823FF0212088861FF021208B8
:10105300886FFF021208880B97041208881D9704F3
:1010630012088831980412088834980412088818E2
:101073007F001208884E7F00120888687F001208DC
:1010830088AA7F00120888C17F0012088805D5034B
:101093001208880FD50312088849D503120888B2AD
:1010A300D503120888CFD50312088871D603120816
:1010B300887AD603120888BFD603120888E8D603B5
:1010C300120888F5D60312088866D703120888F138
:1010D300D7031208883FD8031208887DD803120863
:1010E30088E2D80312088805D9031208887CD9033B
:1010F300120888D3D9031208880EDA03120888432A
:10110300DA0312088855DA0312088867DA0312082B
:101113008886DA031208888FDA031208884ADB0309
:1011230012088896DB03120888D4DB03120888614F
:101133009804120888B19D041208884B8A04120887
:1011430088818A04120888C98A04120888228C04B8
:10115300120888BA9403120888DE950312088818C7
:101163009603120888C29703120888EC97031208A3
:1011730088619A03120888A19A03120888379C038E
:10118300120888D49C03120888269D03120888C974
:101193009D03120888019E03120888439E031208C8
:1011A30088B29F0312088800A10312088831A303A1
:1011B3001208885FA30312088886A3031208888F86
:1011C300A303120888DFA30312088871A40312087B
:1011D30088A0A70312088823A803120888B39E04D3
:1011E300120888F5E9031208880BEA03120888AF8E
:1011F300EA03120888EEEA031208880BEB031208CD
:10120300883CEB0312088889EB03120888BCEB03C4
:10121300120888F7EB03120888ECED03120888A381
:101223009A04120888029B04120888409B0412083F
:1012330088819B04120888CDD902120888FCD90240
:1012430012088874DA0212088877DB02120888D33E
:10125300DB0212088854DD0212088870DD021208CE
:1012630088C2DD02120888FADD021208880DDE0248
:101273001208885FDE02120888EBDE021208885823
:10128300DF0212088882DF02120888BADF0212081E
:10129300889EE10212088877E202120888C0E302FE
:1012A300120888ECE302120888BFE4021208884798
:1012B300E50212088888E502120888A2E5021208EE
:1012C30088E9E50212088809E602120888A3E60203
:1012D30012088832E7021208888CE702120888D0C5
:1012E300E7021208884CEA021208886EEB02120821
:1012F30088AAEB021208889CEC02120888C4EC024C
:10130300120888C7EC02120888D1EC02120888E49C
:10131300EC021208886DED02120888A3ED02120890
:1013230088CFED02120888F6ED021208881AEE0241
:10133300120888B1EE02120888BFEE02120888D59F
:10134300EE021208880DEF02120888DF9C041208CF
:1013530088EB9C04120888299D04120888FD7F00ED
:101363001208880080031208882380031208886902
:101373008103120888B281031208880C82031208C1
:1013830088728203120888758203120888C1820357
:101393001208883B8303120888C18303120888C498
:1013A3008303120888508403120888938403120865
:1013B30088BA8803120888578A031208889E8A030A
:1013C300120888138E03120888388F03120888C600
:1013D3009003120888549103120888559203120847
:1013E3008823EF02120888C3EF021208882DF00247
:1013F30012088846F00212088801F1021208886870
:10140300F102120888DEF2021208880CF4021208B4
:101413008885F40212088888F60212088830F702D9
:10142300120888BFF70212088892F8021208886D22
:10143300FA021208880EFC02120888B6FC0212088F
:1014430088C8FD02120888AAA5021208881EA602EF
:1014530012088866A602120888A4A602120888ED5C
:10146300A60212088837A7021208886FA70212087B
:1014730088EDA70212088847A802120888A3A902C8
:1014830012088834AA0212088892AA02120888ACA9
:10149300AA02120888CDAA0212088825AB021208F4
:1014A3008896AD02120888B5AD0212088894AE0280
:1014B300120888ACAF0212088829B0021208889675
:1014C300B002120888FFB002120888B9B1021208EC
:1014D3008877B30212088878B402120888FDB5022F
:1014E300120888DEB70212088841BA02120888E798
:1014F300BB02120888B5BC021208883FAB0312086E
:101503008832BD0212088822BE021208880EBF026A
:101513001208887BBF02120888EDFB031208883982
:10152300FD03120888F6FD031208885AFE03120809
:1015330088EAF80312088805F90312088849F903B1
:101543001208886FF90312088895F903120888AD09
:10155300F90312088810FA031208888DAF031208E2
:101563008847FB0312088850FB0312088859FB03C2
:1015730012088862FB0312088899E503120888871A
:10158300E9031208888CE9031208888EE90312081C
:10159300884B9104120888CB7F001208887D9E0433
:1015A3001208880080021208883380021208889A81
:1015B3008002120888268102120888CB8102120851
:1015C3008813820212088838820212088851820224
:1015D300120888778202120888998202120888D733
:1015E30082021208882683021208884F8302120897
:1015F30088AE83021208888784021208883D850218
:101603001208889B8502120888628602120888B92C
:101613008602120888248702120888628702120849
:1016230088B88702120888308802120888878802DF
:101633001208888A88021208880B8902120888AA6D
:101643008902120888268A02120888488A02120828
:1016530088AB8B02120888B88B02120888BC8C02F4
:10166300120888C98C02120888D28C02120888CD0D
:101673008E02120888E78F021208885B9002120814
:1016830088C89002120888F090021208888291029A
:101693001208886593021208883C97021208885042
:1016A30097021208886097021208886A9702120844
:1016B300887397021208887C97021208888697021B
:1016C300120888B59702120888E89702120888F36F
:1016D30097021208881798021208883B980212088A
:1016E30088989802120888DE9802120888FA9802ED
:1016F3001208886D9902120888A49902120888E3D7
:101703009902120888309A02120888B69A021208BF
:1017130088929C021208881C9D02120888019E026E
:1017230012088876A002120888C9A002120888F15C
:10173300A0021208881BA20212088848A2021208FB
:10174300889AA2021208884FA302120888FFA302F4
:1017530012088834A402120888CAA4021208884E08
:10176300A502120888F32400120888252500120810
:10177300885525001208882927001208880A28009E
:10178300120888622800120888A52900120888F127
:101793002900120888252D001208883B3000120802
:1017A300888531001208881B32001208882732000E
:1017B300120888673200120888F13300120888E59E
:1017C30034001208880F3500120888763500120895
:1017D30088CF35001208884636001208888D3800F5
:1017E300120888243A00120888F83A001208883749
:1017F3003C001208887C3E001208884D4100120804
:10180300885C4100120888E0410012088887420082
:10181300120888CA42001208883043001208884C14
:1018230043001208887E4300120888BD4300120853
:1018330088A24400120888514500120888D5470041
:10184300120888174900120888F64900120888769A
:101853004A00120888984E00120888D64E001208D3
:1018630088314F00120888644F00120888E04F0047
:10187300120888FC4F00120888975000120888E568
:101883005000120888B851001208887D52001208CF
:10189300881B530012088824560012088838570002
:1018A300120888D55A00120888DD5B00120888E008
:1018B3005B001208880F5C001208880E5E00120895
:1018C30088E75E001208882E5F001208887B60009C
:1018D300120888B5600012088862610012088896B1
:1018E30061001208884862001208885764001208D1
:1018F30088C264001208880A6500120888A7650078
:10190300120888D666001208889D6700120888931B
:101913006900120888A76900120888BB69001208C9
:1019230088F16900120888216A00120888AF6B00E9
:10193300120888906C00120888006D00120888B0A5
:101943006D00120888E06D00120888AA6E00120864
:1019530088676F00120888707100120888AF7100E1
:101963001208881C72001208886173001208881418
:101973007400120888487400120888607400120802
:1019830088037500120888F17700120888BC790073
:10199300120888E07900120888FE7900120888D2BC
:1019A3007A00120888FA7E001208882D8301120833
:1019B300885F83011208885E8701120888AA87015D
:1019C300120888F087011208889888011208880293
:1019D30089011208884A8901120888A88A01120815
:1019E30088AD8B011208889F8F01120888309001FF
:1019F300120888589101120888B591011208888449
:101A03009301120888FB93011208880594011208B8
:101A1300881294011208883D9401120888249501C4
:101A2300120888DD950112088860960112088879EA
:101A33009601120888A29601120888CF960112080F
:101A430088299901120888ED9901120888329A01B0
:101A5300120888A99A01120888579B0112088889DD
:101A63009B01120888CF9B011208880B9C01120866
:101A7300885C9C01120888B09C011208883B9D0178
:101A8300120888869D01120888EB9D01120888645C
:101A93009E0112088823A00112088832A1011208AE
:101AA3008851A201120888ADA501120888DCA8019B
:101AB30012088895A901120888DDA9011208887CFB
:101AC300AB0112088890AB011208889AAB01120887
:101AD30088A4AB01120888B0AB01120888CFAB0110
:101AE30012088885AC01120888DEAC01120888E868
:101AF300AC01120888F2AC0112088862AD01120829
:101B030088A9AD01120888AEAE01120888FDAE01A6
:101B1300120888A0AF0112088879B00112088899C9
:101B2300B101120888DBB201120888D5B30112088B
:101B330088EDB30112088821B4011208883FB4016B
:101B43001208889EB401120888C5B401120888607F
:101B5300B5011208881FB6011208888FB601120852
:101B63008807B70112088811B801120888DEB80186
:101B7300120888D8B9011208881DBA01120888789A
:101B8300BA01120888DFBA011208880DBB011208D6
:101B93008831BB0112088866BB0112088893BB0118
:101BA300120888D9BB01120888FDBB011208886698
:101BB300BC011208884EBD0112088899BD011208A4
:101BC30088C2BD011208885ABE01120888DDBE0111
:101BD30012088809BF01120888FEBF011208889CF9
:101BE300B503120888D4B503120888F5B5031208A3
:101BF3008839B6031208889DB603120888A7B6036E
:101C0300120888B7B603120888EEB603120888E6EE
:101C1300BA03120888F4BC03120888E1BE03120851
:101C23008878BF031208881AC003120888F2C1011A
:101C330012088862C201120888C2C2011208880D04
:101C4300C30112088828C3011208884FC301120870
:101C5300886CC30112088878C30112088823C50160
:101C63001208883CC501120888C5C501120888D826
:101C7300C501120888F7C50112088892C601120827
:101C83008802C801120888A9C90112088838CA0144
:101C93001208883BCA01120888ABCA01120888C916
:101CA300CA011208886ECB01120888AACB01120858
:101CB30088ADCB0112088873CC01120888D6CC01F9
:101CC3001208880FCD0112088884CD01120888A25A
:101CD300CD01120888F0CD01120888C5CE01120883
:101CE3008813CF011208885BCF01120888E8CF015F
:101CF3001208881DD00112088852D001120888608A
:101D0300D001120888BFD00112088837D101120808
:101D13008878D101120888C8D101120888F3D1014B
:101D23001208880DD20112088827D20112088802EE
:101D3300D3011208880CD30112088847D301120873
:101D43008857D30112088860D301120888B8D301D9
:101D5300120888CCD30112088802D501120888170B
:101D6300D501120888A5D5011208880DD6011208DD
:101D730088C0D601120888CBD60112088818D8016A
:101D830012088834D80112088880D801120888EF15
:101D9300D80112088828D90112088842D9011208EB
:101DA3008884D90112088846DC01120888FCDC010A
:101DB3001208888CDD01120888D4DF01120888EC30
:101DC300DF01120888EFDF01120888FBDF01120828
:101DD300880FE00112088817E0011208884AE00121
:101DE3001208883DE101120888C8E1011208885BE6
:101DF300E201120888D4E20112088898E30112086C
:101E030088BAE30112088853E401120888B0E40198
:101E1300120888B3E4011208882DE50112088879B5
:101E2300E60112088884E7011208880FE801120806
:101E33008814E901120888D4E90112088805EA0127
:101E43001208882BEA0112088834EA011208886212
:101E5300EA01120888FAEA01120888AFEB011208B6
:101E63008820EC01120888C7EC011208884EED01A6
:101E73001208888DED01120888D0ED011208884DF3
:101E8300A9031208881FA903120888ECA8031208E3
:101E93008870A80312088806FE0112088895FD01C0
:101EA300120888E7FB0112088890FB01120888D00A
:101EB300FA01120888DDF801120888ADF80112084A
:101EC300885EF801120888F0F701120888AFF7015D
:101ED300120888E6F60112088881F6011208882C98
:101EE300F601120888D2F501120888A4F401120839
:101EF3008841F401120888BDF301120888B8F30180
:101F0300120888ACF301120888F0F0011208884225
:101F1300AF031208880CAF031208888FAE031208B0
:101F2300882AAE03120888D9AD0312088801AD03CD
:101F330012088871AC03120888BEF0011208887E6B
:101F4300F00112088866F00112088825AC03120814
:101F5300885BF00112088837F00112088862EE01ED
:101F63001208881EEE01120888A0AB031208880A23
:101F7300EE0112088825FA0312088859CB031208C8
:101F83008800CB03120888CBCA0312088896CA03B9
:101F930012088862CA03120888F4C903120888DC8D
:101FA300C903120888B7C90312088880C603120838
:101FB3008853C4031208885AC203120888E6C1036F
:101FC30012088897C10312088851C1031208885B5D
:101FD300AB03120888F3C0031208881BBD0200007C
:101FE3000080FB8F000100E31487000100E114353A
:101FF300000400AB1425000200AF1426000200B158
:102003001427000200B31428000100BD14290001A5
:1020130000BE1484000400FF118600010021142A6D
:10202300000100BF142B000100C0142C000100C4E8
:10203300142D0008000B122E000100C5142F0001FF
:1020430000C61430000100C71431000100C8143267
:10205300000100131233000100141234000100C9FF
:102063001436000100151238000100CA14390001AA
:1020730000C31483000200DF146300010021126413
:10208300000100C11465000100C2146D00010022AB
:102093001271000800031266000100DE1443000100
:1020A30000CF1444000200D01445000100D21446AE
:1020B300000200D31447000800191248000100D59C
:1020C300144B000100D61404000100E214A1000126
:1020D30000E61437000100E51488000100E4143C15
:1020E30000010016123D000100CB1449000200D785
:1020F300146700010023124D000200D9144E0001A1
:1021030000DB144F000200DC143E000100CE14512A
:10211300000100171252000100CC1453000100CD3E
:1021230014540001001812000000000000000136E2
:10213300360101000102010001030100010401064F
:102143000605020000070100340801000F0904011D
:10215300010D0100FF0E0800001702000019010025
:10216300FF1A0100011B0100FE1C0100081D0200F3
:10217300001F0100012001000121020000230100D2
:102183000F24020000260100012701000828020095
:10219300FF2A0100072B0102402C0100002D010042
:1021A300012E0100012F0100FF30010B1D3108003A
:1021B300003A0100083B01000F3C0100013D010012
:1021C300FF3E04000042040000460400004A0400ED
:1021D300004E04000052040000560400005A04009C
:1021E300000103710301030103010301030103223E
:1021F30003020301031003000300030003000300B1
:102203000300030003420300032403060300030047
:1022130003040312032503230325032303040304F5
:10222300030003000300034403000300032303002C
:102233000365032100350381030003050300030045
:1022430003000300032503230301017101010101BD
:10225300011101010131010101010180011001613D
:10226300013B001400630173017201620143010029
:1022730001130106013D01350004011201000100B3
:10228300010001000104010401330133013C014455
:1022930001320136000001000165010001350081B2
:1022A3000100010501820183010001030271023073
:1022B3000160021102700201020202020280021096
:1022C3000261023A00410063027302720262024336
:1022D300020002130238000002000204021202008C
:1022E3000200020002000204020402370037003C2D
:1022F30002440200023900000200026502000235B6
:1023030002810200020502820283020002030071BD
:10231300003001600011007000310220035004807E
:10232300001000610000001400630073007200627B
:102333000043000000130006000000000004001228
:102343000000000000000000000400040037003714
:10235300003C024400000000000000000065000093
:1023630000350081000000050000008300000036F6
:10237300000100060000000F000000000000000044
:10238300000000000003FFFF00000403FFFF000044
:10239300FFFF0FF4010005C4040320000100000B3C
:1023A300000000000000000003010F000000000017
:1023B300000000000000000000000000000000001A
:1023C300000000000000000000000000000000FF0B
:1023D300130100FF13020087130280811303008D92
:1023E30013040093130480991305009F130600AB95
:1023F300133100BD133300C3133400C913FFFF00AF
:102403000007ECFDFDFDECDCDCCCBCACAC9C9C8C97
:102413007C7C6C6C5C5C5C4C4C3C3C2C2C1C1C0332
:10242300EAF5E5D5D5C5B5A5959585857575656534
:1024330055554545353525251515050A231A02ED4C
:102443001905F91907F3190CD5190DE119FF000046
:1024530000160F00000B150B020002220F330000C1
:102463000E0F5A6967426565416C6C69616E6365FD
:102473003039D0D1D2D3D4D5D6D7D8D9DADBDCDD35
:10248300DEDF303016181920231A1C1E30303017A7
:10249300181921301B1D1F300001191618161618A4
:1024A30023030000034D4C4651181A250502003C36
:1024B30040423A3F3F392F47300C0E020B040B0AC0
:1024C3000708000F020402010101010902E80300E9
:1024D3000000BE040AE803030001000E0009030420
:1024E30004101E0A0C041E0828020C05081503FF1D
:1024F300C082C083121E9190124C747DF0A3741796
:10250300F090124E7483F0A37417F09012507489F4
:10251300F0A37417F0901252748FF0A37417F002A3
:102523005EE074F71203E8E9FE901240E4F0EE90E7
:10253300123FF07C197D127A417B121212319014F2
:10254300D5E0901249F090124A7403F0A37412027A
:10255300355E74F01203E8EAFEEBFF548070030269
:1025630026C790123FE0F91210C98A088B09EA4581
:102573000970030226C0EA241B126E94707CEA24BD
:102583001F126E9464137002A3E0706E8A828B83B1
:1025930012271F90125A126142750A00750B0080B0
:1025A3000D1233D812657C12114DAA0EAB0FEA4BF4
:1025B30060488A828B83E0650C7004A3E0650D702C
:1025C3002C8A828B83A3A3A3A3E0F50EA3E0F50FCC
:1025D300E50A450B8A828B83A3A3A3A360C31238A6
:1025E3006C850A82850B83A3A3A3A380B78A0A8B76
:1025F3000B8A828B8312613E80B4E508242A126E13
:1026030094FCE5082402F8E43509F9E8FAE9FB90BB
:10261300125AE0125191E0640270358A828B831260
:102623006142800788828983123868E849601C8880
:10263300828983E06A7003A3E06B70E888828983F0
:10264300A3A3E06C70DE122714806BECF91217B9A8
:10265300850882850983E06401704FE50824181218
:1026630027071208A912669C12072CE508241212E8
:1026730027071208A9E5081241D41208A5E5082482
:102683000B1266A0120730E5082417123C18E50860
:102693002402FCE43509FDE5082419FAE43509FBB5
:1026A300121FB7740A1208B8800CE064027007AAFC
:1026B30008AB091218DFAA08AB091210B7EEFAEF3C
:1026C30064808036EE5402600C9014EA7401F0EEDC
:1026D3006402FA802CEE540860231217B38B09EAC4
:1026E3004509701190125C12655C7A08FB90123FE9
:1026F300E0F9121207EE6408FAEFFB80047A007B1C
:1027030000026CFBF582E43509F583E0F50A780AEB
:10271300229014DB125DA1A3A3A3F022A3A3E0F5EF
:102723000CA3E0F50D2274F41203E88A088B098ADE
:10273300828B83A3A3A3124E05123E3C38F583E09C
:102743002409FA7B001210B18A0A8B0BAE0AAF0B75
:10275300EE4F70030227F38E828F837402124E674B
:10276300850882850983123640E8F0A3E912694D92
:10277300A3A3A3A3A3A3A3F0E5082403F8E43509C3
:102783001227F5123E3C3AF58312387AF0EE24090B
:10279300FAE43FFB8E828F83A3A312604FF58388F5
:1027A30082E0A2E58E828F83A3A3A3A3A350047424
:1027B300018001E4F0E5082403F88882898312612B
:1027C30042EA1255AD3BF583127ED91208A1123E9F
:1027D3003B3B1261538E828F8312614012109374BC
:1027E300031208B8EEFAEFFB90123FE0F91210BDA6
:1027F3008010F988828983E0FAA3E0CA2274021266
:1028030008B87F0402066174F21203E88A088B0990
:10281300ECFAEDFB740E120B70E0FC121F338A0C02
:102823008B0DAE0CAF0DEE4F6030AC08AD09121F2F
:10283300CFE96026AC08AD09EEFAEFFB121F69E998
:1028430070148E828F83124317FAEFFB1214FBAAC4
:1028530008AB09121F1B7900800279B40250E0749F
:10286300F01203E874F6120981EAFEEBFF8C088D7F
:1028730009750FB3851882851983E4F0750E0080FE
:1028830002050E9024E2E493F8E50EC39840030298
:102893002991AA0E7B00120B8F8A0A8B0BEA450B38
:1028A30060DF8A828B83A3A312299828F0F8C3EEF2
:1028B30098EF940050CB7C157D007900AA08AB09F2
:1028C30012109F850A82850B83A3A3A3A3125F24FF
:1028D300E0F8EEC3982925E0F8E433F9E50A28F592
:1028E30082E50B39F583A3A3A3A3A3A3123E52A3AB
:1028F300A3A3A3A312657C121ABF8A0C8B0DAC0C85
:10290300AD0DAA08AB09121231850A82850B83A388
:10291300E06401700A12669C7401123E668044747E
:1029230001120963850A82850B83126140121F0F0E
:10293300E9603D7409120B70E0C0E012669CD0E0C0
:10294300F07409120B70E0640370137401120963CD
:10295300E508240BFAE43509FB12123180127401E5
:10296300120B7012386CE508125B9A350912657AFE
:10297300850A82850B831266A8123E66A3A3E0C074
:10298300E0E50824141266A0D0E0F0750F00A90F4B
:10299300740A026CF8A3A3A3E0F88518828519834F
:1029A300E02274F71203E8E9FE8A828B83A3A3A3D0
:1029B300A3A3A3E0540860338A828B83A3A3A3A3B6
:1029C300A3A3E0540260218A828B83A3A3A3A3A3BE
:1029D300A3A3A3A3E06406600F74E96E600A74CD39
:1029E3006E600574F06E700312179B0249F174F068
:1029F3001203E874EF120981740F120B70124FDA8D
:102A03007408120B70E9F0ECFEEDFF7405120B7005
:102A1300E4123032122D0F121F277406120B70129C
:102A23004FDA7406120B7012561B7003022CBC1281
:102A330040F3E0FA7406120B70E0F91216DB851806
:102A43008285198312715FF8A3E0F9E849700302E4
:102A53002CBCEE2403F50AE43FF50BEE2406F5083F
:102A6300E43FF5097C00850882F583126142850AFB
:102A730082850B83E0F9121F217403120B70124F2E
:102A8300DA850A82850B83E0C0E085188285198385
:102A9300122D1DD0E012571FF98518828519831254
:102AA30033EB12526E12299BFAA3E0CA2407F58274
:102AB300E43AF583E8F0A3E412644F2406F582E4D4
:102AC30038F583E41270ED124DF61208A1EE123EB2
:102AD3003C3F1261537403120B70124E05123637CA
:102AE30012614212109374031208B87429120B7006
:102AF300125F1E1227FA1257323A12657A742B129A
:102B03000B70E0C0E08518828519831255E4D0E08C
:102B1300F07402120B70E4F07425120B7078081233
:102B23000B19022C0A7403120B7012610588828937
:102B330083122D04A3A3A3125BD6FB12155B850E90
:102B430082850F83A3EAF0A3EBF07403120B7012D8
:102B53002D1DA3122D04125DDEA2E6500F850E82F9
:102B6300850F83A3A3A3A3A3E0D2E1F07405120B03
:102B730070E0706A850E82850F8312386B90129E07
:102B8300E0687003A3E0697055850E82850F83A307
:102B9300A3A3123A1E750C00780C1208A978081228
:102BA300089D7429120B70E0F50C780C1208A974B7
:102BB30027120B701207309012AB12073079007492
:102BC30019120B70124FCC121927740A1208B88508
:102BD3000E82850F83A3A3A3A3A3E04405F074028D
:102BE300120B70E004FC8E828F83A3A3A3A3A3A381
:102BF300E0122D0F121F217403120B70124FDA749F
:102C030002120B70E004F07403120B7012561B6077
:102C1300707402120B70E0FA7406120B7012386CA7
:102C2300C3EA98E499505A7402120B70122FE88584
:102C33001882851983E028F8A3E039F9E8240FF511
:102C43000EE439F50F850E82F583E4F07403120B5D
:102C530070127148E064016003022B287405120BA3
:102C6300707401126CE6F07403120B70125ED0F8EC
:102C7300A3E0F9850E82850F83A3E8F0A3E9022B75
:102C83004C8518828519831261421216E1851882D8
:102C93008519831207307426120B70E0FD74251218
:102CA3000B70E0FC740A120B70E0F9EEFAEFFB1202
:102CB300179574021208B880438E828F83A3A3A34F
:102CC300E0C0E0740C120B70D0E0F0126B92E0C025
:102CD300E0740D120B70D0E0F07406120B701256F4
:102CE3001B7009740E120B7074B98007740E120BEB
:102CF300707410F0740912095B1219217411026CBB
:102D0300F8E0850E82850F83A3A3A322FAA3E0FB39
:102D13008E828F83A3A3A3E0F922E0126433A3A3DB
:102D2300A32274F01203E874E11209817404120BF4
:102D330070E9F07403120B70ECF07402120B70ED77
:102D4300F08A0E8B0F742F120B70122721AA0CFB23
:102D53001216CF7401120B70E9F0AA0CAB0D121608
:102D6300D57401120B70E07003022FE3851882857E
:102D73001983E480158E828F83A3A3A3A3A3E0D238
:102D8300E3F0851882851983E004126C63F88518D3
:102D930082851983E0C3984003022FDA7401120B72
:102DA30070E07003022FDA851882851983122FE8E9
:102DB300E50C28F8E50D39F9E8240FFEE439FF8E18
:102DC300828F83A3A3A3A3A3E0A2E040B575080069
:102DD300750A08750B007402120B70E06003750826
:102DE300207C087D007900740512095B12109F8E08
:102DF300828F83E060459012EEE06401701DE50868
:102E0300D2E3F508750B1012300E120B7012657CAD
:102E13008E828F83A3A3A374FF807A43080C750A61
:102E23000C8E828F83A3123004A3A3A3A312657C09
:102E33007405120B7074FFF0A3805A7404120B70A4
:102E4300E06009E508D2E6F508750A0A8E828F83E9
:102E5300A3E064FE7003A3E0F470307412120B70ED
:102E63007404123032F8741D120B70E8124E67743A
:102E73001212095B1215FD7D007C00790074151296
:102E83000B70AA82AB831213F3800B12300E120B5A
:102E930070E8F0A3E9F07407120B70E508F0124034
:102EA300EAC0E07409120B70D0E0F0740A120B70E0
:102EB3007401F0740512095B1218E57411120B709A
:102EC300E06003022FB8740D120B7012571A8E8232
:102ED3008F83A3A3A3A3F0740D120B70124E2DE5E1
:102EE3000AF0A3E50BF07403120B70E0C0E0124D7F
:102EF300D8D0E0125DDE60119012EEE0C0E0740DF8
:102F0300120B70124E23D0E0F0740D120B701238B6
:102F13006C850C82850D83A3A3122FFA241C124FF8
:102F2300D41270FD122FFF125D9439126B9FC0E013
:102F3300124DBFD0E0126C58C0E0740D120B70122A
:102F430048F7D0E0126975C0E0740D120B70124897
:102F5300EDD0E0F0740D120B701230041230191220
:102F63006CDB122FFA242C124FD41240D9C0E0127A
:102F730048D1D0E0F0740D120B70126142850E82BD
:102F8300850F83122FF12428F582E43B12657A1210
:102F930040E2127ED91208A112614CEA1263E43BAB
:102FA300F58312614212109374031208B874051268
:102FB300095B1218EB8E828F83A3A3A3A3A3E0D292
:102FC300E0F07411120B70E06003022D78740112AB
:102FD3000B70E014022D847900AA0CAB0D1217A11B
:102FE300741F026CF8E075F007A4F8A9F022A3A3FC
:102FF300A3A3123870EA22A3A3A3A3A3126146E8F2
:1030030022123870850E82850F83228E828F83A3CE
:10301300123870740522A3A3A3A3A3A3E0FAA3E029
:10302300FBE8242AF582E439F583EAF0A3EB2212C4
:1030330030362212356AE02274F01203E874E81283
:103043000981E9851882851983F08A0E8B0F8A829C
:103053008B83A3A3A3A3A3A3A3A3E0F91216F98AC3
:10306300088B09EA45097003023111E50E1249CFB5
:1030730012410E123AF2851882851983E060030229
:1030830031147C04850E82850F83A3A3A3A3A3A37A
:10309300A3A3E0F91216FFEE4F60738E828F8312A3
:1030A30038687407120B7012658612386C74091233
:1030B3000B70124E8FC0E07411120B70D0E01269C6
:1030C3005BA3A3A3123868740F120B7012657C7490
:1030D30012120B70E4126CEEC8241FF582E438F56B
:1030E30083126101C413135403FC70027C048E82A7
:1030F3008F83E0F978081208A5742059FD744059AC
:10310300F9740312095B12179574021208B8026C62
:10311300F67C08850E82850F83A3A3A3A3A3A3A391
:10312300A3E0F91216FF8B0BEA450B700302309AEA
:10313300EE4F60DA851882851983E0F50C780C125E
:1031430008A9850882850983A3A3A3A3A3A3A3E056
:10315300F50C780C1208A98A828B83A3A3A3E0FB46
:103163008A82850B8312712F8A82850B83E0FA8E04
:10317300828F83A3A3E0F9121FBD74021208B80261
:10318300309E74F71203E874FA120981E9FE78019C
:1031930079017F00800379000F125167E0FCEFC3D0
:1031A3009C5026EF75F007A4FC85F008AD08EA2CC7
:1031B300FCEB3DFD12474FE0A2E050DA540C60D621
:1031C300E0A2E250D3780080CF8A828B83A3A3A3AB
:1031D300A3A3A3E0703DE9A2E0400574016E703340
:1031E3008A828B83A3A3A3A3A3A374011247B9E089
:1031F300C0E07403120B70D0E01247B1E0C0E0747A
:1032030004120B70D0E0F07405120B70E812615CCD
:1032130012192174060249EEC082C0837901121784
:10322300A1025EE074F41203E8EA4B9014EA602210
:10323300E4F08A088B09F50AF50B780812089D7AE1
:10324300027B0090123FE0F91211FB74041208B8DC
:10325300800F7401F07A027B0090123FE0F91212A2
:103263000702280574F01203E874F312098174034A
:10327300120B70E4F0A3F090125A123AF274011296
:103283000B70E4F0A3124E5F04F0901298E0A2E3F7
:103293005003023362121219EAF8EBF9ECFAEDFB70
:1032A3007409120B70120B357409120B7078081223
:1032B3000B1990125C780812093B7405120B707895
:1032C30008120AFB1233DF7405120B707808120A16
:1032D300DB50077A017B000233D37405120B70783D
:1032E3000C120B199014DAE0F509780C7908120323
:1032F30079A80CA90D9014DBE0C398E4995003E07E
:103303008001E8851882851983F07409120B70789F
:1033130008120B19C008C009C00AC00B7405120BB0
:1033230070780C120B191233DF780C7908120379B9
:10333300E4F50AF50BD00FD00ED00DD00C780C7934
:10334300081209EA90125C780C120AFB80111233FE
:10335300D812657CEEFAEFFB12114DAE08AF09EE01
:103363004F60658E828F83122998C398502DEE2467
:1033730003F8E43FF9E0FA88828983E0C39AF060B6
:10338300237403120B701244987401120B70EEF045
:10339300A3EF1265A1FEA3E0FF80C48E828F83A3F7
:1033A300A3A3E4F08E828F83127EA27401120B70AA
:1033B30012561B8E828F83A3A3A3A3609112656D04
:1033C300120B701233EB80897403120B701261427B
:1033D300740D026CF812387090125A229014D9129C
:1033E3007EAAE4F50AF50B22125BAEA3A32274F0C6
:1033F3001203E88A088B09890A7800790090125A27
:10340300123AF2124FC3601E088E828F83A3A3A3C6
:10341300A3124FC6601008E87001098E828F8312D1
:103423003AEEEE4F70E39014DC126142C3E89AE97E
:103433009B40030234E27A067B001211478A0C8B0D
:103443000DA80CA90DE84970030234E28882898330
:10345300E508F0A3E5091247C8A3E50AF01227140B
:1034630088828983A3A3A3A3E4F0A3F0124FC360CC
:103473000D8E828F83A3A3A3A312657C801F90125A
:103483005A12657C901298E0A2E34011121219EAD5
:10349300F8EBF9ECFAEDFB90125C120B35901298F5
:1034A300E0A2E3503A7A087B0090123FE0F912124F
:1034B3000DEA4B4C4D70289014D9E0F508A3E08534
:1034C300080CF50DE4F50EF50F780C12089D7A083B
:1034D3007B0090123FE0F912120174041208B80243
:1034E3006CFBC082C083E99014EBF090125474D744
:1034F300F0A37417F090125674E9F0A37417F090C8
:10350300125874FBF0A37417F0025EE074F7120311
:10351300E8EAFEEBFF8908EE4F7003120BD7901217
:103523006012561B7008901260801E12386C8882DD
:103533008983A3A3A3A3A3A3A3A3A3124277A3A3B0
:10354300A3A3A3A3A3A3A370E2EEF0A3EF12356298
:10355300A3A3A3E4F0A3123562E508F00249F11234
:1035630035662212356A22F08E828F83A3A3A3A32A
:10357300A3A32274F71203E8E9FD901260800D887B
:10358300828983A3A3A3A3A3A3A3A3A312561B600C
:103593003488828983A3A3A3A3A3A3A3E06D70DFCD
:1035A30088828983A3A3A3A3E06A7003A3E06B705B
:1035B300CE88828983A3A3A3A3A3A3E06C70C0E8EE
:1035C300FAE9FB80047A007B000249F174F71203E5
:1035D300E8901260123AF2901260122FF5687002AE
:1035E300EB697019E0C812363712386C901260120A
:1035F300657C901260123AF28030123AE5EE4F6029
:10360300298E828F83A3A3A3A3A3122FF168700231
:10361300EB6970E68A828B83A3A3A3A3A3A3A3A3CB
:10362300A3123640A3A3A312657C12114DEEFAEF49
:10363300FB0249F12409F582E438F58322123E4A5C
:10364300A3A32274F01203E874F91209818A0C8B84
:103653000D8A828B83A3A3A3A3A3A3A3A3E06033B5
:103663006401602F8A828B83126142121B3DE970D1
:1036730022850C82850D83A3A3A3A3A3A3A3A3E005
:10368300640370147402120963AA0CAB0D12187947
:10369300E97016790202385B850C82850D83123836
:1036A3006C7402120B7012657CE50C24111270F518
:1036B30024341260591211478A088B09AE08AF09E6
:1036C300EE4F70030238597C347D00790012109F4D
:1036D300AA18AB19850C82850D83A3A3A3A3A3A367
:1036E300A3A3A3E0F9121F7B851882851983E0C089
:1036F300E0123860D0E0F0EE242EF50EE43FF50F33
:103703007401120B70E0850E82850F83F07901EE50
:10371300FAEFFB1217C5850C08850D09750A0078A9
:10372300081208A17C1E7D00EE240BFAE43FFB1275
:10373300109374031208B8EE2432FAE43FFBEE242C
:1037430034F8E43FF98A828B8312657CE50C2411FB
:10375300FCE4350DFD8C828D831252692430126591
:1037630076E50C124761127112127ECB1208A18CFE
:10377300828D831271308A828B831261421210937D
:1037830074031208B87402120B70123E4612657C61
:1037930090124012387AA3A3A3F0901240E004F0F1
:1037A3001212198E828F83124910242CF8E43FF9E8
:1037B300E8FAE9FB7508FF750900850E82850F831A
:1037C300E07808120A258A828B83E508F0EE242B21
:1037D300123C057404120B70E4F0E50C241512700E
:1037E300F5A2E074055007120B7074018004120BEC
:1037F30070E4F0EE2429F508E43FF5097404120996
:103803005B121F93E924FE850882850983F0EE2469
:1038130030123C0F1238811202A0E88E828F83A3EC
:10382300A3A3A3A3A3A3A3F01238811202A08B091D
:10383300EA4509600F8E828F83A3A3A3A3A3A3A347
:10384300A3E004F0EE2420125A6D44081241421200
:1038530010F37900800279107407026CF8EE12639A
:10386300E43FF58322A3A3A3A31238702212387472
:1038730022E0F8A3E0F922126954A3A3A3228C82C5
:103883008D83125BB8E0FA7B002274F41203E8EA3A
:10389300FEEBFF1212198E828F83124FDA9014CF30
:1038A300E0F8EE242D125A6DC39840030239FB123F
:1038B3003A0D7012EE242D125A6D041251B0C0E06D
:1038C300123BFBD0E0F012516FFA7900800109EE50
:1038D300242E125A6DF8E9C398502675080175090C
:1038E30000E97808120A25123A0D550860E0E92A22
:1038F300FA750801750900E97808120A25E04508F8
:10390300F0EE2429125A6DFBEE2430F582E43FF5E4
:1039130083EA8BF0A4F8ACF0E42CF9E098F8A3E088
:1039230099F9EBFCC3E89CE99400EE403124291299
:103933005A6DF8123A0D602C123860123A1EA3E445
:10394300F0EA7047EE2420125A6D4420124E93C0C1
:10395300E012519ED0E01251A8FCA3E08055123B27
:10396300FC74FFF090128EE0FC9014D2123A15AD65
:10397300F075F064A4FCABF075F064EDA42BFD8E40
:10398300828F83A3A3ECF0A3ED80B5EE2420125A1B
:103993006D54DF125199EAF0FCEE2429F582E43FDD
:1039A300F583123A15FCADF0EE2432125A6D2CFC5D
:1039B300A3E03DFD126C39ECF0A3ED1266D0C0E03C
:1039C300EE2425F582E43FF583D0E0F0EE241CF5E8
:1039D30082E43FF583E8124E6790126212561B6031
:1039E3000BEAF91279DC1205C1E9701BEE240BFA1C
:1039F300E43FFB12184F800F7BE9123C28121FC3D0
:103A0300EEFAEFFB1217D1022805EE242B125AC847
:103A1300F422E0F508EC8508F0A422126954A3F01F
:103A23002274F41203E8901260123AF21212198A05
:103A33000A8B0B78FF79FF8020E0C39AFCA3E09BFD
:103A4300FDC3EC98ED99500E8E828F83A3A3E0C340
:103A53009AF8A3E09BF9123AE5EE4F60598E828FF4
:103A630083126142E50AC39AFAE50B9BFB8E828FB0
:103A73008312712EC3EA9CEB9D8E828F83A3A34096
:103A8300B8A3A3A3A3E0640270171240FF60091256
:103A930040F31261421210B7EEFAEFFB1217D18016
:103AA30007EEFAEFFB1217DD7A017B009014EBE0CF
:103AB300F91210F3802974FF68700374FF69601FA3
:103AC30088088909E4F50AF50B780812089D7A013C
:103AD3007B009014EBE0F91211FB74041208B80296
:103AE30028058E828F83A3A3A3A3A3A3A3A3A3E0E9
:103AF300FEA3E0FF2274F31203E88A088B09ECFAB1
:103B0300EDFB890C7C01E5082411123C181217CB3C
:103B13008A0A8B0BAE0AAF0BEE4F7003023BF6E53E
:103B23000C6003023BF612669C123C22686003029F
:103B33003BF612515D125A838E828F83A3A3A3A3F4
:103B4300A3A3A3A3E0FAE89AE99400C365D03340A2
:103B530018126E90F470127B00123C28121FC3EEF1
:103B6300FAEFFB1217D1023BF6126E90F47043EE9C
:103B7300242BF8E43FF9E8FAE9FBEE242E123C0F7C
:103B83007508FF7509008C828D83E07808120A2579
:103B93008A828B83E508F0EE242C123C058C828DFF
:103BA30083123C2228F0EE242DF582E43FF583E4D2
:103BB3008021E5082414F8E43509F9E0C0E0EE2497
:103BC3002CF582E43FF583D0E0126033C0E0123B72
:103BD300FBD0E0F01212198E828F83124910123833
:103BE30061125A79A3124E677A01FB9014EBE0F944
:103BF3001210F37F05020661EE242BF582E43FF5F4
:103C03008322F582E43FF583E508F022F8E43FF9E7
:103C1300E8FCE9FD22F582E43509F583E0F922E0C9
:103C2300F812517322EE2422125AC8FAEE24141207
:103C33005AC8F92274F01203E874FB120981740361
:103C4300120B70124E49E9851882851983F08A0A8E
:103C53008B0B8A828B83A3A3E0F9121F9F8A0E8B9F
:103C63000FEA450F70077A007B00023E367A127B1B
:103C7300001211478A088B09EA45097003023E3294
:103C83007C127D00790012109F740112095B850A72
:103C930082850B83A3A3E0F9121F7BE508240FFEA3
:103CA300E43509FF7402120B70E08E828F83F07982
:103CB30002AA08AB091217C57403120B7012642E03
:103CC300123E52123E60126F47A3A3A3A3A3A3A362
:103CD300F0750CFF750D008E828F83E0780C120A4D
:103CE30025E508240C1266A0E50C126CD61279DACD
:103CF300E0C0E0E508240B1266A0D0E0F0E50A126C
:103D03003E3C126F41FAE508240D1266A0EAF0E585
:103D13000A124761126F418AF0A4A9F02427FAE43A
:103D230039FB1210B18A0C8B0DAE0CAF0DE50824D4
:103D3300101266A0124796EE4F7003023E258E8244
:103D43008F83741A124E678E828F83A3A3F0A312FC
:103D53003E74123E46126580120B70127130126C63
:103D630041121F81850A82850B83A3A3A3E0C0E0D0
:103D7300125A71D0E0F09012AB1252692410123E25
:103D83005A12472D350BF58312526912612DE8F053
:103D9300A3E9123E74125265126B93E8F0A3E91281
:103DA3003E66E0C0E0EE2414F582E43FF583D0E004
:103DB300F0E50A240C126F3EC0E0EE12472D3FF5EA
:103DC30083D0E0F07415120B70125DA7E0C0E0120F
:103DD3006E80D0E01266CBC0E0126B86D0E0124753
:103DE300C2C0E0124DE0D0E0125620C0E0124DC92F
:103DF300D0E0F07417120B70120B41EE241AF58207
:103E0300E43FF583120B35EE2427F8E43FF9EE2463
:103E130022123E5A126F5FE0C0E0126C49D0E0F00C
:103E2300800DAA08AB091217D1750800750900AAFD
:103E330008AB097405026CF8EA123E40222410F51F
:103E430082E422123E4A221248E3A3A3A3A322122E
:103E53005BB8A3A3A3A322F582E43FF583124E89A3
:103E6300E50A22123E6A22F0850A82850B83A3A308
:103E730022123E6AA3A3A3A32274F01203E874FEE2
:103E8300120981851882851983124E498A0E8B0F78
:103E9300890DC200EA124105E0F50C901262125638
:103EA3001B600EA90C1279DC1205C1E96003024004
:103EB300D47C021241211240D9F91217CB8A088B04
:103EC30009AE08AF09EE4F7058850E82850F83A3A4
:103ED300E0A2E040030240D47414120B7012072CCA
:103EE3007416120B70120730A90D7406120B7012A0
:103EF3007130AA0EAB0F1217EF74061208B88A08B6
:103F03008B09AE08AF09EE4F70030240D48E828F47
:103F130083A3A3A3A3A3A3A3A3E50C12414212105B
:103F2300F3AA0C8E828F83A3A3A3A3A3A3A3A3E0CB
:103F330024FFF8E434FFF9E86A497002D200124022
:103F4300FF7003024090850E82850F83A3E0A2E0F9
:103F53005003750C0012412FE50C98E499C365D00A
:103F630033401CE0F8EE240E125A6D2CF07508FF56
:103F7300750900E87808120A25EE240C123C051294
:103F830040E2127ED91208A112614CEE240D125A9E
:103F93006DF508E50C8508F0A4FAABF0124E022487
:103FA30022F582E438F583E02AFAA3E03BFB121002
:103FB3009374031208B87508011241137808120AA2
:103FC30025125A6A4508F0A200506DEE240CFAE45B
:103FD3003FFB7508FF124113047808120A258A82F1
:103FE3008B83E04508124E57F8E50CF508E8850881
:103FF300F0A4F8A9F01240EAFCE82CFCE439FD1225
:104003004E022420F582E438F583ECF0A3ED125E32
:10401300D6F47024EE240BF508E43FF5091240F3BF
:10402300126142850882850983E0F91210BD850873
:104033008285098374FF80541212198E828F831232
:104043004FDA90128EE0FA9014D2E0F508EA850870
:10405300F0A4FAABF0F8EBF99014CFE0F508E8859B
:1040630008F0A4F8ACF08508F0E9A42CF9EA28F8E4
:10407300EB39F9E875F064A4F8AAF075F064E9A4E3
:104083002AF98E828F83A3A3E8F0A3E9F0AA0C1286
:10409300412F126DCBE86A7001E9600CEE240C121B
:1040A3003A106004A2005029EE240E125A6DC0E0AB
:1040B300E50E124105D0E0F0125A6AC0E0E50E2485
:1040C3001412410BD0E0F0AC0EAD0F1241211218C7
:1040D3003D7402026CF8E50E241112410BE022E557
:1040E3000E240E12410B22E50E241012410BE02286
:1040F3001240F722EE123E403FF58322126565E03F
:10410300F422241312410B22F582E4350FF58322A6
:10411300750900125AC5F5F0E50C84E5F0228518FF
:1041230082851983126191FAA3E0FB22EE240E1219
:104133005AC8F8125AC5FCE82CF8E43400F922F006
:104143007A017B009014EBE0F922C082C0839014C3
:10415300EBE0F91210BD025EE074F41203E8EAFE2C
:10416300EBFF5480704BEEA2E0505F1217E3EE6456
:1041730001FAEF80528A828B83E06401702CEA1289
:10418300669E12072CEA1241D41208A5EA241212E1
:104193003C18EA2402FCE43509FDEA2419FAE43563
:1041A30009FB1217F574061208B8AA08AB09121016
:1041B300B79014EBE0F91210C98A088B09EA450994
:1041C30070B3EEFAEF6480FB80047A007B00022870
:1041D30005240FF50AE43509F50B780A2274F21267
:1041E30003E8890B8A088B098A828B831261421246
:1041F300180D8B0DEA450D600479B88074121819F7
:10420300E9F89024E4E493F9E8C399400479B2808F
:10421300607A157B001211478A0C8B0DAE0CAF0D23
:10422300EE4F7004791080498E828F83E4F012423E
:1042330081A3E50BF0750A0078081208A17C127DB2
:1042430000EE2403FAE43FFB12109374031208B840
:1042530090126412561B7008901264800C12386C12
:104263008882898312427770F412479612182B7949
:10427300000250E0126146EA4B8882898322A3122E
:104283006989A322C082C08390126480048C828DCA
:1042930083127130EC4D60288C828D83A3A3E06977
:1042A300600574FF6970E68C828D83A3A3A3E06A23
:1042B3007003A3E06B70D6EC2403FAE43DFB8004A7
:1042C3007A007B00025EE074F71203E8E9FD74FEF6
:1042D3006D70047C0180027C0090126480096D7013
:1042E300027C018882898312561B601F888289831E
:1042F300A3A3A3E06A7003A3E06B70E7ECA2E088DA
:10430300828983A3A3E050D6F9800279FE0249F1A2
:10431300EEF9800CA3A3127EAAEE2274021208B84F
:104323007F020206611208B87F03020661C082C0E1
:104333008379009012648001091261428A828B831F
:10434300E582458370F2025EE074F61203E8E4F559
:1043530008F50978081208A59024E4E49375F0138E
:10436300A4A9F012448D1211BF74021208B8E9FE19
:1043730074096E700312182502431374F61203E8CE
:1043830074FE120981851882851983E4F0A3F0A8CD
:1043930018A9198808890978081208A575080275EB
:1043A300090078081208A57C007D007A427B001280
:1043B30011CB74041208B802431E74F51203E87497
:1043C300EB120981851882851983E4F0A3F090121A
:1043D30064807C8E828F83A3A3E0C0E07402120BFF
:1043E30070D0E012643BA982AA8389088A09750AFE
:1043F3000078081208A17C127D007406120B70AAC3
:1044030082AB8312109374031208B8740212095317
:104413008808890978081208A575081375090078B2
:10442300081208A57404120B701255CD75F013A46D
:10443300F8AAF075F013E91244891211CB7404122F
:1044430008B88518828519831244988E828F831247
:104453003AF2EE4F60030243D6A818A919880889D7
:104463000978081208A5750802750900780812086A
:10447300A57C007D007A427B001211CB74041208E4
:10448300B87415024328A42AF9E82402FCE439FD90
:104493007A427B0022E02401F0A3E03400F022748E
:1044A300F41203E874EB1209817E007F00A818A9B7
:1044B300198808890978081208A57508028E0978F1
:1044C300081208A57C007D007A427B001211D1748A
:1044D300041208B8E9706E8E0880587402120953EA
:1044E300880A890B780A1208A5750A13750B0078D8
:1044F3000A1208A5E50875F013A4F8AAF075F013DD
:10450300E5091244891211D174041208B8E9701B29
:104513007403120B70AA82AB837402120B70E0F95E
:10452300121807E970050EEE70010F0508E5087013
:1045330002050985188285198312386CC3E508982A
:10454300E509994096EEFAEFFB741502280274F61A
:104553001203E88C828D83A3A3124788F0EA1263C7
:10456300EA3BF583E0C0E0124759D0E0F01247334D
:1045730012386C12473D124788A3F0A3F0EA241FB8
:10458300F582E43BF583123AF2EC12472D3DF583B5
:104593001247961277D63BF583124767A3A3A3A3CB
:1045A300A3A312479288828983E0FE8C828D8312B3
:1045B30047A974035EFEC394034003024720EE60E1
:1045C3000874026E600302464C8C828D83E0540CA7
:1045D300FE740C6E7003024689E0A2E4400D8882EB
:1045E3008983E08C828D83A31247CD74086E6003A8
:1045F3000246891247477401F08A828B83A3A3A3DF
:10460300A3A3125A7D70128C828D83E0440C12474F
:10461300B1A3A31247671247928C828D83E0A2E471
:10462300402712477112479C500109124771A3A3F7
:10463300A3A3A3A3F0A3EF1247C28C828D83A3A3EA
:10464300A3F0E82403F850010988828983E0C0E0DD
:10465300EC126B803DF583D0E01247A98C828D83E9
:10466300E0A2E7507688828983E0FE8C828D8312F4
:1046730047CD74FC5E700C8C828D83A3E05403647D
:1046830003701F024720124747E4F0740C6E600367
:104693000245FC12477712479C400302461C09025D
:1046A300461C8C828D83A3E0540360328882898305
:1046B300E0C0E0EC1247613DF583D0E01247CE8CB9
:1046C300828D83E054036402701488828983E0C07E
:1046D300E012474FD0E01247CE8003A3E4F0EC1280
:1046E30055AD3D12657AEC2410FEE43DFF124733CD
:1046F300E0F5088E828F83E0C3982508F508F0EA79
:104703002417F8E43BF988828983E0C39508C0E065
:1047130012473DD0E0126033C39508500A12473D5B
:10472300E4F0124759E4F00243232415F582E4220E
:10473300EA241DF582E43BF58322EC240DF582E4A3
:104743003DF58322EC1257323DF58322EC2414F518
:1047530082E43DF58322EC123E403DF5832224138F
:10476300F582E422E0FEA3E0FF8C828D83221247D0
:1047730077A3A32288828983E0F508A3E0FFE508F5
:104783008C828D8322E4F08C828D83A3A3A322A346
:10479300A3A3A3EEF0A3EFF022A3A3A3A3F0A3EF9D
:1047A300F0E82402F8221247C8A882A983221247FC
:1047B300B9A3A3A3A322F08A828B83A3A3A3221268
:1047C30047C8A3E02212603CA322A31247C808A94A
:1047D300832274F41203E874F31209818A0A8B0B9F
:1047E300ECFEEDFF8E828F83E0540CF508E0A2E728
:1047F3005006E508D2E7F508E508D2E1F508125AB4
:104803007D7006E508D2E4F508E0A2E55006E50868
:10481300D2E5F5087C087D007900AA18AB191210BF
:104823009F7402120B70E5081270E7C0E074031264
:104833000B70D0E0124E5FE50AF0A3E50BF07405B0
:10484300120B7012615A1218E5740C120B70E0709F
:10485300787408120B70124E051260293812697AA7
:10486300C0E07408120B701248F7D0E0126975C0EB
:10487300E07408120B701248EDD0E0F07408120BCC
:10488300701248DB123019124E931249032411128D
:104893005A6DC0E01248D1D0E0F0EE2414125A6DE4
:1048A300C0E07408120B70124E052435F582E4380B
:1048B300F583D0E0124E4FC0E07408120B70124E15
:1048C30009D0E012615C1218EB740D022802E8248F
:1048D30032F582E439F583221248DF221248E322BB
:1048E300E0F8A3E0F98E828F8322124E19126B72C5
:1048F30038F58322124E192426F582E438F58322F3
:10490300FAA3E0FBE8242CF582E439F583EAF0A36B
:10491300EBF0EE2274F71203E87E008A828B83A306
:10492300A3A3A3A3A3A3A3A3E0640460030249CAAC
:1049330012572AE060030249CA1249CE3B125619A4
:1049430070030249CA88828983E054037079E812AC
:10495300573239F583E0FA8C828D83A3A3E0FBA35E
:10496300E0CB126B803BF583E06A705B88828983BE
:10497300A3A3A3A3A31249D9E06A7003A3E06B70B6
:1049830046888289831249D9A3A3E0FFA3E0CF24F9
:1049930006125A6D6A7003A3E06B702B88828983B9
:1049A300A3A3E0F88C828D83A3A3E0F9A3E0F583AE
:1049B3008982A3A3E068600D8C828D831260FF540B
:1049C3000C640470027E01EEF98023EA1249D322BB
:1049D300240FF582E422A3A3A3A31261468C828D44
:1049E3008322740C120B70E0F9740D1208B87F0166
:1049F30002066174F61203E874FC120981EAFEEB05
:104A0300FFECFAEDFB8A828B83A3E05403601690DC
:104A1300125612561B60577900EEFCEFFD1279DC3B
:104A23001205C1804985188285198312479674023D
:104A3300120B70124FDAAC18AD197A437B18121AA5
:104A43006B8A088B09A808A909E84960218882892B
:104A530083A3A3A3A3A3A3A3A3A37406F07A0088A9
:104A6300828983124E051263FFE0F91219C9740497
:104A730002432074F21203E874F3120981EAFEEB95
:104A8300FF8E828F83A3A3A3A3A3A3A3A3A3A3E0C4
:104A9300F50A9014EAE0700579BA024DBC75080175
:104AA300750900750C00750D007C087D007900AA5E
:104AB30018AB1912109F7405120B707401124E6C0F
:104AC300540460127402120B70E0D2E6124E6C545E
:104AD300087003750803E05410600674404508F538
:104AE30008E0540860227402120B70E044C0124EB6
:104AF3006C5420600A7403120B70E0D2E0800874D7
:104B030003120B70E0D2E1F0EE2415125A6D124D30
:104B1300EA7003740169700674084508F5088E820B
:104B23008F83A3A3A3A3A3A3A3A3E07016121AC501
:104B3300851882851983124FDA7402120B70E0D242
:104B4300E28030640F70107402120B70124E747492
:104B5300044508F508807F8E828F83A3A3A3A3A3B4
:104B6300A3A3A3E064028E828F83700A125F1EE800
:104B7300F0A3E9F08060A3A3A3A3A3A3A3A3E0648A
:104B830003700DAC18AD19EEFAEFFB1218798046DD
:104B93008E828F83A3A3A3A3A3A3A3A3E064017023
:104BA300359012EEE060107402120B70124E7475A1
:104BB3000910750AFF80187402120B70E0440C127E
:104BC3004E5F74FDF0A374FFF074044508F5088E7E
:104BD300828F83122721EE2415125A6DA2E0503FD3
:104BE3007402120B70E0540C701B8E828F8312615F
:104BF300421214B3E9700579BB024DBC7402120B67
:104C030070E0D2E5F0EE2415125A6DA2E050107454
:104C130002120B70E0540C64047004E0D2E5F0EE71
:104C23002411125A6DC0E07404120B70D0E01261AB
:104C33005C1218E5740C120B70E06003024DB5743E
:104C430008120B70124E2DE508F0A3E509F0124D82
:104C5300E0E0C0E0124DD8D0E0F0124DC9E0C0E072
:104C63007408120B70124E0512476138F583D0E0B9
:104C7300124E93640170119012EEE0C0E0740812BA
:104C83000B70124E23D0E0F07408120B70125269AD
:104C9300124DD3FAE8241CF582E439F583EA124E67
:104CA30067EE2415FAE43FFB8A828B83127130E8A6
:104CB300125D9439F583124E49EE241C125A6DC0CD
:104CC300E0124DBFD0E0125ED6124DEA70037401BC
:104CD3006970137408120B7012571AFAEE241D121E
:104CE3005A6DF91217058E828F83A3A3A3A3A3A3DF
:104CF300A3A3A3E0C0E07408120B701248F7D0E03E
:104D0300F07408120B701248EDE50AF07408120BE8
:104D1300701255CD2428F582E439F583E50CF0A310
:104D2300E50D124E57123020125AC0124903124D8C
:104D3300D3C0E0E82433F582E439F583D0E0F0EE24
:104D4300241B125A6DC0E07408120B70124E09D066
:104D5300E0F0EE241A125A6DC0E07408120B7012C0
:104D63004E052432F582E438F583D0E0124E4F121B
:104D73004DF61208A1126B78127130740B120B707E
:104D83001266B8FAA3E0FB12109374031208B8EE8C
:104D93002415125A6D5440601290127A12561B60F9
:104DA3000AAA18AB191279DC1205C1AA18AB191299
:104DB30018EB740C120B70E0F90250DBE82420F5B9
:104DC30082E439F58322EE2419F582E43FF5832248
:104DD300126B8BE022E812602D39F58322EE241842
:104DE300F582E43FF583225480F8A3E05401F9747B
:104DF300806822F508A3E0F509750A0078082212F5
:104E030040F7124E1922124E192434F582E438F574
:104E13008322A3A3A3A3124E1D22E0F8A3E0C8227A
:104E2300124E1912472D38F583221255D11249D348
:104E330039F58322E0FC8A828B83E02CFCA3E034E7
:104E430000FD8A828B83ECF0A3EDF022F0EE2413B5
:104E5300125AC822F0EE240D125AC822F085188285
:104E630085198322F0A3E4F022F0EE2415125AC828
:104E730022E0D2E3F0124E7C228E828F83123874AA
:104E8300851882851983E8F0A3E9F022E8F0A3E905
:104E930012659BE02274F71203E88A828B83A3E0F6
:104EA300640170047E6380027E648A828B83E06087
:104EB3000D7905121993E9F8EEC39824F3FE9012C5
:104EC30096E0600CF9121993E9F8EEC39824F2FE08
:104ED3000249CA74F61203E874FE12098185188226
:104EE300851983124FDAE9FEECFAEDFB90031312F6
:104EF300561B6035A818A91988088909780812086B
:104F0300A57D01740E120B70E0FCEEF990031312F1
:104F1300642E1205C174021208B88B09EA450960B0
:104F2300047900800679B2800279B602431E74F7D1
:104F33001203E8E9FE90124C12561B601F7409120B
:104F43000B70E0F50878081208A9EEF990124C12DC
:104F5300642E1205C174011208B8800279B60249A1
:104F6300F174F71203E88908ECFEEDFF79B5E50863
:104F7300245E602314600624F86037804090031594
:104F8300124FC6603890031512642E1205C18E822B
:104F93008F83124FDA802490124E127130EC4D60E1
:104FA3001CEEFCEFFD90124E12642E1205C1E9F9BE
:104FB300800B90124A124FCC12123179000249F140
:104FC30090125A126146EA4B22127134EEFAEFFB49
:104FD30022F582E439F583EAF0A3EBF02274F712A9
:104FE30003E8E9FE79B574AB6E700B90124A126157
:104FF3004212123179000249F174F11203E8EAFE18
:10500300EBFF8C0A8D0B75080190129EE06E700306
:10501300A3E06F7014121ABF8A0C8B0DAC0CAD0D8C
:10502300AA0AAB0B1212318066121ACB8A0C8B0DB3
:10503300EE650C7003EF650D7009AA0AAB0B121A2B
:10504300D1804CAC0AAD0BEEFAEFFB1215D9E9F5A2
:10505300089014E1E07038121EFDE97032E5087023
:105063002E90126EE06E7003A3E06F7022EE4F601D
:105073001E750C66750D12750E00780C1208A17C56
:10508300087D00AA0AAB0B12109374031208B8A987
:1050930008027ABE74F21203E8EAFEEBFF8C088D75
:1050A30009750A01121ABF8A0C8B0DAC0CAD0DEEFB
:1050B300FAEFFB12122BE96401700B90129E125B44
:1050C300B412657C800EAC08AD09EEFAEFFB121545
:1050D300DFE9F50AA90A8005740D1208B87F0602F4
:1050E300066174F61203E8EAFEEBFF7A0D7B001209
:1050F3001147EA4B6061EE2424126DD4F0EE2425AF
:10510300126DD4A3125199126DDAA3A3126B9712E5
:10511300517EF012516F125187E8F0A3E91251B09A
:10512300125187A3A312657C12515D12517EA3A372
:10513300A3A3A3F0EE2433125A6DC0E0125167D03B
:10514300E012697E125191A3E8F0A3E91251A8C0BD
:10515300E012572AD0E0F0024323EE242EF582E436
:105163003FF58322EA125B9E3BF5832212517322A1
:10517300EE242AF582E43FF583E022E08A828B83E2
:10518300A3A3A32212518B22126CCBA3A3221251ED
:105193008BA3A3A3A322F012519E22EE2426F58211
:1051A300E43FF58322F0EE2432125AC822F0EE24B3
:1051B3002C125AC82274F41203E874FE120981EC0B
:1051C300FEEDFFEE2416125A6D64057010EE2406F0
:1051D300FCE43FFD121873E97003025260AC18AD92
:1051E30019126C411214B985188285198312561B42
:1051F30060678E828F83E064017057E875F009A4BD
:10520300F8AAF075F009E9A42AF974C428F874FF20
:1052130039F9E8FAE9FB8A828B837808120B1912B1
:105223005315120ADB4027851882851983125269A8
:10523300125A7212526E7808120B199082C27808B1
:10524300120A388A828B837808120AFB800779A2B4
:10525300800D1265737900800679A1800279C802F6
:105263002800A3A3A3A3123870EE22124E89125270
:105273007522EE12602D3FF5832274F21203E88A41
:105283000C8B0DECFEEDFF125A71E4F0A3F090824B
:10529300EA7808120B191253151209C160631253ED
:1052A3000C703378B3901295E070279012C7E064C6
:1052B30001701FEE2411125A6DF912197B8A088BA3
:1052C30009A808A909126573E849600478008002F7
:1052D30078A18808802EE060046402700A121885A1
:1052E300E9F5087007801DE064037010EEFCEFFD24
:1052F300AA0CAB0D1214DDE9F50880087508A1802E
:10530300037508A3A9080250E0EE240E125AC864DC
:10531300012212527578082274F01203E874F51210
:105323000981EAFEEBFFEE240AFCE43FFD8C828D4B
:1053330083127EA61255B774031209638E828F837C
:10534300126142121873E9700302540D74011209B9
:1053530063740312095B1214B97401120B701256B1
:105363001B700302540DE875F009A4F8AAF075F058
:1053730009E9A42AF974C028FC74FF39FDE508245F
:105383000E1266A0E4F004120B7012386CE50812DA
:1053930049CF350912657A8C828D83120B41E5085A
:1053A30024121266A0120B359082C27808120B19D0
:1053B3008C828D837808120A978C828D83780C12E5
:1053C3000B199083067808120B19780C79081203CD
:1053D30079E5084509450A450B702F7401120B70D6
:1053E3001255CD75F009A4F8AAF075F009E9A42ABD
:1053F300F974C828F58274FF39F5837401F07A00D3
:105403007B08901124E0F91210F38E828F83A3A3FB
:10541300A3A3A3A3A3A3A3A3E02406FCA3E03400B4
:10542300FD8E828F83126142121873121915E9607F
:1054330042EE240A123C0F8C828D83124E2D746827
:10544300124E67E81255AD39F5837402F09012805D
:10545300120B418C828D831264211260293CF583E7
:10546300120B359082C27808120B199012807808BB
:10547300120A97125606706690124A1255C5A3A3D4
:10548300A3A3A3A3A3A3A3A312605612122BE97091
:105493001D121ABF8A088B09AC08AD0990124A1273
:1054A300614212122BE97006121915E960308E82DF
:1054B3008F83A3A3A3A3A3A3A3A3A3A31255C5123B
:1054C30061421214E3E960118E828F83A3A3A3A325
:1054D300A3A31255F2E4F0A3F01255D6E4F012564A
:1054E3000660030255A88E828F83A3A3A3A3A3A35D
:1054F300127EA2901295E0600302559D9012C7E0C0
:105503006401600302559D750A3A750B00780A120F
:1055130008A57402120953880A890B780A1208A590
:105523007C017D007A007B00121BD374041208B83F
:10553300E97064E508240E1266A07401125620C0B7
:10554300E0E50824111266A0D0E0F0E508240F126C
:1055530066A0743A124E6790127C120B41E5082440
:10556300121266A0120B359082C27808120B1990A2
:10557300127C7808120A979082C27808120B19904D
:10558300127C78081209C170117A007B02901124F1
:10559300E0F91210F380031255B712560670061283
:1055A3005F0C74A1F0740B026CF81255B122240E37
:1055B300F582E422E5081249D33509F583E4F0A323
:1055C300F0221271348E828F83221255D122123827
:1055D30074E8228E828F83A3A3A3A3A3A3A3A3A36D
:1055E300A31255E822124E1D1255B138F58322A39A
:1055F300A3A3A31255FA22124E1D240FF582E438F9
:10560300F583228E828F83A3A3A3A3A3A3124E1594
:10561300240FF582E438F5831255D14922127167BC
:105623002274F61203E8EAFEEBFF7A237B001211E1
:1056330047EE240AF508E43FF509850882124FD89E
:105643007C237D00790012109F85088285098312CF
:10565300561B70030256F1EEFAEFFB121891125625
:1056630006607412570C64018E828F83A3A3A3A3D5
:10567300A3A37007125702740E802212561B7011D7
:10568300121915E9700B8E828F83A3A3E0A2E05059
:10569300071256F8740D80051256F8740512697EC8
:1056A30054036401700712713A7405800B901296CB
:1056B300E0C0E012713AD0E012571FF5838882A34D
:1056C300E0F9121993850882850983124E05126346
:1056D300EA38F583E9801A850882850983126142D5
:1056E30012114D850882850983E4F0A380031264B7
:1056F30006F00243238E828F83A3A3A3A3A3A31243
:105703004E151263F038F583228E828F83A3A3A3F1
:10571300A3A3A3A3A3A3A31255E8E0221257232212
:10572300126EA1F8A3E022EA1257323BF58322243A
:105733000CF582E42274F11203E874E41209818AFD
:105743000C8B0D8C088D097A237B001211478A0A72
:105753008B0BAE0AAF0BEE4F7003025A60121AC5E1
:105763008A0A8B0BA80AA90BE5082415126E946804
:105773007003A3E0698E828F8370047402800274C5
:1057830001F0E508240DF8E43509F988828983E0FE
:10579300FAC3E49AFA95E0FBE508240E126E942A04
:1057A300FAA3E03BFB8E828F83A3A3A3A3126042E1
:1057B3008E828F83A3A3F0EE2420F582E43FF5834A
:1057C300E4F0EE2421F582E43FF583E4F0EEFAEF12
:1057D300FB121945850882850983125A7D70098E4B
:1057E300828F83A374058006901296125A79F0EE85
:1057F3002417F50AE43FF50B8E828F83A3E0F91299
:105803001993E9850A82850B83F0EE2416F8E43FA9
:10581300F9E508240EFAE43509FB88828983124EE0
:1058230037E5082410FAE43509FB850A82850B83E2
:10583300E0FC88828983E0F88A828B83E0C398C383
:105843009CF812715AEEFCEFFDAA0CAB0D12188BEB
:10585300E9F50B8E828F83E064027011121ABF8AFE
:10586300088B09AC08AD09126C41121231E50B60CB
:1058730003025A57750C00750D009014E1E06401A2
:105883006005E064027049EE242012530F6008EEB5
:10589300242112530F70398E828F83A3A3A3126422
:1058A30011125A83EE2416125A6D125AAAFAE439C7
:1058B300FB1211478A0C8B0DEA450D6013127ED142
:1058C3001208A1125A91AA0C12109374031208B869
:1058D300EEFAEFFB121951E9F50B9014E1E06401C4
:1058E3006008E064026003025A4AE97003025A4AFC
:1058F300E50C450D7003025A578003850E0BEE2409
:105903002012530F600BEE242112530F6003025A2F
:1059130050850B0E850C08850D09750A0078081251
:1059230008A1125A918E828F8312613E12109374D2
:10593300031208B8EE2420125A6D600D125A7174C6
:1059430068124E67EE24208015EE2421125A6D60F2
:1059530015125A717403F0A37401F0EE2421F58239
:10596300E43FF583E4F0EEFAEFFB121951E9F50B8E
:10597300708C7C137D007900740912095B12109FEF
:10598300741A120B707401125AC064687002A3E097
:10599300704F8E828F831255F2E0640560030258C4
:1059A300FE7C0879FF8E828F83A3A3A3A3E0242A1E
:1059B300126059121129E970030258FE7C087D0018
:1059C30079FF740112095B12109F74011209637A43
:1059D300007B0079AB12186D7419120B7074FC8084
:1059E30015125A71E064037004A3E0640170087433
:1059F30019120B7074FFF0E4F508F5097808120822
:105A0300A574021209637413120B70AA82AB83127A
:105A130018FD74021208B8851882851983E0602D79
:105A230074091209538808890978081208A57508AA
:105A33001375090078081208A57C007D001211CBAC
:105A430074041208B88006E50C450D6007AA0CAB78
:105A53000D12114DEEFAEFFB12114D8003750B1071
:105A6300A90B741C027ABBEE240C125AC822EE1244
:105A730049D33FF5832212695422E054036401227F
:105A8300125A8722E0FAE82AF8E43400F9228E82D7
:105A93008F83A3125AB5125A87EE2416125AC812CC
:105AA3005AAAFCE439FD22FAE82AF8E439F9E82491
:105AB3000422A3A3E0F88E828F83A3A322F0125AB9
:105AC300C522EE240FF582E43FF583E0227901023B
:105AD300088574F41203E8EAFEEBFF8E828F83A33A
:105AE300A3A3A3A3A3A3A3124E052424F582E438FE
:105AF300F583125A7D702A12570C7025125BC2E08F
:105B03006405701D125BC2A3E0F87401686005743C
:105B1300066870071255D6740280051255D67403B1
:105B2300F0EE240A1264B612642EE4F0EE2408F8B0
