:020000040000FA
:060000000213580208344F
:03002B000211308F
:03003300020BA11C
:03004300020FFEAB
:0300530002076938
:03006B00020B5233
:03007B00020B84F1
:100083000207C80100F0FF0700080000FFFF00009F
:1000930001040000000300010020FD000576158225
:1000A30015000000007C1588157C159415000000D0
:1000B300007C15881500000000000000000000000F
:1000C30000000000000000000000000000B215B8AE
:1000D30015BE1506160000000000000000B782CB15
:1000E30082CF823F831F830F830B830783DF82DBF0
:1000F30082D782D38201AACDABCDAB01015283015A
:1001030058830206FFFF010400003615000000E8D3
:10011300030000FFFF87150188130000E8030000B8
:1001230064006400B801A0BB0D00A0BB0D00020277
:1001330002070401051E02051E020A0A010808013E
:1001430003B80B02803E0102FEFFE8030A0500012B
:10015300FFFF020A011401E0303132333435363700
:10016300383941424344454600286E756C6C207013
:100173006F696E7465722900303132333435363726
:100183003839616263646566003F3F3F0000008069
:100193007F0000803FF9021550B743BA5100002099
:1001A3004100E7DB2E0000A04005030101FF0F33F0
:1001B3002C00000000072B00000000FF000000FFE0
:1001C300001213776046121368603DE9687008F601
:1001D30018F618F618F622748067F71201F8090961
:1001E30009748067F722121368601D121377700574
:1001F300191919801A12127C701F121268C3700326
:10020300E6673319191940071818182208080874E3
:10021300FFF618F618F618F6221212686017121471
:1002230005702192F012140E7019501720F0140863
:100233000808090909E7F61819E7F61819E7F6187F
:1002430019E7F62212140E60E6E869701F0808E643
:100253002480F608E436F618547FB47F0CE6548005
:100263006007F6E418F618F622181822E9C6CC0837
:10027300C6CD08C6CE08C6CFC0E0E8C0E0EAC0E0FD
:10028300EBC0E009E9F809E7FA09E7FBE6F918E644
:10029300F8C3EC98ED99EE9AEBC2E7F5F0EFC2E7FD
:1002A30095F0500E600CEBCFFBEACEFAE9CDF9E8FE
:1002B300CCF8EAA2E7D2E7FAEB33FB13F5F0EEA2B0
:1002C300E7D2E7FEEF33FFC5F013A2E730E601B351
:1002D30013C5F0C3C0E0C0F07F00C39BFB605E9416
:1002E30018600F401D14601AD0E023F9D0E0F80223
:1002F30003CA8AF0E9486003D2F0E4AFF0FAF9F8F0
:10030300803BEB30E40D89F0EA6003D2F0E4AFF018
:10031300F9CAF8EB30E30D88F0EF6002D2F0AFF0EA
:10032300E4CAC9F8EB54076014FBC3EA13FAE913F0
:10033300F9E813F8EF135002D2E0FFDBEDD0E0C091
:10034300E030E739C3E49FFFF5F0EC98FC42F0EDB1
:1003530099FD42F0EE9AFE42F0D0E0F9D0E0F8E5E4
:10036300F0607AE923F9EE20E742D8028067C3EF11
:1003730033FFEC33FCED33FDEE33FE80EAEC28FC77
:10038300ED39FDEE3AFED0E023F9D0E0F8400280EB
:100393001BC3EE13FEED13FDEC13FCEF135002D25F
:1003A300E0FF08B800067F7F74FF802EEF335017FD
:1003B3008CF020F00260100CBC000C0DBD00080E88
:1003C300BE000408E860DFE933E813FFEE2313FE01
:1003D3004F4D4C8008E95480FFE4FEFDFCEE33EF03
:1003E30033F47004FCFD7E80D0E0FBD0E0FAD0E073
:1003F300F8D0E0CFC618CEC618CDC618CCC6F922A1
:10040300121368700418181822121377700D74FFF2
:10041300F61819F61819F61819F622E7548066F635
:1004230012140E700F12140570F014F608F608F685
:1004330008F680D1121405700CF608F608768008C9
:10044300E6447F80EC12126B700C12127F60BFE6E1
:100453005480F6E480BB12127F700519191980A528
:10046300E869700C763F18768018F618F6E8F922DA
:10047300E6CDC0E018ECC0E0E633CD33CDD313F6C0
:10048300E719FCE7191933CC33C3947F400ECD9D94
:10049300502408E65480F6E418F6800FF4043D1463
:1004A300501408E6447FF6187680E418F618F6D060
:1004B300E0FCD0E0FD22CCD313CCFD18E4C6CBC0C6
:1004C300E018E4C6CAC0E00808ED08C633E613F630
:1004D30018E433C675F003C3CA97CA09CB97CB197F
:1004E3009C40047D08802EBD00030205AC16B6FFB8
:1004F300050606081618C3CA33CACB33CB33CA273B
:10050300CA09CB37CB193CC37D08803E187D082030
:10051300E75CC633C6CA33CACB33CB33DDF1D5F080
:10052300EB30E77BCA97CA09CB974ACB199C406F3C
:100533004B7025E620E0218066187D08C3CA97CA60
:1005430009CB97CB199CD3C633C6CA33CACB33CB9B
:100553003350C9DDE7D5F0E1D3E4C636C608C63665
:10056300C608C636C608C636C61818188031C3CAA8
:1005730097CA09CB97CB199CB34097C633C6CA33E6
:10058300CACB33CB33DD34D5F02EC6A2E0C640C888
:10059300CA27CA09CB37194A70BECB3CB480B90805
:1005A30008E63308E633601F181818D0E0FAD0E0E5
:1005B300FBD0E0FCD0E0FD22187D08CA27CA09CB96
:1005C30037CB193CD3808013F618E4B67F11F618A5
:1005D300B6FF0EF618C60470D20808768080CAF6F5
:1005E30018F618F680C500121368604F121377606F
:1005F30012E7548066F612127C7011121405703BD8
:10060300090909F4F618F618F618F622121268709A
:100613001512140E08080860EAE6447FF61876807F
:1006230018E4F618F62212140E601612140570124E
:10063300E4F608F608F608E65480F60909091818DE
:100643001822EAC0E0EBC0E0ECC0E0EDC0E0E687D2
:10065300F0A4FBACF008E687F0A42CFCE435F0FA38
:100663001809E687F0A42C4B60027401CA35F0FC2C
:10067300E433FB09E687F0D2F7A42CCB35F0FC1961
:1006830008E687F0A42BCC35F0FBE433FD0819E62C
:1006930087F0D2E7A42C4ACB35F0CD3400FC09E631
:1006A30087F0D2E7A42DCC35F0FDE433FA0918E640
:1006B30087F0D2F7A42CCD35F0CA3400FC08E687C6
:1006C300F0D2E7D2F7A42ACC35F07A7E20E70B0AE2
:1006D300CB33CBCD33CDCC33CC33CB3350147004AD
:1006E300ED30E00ED2F1E4CD3DCDCC3CCC3B50051A
:1006F300DA05C2F1EB547FC63308E63392F0FBE729
:100703003309E733C39A502D2B70190C0D4C4D70E0
:10071300151806E608C333700D20F10AA2F013F68C
:10072300E418800B4024E4F630F002768018F618C3
:10073300F618F68024D33B14501074FFA2F013F67E
:10074300187680E418F618F6800FA2F013F618E670
:100753003303F618ECF618EDF6D0E0FDD0E0FCD04C
:10076300E0FBD0E0FA22C0E074F1120BB3A2AFE4D5
:1007730033F509D2AF85A708AFA1EF5508FE741072
:100783005E600612167275A1EF74085E6008121699
:100793007875A1F78024EFA2E092F0E508A2E08249
:1007A300F05017906198E0F89007D2E0C398A2D276
:1007B30065D0335002E8F075A1FEE509A2E092AFDF
:1007C3007F02020C12C0E074F2120BB3A2AFE43347
:1007D300FED2AF9061A4E0F8759B00E591585408F0
:1007E30060087591F71216C68023E591585410607E
:1007F300087591EF1216CC8014E591A2E092F0E80F
:10080300A2E082F05007E0C2E0F01218169061A354
:10081300E0F8E5E9585404600E1217EC75E9FB9013
:100823006193E0A2E640F2EEA2E092AF7F01020CF8
:1008330012C0E074F2120BB3A2AFE433FED2AF9056
:1008430061A5E0F8E5BF585404600675BFFB1218B4
:100853002E80D4C3E498F8E499F91208978026C34C
:10086300E49AFAE49BFBE920E7E9120897E498F895
:10087300E499F922C3E498F8E499F9120897E49803
:10088300F8E499F9C3E49AFAE49BFB22EB20E7CF5F
:10089300E920E7E0B90010BB0008E88AF084F8AA71
:1008A300F022E4FBC8FA22EB70227B10C833C8C9DC
:1008B30033C9335007C39AC3DBF280069A50012A27
:1008C300DBEAC833F4C8C933F4C9FA2275F008E483
:1008D300C833C8C933C933C99AC99B5004C92AC983
:1008E3003BD5F0ECFBC833F4C8E4C9FA2212093053
:1008F30020F01430E72B74FFFCFBFA747F8022E4B2
:10090300FCFBFA7480801AB48008BC00F2BB00EFD1
:10091300800F50EBF9E4C39AFAE49BFBE49CFCE4FC
:1009230099C6CC18C6CB18C6CA18C6F922E4C9C6DC
:1009330008CAC608CBC6D3330308CCC63392F0C368
:10094300947F402E94184019C9B90704CACBCC220E
:100953005025C309CA33CACB33CBCC33CC33D9F4F8
:1009630022F4600DC9CCC313CB13CBCA13CAD9F677
:10097300CC22E4FCFBFA2214FCFBFA22080808EA66
:10098300C0E0EBC0E086F0E7A4FA180986F0E7A41C
:100993002AFA180986F0E7A42AFA180986F0E7A4C8
:1009A3002AFA1986F0E7A4FBE5F02AFA190886F07B
:1009B300E7A42BFBE5F03AFA190886F0E7A42BFB32
:1009C300E5F03AFA18180986F0E7A4C5F02BFBE422
:1009D3003AFA1908E7C5F0C6A426F6E5F03BFBE4AE
:1009E3003AFA1886F0E7A4F6E5F00826F6E43B08A1
:1009F300F6E43A08F6D0E0FBD0E0FA22080808E66D
:100A030030E711121218120A17080808C64480C6E4
:100A130018181822181818E9799EC608CAC608CBF0
:100A2300C608CCC6C370207996CACBCC7019798E10
:100A3300CBCC70137986CC700EF9802ACA33CACB1B
:100A430033CBCC33CC331930E7F2CCCBCA3350148D
:100A53007004EA30E00DE4CA3ACACB3BCBCC3CCCC1
:100A6300500209C3E913C6CC182313C6CB18C6CA50
:100A730018C6F922E4CFC0E0E4CEC0E0E4CDC0E084
:100A8300E4CCC0E075F020E626F608E633F608E687
:100A930033F608E633F6181818EC33FCED33FDEEA5
:100AA30033FEEF33FFC3EC9709ED9709EE9709EF98
:100AB30097191919400FFFEC97FC09ED97FD09EE03
:100AC30097FE191906D5F0BFECF709EDF709EEF714
:100AD30009EFF7191919D0E0FCD0E0FDD0E0FED002
:100AE300E0FF222518C582C0E0E51934FFC583C0A5
:100AF300E0E518C3958224F810AF08858319858231
:100B0300188008858319858218D2AFCEF0A3E5201B
:100B1300F0A37808E608F0A3DEFAEFF0A3E581245A
:100B2300FAF8E608F0A3E608F0A3E608F0A308083D
:100B3300E608F0A3E608F0A315811581D0E0FED006
:100B4300E0F8158115811581E8C0E0EEC0E022C010
:100B5300E074F2120BB3A2AFE433FED2AFE589A285
:100B6300E0400CE589A2E14006E589A2E2500312C8
:100B7300145C758900C2C5EEA2E092AF7F01020C3E
:100B830012C0E0C0D0E8C0E0A8A8D2AF758A00C206
:100B9300EBE8A2E792AFD0E0F8D0D0D0E032C0E0EB
:100BA300C0D0E8C0E0A8A8D2AF758B00C2E880E14E
:100BB300C0D02518C582C0E0E51934FFC583C0E065
:100BC300E518C3958224F310AF088583198582182D
:100BD3008008858319858218D2AFC8F0A3E9F0A3F2
:100BE300EAF0A3EBF0A37908E709F0A3D8FAECF055
:100BF300A3EDF0A3EEF0A3EFF0A3D0E0F0A3D0E0D9
:100C0300F0A3D0E0F0A3E520F0A3E5F0F0A3228564
:100C13001983851882E0C0E0A3E0F9A3E0FAA3E01A
:100C2300FBA37808E0F608A3DFFAE0FCA3E0FDA34A
:100C3300E0FEA3E0FFA3E0C0E0A3E0C0E0A3E0F593
:100C4300D0A3E0F520A3E0A3F5F010AF0885831946
:100C53008582188008858319858218D2AFD082D007
:100C630083D0E0F8D0E0321213F0B90003020CA9EC
:100C7300E4900301782579168002F0A3D8FCD9FA11
:100C83007A257B18900086783F79028015E493A338
:100C9300AD82AE838A828B83F0A3AA82AB838D82DB
:100CA3008E83D8E9D9E77582577583AC7404121023
:100CB300C175820275832974001210C10475F01086
:100CC3008E1A8F1B85821F85831E85188285198343
:100CD300E0CEA3E0CF851F82851E83EBC9EAC8ED72
:100CE300CBECCAC3E833C8E933C9EA33CAEB33CB25
:100CF300C3EA9EF51DEB9FF51CB35004AB1CAA1D64
:100D0300EC33CCED33CDD5F0DAAE1AAF1B22121390
:100D130068601C121377601712140E700712140503
:100D23007001D322C0D01214057006D0D0B322C3F1
:100D33002233D0D0501430E0F6C3E7960809E79683
:100D43000809E7960809E796B32220E0D5E6970855
:100D530009E6970809E6970809E697B3221213688C
:100D6300601B121377601612140E700712140560BD
:100D73000CB322C0D01214057005D0D022C3223385
:100D8300D0D0501330E0EBC3E7960809E796080983
:100D9300E7960809E7962220E0E4E6970809E69734
:100DA3000809E6970809E69722D083D082ECC0E0D1
:100DB300EDC0E0E493A3FCE493A3FDED4C600D12BE
:100DC3000E84EC24FFFCED34FFFD80EFE493A3FCE1
:100DD300E493A3FDED4C600D120F83EC24FFFCEDB7
:100DE30034FFFD80EFD0E0FDD0E0FCE493A3C0E04E
:100DF300E493C0E022851983851882E0A3FEE0A373
:100E0300F5207808E0A3F608DFFAE0A3FFE0A3C02B
:100E1300E0E0A3C0E0E0A3C0E0E0A3C0E0E0A3C043
:100E2300E010AF08858218858319800885821885AC
:100E33008319D2AFD083D0820210C7D083D082E986
:100E4300C0E0E493A3C386F0C5F095F0F908E493FA
:100E5300A386F0C5F095F0700BE493A3C399400506
:100E6300E9048002A3E475F002A42582F582E5F08B
:100E73003583F583D0E0F9E493A3C0E0E493C0E0C5
:100E830022C0E0C3E49396087401939618400FE4DC
:100E93009366700808740193661870007019A3A311
:100EA300C3E49396087401939618A3A3400DD0E06E
:100EB300D0E0D0E0020DE8A3A3A3A3A3A3D0E02234
:100EC300C082C08374FE1211AD851882851983EA2E
:100ED300F0A3EBF07C017D00AA18AB197900121482
:100EE300BC851882851983E0FAA3E0FB7402121112
:100EF30015D083D082227404800474028000CCC095
:100F0300E0EDC0E0E518C39CCCAD1950011D10AF56
:100F1300068C188D1980068C188D19D2AF121043C8
:100F2300D0E0FDD0E0FC2274028000CCC0E0EDC034
:100F3300E0E518C39CCCAD1950011D10AF068C1809
:100F43008D1980068C188D19D2AF121021D0E0FDB7
:100F5300D0E0FC221213686025121377602012146C
:100F63000E7003021405080808E76670101819E7E5
:100F730066700A1819E76670041819E76622F422E6
:100F8300C0E0C0F088F0E4936670080874019366CB
:100F9300187000A8F0A3A3700BD0F0D0E0D0E0D07D
:100FA300E0020DE8A3A3D0F0D0E022D083D082CC1E
:100FB300C0E0E493A360061210641470FAE493A3F0
:100FC30060061211C31470FAD0E0FCE493A3C0E0EE
:100FD300E493C0E022C008C3E096F50808A3E096B6
:100FE300420808A3E096420808A3E0964208A2D26A
:100FF30065D033E5087001D3D00822C0E074F21243
:101003000BB3A2AFE433FED2AFC2C0E5D1A2E4502A
:10101300031214A4EEA2E092AF7F01020C12CAC025
:10102300E0E493A3C582CCC582C583CDC583F0A379
:10103300C582CCC582C583CDC583DAE5D0E0CA229B
:10104300CAC0E0E0A3C582CCC582C583CDC583F009
:10105300A3C582CCC582C583CDC583DAE6D0E0CAF9
:1010630022C0E0E493A3D39C5010E493A3C39C4019
:101073000AD0E0D0E0D0E0020FCBA3A3A3D0E022BC
:10108300C008C3E096F50808A3E096420808A3E069
:1010930096420808A3E09645087001D3D008227051
:1010A30009080808226016181818C6C333C608C6EC
:1010B30033C608C633C608C633C6D5E0EA22C09F86
:1010C300F59FE473D09F22D083D082C09FE493C066
:1010D300E0740193C0E0740293F59F227404800AC4
:1010E30074038006740280027401C0E0F4041210D9
:1010F300FAD0E01213B3222518F58210AF08F518C1
:10110300400C15198008F51840021519D2AF85193E
:10111300832200C0D0251810AF08F518500C05190C
:101123008008F51850020519D2AFD0D022C0E0C014
:10113300D0E8C0E0A8A8D2AFC2C7E8A2E792AFD078
:10114300E0F8D0D0D0E032BB0102E722C082C083F6
:1011530089828A83BB0003E08002E493D083D08238
:10116300226016080808C6C313C618C613C618C6D5
:1011730013C618C613C6D5E0EA222518F8E43519B4
:10118300F9222518FAE43519FB222518FCE4351950
:10119300FD22C3E0C696F608A3E0C696F608A3E0D0
:1011A300C696F608A3E0C696F622251810AF08F5F2
:1011B30018400C15198008F51840021519D2AF22F2
:1011C300C0E0E493A36C7009D0E0D0E0D0E0020F5C
:1011D300CBA3A3D0E022C3E09608A3E09608A3E044
:1011E3009608A3E096A2D265D03322E06670100879
:1011F300A3E066700A08A3E066700408A3E0662211
:10120300E76670100809E766700A0809E766700464
:101213000809E76622181818E4C396F608E496F658
:1012230008E496F608E496F622C3E493960874015C
:1012330093960874029396087403939622C3E096D8
:10124300F008A3E096F008A3E096F008A3E096F078
:1012530022C3E697F60809E697F60809E697F60823
:1012630009E697F622191919E70947097009E727CB
:10127300097005E733F4220922181818E60846080E
:101283007009E626087005E633F4220822E026F00A
:1012930008A3E036F008A3E036F008A3E036F02216
:1012A300E026F608A3E036F608A3E036F608A3E046
:1012B30036F622E627F60809E637F60809E637F692
:1012C3000809E637F622700422600D18C6C333C638
:1012D30008C633C6D5E0F41822E657F60809E657E0
:1012E300F60809E657F60809E657F622E056F60827
:1012F300A3E056F608A3E056F608A3E056F622E666
:1013030047F60809E647F60809E647F60809E647F7
:10131300F622E056F008A3E056F008A3E056F008E2
:10132300A3E056F022C6F4C608C6F4C608C6F4C63F
:1013330008C6F4C622C3E09608A3E09608A3E09685
:1013430008A3E09622C3E7960809E7960809E796FB
:101353000809E7962275D00075813F751801751944
:101363000300020C6AE6084608C31346083360020A
:10137300E633F422E7094709C3134709336002E759
:1013830033F422600C08C6C313C618C613C6D5E0CF
:10139300F422E6F008A3E6F008A3E6F008A3E6F0DB
:1013A30022E0F608A3E0F608A3E0F608A3E0F6229D
:1013B300CAC0E0E6F0A308DAFAD0E0FA22E0FAA322
:1013C300E0FBA3E0FCA3E0FD22EAF0A3EBF0A3EC37
:1013D300F0A3EDF022E0F8A3E0F9A3E0FAA3E0FB29
:1013E30022E8F0A3E9F0A3EAF0A3EBF022E5C75467
:1013F300F84401F5C77901222518F582E43519F57A
:101403008322E72719471947194722E62618461862
:1014130046184622C2AF75D69F020000221210CA98
:1014230030BB041210CA45BB041210CABCBB041261
:1014330010CAEBFE011210CA6EFF011210CAD4FFCC
:10144300011210CA0EA8041210CA42A8041210CA2C
:10145300ABA8041210CA8FA9041210CAE9A9041276
:1014630010CA6B91041210CA7991041210CAF29136
:10147300041210CAEC92041210CAC294041210CAC5
:101483003EBF041210CA0080041210CA6C800412FA
:1014930010CA2481041210CA1082041210CA808355
:1014A300041210CAE783041210CA3B84041210CA40
:1014B3004484041210CA5484041210CAC784041248
:1014C30010CADD84041210CAE784041210CAC6BB12
:1014D300041210CA17BC041210CA5FBC041210CA4B
:1014E3001CB0041210CA2CB0041210CAE8B00412C3
:1014F30010CAF7B0041210CAD1D2021210CA31D3E3
:10150300021210CAEBD3021210CA95D5021210CAE6
:1015130035D6021210CA7BD6021210CAE6D60212C0
:1015230010CA54D7021210CA95D7021210CA02D891
:10153300021210CA40D9021210CA55D9021210CA97
:101543007BD9021210CAE8D9021210CA59DA021260
:1015530010CAD9DA021210CA4ADB021210CA74DBAB
:10156300021210CA3CDD021210CA74DE021210CA43
:1015730097DF021210CA29E0021210CA99E0021280
:1015830010CAFFE1021210CABDE3021210CA77E5C6
:10159300021210CA70E6021210CA1DEA021210CA21
:1015A3003BEC021210CA33AA041210CAA1AA0412F5
:1015B30010CAC3AB041210CAC6AB041210CACCAB18
:1015C300041210CAE4AB041210CA05A1041210CA13
:1015D30044A1041210CA81A2041210CA8F8D0412EE
:1015E30010CA3F8E041210CA398F041210CA019018
:1015F300041210CAAB90041210CA0F91041210CA3D
:101603004BAE041210CAA6AE041210CA71F603122E
:1016130010CA9DF6031210CA0EF9031210CA4EF92E
:10162300031210CA8EF9031210CAA2F9031210CAC8
:10163300BBF9031210CAACFA031210CA51FB03120E
:1016430010CA65FB031210CA0BB3041210CA2FB3DE
:10165300041210CA48B3041210CA7AB3041210CA8F
:10166300AAB3041210CAD7B3041210CA39B40412AD
:1016730010CA48B4041210CA52B4041210CA5FB498
:10168300041210CA609E041210CA809E041210CA6B
:10169300BF9E041210CADA9E041210CAF99E0412E5
:1016A30010CA5F9F041210CA689F041210CAC59F14
:1016B300041210CAD49F041210CAF89F041210CA4D
:1016C300B9A0041210CAC6A0041210CAD7A00412EB
:1016D30010CA7ABE041210CA92BE041210CABEBE49
:1016E300041210CA3C85041210CA9686041210CA4A
:1016F300A486041210CAB786041210CACC86041238
:1017030010CAE186041210CAF486041210CA68874C
:10171300041210CACD87041210CA6F88041210CAAB
:101723003389041210CA4389041210CA528904125D
:1017330010CA12BD041210CA36BD041210CA5EBD0F
:10174300041210CA86BD041210CA87A3041210CA59
:10175300AEA3041210CACCA3041210CA3FA40412ED
:1017630010CA8D9B041210CAA69B041210CAB29B06
:10177300041210CAC69B041210CAE49B041210CAB6
:10178300EE9B041210CAF89B041210CA0B9C04129D
:1017930010CA919C041210CA069D041210CA359DEA
:1017A300041210CA839D041210CAD29D041210CAD7
:1017B300ED9D041210CAF79D041210CA089E04126C
:1017C30010CA4B9E041210CAAAFF021210CA10EDCF
:1017D300031210CA3AED031210CA57ED031210CACE
:1017E3006AED031210CA80ED031210CADEED031274
:1017F30010CA16EE031210CA0AF2031210CA4FF3EC
:10180300031210CA82F3031210CAE5F3031210CABB
:1018130045F5031210CA6DF5031210CA82F50312BF
:1018230010CA92F5031210CAD6F5031210CA31F684
:10183300031210CA41F6031210CA3DB8041210CAAB
:1018430057B8041210CA7FB8041210CA98B8041209
:1018530010CABCB8041210CADAB8041210CAF1B81C
:10186300041210CA1FB9041210CA3AB9041210CADA
:10187300C1BE041210CA2795041210CA3795041268
:1018830010CA3C96041210CA6E96041210CA9E9691
:10189300041210CAC196041210CAD896041210CAB0
:1018A3001297041210CA7797041210CAB997041238
:1018B30010CAF897041210CA2998041210CA54982F
:1018C300041210CA69BC041210CA7BBC041210CAE9
:1018D300B9BC041210CAC7BC041210CAFFB6041262
:1018E30010CA84B7041210CA1CB8041210CA69B40F
:1018F300041210CA7BB4041210CA8FB5041210CAA2
:1019030092B5041210CA6DBA041210CAA3BA041213
:1019130010CABDBA041210CAFFBA041210CA16BB09
:10192300041210CAF0F7011210CAFAF7011210CA12
:1019330034F8011210CA9DF8011210CABAF8011244
:1019430010CA5CF9011210CA65F9011210CAAAF98A
:10195300011210CAD3F9011210CAE0F9011210CA18
:1019630051FA011210CADCFA011210CA2AFB011241
:1019730010CA68FB011210CACDFB011210CAF0FB9A
:10198300011210CA67FC011210CABEFC011210CA70
:10199300F9FC011210CA2EFD011210CA40FD0112FA
:1019A30010CA52FD011210CA71FD011210CA7AFD4C
:1019B300011210CA35FE011210CA81FE011210CAAB
:1019C300BFFE011210CABFB5041210CA2ABE041208
:1019D30010CAD8A5041210CA0EA6041210CA56A61D
:1019E300041210CAAFA7041210CACC6B001210CA9B
:1019F300F06C001210CA2A6D001210CAD46E0012C5
:101A030010CAFE6E001210CA7371001210CAB371AD
:101A1300001210CA4973001210CAE673001210CAEA
:101A23003874001210CADB74001210CA1375001246
:101A330010CA5575001210CAC476001210CA127863
:101A4300001210CA437A001210CA717A001210CA27
:101A5300987A001210CAA17A001210CAF17A001201
:101A630010CA837B001210CAB27E001210CA357FDF
:101A7300001210CAA2BF041210CA8B89041210CA22
:101A8300A189041210CA458A041210CA848A041256
:101A930010CAA18A041210CAD28A041210CA1F8B58
:101AA300041210CA528B041210CA8D8B041210CA6E
:101AB300828D041210CA6DB9041210CACCB9041273
:101AC30010CA0ABA041210CA4BBA041210CA008010
:101AD300031210CA2F80031210CAA780031210CA60
:101AE300AA81031210CA0682031210CA8783031243
:101AF30010CAA383031210CAF583031210CA2D84DC
:101B0300031210CA4084031210CA9284031210CA2B
:101B13001E85031210CA8B85031210CAB5850312E2
:101B230010CAED85031210CAD187031210CAAA88FE
:101B3300031210CAF389031210CA1F8A031210CAB0
:101B4300F28A031210CA7A8B031210CABB8B0312D8
:101B530010CAD58B031210CA1C8C031210CA3C8CFA
:101B6300031210CAD68C031210CA658D031210CA51
:101B7300BF8D031210CA038E031210CA7F90031283
:101B830010CAA191031210CADD91031210CACF9299
:101B9300031210CAF792031210CAFA92031210CA60
:101BA3000493031210CA1793031210CAA0930312CB
:101BB30010CAD693031210CA0294031210CA2994AE
:101BC300031210CA4D94031210CAE494031210CAEC
:101BD300F294031210CA0895031210CA4095031217
:101BE30010CAABBD041210CAB7BD041210CAF5BDAA
:101BF300041210CAF77F001210CA5695031210CAB6
:101C03007995031210CABF96031210CA08970312DC
:101C130010CA6297031210CAC897031210CACB974F
:101C2300031210CA1798031210CA9198031210CA0C
:101C33001799031210CA1A99031210CAA69903120C
:101C430010CAE999031210CA109E031210CAAD9F5D
:101C5300031210CAF49F031210CA69A3031210CA15
:101C63008EA4031210CA1CA6031210CAAAA603123A
:101C730010CAABA7031210CA10AA031210CAB0AA43
:101C8300031210CA1AAB031210CA33AB031210CAE1
:101C9300EEAB031210CA55AC031210CACBAD03123C
:101CA30010CAF9AE031210CA72AF031210CA75B18B
:101CB300031210CA1DB2031210CAACB2031210CA27
:101CC3007FB3031210CA5AB5031210CAFBB603122C
:101CD30010CAA3B7031210CAB5B8031210CA82DD23
:101CE300011210CAF6DD011210CA3EDE011210CA3B
:101CF3007CDE011210CAC5DE011210CA0FDF011209
:101D030010CA47DF011210CAC5DF011210CA1FE053
:101D1300011210CA7BE1011210CA0CE2011210CAAF
:101D23006AE2011210CA84E2011210CAA5E201128A
:101D330010CAFDE2011210CA6EE5011210CA8DE548
:101D4300011210CA6CE6011210CA84E7011210CA0C
:101D530001E8011210CA6EE8011210CAD7E8011295
:101D630010CA91E9011210CA4FEB011210CA50ECCC
:101D7300011210CAD5ED011210CAB6EF011210CA32
:101D830019F2011210CABFF3011210CA8DF4011225
:101D930010CAF3F4011210CA0AF5011210CAFAF5B7
:101DA300011210CAAFD1031210CA53F7011210CA9D
:101DB300AC98041210CAF899041210CAB59A041206
:101DC30010CA199B041210CA9FFC021210CABAFC53
:101DD300021210CAFEFC021210CA24FD021210CA1B
:101DE3004AFD021210CA62FD021210CAC5FD021298
:101DF30010CADAFD021210CAFCFE021210CA05FF55
:101E0300021210CA0EFF021210CA17FF021210CAE2
:101E130079FB031210CA67FF031210CA6CFF031287
:101E230010CA6EFF031210CA20BB041210CAFEB9F7
:101E3300031210CA0ABF031210CA76BF041210CAD3
:101E4300827F001210CA927F001210CAD97F00123B
:101E530010CA05BF041210CA15BF041210CA27AD59
:101E6300021210CA5AAD021210CAC1AD021210CA30
:101E73004DAE021210CAF2AE021210CA3AAF0212EB
:101E830010CA5FAF021210CA78AF021210CA9EAF17
:101E9300021210CAC0AF021210CAFEAF021210CA59
:101EA3004DB0021210CA76B0021210CAD5B0021297
:101EB30010CAAEB1021210CA64B2021210CAC2B280
:101EC300021210CA89B3021210CAE0B3021210CA76
:101ED3004BB4021210CA89B4021210CADFB4021240
:101EE30010CA57B5021210CAAEB5021210CAB1B564
:101EF300021210CA32B6021210CAD1B6021210CAA6
:101F03004DB7021210CA6FB7021210CAD2B802122A
:101F130010CADFB8021210CAE3B9021210CAF0B92C
:101F2300021210CAF9B9021210CAF4BB021210CA83
:101F33000EBD021210CA82BD021210CAEFBD0212F8
:101F430010CA17BE021210CAA9BE021210CA8CC050
:101F5300021210CA63C4021210CA77C4021210CA52
:101F630087C4021210CA91C4021210CA9AC4021280
:101F730010CAA3C4021210CAADC4021210CADCC430
:101F8300021210CA0FC5021210CA1AC5021210CAD1
:101F93003EC5021210CA62C5021210CABFC50212A0
:101FA30010CA05C6021210CA21C6021210CA94C66C
:101FB300021210CACBC6021210CA0AC7021210CAF2
:101FC30057C7021210CADDC7021210CAB9C90212DA
:101FD30010CA43CA021210CA28CB021210CA9DCDDE
:101FE300021210CAF0CD021210CA18CE021210CA81
:101FF30042CF021210CA6FCF021210CAC1CF02120F
:1020030010CA76D0021210CA26D1021210CA5BD1AE
:10201300021210CAF1D1021210CA75D2021210CAEA
:102023005D83011210CA8F83011210CABF8301128C
:1020330010CA9385011210CA7486011210CACC8685
:10204300011210CA0F88011210CA5B88011210CA4C
:102053008F8B011210CAA58E011210CAEF8F0112C5
:1020630010CA8590011210CA9190011210CAD19022
:10207300011210CA5B92011210CA4F93011210CAC7
:102083007993011210CAE093011210CA3994011214
:1020930010CAB094011210CAF796011210CA8E9892
:1020A300011210CA6299011210CAA19A011210CA30
:1020B300E69C011210CAB79F011210CAC69F0112F3
:1020C30010CA4AA0011210CAF1A0011210CA34A109
:1020D300011210CA9AA1011210CAB6A1011210CAA4
:1020E300E8A1011210CA27A2011210CA0CA30112FF
:1020F30010CABBA3011210CA3FA6011210CA81A7BE
:10210300011210CA60A8011210CAE0A8011210CA75
:1021130002AD011210CA40AD011210CA9BAD0112EB
:1021230010CACEAD011210CA4AAE011210CA66AE71
:10213300011210CA01AF011210CA4FAF011210CA27
:1021430022B0011210CAE7B0011210CA85B1011200
:1021530010CA8EB4011210CAA2B5011210CA3FB937
:10216300011210CA47BA011210CA4ABA011210CAA0
:1021730079BA011210CA78BC011210CA51BD0112FA
:1021830010CA98BD011210CAE5BE011210CA1FBFC2
:10219300011210CACCBF011210CA00C0011210CA2A
:1021A300B2C0011210CAC1C2011210CA2CC301125B
:1021B30010CA74C3011210CA11C4011210CA40C557
:1021C300011210CA07C6011210CAFDC7011210CAB4
:1021D30011C8011210CA25C8011210CA5BC8011226
:1021E30010CA8BC8011210CA19CA011210CAFACA3E
:1021F300011210CA6ACB011210CA1ACC011210CAFA
:102203004ACC011210CA14CD011210CAD1CD011249
:1022130010CADACF011210CA19D0011210CA86D01F
:10222300011210CACBD1011210CA7ED2011210CAF8
:10223300B2D2011210CACAD2011210CA6DD301124E
:1022430010CA5BD6011210CA26D8011210CA4AD886
:10225300011210CA68D8011210CA3CD9011210CA5F
:1022630064DD011210CA162E001210CA482E001285
:1022730010CA4732001210CA9332001210CAD93260
:10228300001210CA8133001210CAEB33001210CAB5
:102293003334001210CA9135001210CA9636001258
:1022A30010CA883A001210CA193B001210CA413CE6
:1022B300001210CA9E3C001210CA6D3E001210CAD2
:1022C300E43E001210CAEE3E001210CAFB3E00129A
:1022D30010CA263F001210CA0D40001210CAC64091
:1022E300001210CA4941001210CA6241001210CAFA
:1022F3008B41001210CAB841001210CA12440012D6
:1023030010CAD644001210CA1B45001210CA9245C7
:10231300001210CA4046001210CA7246001210CAB8
:10232300B846001210CAF446001210CA45470012FC
:1023330010CA9947001210CA2448001210CA6F48E5
:10234300001210CAD448001210CA4D49001210CA14
:102353000C4B001210CA1B4C001210CA3A4D00124B
:1023630010CA9650001210CAC553001210CA7E54E8
:10237300001210CAC654001210CA6556001210CAC1
:102383007956001210CA8356001210CA8D560012D5
:1023930010CA9956001210CAB856001210CA6E57C6
:1023A300001210CAC757001210CAD157001210CA20
:1023B300DB57001210CA4B58001210CA9258001271
:1023C30010CA9759001210CAE659001210CA895A46
:1023D300001210CA625B001210CA825C001210CA9B
:1023E300C45D001210CABE5E001210CAD65E00128F
:1023F30010CA0A5F001210CA285F001210CA875F52
:10240300001210CAAE5F001210CA4960001210CA4F
:102413000861001210CA7861001210CAF06100123C
:1024230010CAFA62001210CAC763001210CAC1644C
:10243300001210CA0665001210CA6165001210CAA4
:10244300C865001210CAF665001210CA1A66001297
:1024530010CA4F66001210CA7C66001210CAC26608
:10246300001210CAE666001210CA4F67001210CAA3
:102473003768001210CA8268001210CAAB680012D3
:1024830010CA4369001210CAC669001210CAF26961
:10249300001210CAE76A001210CA08D7031210CA42
:1024A30040D7031210CA61D7031210CAA5D703126B
:1024B30010CA09D8031210CA13D8031210CA23D89A
:1024C300031210CA5AD8031210CA52DC031210CADC
:1024D30060DE031210CA4DE0031210CAE4E00312D7
:1024E30010CA86E1031210CA0F81021210CA7F813B
:1024F300021210CADF81021210CA2A82021210CA03
:102503004582021210CA6C82021210CA8982021218
:1025130010CA9582021210CA4084021210CA59844A
:10252300021210CAE284021210CAF584021210CAFF
:102533001485021210CAAF85021210CA1F87021235
:1025430010CAC688021210CA5589021210CA5889C5
:10255300021210CAC889021210CAE689021210CAEE
:102563008B8A021210CAC78A021210CACA8A0212BE
:1025730010CA908B021210CAF38B021210CA2C8C51
:10258300021210CAA18C021210CABF8C021210CA06
:102593000D8D021210CAE28D021210CA308E021281
:1025A30010CA788E021210CA058F021210CA3A8F0F
:1025B300021210CA6F8F021210CA7D8F021210CA44
:1025C300DC8F021210CA5490021210CA95900212A4
:1025D30010CAE590021210CA1091021210CA2A9171
:1025E300021210CA4491021210CA1F92021210CA98
:1025F3002992021210CA6492021210CA7492021231
:1026030010CA7D92021210CAD592021210CAE99220
:10261300021210CA1F94021210CA3494021210CA72
:10262300C294021210CA2A95021210CADD95021230
:1026330010CAE895021210CA3597021210CA5197B0
:10264300021210CA9D97021210CA0C98021210CAE5
:102653004598021210CA5F98021210CAA19802127A
:1026630010CA639B021210CA199C021210CAA99CB9
:10267300021210CAF19E021210CA099F021210CA56
:102683000C9F021210CA189F021210CA2C9F02122A
:1026930010CA349F021210CA679F021210CA5AA0AE
:1026A300021210CAE5A0021210CA78A1021210CABF
:1026B300F1A1021210CAB5A2021210CAD7A20212C5
:1026C30010CA70A3021210CACDA3021210CAD0A35B
:1026D300021210CA4AA4021210CA96A5021210CA04
:1026E300A1A6021210CA2CA7021210CA31A8021204
:1026F30010CAF1A8021210CA22A9021210CA48A9CC
:10270300021210CA51A9021210CA7FA9021210CADA
:1027130017AA021210CACCAA021210CA3DAB0212A7
:1027230010CAE4AB021210CA6BAC021210CAAAACF4
:10273300021210CAEDAC021210CA1FD1031210CA42
:10274300F9D0031210CAAED0031210CA78D0031204
:1027530010CAFBCF031210CA96CF031210CA45CF7B
:10276300031210CA6DCE031210CADDCD031210CAB4
:1027730091CD031210CA0CCD031210CAB8BF0412B4
:1027830010CAFA7F001210CAC7CC031210CAABCC0E
:10279300031210CAD5FF031210CA5EB2041210CA84
:1027A300B9CA031210CA8BCA031210CA58CA031239
:1027B30010CADCC9031210CA82FC021210CA11FC2F
:1027C300021210CA63FA021210CA0CFA021210CAD9
:1027D3004CF9021210CA59F7021210CA29F7021251
:1027E30010CADAF6021210CA6CF6021210CA2BF6DD
:1027F300021210CA62F5021210CAFDF4021210CAC4
:10280300A8F4021210CA4EF4021210CA20F30212E4
:1028130010CABDF2021210CA39F2021210CA34F2FF
:10282300021210CACBB1041210CA99B1041210CA11
:1028330094B1041210CA2FD6031210CA55D503122D
:1028430010CA8BD4031210CAFAD2031210CA28F288
:10285300021210CA6CEF021210CA3AEF021210CA27
:10286300C3D2031210CAFAEE021210CAE2EE021227
:1028730010CAD7EE021210CAB3EE021210CA92D2D5
:10288300031210CADEEC021210CAD8AC041210CA2A
:102893009AEC021210CA86EC021210CAC5EC03129B
:1028A30010CA6CEC031210CA37EC031210CA02EC04
:1028B300031210CACEEB031210CA60EB031210CA44
:1028C30048EB031210CA23EB031210CAECE70312FE
:1028D30010CABFE5031210CAC6E3031210CA52E3BB
:1028E300031210CA46D2031210CA03E3031210CA1A
:1028F300BDE2031210CA5FE2031210CAE6F601003A
:10290300000080FBE4738F000100F61887000100CC
:10291300F41835000400BE1825000200C218260072
:102923000200C41827000200C61828000100D018AE
:1029330029000100D118840004001116860001004B
:1029430033182A000100D2182B000100D3182C00E1
:102953000100D7182D0008001D162E000100D818FD
:102963002F000100D91830000100DA1831000100EE
:10297300DB1832000100251633000100261634004F
:102983000100DC1836000100271638000100DD18AD
:1029930039000100D61883000200F2186300010019
:1029A300331664000100D41865000100D5186D00CA
:1029B3000100341671000800151666000100F118B5
:1029C30043000100E21844000200E318450001003F
:1029D300E51846000200E618470008002B164800D9
:1029E3000100E8184B000100E91804000100F51884
:1029F300A1000100F91837000100F8188800010050
:102A0300F7183C00010028163D000100DE184900BC
:102A13000200EA186700010035164D000200EC18A9
:102A23004E000100EE184F000200EF183E000100B7
:102A3300E11851000100291652000100DF1853006C
:102A43000100E018540001002A16000000000000F5
:102A530000013636010100010201000103010001FA
:102A63000401060605020000070100340801000FF7
:102A7300090401010D0100FF0E0800001702000008
:102A8300190100FF1A0100011B0100FE1C010008CF
:102A93001D0200001F0100012001000121020000AE
:102AA3002301000F24020000260100012701000872
:102AB300280200FF2A0100072B0102402C0100001D
:102AC3002D0100012E0100012F0100FF30010B1D1C
:102AD300310800003A0100083B01000F3C010001EE
:102AE3003D0100FF3E0400004204000046040000D4
:102AF3004A0400004E040000520400005604000083
:102B03005A040000010371030103010301030103DC
:102B13000103220302030103100300030003000364
:102B2300000300030003000342030003240306031E
:102B330000030003040312032503230325032303D4
:102B4300040304030003000300034403000300031E
:102B530023030003650321003503810300030503F9
:102B63000003000300030003250323030101710194
:102B73000101010111010101310101010101800183
:102B8300100161013B0014006301730172016201D2
:102B930043010001130106013D0135000401120147
:102BA30000010001000100010401040133013301AC
:102BB3003C014401320136000001000165010001BE
:102BC3003500810100010501820183010001030237
:102BD300710230016002110270020102020202025C
:102BE3008002100261023A00410063027302720222
:102BF30062024302000213023800000200020402D0
:102C03001202000200020002000204020402370062
:102C130037003C0244020002390000020002650250
:102C230000023502810200020502820283020002D1
:102C330003007100300160001100700031022003B5
:102C43005004800010006100000014006300730052
:102C53007200620043000000130006000000000041
:102C63000400120000000000000000000400040043
:102C7300370037003C024400000000000000000061
:102C8300650000003500810000000500000083009E
:102C9300000036000100060000000F0000000000E5
:102CA300000000000000000003FFFF00000403FF1A
:102CB300FF0000FFFF0FF4010005C404032000011F
:102CC30000000B000000000000000003010F0000E3
:102CD30000000000000000000000000000000000F1
:102CE30000000000000000000000000000000000E1
:102CF3000000961C0100961C02001E1C0280181C7A
:102D03000300241C04002A1C0480301C0500361C0C
:102D13000600421C3100541C33005A1C3400601C52
:102D2300FFFF000007ECFDFDFDECDCDCCCBCACAC34
:102D33009C9C8C7C7C6C6C5C5C5C4C4C3C3C2C2C80
:102D43001C1C03EAF5E5D5D5C5B5A595958585750F
:102D530075656555554545353525251515050ADE32
:102D63002202A82205B42207AE220C90220D9C2237
:102D7300FF000000160F00000B150B020002220FCC
:102D83003300000E0F5A6967426565416C6C6961D7
:102D93006E63653039D0D1D2D3D4D5D6D7D8D9DA6A
:102DA300DBDCDDDEDF303016181920231A1C1E3061
:102DB300303017181921301B1D1F30000119161848
:102DC30016161823030000034D4C4651181A250507
:102DD30002003C40423A3F3F392F47300C0E020B72
:102DE300040B0A0708000F02040201010101090292
:102DF300E803000000BE040AE803030001000E001C
:102E030009030404101E0A0C041E0828020C0508FA
:102E13001503FF74F7120AE6E990170AF09016BF3C
:102E2300E4F01218EE901722E4F0A3F090170BF0E1
:102E3300A3F012242E1218F4901643E4F0A3F01218
:102E43001DF80247F474F0120AE674D31211AD852B
:102E530018828519831264285480606890170AE0E9
:102E6300F91219608A088B09AE08AF09EE4F604C5E
:102E73007C0080010CEC75F003A4F8A9F0746128C0
:102E8300F582742D39F583E493F46029E493F88E85
:102E9300828F83E06870DDEC75F003A4F874622818
:102EA300F582742D39F583E493C0E0740193F583BF
:102EB300D082122907EEFAEFFB12194E1269BB6496
:102EC3008002322D851882851983A3E05420602166
:102ED3001223448A088B09AE08AF09EE4F600A1229
:102EE300229CEEFAEFFB12194E1269BB64200232E8
:102EF3002D851882851983E0A2E050259016C4E041
:102F0300640F70117900122272E960099018BE12E1
:102F130013C012228A851882851983E06401023264
:102F23000C542070030232117A207B0090170AE0C0
:102F3300F9121AA4EA4B4C4D701A90171E1213D8AB
:102F4300E8494A4B700E750801750900750A00754A
:102F53000B00806A750C00750D00750E00750F006F
:102F6300121AB08A088B098C0A8D0B90171E121344
:102F7300D8E8494A4B603190171E780812108340F5
:102F83000E750CFF750DFF750EFF750F7F8019858C
:102F9300080C85090D8C0E8D0F90171E780C1211DD
:102FA300957401780C121164850C08850D09850E42
:102FB3000A850F0BE50812342C700302314C7C0098
:102FC30079047A007B0012231A8A0C8B0DAE0CAFA6
:102FD3000D02308D74021213FB74FFF0740312138D
:102FE300FB74FFF074041213FB74FF126748740739
:102FF30012118D125EA5125F7D122362E9640170C6
:103003006B12501E4480F8A3E0F974281213FBE8F6
:10301300F0A3E9126677E0C0E0742A1213FBD0E054
:103023001249305408601674281213FBA3E04401BC
:10303300123240C0E0742C1213FBD0E0F01262D6BF
:1030430060121247D312638EE0F874161213FBE872
:10305300F0A3E4F09082FB120EF9740612118D7442
:103063000B121185121F4E74041211158E828F8359
:10307300A3A3A3A3A3A3A3A3A37406123240F91289
:1030830022FC74051213FB1263A2EE4F700302318C
:103093004C7C007904EEFAEFFB12231A7405121329
:1030A300FBEAF0A3EB12564CE0F50CA3E0F50DE4BC
:1030B300F50EF50F7808790C1213484023EE24041B
:1030C300F8E43FF985080C85090D88828983C3E0FC
:1030D300950CF0A3E0950D126AC4E84970A4800C26
:1030E3008E828F83A3A3A3A3E4F0A3F08E828F83A6
:1030F300A3A3A3A3A3A3A3A3A3A3E064018E828F8B
:1031030083A3A3A3A3A3A37023E054046003022F08
:10311300D78E828F83A3A3A3A3A3A3A3A3A374067E
:10312300F07AB712336F122284023085A3A3A3A3CC
:10313300E06003022FD78E828F83A3A3A3A3A3A34D
:10314300A3A3A37401F00230851222EA7C00790163
:103153007A007B0012231A8B0DEA450D600C7A204E
:103163007B0090170AE0F912198A7C0079047A002F
:103173007B0012231AEA4B7013804D8A828B83A340
:10318300A3A3A3126476EE98EF99400B8A828B83F4
:10319300A3A3A3A31263A27C00790412231A8B0BAB
:1031A300A90BEA4970D5C3E5089EE5099F500DC3F5
:1031B300EE9508FEEF9509FFEE4F70167A207B001F
:1031C30090170AE0F912198A90171E123239A3F0E8
:1031D300802EEE2EFEEF33FF8E088F09E4F50AF5FD
:1031E3000B78081210DF7A207B0090170AE0F9129F
:1031F3001A927404121115121AB090171E1213CCDE
:10320300851882851983E06420FAA3E0801CA3E07B
:1032130054046019125B4512286679019016BD1299
:103223005F7D121F601269BB6404FB80047A007B1C
:1032330000742D0262ABE4F0A3F0A3F0221249352F
:10324300A3A3E022C082C08374EA1211AD7C167D71
:10325300007900AA18AB1912193674081213FB74FB
:1032630002F09016B3125DA512328774091213FB94
:10327300125DBE74131213FBE4125A83121DEC7415
:1032830016024BF9E8F0A3E9F09016BD1262F4229E
:1032930074F7120AE674DA1211ADEAFEEBFFEE4F91
:1032A300602DAC18AD1912236274061213FBE06093
:1032B3001E74171213FBE0FD74011213FBE0FCEE06
:1032C300FAEFFB7900122248E9600479A4800279BD
:1032D3000074260247F174F7120AE6EAFEEBFF8E4A
:1032E300828F83A3A3A3A3A3A3E054406017126216
:1032F300B8125F7D1223F8E960067AFF7BFF801521
:103303001262B880039016B3125F7D74FE6A700375
:1033130074FF6B60471262B81264281223F8E98EB7
:10332300828F83600E126A53124C0638F583E4F0E1
:10333300A38003126A78F07C787D228E828F8312B9
:103343005F7D121DF2E9F5087015EE4F60097901F2
:10335300EEFAEFFB1222F6A9080247F47508CDAA8C
:103363000812336F122284E960E080EB8E828F8330
:10337300126A57240CF582E438F583E0F92274F6D7
:10338300120AE6E9FEEAFF7A0F7B00121948EA4BBC
:10339300601F8A828B83740CF0EEA3A3F0EF8A8202
:1033A3008B8312458990170AE0F91219547900802A
:1033B30034EEF91223208A088B09A808A909E849E1
:1033C300602188828983A3A3A3A3A3A3A3A3A37434
:1033D30006126489A3A3A3A3A3E0F9121FF0EEF9D5
:1033E3001222FC791002584674F4120AE68A088BFA
:1033F300098C0A8D0B9016C4E0640F702812342BCD
:1034030060239016BFE064086005E06404701678DA
:10341300081210DF7A017B0090170AE0F9121A9262
:103423007404121115023691EA4509450A450B2227
:1034330074F4120AE674FC1211ADEAFEEBFF8E82FD
:103443008F83A3A3E0F91223208A088B09EA450995
:1034530070030235728E828F83A3A882A983E0C092
:10346300E0EA125A35D0E01243F464F160288E8208
:103473008F83A3E064CD601E8E828F83A3E0641AE2
:1034830060148E828F83A3E064E9600A8E828F8347
:10349300A3E064E1703079001222F6E96028E508C0
:1034A3002404F50AE43509F50B850882850983129E
:1034B30035831243DA125F7D121900850A82850B68
:1034C3008312642880788E828F83A3E0C0E0740225
:1034D3001213FBD0E0124C0C126AB2EE240B124A08
:1034E300F8C0E074031213FBD0E0F0E50812673A6A
:1034F300123AFDE0AA18AB197005121F4880031297
:1035030023E074021213FBE064E9703285088285BC
:103513000983123C96750A01780A1210EB750AE9C1
:10352300780A1210EB1243BE124801A3A3A3A3A36C
:103533001247F9125F7D1223987402121115850840
:1035430082850983A3A3A3A3A3A3A3A3A3E06402E4
:103553007012850882850983A3A3A3A3A3A3A3A3AE
:10356300A37406F08E828F83A3A3E0F91222FC12C8
:1035730022EA9018C4123A6112228A740402368E27
:10358300A3A3A3A3A3A3125E928E828F832274F4B8
:10359300120AE6EAFEEBFF7508008E828F83A3A36F
:1035A300A3A3A3E0603B750808125F7079FF1220A4
:1035B300C88B0BEA450B601075082C8E828F83A392
:1035C300A3A3A3A3E0D2E0F08E828F83A3A3A3A33C
:1035D300A3E05403640160030236884308110236F2
:1035E30088EE2418124AF86036EE241A124AF8605C
:1035F30003F4701212642E7003A3E06960030236B1
:1036030088750822807FEE241B125E88EE241A122E
:103613004AF8FAEE2419124AF8F9121FDE806612EC
:103623005F701223F8E96402700375080112642EB7
:103633007003A3E0697006E508D2E1F508E50860C8
:10364300158E828F83A3A3E07006E508D2E580047C
:10365300E508D2E6F508125F701223F8E9640170F9
:1036630006E508D2E0F5088E828F83A3A3E06015F8
:10367300EE241D125338F91223E6E964016006E5CE
:1036830008C2E0F508A908800574091211157F0422
:10369300020DF874F0120AE674D71211ADEAFEEBCC
:1036A300FF8E828F83A3A3A3A3E060119018C2129D
:1036B30062DF60099018C2123A6112228A740312FF
:1036C300118D8E828F83A3A3A3125C57125F7B128B
:1036D3002362E9700302382C780174051213FBE0AE
:1036E300C394024002780074071213FBE0C39402F0
:1036F30040027800740C1213FBE064F87003A3E03B
:10370300F4700302382C740C1213FBE064F9700399
:10371300A3E0F4700302382C740C1213FBE064FA78
:103723007003A3E0F4700302382C740C1213FBE053
:1037330064FB7003A3E0F4700302382C74061213C5
:10374300FBE0F99016ADE069600302382CE8A2E0D3
:10375300400302382C74271213FBE0600302382C59
:10376300EE24131262EA74221213FB125C61241C0E
:103773001262EA74101213FB125DBE74091213FB7A
:10378300E0601D741A1213FBE0FD74041213FBE0D6
:10379300FC8E828F83125F7B7901122248E9703D90
:1037A3007403121185122296E9F50C74091213FBA6
:1037B300E0702E9016A7E060287422550C642260F6
:1037C300207442550C6442701474201213FB123A95
:1037D3006D600E74201213FB123A5A60047ACF8084
:1037E3004AE9A2E6504D74201213FB12533E24FD06
:1037F300600F14600C24FD600824FD600424FE7037
:103803002874201213FB123A53700E74201213FB08
:10381300125992A3E0640D601A74031211851224E5
:1038230010E96401700D023A4E7AD37B00121BF447
:10383300023A4EEE242DF582E43FF583123C8D705F
:1038430003A3E069702275080078081210EB78086A
:103853001210EBEE242F124AF8F9123A73125F7D1D
:10386300122398740212111574091213FBE07003EA
:10387300023910123A73125F7D12245E8A0E8B0F87
:10388300EA450F70030239A774041213FBE0F88EA4
:10389300828F83A3A3E028F8A3E03400F9E8124C55
:1038A3000639F583E0F88A828B83A3A3A3E06860DB
:1038B3000EE88A828B83A3A3A312458212323A793C
:1038C30004E91213FB12503FA3E02AF8A3E03400EB
:1038D3008882F583A3AA82AB8312193C8A088B09D9
:1038E3008C0A8D0B850E82850F83A3A3A3A378086F
:1038F3001210834003023A4E9082F378081212A307
:10390300850E82850F83126AAEA3124D329016BFC5
:10391300E064046008E064096003023A4EE50CA227
:10392300E540030239E1EE242F12500FF0EE24306C
:10393300124AF8C0E074011213FBD0E0F0EE243118
:10394300124AF8C0E074021213FBD0E0F0741412B0
:1039530013FBE06401702C740E1213FB1243EB246F
:1039630013124AF8687003A3E0697017740C1213FA
:10397300FB125F7D1223F8E96402700774141213BB
:10398300FBE4F0EE2425F582E43FF583120EF9748F
:103993000412118D7407121185121F4E7404121133
:1039A30015023A4E901704E0640160030239107463
:1039B300201213FB123A6D7009E50CA2E6500302C4
:1039C300391074101213FBE0F47003A3E0F4607B6E
:1039D300EEFCEFFD74031211851222A2806DA2E6A4
:1039E300506974201213FB125E9F7016741A12131F
:1039F300FBE064027055740312118579001223DA17
:103A0300804974201213FB123A5A7014741A121359
:103A1300FBE06404703574031211851223CE802BEE
:103A230074201213FB123A53700C790074031211B1
:103A33008512241C801574201213FB125992E06422
:103A43000C7008740312118512242874290262ABC6
:103A53001262C2E06403221262C2E0640722E0F54C
:103A630008A3E0AA08FBE4FCFD22125342640622E9
:103A7300EE242BF582E43F123A81124AF122F583B8
:103A8300125E92EE2274F4120AE6EAFEEBFF8C0851
:103A93008D09901625E0600F12642E7003A3E06970
:103AA3007005121FCC80497900125F70121FFC8AC7
:103AB300828B83E5824583602FA3A3A3A3A3A3E003
:103AC30054186024E508241C123AFA120EFD123A27
:103AD300F6120EFDEE2418124AF8F9123B021220D8
:103AE3000E740412111580087900123B02121FD2C2
:103AF300023691E5082413F582E43509F583228E15
:103B0300828F83A3A3A3A3A3A3A3A3A3123A831282
:103B13005D9C125F812274F7120AE674F71211ADED
:103B2300EAFEEBFF9016BFE06403600DE064016002
:103B330008E064096003023C348E828F83A3E06053
:103B430003023BF77C007D007A027B001218FA1215
:103B53003C398A828B831262F09016B0125DBE7973
:103B630053121DDA9016BFE0640960099016BD1266
:103B73005F7D1224588518828519837401125A8334
:103B83007942121DDA9016BF7404F0740112118584
:103B9300794A121DD4740112118D7AB57B16121A4B
:103BA300C8901539E0640B70057406F0800B79003A
:103BB3009016BD125F7D121F609016B0125E8E7A52
:103BC300037B001218FA9016B3125E8E7A047B0000
:103BD3001218FA9016AAE0A2E35004D2F08002C2AF
:103BE300F0125A797952121DDA9018BE1213C012CC
:103BF300228A803AFC7D007A037B101218FA901512
:103C030039E0640B7003740AF0901629E4F0FA7B30
:103C13004090170AE0F9121A9E8E828F83A3E0F96F
:103C23009016BD125F7D121F609016BFE4F0122242
:103C3300CC74090247F1EE2402FAE43FFB22C0826E
:103C4300C0839016431262DF70179016BFE024FB07
:103C53006005146007800A901649802090164B80F7
:103C63001BE8496008901644123E65700C8A828BEB
:103C730083A3E0F9121F54800E9017391262DF609C
:103C8300061259931229070254BF1262F49016BD0B
:103C9300E068221262F4E8FAE9FB2274F5120AE6FC
:103CA30074D81211AD8A088B098A828B83A3A3A3CC
:103CB300A3A3A3A3A3E0C3940F5003023E608A828D
:103CC3008B83A3A3A31263A2741512118D8A828B13
:103CD30083A3A3A3A3A3A3A3A3E0F98A828B831241
:103CE3005F741222D874151213FBE0702E850882BC
:103CF300850983A3A3A3A3A3A3A3A3E0C3940B4016
:103D03001A8E828F83A3A3A3A3A3A3A3A3E0640216
:103D13007009EE240B124AF8F46003023E60741734
:103D23001213FBE0600764026003023E609016BF5B
:103D3300E06402601AE0640660159016431262DFC5
:103D43007003023E60123E656003023E6080329063
:103D530016431262DF702A75080078081210EB7898
:103D6300081210EBEE2410F582E43FF583125C5841
:103D7300A3A3A3123583125F7D1223987402121139
:103D8300158E828F83125DA5E8F0A3E91243FD121D
:103D930062F074021213FB125C6112501FC0E074D4
:103DA300041213FBD0E0F0EE240B12647B740F7843
:103DB3000812138674051213FBE508F07419121325
:103DC300FBE0C0E074061213FBD0E0F0741B121387
:103DD300FBE0C0E074071213FBD0E0F0741612137B
:103DE300FBE0C0E074091213FBD0E0F07417121368
:103DF300FBE0C0E074081213FBD0E0F0EE241012D5
:103E03004AF8C0E0740A1213FBD0E0F0741A1213DC
:103E1300FBE0C0E0740B1213FBD0E0F07427121325
:103E2300FBE0C0E0740C1213FBD0E0F0741C12131F
:103E3300FBA982AA8389088A09750A0078081210E7
:103E4300E37C087D0074101213FBAA82AB83121962
:103E53002A7403121115AA18AB19121F5A742802D7
:103E63004945E0C8125E7E64012274F2120AE674C8
:103E7300F81211AD8A0A8B0B8C0C8D0D8908908278
:103E830042AC18AD197408121043C200AC0AAD0B52
:103E9300AA18AB19121AC2E97002D20090170B804C
:103EA30014AC0AAD0BEE240BFAE43FFB121AC2E981
:103EB300701B124ADE12473D601EA20040E38E8251
:103EC3008F83E0650C7004A3E0650D70E58E828F2F
:103ED30083A3A3E0650870DAEEFAEFFB74080244EB
:103EE3000AC082C08390170B0254BCC082C0839067
:103EF300170BE4F0A302415E74F7120AE690170B66
:103F03001269C1800FEA2414F582E412639F121927
:103F1300E4EEFAEFFBEA4B70EC90170BE4F0A3F03E
:103F23000247F474F2120AE68A0C8B0DECFEEDFFE5
:103F3300890B8A828B83125A40F0A3A882A9838AB1
:103F4300828B83123FEF12457DA3E0C454F0FA88BD
:103F5300828983E04A125063850C828B83A3A31268
:103F63003FEF124002E0333354FC123FF6E03333A9
:103F73003354F8123FF6A3E0A2E0E4331313FA88B4
:103F8300828983E04AF0EE2403FE50010FE50C24FE
:103F930007F508E4350DF509750A0078081210E3F2
:103FA3007C087D00EEFAEFFB12192A740312111537
:103FB300EE2408FE50010FE50C240FF508E4350D3F
:103FC300F50978081210E37C037D00EEFAEFFB128B
:103FD300192A7403121115E50BC3940F400BE50C5A
:103FE300124C00350D12560BF002440DA3E08882EB
:103FF300898322FA88828983E04A124002A322F04D
:10400300850C828B83A3A3A3A32274F2120AE6EA8C
:10401300FEEBFF8C0C8D0D8E828F83E08C828D8363
:10402300125641A882A983E0540F8C828D831243D8
:10403300F3C412546212505912546A1243F1A2E2A9
:10404300E4338C828D831243F0131313541F1254E1
:10405300621243F0A2E7E4338C828D83A3A3A3A36C
:10406300A3A3F0EE2403FE50010F8E088F09750AF7
:104073000078081210E37C087D00E50C2407FAE4BD
:10408300350DFB12192A7403121115EE2408FE5084
:10409300010F8E088F0978081210E37C037D00E579
:1040A3000C240FFAE4350DFB12192A7403121115AF
:1040B3008E828F83A3A3A3E0C0E0126ACCD0E0F08A
:1040C30002440D74F6120AE6EAFEEBFF8E828F833A
:1040D300A3858208858309E0F9121F788508828504
:1040E3000983E064EB601E8E828F83A3E064E1604A
:1040F300148E828F83A3E064F1600A8E828F83A380
:10410300E0641A70078E828F83A3E4F09018BE12C6
:1041130013C012228A75080178081210EB8E828F61
:1041230083A3E0F50878081210EB79009016BD120E
:104133005E8E9016B3125F7D1223987402121115CE
:104143001222EA025846C082C083E990171D700309
:10415300E4800274018004EAF0A3EBF00254BF741C
:10416300F6120AE690171DE0701B7C0079017A00B5
:104173007B0012231AEA4B600C8A828B831262DF64
:10418300600312227E025846C082C0837904122340
:1041930014E9F8902E11E493C398401079FF122389
:1041A30014E9F8902E10E493C39850047901800227
:1041B30079000254BF74F2120AE68A0A8B0B89094A
:1041C300C2008A828B83A3A3A3A3A3A3A3A3E0F91F
:1041D3001223208A0C8B0DAE0CAF0D750801EE4F28
:1041E30060030242A1850A82850B83A3A3A3A3A331
:1041F300A3125E8E850A82850B83A3A3A3A3A3A325
:10420300A31243DA125F7D1223088A0C8B0DAE0CC6
:10421300AF0DEE4F70030243B78E828F83A3A3A328
:10422300A3E4F0A3F0E50A240CFAE4350BFB8A823D
:104233008B83E0C0E01243BED0E0F0E50A240D1208
:1042430043E4240D125DB81223FEEE240F12642200
:10425300E50A24111243E42411125DB8E50A24137C
:1042630012646DC0E0124AECD0E0F0D200EE2406F6
:104273001250061243D11243F45404600302430F55
:104283009018D0E0F50A750B007407780A1212C96A
:104293008E828F83A3A3A3A3A3A31243C8F08E820A
:1042A3008F83A3A3A3A3A3A3E0F50AA3E0F50B7451
:1042B30007780A121386E50A5407FCE509605C8E49
:1042C300828F83A3A3A3A3A3A3A3A3A374021256BE
:1042D300461246B1600B9016AB12508CA3A3125D2D
:1042E300BEEC7003024382EE2406126A351243D1F8
:1042F300F0EC24FFF50AE434FFF50B7407780A1297
:1043030012C98A828B831243C8F080738E828F8393
:10431300A3A3A3A3A3A3E044808082EC7005750844
:1043230000805C8E828F83A3A3A3A3A3A3E0542066
:10433300600C121942EA547F7900245F80198E823F
:104343008F83A3A3A3A3A3A3E05410601A1219425B
:10435300EA540F7900240A5001098E828F83A3A3A4
:10436300A3A3F0A3E9800D8E828F83A3A3A3A374D9
:1043730001F0A3E41243FD740412463512198AA214
:104383000050348E828F83123585A3A3A3A3A3A3E6
:10439300A3A3A3E0F9EEFAEFFB12230EE9601812D0
:1043A30062D660091247D3125F7D1219E4EEFAEF69
:1043B300FB1219E4750800A908804FEE240CF5825E
:1043C300E43FF58322E0450AF0A3E0450B22E054E5
:1043D3007FF0A3E054FC22A3E0F9850A82850B83D6
:1043E30022F582E4350BF5831262F4EE22A3A3A334
:1043F300A31243F822126494E022124401221249C8
:1044030039A3A3A32274031211157F06020DF874B6
:10441300F4120AE674F71211AD7E00122320EA4B60
:1044230070030244D18A828B83A3A3A3A3A3A3A370
:10443300A3A3E0640660030244D18A828B83A3A30F
:10444300A3A3A3A3A3E0FF8A828B83126A5DE0C0C8
:10445300E074081213FBD0E0124817125DAA125D34
:10446300BE122332EF5408606385188285198312C4
:104473005E8E7A007B001223028B0BEA450B704C95
:10448300126AD8121E047C007D007A007B0080280B
:104493008E828F8312533EF47003A3E0F4602D9059
:1044A30016BD123589125F7D121DFEE9641A601C68
:1044B3007C007D00EEFAEFFB1223028A0A8B0BAE1F
:1044C3000AAF0BEE4F70C97900121E0A7E01EEF996
:1044D30002368CC082C0838A828B83E582458370D7
:1044E3000990172280068A828B83A3A31246E56074
:1044F300208A828B83A3A3A3A3A3A3A3E05408606E
:10450300E5EC4D60101246EB7003A3E06D70D780AD
:10451300047A007B000254BF74F2120AE68A088B05
:1045230009890AECFEEDFF7A147B001219DEEA4BCF
:10453300603B8A828B83A3A3A3A3A3A3A3A3A3E424
:1045430012480CA3E50A12644FA3A3A3EEF0A3EF52
:1045530012458212481E1245898A828B83126AB2DF
:10456300EA240F12457312457CA3F0A3F002440D15
:10457300F582E43BF583E4F022A3126A95A32212A9
:10458300645FE4F0A322A3F01263981245762274C9
:10459300F5120AE6EAFEEBFF890A8C088D09EE4F55
:1045A30070030246307401650A70127901122314F4
:1045B300E9F8902E12E493C3985022801674046590
:1045C3000A70147904122314E9F8902E11E493C3AA
:1045D30098500A791180587402650A70508E828F40
:1045E30083A3A3A3A3A3A3A3A3A3E50A12564612DB
:1045F3006AAE8E828F83A3A3E4F0A3F090172212F6
:1046030062DF601880031262F088828983A3A31299
:1046130046E588828983A3A370EC8003901722EE7A
:10462300F0A3EF12463512198A7900800279C1028C
:104633004948F07A207B0090170AE0F922C082C033
:1046430083E9F87900901722801D8A828B83A3A3C4
:10465300A3A3A3A3A3A3A3E068600574FF687001E9
:10466300098A828B83A3A31246E570DE0254BF74CA
:10467300F7120AE6EA4B700590172280068A828BAE
:1046830083A3A31246E5601F8A828B83A3A3A3A3FC
:10469300A3A3A3A3A3E06970E4EC600F8A828B83D6
:1046A3001246B170D880047A007B000247F4126A84
:1046B30081E0540422C082C08390172280068A823C
:1046C3008B83A3A31246E560128A828B83A3A3A3E1
:1046D300A3A3A3A3A3E06970E580047A007B00028F
:1046E30054BF125F81EA4B228A828B831253426C3E
:1046F3002274F2120AE68A0A8B0B8C0C8D0D750854
:1047030000750900EA450B602A90172280068E8205
:104713008F83A3A312473D601AAC0CAD0DEEFAEFE5
:10472300FB850A82850B83122907E9640170DF8EFA
:10473300088F09AA08AB0902440DE0FEA3E0FFEECF
:104743004F2274F7120AE69017221262F07C007D62
:1047530000800DE8FCE9FD88828983A3A31262F03F
:10476300E8496030EA687002EB6970E7901722123B
:104773005F7DE86A7002E96B88828983A3A370086E
:104783001262F090172280091262F08C828D83A34B
:10479300A3125DBE805B74F7120AE6EAFEEBFFEE3E
:1047A3004F602B12232C1247E1125F7D1219E48E06
:1047B300828F83125F7D1219E41262D66009124759
:1047C300D3125F7D1219E4EEFAEFFB1219E4802194
:1047D300EE1247D822240FF582E43FF583228E821E
:1047E3008F83E0F8A3E0C8125EB838F58322121174
:1047F300157F01020DF8125E928A828B8322E0F903
:104803008A828B83A3A3A3A3221248102212646378
:10481300A3A3A322126A9512534222124810A3A300
:104823002274F6120AE69017221263A280308E8257
:104833008F83A3A31264811247E1125F7D1219E4EF
:104843008E828F83125F7D1219E41247D3125F7D2C
:104853001219E4EEFAEFFB1219E4AE08AF09EE4FBA
:1048630070CC901722E4F0A3F0025846C082C083B4
:10487300EAFCEBFDEC4D6017EC24FBF582ED34FF15
:104883001262DD70071248C9E0F4600712194E790D
:1048930005803090170AE0C0E01248C9D0E0F090DC
:1048A3002E09E493F97A247B17121984E9640170C1
:1048B300107A007B2090170AE0F912198A79008098
:1048C3000279040254BFEC24FFF582ED34FFF58333
:1048D3002274F4120AE6A2AFE433F508C2AF9017CC
:1048E3002412473D603AEE24FBF582EF34FF126257
:1048F300DD7A007B2090170A6007E0F912198A809D
:1049030005E0F9121990E4F50AF50B780A1210E79D
:10491300EEFCEFFD7A247B1712197E740212111537
:10492300E508A2E092AFEEFAEFFB023691124935A9
:10493300E02212493922F08E828F83A3A3A3A3A37B
:10494300A3221211157F03020DF874F2120AE67402
:10495300FA1211ADEAFEEBFF7508FE7509FF12228C
:10496300F0E960057911024AD9124AF5603B9018C3
:10497300E9E0C43354E0F8E0333354FC48C0E012B8
:10498300616ED0E012649AFAA3E0FB79FF1220C8AB
:104993008B0BEA450B60127508FFEE240F124AF8E1
:1049A3004404F0124AF5D2E0F08E828F83125F7BCB
:1049B3001223F8E96006EE24121264B1EE241312F6
:1049C3004AF8700D902E08E493C0E0124AECD0E050
:1049D300F08E828F83E0A2E7500454038019EE2403
:1049E30014124AF8701290169CE0C0E0124ADED00E
:1049F300E0F090169CE004F0EE2411124AF86401F2
:104A030070169018D4E0600D9016A7E0700A8E829D
:104A13008F83E070031264AE8E828F83E064017033
:104A230013EE240B12533864027009EE240F124A5A
:104A3300F84440F0AC18AD19EEFAEFFB12235C8A90
:104A43000A8B0B74FE6508700374FFF470098E8281
:104A53008F83A3A3126481EA450B60768E828F83D2
:104A6300E0C0E074011213FBD0E0F074041213FBF6
:104A7300EEF0A3EFF0EE241E1262EA74021213FBAF
:104A8300125DBE740112117D880C890D780C121011
:104A9300E7EE2420124B001210EB1247D3120EFD47
:104AA300EE240E124B001210EB9016B0120EFD7492
:104AB300081213FBE0F9AC08AD091223567408126F
:104AC3001115E9FE74106E700BAA0AAB0B1219E4F0
:104AD30080027E10EEF9740602440A124AE222EEC4
:104AE3002414F582E43FF58322EE124AF122125A8E
:104AF3007022EE2415F582E43FF583E022F582E48B
:104B03003FF583E0F50C780C22C082C08374D71282
:104B130011AD9080BA740312118D74261210438A5A
:104B2300828B83A3A3A3A31262F0740E1213FB124E
:104B33006A8DA3A31262F0740C1213FB124C1412AD
:104B43004C06125769C0E0741A1213FBD0E0F0123E
:104B530061EB1262EE74201213FB124C14125A2FE3
:104B6300125769C0E074081213FBD0E0F0EA241C6A
:104B7300F582E43B1262EE74121213FB124C1424FE
:104B830011F582E4125769C0E074091213FBD0E0F7
:104B9300F0124BFF125769C0E074071213FBD0E009
:104BA300F0EA241EF582E43B1262EE74241213FB36
:104BB300124C142420F582E4125769C0E0742612C3
:104BC30013FBD0E0124C0C74FFF074011213FB744E
:104BD300FFF074021213FB74FFF09082FB120EF9C4
:104BE300740412118D7407121185121F4E7404126E
:104BF3001115790074291211150254BFEA2412F514
:104C030082E422240DF582E422F08518828519833B
:104C130022E8F0A3E9F0EA2274F4120AE674EC1233
:104C230011AD8A0A8B0B8C088D09E9FF7E107A215E
:104C33007B001219DE851882851983EAF0A3EB1233
:104C430062E5E8497003024D297C217D00790085E6
:104C53001882851983E0FA1219369016BD125F7D0A
:104C6300851882851983126A532409F582E4381260
:104C7300642674201213FB1262F074111213FB12D8
:104C830053B512629838F58374021253B9126A64E9
:104C930074021253A2E508F0A3E5091253B9126A8C
:104CA30042EFF074221213FB125356F9A3E0C91218
:104CB300673A39F583E8125054A3E0C9125EB83954
:104CC300124D3074231213FB125F7D74061213FB13
:104CD30012642874081213FBE8F074261213FB12F3
:104CE30062BCC082C083740C1213FBAC82AD83D050
:104CF30083D082740512104374251213FBE0C0E0C5
:104D030074131213FBD0E0F07900AA18AB19122226
:104D1300F6E9640170047E00800C8518828519838E
:104D2300125F7D1219E4EEF9741402368EF583E5F1
:104D33000AF0A3E50BF02274F0120AE674FF1211D5
:104D4300ADEAFEEBFF8C088D098E828F83A3740876
:104D5300F0EE2416124AF860088E828F83A3741033
:104D6300F0EE2417124AF860098E828F83A3E024A1
:104D730008F0124AF560088E828F83A3E004F08E58
:104D8300828F83A3A3A3A3A3A3E060198E828F833F
:104D9300A3A3A3A3A3A3A3E0C3332402F88E828F08
:104DA30083A3E028F0EE241112500F6004740E80E8
:104DB30001E4F09018E1E0640170168E828F83E0C5
:104DC3006401600D901629E06007124FFC740180A6
:104DD30004124FFCE41250548E828F83A3E01250CE
:104DE3001D28298C828D83F0EE2411124AF860135A
:104DF3009016A8E0F912224EE9F885088285098306
:104E0300E029F0850882850983E0C394754009751C
:104E13000C00750D00024FF3E0FA7B001219DE8AD5
:104E23000C8B0DEA450D7003024FF38E828F83E0E6
:104E3300FA9016AD12504D740278081212C9EA4561
:104E430008FAAB09EE2412125047740678081212BE
:104E5300C9A808EA48FCEBFD124AF5600478018012
:104E6300027800EE2416FAE43FFBE4C8F9ED49FDAD
:104E7300EE2411124AF8F508880974097808121209
:104E8300C9ED4509FD8A828B8312504D740B780856
:104E93001212C9ED4509FDEE2417125047740C7820
:104EA300081212C9ED4509FD8E828F83A3A3A3A324
:104EB300A3A312504D740A78081212C9ED4509FDD7
:104EC300EE2423125047740D78081212C9ECF8ED42
:104ED3004509F9E8850C82850D83F0E9125059855F
:104EE3000C82850D8312507CF0EE240412500612BE
:104EF300503112507CA3A3125A66125031A3A3A3BC
:104F0300A3126AA8850C82850D83A3A3A3A3A3A3DD
:104F1300A3F0750B088A828B83E06015EE241812C8
:104F23005E88E50C2408FAE4350DFB121AC8750BEC
:104F330010EE2417124AF86019EE241A125E88A89C
:104F43000BE50C28FAE4350DFB121AC87408250B7F
:104F5300F50B8E828F83A3A3A3A3A3A3E06055EED7
:104F63002407F50EE43FF50F850E82F583E0C0E0DC
:104F7300125024D0E012506CE0C0E008125026D04A
:104F8300E012506CA31262C91210E3850E82850FE2
:104F930083E0125308A80BE50C28FAE4350DFB1245
:104FA300192A7403121115850E82850F83E0C3330A
:104FB300250BF50B124AF56008C0E0125024D0E02F
:104FC300F0125D971262C91210E312501EFC7D00AD
:104FD30074031213FB12503FE0F8E50C28F8E43594
:104FE3000DF9E82AFAE439FB12192A740312111590
:104FF300AA0CAB0D74010262ABEE2423F582E43FED
:10500300F58322F8E43FF98882898322F582E43F1D
:10501300F583E085188285198322F8EE12692AE068
:1050230022A80BE50C28F582E4350DF583221250F6
:105033003522E0850C82850D83A3A322E0FA8E82BC
:105043008F83A322F582E43FF583E0F50875090019
:1050530022126A9BF922A312506388828983E02279
:10506300F0EE2402F8E43FF922F0050B8E828F83E1
:10507300A3A3A3A3A3A3A3A322A3A3126494A312EE
:105083005035A322740302368E1262F48E828F830C
:10509300A3A32274F0120AE674FD1211AD851882DF
:1050A30085198312642874021213FBE9F08C0C8DAA
:1050B3000D750B017C267D007900AA0CAB0D12192E
:1050C3003674021213FBE0C394085003025292E0B9
:1050D300850C82850D83F0AC0CAD0D851882851986
:1050E3008312533EFA8518828519831259921256F8
:1050F30035122368E96003750B00851882851983CF
:105103001262BC125360E0F9EA850C82850D83A319
:10511300A3A3A3A3A3A3A3A3F0A3E91253A2A3A3AB
:10512300125360A3A3E0F9EAF8E50C126298126A3D
:10513300D31253B5125E7AC0E0E50C2411126AD083
:10514300D0E01253B92407F582E438F583E0C0E0D8
:10515300126ACCD0E012538C7408125399A3E06006
:1051630020851882851983E02408F8A3E03400F928
:10517300E50C2413126AD0E8F0A3E9126293240821
:10518300F0850C82850D83A3A3A3A3A3A3A3A3E00C
:10519300602A850C82850D83A385820E85830F1279
:1051A300534DF8A3E03400F9E50C125A2F350D12D4
:1051B3005DBC850E82850F83E02408F012530FE453
:1051C300F012531FE4F0A312538CA3A3A3A3E06034
:1051D30011125371850C82850D83A3A3A3A3A3127C
:1051E30053AAE50C125330E0700302527E1253713E
:1051F300FA12530FEA1253AAF8851882851983E02D
:1052030028FBA3E034008B82F583E0F8E50C241A35
:10521300126AD0E81253AAE8C39AE50C5058125305
:105223002BF8902E0AE493C39850047E0C8006E575
:105233000C12532BFE850C82850D8312534CF508FB
:10524300A3E03400F509750A0078081210E3EE12A2
:1052530053087A277B0C12192A740312111512535F
:105263001F7427F0A3740CF0EEC333F8850E828508
:105273000F83E0288004125330E4F0850C82850DFF
:1052830083A3E0F8850C82850D83E0C398500479ED
:1052930000806F12534CFAA3E03400FBE50C126458
:1052A300A8350D126426850C82850D83E0C398C052
:1052B300E0E50C2417126AD0D0E0125399E0604065
:1052C300E50C2417FEE4350DFF8E828F83E024F274
:1052D300F0E50C241DF8E4350DF988828983E02478
:1052E3000EFAA3E03400FB888289831264289016A7
:1052F300A8E0F912224EE9F88E828F83E0C398F07A
:10530300A90B0262A925E0FCE433FD22E50C12534C
:1053130015222419F582E4350DF58322E50C241BAF
:10532300F582E4350DF58322125315E02212628DC6
:10533300350DF58322F582E43FF58312534222E0D3
:10534300F8A3E0F5838882E022A31253512212537B
:10535300562822E0F8851882851983E022A3A3E06A
:10536300FA8518828519831262C2A3A3A322850C2E
:1053730082850D83A385820E85830F125351FAA371
:10538300E034008A82F583E02212539022F0850CE8
:1053930082850D83A322125390A3A3A3A3A3221256
:1053A30053BEF583888222F0850E82850F83E00445
:1053B300F022E8F0A3E91253BEC822126A9FF8A3B1
:1053C300E02274F4120AE68A088B09EA12546AA3EB
:1053D300A3F0EA1313543F125462A3A3F0EAC413D5
:1053E3001312546A1254747409780A1213861254ED
:1053F30059A3A3A3A3A3A3F0EB12545B1254737496
:105403000A780A121386E50A5401C0E0EC12628D91
:105413003DF583D0E0125478740B780A1213861288
:105423005459125471740C780A121386125459A3E6
:10543300125471740D780A121386E50A5401C0E000
:10544300EC2424F582E43DF583D0E0F0740E780873
:10545300121386023688E50A54018C828D83225406
:105463000F8C828D83A32254038C828D8322A3A36A
:10547300A3A3A3A3A3F08A0A8B0B22C082C08379C0
:10548300008A828B83A3A3A3A3A3A3E09016A760A0
:105493000EE070238A828B83A3A3E0701A8016E048
:1054A30060158A828B83125F749016B0E06A700372
:1054B300A3E06B600279018003125F7DD083D08209
:1054C3000210C774F2120AE68A0A8B0B890CECFEEF
:1054D300EDFF8A828B83125633122368850A8285F5
:1054E3000B83A3A3125627E0F9EA8E828F83A3A32B
:1054F300A3A3A3A3A3A3A3125652125627A3A3E0C5
:10550300F9EAF8125D97E8125652A3A3E0C0E0EE61
:105513002411F582E43FF583D0E0125659A3A3A3E7
:10552300E0C0E0EE124C003FF583D0E01256417428
:105533000812564CA3A3A3E06016E50A2408F8E476
:10554300350BF9EE2413125A46125641E02408F0A3
:105553008E828F83A3A3A3A3A3A3A3A3E060148E2C
:10556300828F83A3125616EE2415125A46125C79C3
:105573002408F08E828F83A3A3A3A3A3E0601F8ECE
:10558300828F83A3858208858309E0F8E50A28F5DD
:1055930082E4350B12560BA3A3125C7904F0EEFAE6
:1055A300EFFB12236EE9F50D70598E828F83A3A34F
:1055B300A3125A3DA37014E0F8E50A28FAE4350B68
:1055C300FBEE241D126422E50C8028125616E824F3
:1055D3000EF8500109EE241D125DB89016A8E0F9EB
:1055E30012224EE9F8850882850983E0F9E50CC3A8
:1055F3009924F2C398C0E0EE2417F582E43FF583C3
:10560300D0E0F0A90D02440DF583E08E828F83A3D1
:10561300A3A322858208858309E0F8E50A28F8E434
:10562300350BF922E0FA850A82850B83A3A3A32213
:10563300E0FAA3E0F8E4C8F9EA28E439FB221256B9
:1056430046A322F08E828F832212649FA3A322F0AB
:10565300A3E912565922F0850A82850B83A3A3A3DB
:10566300A322C082C0837A307B1779E2121DD47AD9
:10567300307B170254BFC082C0839016B00254BC63
:10568300C082C0839016B30254BCC082C083794ADF
:10569300121DD40254BF74F6120AE6901738E0FEC6
:1056A30004F0EEF91223208B09EA450970EDEE6050
:1056B300EAF902584674F2120AE6EAFEEBFF8C0896
:1056C3008D09890A12245E740E1213FBE0F9740F1C
:1056D3001213FBE0F8EA4B7012E8701BA90AAC083E
:1056E300AD09EEFAEFFB12247C8071E86017E970D4
:1056F300068A828B83E4F07401687060E990173B3B
:105703007027E48021E97054EA2402F582E41257F9
:1057130069A80A28F8E4340013E813F0703E8A827B
:105723008B83A3A37401F08033E004F09018D1E0DD
:10573300F890173BE0C3984023E4F09016B3E06E73
:105743007003A3E06F7015EEFAEFFB7901121F727D
:105753007A017B0090170AE0F9121A9E02440D7435
:10576300B32AF582740A3BF583E02274F4120AE645
:105773008A088B098C0A8D0B9082F378081211EE3C
:10578300700E7A017B0090170AE0F912198A8031B2
:105793009018BE780812139512342B6018780812EB
:1057A30010DF7A017B0090170AE0F9121A92740451
:1057B300121115800C7A017B0090170AE0F9121A76
:1057C3009E023691C082C0839018C202415AC082A1
:1057D300C0839018C402415A74F6120AE67E00751B
:1057E300089C75091678081210E77C6E7D007A21F3
:1057F3007B00121A567402121115E9640A70027EB4
:1058030001121ED0E9640A7004EED2E1FE9003197E
:105813001262DF600F125993122907E9640A7004B8
:10582300EED2E3FE1220DAE9640A7004EED2E4FE5B
:10583300121D56E9640A7004EED2E5FEEEF9800308
:105843001211157F02020DF874F6120AE61218F40B
:1058530075089C75091678081210E775086E7509A6
:105863000078081210E77C007D007A217B00121A71
:10587300627404121115121ED690031B1262DF60AC
:10588300061259931229071220E0121D6880B4747E
:10589300F6120AE674FF1211AD7E0075089C7509B5
:1058A3001678081210E77C6E7D007A217B00121AAD
:1058B300567402121115E960030259777808121021
:1058C300E775086E8E0978081210E77C007D007A70
:1058D300217B00121A687404121115E9600302593E
:1058E300779016B0E064FE7003A3E0F470030259EE
:1058F300777E019016BFE064086005E06404706F72
:10590300851882851983EE125A837942121DDA7A39
:10591300C77B167943121DDA7AC47B167947121DA9
:10592300DA7AB57B16794A121DDA7AB37B16794B8C
:10593300121DDA7ABD7B167950121DDA7AB07B1606
:105943007953121DDA7AC57B167954121DDA7AB2AD
:105953007B1679E1121DDA9016AAE0A2E35004D275
:10596300F08002C2F0125A797952121DDA800512C0
:1059730018F47E00121EC490031D1262DF6006122B
:1059830059931229071220ECEEF97401025843A32C
:105993001262C32274F6120AE6E9FEA2E0502675EB
:1059A300089C75091678081210E775086E750900CA
:1059B30078081210E77C007D007A217B00121A62BE
:1059C3007404121115EEA2E35003121ECAEEA2E2F2
:1059D300500E90031F1262DF6006125993122907BB
:1059E30002584674F7120AE674ED1211ADE9FE90FF
:1059F3001709F0AC18AD19901950E0F97A0D7B171F
:105A03001222D874121213FBEE125A24AA18AB19DD
:105A13001222D27A0D7B177945121DDA74130247CD
:105A2300F1F0901950E0F97C0D7D17222415F582D1
:105A3300E4221263993509F58322A3A3A3E08E829E
:105A43008F8322F582E43FF583E8F0A3E922EE1287
:105A530063993FF583125A5C22E0F8A3E0F9888248
:105A6300898322125A6A22F0EE125A70222413F505
:105A730082E43FF58322A2F0E433851882851983FB
:105A8300F0AA18AB192274F4120AE68A088B097A71
:105A9300007B0490170AE0F9121A9E125B459016D8
:105AA300BF7409F012237A8A0A8B0BAC0AAD0B126E
:105AB3003AF6125F7D121AC2E96401706B7A0F7BAA
:105AC300001219488A0A8B0BAE0AAF0BEE4F6058CF
:105AD3008E828F837402F0E5081264A83509125B85
:105AE3002EFC88828983A3A3E0FBEC8E828F83A3A1
:105AF300A312642988828983125A3D125B36FAA362
:105B0300E0FB794A121DDA850882850983A3A3A3E2
:105B1300A3A3A3E070069015397405F0EEFAEFFB2A
:105B230090170AE0F9121954023691F583125A5C60
