:020000040000FA
:06000000020B02020244A3
:03002B000208F2D6
:030033000204AA1A
:030053000201792E
:03006B0002045B31
:03007B0002048DEF
:100083000201D80100F0FF0700080000FFFF000095
:1000930003040000000300010020FD00080D140DFF
:1000A300000000000E0D1A0D0E0D260D00000000BD
:1000B3000E0D1A0D000000000000000000000000FB
:1000C300000000000000000000000000440D4A0D85
:1000D300500D920D00000000000000004482408299
:1000E3003C82388220821C82CC828C827C82788201
:1000F30074825C8201AACDABCDAB0101D88201DE53
:10010300820206FFFF010400000017000000E8035D
:100113000000FFFF7A170188130000E80300006462
:10012300006400B801A0BB0D00A0BB0D00020202D9
:1001330007040101051E02051E020A0A010108093E
:10014300080103B80B02803E0102FEFFE8030A0523
:100153000001FFFF010A011401E00105030101FF92
:100163000F10FEFF712700000000A726000000000B
:10017300FF000000FF00C0E074F11204BCA2AFE472
:1001830033F509D2AF85A708AFA1EF5508FE741068
:100193005E6006120DFE75A1EF74085E6008120E14
:1001A3000475A1F78024EFA2E092F0E508A2E082B3
:1001B300F05017906198E0F89003C4E0C398A2D27E
:1001C30065D0335002E8F075A1FEE509A2E092AFD5
:1001D3007F0202051BC0E074F21204BCA2AFE43339
:1001E300FED2AF9061A4E0F8759B00E591585408E6
:1001F30060087591F7120E528023E59158541060F0
:10020300087591EF120E588014E591A2E092F0E880
:10021300A2E082F05007E0C2E0F0120FA29061A3C7
:10022300E0F8E5E9585404600E120F7875E9FB9085
:100233006193E0A2E640F2EEA2E092AF7F010205F5
:100243001BC0E074F21204BCA2AFE433FED2AF9041
:1002530061A5E0F8E5BF585404600675BFFB120FB3
:10026300BA80D4C3E498F8E499F91202A78026C3AC
:10027300E49AFAE49BFBE920E7E91202A7E498F881
:10028300E499F922C3E498F8E499F91202A7E498EF
:10029300F8E499F9C3E49AFAE49BFB22EB20E7CF55
:1002A300E920E7E0B90010BB0008E88AF084F8AA67
:1002B300F022E4FBC8FA22EB70227B10C833C8C9D2
:1002C30033C9335007C39AC3DBF280069A50012A1D
:1002D300DBEAC833F4C8C933F4C9FA2275F008E479
:1002E300C833C8C933C933C99AC99B5004C92AC979
:1002F3003BD5F0ECFBC833F4C8E4C9FA220808087C
:10030300EAC0E0EBC0E086F0E7A4FA180986F0E75C
:10031300A42AFA180986F0E7A42AFA180986F0E74E
:10032300A42AFA1986F0E7A4FBE5F02AFA1908864D
:10033300F0E7A42BFBE5F03AFA190886F0E7A42BC3
:10034300FBE5F03AFA18180986F0E7A4C5F02BFB91
:10035300E43AFA1908E7C5F0C6A426F6E5F03BFB34
:10036300E43AFA1886F0E7A4F6E5F00826F6E43B4B
:1003730008F6E43A08F6D0E0FBD0E0FA22E4CFC076
:10038300E0E4CEC0E0E4CDC0E0E4CCC0E075F02012
:10039300E626F608E633F608E633F608E633F618FB
:1003A3001818EC33FCED33FDEE33FEEF33FFC3ECF3
:1003B3009709ED9709EE9709EF97191919400FFF60
:1003C300EC97FC09ED97FD09EE97FE191906D5F098
:1003D300BFECF709EDF709EEF709EFF7191919D093
:1003E300E0FCD0E0FDD0E0FED0E0FF222518C5827E
:1003F300C0E0E51934FFC583C0E0E518C395822446
:10040300F810AF08858319858218800885831985BC
:100413008218D2AFCEF0A3E520F0A37808E608F067
:10042300A3DEFAEFF0A3E58124FAF8E608F0A3E6E9
:1004330008F0A3E608F0A30808E608F0A3E608F02E
:10044300A315811581D0E0FED0E0F8158115811543
:1004530081E8C0E0EEC0E022C0E074F21204BCA266
:10046300AFE433FED2AFE589A2E0400CE589A2E117
:100473004006E589A2E25003120C3C758900C2C50F
:10048300EEA2E092AF7F0102051BC0E0C0D0E8C03E
:10049300E0A8A8D2AF758A00C2EBE8A2E792AFD07A
:1004A300E0F8D0D0D0E032C0E0C0D0E8C0E0A8A8E7
:1004B300D2AF758B00C2E880E1C0D02518C582C0D9
:1004C300E0E51934FFC583C0E0E518C3958224F342
:1004D30010AF088583198582188008858319858262
:1004E30018D2AFC8F0A3E9F0A3EAF0A3EBF0A37925
:1004F30008E709F0A3D8FAECF0A3EDF0A3EEF0A31C
:10050300EFF0A3D0E0F0A3D0E0F0A3D0E0F0A3E5B8
:1005130020F0A3E5F0F0A322851983851882E0C0BB
:10052300E0A3E0F9A3E0FAA3E0FBA37808E0F60870
:10053300A3DFFAE0FCA3E0FDA3E0FEA3E0FFA3E05A
:10054300C0E0A3E0C0E0A3E0F5D0A3E0F520A3E082
:10055300A3F5F010AF088583198582188008858379
:1005630019858218D2AFD082D083D0E0F8D0E032A0
:10057300120B7CB900030205B2E49003017875798C
:10058300188002F0A3D8FCD9FA7A757B1A900086FA
:1005930078F479018015E493A3AD82AE838A828BCC
:1005A30083F0A3AA82AB838D828E83D8E9D9E775C2
:1005B30082DE7583B274051208837582A275832463
:1005C300740012088375F0108E1A8F1B85821F85A5
:1005D300831E851882851983E0CEA3E0CF851F8211
:1005E300851E83EBC9EAC8EDCBECCAC3E833C8E97F
:1005F30033C9EA33CAEB33CBC3EA9EF51DEB9FF550
:100603001CB35004AB1CAA1DEC33CCED33CDD5F099
:10061300DAAE1AAF1B22D083D082ECC0E0EDC0E08B
:10062300E493A3FCE493A3FDED4C600D1206F1ECFF
:1006330024FFFCED34FFFD80EFE493A3FCE493A3DC
:10064300FDED4C600D12078EEC24FFFCED34FFFD35
:1006530080EFD0E0FDD0E0FCE493A3C0E0E493C0DE
:10066300E022851983851882E0A3FEE0A3F52078B4
:1006730008E0A3F608DFFAE0A3FFE0A3C0E0E0A3ED
:10068300C0E0E0A3C0E0E0A3C0E0E0A3C0E010AF9F
:10069300088582188583198008858218858319D275
:1006A300AFD083D082020889D083D082E9C0E0E44E
:1006B30093A3C386F0C5F095F0F908E493A386F0FD
:1006C300C5F095F0700BE493A3C3994005E904804A
:1006D30002A3E475F002A42582F582E5F03583F5E3
:1006E30083D0E0F9E493A3C0E0E493C0E022C0E048
:1006F300C3E49396087401939618400FE4936670CD
:100703000808740193661870007019A3A3C3E493D7
:1007130096087401939618A3A3400DD0E0D0E0D0BF
:10072300E0020655A3A3A3A3A3A3D0E022740480ED
:100733000474028000CCC0E0EDC0E0E518C39CCC9B
:10074300AD1950011D10AF068C188D1980068C1839
:100753008D19D2AF120805D0E0FDD0E0FC2274025F
:100763008000CCC0E0EDC0E0E518C39CCCAD1950CF
:10077300011D10AF068C188D1980068C188D19D2A7
:10078300AF1207E3D0E0FDD0E0FC22C0E0C0F08868
:10079300F0E4936670080874019366187000A8F07B
:1007A300A3A3700BD0F0D0E0D0E0D0E0020655A3B5
:1007B300A3D0F0D0E022D083D082CCC0E0E493A3D6
:1007C30060061208641470FAE493A3600612096FBA
:1007D3001470FAD0E0FCE493A3C0E0E493C0E022F9
:1007E300CAC0E0E493A3C582CCC582C583CDC583CB
:1007F300F0A3C582CCC582C583CDC583DAE5D0E03D
:10080300CA22CAC0E0E0A3C582CCC582C583CDC5D8
:1008130083F0A3C582CCC582C583CDC583DAE6D078
:10082300E0CA22C008C3E096F50808A3E096420890
:1008330008A3E096420808A3E09645087001D3D0C8
:1008430008227009080808226016181818C6C3334E
:10085300C608C633C608C633C608C633C6D5E0EADB
:1008630022C0E0E493A3D39C5010E493A3C39C4021
:100873000AD0E0D0E0D0E00207D6A3A3A3D0E022C1
:10088300C09FF59FE473D09F22D083D082C09FE4A2
:1008930093C0E0740193C0E0740293F59F22740443
:1008A300800A74038006740280027401C0E0F404B9
:1008B3001208D7D0E0120B3F2200C0D0251810AF8A
:1008C30008F518500C05198008F51850020519D2BF
:1008D300AFD0D0222518F58210AF08F518400C15BB
:1008E300198008F51840021519D2AF85198322C063
:1008F300E0C0D0E8C0E0A8A8D2AFC2C7E8A2E792A0
:10090300AFD0E0F8D0D0D0E032BB0102E722C08202
:10091300C08389828A83BB0003E08002E493D0838F
:10092300D082226016080808C6C313C618C613C6A9
:1009330018C613C618C613C6D5E0EA222518F8E46C
:100943003519F9222518FAE43519FB222518FCE498
:100953003519FD22C3E0C696F608A3E0C696F6084D
:10096300A3E0C696F608A3E0C696F622C0E0E49399
:10097300A36C7009D0E0D0E0D0E00207D6A3A3D0E7
:10098300E022251810AF08F518400C15198008F55A
:100993001840021519D2AF22E066701008A3E06672
:1009A300700A08A3E066700408A3E06622C3E09619
:1009B30008A3E09608A3E09608A3E096A2D265D028
:1009C3003322E76670100809E766700A0809E766CC
:1009D30070040809E76622C3E096F008A3E096F0E6
:1009E30008A3E096F008A3E096F022C3E697F60882
:1009F30009E697F60809E697F60809E697F622C38B
:100A0300E49396087401939608740293960874030A
:100A1300939622E627F60809E637F60809E637F63D
:100A23000809E637F622700422600D18C6C333C6E0
:100A330008C633C6D5E0F41822E493F6087401938C
:100A4300F608740293F608740393F622E657F60841
:100A530009E657F60809E657F60809E657F622E0CD
:100A630056F608A3E056F608A3E056F608A3E056A8
:100A7300F622E056F008A3E056F008A3E056F0088B
:100A8300A3E056F022E026F608A3E036F608A3E03A
:100A930036F608A3E036F622E647F60809E647F6F7
:100AA3000809E647F60809E647F622E026F008A318
:100AB300E036F008A3E036F008A3E036F022E4C302
:100AC30096F608E496F608E496F608E496F622C647
:100AD300F4C608C6F4C608C6F4C608C6F4C622C3DC
:100AE300E7960809E7960809E7960809E79622C3F7
:100AF300E09608A3E09608A3E09608A3E096227583
:100B0300D00075813F75180175190300020573E65E
:100B1300F008A3E6F008A3E6F008A3E6F022600CD1
:100B230008C6C313C618C613C6D5E0F422E0F608F8
:100B3300A3E0F608A3E0F608A3E0F622CAC0E0E6C5
:100B4300F0A308DAFAD0E0FA22E8F0A3E9F0A3EA86
:100B5300F0A3EBF022E0F8A3E0F9A3E0FAA3E0FBB3
:100B630022EAF0A3EBF0A3ECF0A3EDF022E0FAA36A
:100B7300E0FBA3E0FCA3E0FD22E5C754F84401F544
:100B8300C77901222518F582E43519F58322C2AF0E
:100B930075D69F0200002212088C84DE0412088C92
:100BA30014DF0412088CABDF0412088CF7DF041285
:100BB300088C28E00412088C5FE00412088CF0E132
:100BC3000412088CBAE20412088C94E30412088C11
:100BD3001BB80512088C20B80512088C52B80512F0
:100BE300088CE5B80512088CD4FF0412088CFDFFAD
:100BF3000112088CECFF0412088C64C00512088CE7
:100C030074C00512088C86C00512088CFDC005123D
:100C1300088CFAFE0212088C7DFF0212088CE3FF97
:100C23000212088C95AE0512088CC9AE0512088C09
:100C330032AF0512088C16B00512088C70B005127D
:100C4300088CE8970512088CF6970512088C6F98A4
:100C53000512088C69990512088C3F9B0512088CB4
:100C63002EC20512088CF7FF0112088CFAFF01123D
:100C7300088CA3B60512088CB3B60512088C6FB79F
:100C83000512088C7EB70512088C1B9A0412088C77
:100C93007B9A0412088C359B0412088CDF9C041287
:100CA300088C7F9D0412088CC59D0412088C309E0D
:100CB3000412088C9E9E0412088CDF9E0412088C7A
:100CC3004C9F0412088C8AA00412088C9FA0041263
:100CD300088CC5A00412088C32A10412088CA3A1AD
:100CE3000412088C23A20412088C94A20412088C08
:100CF300BEA20412088C86A40412088CBEA504129A
:100D0300088CE1A60412088C73A70412088CE3A7CD
:100D13000412088C49A90412088C07AB0412088C2E
:100D2300C1AC0412088CBAAD0412088C67B104126A
:100D3300088C85B30412088CBAB00512088C28B14C
:100D43000512088C4AB20512088C4DB20512088CA4
:100D530053B20512088C6BB20512088C8CA70512CE
:100D6300088CCBA70512088C08A90512088CDE9EF7
:100D73000512088C829F0512088C31A00512088C7D
:100D8300F5A00512088CB0A10512088CD2B4051287
:100D9300088C2DB50512088C207A0012088C4C7A29
:100DA3000012088CBD7C0012088CFD7C0012088C9C
:100DB3003D7D0012088C517D0012088C6A7D001263
:100DC300088C5B7E0012088C007F0012088C147F55
:100DD3000012088CF6BA0512088C1ABB0512088C8F
:100DE30033BB0512088C65BB0512088C95BB051235
:100DF300088CC2BB0512088C24BC0512088C33BCBA
:100E03000512088C3DBC0512088C4ABC0512088CDF
:100E1300E7A40512088C07A50512088C46A5051240
:100E2300088C61A50512088C80A50512088CE6A51F
:100E33000512088CEFA50512088C4CA60512088C28
:100E43005BA60512088C7FA60512088C40A7051225
:100E5300088C4DA70512088C5EA70512088CA3C148
:100E63000512088CBBC10512088CE7C10512088C5A
:100E7300D28B0512088C2C8D0512088C3A8D051225
:100E8300088C4D8D0512088C628D0512088C778DA8
:100E93000512088C8A8D0512088CFE8D0512088CAC
:100EA300638E0512088C058F0512088CC98F0512F5
:100EB300088CD98F0512088CE88F0512088CCBBFDC
:100EC3000512088CEFBF0512088C17C00512088C99
:100ED3003FC00512088C0EAA0512088C35AA05120C
:100EE300088C53AA0512088CC6AA0512088C14A2F2
:100EF3000512088C2DA20512088C39A20512088C44
:100F03004DA20512088C6BA20512088C75A205125E
:100F1300088C7FA20512088C92A20512088C18A3D4
:100F23000512088C8DA30512088CBCA30512088C2E
:100F33000AA40512088C59A40512088C74A405127E
:100F4300088C7EA40512088C8FA40512088CD2A4E9
:100F53000512088C08C10512088C1EEF0412088CB8
:100F630048EF0412088C65EF0412088C78EF041222
:100F7300088C8EEF0412088CECEF0412088C24F01A
:100F83000412088C18F40412088C5DF50412088C02
:100F930090F50412088CF3F50412088C53F704122D
:100FA300088C7BF70412088C90F70412088CA0F7C6
:100FB3000412088CE4F70412088C3FF80412088C1E
:100FC3004FF80412088C94BD0512088CAEBD0512AF
:100FD300088CD6BD0512088CEFBD0512088C13BE14
:100FE3000512088C31BE0512088C48BE0512088C08
:100FF30076BE0512088C91BE0512088CEAC1051253
:10100300088C5CFC0312088C6CFC0312088C71FDC9
:101013000312088CA3FD0312088CD3FD0312088C62
:10102300F6FD0312088C0DFE0312088C47FE031213
:10103300088CACFE0312088CEEFE0312088C2DFF05
:101043000312088C5EFF0312088C89FF0312088CBD
:1010530029FF0112088C3BFF0112088C79FF011252
:10106300088C87FF0112088C92B90512088CB2B95B
:101073000512088CC6BA0512088CC9BA0512088C69
:10108300287F0012088C5E7F0012088C787F001284
:10109300088CBA7F0012088CD17F0012088C008064
:1010A3000512088C0A800512088C44800512088CEE
:1010B300AD800512088CCA800512088C6C8105125C
:1010C300088C75810512088CBA810512088CE3819E
:1010D3000512088CF0810512088C61820512088CB8
:1010E300EC820512088C3A830512088C788305126A
:1010F300088CDD830512088C00840512088C778424
:101103000512088CCE840512088C09850512088CFB
:101113003E850512088C50850512088C62850512E0
:10112300088C81850512088C8A850512088C4586F2
:101133000512088C91860512088CCF860512088C3F
:1011430054BC0512088C7FFF0412088C5FAC051297
:10115300088C95AC0512088CDDAC0512088C36AEF4
:101163000512088C6A660012088C8E670012088CC0
:10117300C8670012088C72690012088C9C690012FF
:10118300088C116C0012088C516C0012088CE76DEE
:101193000012088C846E0012088CD66E0012088C24
:1011A300796F0012088CB16F0012088CF36F001274
:1011B300088C62710012088CB0720012088CE17402
:1011C3000012088C0F750012088C36750012088CFB
:1011D3003F750012088C8F750012088C217600125F
:1011E300088C50790012088CD3790012088CDB7FAD
:1011F3000012088CF17F0012088C21900512088CD4
:1012030037900512088CDB900512088C1A91051291
:10121300088C37910512088C68910512088CB591DA
:101223000512088CE8910512088C23920512088C8C
:1012330018940512088CC4BE0512088C23BF05122E
:10124300088C61BF0512088CA2BF0512088C0080B0
:101253000412088C2F800412088CAB800412088CB3
:10126300F9810412088CDF820412088C538404125F
:10127300088C78840412088CCA840412088C4C8568
:101283000412088C8D850412088CA0850412088C26
:10129300F7850412088CB4860412088C2087041284
:1012A300088C4A870412088C93870412088C2789B8
:1012B3000412088C008A0412088C498B0412088CCF
:1012C3001C8C0412088CA48C0412088CE78C041266
:1012D300088C018D0412088C488D0412088C688DCB
:1012E3000412088C278E0412088C4A8F0412088C6F
:1012F300A48F0412088CE88F0412088CE490041263
:10130300088C60930412088C7F930412088CEB936F
:101313000412088C10940412088C8D940412088C07
:1013230053950412088C90950412088C09960412A4
:10133300088CFD960412088C00970412088C0A97F7
:101343000412088C14970412088C27970412088C33
:10135300A3970412088CD9970412088CEC970412F3
:10136300088C18980412088C3F980412088C639810
:101373000412088C9E980412088C10990412088C8D
:1013830038990412088C42990412088C7E9904122D
:10139300088C98990412088CD2990412088CE89945
:1013A3000412088C53C10512088C6BC10512088CFA
:1013B300FB7F0012088C7FF80412088CCEF804120D
:1013C300088C6EFA0412088C29FC0412088C6BFC3E
:1013D3000412088C54FD0412088C5EFE0412088C5F
:1013E30080FE0412088CCAFE0412088C4BFF041200
:1013F300088CF3E20212088C16E30212088C75E4DF
:101403000212088CBEE40212088C18E50212088C42
:101413007EE50212088C81E50212088CCDE50212EA
:10142300088C47E60212088CDAE60212088CDDE625
:101433000212088C69E70212088CACE70212088CCE
:101443000DEC0212088C9FED0212088CE1ED0212E2
:10145300088C55F10212088C7CF20212088C61F39D
:101463000212088CEFF30212088C17F40212088C94
:10147300D9F50212088CF6F70212088CF6F802125C
:10148300088C84F90212088C85FA0212088C2FFC4E
:101493000212088C32FD0212088C98FD0212088C8D
:1014A30044FE0212088CD0B30412088C70B40412E8
:1014B300088CDAB40412088CF3B40412088CAFB5A8
:1014C3000412088C0EB60412088C12B70412088C8E
:1014D30027BA0412088C59BB0412088CDABB041215
:1014E300088CD9BD0412088C86BE0412088C2CBF4C
:1014F3000412088C11C00412088CDCC10412088C7D
:1015030044C30412088C54C40412088CF6C4041295
:10151300088C15C60412088C9BDA0312088C0FDBA7
:101523000312088C57DB0312088C95DB0312088C1B
:10153300E4DB0312088C2EDC0312088C66DC031236
:10154300088CE4DC0312088C3EDD0312088C9ADE5F
:101553000312088C29DF0312088C40E00312088C65
:1015630068E00312088CAEE10312088CBFE103129A
:10157300088CD7E10312088CE1E20312088CABE379
:101583000312088CB8E40312088CDCE40312088C01
:10159300F3E40312088C14E50312088C36E50312F6
:1015A300088C53E50312088C2FE60312088C87E698
:1015B3000312088C19E90312088C68E90312088CDA
:1015C30087E90312088C66EA0312088C9CEA03126B
:1015D300088CB4EB0312088C31EC0312088C9EECDC
:1015E3000312088CDAEC0312088C43ED0312088C07
:1015F300FDED0312088CBBEF0312088CBCF0031241
:10160300088C41F20312088C22F40312088C85F62D
:101613000312088C2BF80312088CF9F80312088CB8
:101623005FF90312088C76F90312088C66FA031229
:10163300088C52FB0312088CBFFB0312088CA49B7B
:101643000512088C499D0512088C069E0512088C0C
:101653006A9E0512088C25940512088C4394051282
:10166300088C87940512088CAD940512088CD394CA
:101673000512088CEB940512088C03950512088C4F
:1016830066950512088CA8950512088CCA96051252
:10169300088CD3960512088CDC960512088CE59607
:1016A3000512088CEF960512088CFB860512088C30
:1016B300168B0512088C248B0512088C298B0512B6
:1016C300088C5FB30512088CCBFF0112088CE1FF75
:1016D3000312088C00800312088C33800312088CD9
:1016E3009A800312088C26810312088CCD81031281
:1016F300088C15820312088C3A820312088C5382D9
:101703000312088C79820312088C9B820312088CC3
:10171300D9820312088C28830312088C5183031285
:10172300088CB0830312088C89840312088C3F85CC
:101733000312088C9D850312088C63860312088CA0
:10174300AD860312088C04870312088C6F8703127B
:10175300088CAD870312088C03880312088C1F883A
:101763000312088C10DA0412088C598A0312088CAD
:101773009F8B0312088CCB8B0312088CFF8B0312F5
:10178300088C208C0312088C2F8C0312088C3A8C43
:101793000312088CEA8C0312088C598D0312088CEF
:1017A300068E0312088C428E0312088C008F0312DC
:1017B300088C0D900312088C5A900312088CE99040
:1017C3000312088C43910312088C5EDE0412088C0A
:1017D30017940312088C71950312088CBD98031299
:1017E300088C9B990312088C729A0312088C9B9A9B
:1017F3000312088C0C9B0312088CA29B0312088C07
:10180300069C0312088CF59C0312088C1A9D031284
:10181300088C7D9E0312088C9B9E0312088CAE9E3F
:101823000312088C1C9F0312088C20A00312088C3F
:101833002DA00312088C36A00312088C30A20312C9
:10184300088C56A30312088C66A30312088C5CA4AD
:101853000312088CD8A40312088C11A50312088C58
:101863001FA60312088C5BA60312088C36A803126A
:10187300088C17AC0312088C21AC0312088C35AC0E
:101883000312088C3FAC0312088C49AC0312088C7A
:1018930053AC0312088C6CAC0312088C76AC0312A5
:1018A300088CE6AC0312088CF1AC0312088C19AD5A
:1018B3000312088C24AD0312088C72AD0312088C3A
:1018C3007CAD0312088C87AD0312088CABAD0312F9
:1018D300088CCFAD0312088C2CAE0312088C72AEA9
:1018E3000312088C8EAE0312088C15AF0312088CFA
:1018F3004CAF0312088C8BAF0312088CD8AF0312C2
:10190300088C5AB00312088C06B10312088CE2B299
:101913000312088C50B30312088C7CB40312088C96
:10192300A2B40312088CFBB50312088C53B903123B
:10193300088C8CBB0312088C6ABD0312088C03BE8F
:101943000312088C28C00312088CDCC00312088C15
:1019530015C10312088C7BC10312088C85C10312C5
:10196300088CAFC30312088CBAC40312088C02C5D7
:101973000312088CB6C50312088C59C70312088CCE
:10198300E0C80312088C00C90312088C53C9031260
:10199300088C53CA0312088C7BCA0312088CDECA54
:1019A3000312088CC1CB0312088C33CC0312088CAE
:1019B30045CD0312088CC9CD0312088CC7CE031280
:1019C300088C5DD10312088C7CD10312088CC7D21A
:1019D3000312088C95D40312088CE9D40312088CE3
:1019E300A1D50312088C51D60312088CAAD6031270
:1019F300088C6FD70312088C05D80312088C6CD897
:101A03000312088CAED80312088CDFD80312088C9B
:101A13003FDA0312088C00800212088C3280021213
:101A2300088C6B800212088C56820212088C3A834F
:101A33000212088C92830212088CD5840212088C3D
:101A430021850212088C4D880212088CC18B021268
:101A5300088C098D0212088C9F8D0212088CAB8DA5
:101A63000212088CEB8D0212088C808F0212088CF4
:101A730074900212088C9E900212088CF590021248
:101A8300088C4E910212088CBF910212088CF493B9
:101A93000212088C8B950212088C5F960212088C36
:101AA300A6970212088CFE990212088CCF9C021290
:101AB300088CDE9C0212088C629D0212088C179E11
:101AC3000212088C5A9E0212088CB89E0212088CCD
:101AD300D49E0212088C069F0212088C459F0212A4
:101AE300088C2BA00212088CDAA00212088C60A3C7
:101AF3000212088C96A40212088C7DA50212088C8F
:101B0300FDA50212088C0AAA0212088C48AA021226
:101B1300088CAFAA0212088CE2AA0212088C75ABD9
:101B23000212088CA8AB0212088C43AC0212088C78
:101B330091AC0212088C64AD0212088C2BAE021217
:101B4300088CC9AE0212088CD3B10212088CE7B21A
:101B53000212088C8DB60212088C8FB70212088C01
:101B630092B70212088CC1B70212088CC0B90212D4
:101B7300088C99BA0212088CBEBA0212088CDABB1E
:101B83000212088C92BC0212088C49BE0212088C05
:101B93006EBE0212088CA8BE0212088C41BF02124C
:101BA300088C3CC00212088CF2C00212088C03C3DA
:101BB3000212088C6EC30212088CB6C30212088C80
:101BC30011C40212088CE9C70212088CDEC8021283
:101BD300088CD8C90212088C55CA0212088C27CB6C
:101BE3000212088C28CD0212088C3CCD0212088CFC
:101BF30050CD0212088C86CD0212088CB6CD02128B
:101C0300088C40CF0212088C21D00212088C89D094
:101C13000212088CFDD00212088CADD10212088C7E
:101C2300DDD10212088C9CD20212088C39D3021225
:101C3300088C46D50212088C85D50212088CF7D57C
:101C43000212088C3CD70212088CEFD70212088CC0
:101C530023D80212088C3BD80212088CDED8021259
:101C6300088CCCDB0212088C97DD0212088CBBDDDA
:101C73000212088CD9DD0212088CADDE0212088C28
:101C8300D5E20212088CE3820112088C1B83011235
:101C9300088C34880112088C7A880112088CCC894C
:101CA3000112088C3E8A0112088CAD8B0112088C3C
:101CB300A18E0112088CC58F0112088CE3990112C1
:101CC300088C6C9A0112088CC99D0112088CD89E4D
:101CD3000112088C339F0112088C81A00112088C19
:101CE3006BA10112088C16A40112088C9CA5011289
:101CF300088C29A60112088C2CA60112088CA3A615
:101D03000112088CADA60112088CBAA60112088C28
:101D1300E5A60112088C90A70112088C80A8011275
:101D2300088C39A90112088C57A90112088C6CA9D7
:101D33000112088C95A90112088CC2A90112088C02
:101D430002AC0112088CCFAC0112088C14AD011245
:101D5300088C8BAD0112088C39AE0112088C6BAE66
:101D63000112088CB1AE0112088CE4AE0112088C8A
:101D730029AF0112088C7AAF0112088C7FAF0112D0
:101D8300088CD3AF0112088C3CB00112088C05B14A
:101D93000112088C50B10112088CB5B10112088CE4
:101DA30011B20112088CAFB20112088C1BB60112DA
:101DB300088C36B70112088CC2B80112088CE3BB39
:101DC3000112088C85BC0112088C96BF0112088C85
:101DD30051C00112088C99C00112088C48C201122B
:101DE300088C5CC20112088C66C20112088C70C296
:101DF3000112088C7CC20112088CA4C20112088C47
:101E030088C40112088CE1C40112088CEBC40112CE
:101E1300088CF5C40112088C6AC50112088CB5C57B
:101E23000112088CB6C60112088C0DC70112088C6A
:101E330017C80112088C60C80112088C10C901125E
:101E4300088CF3C90112088CC6CA0112088C18CC7D
:101E53000112088C3BCD0112088C33CE0112088C81
:101E63004BCE0112088C82CE0112088C8CCE01124B
:101E7300088C97CE0112088CB5CE0112088CFDCECA
:101E83000112088C5BCF0112088C82CF0112088CDF
:101E930094CF0112088C2FD00112088C64D0011248
:101EA300088C56D10112088C98D10112088C7CD26F
:101EB3000112088CA3D20112088C10D30112088CD2
:101EC30088D30112088C0CD50112088C39D6011263
:101ED300088C0ED70112088CD1D70112088C78D840
:101EE3000112088CBDD90112088C7BDA0112088C0F
:101EF300E7DA0112088CA3DB0112088CF4DB011270
:101F0300088C4EDC0112088C1FDD0112088C42DDA7
:101F13000112088C03DE0112088C25DE0112088CE5
:101F230086DE0112088CCEE00112088CD2E1011288
:101F3300088C89E20112088CAAE40112088CF4E4EB
:101F43000112088C3FE50112088C9AE50112088CF6
:101F530007E60112088C35E60112088C59E60112D6
:101F6300088C8EE60112088CBBE60112088C01E78F
:101F73000112088C55E70112088CA9E70112088C9D
:101F8300CCE80112088C6CEA0112088CB7EA011242
:101F9300088CE0EA0112088C73EB0112088CEBEB5E
:101FA3000112088CF9EB0112088C1DEC0112088C4C
:101FB30074EC0112088C8FEC0112088C4CED0112A9
:101FC300088C78ED0112088CBBED0112088C1EEE13
:101FD3000112088C0EF00112088C3BF00112088CE0
:101FE3002DF10112088C3AF20112088CF3F201125E
:101FF300088CD2F30112088C0AF40112088C2BF41A
:102003000112088C6FF40112088CD3F40112088CAE
:10201300DDF40112088CEDF40112088C24F5011291
:10202300088C1CF90112088C2AFB0112088C17FD7D
:102033000112088CAEFD0112088C50FE0112088CAF
:10204300052B0012088CAE2B0012088C852C001275
:10205300088C8D2D0012088CAD2D0012088CC52E16
:102063000012088C7F300012088CF2300012088CAA
:102073008F310012088CA6320012088C1333001221
:10208300088C4E330012088CA3330012088CDE3305
:102093000012088C2B340012088CBB340012088CFD
:1020A30048350012088C1D360012088CF6360012D3
:1020B300088C84370012088CA4370012088CD1379F
:1020C3000012088C02380012088CD5380012088CD4
:1020D300E5380012088C34390012088C413900129B
:1020E300088C4A390012088CBA390012088C1A3A43
:1020F3000012088C653A0012088C803A0012088C92
:10210300A73A0012088CC43A0012088CD03A001285
:10211300088C7B3C0012088C943C0012088C1D3DFB
:102123000012088C303D0012088C4F3D0012088CC1
:10213300EA3D0012088C5A3F0012088C014100123C
:10214300088C90410012088C93410012088C0342C2
:102153000012088C21420012088CC6420012088C1F
:1021630002430012088C05430012088CCB43001273
:10217300088C2E440012088C67440012088CDC443F
:102183000012088CFA440012088C48450012088C8F
:102193001D460012088C6B460012088CB9460012CB
:1021A300088C46470012088C7B470012088CB04706
:1021B3000012088CBE470012088C1D480012088CC0
:1021C30095480012088CD6480012088C2649001244
:1021D300088C51490012088C6B490012088C854900
:1021E3000012088C604A0012088C6A4A0012088C9C
:1021F300A54A0012088CB54A0012088C0D4B001238
:10220300088C214B0012088C574C0012088C6C4C24
:102213000012088CFA4C0012088C624D0012088CD4
:10222300154E0012088C204E0012088C704F0012BD
:10223300088C8C4F0012088CD84F0012088C475022
:102243000012088C80500012088C9A500012088CDF
:10225300FA500012088C99510012088CE4510012B4
:10226300088CA6540012088C5C550012088CEC559F
:102273000012088C34580012088C4C580012088C39
:102283004F580012088C5B580012088C6F580012CC
:10229300088C77580012088CAA580012088C9D5994
:1022A3000012088C285A0012088CBB5A0012088CA2
:1022B300345B0012088CF85B0012088C1A5C001265
:1022C300088CB35C0012088C105D0012088C135D3F
:1022D3000012088C8D5D0012088CD95E0012088CE8
:1022E300E45F0012088C6F600012088C74610012A6
:1022F300088C34620012088C65620012088C8B62B1
:102303000012088C94620012088CC2620012088CBE
:102313005A630012088C0F640012088C8064001248
:10232300088C27650012088CAE650012088CED65D9
:102333000012088C30660012088C1ED80412088C18
:10234300F0D70412088CBDD70412088C41D70412AD
:10235300088C24D70412088CB3D60412088C05D534
:102363000412088CBDD40412088CEED30412088C1A
:1023730063D20412088CD0D10412088CA0D10412A9
:10238300088C51D10412088CEBD00412088CAAD00B
:102393000412088CDCCF0412088C77CF0412088C4B
:1023A30016CF0412088CBCCE0412088C55CD04122F
:1023B300088CF2CC0412088C6ACC0412088C65CC0D
:1023C3000412088C4ECC0412088C13DE0412088C01
:1023D3001BCC0412088CDDDD0412088C60DD0412B2
:1023E300088CFBDC0412088CAADC0412088CD2DBF8
:1023F3000412088C42DB0412088CC1C90412088C35
:10240300BEC90412088CA5C90412088CF6DA04129A
:10241300088C9AC90412088C6FC90412088CACC7C3
:102423000412088C68C70412088C71DA0412088C31
:1024330054C70412088C88910312088CD3EE04123B
:10244300088C7AEE0412088C45EE0412088C10EE08
:102453000412088CDCED0412088C6EED0412088C57
:1024630056ED0412088C31ED0412088CFAE90412BB
:10247300088CCDE70412088CD4E50412088C60E5BF
:102483000412088C11E50412088CCBE40412088CA6
:102493002CDA0412088C6DE40412088C4A880300B9
:1024A300000080FBE4738F000100481B87000100DC
:1024B300461B350004000D1B25000200111B2600DE
:1024C3000200131B27000200151B280001001F1B1D
:1024D30029000100201B8400040006188600010067
:1024E300831A2A000100211B2B000100221B2C0050
:1024F3000100271B2D00080013182E000100281BC4
:102503002F000100291B300001002A1B31000100AC
:102513002B1B320001001B18330001001C18340070
:1025230001002C1B360001001D18380001002D1B73
:1025330039000100261B83000200441B63000100D5
:10254300281864000100231B65000100241B6D0093
:1025530001002918710008000B1866000100431BD5
:1025630043000100341B44000200351B45000100F9
:10257300371B46000200381B47000800201848009C
:1025830001003A1B4B0001003B1B04000100471BE9
:10259300A10001004B1B370001004A1B880001000A
:1025A300491B3C0001001E183D0001002E1B490081
:1025B30002003C1B670001002A184D0002003E1B6D
:1025C3004E000100401B4F000200411B3E00010072
:1025D300331B510001002F1B52000100301B53001D
:1025E3000100321B540001001F180000000000000E
:1025F300000136360101000102010001030100015F
:102603000401060605020000070100340801000F5B
:10261300090401010D0100FF0E080000170200006C
:10262300190100FF1A0100011B0100FE1C01000833
:102633001D0200001F010001200100012102000012
:102643002301000F240200002601000127010008D6
:10265300280200FF2A0100072B0102402C01000081
:102663002D0100012E0100012F0100FF30010B1D80
:10267300310800003A0100083B01000F3C01000152
:102683003D0100FF3E040000420400004604000038
:102693004A0400004E0400005204000056040000E7
:1026A3005A04000001037103010301030103010341
:1026B30001032203020301031003000300030003C9
:1026C3000003000300030003420300032403060383
:1026D3000003000304031203250323032503230339
:1026E3000403040300030003000344030003000383
:1026F300230300036503210035038103000305035E
:1027030000030003000300032503230303027102F4
:102713003001600211027002010202020202800211
:10272300100261023A004100630273027202620204
:1027330043020002130238000002000204021202E4
:102743000002000200020002040204023700370004
:102753003C0244020002390000020002650200024A
:102763003502810200020502820283020002030095
:102773007100300160001100700031022003500429
:1027830080001000610000001400630073007200F9
:102793006200430000001300060000000000040074
:1027A30012000000000000000000040004003700D5
:1027B30037003C02440000000000000000006500F8
:1027C30000003500810000000500000083000000C8
:1027D3000101710101010101110101013101010136
:1027E30001018001100161013B00140063017301C9
:1027F3007201620143010001130106013D0135002D
:10280300040112010001000100010001040104019F
:10281300330133013C014401320136000001000160
:102823006501000135008101000105018201830179
:10283300000103047104020460041104700402041F
:102843000204010402041004610400041404630478
:1028530073047204620443040004130406040004B2
:1028630000040404120400040004000400045104DE
:102873006400000400040004440400040004000491
:1028830000046504000435048104640005040004A5
:102893008304000436000100060000000F0000005E
:1028A3000000000000000000000003FFFF00000420
:1028B30003FFFF0000FFFF0FF4010005C404032022
:1028C300000100000B000000000000000003010FE6
:1028D30000000000000000000000000000000000F5
:1028E30000000000000000000000000000000000E5
:1028F300000013006A141F0070141F807614000078
:10290300CA140100CA140200161402801014030032
:102913001C14040022140480281405002E1406003D
:102923003A1431004C143300521434005814360056
:102933005E14FFFF00000A00000002000000040014
:10294300000008000000100000002000000040000C
:1029530000008000000000010000000200000004ED
:1029630000000008000000100000002000000040EC
:10297300000001C21C06F21C08EC1C0B101D10C841
:102983001902C81C05E01C07CE1C0CAA1C0DB61CA2
:1029930064B817FF000007ECFDFDFDECDCDCCCBCEC
:1029A300ACAC9C9C8C7C7C6C6C5C5C5C4C4C3C3C14
:1029B3002C2C1C1C03EAF5E5D5D5C5B5A595958545
:1029C30085757565655555454535352525151505B4
:1029D30000160F00000B150B020002220F3300003C
:1029E3000E0F667A6C636874696D65434F2E2C4CC9
:1029F30054645A6967426565416C6C69616E6365CD
:102A03003039D0D1D2D3D4D5D6D7D8D9DADBDCDD9F
:102A1300DEDF000119161816161823030000034DF4
:102A23004C4651181A250502303016181920231A5E
:102A33001C1E30003C40423A3F3F392F4730303074
:102A430017181921301B1D1F300C0E020B040B0A23
:102A53000708000F02040201010101090200BE047C
:102A63000AE80300000E000000E803010003000071
:102A7300007F0005030004091E100A0C100803FF61
:102A83000C280004040209033C0C050815081EE485
:102A9300F0A3F0A3F0A322122A92F02212582A24C0
:102AA30008123F3D22122AAC22E0F508E4F509F5AD
:102AB3000AF50B22E824FBF582E934FFF58322F5BE
:102AC30083122AC822E0F508A3E0F509221223287D
:102AD30074041208BC7F080206657401F09003DCDD
:102AE300E0640F2274091208BC7F04020665A3A3E5
:102AF300E024F5C39413229003FC125AA47A147BA6
:102B03000022C082C08390195474A0F0A37420F0F3
:102B1300A374B2F0A37420F09019587488F0A374CE
:102B230020F0A37482F0A37420F0A374BEF0A37406
:102B330020F0A374C4F0A37420F0A374B8F0A374BA
:102B430020F0A37470F0A37420F09019647494F0CF
:102B5300A37420F0A3749AF0A37420F0A3748EF0EE
:102B6300A37420F0A374CAF0A37420F09019751213
:102B73004B076006124F5612115E9019721243C230
:102B83007408F0A3E4F0A3F0901A1EF0901977F004
:102B93007C0BFDF97A787B191210B07C0B7D0079E0
:102BA300007A837B191210B002421A74F71203EFF2
:102BB30074F7120985EAFEEBFF1241787405122CB3
:102BC300737403F0122C48122C4F2430FCE43FFDA5
:102BD3008C828D83E088828983122C5C6008123496
:102BE300A974FFF0A3F0EE242EE43F1C1CFD8C829D
:102BF3008D83A3E0C0E08A828B8312417FD0E012F1
:102C03002C5C88828983124A2E24031255D3121214
:102C1300487408120B877403F09003F1120734749D
:102C23000212094F7903EEFAEFFB12225C740212CF
:102C330008BCE9F5087007EEFAEFFB12213CA9087E
:102C430074090234B5EE2402FAE43F22FB8A828B34
:102C530083122C6B124617EE22124A5A122C6B1255
:102C630046178C828D83E0221244D28A828B832280
:102C7300F0A3E4F0122C7B22EE240DF582E43FF561
:102C8300832274F01203EFEAFEEBFF8C0C8D0D89A7
:102C93000B122C481244C97410120B87E0F508A3D9
:102CA300E088828983F0E824FFF582E9123073E536
:102CB30008F0E824FEF582E9123073E50BF0900387
:102CC300F6E0C0E0E824FDF582E9123073D0E0F0CD
:102CD3009003F5E0C0E0E824FCF582E9123073D0FC
:102CE300E0F07412120B87122AC4122AB7E509F016
:102CF300E824FAF8E934FFF988828983E508F0EEDD
:102D03002404FCE43FFD88088A828B83E0F50E8C63
:102D1300828D83E0250EC39508124A5A1246138505
:102D23000C82850D83A3A3A3A3A3A3A3A3E064039E
:102D330070081244C3F0A3E48003123078122C7697
:102D43007409F0750878750919750A00780812086E
:102D5300A51230611210A474031208BC7508FF7524
:102D630009FF78081208A9AC0CAD0D7903EEFAEF50
:102D7300FB12225C74021208BCE9F5087007EEFA34
:102D8300EFFB12213CA908022AD8C082C083901904
:102D930094E0C39408400474078001E08A828B8323
:102DA300F033333354F8F902421A74F01203EF8A02
:102DB300088B09890A8C0E8D0F750C00A2AFE433C2
:102DC300F50BC2AF90198E8045122EA9503D122EDD
:102DD300B864037036E50824F9F508E50934FFF50E
:102DE300098E828F83A3A3E02405FCA3E03400FDB6
:102DF300AA08AB09121248E50824FFF508E50934CF
:102E0300FFF5097410250CF50C150A1232861265AC
:102E130021E50A6004EE4F70B0E50BA2E092AFA289
:102E2300AFE433F50BC2AF90198E8038124A2512E6
:102E33003C1F850882850983124A5A122EAFA3A329
:102E4300E0C0E0E50824FFF582E509123073D0E025
:102E5300F0E50824FEF508E50934FFF509050C152E
:102E63000A1232861230E06021122EB8640270F129
:102E7300122EA9EE40B61242ACA2E550E4850E82B2
:102E8300850F837401F0E50A70D7E50BA2E092AFDA
:102E9300850882850983E50CF0E50824FFFAE50936
:102EA30034FFFB022AD8123295A2E622122EB32255
:102EB300124A4FA3228E828F83A3A31241831251FE
:102EC300902274F01203EF74F31209857403120B4A
:102ED30087E9F07402120B87EAF08B0B8518828561
:102EE3001983E4F004120947122052E9F89003DB36
:102EF300E0292437F508FA7B001210C28A0C8B0DE7
:102F0300AE0CAF0DEE4F7003023058EE2402F50EF7
:102F1300E43FF50FA808EE28F8E43FF9850E828513
:102F23000F83124E079003DBE0F9FAC3E49AFA9594
:102F3300E0FB850E82850F83E02AF50CA3E03BF5C9
:102F43000D9003D9122AC4750A0078081208A5E95E
:102F5300FC7D00AA0CAB0D1210A474031208BCACC8
:102F630018AD197401120B87E0F9E50C24FFFAE59B
:102F73000D34FFFB1220588A828B83E4F0E50BC4E7
:102F830054F0F9901A1FE0C4333354C0F89003D5BA
:102F9300E0A2E0E43313134849440FC0E0EA24FFFE
:102FA300F582EB123073D0E0F0EA24FEF50CEB343B
:102FB300FFF50D7403120B87E0F87402120B87E020
:102FC300C454F048850C82850D83F0A80C850E82CD
:102FD300850F831257F32AC3988E828F83A3A3A3EB
:102FE300A3F0850E82850F83E8F0A3E50DF0123080
:102FF30078122C76E4F0740C120B87E4F0750883D6
:1030030075091978081208A51230611210A4740307
:103013001208BC851882851983E06009EE240E121C
:1030230042AE4408F0122244E9F9E4F508F50978C0
:10303300081208A9740612094FEEFAEFFB12225C7C
:1030430074021208BCE97006EEFAEFFB800BEEFA8D
:10305300EFFB1210C87A007B00740D022AD57C0B9B
:103063007D00EE241BFAE43FFB22EE24FFF582EF02
:1030730034FFF5832212554CE4F0A32274F21203B9
:10308300EF8A0C8B0DA2AFE433F50AC2AF750800CB
:1030930075090090198E802C1232A05024850C8261
:1030A300850D83A3A31255568E828F83A3A3124F3C
:1030B3005912224AE9600A123291C2E6F08E088F51
:1030C300091232861230E070CFE508450960061216
:1030D3003179D2E6F0E50AA2E092AF800DE0FEA3DB
:1030E300E0FFEE4F2274021208BC7F0602066574ED
:1030F300F01203EF8A0E8B0F8C0C8D0D750A00A254
:10310300AFE433F50BC2AF7E007F0090198E8010C1
:10311300AE08AF091231711242ACD2E7F0124099F6
:103123001240AF6034123179A2E750F185088285ED
:103133000983A3A3120734AC0CAD0DAA0EAB0F1277
:10314300225074021208BCE960D3EE4F60C21235FC
:10315300417006123184D2E4F0E50BA2E092AFEEA7
:103163004F6006122136750A01A90A022AD81232C3
:1031730095D2E4F0EE22E5081254763509F583E0A2
:10318300228E828F83A3A3124183E02274F212035F
:10319300EF74FE120985750C00750D008518828584
:1031A3001983E4F0A3F0A2AF33F50AC2AF90198EEE
:1031B3001265218035EE24FBF582EF34FF122AC21B
:1031C300780C1208A9EEFCEFFD7A8E7B191210F829
:1031D30074021208BCEEFCEFFDAA18AB191210E63C
:1031E300AE08AF09901994E014F0EE4F602B123241
:1031F300A0501DEE240BF8E43FF988828983E02474
:10320300FFF0A3E034FFF088828983124B0760A5A7
:103213008E0C8F0D1232868097E50AA2E092AF9052
:103223001994E060319003DCE0640F6006901A1E8D
:10323300E070237A6C7B191223349082D412073006
:103243007A6C7B1912232874041208BC800874F06A
:103253001246B312212AAA18AB191210EC8A088B52
:1032630009AE08AF09EE4F6013122064123291A227
:10327300E28E828F83A350D674E980D40230E88E25
:103283000A8F0BEE24FBF582EF34FFF58322123213
:103293009522EE2411F582E43FF583E02212329564
:1032A300A2E72274F71203EFEAFEEBFF1220641287
:1032B300417C1224A7E964019003F8700AE0240119
:1032C300F8A3E0340080031240FCF9124887124649
:1032D30013901994E070219003DCE0640F70197A65
:1032E3006C7B191223349082D41207307A6C7B19C9
:1032F30012232874041208BCA8A8C2AF901994E042
:1033030004F0E8A2E78004E508A2E092AF02477662
:1033130074F71203EFEAFEEBFF123348F012206456
:10332300EEFCEFFD7A8E7B191210F2A8A8C2AF90C3
:103333001994123C729003DCE0640F700579081253
:1033430021FC024776123295C2E42274F71203EF8E
:1033530074EA120985EAFEEBFF9003D5E0603C8531
:1033630018828519837401F0120B87E4123420123A
:103373000B87AA82AB83121248123184C0E0740A0D
:10338300120B87D0E012580F740B120B87AA82AB73
:1033930083122274AA18AB191216AA74160234B532
:1033A30074F71203EFEAFEEBFF122046E9F974DC2F
:1033B30069601E74DD69601974E469601474F369EB
:1033C300600F74DE69600A74DF69600574DB69701D
:1033D30007EEFAEFFB12220202477674F71203EFAD
:1033E30074EB120985EAFEEBFF8518828519837455
:1033F30006123420120B87AA82AB83121248EE24E2
:1034030008FCE43FFD740A120B87AA82AB831222E5
:1034130074AA18AB191216AA74150234B5F0EE2467
:1034230013FCE43FFD74022274F71203EF74F712E6
:103433000985EAFEEBFFEE24301242AE6065123DD1
:1034430015AA18AB191212487408120B877403F0EB
:103453009003F11207341234A9120734900404E0E4
:10346300F9740412094FEEFAEFFB12204C740412A4
:1034730008BCE9F974DC69602374DD69601E74E4D7
:1034830069601974F369601474DE69600F74DF692D
:10349300600A74E869600574DB697007EEFAEFFB94
:1034A300122202022C43EE242EF582E43FF58322FE
:1034B30074031208BC02477674F21203EF8A0C8B72
:1034C3000D750A00750B007508E7A2AFE433F50923
:1034D300C2AF90198E80031232821230E06036122E
:1034E30032A050F312354170EEEE24321242AEF8A0
:1034F3008A828B83A3A3E06870DD780A1208A9EEA1
:10350300FCEFFD7A8E7B191210F874021208BC903E
:103513001994E014F0E509A2E092AFEE4F6013EEC8
:10352300FAEFFB12206479F0EEFAEFFB1222027538
:103533000800A908AA0CAB0D1222020230ED122CCE
:103543007BE064012274F41203EF74F7120985EA35
:10355300FEEBFF8E828F83A3E064F370030235F2E8
:103563008E828F83A3E064DF70030235F28E828F35
:1035730083A3E064E860788E828F83A3E064DB60DA
:103583006E1220A6E9F508705EEE240E1242AE60BC
:10359300561235FC1220E8EA4B604C7408120B8774
:1035A3001236061207347508FF7509FF78081208EA
:1035B300A98E828F83A3A3A3A3A3A3A3A3E0F974D8
:1035C3000412094F12204C74041208BCE9F5087464
:1035D300F36508601274DF6508600C74E8650860C1
:1035E3000674DB6508700F8E828F83A3E508F0EE07
:1035F300FAEFFB1220B2022AE7EE240FFAE43FFBB4
:103603007909227402124F6874FFF0A31236132251
:1036130012361722124A37A3A32274F11203EFEAD8
:10362300FEEBFF7508008E828F83A3A3A3A3A3A33E
:10363300122AF140037508E88E828F83A3A3A3A304
:10364300A3A3A3A3A3A3E0C3941040057508E88034
:10365300138E828F83A3A3A3A3A3A3A3A3A3A3E0F4
:10366300640F600B9019FBE0540870037508E8EED3
:10367300240B1242AEF88E828F83A3A3A3A3A3A32A
:10368300A3A3A3A3E0C398500DEE240B1242AE6490
:103693000F60037508E89003F5E0F47003A3E0F40A
:1036A30070037508EC7A237B001211588A0A8B0B7E
:1036B300A80AA90B9019751236F060298E828F83A0
:1036C300A3A3A982AA83890C8A0D750E00780C1214
:1036D30008A57C237D00901975E0FA1210A47403E9
:1036E3001208BC800375081AA90802553F12461731
:1036F300E8492274F51203EFEAFEEBFF8E828F8313
:10370300A3A3A3A3A3A3A3A3E09003DC125EC79088
:1037130003F7125EAD9003D7125ECC901A1FF0F937
:10372300120F00901A1FE06018EE2404FAE43FFB26
:103733007950120EE8EE2406FAE43FFB79E1120E0B
:10374300E8901A1E122ADD6004740180027400904E
:103753001977125EB31208A57C0B7D007A787B196A
:103763001210A474031208BCEE2418F508E43FF504
:103773000978081208A57C0B7D007A837B19024423
:103783002174F71203EFEAFEEBFF8E828F83A3E02F
:103793007006124F561220AC1246AD12220E02478B
:1037A3007674F71203EFEAFEEBFF901975124B07DD
:1037B300600D124F56901975E4F0A3F012115E8E4E
:1037C300828F8374081246B31216AA02477674F6E0
:1037D3001203EF901A1EE06013901977E0700D1238
:1037E30037F212205EEA4B600312213C025B2F90FA
:1037F30003D7E0FB9003F7E0FA9003DCE0F92274CF
:10380300F41203EF74E7120985EAFEEBFF750B016F
:103813008E828F83A3A3A3A3A3A3A3E0A2E25068F2
:10382300EE242BF582E43F12555412473E12206AD0
:10383300E97055908202E064017005750B008048C1
:103843001238CE1208A57C0B7D00741112094712A1
:1038530010A474031208BC122244E9FA740E12096C
:103863003F8808890978081208A975083075090086
:1038730078081208A91238C01207341257DD7901EB
:1038830012226274061208BC85188285198374108B
:10389300123420120B87AA82AB8312123C1238C057
:1038A300125AA0740B120B87124613740D120B8756
:1038B300E50B1244611216AA7419022AE91238C4DC
:1038C30022EE242BF582E43FF58322EE2408125ED8
:1038D300BB22C082C083901A1FE060031222B6028B
:1038E300421AC082C083901A167454F0A37419F05C
:1038F300A37458F0A37419F0A37464F0A37419F0BB
:10390300901B5E7435F0A37428F0901A007440F095
:10391300A37420F09019997476F0A37420F0901991
:103923009B747CF0A37420F09019FBE04402023DE9
:103933004BC082C083EAFCEBFD7903024AAFC0822D
:10394300C0837908025CADC082C08374FE1209850E
:103953009019A17424F0A37421F09019A3741EF09C
:10396300A37421F0800D7A8E7B191210EC12445748
:1039730012223290198E124B0770EB901990124B52
:1039830007600F7A907B191210EC124457122232FF
:1039930080E990198EE4F0A3F0901994F0A3F0A3BA
:1039A300F09019AF7460F0A37421F0740280027474
:1039B300111208BC02421A74F61203EFE9FF7436BF
:1039C30029F582E4342AF583E493FEFA7B0012108E
:1039D300C2EA4B6013EA2E1242F7E8F0A3E9125849
:1039E3002FA3A3A3E4F0802C7A027B001210C2EA77
:1039F3004B601D74412FF582E4342AF583E4938AE6
:103A0300828B83F0A3741AF09019F6E0F91210CEAA
:103A13007A007B00025B2FE9FC740629F8EAA2E036
:103A2300501EE875F00A84E5F0F96014740A28C39F
:103A330099F8E9C394054004740A28F8740B28F82C
:103A4300ECC394134004791480027906E8297900C1
:103A53002409F85001097A0A7B0012029FE8F9024F
:103A63000889C082C0839019FBE05402600A1216D1
:103A7300B0E9600479018002790002421AC082C071
:103A8300839019FBE054026016901994E0700C12B5
:103A93004B04600BE0C81240A65004790180027900
:103AA3000002421AC082C0839081FFE0F890199609
:103AB300E0C39850051210C280047A007B000242D2
:103AC3001AC082C083122232790002421AC082C015
:103AD3008374FE120985851882851983EAF0A3EBA6
:103AE300123C4EA3A3A3A3A3E0600A14605D24FECB
:103AF3006060023BAD9003DCE0640F6018122208A3
:103B0300E97012851882851983124F5990199D12F5
:103B1300417F1224A7900404E0C0E0851882851930
:103B230083124A07D0E0123C4E7414125490FCA343
:103B3300E0FD7A907B191210E6A8A8C2AF901996FF
:103B4300123C7279201221FC0239AE123C12741518
:103B530080D9123C12A3A3A3A3E0604E123C12121D
:103B63003188C0E0851882851983125802123C2CD3
:103B7300D0E01254902402F8A3E03400F98882893B
:103B830083E02401FAA3E03400FB88828983EAF00E
:103B9300A3EB125490123F46851882851983601354
:103BA300123C1F6005123C354048AA18AB1912227B
:103BB300328095123C1F60F2123C355021123C4278
:103BC300FA851882851983A3E0C82406123F11F8E9
:103BD3007456124C49342AF583E4936A60148518A9
:103BE30082851983123C1F640870BF123C4264082B
:103BF30070B8123C4214123C56240AC0E085188265
:103C030085198312417FD0E0123C5604023B2E8576
:103C13001882851983A3E0F583888222123C23222C
:103C23001240FCC8123C2CE0222406F582E438F54D
:103C33008322851882851983123C23C3940A228523
:103C43001882851983122EB3A3E022123C60F583F8
:103C5300888222123C60C82406123F3D22F0851858
:103C6300828519831240FC22A8A8C2AF901995E05F
:103C730004F0E8A2E792AF22C082C0839019A51294
:103C83004B076008123C191224A7800279000242F4
:103C93001A74F71203EFEAFEEBFF122C7B74011286
:103CA30042B6125544122C5724351242AEC0E0EEF0
:103CB3002413F582E43FF583D0E0F0EE243612427C
:103CC300AEC0E0EE2414F582E43FF583D0E0F0EEDD
:103CD30024381242AEC0E0EE2418F582E43FF583A7
:103CE300D0E0F0EE242FF582E43FF583120734127F
:103CF3003D15EE24311242AEF912225C7402120811
:103D0300BCE9F5087007EEFAEFFB12213CA90802A3
:103D13004776EE2426FCE43FFD22C082C0831222B4
:103D230008E9600479208002790102421AC082C046
:103D330083EA2411123D41D2E0800DEA240DF5827D
:103D4300E43BF583E022F0A3F002421AC082C08371
:103D5300123D3E64017011123DDD400C8A828B835B
:103D6300A3E0F9122202806FEA2410123D41A2E679
:103D730050128A828B83A3E0F990199F12417F121C
:103D830024A78053123D3E6401700D123DDD50089F
:103D93008A828B83743080368A828B83A3E0641B90
:103DA3008A828B83700474228024A3E0700D123DF9
:103DB3003EF8742B124C49342A800B123D3EF874A2
:103DC30041124C49342AF583E4938A828B83F09021
:103DD30019F6E0F91210CE02421AEA2410F582E431
:103DE3003BF583E0A2E32274F71203EFE9FE124BE3
:103DF300047003023F0CEE6011741B6E7013E0C875
:103E0300123F0F64057003023EDA123F15E4023ECF
:103E1300DE74E96E7061123F35700B1216B6E960FD
:103E230005123F50606179EE120E6A901997123FA6
:103E330032901997603A123F53901997700B123FC3
:103E43003214F0121020023F0C123F45C2E7124019
:103E5300E2123F0F6403700B1257FF2411123F113C
:103E6300D2E2F079ED120E6A123F251224A7807573
:103E7300123F1874E9806474E16E703E1216B6E95D
:103E83006055123F5070509003FEE0C0E01257FFA0
:103E93002412F582E438F583D0E0F09003EDE0C01E
:103EA300E0901997123F21123F21D0E0F09003EDEB
:103EB300E004F07901121008804F741C6E701890A2
:103EC3001997124F599019A712417F1224A79019DD
:103ED30097E4F0A3F08032123F15EEF09019971299
:103EE3004F5912212A1240C3E054806010900404F9
:103EF300E0F9120F24900403E0F9120F18901997B8
:103F0300E4F0A3F079101221FC024776240D123F4E
:103F13003D22901997123F1C22124187A322124A75
:103F23004B22901997124F5D90199B12418322E007
:103F3300F8A3E0C82412123F3D22F582E438F5834A
:103F4300E022E0F8A3E0C82410123F3D2290199725
:103F53001240CAE054042274F41203EF750A007588
:103F63000B00A2AFE433FEC2AF124B046003024066
:103F73004F12417C1224A7E94410F890198E80094E
:103F830085080A85090B1240991240AF700302405D
:103F93004F123179586870E8780A1208A9AC08AD55
:103FA300097A8E7B191210F874021208BC901997C3
:103FB300E508F0A3E5091240E21240A650030240CF
:103FC30056901995E014F0EEA2E092AF901997E0A5
:103FD300240EF8A3E03400F9E8FEE9FF8E828F8314
:103FE300124F59901997123C48F91220EEE9901993
:103FF30092F0A3125A21E0548060181257FF241341
:10400300123F11F9120F241257FF2414123F11F912
:10401300120F181240C3A3E05401605F901992126B
:104023004B0760451240D960401240D9F87900909F
:104033001992124F591202A7E8C0E01240B7D0E01C
:104043001240E7C3941340117402800FEEA2E09272
:10405300AF8037901994023FC77400C0E09019985D
:10406300E0C8124090D0E0800D1240B774011240B6
:10407300E21240907401F07903800C901997123F7B
:1040830045A2E1B3E433F9121008022AEC241AF52D
:1040930082E438F58322E50824FBF582E50934FF41
:1040A300F58322125476123F40A2E722122AC8E572
:1040B300084509221258272419F582E438F583228A
:1040C3009019971240CA221240FCC81240D2221201
:1040D30054A038F583221258272418123F3D221288
:1040E30040F4C8221240F4F5838882A3A3A3A3E07B
:1040F30022F09019971240FC22E0F8A3E02274F713
:104103001203EFEAFEEBFF12222C1242ABA2E340B2
:104113000A12354170059081FD80039081FEE0F91C
:10412300EEFCEFFD7A8E7B191210FEE96037EEFA92
:10413300EFFB9019A112417F1224A7EE240E124225
:10414300AE54047011123C6B124178A3E054017019
:1041530021122136801CEEFAEFFB90199912417F50
:104163001224A7800D8E828F83A374F11246B3129B
:10417300212A02477612554C229019A31241832219
:1041830012418722E0F8A3E0F583888222024213DA
:1041930074F71203EFEAFEEBFF79009019FBE0548A
:1041A30002700CEE24331242AE5404600279E8909C
:1041B30019FBE05460700CEE24331242AE540260DB
:1041C3000279E88E828F83A3A3A3A3E0F8908203EE
:1041D300E0C398500279E8EE24311242AE700CEE3F
:1041E300242E1242AE700479F5800BE9700512217A
:1041F30018E9F9E96007EEFAEFFB122202024776AB
:10420300C082C0838A828B83740DF01216AA800742
:10421300C082C083122136D083D08202088974F40D
:104223001203EFEAFEEBFF8E828F83E4F0A31242C8
:10423300B654049081FD7012E0F8901995E0C3988C
:10424300401279F1122202022AECE0F8901994E06C
:10425300C39850EE1242BCA3E054016039EE2437F8
:104263001242AEC39405403CEE24331242AE5405D1
:1042730070327AA97B19122334EE2437F582E43F96
:10428300F583122AA878081208A17AA97B191223A8
:104293002874041208BCEEFAEFFB9019F6E0F91249
:1042A30010CE80A379E8809CEE2410F582E43FF5DC
:1042B30083E022F01242BCE022EE2433F582E43F95
:1042C300F5832274F61203EFE9FE2451FAE4340075
:1042D300FB1210C2EA4B6015EE8A828B83A3A3A361
:1042E300A3F0EA24511242F712461380047A007BAA
:1042F30000025B2FF8E43BF98A828B83A3A322029B
:104303004213C082C0839019B2748AF0A37421F05F
:10431300A374BAF0A37421F0A37490F0A37421F0F2
:10432300A37496F0A37421F0A374B4F0A37421F0E2
:10433300A374A8F0A37421F0A374A2F0A37421F0D2
:10434300A374C0F0A37421F0A374C6F0A37421F086
:10435300A374CCF0A37421F0A374D8F0A37421F058
:10436300A3749CF0A37421F0A37484F0A37421F0CC
:10437300A3747EF0A37421F09019CE74AEF0A374ED
:1043830021F0A374D2F0A37421F0A374ECF0A3740E
:1043930022F0A374DEF0A37421F0A374E4F0A374F9
:1043A30021F09019F2E4F09019F5F09019DE124320
:1043B300C27402F09019E71243C27401023D4B74B8
:1043C300FCF0A37421F0A32274F51203EF74F1122D
:1043D30009858518828519837402F07401120B878D
:1043E300E9F060047AFF7BFF7402120B871265A861
:1043F3007508EA750919750A0078081208A57C0B77
:104403007D007407120B87AA82AB831210A4740376
:104413001208BCAA18AB191216AA740F8005121041
:10442300A474031208BC7F0302066574F71203EF3A
:1044330074FD120985851882851983740AF0740145
:10444300120B87E9F07402120B87EA124461121609
:10445300AA0234B3851882851983EAF0A3EBF0AA84
:1044630018AB192274F61203EF74F7120985EAFEEA
:10447300EBFF1244C3122C737402124604AA18AB46
:104483001912123CEE24311255BB1244C98A828B95
:1044930083E8F0A3E91242B61255E01208A97402A8
:1044A30012094F79831A1AEFFB12225C7402120865
:1044B300BCE9F5087007EEFAEFFB12213C025B281A
:1044C30012554C740122FB8A828B831244D222E060
:1044D30024FFF8A3E034FFF92274F01203EF126013
:1044E30063120B307808790C12030078081208A1C4
:1044F3007AE17B19022AD074F41203EF74C612090D
:10450300859003DCE0640F6010851882851983743D
:104513002E12446112220E80277AD87B191223347B
:10452300122AFA1202A788088909E4F50AF50B781A
:10453300081208A17AD87B1912232874041208BC24
:10454300743A022AE974F51203EFEAFEEBFF8E8256
:104553008F83A3E0F860030245EDEE24301242AEF0
:1045630064026007E06403600278E8EE2426F582C3
:10457300E43FF583122AF3400478E88070E8706A18
:10458300EE2426FAE43FFB79E1120EE8EE2431FA39
:10459300E43FFB7950120EE8EE24301242AE64027F
:1045A3007014EE2428F582E43FF583125AA0900399
:1045B300EB12461380129003EB74FEF0A304124631
:1045C300047AE27B03121248EE241B1238D112083C
:1045D300A57C0B7D007AEA7B191210A474031208E0
:1045E300BCEEFAEFFB122178E9F8E86011E88E825D
:1045F3008F83A3125A2274171246B312220E024457
:1046030029F0EE2428FCE43FFD22125AA4901A73E9
:1046130012461722E8F0A3E9F02274F61203EF74AE
:10462300F71209859019F5E0703B7401F0F9120F48
:10463300D2AA18AB1912223E7508EA75091978082F
:104643001208A975080175090078081208A99003D2
:10465300F1120734740612094F7A037905122262A4
:1046630074061208BC025B2A74F71203EFEAFEEB2E
:10467300FF7901120FD88E828F83E064207004A328
:1046830074EBF09019F5E0A2E25003C2E2F0E0A26D
:10469300E150081248C9122172800C8E828F8374F4
:1046A3002A1246B312220E0247768E828F83742C0F
:1046B300F0EEFAEFFB2274F41203EF74FE12098595
:1046C300EAFEEBFF7901120FD87AD87B1912233453
:1046D3007AE17B19122334124A13851882851983D0
:1046E300124A41E0F50B7011AA18AB197953120E57
:1046F300E812473E794A120EE81238CE1208A57C1A
:104703000B7D007AEA7B191210A474031208BC858E
:104713001882851983124F59A90B12216C9019F530
:10472300E0A2E1500C7A008E828F83A3E0F912217C
:10473300729019F5E4F07402022AE9EE2413FAE404
:104743003FFB2274F71203EFEAFEEBFF8E828F83A7
:10475300A374EBF09019F5E0A2E150077A0079EB2E
:10476300122172EEFAEFFB1221A88007EEFAEFFB9B
:104773001222AA7F0102066574F71203EFEAFEEB29
:10478300FF7901120FD87AD87B191223347AE17B8F
:10479300191223349019F2E4F09019F5F07AFF7BA3
:1047A300FF8E828F83A3E0F912216C80C674F71207
:1047B30003EFEAFEEBFF1221A280B174F71203EFBD
:1047C300EAFEEBFF7901120FD88E828F83A3A3A396
:1047D300A3E060047400800274EB1248105003C21B
:1047E300E2F0E0A2E150081249121221728014A2F1
:1047F300E050108E828F83742AF0A374EB1246B3B9
:1048030012220EEEFAEFFB12214E0247768E828FB2
:1048130083A3F09019F5E0A2E22274F61203EFEA03
:10482300FEEBFF9019F5E0D2E1F07901120FD28E81
:10483300828F83A3E0703C122244E9FAEE240DF543
:1048430008E43FF50978081208A9750801750900FD
:1048530078081208A9124887120734EE2402FCE4F0
:104863003FFD790512226274061208BCE98E828F1D
:1048730083A3F08E828F83A3E060067A00F912216E
:1048830072025B2F12488B22EE240BF582E43FF574
:10489300832274F71203EFEAFEEBFF7901120FD8BC
:1048A3008E828F83E064207004A374EBF09019F57B
:1048B300E0A2E25003C2E2F0E0A2E150061248C9CE
:1048C300122172024776C2E1F07A008E828F83A3AF
:1048D300E0F92274F71203EFEAFEEBFF7901120FFE
:1048E300D87AD87B191223348E828F83A3A3A3A3F0
:1048F300E060047400800274EB1248105003C2E2BB
:10490300F0E0A2E15006124912122172024806C2D7
:10491300E1123613A3E0A2E4E433FA8E828F83A379
:10492300E0F92274F71203EFEAFEEBFF7901120FAD
:10493300D88E828F83A374EB1248155003C2E2F022
:10494300E0A2E150061248C912217202477674F7B9
:104953001203EFEAFEEBFF7AD87B19122334EEFA47
:10496300EFFB1221CC02476F74F71203EFEAFEEB61
:10497300FF7AD87B19122334EEFAEFFB1221CC0213
:10498300477674F71203EF74EF120985EAFEEBFF23
:104993001257DD7AE27B03121236E96062851882D0
:1049A3008519837409F07401120B8774EFF0124AAE
:1049B30013F87402120B87E8124A41A3A3E0C0E084
:1049C3007404120B87D0E0124A2E640870158E828D
:1049D3008F83A3A3124A07E0C0E07405120B87D0AC
:1049E300E080067405120B87E412580F7406120B4D
:1049F30087AA82AB83122274AA18AB191216AA745F
:104A0300110234B512582A2407F582E438F58322BB
:104A1300EE124A25125AA488828983E0FCA3E0F9A6
:104A2300EC221255C9FB8A828B8322124A3222124C
:104A33004A37E022F08E828F83A3A3A3A322F0A39D
:104A4300E9124A5A124A4B22124A4F22E0F8A3E0D3
:104A5300F5838882A3A322F08A828B8322C082C03B
:104A6300831222B602421AC082C083901A1274B211
:104A7300F0A37419F0A374CEF0A37419F0901B582B
:104A830074D3F0A37427F0A3740FF0A37427F090EA
:104A930019FE7466F0A37421F09019FBE04401023F
:104AA3003D4BC082C083EAFCEBFD790212221A025D
:104AB300421A74F61203EF74FE1209859019F71265
:104AC3004B0760077AF77B191222329019FDE4F045
:104AD300900AA2124B0760248007AA18AB1912226E
:104AE300329019F6E0F91210DA8A088B09A808A99E
:104AF300098518828519831236F070DE7402025B11
:104B03002C901997125AA4E8492274F71203EFE97B
:104B1300FA7B009019F6E0F912110402477674F754
:104B23001203EF74F0120985EAFCEBFDE9FE8C82B7
:104B33008D83E0F8744C124C49342AF583E493C016
:104B4300E07401120B87D0E0F0640B700DEE8C82E1
:104B53008D83A3F0122298024C44E07003024C446C
:104B6300640C6003024C35741A6E700B7404120BE0
:104B730087E4F0A3024C347404120B87ECF0A3ED2A
:104B8300F0EC2432F582E43DF583E0C0E0740312D7
:104B93000B87D0E0125D82120B587406120B87123A
:104BA3000B4C8C828D83125A97740A120B87E8F090
:104BB300A3E9124C4EE054106009851882851983CD
:104BC300E48017EC2412F582E43DF583E0F89003CA
:104BD300FEE0C398851882851983F0E0C0E0740C69
:104BE300120B87D0E0F0EC2415F582E43DF583E069
:104BF300C0E0740D120B87D0E0F0EC2416F582E4CC
:104C03003DF583E0C0E0740E120B87D0E0F0EC2496
:104C130017F582E43DF583E0C0E0740F120B87D0F3
:104C2300E0124C4EA3E0540160087401120B877428
:104C330011F07402120B87EEF07401120947121679
:104C4300AA74100234B528F582E422F0EC1254A0C1
:104C53003DF58322C082C0839019FDE06403700494
:104C630079018002790002421A74F71203EF901956
:104C7300FDE0124CE7745628F582741B39F5831254
:104C830051D2C2E7F0124CEEA3E493FE25E0FCE41C
:104C930033FD74562CF582741B3D125554EC4D6054
:104CA30005EE9019FDF08A828B83E025E0FCE43366
:104CB300FDE82CF582E93DF583E493FCC4540F250C
:104CC300E0F8740C124C49341AF583124B07700543
:104CD300122286800CEC540F124CEE12417F1224E8
:104CE300A702477625E0F8E433F92225E0FCE82C17
:104CF300F582E439F5832274F21203EF74FE12098C
:104D030085890B8A088B09124DE8FA7B001210C2C1
:104D13008A0C8B0DAE0CAF0DEE4F602E8E828F83FF
:104D2300E50BF0A3E4F0F50A78081208A5124DF597
:104D3300122C49FB1210A474031208BCEEFAEFFB09
:104D43009019F6E0F91210CE801285188285198326
:104D5300E50BF0791AAA18AB191222020230E87493
:104D6300F01203EF74FE120985890B8A0E8B0F1262
:104D73004DE8F508FA7B001210C28A0C8B0DAE0CBD
:104D8300AF0DEE4F60468E828F83E50BF0A3E4F008
:104D9300A808EE28F8E43FF98E828F83A3A3124E6E
:104DA30007850E08850F09F50A78081208A5124D24
:104DB300F51230661210A474031208BCEEFAEFFB6E
:104DC3009019F6E0F91210CE7900801485188285C7
:104DD3001983E50BF0791AAA18AB19122202791A72
:104DE3007402022AD5742029F582E4342AF583E477
:104DF3009322A80B7415124C49342AF583E493FCCF
:104E03007D00EE221246178E828F83A3A3A3A3E411
:104E1300F022C082C083E99019F6023D4B74F6126A
:104E230003EF74FE120985EAFEEBFFEE54207030A7
:104E33008039A8A8C2AF901996E014123C748A82F4
:104E43008B83124F499019F91265A812220E851807
:104E530082851983E0641560077AF97B191222327F
:104E63007A907B191210ECEA4B70C7EF54807012E2
:104E7300801C9019F91265A812220E7AF97B191277
:104E830022329019F6E0F91210DAEA4B70E4EE548C
:104E930010600E851882851983742D1244611222C5
:104EA3000EEEA2E0500E85188285198374241244F5
:104EB3006112220EEE5402600E85188285198374E6
:104EC3002512446112220EEE5404600E8518828569
:104ED3001983742612446112220EEE5408600E8563
:104EE3001882851983742812446112220EEE5440ED
:104EF30060107401120B87124F63742C12446112F9
:104F0300220EEE548060107401120B87124F6374EB
:104F13002F12446112220E9019F7124B076020A83A
:104F2300A8C2AF9019F7124F599019F7E4F0A312E2
:104F33003C741265A712220E7AF97B191222327A77
:104F4300007B00024AFF124F4D22E085188285192B
:104F530083F022901975124F5D22E0FAA3E0FB2241
:104F6300E4124F6822F085188285198322C082C01B
:104F7300839019F9125AA0EA687002EB69700790DE
:104F830019F9E4F0A3F002421A74F71203EFEAFEF0
:104F9300EBFFEE4F7003120BEEA2AFE433F508C242
:104FA300AF8E828F83124B076028E824FBFAE93423
:104FB300FFFB9019F9125556E86C7002E96D700702
:104FC3009019F9E4F0A3F08E828F83E4F0A3F0123A
:104FD300115E02330AC082C083901A20747AF0A350
:104FE3007422F0A3748CF0A37422F0A37492F0A340
:104FF3007422F0A37448F0A37421F0A37498F0A36F
:105003007422F0A37442F0A37421F0A3744EF0A3AE
:105013007421F0901A2E74C8F0A37422F0A3749E26
:10502300F0A37422F0A374A4F0A37422F0A374B0C9
:10503300F0A37422F0A374AAF0A37422F0901A1FB1
:10504300E4023D4BC082C0839003EBE064FE700337
:10505300A3E0F470097CE27D0312123C801C8A8277
:105063008B83A3A3A3A3A3A3A3A37402F09003EB33
:10507300125AA08A828B8312461302421AC082C03C
:10508300839003F5C3E094FEA3E094FF4004790307
:105093008002790202421AC082C0831251DB8C82E1
:1050A3008D83125190687039740268701C8A828BE8
:1050B300831250E9E06870298A828B83A31250E936
:1050C300A3E068701C7901801A7403687013EC24E0
:1050D30005FC50010DEA2405FA50010B121242801F
:1050E30002790002421AA3A3A3A3A3E0F88C828D42
:1050F30083A3A3A3A3A32274F61203EF7E00740A6F
:10510300120B87E0125184FF8A828B83A3A3A3A38C
:10511300A3A3A3A3E06F706474026F704E8A828BA3
:1051230083C082C08388828983A3A3A3A3A3E0F55A
:105133000888828983A3A3A3A3A3A3E0FBAA08D01F
:1051430083D082E06A7003A3E06B70308882898326
:10515300A3A3A3E0FA88828983A3A3A3A3E0F9EA24
:105163006C7002E96D70157E01801174036F700C11
:10517300E82405FCE439FD121242E9FEEEF9025B74
:105183002FF8A3E0F98882898312519022A3E013B8
:1051930013543F540322C082C0838A828B83A3A308
:1051A300A3A3A3A3A3A3E0640270169003EB12517D
:1051B300D2687003A3E06970047901800F790080DD
:1051C3000BEAFCEBFD7AE27B0312123602421A125F
:1051D3005AA48A828B83E0228A828B83125190F8AD
:1051E3002274F01203EF74FC120985E98518828595
:1051F3001983F07402120B87ECF0A3EDF08A0A8B8B
:105203000B7508007402120B87122A9FC0E0740109
:10521300120B87D0E0125490A2E75008750EFF7569
:105223000FFF800A9003F1E0F50EA3E0F50F851858
:1052330082851983E0C2E712549554206007125403
:105243006274088004125462E41254955404600793
:1052530012546D7480800512546D74101254955459
:1052630010600612544CE4800B9003FEE0C0E01281
:10527300544CD0E0125495A2E05003750820540812
:10528300600674104508F5088A828B83A3A3E02483
:10529300FFFEA3E034FFFFEA125457C39402E04039
:1052A3000F640B6009E0148E828F8312548674039B
:1052B3004508F508750900900411E0640170118A2E
:1052C300828B83A3A3A3A3E0C39467400375091050
:1052D300851882851983E0F50C750D00740E780C22
:1052E300120A29E50D4509F509E0640270199003D6
:1052F300F6125D77F09003F5E0C0E012306DD0E078
:10530300F0EE24FEFE801CE06403701DEE24F9FE23
:10531300EF34FFFF7C057D04EEFAEFFB121248EE3B
:1053230024FF1EEF34FFFF8003E0602F7401120B94
:1053330087E060187414120B87E0650E7004A3E015
:10534300650F700874404508F508800F8E828F83BF
:10535300E50FF012306DE50E12547C7401120B87C9
:10536300E0F50C750D00740A780C120A29E50D4559
:1053730009F509E0640270237402120B87125BEBD8
:105383008E828F83F07402120B8712318AC0E0126F
:10539300306DD0E0F0EE24FEFE8020E06403702147
:1053A300EE24F9FEEF34FFFF7402120B87125556F9
:1053B300EEFAEFFB121248EE24FF1EEF34FFFF80DC
:1053C30003E060197414120B87125D76F0741412E3
:1053D3000B87E0C0E012306DD0E012547CEEF8EFA2
:1053E300F9E824FF1EE934FFFFE50A12545770055C
:1053F3009003E180039003EDE0FA04F0EA888289E8
:1054030083125A22E5091254868E828F83E508F0AF
:10541300E50A2404F8E4350BF9E50A2402FAE43535
:105423000BFBEEFC8A828B83E0F50888828983E09C
:105433002508C39C124A5AEEF0A3EFF0850A828531
:105443000B83A3E4F0F9022AD3EA2412F582E435AC
:105453000BF58322240DF582E4350BF583E022EA74
:105463002410F582E4350BF58322EA125476350BCA
:10547300F583222411F582E422F0EE24FEFEEF34BC
:10548300FFFF22F0EE24FF1EEF34FFFF22124F68CE
:10549300E022F0EA1254A0350BF583E022240EF546
:1054A30082E42274F11203EF74FE120985851882D7
:1054B300851983ECF0A3EDF0890B8A0E750A1A7433
:1054C30015120B871263FF1220E88A0C8B0DAE0CAA
:1054D300AF0DEE4F605F7413120B87E0125544E873
:1054E300F0A3E9122C76E50BF0750A007808120890
:1054F300A51230611210A474031208BC7411120BAC
:10550300871207347402120B87125556A90EEEFA4E
:10551300EFFB12225C74021208BCE9F50A7016E56F
:105523000B24F96003147006123291D2E5F0EEFAFF
:10553300EFFB12213CA90A74021208BC7F07020682
:1055430065F8A3E0F912554C22EE1254A03FF583FF
:1055530022F583E0FCA3E0FD2274F61203EF74F757
:10556300120985EAFEEBFF7801EE24321242AE60A7
:10557300027805124178E8122C7374041255D31281
:10558300123CEE242F1255BB122C4F24311242AE83
:105593001255E01208A9740212094F79031A1AEF7F
:1055A300FB12225C74021208BCE9F5087007EEFADC
:1055B300EFFB12213C025B28F582E43FF583122ABC
:1055C300C8EE1255C9222402F8E43FF9E8FAE922A9
:1055D300F0EE2426FCE43FFDAA18AB192288828949
:1055E30083124A3204F078082274F21203EF8A0815
:1055F3008B09ECFEEDFF8A828B837405F0EE243277
:105603001242AE8A828B83A3A3F0EA2403F50AE451
:105613003509F50B850A82F583E0F50CA3E0F50D5A
:10562300EE2425F582E43FF583120B58E50C125462
:1056330076350DF583120B4C1257DDAA0CAB0D1208
:10564300123C850A82850B83125BF0FAA3E0FB8888
:10565300828983A3A3A31265A2EE242F1242AEC0B4
:10566300E01257E5D0E012581C2415F582E438F512
:1056730083E412581C1240D2E412580F850A828523
:105683000B83E02416FAA3E03400FB1222748E820B
:105693008F83A3A3A3A3A3A3A3E0C0E0850A82856A
:1056A3000B83125802240DF582E438F583D0E012FF
:1056B3005806FAA3E0FB850A82850B83125AA0E8F9
:1056C300240BFCE439FD8A828B83E08C828D83F08A
:1056D300A3E412582FE0F50B8C828D83A3E0450BD6
:1056E30012582FA3E0FCEA2403FA50010BECA2E7C3
:1056F300E433C0E0E8240FF582E439F583D0E0F029
:1057030074075C600478018002780075F003740705
:105713005CA428F8EA28FAE43BFBE5082405F8E44E
:105723003509F98A828B83E08882898312582FAAEC
:1057330082AB838508828509831265A28882898367
:10574300E0F50A25E0540EFCE50AC4540FF50A758A
:105753000B007403780A120A29E50A5438F8EC2876
:10576300F8EA28F8E43BF9850882850983A3A3A313
:10577300A3A3A3A3A3A3E8F0A3E9124A2EFA8E825C
:105783008F83A3A3E02AFAA3E03400FBC3EA98EBD8
:105793009940288E828F83A3A3E0F8850882850928
:1057A30083A3A3A3A3A3A3A3A3A31257F3C39A28D7
:1057B300850882850983A3A3A380168508828509AA
:1057C30083A3A3A3A3A3A3A3A3E4F08508828509CA
:1057D30083A3A3A3A3A3F00230EDEE2413FCE43FC1
:1057E300FD221257E922E82410F582E439F58322D9
:1057F300E0FA8E828F83A3A3A3A3E02290199712CA
:10580300582A22F08E828F83A3A3E02212581322F8
:10581300F0EE2408FCE43FFD22F0850A82850B8329
:1058230012582A229019971240FCC822124A5AA3EE
:105833002274F51203EF8C088D09750A007808129B
:1058430008A57C0B7D00024421020889C082C08325
:10585300791812220202421AC082C0838A828B8381
:10586300E0C3940B500312228002421AC082C08309
:10587300791980DE74F71203EFEAFEEBFF9019F754
:10588300124B0760109019F7124F5912228C7AF7B6
:105893007B19122232EEFAEFFB12222C9019F7EE4B
:1058A300F0A3EFF002477674F71203EF74DE1209E8
:1058B30085EAFEEBFF8E828F83E024FD601124FED8
:1058C300601524ED600924FA600D14600A803D74AC
:1058D30016120B87E480077416120B877401F012FB
:1058E3003D15740B120B87AA82AB831212487413F3
:1058F300120B87125985120B87124613740A120B67
:1059030087125991120B8712461380417416120B9A
:10591300877402F01257DD740B120B87AA82AB83D4
:105923001212487413120B87125985120B871246F1
:1059330013740A120B87125991120B87E8F0A3E92B
:1059430012597F120B87AA82AB83122274851882A5
:10595300851983740B125A22A3E0C0E07401120B61
:1059630087D0E012597F120B87AA82AB831222746D
:10597300AA18AB191216AA74220234B5125813745A
:1059830017227403F09003F5125AA47402227402CE
:10599300F09003F1125AA474142274F71203EFEA7D
:1059A300FEEBFF8E828F83A3E0F5087036EE242F83
:1059B300125A127003A3E06960037508E8EE242607
:1059C300FAE43FFB122256E96032EE2432F582E418
:1059D3003FF583E4F0E508700AEEFAEFFB12226864
:1059E300E9F508E50860128E828F83A3E508125A51
:1059F3002274191246B312220E024776EE24321293
:105A030042AE60D1901A1EE070CB7508E880D8F5DD
:105A130082E43FF583125AA49003F1E06822E4F094
:105A23008E828F8322C082C08374F112098574022F
:105A3300120B87740412582FE0C0E07403120B8713
:105A4300D0E0F0EA242FF582E43BF583125AA074E8
:105A53000D120B87124613EA2426FCE43BFD740463
:105A6300120B87AA82AB8312123C7404120B87AA0F
:105A730082AB83122256E9600E125AA9120EE890E5
:105A830003EB74FFF0A3F074021209471216AA7411
:105A93000F0239B4A3A3A3A3A3A3A3A3A3125AA43A
:105AA300221240FCF92285188285198374FFF0A322
:105AB300F0AA18AB1979532274F61203EF74E812A3
:105AC3000985EAFEEBFF7402120B877403F0EE24E0
:105AD30013F508E43FF509AC08FD7404120B87AA1B
:105AE30082AB83121248123184C0E0740C120B870C
:105AF300D0E012580F740D120B87AA82AB831222C7
:105B030074AA08AB09122256E9600E125AA9120EA2
:105B1300E89003EB74FFF0A3F07402120947121626
:105B2300AA74188004A90874091208BC7F0202062B
